{
  "address": "0x107462EBE2fc828eA554a39afD92a5E6812D1E18",
  "abi": [
    {
      "inputs": [],
      "name": "ApprovalCallerNotOwnerNorApproved",
      "type": "error"
    },
    {
      "inputs": [],
      "name": "ApprovalQueryForNonexistentToken",
      "type": "error"
    },
    {
      "inputs": [],
      "name": "BalanceQueryForZeroAddress",
      "type": "error"
    },
    {
      "inputs": [],
      "name": "MintERC2309QuantityExceedsLimit",
      "type": "error"
    },
    {
      "inputs": [],
      "name": "MintToZeroAddress",
      "type": "error"
    },
    {
      "inputs": [],
      "name": "MintZeroQuantity",
      "type": "error"
    },
    {
      "inputs": [],
      "name": "OnlyManager",
      "type": "error"
    },
    {
      "inputs": [],
      "name": "OwnerQueryForNonexistentToken",
      "type": "error"
    },
    {
      "inputs": [],
      "name": "OwnershipNotInitializedForExtraData",
      "type": "error"
    },
    {
      "inputs": [],
      "name": "TransferCallerNotOwnerNorApproved",
      "type": "error"
    },
    {
      "inputs": [],
      "name": "TransferFromIncorrectOwner",
      "type": "error"
    },
    {
      "inputs": [],
      "name": "TransferToNonERC721ReceiverImplementer",
      "type": "error"
    },
    {
      "inputs": [],
      "name": "TransferToZeroAddress",
      "type": "error"
    },
    {
      "inputs": [],
      "name": "URIQueryForNonexistentToken",
      "type": "error"
    },
    {
      "inputs": [],
      "name": "ZeroAddressSet",
      "type": "error"
    },
    {
      "anonymous": false,
      "inputs": [
        {
          "indexed": false,
          "internalType": "address",
          "name": "previousAdmin",
          "type": "address"
        },
        {
          "indexed": false,
          "internalType": "address",
          "name": "newAdmin",
          "type": "address"
        }
      ],
      "name": "AdminChanged",
      "type": "event"
    },
    {
      "anonymous": false,
      "inputs": [
        {
          "indexed": true,
          "internalType": "address",
          "name": "owner",
          "type": "address"
        },
        {
          "indexed": true,
          "internalType": "address",
          "name": "approved",
          "type": "address"
        },
        {
          "indexed": true,
          "internalType": "uint256",
          "name": "tokenId",
          "type": "uint256"
        }
      ],
      "name": "Approval",
      "type": "event"
    },
    {
      "anonymous": false,
      "inputs": [
        {
          "indexed": true,
          "internalType": "address",
          "name": "owner",
          "type": "address"
        },
        {
          "indexed": true,
          "internalType": "address",
          "name": "operator",
          "type": "address"
        },
        {
          "indexed": false,
          "internalType": "bool",
          "name": "approved",
          "type": "bool"
        }
      ],
      "name": "ApprovalForAll",
      "type": "event"
    },
    {
      "anonymous": false,
      "inputs": [
        {
          "indexed": true,
          "internalType": "address",
          "name": "beacon",
          "type": "address"
        }
      ],
      "name": "BeaconUpgraded",
      "type": "event"
    },
    {
      "anonymous": false,
      "inputs": [
        {
          "indexed": true,
          "internalType": "uint256",
          "name": "fromTokenId",
          "type": "uint256"
        },
        {
          "indexed": false,
          "internalType": "uint256",
          "name": "toTokenId",
          "type": "uint256"
        },
        {
          "indexed": true,
          "internalType": "address",
          "name": "from",
          "type": "address"
        },
        {
          "indexed": true,
          "internalType": "address",
          "name": "to",
          "type": "address"
        }
      ],
      "name": "ConsecutiveTransfer",
      "type": "event"
    },
    {
      "anonymous": false,
      "inputs": [
        {
          "indexed": false,
          "internalType": "uint8",
          "name": "version",
          "type": "uint8"
        }
      ],
      "name": "Initialized",
      "type": "event"
    },
    {
      "anonymous": false,
      "inputs": [
        {
          "indexed": true,
          "internalType": "address",
          "name": "previousOwner",
          "type": "address"
        },
        {
          "indexed": true,
          "internalType": "address",
          "name": "newOwner",
          "type": "address"
        }
      ],
      "name": "OwnershipTransferred",
      "type": "event"
    },
    {
      "anonymous": false,
      "inputs": [
        {
          "indexed": false,
          "internalType": "string",
          "name": "baseURI",
          "type": "string"
        }
      ],
      "name": "SetBaseURI",
      "type": "event"
    },
    {
      "anonymous": false,
      "inputs": [
        {
          "indexed": false,
          "internalType": "address",
          "name": "manager",
          "type": "address"
        }
      ],
      "name": "SetManager",
      "type": "event"
    },
    {
      "anonymous": false,
      "inputs": [
        {
          "components": [
            {
              "internalType": "string",
              "name": "name",
              "type": "string"
            },
            {
              "internalType": "enum IDegenNFTDefination.Rarity",
              "name": "rarity",
              "type": "uint8"
            },
            {
              "internalType": "enum IDegenNFTDefination.TokenType",
              "name": "tokenType",
              "type": "uint8"
            }
          ],
          "indexed": false,
          "internalType": "struct IDegenNFTDefination.Property",
          "name": "properties",
          "type": "tuple"
        }
      ],
      "name": "SetProperties",
      "type": "event"
    },
    {
      "anonymous": false,
      "inputs": [
        {
          "indexed": true,
          "internalType": "address",
          "name": "from",
          "type": "address"
        },
        {
          "indexed": true,
          "internalType": "address",
          "name": "to",
          "type": "address"
        },
        {
          "indexed": true,
          "internalType": "uint256",
          "name": "tokenId",
          "type": "uint256"
        }
      ],
      "name": "Transfer",
      "type": "event"
    },
    {
      "anonymous": false,
      "inputs": [
        {
          "indexed": true,
          "internalType": "address",
          "name": "implementation",
          "type": "address"
        }
      ],
      "name": "Upgraded",
      "type": "event"
    },
    {
      "inputs": [
        {
          "internalType": "address",
          "name": "to",
          "type": "address"
        },
        {
          "internalType": "uint256",
          "name": "tokenId",
          "type": "uint256"
        }
      ],
      "name": "approve",
      "outputs": [],
      "stateMutability": "payable",
      "type": "function"
    },
    {
      "inputs": [
        {
          "internalType": "address",
          "name": "owner",
          "type": "address"
        }
      ],
      "name": "balanceOf",
      "outputs": [
        {
          "internalType": "uint256",
          "name": "",
          "type": "uint256"
        }
      ],
      "stateMutability": "view",
      "type": "function"
    },
    {
      "inputs": [],
      "name": "baseURI",
      "outputs": [
        {
          "internalType": "string",
          "name": "",
          "type": "string"
        }
      ],
      "stateMutability": "view",
      "type": "function"
    },
    {
      "inputs": [
        {
          "internalType": "uint256",
          "name": "tokenId",
          "type": "uint256"
        }
      ],
      "name": "burn",
      "outputs": [],
      "stateMutability": "nonpayable",
      "type": "function"
    },
    {
      "inputs": [
        {
          "internalType": "uint256",
          "name": "tokenId",
          "type": "uint256"
        }
      ],
      "name": "exists",
      "outputs": [
        {
          "internalType": "bool",
          "name": "",
          "type": "bool"
        }
      ],
      "stateMutability": "view",
      "type": "function"
    },
    {
      "inputs": [
        {
          "internalType": "uint256",
          "name": "tokenId",
          "type": "uint256"
        }
      ],
      "name": "getApproved",
      "outputs": [
        {
          "internalType": "address",
          "name": "",
          "type": "address"
        }
      ],
      "stateMutability": "view",
      "type": "function"
    },
    {
      "inputs": [
        {
          "internalType": "uint256",
          "name": "tokenId",
          "type": "uint256"
        }
      ],
      "name": "getLevel",
      "outputs": [
        {
          "internalType": "uint256",
          "name": "",
          "type": "uint256"
        }
      ],
      "stateMutability": "view",
      "type": "function"
    },
    {
      "inputs": [
        {
          "internalType": "uint256",
          "name": "tokenId",
          "type": "uint256"
        }
      ],
      "name": "getProperty",
      "outputs": [
        {
          "components": [
            {
              "internalType": "string",
              "name": "name",
              "type": "string"
            },
            {
              "internalType": "enum IDegenNFTDefination.Rarity",
              "name": "rarity",
              "type": "uint8"
            },
            {
              "internalType": "enum IDegenNFTDefination.TokenType",
              "name": "tokenType",
              "type": "uint8"
            }
          ],
          "internalType": "struct IDegenNFTDefination.Property",
          "name": "",
          "type": "tuple"
        }
      ],
      "stateMutability": "view",
      "type": "function"
    },
    {
      "inputs": [
        {
          "internalType": "string",
          "name": "name_",
          "type": "string"
        },
        {
          "internalType": "string",
          "name": "symbol_",
          "type": "string"
        },
        {
          "internalType": "address",
          "name": "owner",
          "type": "address"
        }
      ],
      "name": "initialize",
      "outputs": [],
      "stateMutability": "nonpayable",
      "type": "function"
    },
    {
      "inputs": [
        {
          "internalType": "address",
          "name": "owner",
          "type": "address"
        },
        {
          "internalType": "address",
          "name": "operator",
          "type": "address"
        }
      ],
      "name": "isApprovedForAll",
      "outputs": [
        {
          "internalType": "bool",
          "name": "",
          "type": "bool"
        }
      ],
      "stateMutability": "view",
      "type": "function"
    },
    {
      "inputs": [],
      "name": "manager",
      "outputs": [
        {
          "internalType": "address",
          "name": "",
          "type": "address"
        }
      ],
      "stateMutability": "view",
      "type": "function"
    },
    {
      "inputs": [
        {
          "internalType": "address",
          "name": "to",
          "type": "address"
        },
        {
          "internalType": "uint256",
          "name": "quantity",
          "type": "uint256"
        }
      ],
      "name": "mint",
      "outputs": [],
      "stateMutability": "nonpayable",
      "type": "function"
    },
    {
      "inputs": [],
      "name": "name",
      "outputs": [
        {
          "internalType": "string",
          "name": "",
          "type": "string"
        }
      ],
      "stateMutability": "view",
      "type": "function"
    },
    {
      "inputs": [],
      "name": "nextTokenId",
      "outputs": [
        {
          "internalType": "uint256",
          "name": "",
          "type": "uint256"
        }
      ],
      "stateMutability": "view",
      "type": "function"
    },
    {
      "inputs": [],
      "name": "owner",
      "outputs": [
        {
          "internalType": "address",
          "name": "",
          "type": "address"
        }
      ],
      "stateMutability": "view",
      "type": "function"
    },
    {
      "inputs": [
        {
          "internalType": "uint256",
          "name": "tokenId",
          "type": "uint256"
        }
      ],
      "name": "ownerOf",
      "outputs": [
        {
          "internalType": "address",
          "name": "",
          "type": "address"
        }
      ],
      "stateMutability": "view",
      "type": "function"
    },
    {
      "inputs": [],
      "name": "proxiableUUID",
      "outputs": [
        {
          "internalType": "bytes32",
          "name": "",
          "type": "bytes32"
        }
      ],
      "stateMutability": "view",
      "type": "function"
    },
    {
      "inputs": [],
      "name": "renounceOwnership",
      "outputs": [],
      "stateMutability": "nonpayable",
      "type": "function"
    },
    {
      "inputs": [
        {
          "internalType": "address",
          "name": "from",
          "type": "address"
        },
        {
          "internalType": "address",
          "name": "to",
          "type": "address"
        },
        {
          "internalType": "uint256",
          "name": "tokenId",
          "type": "uint256"
        }
      ],
      "name": "safeTransferFrom",
      "outputs": [],
      "stateMutability": "payable",
      "type": "function"
    },
    {
      "inputs": [
        {
          "internalType": "address",
          "name": "from",
          "type": "address"
        },
        {
          "internalType": "address",
          "name": "to",
          "type": "address"
        },
        {
          "internalType": "uint256",
          "name": "tokenId",
          "type": "uint256"
        },
        {
          "internalType": "bytes",
          "name": "_data",
          "type": "bytes"
        }
      ],
      "name": "safeTransferFrom",
      "outputs": [],
      "stateMutability": "payable",
      "type": "function"
    },
    {
      "inputs": [
        {
          "internalType": "address",
          "name": "operator",
          "type": "address"
        },
        {
          "internalType": "bool",
          "name": "approved",
          "type": "bool"
        }
      ],
      "name": "setApprovalForAll",
      "outputs": [],
      "stateMutability": "nonpayable",
      "type": "function"
    },
    {
      "inputs": [
        {
          "internalType": "string",
          "name": "baseURI_",
          "type": "string"
        }
      ],
      "name": "setBaseURI",
      "outputs": [],
      "stateMutability": "nonpayable",
      "type": "function"
    },
    {
      "inputs": [
        {
          "internalType": "uint256",
          "name": "tokenId",
          "type": "uint256"
        },
        {
          "internalType": "uint256",
          "name": "level",
          "type": "uint256"
        }
      ],
      "name": "setLevel",
      "outputs": [],
      "stateMutability": "nonpayable",
      "type": "function"
    },
    {
      "inputs": [
        {
          "internalType": "address",
          "name": "manager_",
          "type": "address"
        }
      ],
      "name": "setManager",
      "outputs": [],
      "stateMutability": "nonpayable",
      "type": "function"
    },
    {
      "inputs": [
        {
          "internalType": "uint256",
          "name": "tokenId",
          "type": "uint256"
        },
        {
          "components": [
            {
              "internalType": "string",
              "name": "name",
              "type": "string"
            },
            {
              "internalType": "enum IDegenNFTDefination.Rarity",
              "name": "rarity",
              "type": "uint8"
            },
            {
              "internalType": "enum IDegenNFTDefination.TokenType",
              "name": "tokenType",
              "type": "uint8"
            }
          ],
          "internalType": "struct IDegenNFTDefination.Property",
          "name": "_property",
          "type": "tuple"
        }
      ],
      "name": "setProperties",
      "outputs": [],
      "stateMutability": "nonpayable",
      "type": "function"
    },
    {
      "inputs": [
        {
          "internalType": "uint256",
          "name": "tokenId",
          "type": "uint256"
        },
        {
          "internalType": "string",
          "name": "tokenURI",
          "type": "string"
        }
      ],
      "name": "setTokenURI",
      "outputs": [],
      "stateMutability": "nonpayable",
      "type": "function"
    },
    {
      "inputs": [
        {
          "internalType": "bytes4",
          "name": "interfaceId",
          "type": "bytes4"
        }
      ],
      "name": "supportsInterface",
      "outputs": [
        {
          "internalType": "bool",
          "name": "",
          "type": "bool"
        }
      ],
      "stateMutability": "view",
      "type": "function"
    },
    {
      "inputs": [],
      "name": "symbol",
      "outputs": [
        {
          "internalType": "string",
          "name": "",
          "type": "string"
        }
      ],
      "stateMutability": "view",
      "type": "function"
    },
    {
      "inputs": [
        {
          "internalType": "uint256",
          "name": "tokenId",
          "type": "uint256"
        }
      ],
      "name": "tokenURI",
      "outputs": [
        {
          "internalType": "string",
          "name": "",
          "type": "string"
        }
      ],
      "stateMutability": "view",
      "type": "function"
    },
    {
      "inputs": [],
      "name": "totalMinted",
      "outputs": [
        {
          "internalType": "uint256",
          "name": "",
          "type": "uint256"
        }
      ],
      "stateMutability": "view",
      "type": "function"
    },
    {
      "inputs": [],
      "name": "totalSupply",
      "outputs": [
        {
          "internalType": "uint256",
          "name": "",
          "type": "uint256"
        }
      ],
      "stateMutability": "view",
      "type": "function"
    },
    {
      "inputs": [
        {
          "internalType": "address",
          "name": "from",
          "type": "address"
        },
        {
          "internalType": "address",
          "name": "to",
          "type": "address"
        },
        {
          "internalType": "uint256",
          "name": "tokenId",
          "type": "uint256"
        }
      ],
      "name": "transferFrom",
      "outputs": [],
      "stateMutability": "payable",
      "type": "function"
    },
    {
      "inputs": [
        {
          "internalType": "address",
          "name": "newOwner",
          "type": "address"
        }
      ],
      "name": "transferOwnership",
      "outputs": [],
      "stateMutability": "nonpayable",
      "type": "function"
    },
    {
      "inputs": [
        {
          "internalType": "address",
          "name": "newImplementation",
          "type": "address"
        }
      ],
      "name": "upgradeTo",
      "outputs": [],
      "stateMutability": "nonpayable",
      "type": "function"
    },
    {
      "inputs": [
        {
          "internalType": "address",
          "name": "newImplementation",
          "type": "address"
        },
        {
          "internalType": "bytes",
          "name": "data",
          "type": "bytes"
        }
      ],
      "name": "upgradeToAndCall",
      "outputs": [],
      "stateMutability": "payable",
      "type": "function"
    }
  ],
  "transactionHash": "0x4fbd56bd4a53a258a51836331b87cfe41a8e4cbd46fee6c681d80807be530e02",
  "args": [],
  "numDeployments": 2,
  "solcInputHash": "b97f0bfd8d7e78f3e468e7270a2d4827",
  "bytecode": "0x60a06040523060805234801561001457600080fd5b50608051612e9461004c60003960008181610dbf01528181610dff01528181610f2701528181610f6701526110010152612e946000f3fe6080604052600436106102045760003560e01c806355f804b3116101185780638da5cb5b116100a0578063b88d4fde1161006f578063b88d4fde1461059f578063c87b56dd146105b2578063d0ebdbe7146105d2578063e985e9c5146105f2578063f2fde38b1461061257600080fd5b80638da5cb5b1461053757806395d89b4114610555578063a22cb4651461056a578063a2309ff81461058a57600080fd5b806370a93b36116100e757806370a93b36146104a0578063715018a6146104c0578063753af802146104d557806375794a3c146104f557806386481d401461050a57600080fd5b806355f804b31461042b5780636352211e1461044b5780636c0360eb1461046b57806370a082311461048057600080fd5b806332665ffb1161019b57806342966c681161016a57806342966c68146103a3578063481c6a75146103c35780634f1ef286146103e35780634f558e79146103f657806352d1902d1461041657600080fd5b806332665ffb146103235780633659cfe61461035057806340c10f191461037057806342842e0e1461039057600080fd5b8063095ea7b3116101d7578063095ea7b3146102ba578063162094c4146102cd57806318160ddd146102ed57806323b872dd1461031057600080fd5b806301ffc9a71461020957806306fdde031461023e578063077f224a14610260578063081812fc14610282575b600080fd5b34801561021557600080fd5b506102296102243660046123e6565b610632565b60405190151581526020015b60405180910390f35b34801561024a57600080fd5b50610253610684565b6040516102359190612453565b34801561026c57600080fd5b5061028061027b3660046124c6565b61071f565b005b34801561028e57600080fd5b506102a261029d366004612547565b6109c5565b6040516001600160a01b039091168152602001610235565b6102806102c8366004612560565b610a12565b3480156102d957600080fd5b506102806102e8366004612656565b610a22565b3480156102f957600080fd5b50610302610a57565b604051908152602001610235565b61028061031e36600461269d565b610a77565b34801561032f57600080fd5b5061034361033e366004612547565b610c76565b60405161023591906126ef565b34801561035c57600080fd5b5061028061036b36600461274e565b610db5565b34801561037c57600080fd5b5061028061038b366004612560565b610e94565b61028061039e36600461269d565b610ec9565b3480156103af57600080fd5b506102806103be366004612547565b610ee9565b3480156103cf57600080fd5b5060fc546102a2906001600160a01b031681565b6102806103f1366004612769565b610f1d565b34801561040257600080fd5b50610229610411366004612547565b610fe9565b34801561042257600080fd5b50610302610ff4565b34801561043757600080fd5b506102806104463660046127a1565b6110a7565b34801561045757600080fd5b506102a2610466366004612547565b6110fa565b34801561047757600080fd5b50610253611105565b34801561048c57600080fd5b5061030261049b36600461274e565b611193565b3480156104ac57600080fd5b506102806104bb3660046127e3565b6111fc565b3480156104cc57600080fd5b50610280611239565b3480156104e157600080fd5b506102806104f0366004612805565b61124d565b34801561050157600080fd5b50610302611325565b34801561051657600080fd5b50610302610525366004612547565b600090815260fe602052604090205490565b34801561054357600080fd5b5060c9546001600160a01b03166102a2565b34801561056157600080fd5b50610253611334565b34801561057657600080fd5b506102806105853660046128b2565b61134c565b34801561059657600080fd5b506103026113c9565b6102806105ad3660046128ee565b6113d3565b3480156105be57600080fd5b506102536105cd366004612547565b61141d565b3480156105de57600080fd5b506102806105ed36600461274e565b611528565b3480156105fe57600080fd5b5061022961060d366004612956565b6115ab565b34801561061e57600080fd5b5061028061062d36600461274e565b6115e8565b60006301ffc9a760e01b6001600160e01b03198316148061066357506380ac58cd60e01b6001600160e01b03198316145b8061067e5750635b5e139f60e01b6001600160e01b03198316145b92915050565b606061068e61165e565b600201805461069c90612989565b80601f01602080910402602001604051908101604052809291908181526020018280546106c890612989565b80156107155780601f106106ea57610100808354040283529160200191610715565b820191906000526020600020905b8154815290600101906020018083116106f857829003601f168201915b5050505050905090565b600080516020612e3f83398151915254610100900460ff1661075457600080516020612e3f8339815191525460ff1615610758565b303b155b6107cf5760405162461bcd60e51b815260206004820152603760248201527f455243373231415f5f496e697469616c697a61626c653a20636f6e747261637460448201527f20697320616c726561647920696e697469616c697a656400000000000000000060648201526084015b60405180910390fd5b600080516020612e3f83398151915254610100900460ff1615801561080b57600080516020612e3f833981519152805461ffff19166101011790555b600054610100900460ff161580801561082b5750600054600160ff909116105b806108455750303b158015610845575060005460ff166001145b6108a85760405162461bcd60e51b815260206004820152602e60248201527f496e697469616c697a61626c653a20636f6e747261637420697320616c72656160448201526d191e481a5b9a5d1a585b1a5e995960921b60648201526084016107c6565b6000805460ff1916600117905580156108cb576000805461ff0019166101001790555b61093e87878080601f01602080910402602001604051908101604052809392919081815260200183838082843760009201919091525050604080516020601f8b01819004810282018101909252898152925089915088908190840183828082843760009201919091525061168292505050565b6109466116c0565b61094e6116e7565b61095783611713565b801561099d576000805461ff0019169055604051600181527f7f26b83ff96e1f2b6a682f133852f6798a09c465da95921460cefb38474024989060200160405180910390a15b5080156109bd57600080516020612e3f833981519152805461ff00191690555b505050505050565b60006109d082611765565b6109ed576040516333d1c03960e21b815260040160405180910390fd5b6109f561165e565b60009283526006016020525060409020546001600160a01b031690565b610a1e828260016117ae565b5050565b60fc546001600160a01b03163314610a4d5760405163605919ad60e11b815260040160405180910390fd5b610a1e8282611863565b60006001610a6361165e565b60010154610a6f61165e565b540303919050565b6000610a82826118e7565b9050836001600160a01b0316816001600160a01b031614610ab55760405162a1148160e81b815260040160405180910390fd5b600080610ac184611994565b91509150610ae68187610ad13390565b6001600160a01b039081169116811491141790565b610b1157610af486336115ab565b610b1157604051632ce44b5f60e11b815260040160405180910390fd5b6001600160a01b038516610b3857604051633a954ecd60e21b815260040160405180910390fd5b8015610b4357600082555b610b4b61165e565b6001600160a01b0387166000908152600591909101602052604090208054600019019055610b7761165e565b6001600160a01b03861660009081526005919091016020526040902080546001019055610bc485610ba98882876119bc565b600160e11b174260a01b176001600160a01b03919091161790565b610bcc61165e565b60008681526004919091016020526040812091909155600160e11b84169003610c425760018401610bfb61165e565b600082815260049190910160205260408120549003610c4057610c1c61165e565b548114610c405783610c2c61165e565b600083815260049190910160205260409020555b505b83856001600160a01b0316876001600160a01b0316600080516020612e1f83398151915260405160405180910390a46109bd565b610c9a60408051606080820190925290815260208101600081526020016000905290565b600082815260fb602052604090819020815160608101909252805482908290610cc290612989565b80601f0160208091040260200160405190810160405280929190818152602001828054610cee90612989565b8015610d3b5780601f10610d1057610100808354040283529160200191610d3b565b820191906000526020600020905b815481529060010190602001808311610d1e57829003601f168201915b5050509183525050600182015460209091019060ff166004811115610d6257610d626126d9565b6004811115610d7357610d736126d9565b81526020016001820160019054906101000a900460ff166001811115610d9b57610d9b6126d9565b6001811115610dac57610dac6126d9565b90525092915050565b6001600160a01b037f0000000000000000000000000000000000000000000000000000000000000000163003610dfd5760405162461bcd60e51b81526004016107c6906129c3565b7f00000000000000000000000000000000000000000000000000000000000000006001600160a01b0316610e46600080516020612dd8833981519152546001600160a01b031690565b6001600160a01b031614610e6c5760405162461bcd60e51b81526004016107c690612a0f565b610e75816119c6565b60408051600080825260208201909252610e91918391906119ce565b50565b60fc546001600160a01b03163314610ebf5760405163605919ad60e11b815260040160405180910390fd5b610a1e8282611b39565b610ee4838383604051806020016040528060008152506113d3565b505050565b60fc546001600160a01b03163314610f145760405163605919ad60e11b815260040160405180910390fd5b610e9181611c6f565b6001600160a01b037f0000000000000000000000000000000000000000000000000000000000000000163003610f655760405162461bcd60e51b81526004016107c6906129c3565b7f00000000000000000000000000000000000000000000000000000000000000006001600160a01b0316610fae600080516020612dd8833981519152546001600160a01b031690565b6001600160a01b031614610fd45760405162461bcd60e51b81526004016107c690612a0f565b610fdd826119c6565b610a1e828260016119ce565b600061067e82611765565b6000306001600160a01b037f000000000000000000000000000000000000000000000000000000000000000016146110945760405162461bcd60e51b815260206004820152603860248201527f555550535570677261646561626c653a206d757374206e6f742062652063616c60448201527f6c6564207468726f7567682064656c656761746563616c6c000000000000000060648201526084016107c6565b50600080516020612dd883398151915290565b6110af611caf565b60fd6110bc828483612aa1565b507f23c8c9488efebfd474e85a7956de6f39b17c7ab88502d42a623db2d8e382bbaa82826040516110ee929190612b62565b60405180910390a15050565b600061067e826118e7565b60fd805461111290612989565b80601f016020809104026020016040519081016040528092919081815260200182805461113e90612989565b801561118b5780601f106111605761010080835404028352916020019161118b565b820191906000526020600020905b81548152906001019060200180831161116e57829003601f168201915b505050505081565b60006001600160a01b0382166111bc576040516323d3ad8160e21b815260040160405180910390fd5b67ffffffffffffffff6111cd61165e565b6005016000846001600160a01b03166001600160a01b0316815260200190815260200160002054169050919050565b60fc546001600160a01b031633146112275760405163605919ad60e11b815260040160405180910390fd5b600091825260fe602052604090912055565b611241611caf565b61124b6000611713565b565b60fc546001600160a01b031633146112785760405163605919ad60e11b815260040160405180910390fd5b600082815260fb60205260409020815182919081906112979082612b91565b50602082015160018083018054909160ff19909116908360048111156112bf576112bf6126d9565b021790555060408201518160010160016101000a81548160ff021916908360018111156112ee576112ee6126d9565b02179055509050507f8108a85f1e39db16f8a896aa41eeb312cfab6e7988ed5e047517889a10a94317816040516110ee91906126ef565b600061132f611d09565b905090565b606061133e61165e565b600301805461069c90612989565b8061135561165e565b336000818152600792909201602090815260408084206001600160a01b03881680865290835293819020805460ff19169515159590951790945592518415158152919290917f17307eab39ab6107e8899845ad3d59bd9653f200f220920489ca2b5937696c31910160405180910390a35050565b600061132f611d19565b6113de848484610a77565b6001600160a01b0383163b15611417576113fa84848484611d2c565b611417576040516368d2bf6b60e11b815260040160405180910390fd5b50505050565b606061142882611e17565b6000828152606560205260408120805461144190612989565b80601f016020809104026020016040519081016040528092919081815260200182805461146d90612989565b80156114ba5780601f1061148f576101008083540402835291602001916114ba565b820191906000526020600020905b81548152906001019060200180831161149d57829003601f168201915b5050505050905060006114cb611e6c565b905080516000036114dd575092915050565b81511561150f5780826040516020016114f7929190612c51565b60405160208183030381529060405292505050919050565b61151884611e7b565b6040516020016114f79190612c80565b611530611caf565b6001600160a01b03811661155757604051630ae8f22360e21b815260040160405180910390fd5b60fc80546001600160a01b0319166001600160a01b0383169081179091556040519081527f54a6385aa0292b04e1ef8513253c17d1863f7cdfc87029d77fd55cc4c2e717e29060200160405180910390a150565b60006115b561165e565b6001600160a01b039384166000908152600791909101602090815260408083209490951682529290925250205460ff1690565b6115f0611caf565b6001600160a01b0381166116555760405162461bcd60e51b815260206004820152602660248201527f4f776e61626c653a206e6577206f776e657220697320746865207a65726f206160448201526564647265737360d01b60648201526084016107c6565b610e9181611713565b7f2569078dfb4b0305704d3008e7403993ae9601b85f7ae5e742de3de8f8011c4090565b600080516020612e3f83398151915254610100900460ff166116b65760405162461bcd60e51b81526004016107c690612ca9565b610a1e8282611efe565b600054610100900460ff1661124b5760405162461bcd60e51b81526004016107c690612cfd565b600054610100900460ff1661170e5760405162461bcd60e51b81526004016107c690612cfd565b61124b335b60c980546001600160a01b038381166001600160a01b0319831681179093556040519116919082907f8be0079c531659141344cd1fd0a4f28419497f9722a3daafe3b4186f6b6457e090600090a35050565b60008160011115801561177f575061177b61165e565b5482105b801561067e5750600160e01b61179361165e565b60008481526004919091016020526040902054161592915050565b60006117b9836110fa565b905081156117f857336001600160a01b038216146117f8576117db81336115ab565b6117f8576040516367d9dca160e11b815260040160405180910390fd5b8361180161165e565b6000858152600691909101602052604080822080546001600160a01b0319166001600160a01b0394851617905551859287811692908516917f8c5be1e5ebec7d5bd14f71427d1e84f3dd0314c0f7b2291e5b200ac8c7c3b9259190a450505050565b61186c82611765565b6118cf5760405162461bcd60e51b815260206004820152602e60248201527f45524337323155524953746f726167653a2055524920736574206f66206e6f6e60448201526d32bc34b9ba32b73a103a37b5b2b760911b60648201526084016107c6565b6000828152606560205260409020610ee48282612b91565b60008160011161197b576118f961165e565b600083815260049190910160205260408120549150600160e01b8216900361197b57806000036119765761192b61165e565b54821061194b57604051636f96cda160e11b815260040160405180910390fd5b61195361165e565b60001990920160008181526004939093016020526040909220549050801561194b575b919050565b604051636f96cda160e11b815260040160405180910390fd5b60008060006119a161165e565b60009485526006016020525050604090912080549092909150565b60005b9392505050565b610e91611caf565b7f4910fdfa16fed3260ed0e7147f7cc6da11a60208b5b9406d12a635614ffd91435460ff1615611a0157610ee483611f71565b826001600160a01b03166352d1902d6040518163ffffffff1660e01b8152600401602060405180830381865afa925050508015611a5b575060408051601f3d908101601f19168201909252611a5891810190612d48565b60015b611abe5760405162461bcd60e51b815260206004820152602e60248201527f45524331393637557067726164653a206e657720696d706c656d656e7461746960448201526d6f6e206973206e6f74205555505360901b60648201526084016107c6565b600080516020612dd88339815191528114611b2d5760405162461bcd60e51b815260206004820152602960248201527f45524331393637557067726164653a20756e737570706f727465642070726f786044820152681a58589b195555525160ba1b60648201526084016107c6565b50610ee483838361200d565b6000611b4361165e565b5490506000829003611b685760405163b562e8dd60e01b815260040160405180910390fd5b680100000000000000018202611b7c61165e565b6001600160a01b0385166000908152600591909101602052604081208054909201909155611bce908490611bb19082816119bc565b6001851460e11b174260a01b176001600160a01b03919091161790565b611bd661165e565b600083815260049190910160205260408120919091556001600160a01b038416908383019083908390600080516020612e1f8339815191528180a4600183015b818114611c3c5780836000600080516020612e1f833981519152600080a4600101611c16565b5081600003611c5d57604051622e076360e81b815260040160405180910390fd5b80611c6661165e565b5550610ee49050565b611c7881612032565b60008181526065602052604090208054611c9190612989565b159050610e91576000818152606560205260408120610e9191612382565b60c9546001600160a01b0316331461124b5760405162461bcd60e51b815260206004820181905260248201527f4f776e61626c653a2063616c6c6572206973206e6f7420746865206f776e657260448201526064016107c6565b6000611d1361165e565b54919050565b60006001611d2561165e565b5403919050565b604051630a85bd0160e11b81526000906001600160a01b0385169063150b7a0290611d61903390899088908890600401612d61565b6020604051808303816000875af1925050508015611d9c575060408051601f3d908101601f19168201909252611d9991810190612d9e565b60015b611dfa573d808015611dca576040519150601f19603f3d011682016040523d82523d6000602084013e611dcf565b606091505b508051600003611df2576040516368d2bf6b60e11b815260040160405180910390fd5b805181602001fd5b6001600160e01b031916630a85bd0160e11b149050949350505050565b611e2081611765565b610e915760405162461bcd60e51b815260206004820152601860248201527f4552433732313a20696e76616c696420746f6b656e204944000000000000000060448201526064016107c6565b606060fd805461069c90612989565b6060611e8682611765565b611ea357604051630a14c4b560e41b815260040160405180910390fd5b6000611ead611e6c565b90508051600003611ecd57604051806020016040528060008152506119bf565b80611ed78461203d565b604051602001611ee8929190612c51565b6040516020818303038152906040529392505050565b600080516020612e3f83398151915254610100900460ff16611f325760405162461bcd60e51b81526004016107c690612ca9565b81611f3b61165e565b60020190611f499082612b91565b5080611f5361165e565b60030190611f619082612b91565b506001611f6c61165e565b555050565b6001600160a01b0381163b611fde5760405162461bcd60e51b815260206004820152602d60248201527f455243313936373a206e657720696d706c656d656e746174696f6e206973206e60448201526c1bdd08184818dbdb9d1c9858dd609a1b60648201526084016107c6565b600080516020612dd883398151915280546001600160a01b0319166001600160a01b0392909216919091179055565b61201683612081565b6000825111806120235750805b15610ee45761141783836120c1565b610e918160006121b5565b606060a06040510180604052602081039150506000815280825b600183039250600a81066030018353600a9004806120575750819003601f19909101908152919050565b61208a81611f71565b6040516001600160a01b038216907fbc7cd75a20ee27fd9adebab32041f755214dbc6bffa90cc0225b39da2e5c2d3b90600090a250565b60606001600160a01b0383163b6121295760405162461bcd60e51b815260206004820152602660248201527f416464726573733a2064656c65676174652063616c6c20746f206e6f6e2d636f6044820152651b9d1c9858dd60d21b60648201526084016107c6565b600080846001600160a01b0316846040516121449190612dbb565b600060405180830381855af49150503d806000811461217f576040519150601f19603f3d011682016040523d82523d6000602084013e612184565b606091505b50915091506121ac8282604051806060016040528060278152602001612df860279139612344565b95945050505050565b60006121c0836118e7565b9050806000806121cf86611994565b91509150841561220f576121e4818433610ad1565b61220f576121f283336115ab565b61220f57604051632ce44b5f60e11b815260040160405180910390fd5b801561221a57600082555b6fffffffffffffffffffffffffffffffff61223361165e565b6001600160a01b0385166000908152600591909101602052604081208054909201909155612284908490612269908290886119bc565b600360e01b174260a01b176001600160a01b03919091161790565b61228c61165e565b60008881526004919091016020526040812091909155600160e11b8516900361230257600186016122bb61165e565b600082815260049190910160205260408120549003612300576122dc61165e565b54811461230057846122ec61165e565b600083815260049190910160205260409020555b505b60405186906000906001600160a01b03861690600080516020612e1f833981519152908390a461233061165e565b600190810180549091019055505050505050565b606083156123535750816119bf565b6119bf83838151156123685781518083602001fd5b8060405162461bcd60e51b81526004016107c69190612453565b50805461238e90612989565b6000825580601f1061239e575050565b601f016020900490600052602060002090810190610e9191905b808211156123cc57600081556001016123b8565b5090565b6001600160e01b031981168114610e9157600080fd5b6000602082840312156123f857600080fd5b81356119bf816123d0565b60005b8381101561241e578181015183820152602001612406565b50506000910152565b6000815180845261243f816020860160208601612403565b601f01601f19169290920160200192915050565b6020815260006119bf6020830184612427565b60008083601f84011261247857600080fd5b50813567ffffffffffffffff81111561249057600080fd5b6020830191508360208285010111156124a857600080fd5b9250929050565b80356001600160a01b038116811461197657600080fd5b6000806000806000606086880312156124de57600080fd5b853567ffffffffffffffff808211156124f657600080fd5b61250289838a01612466565b9097509550602088013591508082111561251b57600080fd5b5061252888828901612466565b909450925061253b9050604087016124af565b90509295509295909350565b60006020828403121561255957600080fd5b5035919050565b6000806040838503121561257357600080fd5b61257c836124af565b946020939093013593505050565b634e487b7160e01b600052604160045260246000fd5b6040516060810167ffffffffffffffff811182821017156125c3576125c361258a565b60405290565b600082601f8301126125da57600080fd5b813567ffffffffffffffff808211156125f5576125f561258a565b604051601f8301601f19908116603f0116810190828211818310171561261d5761261d61258a565b8160405283815286602085880101111561263657600080fd5b836020870160208301376000602085830101528094505050505092915050565b6000806040838503121561266957600080fd5b82359150602083013567ffffffffffffffff81111561268757600080fd5b612693858286016125c9565b9150509250929050565b6000806000606084860312156126b257600080fd5b6126bb846124af565b92506126c9602085016124af565b9150604084013590509250925092565b634e487b7160e01b600052602160045260246000fd5b60208152600082516060602084015261270b6080840182612427565b9050602084015160058110612722576127226126d9565b8060408501525060408401516002811061273e5761273e6126d9565b6060939093019290925250919050565b60006020828403121561276057600080fd5b6119bf826124af565b6000806040838503121561277c57600080fd5b612785836124af565b9150602083013567ffffffffffffffff81111561268757600080fd5b600080602083850312156127b457600080fd5b823567ffffffffffffffff8111156127cb57600080fd5b6127d785828601612466565b90969095509350505050565b600080604083850312156127f657600080fd5b50508035926020909101359150565b6000806040838503121561281857600080fd5b82359150602083013567ffffffffffffffff8082111561283757600080fd5b908401906060828703121561284b57600080fd5b6128536125a0565b82358281111561286257600080fd5b61286e888286016125c9565b825250602083013591506005821061288557600080fd5b816020820152604083013592506002831061289f57600080fd5b8260408201528093505050509250929050565b600080604083850312156128c557600080fd5b6128ce836124af565b9150602083013580151581146128e357600080fd5b809150509250929050565b6000806000806080858703121561290457600080fd5b61290d856124af565b935061291b602086016124af565b925060408501359150606085013567ffffffffffffffff81111561293e57600080fd5b61294a878288016125c9565b91505092959194509250565b6000806040838503121561296957600080fd5b612972836124af565b9150612980602084016124af565b90509250929050565b600181811c9082168061299d57607f821691505b6020821081036129bd57634e487b7160e01b600052602260045260246000fd5b50919050565b6020808252602c908201527f46756e6374696f6e206d7573742062652063616c6c6564207468726f7567682060408201526b19195b1959d85d1958d85b1b60a21b606082015260800190565b6020808252602c908201527f46756e6374696f6e206d7573742062652063616c6c6564207468726f7567682060408201526b6163746976652070726f787960a01b606082015260800190565b601f821115610ee457600081815260208120601f850160051c81016020861015612a825750805b601f850160051c820191505b818110156109bd57828155600101612a8e565b67ffffffffffffffff831115612ab957612ab961258a565b612acd83612ac78354612989565b83612a5b565b6000601f841160018114612b015760008515612ae95750838201355b600019600387901b1c1916600186901b178355612b5b565b600083815260209020601f19861690835b82811015612b325786850135825560209485019460019092019101612b12565b5086821015612b4f5760001960f88860031b161c19848701351681555b505060018560011b0183555b5050505050565b60208152816020820152818360408301376000818301604090810191909152601f909201601f19160101919050565b815167ffffffffffffffff811115612bab57612bab61258a565b612bbf81612bb98454612989565b84612a5b565b602080601f831160018114612bf45760008415612bdc5750858301515b600019600386901b1c1916600185901b1785556109bd565b600085815260208120601f198616915b82811015612c2357888601518255948401946001909101908401612c04565b5085821015612c415787850151600019600388901b60f8161c191681555b5050505050600190811b01905550565b60008351612c63818460208801612403565b835190830190612c77818360208801612403565b01949350505050565b60008251612c92818460208701612403565b64173539b7b760d91b920191825250600501919050565b60208082526034908201527f455243373231415f5f496e697469616c697a61626c653a20636f6e7472616374604082015273206973206e6f7420696e697469616c697a696e6760601b606082015260800190565b6020808252602b908201527f496e697469616c697a61626c653a20636f6e7472616374206973206e6f74206960408201526a6e697469616c697a696e6760a81b606082015260800190565b600060208284031215612d5a57600080fd5b5051919050565b6001600160a01b0385811682528416602082015260408101839052608060608201819052600090612d9490830184612427565b9695505050505050565b600060208284031215612db057600080fd5b81516119bf816123d0565b60008251612dcd818460208701612403565b919091019291505056fe360894a13ba1a3210667c828492db98dca3e2076cc3735a920a3ca505d382bbc416464726573733a206c6f772d6c6576656c2064656c65676174652063616c6c206661696c6564ddf252ad1be2c89b69c2b068fc378daa952ba7f163c4a11628f55a4df523b3efee151c8401928dc223602bb187aff91b9a56c7cae5476ef1b3287b085a16c85fa264697066735822122006180403cf92e2086b478a59ceb9e53952b5f58fa4aacc017df3c903efb412e664736f6c63430008110033",
  "devdoc": {
    "kind": "dev",
    "methods": {
      "approve(address,uint256)": {
        "details": "Gives permission to `to` to transfer `tokenId` token to another account. See {ERC721A-_approve}. Requirements: - The caller must own the token or be an approved operator."
      },
      "balanceOf(address)": {
        "details": "Returns the number of tokens in `owner`'s account."
      },
      "getApproved(uint256)": {
        "details": "Returns the account approved for `tokenId` token. Requirements: - `tokenId` must exist."
      },
      "isApprovedForAll(address,address)": {
        "details": "Returns if the `operator` is allowed to manage all of the assets of `owner`. See {setApprovalForAll}."
      },
      "name()": {
        "details": "Returns the token collection name."
      },
      "owner()": {
        "details": "Returns the address of the current owner."
      },
      "ownerOf(uint256)": {
        "details": "Returns the owner of the `tokenId` token. Requirements: - `tokenId` must exist."
      },
      "proxiableUUID()": {
        "details": "Implementation of the ERC1822 {proxiableUUID} function. This returns the storage slot used by the implementation. It is used to validate the implementation's compatibility when performing an upgrade. IMPORTANT: A proxy pointing at a proxiable contract should not be considered proxiable itself, because this risks bricking a proxy that upgrades to it, by delegating to itself until out of gas. Thus it is critical that this function revert if invoked through a proxy. This is guaranteed by the `notDelegated` modifier."
      },
      "renounceOwnership()": {
        "details": "Leaves the contract without owner. It will not be possible to call `onlyOwner` functions anymore. Can only be called by the current owner. NOTE: Renouncing ownership will leave the contract without an owner, thereby removing any functionality that is only available to the owner."
      },
      "safeTransferFrom(address,address,uint256)": {
        "details": "Equivalent to `safeTransferFrom(from, to, tokenId, '')`."
      },
      "safeTransferFrom(address,address,uint256,bytes)": {
        "details": "Safely transfers `tokenId` token from `from` to `to`. Requirements: - `from` cannot be the zero address. - `to` cannot be the zero address. - `tokenId` token must exist and be owned by `from`. - If the caller is not `from`, it must be approved to move this token by either {approve} or {setApprovalForAll}. - If `to` refers to a smart contract, it must implement {IERC721Receiver-onERC721Received}, which is called upon a safe transfer. Emits a {Transfer} event."
      },
      "setApprovalForAll(address,bool)": {
        "details": "Approve or remove `operator` as an operator for the caller. Operators can call {transferFrom} or {safeTransferFrom} for any token owned by the caller. Requirements: - The `operator` cannot be the caller. Emits an {ApprovalForAll} event."
      },
      "supportsInterface(bytes4)": {
        "details": "Returns true if this contract implements the interface defined by `interfaceId`. See the corresponding [EIP section](https://eips.ethereum.org/EIPS/eip-165#how-interfaces-are-identified) to learn more about how these ids are created. This function call must use less than 30000 gas."
      },
      "symbol()": {
        "details": "Returns the token collection symbol."
      },
      "tokenURI(uint256)": {
        "details": "See {IERC721Metadata-tokenURI}."
      },
      "totalSupply()": {
        "details": "Returns the total number of tokens in existence. Burned tokens will reduce the count. To get the total number of tokens minted, please see {_totalMinted}."
      },
      "transferFrom(address,address,uint256)": {
        "details": "Transfers `tokenId` from `from` to `to`. Requirements: - `from` cannot be the zero address. - `to` cannot be the zero address. - `tokenId` token must be owned by `from`. - If the caller is not `from`, it must be approved to move this token by either {approve} or {setApprovalForAll}. Emits a {Transfer} event."
      },
      "transferOwnership(address)": {
        "details": "Transfers ownership of the contract to a new account (`newOwner`). Can only be called by the current owner."
      },
      "upgradeTo(address)": {
        "details": "Upgrade the implementation of the proxy to `newImplementation`. Calls {_authorizeUpgrade}. Emits an {Upgraded} event."
      },
      "upgradeToAndCall(address,bytes)": {
        "details": "Upgrade the implementation of the proxy to `newImplementation`, and subsequently execute the function call encoded in `data`. Calls {_authorizeUpgrade}. Emits an {Upgraded} event."
      }
    },
    "version": 1
  },
  "userdoc": {
    "errors": {
      "ApprovalCallerNotOwnerNorApproved()": [
        {
          "notice": "The caller must own the token or be an approved operator."
        }
      ],
      "ApprovalQueryForNonexistentToken()": [
        {
          "notice": "The token does not exist."
        }
      ],
      "BalanceQueryForZeroAddress()": [
        {
          "notice": "Cannot query the balance for the zero address."
        }
      ],
      "MintERC2309QuantityExceedsLimit()": [
        {
          "notice": "The `quantity` minted with ERC2309 exceeds the safety limit."
        }
      ],
      "MintToZeroAddress()": [
        {
          "notice": "Cannot mint to the zero address."
        }
      ],
      "MintZeroQuantity()": [
        {
          "notice": "The quantity of tokens minted must be more than zero."
        }
      ],
      "OwnerQueryForNonexistentToken()": [
        {
          "notice": "The token does not exist."
        }
      ],
      "OwnershipNotInitializedForExtraData()": [
        {
          "notice": "The `extraData` cannot be set on an unintialized ownership slot."
        }
      ],
      "TransferCallerNotOwnerNorApproved()": [
        {
          "notice": "The caller must own the token or be an approved operator."
        }
      ],
      "TransferFromIncorrectOwner()": [
        {
          "notice": "The token must be owned by `from`."
        }
      ],
      "TransferToNonERC721ReceiverImplementer()": [
        {
          "notice": "Cannot safely transfer to a contract that does not implement the ERC721Receiver interface."
        }
      ],
      "TransferToZeroAddress()": [
        {
          "notice": "Cannot transfer to the zero address."
        }
      ],
      "URIQueryForNonexistentToken()": [
        {
          "notice": "The token does not exist."
        }
      ]
    },
    "kind": "user",
    "methods": {},
    "version": 1
  },
  "storageLayout": {
    "storage": [
      {
        "astId": 937,
        "contract": "src/nft/DegenNFT.sol:DegenNFT",
        "label": "_initialized",
        "offset": 0,
        "slot": "0",
        "type": "t_uint8"
      },
      {
        "astId": 940,
        "contract": "src/nft/DegenNFT.sol:DegenNFT",
        "label": "_initializing",
        "offset": 1,
        "slot": "0",
        "type": "t_bool"
      },
      {
        "astId": 919,
        "contract": "src/nft/DegenNFT.sol:DegenNFT",
        "label": "__gap",
        "offset": 0,
        "slot": "1",
        "type": "t_array(t_uint256)50_storage"
      },
      {
        "astId": 1234,
        "contract": "src/nft/DegenNFT.sol:DegenNFT",
        "label": "__gap",
        "offset": 0,
        "slot": "51",
        "type": "t_array(t_uint256)50_storage"
      },
      {
        "astId": 20379,
        "contract": "src/nft/DegenNFT.sol:DegenNFT",
        "label": "_tokenURIs",
        "offset": 0,
        "slot": "101",
        "type": "t_mapping(t_uint256,t_string_storage)"
      },
      {
        "astId": 20514,
        "contract": "src/nft/DegenNFT.sol:DegenNFT",
        "label": "__gap",
        "offset": 0,
        "slot": "102",
        "type": "t_array(t_uint256)49_storage"
      },
      {
        "astId": 3984,
        "contract": "src/nft/DegenNFT.sol:DegenNFT",
        "label": "__gap",
        "offset": 0,
        "slot": "151",
        "type": "t_array(t_uint256)50_storage"
      },
      {
        "astId": 420,
        "contract": "src/nft/DegenNFT.sol:DegenNFT",
        "label": "_owner",
        "offset": 0,
        "slot": "201",
        "type": "t_address"
      },
      {
        "astId": 540,
        "contract": "src/nft/DegenNFT.sol:DegenNFT",
        "label": "__gap",
        "offset": 0,
        "slot": "202",
        "type": "t_array(t_uint256)49_storage"
      },
      {
        "astId": 20534,
        "contract": "src/nft/DegenNFT.sol:DegenNFT",
        "label": "properties",
        "offset": 0,
        "slot": "251",
        "type": "t_mapping(t_uint256,t_struct(Property)16157_storage)"
      },
      {
        "astId": 20536,
        "contract": "src/nft/DegenNFT.sol:DegenNFT",
        "label": "manager",
        "offset": 0,
        "slot": "252",
        "type": "t_address"
      },
      {
        "astId": 20538,
        "contract": "src/nft/DegenNFT.sol:DegenNFT",
        "label": "baseURI",
        "offset": 0,
        "slot": "253",
        "type": "t_string_storage"
      },
      {
        "astId": 20542,
        "contract": "src/nft/DegenNFT.sol:DegenNFT",
        "label": "levels",
        "offset": 0,
        "slot": "254",
        "type": "t_mapping(t_uint256,t_uint256)"
      },
      {
        "astId": 20546,
        "contract": "src/nft/DegenNFT.sol:DegenNFT",
        "label": "_gap",
        "offset": 0,
        "slot": "255",
        "type": "t_array(t_uint256)48_storage"
      }
    ],
    "types": {
      "t_address": {
        "encoding": "inplace",
        "label": "address",
        "numberOfBytes": "20"
      },
      "t_array(t_uint256)48_storage": {
        "base": "t_uint256",
        "encoding": "inplace",
        "label": "uint256[48]",
        "numberOfBytes": "1536"
      },
      "t_array(t_uint256)49_storage": {
        "base": "t_uint256",
        "encoding": "inplace",
        "label": "uint256[49]",
        "numberOfBytes": "1568"
      },
      "t_array(t_uint256)50_storage": {
        "base": "t_uint256",
        "encoding": "inplace",
        "label": "uint256[50]",
        "numberOfBytes": "1600"
      },
      "t_bool": {
        "encoding": "inplace",
        "label": "bool",
        "numberOfBytes": "1"
      },
      "t_enum(Rarity)16145": {
        "encoding": "inplace",
        "label": "enum IDegenNFTDefination.Rarity",
        "numberOfBytes": "1"
      },
      "t_enum(TokenType)16148": {
        "encoding": "inplace",
        "label": "enum IDegenNFTDefination.TokenType",
        "numberOfBytes": "1"
      },
      "t_mapping(t_uint256,t_string_storage)": {
        "encoding": "mapping",
        "key": "t_uint256",
        "label": "mapping(uint256 => string)",
        "numberOfBytes": "32",
        "value": "t_string_storage"
      },
      "t_mapping(t_uint256,t_struct(Property)16157_storage)": {
        "encoding": "mapping",
        "key": "t_uint256",
        "label": "mapping(uint256 => struct IDegenNFTDefination.Property)",
        "numberOfBytes": "32",
        "value": "t_struct(Property)16157_storage"
      },
      "t_mapping(t_uint256,t_uint256)": {
        "encoding": "mapping",
        "key": "t_uint256",
        "label": "mapping(uint256 => uint256)",
        "numberOfBytes": "32",
        "value": "t_uint256"
      },
      "t_string_storage": {
        "encoding": "bytes",
        "label": "string",
        "numberOfBytes": "32"
      },
      "t_struct(Property)16157_storage": {
        "encoding": "inplace",
        "label": "struct IDegenNFTDefination.Property",
        "members": [
          {
            "astId": 16150,
            "contract": "src/nft/DegenNFT.sol:DegenNFT",
            "label": "name",
            "offset": 0,
            "slot": "0",
            "type": "t_string_storage"
          },
          {
            "astId": 16153,
            "contract": "src/nft/DegenNFT.sol:DegenNFT",
            "label": "rarity",
            "offset": 0,
            "slot": "1",
            "type": "t_enum(Rarity)16145"
          },
          {
            "astId": 16156,
            "contract": "src/nft/DegenNFT.sol:DegenNFT",
            "label": "tokenType",
            "offset": 1,
            "slot": "1",
            "type": "t_enum(TokenType)16148"
          }
        ],
        "numberOfBytes": "64"
      },
      "t_uint256": {
        "encoding": "inplace",
        "label": "uint256",
        "numberOfBytes": "32"
      },
      "t_uint8": {
        "encoding": "inplace",
        "label": "uint8",
        "numberOfBytes": "1"
      }
    }
  }
}