{
  "address": "0x4F70c3fe8828380601DB24Da6A62C2a5879D05D2",
  "abi": [
    {
      "inputs": [],
      "name": "AlreadyMinted",
      "type": "error"
    },
    {
      "inputs": [],
      "name": "InvalidMintTime",
      "type": "error"
    },
    {
      "inputs": [],
      "name": "InvalidParams",
      "type": "error"
    },
    {
      "inputs": [],
      "name": "InvalidProof",
      "type": "error"
    },
    {
      "inputs": [],
      "name": "InvalidRequestId",
      "type": "error"
    },
    {
      "inputs": [],
      "name": "InvalidTokens",
      "type": "error"
    },
    {
      "inputs": [],
      "name": "MintFeeNotEnough",
      "type": "error"
    },
    {
      "inputs": [],
      "name": "NotSigner",
      "type": "error"
    },
    {
      "inputs": [],
      "name": "NotTokenOwner",
      "type": "error"
    },
    {
      "inputs": [],
      "name": "OnlyChainlinkVRFProxy",
      "type": "error"
    },
    {
      "inputs": [],
      "name": "OutOfMaxMintCount",
      "type": "error"
    },
    {
      "inputs": [],
      "name": "TokenIdNotExsis",
      "type": "error"
    },
    {
      "inputs": [],
      "name": "ZeroAddressSet",
      "type": "error"
    },
    {
      "inputs": [],
      "name": "ZeroOwnerSet",
      "type": "error"
    },
    {
      "inputs": [],
      "name": "ZeroRootSet",
      "type": "error"
    },
    {
      "anonymous": false,
      "inputs": [
        {
          "indexed": false,
          "internalType": "address",
          "name": "previousAdmin",
          "type": "address"
        },
        {
          "indexed": false,
          "internalType": "address",
          "name": "newAdmin",
          "type": "address"
        }
      ],
      "name": "AdminChanged",
      "type": "event"
    },
    {
      "anonymous": false,
      "inputs": [
        {
          "indexed": true,
          "internalType": "address",
          "name": "beacon",
          "type": "address"
        }
      ],
      "name": "BeaconUpgraded",
      "type": "event"
    },
    {
      "anonymous": false,
      "inputs": [
        {
          "indexed": false,
          "internalType": "address",
          "name": "account",
          "type": "address"
        },
        {
          "indexed": false,
          "internalType": "uint256",
          "name": "tokenId",
          "type": "uint256"
        },
        {
          "indexed": false,
          "internalType": "uint256",
          "name": "refundNativeToken",
          "type": "uint256"
        },
        {
          "indexed": false,
          "internalType": "uint256",
          "name": "refundRebornToken",
          "type": "uint256"
        }
      ],
      "name": "BurnToken",
      "type": "event"
    },
    {
      "anonymous": false,
      "inputs": [
        {
          "indexed": false,
          "internalType": "address",
          "name": "chainlinkVRFProxy",
          "type": "address"
        }
      ],
      "name": "ChangedChainlinkVRFProxy",
      "type": "event"
    },
    {
      "anonymous": false,
      "inputs": [
        {
          "indexed": false,
          "internalType": "uint8",
          "name": "version",
          "type": "uint8"
        }
      ],
      "name": "Initialized",
      "type": "event"
    },
    {
      "anonymous": false,
      "inputs": [
        {
          "indexed": true,
          "internalType": "address",
          "name": "from",
          "type": "address"
        },
        {
          "indexed": false,
          "internalType": "uint256",
          "name": "tokenId1",
          "type": "uint256"
        },
        {
          "indexed": false,
          "internalType": "uint256",
          "name": "tokenId2",
          "type": "uint256"
        },
        {
          "indexed": false,
          "internalType": "uint256",
          "name": "newTokenId",
          "type": "uint256"
        }
      ],
      "name": "MergeTokens",
      "type": "event"
    },
    {
      "anonymous": false,
      "inputs": [
        {
          "indexed": false,
          "internalType": "bytes32",
          "name": "root",
          "type": "bytes32"
        }
      ],
      "name": "MerkleTreeRootSet",
      "type": "event"
    },
    {
      "anonymous": false,
      "inputs": [
        {
          "indexed": false,
          "internalType": "uint256",
          "name": "mintFee",
          "type": "uint256"
        }
      ],
      "name": "MintFeeSet",
      "type": "event"
    },
    {
      "anonymous": false,
      "inputs": [
        {
          "indexed": true,
          "internalType": "address",
          "name": "receiver",
          "type": "address"
        },
        {
          "indexed": false,
          "internalType": "uint256",
          "name": "quantity",
          "type": "uint256"
        },
        {
          "indexed": false,
          "internalType": "uint256",
          "name": "startTokenId",
          "type": "uint256"
        }
      ],
      "name": "Minted",
      "type": "event"
    },
    {
      "anonymous": false,
      "inputs": [
        {
          "indexed": false,
          "internalType": "uint256",
          "name": "tokenId",
          "type": "uint256"
        }
      ],
      "name": "OpenMysteryBoxFailed",
      "type": "event"
    },
    {
      "anonymous": false,
      "inputs": [
        {
          "indexed": false,
          "internalType": "uint256",
          "name": "tokenId",
          "type": "uint256"
        },
        {
          "indexed": false,
          "internalType": "uint256",
          "name": "metadataId",
          "type": "uint256"
        }
      ],
      "name": "OpenMysteryBoxSuccess",
      "type": "event"
    },
    {
      "anonymous": false,
      "inputs": [
        {
          "indexed": true,
          "internalType": "address",
          "name": "previousOwner",
          "type": "address"
        },
        {
          "indexed": true,
          "internalType": "address",
          "name": "newOwner",
          "type": "address"
        }
      ],
      "name": "OwnershipTransferred",
      "type": "event"
    },
    {
      "anonymous": false,
      "inputs": [
        {
          "components": [
            {
              "internalType": "uint256",
              "name": "nativeToken",
              "type": "uint256"
            },
            {
              "internalType": "uint256",
              "name": "rebornToken",
              "type": "uint256"
            }
          ],
          "indexed": false,
          "internalType": "struct INFTManagerDefination.BurnRefundConfig[]",
          "name": "burnRefundConfigs",
          "type": "tuple[]"
        }
      ],
      "name": "SetBurnRefundConfig",
      "type": "event"
    },
    {
      "anonymous": false,
      "inputs": [
        {
          "indexed": false,
          "internalType": "address",
          "name": "degenNFT",
          "type": "address"
        }
      ],
      "name": "SetDegenNFT",
      "type": "event"
    },
    {
      "anonymous": false,
      "inputs": [
        {
          "indexed": false,
          "internalType": "enum INFTManagerDefination.MintType",
          "name": "mintType",
          "type": "uint8"
        },
        {
          "components": [
            {
              "internalType": "uint256",
              "name": "startTime",
              "type": "uint256"
            },
            {
              "internalType": "uint256",
              "name": "endTime",
              "type": "uint256"
            }
          ],
          "indexed": false,
          "internalType": "struct INFTManagerDefination.MintTime",
          "name": "mintTime",
          "type": "tuple"
        }
      ],
      "name": "SetMintTime",
      "type": "event"
    },
    {
      "anonymous": false,
      "inputs": [
        {
          "indexed": true,
          "internalType": "address",
          "name": "signer",
          "type": "address"
        },
        {
          "indexed": false,
          "internalType": "bool",
          "name": "valid",
          "type": "bool"
        }
      ],
      "name": "SignerUpdate",
      "type": "event"
    },
    {
      "anonymous": false,
      "inputs": [
        {
          "indexed": true,
          "internalType": "address",
          "name": "implementation",
          "type": "address"
        }
      ],
      "name": "Upgraded",
      "type": "event"
    },
    {
      "inputs": [],
      "name": "SUPPORT_MAX_MINT_COUNT",
      "outputs": [
        {
          "internalType": "uint256",
          "name": "",
          "type": "uint256"
        }
      ],
      "stateMutability": "view",
      "type": "function"
    },
    {
      "inputs": [
        {
          "internalType": "address[]",
          "name": "receivers",
          "type": "address[]"
        },
        {
          "internalType": "uint256[]",
          "name": "quantities",
          "type": "uint256[]"
        }
      ],
      "name": "airdrop",
      "outputs": [],
      "stateMutability": "payable",
      "type": "function"
    },
    {
      "inputs": [
        {
          "internalType": "uint256",
          "name": "tokenId",
          "type": "uint256"
        }
      ],
      "name": "burn",
      "outputs": [],
      "stateMutability": "nonpayable",
      "type": "function"
    },
    {
      "inputs": [],
      "name": "chainlinkVRFProxy",
      "outputs": [
        {
          "internalType": "address",
          "name": "",
          "type": "address"
        }
      ],
      "stateMutability": "view",
      "type": "function"
    },
    {
      "inputs": [
        {
          "internalType": "bytes32[]",
          "name": "merkleProof",
          "type": "bytes32[]"
        },
        {
          "internalType": "address",
          "name": "account",
          "type": "address"
        }
      ],
      "name": "checkWhiteList",
      "outputs": [
        {
          "internalType": "bool",
          "name": "verified",
          "type": "bool"
        }
      ],
      "stateMutability": "view",
      "type": "function"
    },
    {
      "inputs": [],
      "name": "degenNFT",
      "outputs": [
        {
          "internalType": "contract IDegenNFT",
          "name": "",
          "type": "address"
        }
      ],
      "stateMutability": "view",
      "type": "function"
    },
    {
      "inputs": [
        {
          "internalType": "uint256",
          "name": "tokenId",
          "type": "uint256"
        }
      ],
      "name": "exists",
      "outputs": [
        {
          "internalType": "bool",
          "name": "",
          "type": "bool"
        }
      ],
      "stateMutability": "view",
      "type": "function"
    },
    {
      "inputs": [
        {
          "internalType": "uint256",
          "name": "requestId",
          "type": "uint256"
        },
        {
          "internalType": "uint256[]",
          "name": "randomWords",
          "type": "uint256[]"
        }
      ],
      "name": "fulfillRandomWordsCallback",
      "outputs": [],
      "stateMutability": "nonpayable",
      "type": "function"
    },
    {
      "inputs": [],
      "name": "getBurnRefundConfigs",
      "outputs": [
        {
          "components": [
            {
              "internalType": "uint256",
              "name": "nativeToken",
              "type": "uint256"
            },
            {
              "internalType": "uint256",
              "name": "rebornToken",
              "type": "uint256"
            }
          ],
          "internalType": "struct INFTManagerDefination.BurnRefundConfig[]",
          "name": "",
          "type": "tuple[]"
        }
      ],
      "stateMutability": "view",
      "type": "function"
    },
    {
      "inputs": [
        {
          "internalType": "uint16",
          "name": "length",
          "type": "uint16"
        },
        {
          "internalType": "uint256",
          "name": "offset",
          "type": "uint256"
        }
      ],
      "name": "getMetadataList",
      "outputs": [
        {
          "components": [
            {
              "internalType": "string",
              "name": "name",
              "type": "string"
            },
            {
              "internalType": "enum IDegenNFTDefination.Rarity",
              "name": "rarity",
              "type": "uint8"
            },
            {
              "internalType": "enum IDegenNFTDefination.TokenType",
              "name": "tokenType",
              "type": "uint8"
            }
          ],
          "internalType": "struct IDegenNFTDefination.Property[]",
          "name": "",
          "type": "tuple[]"
        }
      ],
      "stateMutability": "view",
      "type": "function"
    },
    {
      "inputs": [
        {
          "internalType": "address",
          "name": "owner",
          "type": "address"
        }
      ],
      "name": "initialize",
      "outputs": [],
      "stateMutability": "nonpayable",
      "type": "function"
    },
    {
      "inputs": [],
      "name": "latestMetadataIdx",
      "outputs": [
        {
          "internalType": "uint16",
          "name": "",
          "type": "uint16"
        }
      ],
      "stateMutability": "view",
      "type": "function"
    },
    {
      "inputs": [
        {
          "internalType": "uint256",
          "name": "tokenId1",
          "type": "uint256"
        },
        {
          "internalType": "uint256",
          "name": "tokenId2",
          "type": "uint256"
        }
      ],
      "name": "merge",
      "outputs": [],
      "stateMutability": "nonpayable",
      "type": "function"
    },
    {
      "inputs": [],
      "name": "merkleRoot",
      "outputs": [
        {
          "internalType": "bytes32",
          "name": "",
          "type": "bytes32"
        }
      ],
      "stateMutability": "view",
      "type": "function"
    },
    {
      "inputs": [],
      "name": "mintFee",
      "outputs": [
        {
          "internalType": "uint256",
          "name": "",
          "type": "uint256"
        }
      ],
      "stateMutability": "view",
      "type": "function"
    },
    {
      "inputs": [
        {
          "internalType": "address",
          "name": "",
          "type": "address"
        }
      ],
      "name": "minted",
      "outputs": [
        {
          "internalType": "bool",
          "name": "",
          "type": "bool"
        }
      ],
      "stateMutability": "view",
      "type": "function"
    },
    {
      "inputs": [
        {
          "internalType": "uint256[]",
          "name": "tokenIds",
          "type": "uint256[]"
        }
      ],
      "name": "openMysteryBox",
      "outputs": [],
      "stateMutability": "nonpayable",
      "type": "function"
    },
    {
      "inputs": [],
      "name": "owner",
      "outputs": [
        {
          "internalType": "address",
          "name": "",
          "type": "address"
        }
      ],
      "stateMutability": "view",
      "type": "function"
    },
    {
      "inputs": [
        {
          "internalType": "uint256",
          "name": "tokenId",
          "type": "uint256"
        }
      ],
      "name": "propertyOf",
      "outputs": [
        {
          "components": [
            {
              "internalType": "string",
              "name": "name",
              "type": "string"
            },
            {
              "internalType": "enum IDegenNFTDefination.Rarity",
              "name": "rarity",
              "type": "uint8"
            },
            {
              "internalType": "enum IDegenNFTDefination.TokenType",
              "name": "tokenType",
              "type": "uint8"
            }
          ],
          "internalType": "struct IDegenNFTDefination.Property",
          "name": "",
          "type": "tuple"
        }
      ],
      "stateMutability": "view",
      "type": "function"
    },
    {
      "inputs": [],
      "name": "proxiableUUID",
      "outputs": [
        {
          "internalType": "bytes32",
          "name": "",
          "type": "bytes32"
        }
      ],
      "stateMutability": "view",
      "type": "function"
    },
    {
      "inputs": [
        {
          "internalType": "uint256",
          "name": "quantity",
          "type": "uint256"
        }
      ],
      "name": "publicMint",
      "outputs": [],
      "stateMutability": "payable",
      "type": "function"
    },
    {
      "inputs": [],
      "name": "renounceOwnership",
      "outputs": [],
      "stateMutability": "nonpayable",
      "type": "function"
    },
    {
      "inputs": [
        {
          "components": [
            {
              "internalType": "uint256",
              "name": "nativeToken",
              "type": "uint256"
            },
            {
              "internalType": "uint256",
              "name": "rebornToken",
              "type": "uint256"
            }
          ],
          "internalType": "struct INFTManagerDefination.BurnRefundConfig[]",
          "name": "configs",
          "type": "tuple[]"
        }
      ],
      "name": "setBurnRefundConfig",
      "outputs": [],
      "stateMutability": "nonpayable",
      "type": "function"
    },
    {
      "inputs": [
        {
          "internalType": "address",
          "name": "chainlinkVRFProxy_",
          "type": "address"
        }
      ],
      "name": "setChainlinkVRFProxy",
      "outputs": [],
      "stateMutability": "nonpayable",
      "type": "function"
    },
    {
      "inputs": [
        {
          "internalType": "address",
          "name": "degenNFT_",
          "type": "address"
        }
      ],
      "name": "setDegenNFT",
      "outputs": [],
      "stateMutability": "nonpayable",
      "type": "function"
    },
    {
      "inputs": [
        {
          "internalType": "bytes32",
          "name": "root",
          "type": "bytes32"
        }
      ],
      "name": "setMerkleRoot",
      "outputs": [],
      "stateMutability": "nonpayable",
      "type": "function"
    },
    {
      "inputs": [
        {
          "components": [
            {
              "internalType": "string",
              "name": "name",
              "type": "string"
            },
            {
              "internalType": "enum IDegenNFTDefination.Rarity",
              "name": "rarity",
              "type": "uint8"
            },
            {
              "internalType": "enum IDegenNFTDefination.TokenType",
              "name": "tokenType",
              "type": "uint8"
            }
          ],
          "internalType": "struct IDegenNFTDefination.Property[]",
          "name": "metadataList",
          "type": "tuple[]"
        }
      ],
      "name": "setMetadatas",
      "outputs": [],
      "stateMutability": "nonpayable",
      "type": "function"
    },
    {
      "inputs": [
        {
          "internalType": "uint256",
          "name": "mintFee_",
          "type": "uint256"
        }
      ],
      "name": "setMintFee",
      "outputs": [],
      "stateMutability": "nonpayable",
      "type": "function"
    },
    {
      "inputs": [
        {
          "internalType": "enum INFTManagerDefination.MintType",
          "name": "mintType_",
          "type": "uint8"
        },
        {
          "components": [
            {
              "internalType": "uint256",
              "name": "startTime",
              "type": "uint256"
            },
            {
              "internalType": "uint256",
              "name": "endTime",
              "type": "uint256"
            }
          ],
          "internalType": "struct INFTManagerDefination.MintTime",
          "name": "mintTime_",
          "type": "tuple"
        }
      ],
      "name": "setMintTime",
      "outputs": [],
      "stateMutability": "nonpayable",
      "type": "function"
    },
    {
      "inputs": [
        {
          "internalType": "address",
          "name": "",
          "type": "address"
        }
      ],
      "name": "signers",
      "outputs": [
        {
          "internalType": "bool",
          "name": "",
          "type": "bool"
        }
      ],
      "stateMutability": "view",
      "type": "function"
    },
    {
      "inputs": [
        {
          "internalType": "address",
          "name": "newOwner",
          "type": "address"
        }
      ],
      "name": "transferOwnership",
      "outputs": [],
      "stateMutability": "nonpayable",
      "type": "function"
    },
    {
      "inputs": [
        {
          "internalType": "address[]",
          "name": "toAdd",
          "type": "address[]"
        },
        {
          "internalType": "address[]",
          "name": "toRemove",
          "type": "address[]"
        }
      ],
      "name": "updateSigners",
      "outputs": [],
      "stateMutability": "nonpayable",
      "type": "function"
    },
    {
      "inputs": [
        {
          "internalType": "address",
          "name": "newImplementation",
          "type": "address"
        }
      ],
      "name": "upgradeTo",
      "outputs": [],
      "stateMutability": "nonpayable",
      "type": "function"
    },
    {
      "inputs": [
        {
          "internalType": "address",
          "name": "newImplementation",
          "type": "address"
        },
        {
          "internalType": "bytes",
          "name": "data",
          "type": "bytes"
        }
      ],
      "name": "upgradeToAndCall",
      "outputs": [],
      "stateMutability": "payable",
      "type": "function"
    },
    {
      "inputs": [
        {
          "internalType": "bytes32[]",
          "name": "merkleProof",
          "type": "bytes32[]"
        }
      ],
      "name": "whitelistMint",
      "outputs": [],
      "stateMutability": "payable",
      "type": "function"
    },
    {
      "inputs": [
        {
          "internalType": "address",
          "name": "to",
          "type": "address"
        },
        {
          "internalType": "uint256",
          "name": "amount",
          "type": "uint256"
        }
      ],
      "name": "withdraw",
      "outputs": [],
      "stateMutability": "nonpayable",
      "type": "function"
    },
    {
      "stateMutability": "payable",
      "type": "receive"
    }
  ],
  "transactionHash": "0xda8d317a62d0a1124228e1b8762801c68e1f2c48d171bd63fd45d0816eea2530",
  "args": [],
  "numDeployments": 4,
  "solcInputHash": "299e88e105e0a8116c2abe9dae467cfe",
  "bytecode": "0x60a06040523060805234801561001457600080fd5b5060805161385561004c60003960008181610aad01528181610af6015281816110220152818161106201526111fe01526138556000f3fe6080604052600436106102125760003560e01c80637055473811610118578063a92ed6ac116100a0578063d1c2babb1161006f578063d1c2babb1461061e578063dca25b131461063e578063eddd0d9c1461065e578063f2fde38b1461067e578063f3fef3a31461069e57600080fd5b8063a92ed6ac146105a8578063c4d66de8146105be578063d0b49125146105de578063d1a1c45d146105fe57600080fd5b80637cb64759116100e75780637cb64759146104f65780638da5cb5b146105165780639408b63f1461054857806397a0d22d14610568578063a35c5ad91461058857600080fd5b80637055473814610464578063715018a614610491578063736c0d5b146104a6578063796fd684146104d657600080fd5b8063372f657c1161019b5780634f558e791161016a5780634f558e79146103cd57806351885d9b146103ed57806352d1902d1461041a578063672434821461042f5780636814490b1461044257600080fd5b8063372f657c1461036757806342966c681461037a57806343664bbc1461039a5780634f1ef286146103ba57600080fd5b80631e7269c5116101e25780631e7269c5146102be5780632db11544146102fe5780632eb4a7ab14610311578063350b2369146103275780633659cfe61461034757600080fd5b80624b0ec51461021e578063061c117b1461025857806306c1cb911461027a57806313966db51461029a57600080fd5b3661021957005b600080fd5b34801561022a57600080fd5b5060ca5461024090600160a01b900461ffff1681565b60405161ffff90911681526020015b60405180910390f35b34801561026457600080fd5b50610278610273366004612c01565b6106be565b005b34801561028657600080fd5b50610278610295366004612c8c565b610742565b3480156102a657600080fd5b506102b060d45481565b60405190815260200161024f565b3480156102ca57600080fd5b506102ee6102d9366004612c01565b60cd6020526000908152604090205460ff1681565b604051901515815260200161024f565b61027861030c366004612d3d565b6107cd565b34801561031d57600080fd5b506102b060cb5481565b34801561033357600080fd5b50610278610342366004612da1565b6108d7565b34801561035357600080fd5b50610278610362366004612c01565b610aa3565b610278610375366004612e0c565b610b88565b34801561038657600080fd5b50610278610395366004612d3d565b610cca565b3480156103a657600080fd5b506102786103b5366004612e0c565b610eff565b6102786103c8366004612e74565b611018565b3480156103d957600080fd5b506102ee6103e8366004612d3d565b6110e8565b3480156103f957600080fd5b5061040d610408366004612d3d565b61115c565b60405161024f9190612fcc565b34801561042657600080fd5b506102b06111f1565b61027861043d366004612da1565b6112a4565b34801561044e57600080fd5b50610457611488565b60405161024f9190612fdf565b34801561047057600080fd5b5061048461047f36600461302e565b6114fb565b60405161024f9190613061565b34801561049d57600080fd5b506102786116cf565b3480156104b257600080fd5b506102ee6104c1366004612c01565b60cc6020526000908152604090205460ff1681565b3480156104e257600080fd5b506102786104f1366004612e0c565b6116e3565b34801561050257600080fd5b50610278610511366004612d3d565b61178b565b34801561052257600080fd5b506097546001600160a01b03165b6040516001600160a01b03909116815260200161024f565b34801561055457600080fd5b5060c954610530906001600160a01b031681565b34801561057457600080fd5b506102ee6105833660046130c3565b6117e6565b34801561059457600080fd5b5060ca54610530906001600160a01b031681565b3480156105b457600080fd5b506102b06107d981565b3480156105ca57600080fd5b506102786105d9366004612c01565b61186c565b3480156105ea57600080fd5b506102786105f9366004613119565b6119a6565b34801561060a57600080fd5b50610278610619366004612c01565b611a53565b34801561062a57600080fd5b5061027861063936600461318d565b611ad0565b34801561064a57600080fd5b506102786106593660046131bc565b611ca5565b34801561066a57600080fd5b50610278610679366004612d3d565b611d4c565b34801561068a57600080fd5b50610278610699366004612c01565b611d89565b3480156106aa57600080fd5b506102786106b93660046131fd565b611dff565b6106c6611e3d565b6001600160a01b0381166106ed57604051630ae8f22360e21b815260040160405180910390fd5b60ca80546001600160a01b0319166001600160a01b0383169081179091556040519081527f60749175aed7fe9643f249a737660ca032c41b2bd442a7644e077ad6b6ee3c93906020015b60405180910390a150565b60ca546001600160a01b0316331461076d576040516386b73b2d60e01b815260040160405180910390fd5b600082815260cf60205260408120549081900361079d576040516302e8145360e61b815260040160405180910390fd5b8151156107c8576107c881836000815181106107bb576107bb61321b565b6020026020010151611e97565b505050565b6107d76001611f22565b6107d98160c960009054906101000a90046001600160a01b03166001600160a01b031663a2309ff86040518163ffffffff1660e01b8152600401602060405180830381865afa15801561082e573d6000803e3d6000fd5b505050506040513d601f19601f820116820180604052508101906108529190613231565b61085c9190613260565b111561087b57604051634fcd692360e01b815260040160405180910390fd5b8060000361089c57604051635435b28960e11b815260040160405180910390fd5b8060d4546108aa9190613273565b3410156108ca57604051630eea093360e41b815260040160405180910390fd5b6108d43382611fbd565b50565b6108df611e3d565b60005b838110156109bd57600160cc60008787858181106109025761090261321b565b90506020020160208101906109179190612c01565b6001600160a01b031681526020810191909152604001600020805460ff19169115159190911790558484828181106109515761095161321b565b90506020020160208101906109669190612c01565b6001600160a01b03167fc648f6265408cc54c0dc26d24ba51dfc9f35ce1a63baa2228f65d93aaf11cc6760016040516109a3911515815260200190565b60405180910390a2806109b58161328a565b9150506108e2565b5060005b81811015610a9c57600060cc60008585858181106109e1576109e161321b565b90506020020160208101906109f69190612c01565b6001600160a01b031681526020810191909152604001600020805460ff1916911515919091179055828282818110610a3057610a3061321b565b9050602002016020810190610a459190612c01565b6001600160a01b03167fc648f6265408cc54c0dc26d24ba51dfc9f35ce1a63baa2228f65d93aaf11cc676000604051610a82911515815260200190565b60405180910390a280610a948161328a565b9150506109c1565b5050505050565b6001600160a01b037f0000000000000000000000000000000000000000000000000000000000000000163003610af45760405162461bcd60e51b8152600401610aeb906132a3565b60405180910390fd5b7f00000000000000000000000000000000000000000000000000000000000000006001600160a01b0316610b3d6000805160206137d9833981519152546001600160a01b031690565b6001600160a01b031614610b635760405162461bcd60e51b8152600401610aeb906132ef565b610b6c816120d3565b604080516000808252602082019092526108d4918391906120db565b610b926000611f22565b33600090815260cd602052604090205460ff1615610bc357604051631bbdf5c560e31b815260040160405180910390fd5b60c9546040805163144613ff60e31b815290516107d9926001600160a01b03169163a2309ff89160048083019260209291908290030181865afa158015610c0e573d6000803e3d6000fd5b505050506040513d601f19601f82011682018060405250810190610c329190613231565b10610c5057604051634fcd692360e01b815260040160405180910390fd5b60d454341015610c7357604051630eea093360e41b815260040160405180910390fd5b6000610c808383336117e6565b905080610ca0576040516309bde33960e01b815260040160405180910390fd5b610cab336001611fbd565b505033600090815260cd60205260409020805460ff1916600117905550565b60c954604051634f558e7960e01b8152600481018390526001600160a01b0390911690634f558e7990602401602060405180830381865afa158015610d13573d6000803e3d6000fd5b505050506040513d601f19601f82011682018060405250810190610d37919061333b565b610d545760405163c72ea0df60e01b815260040160405180910390fd5b610d5e3382612246565b60c954604051630852cd8d60e31b8152600481018390526001600160a01b03909116906342966c6890602401600060405180830381600087803b158015610da457600080fd5b505af1158015610db8573d6000803e3d6000fd5b50505050600060d360c960009054906101000a90046001600160a01b03166001600160a01b0316636fd5ae156040518163ffffffff1660e01b8152600401602060405180830381865afa158015610e13573d6000803e3d6000fd5b505050506040513d601f19601f82011682018060405250810190610e379190613231565b81548110610e4757610e4761321b565b600091825260209182902060408051808201909152600290920201805480835260019091015492820192909252915015610eaa578051604051339180156108fc02916000818181858888f19350505050158015610ea8573d6000803e3d6000fd5b505b80516020808301516040805133815292830186905282019290925260608101919091527f7147ecaba15988b82ec4faa5350185f0d0113e8803ef3bf7b5b84ae242458e92906080015b60405180910390a15050565b33600090815260cc602052604090205460ff16610f2f5760405163143606b960e31b815260040160405180910390fd5b60005b818110156107c8576000838383818110610f4e57610f4e61321b565b60209081029290920135600081815260d19093526040909220549192505060ff1615610f7a5750611006565b60ca5460405163967b201760e01b81526001600482015261753060248201526000916001600160a01b03169063967b2017906044016020604051808303816000875af1158015610fce573d6000803e3d6000fd5b505050506040513d601f19601f82011682018060405250810190610ff29190613231565b600090815260cf6020526040902091909155505b806110108161328a565b915050610f32565b6001600160a01b037f00000000000000000000000000000000000000000000000000000000000000001630036110605760405162461bcd60e51b8152600401610aeb906132a3565b7f00000000000000000000000000000000000000000000000000000000000000006001600160a01b03166110a96000805160206137d9833981519152546001600160a01b031690565b6001600160a01b0316146110cf5760405162461bcd60e51b8152600401610aeb906132ef565b6110d8826120d3565b6110e4828260016120db565b5050565b60c954604051634f558e7960e01b8152600481018390526000916001600160a01b031690634f558e7990602401602060405180830381865afa158015611132573d6000803e3d6000fd5b505050506040513d601f19601f82011682018060405250810190611156919061333b565b92915050565b61118060408051606080820190925290815260208101600081526020016000905290565b60c9546040516332665ffb60e01b8152600481018490526001600160a01b03909116906332665ffb90602401600060405180830381865afa1580156111c9573d6000803e3d6000fd5b505050506040513d6000823e601f3d908101601f191682016040526111569190810190613385565b6000306001600160a01b037f000000000000000000000000000000000000000000000000000000000000000016146112915760405162461bcd60e51b815260206004820152603860248201527f555550535570677261646561626c653a206d757374206e6f742062652063616c60448201527f6c6564207468726f7567682064656c656761746563616c6c00000000000000006064820152608401610aeb565b506000805160206137d983398151915290565b6112ac611e3d565b8281146112cc57604051635435b28960e11b815260040160405180910390fd5b6000805b82811015611349578383828181106112ea576112ea61321b565b90506020020135826112fc9190613260565b91508383828181106113105761131061321b565b9050602002013560000361133757604051635435b28960e11b815260040160405180910390fd5b806113418161328a565b9150506112d0565b5060d4546113579082613273565b34101561137757604051630eea093360e41b815260040160405180910390fd5b6107d98160c960009054906101000a90046001600160a01b03166001600160a01b031663a2309ff86040518163ffffffff1660e01b8152600401602060405180830381865afa1580156113ce573d6000803e3d6000fd5b505050506040513d601f19601f820116820180604052508101906113f29190613231565b6113fc9190613260565b111561141b57604051634fcd692360e01b815260040160405180910390fd5b60005b848110156114805761146e86868381811061143b5761143b61321b565b90506020020160208101906114509190612c01565b8585848181106114625761146261321b565b90506020020135611fbd565b806114788161328a565b91505061141e565b505050505050565b606060d3805480602002602001604051908101604052809291908181526020016000905b828210156114f2578382906000526020600020906002020160405180604001604052908160008201548152602001600182015481525050815260200190600101906114ac565b50505050905090565b606060008361ffff166001600160401b0381111561151b5761151b612c1e565b60405190808252806020026020018201604052801561157057816020015b61155d60408051606080820190925290815260208101600081526020016000905290565b8152602001906001900390816115395790505b509050825b8461ffff168110156116c757600081815260ce6020526040908190208151606081019092528054829082906115a99061344b565b80601f01602080910402602001604051908101604052809291908181526020018280546115d59061344b565b80156116225780601f106115f757610100808354040283529160200191611622565b820191906000526020600020905b81548152906001019060200180831161160557829003601f168201915b5050509183525050600182015460209091019060ff16600481111561164957611649612f56565b600481111561165a5761165a612f56565b81526020016001820160019054906101000a900460ff16600181111561168257611682612f56565b600181111561169357611693612f56565b815250508282815181106116a9576116a961321b565b602002602001018190525080806116bf9061328a565b915050611575565b509392505050565b6116d7611e3d565b6116e160006122dc565b565b6116eb611e3d565b60005b818110156107c8578282828181106117085761170861321b565b905060200281019061171a9190613485565b60ca54600160a01b900461ffff16600090815260ce602052604090206117408282613549565b505060ca8054600160a01b900461ffff1690601461175d83613662565b91906101000a81548161ffff021916908361ffff1602179055505080806117839061328a565b9150506116ee565b611793611e3d565b806117b157604051634f7e43e560e11b815260040160405180910390fd5b60cb8190556040518181527fee57e5823f2b1e5c86511f68be75ba1cda75fbacfbe570de45abd81e94e2cfd790602001610737565b6040516bffffffffffffffffffffffff19606083901b16602082015260009081906034016040516020818303038152906040528051906020012090506118638585808060200260200160405190810160405280939291908181526020018383602002808284376000920191909152505060cb54915084905061232e565b95945050505050565b600054610100900460ff161580801561188c5750600054600160ff909116105b806118a65750303b1580156118a6575060005460ff166001145b6119095760405162461bcd60e51b815260206004820152602e60248201527f496e697469616c697a61626c653a20636f6e747261637420697320616c72656160448201526d191e481a5b9a5d1a585b1a5e995960921b6064820152608401610aeb565b6000805460ff19166001179055801561192c576000805461ff0019166101001790555b6001600160a01b03821661195357604051636500287b60e11b815260040160405180910390fd5b61195b612346565b611964826122dc565b80156110e4576000805461ff0019169055604051600181527f7f26b83ff96e1f2b6a682f133852f6798a09c465da95921460cefb384740249890602001610ef3565b6119ae611e3d565b6119ba60d36000612bb1565b60005b81811015611a22578282828181106119d7576119d761321b565b90506040020160d382815481106119f0576119f061321b565b600091825260209182902083356002929092020190815591013560019091015580611a1a8161328a565b9150506119bd565b507f7e34f171313498c5ca313160f77e792e08bdb04b3beecfc12461579eb1fab3a960d3604051610ef39190613683565b611a5b611e3d565b6001600160a01b038116611a8257604051630ae8f22360e21b815260040160405180910390fd5b60c980546001600160a01b0319166001600160a01b0383169081179091556040519081527f1f26a402d31b19e7f51c0d12f232a4d64db0619b5332f1a45abd25fbe05dc8e090602001610737565b611ada3383612246565b611ae43382612246565b6000611af083836123ba565b905080611b10576040516333910aef60e11b815260040160405180910390fd5b60c954604051630852cd8d60e31b8152600481018590526001600160a01b03909116906342966c6890602401600060405180830381600087803b158015611b5657600080fd5b505af1158015611b6a573d6000803e3d6000fd5b505060c954604051630852cd8d60e31b8152600481018690526001600160a01b0390911692506342966c689150602401600060405180830381600087803b158015611bb457600080fd5b505af1158015611bc8573d6000803e3d6000fd5b50505050600060c960009054906101000a90046001600160a01b03166001600160a01b03166375794a3c6040518163ffffffff1660e01b8152600401602060405180830381865afa158015611c21573d6000803e3d6000fd5b505050506040513d601f19601f82011682018060405250810190611c459190613231565b9050611c52336001611fbd565b611c5c81826124ff565b604080518581526020810185905290810182905233907f8f344e6736e186a058023676aee136a6cff473ba5fbb0bf99377d0696ea7e8e89060600160405180910390a250505050565b611cad611e3d565b6020810135813510611cd257604051635435b28960e11b815260040160405180910390fd5b8060d26000846001811115611ce957611ce9612f56565b6001811115611cfa57611cfa612f56565b8152602080820192909252604001600020823581559082013560018201559050507ff432642d4ff1b5258f469bdbc5c148c5d3001cd0f8f6ea006fe6be38e05fb05a8282604051610ef39291906136cd565b611d54611e3d565b60d48190556040518181527f97aee230ba41961438e908e115df76fa8113f85a0586d85b19ba5be50e6a227490602001610737565b611d91611e3d565b6001600160a01b038116611df65760405162461bcd60e51b815260206004820152602660248201527f4f776e61626c653a206e6577206f776e657220697320746865207a65726f206160448201526564647265737360d01b6064820152608401610aeb565b6108d4816122dc565b611e07611e3d565b6040516001600160a01b0383169082156108fc029083906000818181858888f193505050501580156107c8573d6000803e3d6000fd5b6097546001600160a01b031633146116e15760405162461bcd60e51b815260206004820181905260248201527f4f776e61626c653a2063616c6c6572206973206e6f7420746865206f776e65726044820152606401610aeb565b806000611ea66107d98361370b565b600081815260d0602052604090205490915060ff165b808015611ec95750600083115b15611f0457611eda6103e88461371f565b9250611ee86107d98461370b565b600081815260d0602052604090205490925060ff169050611ebc565b8015611f1857611f1385612584565b610a9c565b610a9c85836125b4565b60d26000826001811115611f3857611f38612f56565b6001811115611f4957611f49612f56565b815260200190815260200160002060000154421080611f9f575060d26000826001811115611f7957611f79612f56565b6001811115611f8a57611f8a612f56565b81526020019081526020016000206001015442115b156108d45760405163917ad38160e01b815260040160405180910390fd5b60c95460408051631d5e528f60e21b815290516000926001600160a01b0316916375794a3c9160048083019260209291908290030181865afa158015612007573d6000803e3d6000fd5b505050506040513d601f19601f8201168201806040525081019061202b9190613231565b60c9546040516340c10f1960e01b81526001600160a01b038681166004830152602482018690529293509116906340c10f1990604401600060405180830381600087803b15801561207b57600080fd5b505af115801561208f573d6000803e3d6000fd5b505060408051858152602081018590523393507f25b428dfde728ccfaddad7e29e4ac23c24ed7fd1a6e3e3f91894a9a073f5dfff92500160405180910390a2505050565b6108d4611e3d565b7f4910fdfa16fed3260ed0e7147f7cc6da11a60208b5b9406d12a635614ffd91435460ff161561210e576107c8836127a6565b826001600160a01b03166352d1902d6040518163ffffffff1660e01b8152600401602060405180830381865afa925050508015612168575060408051601f3d908101601f1916820190925261216591810190613231565b60015b6121cb5760405162461bcd60e51b815260206004820152602e60248201527f45524331393637557067726164653a206e657720696d706c656d656e7461746960448201526d6f6e206973206e6f74205555505360901b6064820152608401610aeb565b6000805160206137d9833981519152811461223a5760405162461bcd60e51b815260206004820152602960248201527f45524331393637557067726164653a20756e737570706f727465642070726f786044820152681a58589b195555525160ba1b6064820152608401610aeb565b506107c8838383612842565b60c9546040516331a9108f60e11b8152600481018390526001600160a01b03848116921690636352211e90602401602060405180830381865afa158015612291573d6000803e3d6000fd5b505050506040513d601f19601f820116820180604052508101906122b59190613733565b6001600160a01b0316146110e4576040516359dc379f60e01b815260040160405180910390fd5b609780546001600160a01b038381166001600160a01b0319831681179093556040519116919082907f8be0079c531659141344cd1fd0a4f28419497f9722a3daafe3b4186f6b6457e090600090a35050565b60008261233b858461286d565b1490505b9392505050565b600054610100900460ff166123b15760405162461bcd60e51b815260206004820152602b60248201527f496e697469616c697a61626c653a20636f6e7472616374206973206e6f74206960448201526a6e697469616c697a696e6760a81b6064820152608401610aeb565b6116e1336122dc565b60c9546040516332665ffb60e01b81526004810184905260009182916001600160a01b03909116906332665ffb90602401600060405180830381865afa158015612408573d6000803e3d6000fd5b505050506040513d6000823e601f3d908101601f191682016040526124309190810190613385565b60c9546040516332665ffb60e01b8152600481018690529192506000916001600160a01b03909116906332665ffb90602401600060405180830381865afa15801561247f573d6000803e3d6000fd5b505050506040513d6000823e601f3d908101601f191682016040526124a79190810190613385565b90508060000151805190602001208260000151805190602001201480156118635750806040015160018111156124df576124df612f56565b826040015160018111156124f5576124f5612f56565b1495945050505050565b60c9546001600160a01b031663162094c48361251a846128b2565b60405160200161252a9190613750565b6040516020818303038152906040526040518363ffffffff1660e01b8152600401612556929190613779565b600060405180830381600087803b15801561257057600080fd5b505af1158015611480573d6000803e3d6000fd5b6040518181527fc7daf6256dbe9cb6d154799db0d394c74128c2d4a91dbd7d45354036ae95629690602001610737565b600081815260ce60205260408082208151606081019092528054829082906125db9061344b565b80601f01602080910402602001604051908101604052809291908181526020018280546126079061344b565b80156126545780601f1061262957610100808354040283529160200191612654565b820191906000526020600020905b81548152906001019060200180831161263757829003601f168201915b5050509183525050600182015460209091019060ff16600481111561267b5761267b612f56565b600481111561268c5761268c612f56565b81526020016001820160019054906101000a900460ff1660018111156126b4576126b4612f56565b60018111156126c5576126c5612f56565b90525060c954604051633a9d7c0160e11b81529192506001600160a01b03169063753af802906126fb908690859060040161379a565b600060405180830381600087803b15801561271557600080fd5b505af1158015612729573d6000803e3d6000fd5b5050505061273783836124ff565b600083815260d1602090815260408083208054600160ff19918216811790925586855260d084529382902080549094161790925581518581529081018490527feb63d1e1aa21e40b86d68d61802506501ad3e37ee74db75be45ddd033f033c65910160405180910390a1505050565b6001600160a01b0381163b6128135760405162461bcd60e51b815260206004820152602d60248201527f455243313936373a206e657720696d706c656d656e746174696f6e206973206e60448201526c1bdd08184818dbdb9d1c9858dd609a1b6064820152608401610aeb565b6000805160206137d983398151915280546001600160a01b0319166001600160a01b0392909216919091179055565b61284b83612944565b6000825111806128585750805b156107c8576128678383612984565b50505050565b600081815b84518110156116c75761289e828683815181106128915761289161321b565b6020026020010151612a6f565b9150806128aa8161328a565b915050612872565b606060006128bf83612a9b565b60010190506000816001600160401b038111156128de576128de612c1e565b6040519080825280601f01601f191660200182016040528015612908576020820181803683370190505b5090508181016020015b600019016f181899199a1a9b1b9c1cb0b131b232b360811b600a86061a8153600a850494508461291257509392505050565b61294d816127a6565b6040516001600160a01b038216907fbc7cd75a20ee27fd9adebab32041f755214dbc6bffa90cc0225b39da2e5c2d3b90600090a250565b60606001600160a01b0383163b6129ec5760405162461bcd60e51b815260206004820152602660248201527f416464726573733a2064656c65676174652063616c6c20746f206e6f6e2d636f6044820152651b9d1c9858dd60d21b6064820152608401610aeb565b600080846001600160a01b031684604051612a0791906137b3565b600060405180830381855af49150503d8060008114612a42576040519150601f19603f3d011682016040523d82523d6000602084013e612a47565b606091505b509150915061186382826040518060600160405280602781526020016137f960279139612b73565b6000818310612a8b57600082815260208490526040902061233f565b5060009182526020526040902090565b60008072184f03e93ff9f4daa797ed6e38ed64bf6a1f0160401b8310612ada5772184f03e93ff9f4daa797ed6e38ed64bf6a1f0160401b830492506040015b6d04ee2d6d415b85acef81000000008310612b06576d04ee2d6d415b85acef8100000000830492506020015b662386f26fc100008310612b2457662386f26fc10000830492506010015b6305f5e1008310612b3c576305f5e100830492506008015b6127108310612b5057612710830492506004015b60648310612b62576064830492506002015b600a83106111565760010192915050565b60608315612b8257508161233f565b61233f8383815115612b975781518083602001fd5b8060405162461bcd60e51b8152600401610aeb91906137c5565b50805460008255600202906000526020600020908101906108d491905b80821115612be85760008082556001820155600201612bce565b5090565b6001600160a01b03811681146108d457600080fd5b600060208284031215612c1357600080fd5b813561233f81612bec565b634e487b7160e01b600052604160045260246000fd5b604051606081016001600160401b0381118282101715612c5657612c56612c1e565b60405290565b604051601f8201601f191681016001600160401b0381118282101715612c8457612c84612c1e565b604052919050565b60008060408385031215612c9f57600080fd5b823591506020808401356001600160401b0380821115612cbe57600080fd5b818601915086601f830112612cd257600080fd5b813581811115612ce457612ce4612c1e565b8060051b9150612cf5848301612c5c565b8181529183018401918481019089841115612d0f57600080fd5b938501935b83851015612d2d57843582529385019390850190612d14565b8096505050505050509250929050565b600060208284031215612d4f57600080fd5b5035919050565b60008083601f840112612d6857600080fd5b5081356001600160401b03811115612d7f57600080fd5b6020830191508360208260051b8501011115612d9a57600080fd5b9250929050565b60008060008060408587031215612db757600080fd5b84356001600160401b0380821115612dce57600080fd5b612dda88838901612d56565b90965094506020870135915080821115612df357600080fd5b50612e0087828801612d56565b95989497509550505050565b60008060208385031215612e1f57600080fd5b82356001600160401b03811115612e3557600080fd5b612e4185828601612d56565b90969095509350505050565b60006001600160401b03821115612e6657612e66612c1e565b50601f01601f191660200190565b60008060408385031215612e8757600080fd5b8235612e9281612bec565b915060208301356001600160401b03811115612ead57600080fd5b8301601f81018513612ebe57600080fd5b8035612ed1612ecc82612e4d565b612c5c565b818152866020838501011115612ee657600080fd5b816020840160208301376000602083830101528093505050509250929050565b60005b83811015612f21578181015183820152602001612f09565b50506000910152565b60008151808452612f42816020860160208601612f06565b601f01601f19169290920160200192915050565b634e487b7160e01b600052602160045260246000fd5b600281106108d4576108d4612f56565b6000815160608452612f916060850182612f2a565b9050602083015160058110612fa857612fa8612f56565b60208501526040830151612fbb81612f6c565b806040860152508091505092915050565b60208152600061233f6020830184612f7c565b602080825282518282018190526000919060409081850190868401855b8281101561302157815180518552860151868501529284019290850190600101612ffc565b5091979650505050505050565b6000806040838503121561304157600080fd5b823561ffff8116811461305357600080fd5b946020939093013593505050565b6000602080830181845280855180835260408601915060408160051b870101925083870160005b828110156130b657603f198886030184526130a4858351612f7c565b94509285019290850190600101613088565b5092979650505050505050565b6000806000604084860312156130d857600080fd5b83356001600160401b038111156130ee57600080fd5b6130fa86828701612d56565b909450925050602084013561310e81612bec565b809150509250925092565b6000806020838503121561312c57600080fd5b82356001600160401b038082111561314357600080fd5b818501915085601f83011261315757600080fd5b81358181111561316657600080fd5b8660208260061b850101111561317b57600080fd5b60209290920196919550909350505050565b600080604083850312156131a057600080fd5b50508035926020909101359150565b600281106108d457600080fd5b60008082840360608112156131d057600080fd5b83356131db816131af565b92506040601f19820112156131ef57600080fd5b506020830190509250929050565b6000806040838503121561321057600080fd5b823561305381612bec565b634e487b7160e01b600052603260045260246000fd5b60006020828403121561324357600080fd5b5051919050565b634e487b7160e01b600052601160045260246000fd5b808201808211156111565761115661324a565b80820281158282048414176111565761115661324a565b60006001820161329c5761329c61324a565b5060010190565b6020808252602c908201527f46756e6374696f6e206d7573742062652063616c6c6564207468726f7567682060408201526b19195b1959d85d1958d85b1b60a21b606082015260800190565b6020808252602c908201527f46756e6374696f6e206d7573742062652063616c6c6564207468726f7567682060408201526b6163746976652070726f787960a01b606082015260800190565b60006020828403121561334d57600080fd5b8151801515811461233f57600080fd5b600581106108d457600080fd5b80516133758161335d565b919050565b8051613375816131af565b6000602080838503121561339857600080fd5b82516001600160401b03808211156133af57600080fd5b90840190606082870312156133c357600080fd5b6133cb612c34565b8251828111156133da57600080fd5b83019150601f820187136133ed57600080fd5b81516133fb612ecc82612e4d565b818152888683860101111561340f57600080fd5b61341e82878301888701612f06565b82525061342c83850161336a565b8482015261343c6040840161337a565b60408201529695505050505050565b600181811c9082168061345f57607f821691505b60208210810361347f57634e487b7160e01b600052602260045260246000fd5b50919050565b60008235605e1983360301811261349b57600080fd5b9190910192915050565b601f8211156107c857600081815260208120601f850160051c810160208610156134cc5750805b601f850160051c820191505b81811015611480578281556001016134d8565b600081356111568161335d565b6005821061350857613508612f56565b60ff1981541660ff831681178255505050565b60008135611156816131af565b61353182612f6c565b805461ff008360081b1661ff00198216178255505050565b8135601e1983360301811261355d57600080fd5b820180356001600160401b0381111561357557600080fd5b6020813603818401131561358857600080fd5b61359c82613596865461344b565b866134a5565b6000601f8311600181146135d257600084156135ba57508482018301355b600019600386901b1c1916600185901b17865561362f565b600086815260209020601f19851690835b828110156136045787850186013582559385019360019091019085016135e3565b50858210156136235760001960f88760031b161c198585890101351681555b505060018460011b0186555b505060018401925061364b6136458287016134eb565b846134f8565b50506107c861365c6040850161351b565b82613528565b600061ffff8083168181036136795761367961324a565b6001019392505050565b60006020808301818452808554808352604092508286019150866000528360002060005b8281101561302157815484526001808301548786015293850193600290920191016136a7565b606081016136da84612f6c565b83825282356020830152602083013560408301529392505050565b634e487b7160e01b600052601260045260246000fd5b60008261371a5761371a6136f5565b500690565b60008261372e5761372e6136f5565b500490565b60006020828403121561374557600080fd5b815161233f81612bec565b60008251613762818460208701612f06565b64173539b7b760d91b920191825250600501919050565b8281526040602082015260006137926040830184612f2a565b949350505050565b8281526040602082015260006137926040830184612f7c565b6000825161349b818460208701612f06565b60208152600061233f6020830184612f2a56fe360894a13ba1a3210667c828492db98dca3e2076cc3735a920a3ca505d382bbc416464726573733a206c6f772d6c6576656c2064656c65676174652063616c6c206661696c6564a2646970667358221220757ca682fd50c5b043e4f7841215047e43bc52ed2d8715ddf3d1feccf9d19ddb64736f6c63430008110033",
  "devdoc": {
    "kind": "dev",
    "methods": {
      "airdrop(address[],uint256[])": {
        "details": "signer mint and airdrop NFT to receivers"
      },
      "fulfillRandomWordsCallback(uint256,uint256[])": {
        "details": "chainlink vrf proxy callback request randomWords",
        "params": {
          "randomWords": "return randomWords of requestId",
          "requestId": "requestId generage when request randomWords"
        }
      },
      "openMysteryBox(uint256[])": {
        "details": "bind tokenId and metadata"
      },
      "owner()": {
        "details": "Returns the address of the current owner."
      },
      "proxiableUUID()": {
        "details": "Implementation of the ERC1822 {proxiableUUID} function. This returns the storage slot used by the implementation. It is used to validate the implementation's compatibility when performing an upgrade. IMPORTANT: A proxy pointing at a proxiable contract should not be considered proxiable itself, because this risks bricking a proxy that upgrades to it, by delegating to itself until out of gas. Thus it is critical that this function revert if invoked through a proxy. This is guaranteed by the `notDelegated` modifier."
      },
      "publicMint(uint256)": {
        "params": {
          "quantity": "quantities want to mint"
        }
      },
      "renounceOwnership()": {
        "details": "Leaves the contract without owner. It will not be possible to call `onlyOwner` functions anymore. Can only be called by the current owner. NOTE: Renouncing ownership will leave the contract without an owner, thereby removing any functionality that is only available to the owner."
      },
      "setMetadatas((string,uint8,uint8)[])": {
        "details": "set id=>metadata map latestMetadata is useed for compatible sence with multiple times to setting"
      },
      "transferOwnership(address)": {
        "details": "Transfers ownership of the contract to a new account (`newOwner`). Can only be called by the current owner."
      },
      "upgradeTo(address)": {
        "details": "Upgrade the implementation of the proxy to `newImplementation`. Calls {_authorizeUpgrade}. Emits an {Upgraded} event."
      },
      "upgradeToAndCall(address,bytes)": {
        "details": "Upgrade the implementation of the proxy to `newImplementation`, and subsequently execute the function call encoded in `data`. Calls {_authorizeUpgrade}. Emits an {Upgraded} event."
      },
      "whitelistMint(bytes32[])": {
        "details": "users in whitelist can mint mystery box"
      }
    },
    "version": 1
  },
  "userdoc": {
    "kind": "user",
    "methods": {
      "publicMint(uint256)": {
        "notice": "public mint"
      }
    },
    "version": 1
  },
  "storageLayout": {
    "storage": [
      {
        "astId": 937,
        "contract": "src/nft/NFTManager.sol:NFTManager",
        "label": "_initialized",
        "offset": 0,
        "slot": "0",
        "type": "t_uint8"
      },
      {
        "astId": 940,
        "contract": "src/nft/NFTManager.sol:NFTManager",
        "label": "_initializing",
        "offset": 1,
        "slot": "0",
        "type": "t_bool"
      },
      {
        "astId": 919,
        "contract": "src/nft/NFTManager.sol:NFTManager",
        "label": "__gap",
        "offset": 0,
        "slot": "1",
        "type": "t_array(t_uint256)50_storage"
      },
      {
        "astId": 1234,
        "contract": "src/nft/NFTManager.sol:NFTManager",
        "label": "__gap",
        "offset": 0,
        "slot": "51",
        "type": "t_array(t_uint256)50_storage"
      },
      {
        "astId": 3984,
        "contract": "src/nft/NFTManager.sol:NFTManager",
        "label": "__gap",
        "offset": 0,
        "slot": "101",
        "type": "t_array(t_uint256)50_storage"
      },
      {
        "astId": 420,
        "contract": "src/nft/NFTManager.sol:NFTManager",
        "label": "_owner",
        "offset": 0,
        "slot": "151",
        "type": "t_address"
      },
      {
        "astId": 540,
        "contract": "src/nft/NFTManager.sol:NFTManager",
        "label": "__gap",
        "offset": 0,
        "slot": "152",
        "type": "t_array(t_uint256)49_storage"
      },
      {
        "astId": 21989,
        "contract": "src/nft/NFTManager.sol:NFTManager",
        "label": "degenNFT",
        "offset": 0,
        "slot": "201",
        "type": "t_contract(IDegenNFT)16245"
      },
      {
        "astId": 21991,
        "contract": "src/nft/NFTManager.sol:NFTManager",
        "label": "chainlinkVRFProxy",
        "offset": 0,
        "slot": "202",
        "type": "t_address"
      },
      {
        "astId": 21993,
        "contract": "src/nft/NFTManager.sol:NFTManager",
        "label": "latestMetadataIdx",
        "offset": 20,
        "slot": "202",
        "type": "t_uint16"
      },
      {
        "astId": 21995,
        "contract": "src/nft/NFTManager.sol:NFTManager",
        "label": "merkleRoot",
        "offset": 0,
        "slot": "203",
        "type": "t_bytes32"
      },
      {
        "astId": 21999,
        "contract": "src/nft/NFTManager.sol:NFTManager",
        "label": "signers",
        "offset": 0,
        "slot": "204",
        "type": "t_mapping(t_address,t_bool)"
      },
      {
        "astId": 22003,
        "contract": "src/nft/NFTManager.sol:NFTManager",
        "label": "minted",
        "offset": 0,
        "slot": "205",
        "type": "t_mapping(t_address,t_bool)"
      },
      {
        "astId": 22008,
        "contract": "src/nft/NFTManager.sol:NFTManager",
        "label": "metadatas",
        "offset": 0,
        "slot": "206",
        "type": "t_mapping(t_uint256,t_struct(Property)16157_storage)"
      },
      {
        "astId": 22012,
        "contract": "src/nft/NFTManager.sol:NFTManager",
        "label": "requestIdToTokenId",
        "offset": 0,
        "slot": "207",
        "type": "t_mapping(t_uint256,t_uint256)"
      },
      {
        "astId": 22016,
        "contract": "src/nft/NFTManager.sol:NFTManager",
        "label": "metadataUsed",
        "offset": 0,
        "slot": "208",
        "type": "t_mapping(t_uint256,t_bool)"
      },
      {
        "astId": 22020,
        "contract": "src/nft/NFTManager.sol:NFTManager",
        "label": "opened",
        "offset": 0,
        "slot": "209",
        "type": "t_mapping(t_uint256,t_bool)"
      },
      {
        "astId": 22026,
        "contract": "src/nft/NFTManager.sol:NFTManager",
        "label": "mintTime",
        "offset": 0,
        "slot": "210",
        "type": "t_mapping(t_enum(MintType)16250,t_struct(MintTime)16255_storage)"
      },
      {
        "astId": 22030,
        "contract": "src/nft/NFTManager.sol:NFTManager",
        "label": "burnRefundConfigs",
        "offset": 0,
        "slot": "211",
        "type": "t_array(t_struct(BurnRefundConfig)16260_storage)dyn_storage"
      },
      {
        "astId": 22032,
        "contract": "src/nft/NFTManager.sol:NFTManager",
        "label": "mintFee",
        "offset": 0,
        "slot": "212",
        "type": "t_uint256"
      },
      {
        "astId": 22035,
        "contract": "src/nft/NFTManager.sol:NFTManager",
        "label": "openFailedBoxs",
        "offset": 0,
        "slot": "213",
        "type": "t_array(t_uint256)dyn_storage"
      },
      {
        "astId": 22039,
        "contract": "src/nft/NFTManager.sol:NFTManager",
        "label": "_gap",
        "offset": 0,
        "slot": "214",
        "type": "t_array(t_uint256)48_storage"
      }
    ],
    "types": {
      "t_address": {
        "encoding": "inplace",
        "label": "address",
        "numberOfBytes": "20"
      },
      "t_array(t_struct(BurnRefundConfig)16260_storage)dyn_storage": {
        "base": "t_struct(BurnRefundConfig)16260_storage",
        "encoding": "dynamic_array",
        "label": "struct INFTManagerDefination.BurnRefundConfig[]",
        "numberOfBytes": "32"
      },
      "t_array(t_uint256)48_storage": {
        "base": "t_uint256",
        "encoding": "inplace",
        "label": "uint256[48]",
        "numberOfBytes": "1536"
      },
      "t_array(t_uint256)49_storage": {
        "base": "t_uint256",
        "encoding": "inplace",
        "label": "uint256[49]",
        "numberOfBytes": "1568"
      },
      "t_array(t_uint256)50_storage": {
        "base": "t_uint256",
        "encoding": "inplace",
        "label": "uint256[50]",
        "numberOfBytes": "1600"
      },
      "t_array(t_uint256)dyn_storage": {
        "base": "t_uint256",
        "encoding": "dynamic_array",
        "label": "uint256[]",
        "numberOfBytes": "32"
      },
      "t_bool": {
        "encoding": "inplace",
        "label": "bool",
        "numberOfBytes": "1"
      },
      "t_bytes32": {
        "encoding": "inplace",
        "label": "bytes32",
        "numberOfBytes": "32"
      },
      "t_contract(IDegenNFT)16245": {
        "encoding": "inplace",
        "label": "contract IDegenNFT",
        "numberOfBytes": "20"
      },
      "t_enum(MintType)16250": {
        "encoding": "inplace",
        "label": "enum INFTManagerDefination.MintType",
        "numberOfBytes": "1"
      },
      "t_enum(Rarity)16145": {
        "encoding": "inplace",
        "label": "enum IDegenNFTDefination.Rarity",
        "numberOfBytes": "1"
      },
      "t_enum(TokenType)16148": {
        "encoding": "inplace",
        "label": "enum IDegenNFTDefination.TokenType",
        "numberOfBytes": "1"
      },
      "t_mapping(t_address,t_bool)": {
        "encoding": "mapping",
        "key": "t_address",
        "label": "mapping(address => bool)",
        "numberOfBytes": "32",
        "value": "t_bool"
      },
      "t_mapping(t_enum(MintType)16250,t_struct(MintTime)16255_storage)": {
        "encoding": "mapping",
        "key": "t_enum(MintType)16250",
        "label": "mapping(enum INFTManagerDefination.MintType => struct INFTManagerDefination.MintTime)",
        "numberOfBytes": "32",
        "value": "t_struct(MintTime)16255_storage"
      },
      "t_mapping(t_uint256,t_bool)": {
        "encoding": "mapping",
        "key": "t_uint256",
        "label": "mapping(uint256 => bool)",
        "numberOfBytes": "32",
        "value": "t_bool"
      },
      "t_mapping(t_uint256,t_struct(Property)16157_storage)": {
        "encoding": "mapping",
        "key": "t_uint256",
        "label": "mapping(uint256 => struct IDegenNFTDefination.Property)",
        "numberOfBytes": "32",
        "value": "t_struct(Property)16157_storage"
      },
      "t_mapping(t_uint256,t_uint256)": {
        "encoding": "mapping",
        "key": "t_uint256",
        "label": "mapping(uint256 => uint256)",
        "numberOfBytes": "32",
        "value": "t_uint256"
      },
      "t_string_storage": {
        "encoding": "bytes",
        "label": "string",
        "numberOfBytes": "32"
      },
      "t_struct(BurnRefundConfig)16260_storage": {
        "encoding": "inplace",
        "label": "struct INFTManagerDefination.BurnRefundConfig",
        "members": [
          {
            "astId": 16257,
            "contract": "src/nft/NFTManager.sol:NFTManager",
            "label": "nativeToken",
            "offset": 0,
            "slot": "0",
            "type": "t_uint256"
          },
          {
            "astId": 16259,
            "contract": "src/nft/NFTManager.sol:NFTManager",
            "label": "rebornToken",
            "offset": 0,
            "slot": "1",
            "type": "t_uint256"
          }
        ],
        "numberOfBytes": "64"
      },
      "t_struct(MintTime)16255_storage": {
        "encoding": "inplace",
        "label": "struct INFTManagerDefination.MintTime",
        "members": [
          {
            "astId": 16252,
            "contract": "src/nft/NFTManager.sol:NFTManager",
            "label": "startTime",
            "offset": 0,
            "slot": "0",
            "type": "t_uint256"
          },
          {
            "astId": 16254,
            "contract": "src/nft/NFTManager.sol:NFTManager",
            "label": "endTime",
            "offset": 0,
            "slot": "1",
            "type": "t_uint256"
          }
        ],
        "numberOfBytes": "64"
      },
      "t_struct(Property)16157_storage": {
        "encoding": "inplace",
        "label": "struct IDegenNFTDefination.Property",
        "members": [
          {
            "astId": 16150,
            "contract": "src/nft/NFTManager.sol:NFTManager",
            "label": "name",
            "offset": 0,
            "slot": "0",
            "type": "t_string_storage"
          },
          {
            "astId": 16153,
            "contract": "src/nft/NFTManager.sol:NFTManager",
            "label": "rarity",
            "offset": 0,
            "slot": "1",
            "type": "t_enum(Rarity)16145"
          },
          {
            "astId": 16156,
            "contract": "src/nft/NFTManager.sol:NFTManager",
            "label": "tokenType",
            "offset": 1,
            "slot": "1",
            "type": "t_enum(TokenType)16148"
          }
        ],
        "numberOfBytes": "64"
      },
      "t_uint16": {
        "encoding": "inplace",
        "label": "uint16",
        "numberOfBytes": "2"
      },
      "t_uint256": {
        "encoding": "inplace",
        "label": "uint256",
        "numberOfBytes": "32"
      },
      "t_uint8": {
        "encoding": "inplace",
        "label": "uint8",
        "numberOfBytes": "1"
      }
    }
  }
}