{
  "address": "0xE9391F30d652c70a4dbEf52144E98eE65617Bc3C",
  "abi": [
    {
      "inputs": [],
      "name": "AlreadyMinted",
      "type": "error"
    },
    {
      "inputs": [],
      "name": "CallerNotOwner",
      "type": "error"
    },
    {
      "inputs": [],
      "name": "CallerNotPendingOwner",
      "type": "error"
    },
    {
      "inputs": [],
      "name": "InvalidMintTime",
      "type": "error"
    },
    {
      "inputs": [],
      "name": "InvalidParams",
      "type": "error"
    },
    {
      "inputs": [],
      "name": "InvalidProof",
      "type": "error"
    },
    {
      "inputs": [],
      "name": "InvalidRequestId",
      "type": "error"
    },
    {
      "inputs": [],
      "name": "InvalidTokens",
      "type": "error"
    },
    {
      "inputs": [],
      "name": "MintFeeNotEnough",
      "type": "error"
    },
    {
      "inputs": [],
      "name": "NotSigner",
      "type": "error"
    },
    {
      "inputs": [],
      "name": "NotTokenOwner",
      "type": "error"
    },
    {
      "inputs": [],
      "name": "OnlyChainlinkVRFProxy",
      "type": "error"
    },
    {
      "inputs": [],
      "name": "OutOfMaxMintCount",
      "type": "error"
    },
    {
      "inputs": [],
      "name": "TokenIdNotExsis",
      "type": "error"
    },
    {
      "inputs": [],
      "name": "ZeroAddressOwnerSet",
      "type": "error"
    },
    {
      "inputs": [],
      "name": "ZeroAddressSet",
      "type": "error"
    },
    {
      "inputs": [],
      "name": "ZeroOwnerSet",
      "type": "error"
    },
    {
      "inputs": [],
      "name": "ZeroRootSet",
      "type": "error"
    },
    {
      "anonymous": false,
      "inputs": [
        {
          "indexed": false,
          "internalType": "address",
          "name": "previousAdmin",
          "type": "address"
        },
        {
          "indexed": false,
          "internalType": "address",
          "name": "newAdmin",
          "type": "address"
        }
      ],
      "name": "AdminChanged",
      "type": "event"
    },
    {
      "anonymous": false,
      "inputs": [
        {
          "indexed": true,
          "internalType": "address",
          "name": "beacon",
          "type": "address"
        }
      ],
      "name": "BeaconUpgraded",
      "type": "event"
    },
    {
      "anonymous": false,
      "inputs": [
        {
          "indexed": false,
          "internalType": "address",
          "name": "account",
          "type": "address"
        },
        {
          "indexed": false,
          "internalType": "uint256",
          "name": "tokenId",
          "type": "uint256"
        },
        {
          "indexed": false,
          "internalType": "uint256",
          "name": "refundNativeToken",
          "type": "uint256"
        },
        {
          "indexed": false,
          "internalType": "uint256",
          "name": "refundRebornToken",
          "type": "uint256"
        }
      ],
      "name": "BurnToken",
      "type": "event"
    },
    {
      "anonymous": false,
      "inputs": [
        {
          "indexed": false,
          "internalType": "address",
          "name": "chainlinkVRFProxy",
          "type": "address"
        }
      ],
      "name": "ChangedChainlinkVRFProxy",
      "type": "event"
    },
    {
      "anonymous": false,
      "inputs": [
        {
          "indexed": false,
          "internalType": "uint8",
          "name": "version",
          "type": "uint8"
        }
      ],
      "name": "Initialized",
      "type": "event"
    },
    {
      "anonymous": false,
      "inputs": [
        {
          "indexed": true,
          "internalType": "address",
          "name": "from",
          "type": "address"
        },
        {
          "indexed": false,
          "internalType": "uint256",
          "name": "tokenId1",
          "type": "uint256"
        },
        {
          "indexed": false,
          "internalType": "uint256",
          "name": "tokenId2",
          "type": "uint256"
        },
        {
          "indexed": false,
          "internalType": "uint256",
          "name": "newTokenId",
          "type": "uint256"
        }
      ],
      "name": "MergeTokens",
      "type": "event"
    },
    {
      "anonymous": false,
      "inputs": [
        {
          "indexed": false,
          "internalType": "bytes32",
          "name": "root",
          "type": "bytes32"
        }
      ],
      "name": "MerkleTreeRootSet",
      "type": "event"
    },
    {
      "anonymous": false,
      "inputs": [
        {
          "indexed": false,
          "internalType": "uint256",
          "name": "mintFee",
          "type": "uint256"
        }
      ],
      "name": "MintFeeSet",
      "type": "event"
    },
    {
      "anonymous": false,
      "inputs": [
        {
          "indexed": true,
          "internalType": "address",
          "name": "receiver",
          "type": "address"
        },
        {
          "indexed": false,
          "internalType": "uint256",
          "name": "quantity",
          "type": "uint256"
        },
        {
          "indexed": false,
          "internalType": "uint256",
          "name": "startTokenId",
          "type": "uint256"
        }
      ],
      "name": "Minted",
      "type": "event"
    },
    {
      "anonymous": false,
      "inputs": [
        {
          "indexed": false,
          "internalType": "uint256",
          "name": "tokenId",
          "type": "uint256"
        }
      ],
      "name": "OpenMysteryBoxFailed",
      "type": "event"
    },
    {
      "anonymous": false,
      "inputs": [
        {
          "indexed": false,
          "internalType": "uint256",
          "name": "tokenId",
          "type": "uint256"
        },
        {
          "indexed": false,
          "internalType": "uint256",
          "name": "metadataId",
          "type": "uint256"
        }
      ],
      "name": "OpenMysteryBoxSuccess",
      "type": "event"
    },
    {
      "anonymous": false,
      "inputs": [
        {
          "indexed": true,
          "internalType": "address",
          "name": "previousOwner",
          "type": "address"
        },
        {
          "indexed": true,
          "internalType": "address",
          "name": "newOwner",
          "type": "address"
        }
      ],
      "name": "OwnershipTransferred",
      "type": "event"
    },
    {
      "anonymous": false,
      "inputs": [
        {
          "components": [
            {
              "internalType": "uint256",
              "name": "nativeToken",
              "type": "uint256"
            },
            {
              "internalType": "uint256",
              "name": "rebornToken",
              "type": "uint256"
            }
          ],
          "indexed": false,
          "internalType": "struct INFTManagerDefination.BurnRefundConfig[]",
          "name": "burnRefundConfigs",
          "type": "tuple[]"
        }
      ],
      "name": "SetBurnRefundConfig",
      "type": "event"
    },
    {
      "anonymous": false,
      "inputs": [
        {
          "indexed": false,
          "internalType": "address",
          "name": "degenNFT",
          "type": "address"
        }
      ],
      "name": "SetDegenNFT",
      "type": "event"
    },
    {
      "anonymous": false,
      "inputs": [
        {
          "indexed": false,
          "internalType": "enum INFTManagerDefination.MintType",
          "name": "mintType",
          "type": "uint8"
        },
        {
          "components": [
            {
              "internalType": "uint256",
              "name": "startTime",
              "type": "uint256"
            },
            {
              "internalType": "uint256",
              "name": "endTime",
              "type": "uint256"
            }
          ],
          "indexed": false,
          "internalType": "struct INFTManagerDefination.MintTime",
          "name": "mintTime",
          "type": "tuple"
        }
      ],
      "name": "SetMintTime",
      "type": "event"
    },
    {
      "anonymous": false,
      "inputs": [
        {
          "indexed": true,
          "internalType": "address",
          "name": "signer",
          "type": "address"
        },
        {
          "indexed": false,
          "internalType": "bool",
          "name": "valid",
          "type": "bool"
        }
      ],
      "name": "SignerUpdate",
      "type": "event"
    },
    {
      "anonymous": false,
      "inputs": [
        {
          "indexed": true,
          "internalType": "address",
          "name": "implementation",
          "type": "address"
        }
      ],
      "name": "Upgraded",
      "type": "event"
    },
    {
      "inputs": [],
      "name": "SUPPORT_MAX_MINT_COUNT",
      "outputs": [
        {
          "internalType": "uint256",
          "name": "",
          "type": "uint256"
        }
      ],
      "stateMutability": "view",
      "type": "function"
    },
    {
      "inputs": [
        {
          "internalType": "address[]",
          "name": "receivers",
          "type": "address[]"
        },
        {
          "internalType": "uint256[]",
          "name": "quantities",
          "type": "uint256[]"
        }
      ],
      "name": "airdrop",
      "outputs": [],
      "stateMutability": "payable",
      "type": "function"
    },
    {
      "inputs": [
        {
          "internalType": "uint256",
          "name": "tokenId",
          "type": "uint256"
        }
      ],
      "name": "burn",
      "outputs": [],
      "stateMutability": "nonpayable",
      "type": "function"
    },
    {
      "inputs": [],
      "name": "chainlinkVRFProxy",
      "outputs": [
        {
          "internalType": "address",
          "name": "",
          "type": "address"
        }
      ],
      "stateMutability": "view",
      "type": "function"
    },
    {
      "inputs": [
        {
          "internalType": "bytes32[]",
          "name": "merkleProof",
          "type": "bytes32[]"
        },
        {
          "internalType": "address",
          "name": "account",
          "type": "address"
        }
      ],
      "name": "checkWhiteList",
      "outputs": [
        {
          "internalType": "bool",
          "name": "verified",
          "type": "bool"
        }
      ],
      "stateMutability": "view",
      "type": "function"
    },
    {
      "inputs": [],
      "name": "claimOwnership",
      "outputs": [],
      "stateMutability": "nonpayable",
      "type": "function"
    },
    {
      "inputs": [],
      "name": "degenNFT",
      "outputs": [
        {
          "internalType": "contract IDegenNFT",
          "name": "",
          "type": "address"
        }
      ],
      "stateMutability": "view",
      "type": "function"
    },
    {
      "inputs": [
        {
          "internalType": "uint256",
          "name": "tokenId",
          "type": "uint256"
        }
      ],
      "name": "exists",
      "outputs": [
        {
          "internalType": "bool",
          "name": "",
          "type": "bool"
        }
      ],
      "stateMutability": "view",
      "type": "function"
    },
    {
      "inputs": [
        {
          "internalType": "uint256",
          "name": "requestId",
          "type": "uint256"
        },
        {
          "internalType": "uint256[]",
          "name": "randomWords",
          "type": "uint256[]"
        }
      ],
      "name": "fulfillRandomWordsCallback",
      "outputs": [],
      "stateMutability": "nonpayable",
      "type": "function"
    },
    {
      "inputs": [],
      "name": "getBurnRefundConfigs",
      "outputs": [
        {
          "components": [
            {
              "internalType": "uint256",
              "name": "nativeToken",
              "type": "uint256"
            },
            {
              "internalType": "uint256",
              "name": "rebornToken",
              "type": "uint256"
            }
          ],
          "internalType": "struct INFTManagerDefination.BurnRefundConfig[]",
          "name": "",
          "type": "tuple[]"
        }
      ],
      "stateMutability": "view",
      "type": "function"
    },
    {
      "inputs": [
        {
          "internalType": "uint16",
          "name": "length",
          "type": "uint16"
        },
        {
          "internalType": "uint256",
          "name": "offset",
          "type": "uint256"
        }
      ],
      "name": "getMetadataList",
      "outputs": [
        {
          "components": [
            {
              "internalType": "string",
              "name": "name",
              "type": "string"
            },
            {
              "internalType": "enum IDegenNFTDefination.Rarity",
              "name": "rarity",
              "type": "uint8"
            },
            {
              "internalType": "enum IDegenNFTDefination.TokenType",
              "name": "tokenType",
              "type": "uint8"
            }
          ],
          "internalType": "struct IDegenNFTDefination.Property[]",
          "name": "",
          "type": "tuple[]"
        }
      ],
      "stateMutability": "view",
      "type": "function"
    },
    {
      "inputs": [
        {
          "internalType": "address",
          "name": "owner_",
          "type": "address"
        }
      ],
      "name": "initialize",
      "outputs": [],
      "stateMutability": "nonpayable",
      "type": "function"
    },
    {
      "inputs": [],
      "name": "latestMetadataIdx",
      "outputs": [
        {
          "internalType": "uint16",
          "name": "",
          "type": "uint16"
        }
      ],
      "stateMutability": "view",
      "type": "function"
    },
    {
      "inputs": [
        {
          "internalType": "uint256",
          "name": "tokenId1",
          "type": "uint256"
        },
        {
          "internalType": "uint256",
          "name": "tokenId2",
          "type": "uint256"
        }
      ],
      "name": "merge",
      "outputs": [],
      "stateMutability": "nonpayable",
      "type": "function"
    },
    {
      "inputs": [],
      "name": "merkleRoot",
      "outputs": [
        {
          "internalType": "bytes32",
          "name": "",
          "type": "bytes32"
        }
      ],
      "stateMutability": "view",
      "type": "function"
    },
    {
      "inputs": [],
      "name": "mintFee",
      "outputs": [
        {
          "internalType": "uint256",
          "name": "",
          "type": "uint256"
        }
      ],
      "stateMutability": "view",
      "type": "function"
    },
    {
      "inputs": [
        {
          "internalType": "address",
          "name": "account",
          "type": "address"
        }
      ],
      "name": "minted",
      "outputs": [
        {
          "internalType": "bool",
          "name": "",
          "type": "bool"
        }
      ],
      "stateMutability": "view",
      "type": "function"
    },
    {
      "inputs": [
        {
          "internalType": "uint256[]",
          "name": "tokenIds",
          "type": "uint256[]"
        }
      ],
      "name": "openMysteryBox",
      "outputs": [],
      "stateMutability": "nonpayable",
      "type": "function"
    },
    {
      "inputs": [],
      "name": "owner",
      "outputs": [
        {
          "internalType": "address",
          "name": "",
          "type": "address"
        }
      ],
      "stateMutability": "view",
      "type": "function"
    },
    {
      "inputs": [],
      "name": "pendingOwner",
      "outputs": [
        {
          "internalType": "address",
          "name": "",
          "type": "address"
        }
      ],
      "stateMutability": "view",
      "type": "function"
    },
    {
      "inputs": [
        {
          "internalType": "uint256",
          "name": "tokenId",
          "type": "uint256"
        }
      ],
      "name": "propertyOf",
      "outputs": [
        {
          "components": [
            {
              "internalType": "string",
              "name": "name",
              "type": "string"
            },
            {
              "internalType": "enum IDegenNFTDefination.Rarity",
              "name": "rarity",
              "type": "uint8"
            },
            {
              "internalType": "enum IDegenNFTDefination.TokenType",
              "name": "tokenType",
              "type": "uint8"
            }
          ],
          "internalType": "struct IDegenNFTDefination.Property",
          "name": "",
          "type": "tuple"
        }
      ],
      "stateMutability": "view",
      "type": "function"
    },
    {
      "inputs": [],
      "name": "proxiableUUID",
      "outputs": [
        {
          "internalType": "bytes32",
          "name": "",
          "type": "bytes32"
        }
      ],
      "stateMutability": "view",
      "type": "function"
    },
    {
      "inputs": [
        {
          "internalType": "uint256",
          "name": "quantity",
          "type": "uint256"
        }
      ],
      "name": "publicMint",
      "outputs": [],
      "stateMutability": "payable",
      "type": "function"
    },
    {
      "inputs": [],
      "name": "renounceOwnership",
      "outputs": [],
      "stateMutability": "nonpayable",
      "type": "function"
    },
    {
      "inputs": [
        {
          "components": [
            {
              "internalType": "uint256",
              "name": "nativeToken",
              "type": "uint256"
            },
            {
              "internalType": "uint256",
              "name": "rebornToken",
              "type": "uint256"
            }
          ],
          "internalType": "struct INFTManagerDefination.BurnRefundConfig[]",
          "name": "configs",
          "type": "tuple[]"
        }
      ],
      "name": "setBurnRefundConfig",
      "outputs": [],
      "stateMutability": "nonpayable",
      "type": "function"
    },
    {
      "inputs": [
        {
          "internalType": "address",
          "name": "chainlinkVRFProxy_",
          "type": "address"
        }
      ],
      "name": "setChainlinkVRFProxy",
      "outputs": [],
      "stateMutability": "nonpayable",
      "type": "function"
    },
    {
      "inputs": [
        {
          "internalType": "address",
          "name": "degenNFT_",
          "type": "address"
        }
      ],
      "name": "setDegenNFT",
      "outputs": [],
      "stateMutability": "nonpayable",
      "type": "function"
    },
    {
      "inputs": [
        {
          "internalType": "bytes32",
          "name": "root",
          "type": "bytes32"
        }
      ],
      "name": "setMerkleRoot",
      "outputs": [],
      "stateMutability": "nonpayable",
      "type": "function"
    },
    {
      "inputs": [
        {
          "components": [
            {
              "internalType": "string",
              "name": "name",
              "type": "string"
            },
            {
              "internalType": "enum IDegenNFTDefination.Rarity",
              "name": "rarity",
              "type": "uint8"
            },
            {
              "internalType": "enum IDegenNFTDefination.TokenType",
              "name": "tokenType",
              "type": "uint8"
            }
          ],
          "internalType": "struct IDegenNFTDefination.Property[]",
          "name": "metadataList",
          "type": "tuple[]"
        }
      ],
      "name": "setMetadatas",
      "outputs": [],
      "stateMutability": "nonpayable",
      "type": "function"
    },
    {
      "inputs": [
        {
          "internalType": "uint256",
          "name": "mintFee_",
          "type": "uint256"
        }
      ],
      "name": "setMintFee",
      "outputs": [],
      "stateMutability": "nonpayable",
      "type": "function"
    },
    {
      "inputs": [
        {
          "internalType": "enum INFTManagerDefination.MintType",
          "name": "mintType_",
          "type": "uint8"
        },
        {
          "components": [
            {
              "internalType": "uint256",
              "name": "startTime",
              "type": "uint256"
            },
            {
              "internalType": "uint256",
              "name": "endTime",
              "type": "uint256"
            }
          ],
          "internalType": "struct INFTManagerDefination.MintTime",
          "name": "mintTime_",
          "type": "tuple"
        }
      ],
      "name": "setMintTime",
      "outputs": [],
      "stateMutability": "nonpayable",
      "type": "function"
    },
    {
      "inputs": [
        {
          "internalType": "address",
          "name": "",
          "type": "address"
        }
      ],
      "name": "signers",
      "outputs": [
        {
          "internalType": "bool",
          "name": "",
          "type": "bool"
        }
      ],
      "stateMutability": "view",
      "type": "function"
    },
    {
      "inputs": [
        {
          "internalType": "address",
          "name": "newOwner",
          "type": "address"
        },
        {
          "internalType": "bool",
          "name": "direct",
          "type": "bool"
        }
      ],
      "name": "transferOwnership",
      "outputs": [],
      "stateMutability": "nonpayable",
      "type": "function"
    },
    {
      "inputs": [
        {
          "internalType": "address[]",
          "name": "toAdd",
          "type": "address[]"
        },
        {
          "internalType": "address[]",
          "name": "toRemove",
          "type": "address[]"
        }
      ],
      "name": "updateSigners",
      "outputs": [],
      "stateMutability": "nonpayable",
      "type": "function"
    },
    {
      "inputs": [
        {
          "internalType": "address",
          "name": "newImplementation",
          "type": "address"
        }
      ],
      "name": "upgradeTo",
      "outputs": [],
      "stateMutability": "nonpayable",
      "type": "function"
    },
    {
      "inputs": [
        {
          "internalType": "address",
          "name": "newImplementation",
          "type": "address"
        },
        {
          "internalType": "bytes",
          "name": "data",
          "type": "bytes"
        }
      ],
      "name": "upgradeToAndCall",
      "outputs": [],
      "stateMutability": "payable",
      "type": "function"
    },
    {
      "inputs": [
        {
          "internalType": "bytes32[]",
          "name": "merkleProof",
          "type": "bytes32[]"
        }
      ],
      "name": "whitelistMint",
      "outputs": [],
      "stateMutability": "payable",
      "type": "function"
    },
    {
      "inputs": [
        {
          "internalType": "address",
          "name": "to",
          "type": "address"
        },
        {
          "internalType": "uint256",
          "name": "amount",
          "type": "uint256"
        }
      ],
      "name": "withdraw",
      "outputs": [],
      "stateMutability": "nonpayable",
      "type": "function"
    },
    {
      "stateMutability": "payable",
      "type": "receive"
    }
  ],
  "transactionHash": "0xddc8e292088985c9cdc5b30c069027dba82826b5231a017c6a8b693a2364b054",
  "args": [],
  "numDeployments": 5,
  "solcInputHash": "5d2d16d0da52555055f38c34f372a587",
  "bytecode": "0x60a06040523060805234801561001457600080fd5b50608051613b6961004c60003960008181610b6801528181610bb10152818161112a0152818161116a01526112fc0152613b696000f3fe6080604052600436106102285760003560e01c80637055473811610123578063a92ed6ac116100ab578063d1c2babb1161006f578063d1c2babb14610659578063dca25b1314610679578063e30c397814610699578063eddd0d9c146106b7578063f3fef3a3146106d757600080fd5b8063a92ed6ac146105c3578063b242e534146105d9578063c4d66de8146105f9578063d0b4912514610619578063d1a1c45d1461063957600080fd5b80637cb64759116100f25780637cb64759146105115780638da5cb5b146105315780639408b63f1461056357806397a0d22d14610583578063a35c5ad9146105a357600080fd5b8063705547381461047f578063715018a6146104ac578063736c0d5b146104c1578063796fd684146104f157600080fd5b8063372f657c116101b15780634f558e79116101755780634f558e79146103e857806351885d9b1461040857806352d1902d14610435578063672434821461044a5780636814490b1461045d57600080fd5b8063372f657c1461036d57806342966c681461038057806343664bbc146103a05780634e71e0c8146103c05780634f1ef286146103d557600080fd5b80631e7269c5116101f85780631e7269c5146102d45780632db11544146103045780632eb4a7ab14610317578063350b23691461032d5780633659cfe61461034d57600080fd5b80624b0ec514610234578063061c117b1461026e57806306c1cb911461029057806313966db5146102b057600080fd5b3661022f57005b600080fd5b34801561024057600080fd5b5060ca5461025690600160a01b900461ffff1681565b60405161ffff90911681526020015b60405180910390f35b34801561027a57600080fd5b5061028e610289366004612e88565b6106f7565b005b34801561029c57600080fd5b5061028e6102ab366004612f13565b61079e565b3480156102bc57600080fd5b506102c660d45481565b604051908152602001610265565b3480156102e057600080fd5b506102f46102ef366004612e88565b610829565b6040519015158152602001610265565b61028e610312366004612fc4565b610863565b34801561032357600080fd5b506102c660cb5481565b34801561033957600080fd5b5061028e610348366004613028565b61096f565b34801561035957600080fd5b5061028e610368366004612e88565b610b5e565b61028e61037b366004613093565b610c46565b34801561038c57600080fd5b5061028e61039b366004612fc4565b610da5565b3480156103ac57600080fd5b5061028e6103bb366004613093565b610fd2565b3480156103cc57600080fd5b5061028e6110eb565b61028e6103e33660046130fb565b611120565b3480156103f457600080fd5b506102f4610403366004612fc4565b6111ec565b34801561041457600080fd5b50610428610423366004612fc4565b61125a565b6040516102659190613253565b34801561044157600080fd5b506102c66112ef565b61028e610458366004613028565b6113a2565b34801561046957600080fd5b506104726115a9565b6040516102659190613266565b34801561048b57600080fd5b5061049f61049a3660046132b5565b61161c565b60405161026591906132e8565b3480156104b857600080fd5b5061028e6117f0565b3480156104cd57600080fd5b506102f46104dc366004612e88565b60cc6020526000908152604090205460ff1681565b3480156104fd57600080fd5b5061028e61050c366004613093565b611825565b34801561051d57600080fd5b5061028e61052c366004612fc4565b6118f0565b34801561053d57600080fd5b506097546001600160a01b03165b6040516001600160a01b039091168152602001610265565b34801561056f57600080fd5b5060c95461054b906001600160a01b031681565b34801561058f57600080fd5b506102f461059e36600461334a565b61196e565b3480156105af57600080fd5b5060ca5461054b906001600160a01b031681565b3480156105cf57600080fd5b506102c66107d981565b3480156105e557600080fd5b5061028e6105f43660046133ae565b611a06565b34801561060557600080fd5b5061028e610614366004612e88565b611a86565b34801561062557600080fd5b5061028e6106343660046133e7565b611bb8565b34801561064557600080fd5b5061028e610654366004612e88565b611c88565b34801561066557600080fd5b5061028e61067436600461345b565b611d28565b34801561068557600080fd5b5061028e61069436600461348a565b611efd565b3480156106a557600080fd5b506098546001600160a01b031661054b565b3480156106c357600080fd5b5061028e6106d2366004612fc4565b611fc7565b3480156106e357600080fd5b5061028e6106f23660046134cb565b612027565b6097546001600160a01b0316331461072257604051632e6c18c960e11b815260040160405180910390fd5b6001600160a01b03811661074957604051630ae8f22360e21b815260040160405180910390fd5b60ca80546001600160a01b0319166001600160a01b0383169081179091556040519081527f60749175aed7fe9643f249a737660ca032c41b2bd442a7644e077ad6b6ee3c93906020015b60405180910390a150565b60ca546001600160a01b031633146107c9576040516386b73b2d60e01b815260040160405180910390fd5b600082815260cf6020526040812054908190036107f9576040516302e8145360e61b815260040160405180910390fd5b815115610824576108248183600081518110610817576108176134e9565b6020026020010151612088565b505050565b72ffffffffffffffffffffffffffffffffffffff600882901c16600090815260cd6020526040812054600160ff84161b1615155b92915050565b600161086e81612113565b6107d98260c960009054906101000a90046001600160a01b03166001600160a01b031663a2309ff86040518163ffffffff1660e01b8152600401602060405180830381865afa1580156108c5573d6000803e3d6000fd5b505050506040513d601f19601f820116820180604052508101906108e991906134ff565b6108f3919061352e565b111561091257604051634fcd692360e01b815260040160405180910390fd5b8160000361093357604051635435b28960e11b815260040160405180910390fd5b8160d4546109419190613541565b34101561096157604051630eea093360e41b815260040160405180910390fd5b61096b33836121ae565b5050565b6097546001600160a01b0316331461099a57604051632e6c18c960e11b815260040160405180910390fd5b60005b83811015610a7857600160cc60008787858181106109bd576109bd6134e9565b90506020020160208101906109d29190612e88565b6001600160a01b031681526020810191909152604001600020805460ff1916911515919091179055848482818110610a0c57610a0c6134e9565b9050602002016020810190610a219190612e88565b6001600160a01b03167fc648f6265408cc54c0dc26d24ba51dfc9f35ce1a63baa2228f65d93aaf11cc676001604051610a5e911515815260200190565b60405180910390a280610a7081613558565b91505061099d565b5060005b81811015610b5757600060cc6000858585818110610a9c57610a9c6134e9565b9050602002016020810190610ab19190612e88565b6001600160a01b031681526020810191909152604001600020805460ff1916911515919091179055828282818110610aeb57610aeb6134e9565b9050602002016020810190610b009190612e88565b6001600160a01b03167fc648f6265408cc54c0dc26d24ba51dfc9f35ce1a63baa2228f65d93aaf11cc676000604051610b3d911515815260200190565b60405180910390a280610b4f81613558565b915050610a7c565b5050505050565b6001600160a01b037f0000000000000000000000000000000000000000000000000000000000000000163003610baf5760405162461bcd60e51b8152600401610ba690613571565b60405180910390fd5b7f00000000000000000000000000000000000000000000000000000000000000006001600160a01b0316610bf8600080516020613aed833981519152546001600160a01b031690565b6001600160a01b031614610c1e5760405162461bcd60e51b8152600401610ba6906135bd565b610c27816122c4565b60408051600080825260208201909252610c43918391906122ef565b50565b6000610c5181612113565b33600881901c600090815260cd6020526040902054600160ff9092169190911b1615610c9057604051631bbdf5c560e31b815260040160405180910390fd5b60c9546040805163144613ff60e31b815290516107d9926001600160a01b03169163a2309ff89160048083019260209291908290030181865afa158015610cdb573d6000803e3d6000fd5b505050506040513d601f19601f82011682018060405250810190610cff91906134ff565b10610d1d57604051634fcd692360e01b815260040160405180910390fd5b60d454341015610d4057604051630eea093360e41b815260040160405180910390fd5b6000610d4d84843361196e565b905080610d6d576040516309bde33960e01b815260040160405180910390fd5b610d783360016121ae565b33600881901c600090815260cd602052604090208054600160ff9093169290921b90911790555b50505050565b60c954604051634f558e7960e01b8152600481018390526001600160a01b0390911690634f558e7990602401602060405180830381865afa158015610dee573d6000803e3d6000fd5b505050506040513d601f19601f82011682018060405250810190610e129190613609565b610e2f5760405163c72ea0df60e01b815260040160405180910390fd5b610e39338261245a565b60c954604051630852cd8d60e31b8152600481018390526001600160a01b03909116906342966c6890602401600060405180830381600087803b158015610e7f57600080fd5b505af1158015610e93573d6000803e3d6000fd5b505060c954604051630219207560e61b8152600481018590526000935060d392506001600160a01b03909116906386481d4090602401602060405180830381865afa158015610ee6573d6000803e3d6000fd5b505050506040513d601f19601f82011682018060405250810190610f0a91906134ff565b81548110610f1a57610f1a6134e9565b600091825260209182902060408051808201909152600290920201805480835260019091015492820192909252915015610f7d578051604051339180156108fc02916000818181858888f19350505050158015610f7b573d6000803e3d6000fd5b505b80516020808301516040805133815292830186905282019290925260608101919091527f7147ecaba15988b82ec4faa5350185f0d0113e8803ef3bf7b5b84ae242458e92906080015b60405180910390a15050565b33600090815260cc602052604090205460ff166110025760405163143606b960e31b815260040160405180910390fd5b60005b81811015610824576000838383818110611021576110216134e9565b60209081029290920135600081815260d19093526040909220549192505060ff161561104d57506110d9565b60ca5460405163967b201760e01b81526001600482015261753060248201526000916001600160a01b03169063967b2017906044016020604051808303816000875af11580156110a1573d6000803e3d6000fd5b505050506040513d601f19601f820116820180604052508101906110c591906134ff565b600090815260cf6020526040902091909155505b806110e381613558565b915050611005565b6098546001600160a01b03163314611116576040516305e05b4b60e31b815260040160405180910390fd5b61111e6124f0565b565b6001600160a01b037f00000000000000000000000000000000000000000000000000000000000000001630036111685760405162461bcd60e51b8152600401610ba690613571565b7f00000000000000000000000000000000000000000000000000000000000000006001600160a01b03166111b1600080516020613aed833981519152546001600160a01b031690565b6001600160a01b0316146111d75760405162461bcd60e51b8152600401610ba6906135bd565b6111e0826122c4565b61096b828260016122ef565b60c954604051634f558e7960e01b8152600481018390526000916001600160a01b031690634f558e7990602401602060405180830381865afa158015611236573d6000803e3d6000fd5b505050506040513d601f19601f8201168201806040525081019061085d9190613609565b61127e60408051606080820190925290815260208101600081526020016000905290565b60c9546040516332665ffb60e01b8152600481018490526001600160a01b03909116906332665ffb90602401600060405180830381865afa1580156112c7573d6000803e3d6000fd5b505050506040513d6000823e601f3d908101601f1916820160405261085d919081019061364e565b6000306001600160a01b037f0000000000000000000000000000000000000000000000000000000000000000161461138f5760405162461bcd60e51b815260206004820152603860248201527f555550535570677261646561626c653a206d757374206e6f742062652063616c60448201527f6c6564207468726f7567682064656c656761746563616c6c00000000000000006064820152608401610ba6565b50600080516020613aed83398151915290565b6097546001600160a01b031633146113cd57604051632e6c18c960e11b815260040160405180910390fd5b8281146113ed57604051635435b28960e11b815260040160405180910390fd5b6000805b8281101561146a5783838281811061140b5761140b6134e9565b905060200201358261141d919061352e565b9150838382818110611431576114316134e9565b9050602002013560000361145857604051635435b28960e11b815260040160405180910390fd5b8061146281613558565b9150506113f1565b5060d4546114789082613541565b34101561149857604051630eea093360e41b815260040160405180910390fd5b6107d98160c960009054906101000a90046001600160a01b03166001600160a01b031663a2309ff86040518163ffffffff1660e01b8152600401602060405180830381865afa1580156114ef573d6000803e3d6000fd5b505050506040513d601f19601f8201168201806040525081019061151391906134ff565b61151d919061352e565b111561153c57604051634fcd692360e01b815260040160405180910390fd5b60005b848110156115a15761158f86868381811061155c5761155c6134e9565b90506020020160208101906115719190612e88565b858584818110611583576115836134e9565b905060200201356121ae565b8061159981613558565b91505061153f565b505050505050565b606060d3805480602002602001604051908101604052809291908181526020016000905b82821015611613578382906000526020600020906002020160405180604001604052908160008201548152602001600182015481525050815260200190600101906115cd565b50505050905090565b606060008361ffff166001600160401b0381111561163c5761163c612ea5565b60405190808252806020026020018201604052801561169157816020015b61167e60408051606080820190925290815260208101600081526020016000905290565b81526020019060019003908161165a5790505b509050825b8461ffff168110156117e857600081815260ce6020526040908190208151606081019092528054829082906116ca90613714565b80601f01602080910402602001604051908101604052809291908181526020018280546116f690613714565b80156117435780601f1061171857610100808354040283529160200191611743565b820191906000526020600020905b81548152906001019060200180831161172657829003601f168201915b5050509183525050600182015460209091019060ff16600481111561176a5761176a6131dd565b600481111561177b5761177b6131dd565b81526020016001820160019054906101000a900460ff1660018111156117a3576117a36131dd565b60018111156117b4576117b46131dd565b815250508282815181106117ca576117ca6134e9565b602002602001018190525080806117e090613558565b915050611696565b509392505050565b6097546001600160a01b0316331461181b57604051632e6c18c960e11b815260040160405180910390fd5b61111e6000612559565b6097546001600160a01b0316331461185057604051632e6c18c960e11b815260040160405180910390fd5b60005b818110156108245782828281811061186d5761186d6134e9565b905060200281019061187f919061374e565b60ca54600160a01b900461ffff16600090815260ce602052604090206118a58282613812565b505060ca8054600160a01b900461ffff169060146118c28361392b565b91906101000a81548161ffff021916908361ffff1602179055505080806118e890613558565b915050611853565b6097546001600160a01b0316331461191b57604051632e6c18c960e11b815260040160405180910390fd5b8061193957604051634f7e43e560e11b815260040160405180910390fd5b60cb8190556040518181527fee57e5823f2b1e5c86511f68be75ba1cda75fbacfbe570de45abd81e94e2cfd790602001610793565b604080516001600160a01b038316602082015260009182910160408051601f19818403018152828252805160209182012090830152016040516020818303038152906040528051906020012090506119fd8585808060200260200160405190810160405280939291908181526020018383602002808284376000920191909152505060cb5491508490506125cf565b95945050505050565b6097546001600160a01b03163314611a3157604051632e6c18c960e11b815260040160405180910390fd5b6001600160a01b038216611a5857604051633aafecb360e21b815260040160405180910390fd5b8015611a675761096b82612559565b609880546001600160a01b0319166001600160a01b0384161790555050565b600054610100900460ff1615808015611aa65750600054600160ff909116105b80611ac05750303b158015611ac0575060005460ff166001145b611b235760405162461bcd60e51b815260206004820152602e60248201527f496e697469616c697a61626c653a20636f6e747261637420697320616c72656160448201526d191e481a5b9a5d1a585b1a5e995960921b6064820152608401610ba6565b6000805460ff191660011790558015611b46576000805461ff0019166101001790555b6001600160a01b038216611b6d57604051636500287b60e11b815260040160405180910390fd5b611b76826125e7565b801561096b576000805461ff0019169055604051600181527f7f26b83ff96e1f2b6a682f133852f6798a09c465da95921460cefb384740249890602001610fc6565b6097546001600160a01b03163314611be357604051632e6c18c960e11b815260040160405180910390fd5b611bef60d36000612e38565b60005b81811015611c5757828282818110611c0c57611c0c6134e9565b90506040020160d38281548110611c2557611c256134e9565b600091825260209182902083356002929092020190815591013560019091015580611c4f81613558565b915050611bf2565b507f7e34f171313498c5ca313160f77e792e08bdb04b3beecfc12461579eb1fab3a960d3604051610fc6919061394c565b6097546001600160a01b03163314611cb357604051632e6c18c960e11b815260040160405180910390fd5b6001600160a01b038116611cda57604051630ae8f22360e21b815260040160405180910390fd5b60c980546001600160a01b0319166001600160a01b0383169081179091556040519081527f1f26a402d31b19e7f51c0d12f232a4d64db0619b5332f1a45abd25fbe05dc8e090602001610793565b611d32338361245a565b611d3c338261245a565b6000611d488383612617565b905080611d68576040516333910aef60e11b815260040160405180910390fd5b60c954604051630852cd8d60e31b8152600481018590526001600160a01b03909116906342966c6890602401600060405180830381600087803b158015611dae57600080fd5b505af1158015611dc2573d6000803e3d6000fd5b505060c954604051630852cd8d60e31b8152600481018690526001600160a01b0390911692506342966c689150602401600060405180830381600087803b158015611e0c57600080fd5b505af1158015611e20573d6000803e3d6000fd5b50505050600060c960009054906101000a90046001600160a01b03166001600160a01b03166375794a3c6040518163ffffffff1660e01b8152600401602060405180830381865afa158015611e79573d6000803e3d6000fd5b505050506040513d601f19601f82011682018060405250810190611e9d91906134ff565b9050611eaa3360016121ae565b611eb4818261275c565b604080518581526020810185905290810182905233907f8f344e6736e186a058023676aee136a6cff473ba5fbb0bf99377d0696ea7e8e89060600160405180910390a250505050565b6097546001600160a01b03163314611f2857604051632e6c18c960e11b815260040160405180910390fd5b6020810135813510611f4d57604051635435b28960e11b815260040160405180910390fd5b8060d26000846001811115611f6457611f646131dd565b6001811115611f7557611f756131dd565b8152602080820192909252604001600020823581559082013560018201559050507ff432642d4ff1b5258f469bdbc5c148c5d3001cd0f8f6ea006fe6be38e05fb05a8282604051610fc6929190613996565b6097546001600160a01b03163314611ff257604051632e6c18c960e11b815260040160405180910390fd5b60d48190556040518181527f97aee230ba41961438e908e115df76fa8113f85a0586d85b19ba5be50e6a227490602001610793565b6097546001600160a01b0316331461205257604051632e6c18c960e11b815260040160405180910390fd5b6040516001600160a01b0383169082156108fc029083906000818181858888f19350505050158015610824573d6000803e3d6000fd5b8060006120976107d9836139d4565b600081815260d0602052604090205490915060ff165b8080156120ba5750600083115b156120f5576120cb6103e8846139e8565b92506120d96107d9846139d4565b600081815260d0602052604090205490925060ff1690506120ad565b801561210957612104856127e1565b610b57565b610b578583612811565b60d26000826001811115612129576121296131dd565b600181111561213a5761213a6131dd565b815260200190815260200160002060000154421080612190575060d2600082600181111561216a5761216a6131dd565b600181111561217b5761217b6131dd565b81526020019081526020016000206001015442115b15610c435760405163917ad38160e01b815260040160405180910390fd5b60c95460408051631d5e528f60e21b815290516000926001600160a01b0316916375794a3c9160048083019260209291908290030181865afa1580156121f8573d6000803e3d6000fd5b505050506040513d601f19601f8201168201806040525081019061221c91906134ff565b60c9546040516340c10f1960e01b81526001600160a01b038681166004830152602482018690529293509116906340c10f1990604401600060405180830381600087803b15801561226c57600080fd5b505af1158015612280573d6000803e3d6000fd5b505060408051858152602081018590523393507f25b428dfde728ccfaddad7e29e4ac23c24ed7fd1a6e3e3f91894a9a073f5dfff92500160405180910390a2505050565b6097546001600160a01b03163314610c4357604051632e6c18c960e11b815260040160405180910390fd5b7f4910fdfa16fed3260ed0e7147f7cc6da11a60208b5b9406d12a635614ffd91435460ff16156123225761082483612a03565b826001600160a01b03166352d1902d6040518163ffffffff1660e01b8152600401602060405180830381865afa92505050801561237c575060408051601f3d908101601f19168201909252612379918101906134ff565b60015b6123df5760405162461bcd60e51b815260206004820152602e60248201527f45524331393637557067726164653a206e657720696d706c656d656e7461746960448201526d6f6e206973206e6f74205555505360901b6064820152608401610ba6565b600080516020613aed833981519152811461244e5760405162461bcd60e51b815260206004820152602960248201527f45524331393637557067726164653a20756e737570706f727465642070726f786044820152681a58589b195555525160ba1b6064820152608401610ba6565b50610824838383612a9f565b60c9546040516331a9108f60e11b8152600481018390526001600160a01b03848116921690636352211e90602401602060405180830381865afa1580156124a5573d6000803e3d6000fd5b505050506040513d601f19601f820116820180604052508101906124c991906139fc565b6001600160a01b03161461096b576040516359dc379f60e01b815260040160405180910390fd5b6097546098546040516001600160a01b03928316929091169082907f8be0079c531659141344cd1fd0a4f28419497f9722a3daafe3b4186f6b6457e090600090a35060988054609780546001600160a01b03199081166001600160a01b03841617909155169055565b7fb53127684a568b3173ae13b9f8a6016e243e63b6e8ee1178d6a717850b5d6103819055609780546001600160a01b038084166001600160a01b0319831681179093556040519116919082907f8be0079c531659141344cd1fd0a4f28419497f9722a3daafe3b4186f6b6457e090600090a35050565b6000826125dc8584612ac4565b1490505b9392505050565b600054610100900460ff1661260e5760405162461bcd60e51b8152600401610ba690613a19565b610c4381612b09565b60c9546040516332665ffb60e01b81526004810184905260009182916001600160a01b03909116906332665ffb90602401600060405180830381865afa158015612665573d6000803e3d6000fd5b505050506040513d6000823e601f3d908101601f1916820160405261268d919081019061364e565b60c9546040516332665ffb60e01b8152600481018690529192506000916001600160a01b03909116906332665ffb90602401600060405180830381865afa1580156126dc573d6000803e3d6000fd5b505050506040513d6000823e601f3d908101601f19168201604052612704919081019061364e565b90508060000151805190602001208260000151805190602001201480156119fd57508060400151600181111561273c5761273c6131dd565b82604001516001811115612752576127526131dd565b1495945050505050565b60c9546001600160a01b031663162094c48361277784612b39565b6040516020016127879190613a64565b6040516020818303038152906040526040518363ffffffff1660e01b81526004016127b3929190613a8d565b600060405180830381600087803b1580156127cd57600080fd5b505af11580156115a1573d6000803e3d6000fd5b6040518181527fc7daf6256dbe9cb6d154799db0d394c74128c2d4a91dbd7d45354036ae95629690602001610793565b600081815260ce602052604080822081516060810190925280548290829061283890613714565b80601f016020809104026020016040519081016040528092919081815260200182805461286490613714565b80156128b15780601f10612886576101008083540402835291602001916128b1565b820191906000526020600020905b81548152906001019060200180831161289457829003601f168201915b5050509183525050600182015460209091019060ff1660048111156128d8576128d86131dd565b60048111156128e9576128e96131dd565b81526020016001820160019054906101000a900460ff166001811115612911576129116131dd565b6001811115612922576129226131dd565b90525060c954604051633a9d7c0160e11b81529192506001600160a01b03169063753af802906129589086908590600401613aae565b600060405180830381600087803b15801561297257600080fd5b505af1158015612986573d6000803e3d6000fd5b50505050612994838361275c565b600083815260d1602090815260408083208054600160ff19918216811790925586855260d084529382902080549094161790925581518581529081018490527feb63d1e1aa21e40b86d68d61802506501ad3e37ee74db75be45ddd033f033c65910160405180910390a1505050565b6001600160a01b0381163b612a705760405162461bcd60e51b815260206004820152602d60248201527f455243313936373a206e657720696d706c656d656e746174696f6e206973206e60448201526c1bdd08184818dbdb9d1c9858dd609a1b6064820152608401610ba6565b600080516020613aed83398151915280546001600160a01b0319166001600160a01b0392909216919091179055565b612aa883612bcb565b600082511180612ab55750805b1561082457610d9f8383612c0b565b600081815b84518110156117e857612af582868381518110612ae857612ae86134e9565b6020026020010151612cf6565b915080612b0181613558565b915050612ac9565b600054610100900460ff16612b305760405162461bcd60e51b8152600401610ba690613a19565b610c4381612559565b60606000612b4683612d22565b60010190506000816001600160401b03811115612b6557612b65612ea5565b6040519080825280601f01601f191660200182016040528015612b8f576020820181803683370190505b5090508181016020015b600019016f181899199a1a9b1b9c1cb0b131b232b360811b600a86061a8153600a8504945084612b9957509392505050565b612bd481612a03565b6040516001600160a01b038216907fbc7cd75a20ee27fd9adebab32041f755214dbc6bffa90cc0225b39da2e5c2d3b90600090a250565b60606001600160a01b0383163b612c735760405162461bcd60e51b815260206004820152602660248201527f416464726573733a2064656c65676174652063616c6c20746f206e6f6e2d636f6044820152651b9d1c9858dd60d21b6064820152608401610ba6565b600080846001600160a01b031684604051612c8e9190613ac7565b600060405180830381855af49150503d8060008114612cc9576040519150601f19603f3d011682016040523d82523d6000602084013e612cce565b606091505b50915091506119fd8282604051806060016040528060278152602001613b0d60279139612dfa565b6000818310612d125760008281526020849052604090206125e0565b5060009182526020526040902090565b60008072184f03e93ff9f4daa797ed6e38ed64bf6a1f0160401b8310612d615772184f03e93ff9f4daa797ed6e38ed64bf6a1f0160401b830492506040015b6d04ee2d6d415b85acef81000000008310612d8d576d04ee2d6d415b85acef8100000000830492506020015b662386f26fc100008310612dab57662386f26fc10000830492506010015b6305f5e1008310612dc3576305f5e100830492506008015b6127108310612dd757612710830492506004015b60648310612de9576064830492506002015b600a831061085d5760010192915050565b60608315612e095750816125e0565b6125e08383815115612e1e5781518083602001fd5b8060405162461bcd60e51b8152600401610ba69190613ad9565b5080546000825560020290600052602060002090810190610c4391905b80821115612e6f5760008082556001820155600201612e55565b5090565b6001600160a01b0381168114610c4357600080fd5b600060208284031215612e9a57600080fd5b81356125e081612e73565b634e487b7160e01b600052604160045260246000fd5b604051606081016001600160401b0381118282101715612edd57612edd612ea5565b60405290565b604051601f8201601f191681016001600160401b0381118282101715612f0b57612f0b612ea5565b604052919050565b60008060408385031215612f2657600080fd5b823591506020808401356001600160401b0380821115612f4557600080fd5b818601915086601f830112612f5957600080fd5b813581811115612f6b57612f6b612ea5565b8060051b9150612f7c848301612ee3565b8181529183018401918481019089841115612f9657600080fd5b938501935b83851015612fb457843582529385019390850190612f9b565b8096505050505050509250929050565b600060208284031215612fd657600080fd5b5035919050565b60008083601f840112612fef57600080fd5b5081356001600160401b0381111561300657600080fd5b6020830191508360208260051b850101111561302157600080fd5b9250929050565b6000806000806040858703121561303e57600080fd5b84356001600160401b038082111561305557600080fd5b61306188838901612fdd565b9096509450602087013591508082111561307a57600080fd5b5061308787828801612fdd565b95989497509550505050565b600080602083850312156130a657600080fd5b82356001600160401b038111156130bc57600080fd5b6130c885828601612fdd565b90969095509350505050565b60006001600160401b038211156130ed576130ed612ea5565b50601f01601f191660200190565b6000806040838503121561310e57600080fd5b823561311981612e73565b915060208301356001600160401b0381111561313457600080fd5b8301601f8101851361314557600080fd5b8035613158613153826130d4565b612ee3565b81815286602083850101111561316d57600080fd5b816020840160208301376000602083830101528093505050509250929050565b60005b838110156131a8578181015183820152602001613190565b50506000910152565b600081518084526131c981602086016020860161318d565b601f01601f19169290920160200192915050565b634e487b7160e01b600052602160045260246000fd5b60028110610c4357610c436131dd565b600081516060845261321860608501826131b1565b905060208301516005811061322f5761322f6131dd565b60208501526040830151613242816131f3565b806040860152508091505092915050565b6020815260006125e06020830184613203565b602080825282518282018190526000919060409081850190868401855b828110156132a857815180518552860151868501529284019290850190600101613283565b5091979650505050505050565b600080604083850312156132c857600080fd5b823561ffff811681146132da57600080fd5b946020939093013593505050565b6000602080830181845280855180835260408601915060408160051b870101925083870160005b8281101561333d57603f1988860301845261332b858351613203565b9450928501929085019060010161330f565b5092979650505050505050565b60008060006040848603121561335f57600080fd5b83356001600160401b0381111561337557600080fd5b61338186828701612fdd565b909450925050602084013561339581612e73565b809150509250925092565b8015158114610c4357600080fd5b600080604083850312156133c157600080fd5b82356133cc81612e73565b915060208301356133dc816133a0565b809150509250929050565b600080602083850312156133fa57600080fd5b82356001600160401b038082111561341157600080fd5b818501915085601f83011261342557600080fd5b81358181111561343457600080fd5b8660208260061b850101111561344957600080fd5b60209290920196919550909350505050565b6000806040838503121561346e57600080fd5b50508035926020909101359150565b60028110610c4357600080fd5b600080828403606081121561349e57600080fd5b83356134a98161347d565b92506040601f19820112156134bd57600080fd5b506020830190509250929050565b600080604083850312156134de57600080fd5b82356132da81612e73565b634e487b7160e01b600052603260045260246000fd5b60006020828403121561351157600080fd5b5051919050565b634e487b7160e01b600052601160045260246000fd5b8082018082111561085d5761085d613518565b808202811582820484141761085d5761085d613518565b60006001820161356a5761356a613518565b5060010190565b6020808252602c908201527f46756e6374696f6e206d7573742062652063616c6c6564207468726f7567682060408201526b19195b1959d85d1958d85b1b60a21b606082015260800190565b6020808252602c908201527f46756e6374696f6e206d7573742062652063616c6c6564207468726f7567682060408201526b6163746976652070726f787960a01b606082015260800190565b60006020828403121561361b57600080fd5b81516125e0816133a0565b60058110610c4357600080fd5b805161363e81613626565b919050565b805161363e8161347d565b6000602080838503121561366157600080fd5b82516001600160401b038082111561367857600080fd5b908401906060828703121561368c57600080fd5b613694612ebb565b8251828111156136a357600080fd5b83019150601f820187136136b657600080fd5b81516136c4613153826130d4565b81815288868386010111156136d857600080fd5b6136e78287830188870161318d565b8252506136f5838501613633565b8482015261370560408401613643565b60408201529695505050505050565b600181811c9082168061372857607f821691505b60208210810361374857634e487b7160e01b600052602260045260246000fd5b50919050565b60008235605e1983360301811261376457600080fd5b9190910192915050565b601f82111561082457600081815260208120601f850160051c810160208610156137955750805b601f850160051c820191505b818110156115a1578281556001016137a1565b6000813561085d81613626565b600582106137d1576137d16131dd565b60ff1981541660ff831681178255505050565b6000813561085d8161347d565b6137fa826131f3565b805461ff008360081b1661ff00198216178255505050565b8135601e1983360301811261382657600080fd5b820180356001600160401b0381111561383e57600080fd5b6020813603818401131561385157600080fd5b6138658261385f8654613714565b8661376e565b6000601f83116001811461389b576000841561388357508482018301355b600019600386901b1c1916600185901b1786556138f8565b600086815260209020601f19851690835b828110156138cd5787850186013582559385019360019091019085016138ac565b50858210156138ec5760001960f88760031b161c198585890101351681555b505060018460011b0186555b505060018401925061391461390e8287016137b4565b846137c1565b5050610824613925604085016137e4565b826137f1565b600061ffff80831681810361394257613942613518565b6001019392505050565b60006020808301818452808554808352604092508286019150866000528360002060005b828110156132a85781548452600180830154878601529385019360029092019101613970565b606081016139a3846131f3565b83825282356020830152602083013560408301529392505050565b634e487b7160e01b600052601260045260246000fd5b6000826139e3576139e36139be565b500690565b6000826139f7576139f76139be565b500490565b600060208284031215613a0e57600080fd5b81516125e081612e73565b6020808252602b908201527f496e697469616c697a61626c653a20636f6e7472616374206973206e6f74206960408201526a6e697469616c697a696e6760a81b606082015260800190565b60008251613a7681846020870161318d565b64173539b7b760d91b920191825250600501919050565b828152604060208201526000613aa660408301846131b1565b949350505050565b828152604060208201526000613aa66040830184613203565b6000825161376481846020870161318d565b6020815260006125e060208301846131b156fe360894a13ba1a3210667c828492db98dca3e2076cc3735a920a3ca505d382bbc416464726573733a206c6f772d6c6576656c2064656c65676174652063616c6c206661696c6564a264697066735822122028b202aad0f3eaef9a223b6ad50db62152031c6e4b255e60498d0f9aaf1ffbc364736f6c63430008110033",
  "devdoc": {
    "kind": "dev",
    "methods": {
      "airdrop(address[],uint256[])": {
        "details": "signer mint and airdrop NFT to receivers"
      },
      "claimOwnership()": {
        "details": "pending owner call this function to claim ownership"
      },
      "fulfillRandomWordsCallback(uint256,uint256[])": {
        "details": "chainlink vrf proxy callback request randomWords",
        "params": {
          "randomWords": "return randomWords of requestId",
          "requestId": "requestId generage when request randomWords"
        }
      },
      "openMysteryBox(uint256[])": {
        "details": "bind tokenId and metadata"
      },
      "owner()": {
        "details": "Returns the address of the current owner."
      },
      "pendingOwner()": {
        "details": "Return the address of the pending owner"
      },
      "proxiableUUID()": {
        "details": "Implementation of the ERC1822 {proxiableUUID} function. This returns the storage slot used by the implementation. It is used to validate the implementation's compatibility when performing an upgrade. IMPORTANT: A proxy pointing at a proxiable contract should not be considered proxiable itself, because this risks bricking a proxy that upgrades to it, by delegating to itself until out of gas. Thus it is critical that this function revert if invoked through a proxy. This is guaranteed by the `notDelegated` modifier."
      },
      "publicMint(uint256)": {
        "params": {
          "quantity": "quantities want to mint"
        }
      },
      "renounceOwnership()": {
        "details": "Leaves the contract without owner. It will not be possible to call `onlyOwner` functions anymore. Can only be called by the current owner. NOTE: Renouncing ownership will leave the contract without an owner, thereby removing any functionality that is only available to the owner."
      },
      "setMetadatas((string,uint8,uint8)[])": {
        "details": "set id=>metadata map latestMetadata is useed for compatible sence with multiple times to setting"
      },
      "transferOwnership(address,bool)": {
        "details": "Transfers ownership of the contract to a new account (`newOwner`). Can only be called by the current owner. Note If direct is false, it will set an pending owner and the OwnerShipTransferring only happens when the pending owner claim the ownership"
      },
      "upgradeTo(address)": {
        "details": "Upgrade the implementation of the proxy to `newImplementation`. Calls {_authorizeUpgrade}. Emits an {Upgraded} event."
      },
      "upgradeToAndCall(address,bytes)": {
        "details": "Upgrade the implementation of the proxy to `newImplementation`, and subsequently execute the function call encoded in `data`. Calls {_authorizeUpgrade}. Emits an {Upgraded} event."
      },
      "whitelistMint(bytes32[])": {
        "details": "users in whitelist can mint mystery box"
      }
    },
    "version": 1
  },
  "userdoc": {
    "kind": "user",
    "methods": {
      "publicMint(uint256)": {
        "notice": "public mint"
      }
    },
    "version": 1
  },
  "storageLayout": {
    "storage": [
      {
        "astId": 937,
        "contract": "src/nft/NFTManager.sol:NFTManager",
        "label": "_initialized",
        "offset": 0,
        "slot": "0",
        "type": "t_uint8"
      },
      {
        "astId": 940,
        "contract": "src/nft/NFTManager.sol:NFTManager",
        "label": "_initializing",
        "offset": 1,
        "slot": "0",
        "type": "t_bool"
      },
      {
        "astId": 919,
        "contract": "src/nft/NFTManager.sol:NFTManager",
        "label": "__gap",
        "offset": 0,
        "slot": "1",
        "type": "t_array(t_uint256)50_storage"
      },
      {
        "astId": 1234,
        "contract": "src/nft/NFTManager.sol:NFTManager",
        "label": "__gap",
        "offset": 0,
        "slot": "51",
        "type": "t_array(t_uint256)50_storage"
      },
      {
        "astId": 3984,
        "contract": "src/nft/NFTManager.sol:NFTManager",
        "label": "__gap",
        "offset": 0,
        "slot": "101",
        "type": "t_array(t_uint256)50_storage"
      },
      {
        "astId": 9101,
        "contract": "src/nft/NFTManager.sol:NFTManager",
        "label": "_owner",
        "offset": 0,
        "slot": "151",
        "type": "t_address"
      },
      {
        "astId": 9103,
        "contract": "src/nft/NFTManager.sol:NFTManager",
        "label": "_pendingOwner",
        "offset": 0,
        "slot": "152",
        "type": "t_address"
      },
      {
        "astId": 9294,
        "contract": "src/nft/NFTManager.sol:NFTManager",
        "label": "__gap",
        "offset": 0,
        "slot": "153",
        "type": "t_array(t_uint256)48_storage"
      },
      {
        "astId": 22056,
        "contract": "src/nft/NFTManager.sol:NFTManager",
        "label": "degenNFT",
        "offset": 0,
        "slot": "201",
        "type": "t_contract(IDegenNFT)16249"
      },
      {
        "astId": 22058,
        "contract": "src/nft/NFTManager.sol:NFTManager",
        "label": "chainlinkVRFProxy",
        "offset": 0,
        "slot": "202",
        "type": "t_address"
      },
      {
        "astId": 22060,
        "contract": "src/nft/NFTManager.sol:NFTManager",
        "label": "latestMetadataIdx",
        "offset": 20,
        "slot": "202",
        "type": "t_uint16"
      },
      {
        "astId": 22062,
        "contract": "src/nft/NFTManager.sol:NFTManager",
        "label": "merkleRoot",
        "offset": 0,
        "slot": "203",
        "type": "t_bytes32"
      },
      {
        "astId": 22066,
        "contract": "src/nft/NFTManager.sol:NFTManager",
        "label": "signers",
        "offset": 0,
        "slot": "204",
        "type": "t_mapping(t_address,t_bool)"
      },
      {
        "astId": 22069,
        "contract": "src/nft/NFTManager.sol:NFTManager",
        "label": "hasMinted",
        "offset": 0,
        "slot": "205",
        "type": "t_struct(BitMap)6236_storage"
      },
      {
        "astId": 22074,
        "contract": "src/nft/NFTManager.sol:NFTManager",
        "label": "metadatas",
        "offset": 0,
        "slot": "206",
        "type": "t_mapping(t_uint256,t_struct(Property)16157_storage)"
      },
      {
        "astId": 22078,
        "contract": "src/nft/NFTManager.sol:NFTManager",
        "label": "requestIdToTokenId",
        "offset": 0,
        "slot": "207",
        "type": "t_mapping(t_uint256,t_uint256)"
      },
      {
        "astId": 22082,
        "contract": "src/nft/NFTManager.sol:NFTManager",
        "label": "metadataUsed",
        "offset": 0,
        "slot": "208",
        "type": "t_mapping(t_uint256,t_bool)"
      },
      {
        "astId": 22086,
        "contract": "src/nft/NFTManager.sol:NFTManager",
        "label": "opened",
        "offset": 0,
        "slot": "209",
        "type": "t_mapping(t_uint256,t_bool)"
      },
      {
        "astId": 22092,
        "contract": "src/nft/NFTManager.sol:NFTManager",
        "label": "mintTime",
        "offset": 0,
        "slot": "210",
        "type": "t_mapping(t_enum(MintType)16254,t_struct(MintTime)16259_storage)"
      },
      {
        "astId": 22096,
        "contract": "src/nft/NFTManager.sol:NFTManager",
        "label": "burnRefundConfigs",
        "offset": 0,
        "slot": "211",
        "type": "t_array(t_struct(BurnRefundConfig)16264_storage)dyn_storage"
      },
      {
        "astId": 22098,
        "contract": "src/nft/NFTManager.sol:NFTManager",
        "label": "mintFee",
        "offset": 0,
        "slot": "212",
        "type": "t_uint256"
      },
      {
        "astId": 22101,
        "contract": "src/nft/NFTManager.sol:NFTManager",
        "label": "openFailedBoxs",
        "offset": 0,
        "slot": "213",
        "type": "t_array(t_uint256)dyn_storage"
      },
      {
        "astId": 22105,
        "contract": "src/nft/NFTManager.sol:NFTManager",
        "label": "_gap",
        "offset": 0,
        "slot": "214",
        "type": "t_array(t_uint256)48_storage"
      }
    ],
    "types": {
      "t_address": {
        "encoding": "inplace",
        "label": "address",
        "numberOfBytes": "20"
      },
      "t_array(t_struct(BurnRefundConfig)16264_storage)dyn_storage": {
        "base": "t_struct(BurnRefundConfig)16264_storage",
        "encoding": "dynamic_array",
        "label": "struct INFTManagerDefination.BurnRefundConfig[]",
        "numberOfBytes": "32"
      },
      "t_array(t_uint256)48_storage": {
        "base": "t_uint256",
        "encoding": "inplace",
        "label": "uint256[48]",
        "numberOfBytes": "1536"
      },
      "t_array(t_uint256)50_storage": {
        "base": "t_uint256",
        "encoding": "inplace",
        "label": "uint256[50]",
        "numberOfBytes": "1600"
      },
      "t_array(t_uint256)dyn_storage": {
        "base": "t_uint256",
        "encoding": "dynamic_array",
        "label": "uint256[]",
        "numberOfBytes": "32"
      },
      "t_bool": {
        "encoding": "inplace",
        "label": "bool",
        "numberOfBytes": "1"
      },
      "t_bytes32": {
        "encoding": "inplace",
        "label": "bytes32",
        "numberOfBytes": "32"
      },
      "t_contract(IDegenNFT)16249": {
        "encoding": "inplace",
        "label": "contract IDegenNFT",
        "numberOfBytes": "20"
      },
      "t_enum(MintType)16254": {
        "encoding": "inplace",
        "label": "enum INFTManagerDefination.MintType",
        "numberOfBytes": "1"
      },
      "t_enum(Rarity)16145": {
        "encoding": "inplace",
        "label": "enum IDegenNFTDefination.Rarity",
        "numberOfBytes": "1"
      },
      "t_enum(TokenType)16148": {
        "encoding": "inplace",
        "label": "enum IDegenNFTDefination.TokenType",
        "numberOfBytes": "1"
      },
      "t_mapping(t_address,t_bool)": {
        "encoding": "mapping",
        "key": "t_address",
        "label": "mapping(address => bool)",
        "numberOfBytes": "32",
        "value": "t_bool"
      },
      "t_mapping(t_enum(MintType)16254,t_struct(MintTime)16259_storage)": {
        "encoding": "mapping",
        "key": "t_enum(MintType)16254",
        "label": "mapping(enum INFTManagerDefination.MintType => struct INFTManagerDefination.MintTime)",
        "numberOfBytes": "32",
        "value": "t_struct(MintTime)16259_storage"
      },
      "t_mapping(t_uint256,t_bool)": {
        "encoding": "mapping",
        "key": "t_uint256",
        "label": "mapping(uint256 => bool)",
        "numberOfBytes": "32",
        "value": "t_bool"
      },
      "t_mapping(t_uint256,t_struct(Property)16157_storage)": {
        "encoding": "mapping",
        "key": "t_uint256",
        "label": "mapping(uint256 => struct IDegenNFTDefination.Property)",
        "numberOfBytes": "32",
        "value": "t_struct(Property)16157_storage"
      },
      "t_mapping(t_uint256,t_uint256)": {
        "encoding": "mapping",
        "key": "t_uint256",
        "label": "mapping(uint256 => uint256)",
        "numberOfBytes": "32",
        "value": "t_uint256"
      },
      "t_string_storage": {
        "encoding": "bytes",
        "label": "string",
        "numberOfBytes": "32"
      },
      "t_struct(BitMap)6236_storage": {
        "encoding": "inplace",
        "label": "struct BitMapsUpgradeable.BitMap",
        "members": [
          {
            "astId": 6235,
            "contract": "src/nft/NFTManager.sol:NFTManager",
            "label": "_data",
            "offset": 0,
            "slot": "0",
            "type": "t_mapping(t_uint256,t_uint256)"
          }
        ],
        "numberOfBytes": "32"
      },
      "t_struct(BurnRefundConfig)16264_storage": {
        "encoding": "inplace",
        "label": "struct INFTManagerDefination.BurnRefundConfig",
        "members": [
          {
            "astId": 16261,
            "contract": "src/nft/NFTManager.sol:NFTManager",
            "label": "nativeToken",
            "offset": 0,
            "slot": "0",
            "type": "t_uint256"
          },
          {
            "astId": 16263,
            "contract": "src/nft/NFTManager.sol:NFTManager",
            "label": "rebornToken",
            "offset": 0,
            "slot": "1",
            "type": "t_uint256"
          }
        ],
        "numberOfBytes": "64"
      },
      "t_struct(MintTime)16259_storage": {
        "encoding": "inplace",
        "label": "struct INFTManagerDefination.MintTime",
        "members": [
          {
            "astId": 16256,
            "contract": "src/nft/NFTManager.sol:NFTManager",
            "label": "startTime",
            "offset": 0,
            "slot": "0",
            "type": "t_uint256"
          },
          {
            "astId": 16258,
            "contract": "src/nft/NFTManager.sol:NFTManager",
            "label": "endTime",
            "offset": 0,
            "slot": "1",
            "type": "t_uint256"
          }
        ],
        "numberOfBytes": "64"
      },
      "t_struct(Property)16157_storage": {
        "encoding": "inplace",
        "label": "struct IDegenNFTDefination.Property",
        "members": [
          {
            "astId": 16150,
            "contract": "src/nft/NFTManager.sol:NFTManager",
            "label": "name",
            "offset": 0,
            "slot": "0",
            "type": "t_string_storage"
          },
          {
            "astId": 16153,
            "contract": "src/nft/NFTManager.sol:NFTManager",
            "label": "rarity",
            "offset": 0,
            "slot": "1",
            "type": "t_enum(Rarity)16145"
          },
          {
            "astId": 16156,
            "contract": "src/nft/NFTManager.sol:NFTManager",
            "label": "tokenType",
            "offset": 1,
            "slot": "1",
            "type": "t_enum(TokenType)16148"
          }
        ],
        "numberOfBytes": "64"
      },
      "t_uint16": {
        "encoding": "inplace",
        "label": "uint16",
        "numberOfBytes": "2"
      },
      "t_uint256": {
        "encoding": "inplace",
        "label": "uint256",
        "numberOfBytes": "32"
      },
      "t_uint8": {
        "encoding": "inplace",
        "label": "uint8",
        "numberOfBytes": "1"
      }
    }
  }
}