{
  "address": "0xfC2f60765304591E9d31752CF245508e3B1a5DeC",
  "abi": [
    {
      "inputs": [],
      "name": "ApproveFromNonZeroToNonZeroAllowance",
      "type": "error"
    },
    {
      "inputs": [],
      "name": "ApproveFromZeroAddress",
      "type": "error"
    },
    {
      "inputs": [],
      "name": "ApproveToCaller",
      "type": "error"
    },
    {
      "inputs": [],
      "name": "ApproveToCurrentOwner",
      "type": "error"
    },
    {
      "inputs": [],
      "name": "ApproveToZeroAddress",
      "type": "error"
    },
    {
      "inputs": [],
      "name": "BeaconImplementationIsNotContract",
      "type": "error"
    },
    {
      "inputs": [],
      "name": "BurnAmountExceedsBalance",
      "type": "error"
    },
    {
      "inputs": [],
      "name": "BurnFromZeroAddress",
      "type": "error"
    },
    {
      "inputs": [],
      "name": "CallerNotOwner",
      "type": "error"
    },
    {
      "inputs": [],
      "name": "CallerNotPendingOwner",
      "type": "error"
    },
    {
      "inputs": [],
      "name": "CallerNotPortal",
      "type": "error"
    },
    {
      "inputs": [],
      "name": "CallerNotTokenOwnerOrApproved",
      "type": "error"
    },
    {
      "inputs": [],
      "name": "ContractAlreadyInitialized",
      "type": "error"
    },
    {
      "inputs": [],
      "name": "ContractIsInitializing",
      "type": "error"
    },
    {
      "inputs": [],
      "name": "ContractIsNotInitializing",
      "type": "error"
    },
    {
      "inputs": [],
      "name": "DecreasedAllowanceBelowZero",
      "type": "error"
    },
    {
      "inputs": [],
      "name": "DelegateCallToNonContract",
      "type": "error"
    },
    {
      "inputs": [],
      "name": "ERC20OperationDidNotSucceed",
      "type": "error"
    },
    {
      "inputs": [],
      "name": "InsufficientAllowance",
      "type": "error"
    },
    {
      "inputs": [],
      "name": "InvalidRoundInfo",
      "type": "error"
    },
    {
      "inputs": [],
      "name": "InvalidSeason",
      "type": "error"
    },
    {
      "inputs": [],
      "name": "InvalidSignature",
      "type": "error"
    },
    {
      "inputs": [],
      "name": "InvalidSignatureLength",
      "type": "error"
    },
    {
      "inputs": [],
      "name": "InvalidSignatureSValue",
      "type": "error"
    },
    {
      "inputs": [],
      "name": "InvalidTokenID",
      "type": "error"
    },
    {
      "inputs": [],
      "name": "MintToZeroAddress",
      "type": "error"
    },
    {
      "inputs": [],
      "name": "MustBeCalledThroughActiveProxy",
      "type": "error"
    },
    {
      "inputs": [],
      "name": "MustBeCalledThroughDelegatecall",
      "type": "error"
    },
    {
      "inputs": [],
      "name": "NewAdminIsZeroAddress",
      "type": "error"
    },
    {
      "inputs": [],
      "name": "NewBeaconIsNotContract",
      "type": "error"
    },
    {
      "inputs": [],
      "name": "NewImplementationIsNotContract",
      "type": "error"
    },
    {
      "inputs": [],
      "name": "NewImplementationIsNotUUPS",
      "type": "error"
    },
    {
      "inputs": [],
      "name": "PausableNotPaused",
      "type": "error"
    },
    {
      "inputs": [],
      "name": "PausablePaused",
      "type": "error"
    },
    {
      "inputs": [],
      "name": "PermitDidNotSucceed",
      "type": "error"
    },
    {
      "inputs": [],
      "name": "ReentrantCall",
      "type": "error"
    },
    {
      "inputs": [],
      "name": "SeasonOver",
      "type": "error"
    },
    {
      "inputs": [],
      "name": "TokenAlreadyMinted",
      "type": "error"
    },
    {
      "inputs": [],
      "name": "TransferAmountExceedsBalance",
      "type": "error"
    },
    {
      "inputs": [],
      "name": "TransferFromIncorrectOwner",
      "type": "error"
    },
    {
      "inputs": [],
      "name": "TransferFromZeroAddress",
      "type": "error"
    },
    {
      "inputs": [],
      "name": "TransferToNonERC721ReceiverImplementer",
      "type": "error"
    },
    {
      "inputs": [],
      "name": "TransferToZeroAddress",
      "type": "error"
    },
    {
      "inputs": [],
      "name": "UnsupportedProxiableUUID",
      "type": "error"
    },
    {
      "inputs": [],
      "name": "ZeroAddressOwnerSet",
      "type": "error"
    },
    {
      "inputs": [],
      "name": "ZeroAddressSet",
      "type": "error"
    },
    {
      "inputs": [],
      "name": "ZeroOwnerSet",
      "type": "error"
    },
    {
      "anonymous": false,
      "inputs": [
        {
          "indexed": false,
          "internalType": "address",
          "name": "previousAdmin",
          "type": "address"
        },
        {
          "indexed": false,
          "internalType": "address",
          "name": "newAdmin",
          "type": "address"
        }
      ],
      "name": "AdminChanged",
      "type": "event"
    },
    {
      "anonymous": false,
      "inputs": [
        {
          "indexed": true,
          "internalType": "address",
          "name": "beacon",
          "type": "address"
        }
      ],
      "name": "BeaconUpgraded",
      "type": "event"
    },
    {
      "anonymous": false,
      "inputs": [
        {
          "indexed": false,
          "internalType": "uint256",
          "name": "season",
          "type": "uint256"
        },
        {
          "indexed": false,
          "internalType": "address",
          "name": "account",
          "type": "address"
        },
        {
          "indexed": false,
          "internalType": "uint256",
          "name": "roundIndex",
          "type": "uint256"
        },
        {
          "indexed": false,
          "internalType": "uint256",
          "name": "amount",
          "type": "uint256"
        },
        {
          "indexed": false,
          "internalType": "uint256",
          "name": "roundTotalAmount",
          "type": "uint256"
        }
      ],
      "name": "Deposit",
      "type": "event"
    },
    {
      "anonymous": false,
      "inputs": [
        {
          "indexed": false,
          "internalType": "uint256",
          "name": "season",
          "type": "uint256"
        },
        {
          "indexed": false,
          "internalType": "uint32",
          "name": "seasonStartTime",
          "type": "uint32"
        },
        {
          "components": [
            {
              "internalType": "uint256",
              "name": "totalAmount",
              "type": "uint256"
            },
            {
              "internalType": "uint256",
              "name": "target",
              "type": "uint256"
            },
            {
              "internalType": "uint256",
              "name": "currentIndex",
              "type": "uint256"
            },
            {
              "internalType": "uint256",
              "name": "startTime",
              "type": "uint256"
            }
          ],
          "indexed": false,
          "internalType": "struct IPiggyBank.RoundInfo",
          "name": "roundInfo",
          "type": "tuple"
        }
      ],
      "name": "InitializeSeason",
      "type": "event"
    },
    {
      "anonymous": false,
      "inputs": [
        {
          "indexed": false,
          "internalType": "uint8",
          "name": "version",
          "type": "uint8"
        }
      ],
      "name": "Initialized",
      "type": "event"
    },
    {
      "anonymous": false,
      "inputs": [
        {
          "indexed": false,
          "internalType": "uint256",
          "name": "season",
          "type": "uint256"
        },
        {
          "indexed": false,
          "internalType": "uint256",
          "name": "startTime",
          "type": "uint256"
        }
      ],
      "name": "NewSeason",
      "type": "event"
    },
    {
      "anonymous": false,
      "inputs": [
        {
          "indexed": true,
          "internalType": "address",
          "name": "previousOwner",
          "type": "address"
        },
        {
          "indexed": true,
          "internalType": "address",
          "name": "newOwner",
          "type": "address"
        }
      ],
      "name": "OwnershipTransferred",
      "type": "event"
    },
    {
      "anonymous": false,
      "inputs": [
        {
          "indexed": false,
          "internalType": "uint256",
          "name": "season",
          "type": "uint256"
        },
        {
          "indexed": false,
          "internalType": "uint256",
          "name": "stopTime",
          "type": "uint256"
        }
      ],
      "name": "SeasonStoped",
      "type": "event"
    },
    {
      "anonymous": false,
      "inputs": [
        {
          "indexed": false,
          "internalType": "uint64",
          "name": "minTimeLong",
          "type": "uint64"
        }
      ],
      "name": "SetMinTimeLong",
      "type": "event"
    },
    {
      "anonymous": false,
      "inputs": [
        {
          "indexed": false,
          "internalType": "uint8",
          "name": "multiple",
          "type": "uint8"
        }
      ],
      "name": "SetNewMultiple",
      "type": "event"
    },
    {
      "anonymous": false,
      "inputs": [
        {
          "indexed": false,
          "internalType": "uint256",
          "name": "season",
          "type": "uint256"
        },
        {
          "indexed": false,
          "internalType": "bytes32",
          "name": "stopedHash",
          "type": "bytes32"
        },
        {
          "indexed": false,
          "internalType": "address",
          "name": "verifySigner",
          "type": "address"
        }
      ],
      "name": "SetStopedHash",
      "type": "event"
    },
    {
      "anonymous": false,
      "inputs": [
        {
          "indexed": true,
          "internalType": "address",
          "name": "signer",
          "type": "address"
        },
        {
          "indexed": false,
          "internalType": "bool",
          "name": "valid",
          "type": "bool"
        }
      ],
      "name": "SignerUpdate",
      "type": "event"
    },
    {
      "anonymous": false,
      "inputs": [
        {
          "indexed": true,
          "internalType": "address",
          "name": "implementation",
          "type": "address"
        }
      ],
      "name": "Upgraded",
      "type": "event"
    },
    {
      "inputs": [
        {
          "internalType": "uint256",
          "name": "season",
          "type": "uint256"
        }
      ],
      "name": "checkIsSeasonEnd",
      "outputs": [
        {
          "internalType": "bool",
          "name": "",
          "type": "bool"
        }
      ],
      "stateMutability": "view",
      "type": "function"
    },
    {
      "inputs": [],
      "name": "claimOwnership",
      "outputs": [],
      "stateMutability": "nonpayable",
      "type": "function"
    },
    {
      "inputs": [
        {
          "internalType": "uint256",
          "name": "season",
          "type": "uint256"
        },
        {
          "internalType": "address",
          "name": "account",
          "type": "address"
        }
      ],
      "name": "deposit",
      "outputs": [],
      "stateMutability": "payable",
      "type": "function"
    },
    {
      "inputs": [
        {
          "internalType": "address",
          "name": "owner_",
          "type": "address"
        },
        {
          "internalType": "address",
          "name": "portal_",
          "type": "address"
        }
      ],
      "name": "initialize",
      "outputs": [],
      "stateMutability": "nonpayable",
      "type": "function"
    },
    {
      "inputs": [
        {
          "internalType": "uint256",
          "name": "season",
          "type": "uint256"
        },
        {
          "internalType": "uint32",
          "name": "seasonStartTime",
          "type": "uint32"
        },
        {
          "components": [
            {
              "internalType": "uint256",
              "name": "totalAmount",
              "type": "uint256"
            },
            {
              "internalType": "uint256",
              "name": "target",
              "type": "uint256"
            },
            {
              "internalType": "uint256",
              "name": "currentIndex",
              "type": "uint256"
            },
            {
              "internalType": "uint256",
              "name": "startTime",
              "type": "uint256"
            }
          ],
          "internalType": "struct IPiggyBank.RoundInfo",
          "name": "roundInfo",
          "type": "tuple"
        }
      ],
      "name": "initializeSeason",
      "outputs": [],
      "stateMutability": "payable",
      "type": "function"
    },
    {
      "inputs": [],
      "name": "minTimeLong",
      "outputs": [
        {
          "internalType": "uint64",
          "name": "",
          "type": "uint64"
        }
      ],
      "stateMutability": "view",
      "type": "function"
    },
    {
      "inputs": [],
      "name": "multiple",
      "outputs": [
        {
          "internalType": "uint8",
          "name": "",
          "type": "uint8"
        }
      ],
      "stateMutability": "view",
      "type": "function"
    },
    {
      "inputs": [
        {
          "internalType": "uint256",
          "name": "season",
          "type": "uint256"
        },
        {
          "internalType": "uint256",
          "name": "startTime",
          "type": "uint256"
        }
      ],
      "name": "newSeason",
      "outputs": [],
      "stateMutability": "nonpayable",
      "type": "function"
    },
    {
      "inputs": [],
      "name": "owner",
      "outputs": [
        {
          "internalType": "address",
          "name": "",
          "type": "address"
        }
      ],
      "stateMutability": "view",
      "type": "function"
    },
    {
      "inputs": [],
      "name": "pendingOwner",
      "outputs": [
        {
          "internalType": "address",
          "name": "",
          "type": "address"
        }
      ],
      "stateMutability": "view",
      "type": "function"
    },
    {
      "inputs": [],
      "name": "portal",
      "outputs": [
        {
          "internalType": "address",
          "name": "",
          "type": "address"
        }
      ],
      "stateMutability": "view",
      "type": "function"
    },
    {
      "inputs": [],
      "name": "proxiableUUID",
      "outputs": [
        {
          "internalType": "bytes32",
          "name": "",
          "type": "bytes32"
        }
      ],
      "stateMutability": "view",
      "type": "function"
    },
    {
      "inputs": [],
      "name": "renounceOwnership",
      "outputs": [],
      "stateMutability": "nonpayable",
      "type": "function"
    },
    {
      "inputs": [
        {
          "internalType": "uint64",
          "name": "minTimeLong_",
          "type": "uint64"
        }
      ],
      "name": "setMinTimeLong",
      "outputs": [],
      "stateMutability": "nonpayable",
      "type": "function"
    },
    {
      "inputs": [
        {
          "internalType": "uint8",
          "name": "multiple_",
          "type": "uint8"
        }
      ],
      "name": "setMultiple",
      "outputs": [],
      "stateMutability": "nonpayable",
      "type": "function"
    },
    {
      "inputs": [
        {
          "internalType": "uint256",
          "name": "season",
          "type": "uint256"
        },
        {
          "internalType": "bytes32",
          "name": "stopedHash",
          "type": "bytes32"
        },
        {
          "internalType": "address",
          "name": "verifySigner",
          "type": "address"
        }
      ],
      "name": "setSeasonStopedHash",
      "outputs": [],
      "stateMutability": "nonpayable",
      "type": "function"
    },
    {
      "inputs": [
        {
          "internalType": "uint256",
          "name": "season",
          "type": "uint256"
        }
      ],
      "name": "stop",
      "outputs": [],
      "stateMutability": "nonpayable",
      "type": "function"
    },
    {
      "inputs": [
        {
          "internalType": "address",
          "name": "newOwner",
          "type": "address"
        },
        {
          "internalType": "bool",
          "name": "direct",
          "type": "bool"
        }
      ],
      "name": "transferOwnership",
      "outputs": [],
      "stateMutability": "nonpayable",
      "type": "function"
    },
    {
      "inputs": [
        {
          "internalType": "address",
          "name": "newImplementation",
          "type": "address"
        }
      ],
      "name": "upgradeTo",
      "outputs": [],
      "stateMutability": "nonpayable",
      "type": "function"
    },
    {
      "inputs": [
        {
          "internalType": "address",
          "name": "newImplementation",
          "type": "address"
        },
        {
          "internalType": "bytes",
          "name": "data",
          "type": "bytes"
        }
      ],
      "name": "upgradeToAndCall",
      "outputs": [],
      "stateMutability": "payable",
      "type": "function"
    },
    {
      "inputs": [
        {
          "internalType": "uint256",
          "name": "season",
          "type": "uint256"
        },
        {
          "internalType": "bytes",
          "name": "signature",
          "type": "bytes"
        }
      ],
      "name": "verifyStopHash",
      "outputs": [
        {
          "internalType": "bool",
          "name": "",
          "type": "bool"
        }
      ],
      "stateMutability": "view",
      "type": "function"
    }
  ],
  "transactionHash": "0x23803f6cedb3301f8635087f270f574c079c752b29a3b5371e3889d518b113e6",
  "args": [],
  "numDeployments": 2,
  "solcInputHash": "7437f3f7c569fae2ec4f1a047755de87",
  "bytecode": "0x60a0806040523461003157306080526116ac908161003782396080518181816106f3015281816107940152610cc60152f35b600080fdfe60806040908082526004918236101561001757600080fd5b600091823560e01c9081632649dba914610eba57508063305607a314610e915780633659cfe614610c9f578063437a8ae614610c7b578063485cc95514610aed5780634b491d4914610a0e5780634e71e0c8146109a15780634f1ef2861461074557806352d1902d146106de578063617069081461065b5780636299f8cf146105b45780636425666b1461058c5780636e553f651461045d578063715018a6146103fd5780638da5cb5b146103d557806398b46eaf14610360578063a6645a9214610334578063a74b434b1461025c578063b242e534146101da578063e30c3978146101b25763e89a88661461010c57600080fd5b346101ae57806003193601126101ae5760c954833590602435906001600160a01b0316330361019e57839450817fb11bddedb817d627b042c6a3047fc8475045ad29f830bcb1102385e67ab5f607945260ca60205263ffffffff806002858820015460a01c1615610187575b5082519182526020820152a180f35b6101989082166002858820016110c4565b38610178565b82516325ba3c7960e01b81528590fd5b5080fd5b50346101ae57816003193601126101ae5760345490516001600160a01b039091168152602090f35b5082346102585781600319360112610258576101f4611041565b906024359081151582036102545761020a611547565b6001600160a01b0383169384156102475750501561022f5761022c915061156d565b80f35b50603480546001600160a01b03191691909117905580f35b51633aafecb360e21b8152fd5b8480fd5b8280fd5b508234610258576060366003190112610258578035916044356001600160a01b038116926024359184900361033057610293611547565b84865260ca60205263ffffffff6002848820015460a01c1615610322578315610314575083855260ca602090815282862060010182905582862060020180546001600160a01b0319168517905582519485528401528201527fe4eea18f24578792f606d968efb4f4ec1ea13d58d50c82006515adadb0a276f290606090a180f35b8251630ae8f22360e21b8152fd5b825163d40820c360e01b8152fd5b8580fd5b50346101ae57816003193601126101ae5760c954905160a89190911c6001600160401b03168152602090f35b508234610258576020366003190112610258573560ff81168082036103d1577fb173a1edd1427ad576f900f4964fa68e44b92cfa0e1800390756129ebd97dd48926020926103ac611547565b60c9805460ff60a01b191660a09290921b60ff60a01b1691909117905551908152a180f35b8380fd5b50346101ae57816003193601126101ae5760335490516001600160a01b039091168152602090f35b823461045a578060031936011261045a57610416611547565b6000805160206115d7833981519152819055603380546001600160a01b0319811690915581906001600160a01b03166000805160206116378339815191528280a380f35b80fd5b50828160031936011261025857803561047461105c565b60c95490926001600160a01b03918216330361057e576104938361128d565b610568575081855260ca6020528385206104ae3482546110e7565b905581855260cb602052838520938454916104c934846110e7565b9260018701938454106000146104fc575050506104f061022c946104f69254905490611150565b34611150565b9161117f565b61056293509061051f6000805160206116178339815191529796959234906110e7565b86558416875260cc6020528187208188526020528187206002860190815489526020528288206105503482546110e7565b90555494549151948594349286611124565b0390a180f35b82865260ca6020528451639c0f823160e01b8152fd5b84516325ba3c7960e01b8152fd5b50346101ae57816003193601126101ae5760c95490516001600160a01b039091168152602090f35b5082346102585760203660031901126102585760c954813591906001600160a01b0316330361064d5781845260ca60205263ffffffff6002848620015460a01c1615610322575080835260ca6020908152828420600201805460ff60c01b1916600160c01b179055825191825242908201527fe2d7e99c747f0e0432e852688145c87e00818a413f45fad18191d3d04f4d63299190a180f35b82516325ba3c7960e01b8152fd5b50823461025857602036600319011261025857356001600160401b0381168082036103d1577fa75f2406e0931fd8259df0d754624886d64079585e253256af11d7e2d34d1633926020926106ad611547565b60c98054600160a81b600160e81b03191660a89290921b600160a81b600160e81b031691909117905551908152a180f35b50903461045a578060031936011261045a57507f00000000000000000000000000000000000000000000000000000000000000006001600160a01b0316300361073857602090516000805160206115f78339815191528152f35b5163e437988b60e01b8152fd5b5082816003193601126102585761075a611041565b916024356001600160401b03811161025457366023820112156102545761078a903690602481860135910161108d565b6001600160a01b037f0000000000000000000000000000000000000000000000000000000000000000811690308214610991576000805160206115f7833981519152918183541603610981576107de611547565b6000805160206115b78339815191525460ff161561080457505050505061022c90611358565b85919294969395168551926352d1902d60e01b845260209384818a81865afa86918161094e575b5061084057875163fec758a960e01b81528990fd5b97929395979694960361093f5761085683611358565b8351906000805160206116578339815191528780a2865115801590610937575b610885575b5050505050905080f35b823b1561092b57505092808561090c95858398519201905af43d1561091857660819985a5b195960ca1b3d926108ba84611072565b936108c78251958661101e565b84523d878686013e5b7f416464726573733a206c6f772d6c6576656c2064656c65676174652063616c6c8151956108fd87610fed565b6027875286015284015261139f565b5080828080808061087b565b660819985a5b195960ca1b6060926108d0565b63a6c49bc960e01b8152fd5b506001610876565b5082516322b9fa5360e21b8152fd5b9091508581813d831161097a575b610966818361101e565b810103126109765751908a61082b565b8680fd5b503d61095c565b50505051631008d79560e01b8152fd5b5050505163e437988b60e01b8152fd5b508290346102585782600319360112610258576034546001600160a01b03929091838316919033839003610a01575050806033549384166000805160206116378339815191528680a36001600160a01b0319928316176033551660345580f35b516305e05b4b60e31b8152fd5b5082346102585781600319360112610258578035906001600160401b039060243590828211610330573660238301121561033057810135918211610254573660248383010111610254579382610ac48593610abe602098610acc97865260ca8a526001878720015487518b8101917b0ca2ba3432b932bab69029b4b3b732b21026b2b9b9b0b3b29d05199960211b8352603c820152603c8152610ab081610fed565b51902092602436920161108d565b90611490565b94909461141a565b815260ca8552206002015491516001600160a01b0392831691909216148152f35b508234610258578160031936011261025857610b07611041565b610b0f61105c565b9084549260ff8460081c161593848095610c6e575b8015610c57575b15610bfd5760ff198116600117875584610bec575b506001600160a01b03928316928315908115610be1575b50610bd35760ff865460081c1615610bc55750610b739061156d565b60c980546001600160a01b031916919091179055610b8f575080f35b60207f7f26b83ff96e1f2b6a682f133852f6798a09c465da95921460cefb38474024989161ff001984541684555160018152a180f35b84516369be8d9360e11b8152fd5b8451630ae8f22360e21b8152fd5b905082161587610b57565b61ffff191661010117865586610b40565b855162461bcd60e51b8152602081840152602e60248201527f496e697469616c697a61626c653a20636f6e747261637420697320616c72656160448201526d191e481a5b9a5d1a585b1a5e995960921b6064820152608490fd5b50303b158015610b2b5750600160ff821614610b2b565b50600160ff821610610b24565b50346101ae57816003193601126101ae5760209060ff60c95460a01c169051908152f35b50346101ae576020908160031936011261025857610cbb611041565b916001600160a01b037f00000000000000000000000000000000000000000000000000000000000000008116308114610e81576000805160206115f7833981519152908282541603610e7157610d0f611547565b8351838101929091906001600160401b03841183851017610e5e578386528783526000805160206115b78339815191525460ff1615610d595750505050505061022c919250611358565b86979597169087516352d1902d60e01b815285818b81865afa879181610e2b575b50610d8f57885163fec758a960e01b81528a90fd5b98929394969897959703610e1c57610da688611358565b8451906000805160206116578339815191528880a2825115801590610e15575b610dd6575b505050505050905080f35b873b1561092b5750509380958192610e089651915af43d1561091857660819985a5b195960ca1b3d926108ba84611072565b5080388080808080610dcb565b5086610dc6565b5083516322b9fa5360e21b8152fd5b9091508681813d8311610e57575b610e43818361101e565b81010312610e5357519038610d7a565b8780fd5b503d610e39565b634e487b7160e01b885260418952602488fd5b8351631008d79560e01b81528790fd5b835163e437988b60e01b81528790fd5b50903461045a57602036600319011261045a5750610eb16020923561128d565b90519015158152f35b9184915060c03660031901126103d1578135926024359163ffffffff83169182840361097657608036604319011261097657608081016001600160401b03811182821017610fda578252604435815260208101926064358452828201946084358652606083019660a435885260018060a01b0360c95416330361057e5783513403610fcc57509187959391610f8660c09896947f736838cd7747e0bae55d1527303d8a9086c627e251e78400eeb8c6ea068223b09a8c5260ca60205234858d20556002858d20016110c4565b60cb602052828a20825181558451600182015585516002820155600387519101558251968752602087015251908501525160608401525160808301525160a0820152a180f35b845163453469bd60e11b8152fd5b634e487b7160e01b885260418652602488fd5b606081019081106001600160401b0382111761100857604052565b634e487b7160e01b600052604160045260246000fd5b601f909101601f19168101906001600160401b0382119082101761100857604052565b600435906001600160a01b038216820361105757565b600080fd5b602435906001600160a01b038216820361105757565b6001600160401b03811161100857601f01601f191660200190565b92919261109982611072565b916110a7604051938461101e565b829481845281830111611057578281602093846000960137010152565b805463ffffffff60a01b191660a09290921b63ffffffff60a01b16919091179055565b919082018092116110f457565b634e487b7160e01b600052601160045260246000fd5b6001600160a01b0316600090815260cc6020526040902090565b9192608093969594919660a0840197845260018060a01b03166020840152604083015260608201520152565b919082039182116110f457565b60001981146110f45760010190565b818102929181159184041417156110f457565b906111948160005260cb602052604060002090565b9260028401906111a4825461115d565b80835560018601956111da6111d388546111cd6111c760c95460ff9060a01c1690565b60ff1690565b9061116c565b6064900490565b80885583111561124f575050906104f69160008051602061161783398151915261124d9654809381611231611221896112128c61110a565b90600052602052604060002090565b8354600052602052604060002090565b5554611245826040519384938b8b86611124565b0390a1611150565b565b6000805160206116178339815191529650928261127a8193826112889755611212886112128b61110a565b555460405195869586611124565b0390a1565b60009080825260ca60205263ffffffff600260408420015460a01c1660018060401b03908160c95460a81c1601818111611344571642119081611328575b81611302575b81156112e6575b506112e05790565b50600190565b82525060ca602052604081206002015460c01c60ff16386112d8565b809150825260cb602052610e10611320600360408520015442611150565b1015906112d1565b80835260cb6020526040832080546001909101541191506112cb565b634e487b7160e01b84526011600452602484fd5b803b1561138d576000805160206115f783398151915280546001600160a01b0319166001600160a01b03909216919091179055565b60405163145708c760e31b8152600490fd5b909190156113ab575090565b8151156113bb5750805190602001fd5b6040519062461bcd60e51b82528160208060048301528251908160248401526000935b828510611401575050604492506000838284010152601f80199101168101030190fd5b84810182015186860160440152938101938593506113de565b600581101561147a578061142b5750565b6001810361144557604051638baa579f60e01b8152600490fd5b6002810361145f57604051634be6321b60e01b8152600490fd5b60031461146857565b60405163185f3d1d60e21b8152600490fd5b634e487b7160e01b600052602160045260246000fd5b9060418151146000146114be576114ba916020820151906060604084015193015160001a906114c8565b9091565b5050600090600290565b9291906fa2a8918ca85bafe22016d0b997e4df60600160ff1b03831161153b5791608094939160ff602094604051948552168484015260408301526060820152600093849182805260015afa1561152e5781516001600160a01b038116156112e0579190565b50604051903d90823e3d90fd5b50505050600090600390565b6033546001600160a01b0316330361155b57565b604051632e6c18c960e11b8152600490fd5b6000805160206115d7833981519152819055603380546001600160a01b039283166001600160a01b031982168117909255909116600080516020611637833981519152600080a356fe4910fdfa16fed3260ed0e7147f7cc6da11a60208b5b9406d12a635614ffd9143b53127684a568b3173ae13b9f8a6016e243e63b6e8ee1178d6a717850b5d6103360894a13ba1a3210667c828492db98dca3e2076cc3735a920a3ca505d382bbc996a417e6461fc8f287ec9a6c2e9afb764a1d6fbdaa6570826ae99855b453aff8be0079c531659141344cd1fd0a4f28419497f9722a3daafe3b4186f6b6457e0bc7cd75a20ee27fd9adebab32041f755214dbc6bffa90cc0225b39da2e5c2d3ba2646970667358221220d89e6c4bfa0d0b66bd6786c7d6321cbc1a733ffcf5a71082fa5f4adca01df0f664736f6c63430008110033",
  "devdoc": {
    "kind": "dev",
    "methods": {
      "claimOwnership()": {
        "details": "pending owner call this function to claim ownership"
      },
      "owner()": {
        "details": "Returns the address of the current owner."
      },
      "pendingOwner()": {
        "details": "Return the address of the pending owner"
      },
      "proxiableUUID()": {
        "details": "Implementation of the ERC1822 {proxiableUUID} function. This returns the storage slot used by the implementation. It is used to validate the implementation's compatibility when performing an upgrade. IMPORTANT: A proxy pointing at a proxiable contract should not be considered proxiable itself, because this risks bricking a proxy that upgrades to it, by delegating to itself until out of gas. Thus it is critical that this function revert if invoked through a proxy. This is guaranteed by the `notDelegated` modifier."
      },
      "renounceOwnership()": {
        "details": "Leaves the contract without owner. It will not be possible to call `onlyOwner` functions anymore. Can only be called by the current owner. NOTE: Renouncing ownership will leave the contract without an owner, thereby removing any functionality that is only available to the owner."
      },
      "transferOwnership(address,bool)": {
        "details": "Transfers ownership of the contract to a new account (`newOwner`). Can only be called by the current owner. Note If direct is false, it will set an pending owner and the OwnerShipTransferring only happens when the pending owner claim the ownership"
      },
      "upgradeTo(address)": {
        "details": "Upgrade the implementation of the proxy to `newImplementation`. Calls {_authorizeUpgrade}. Emits an {Upgraded} event."
      },
      "upgradeToAndCall(address,bytes)": {
        "details": "Upgrade the implementation of the proxy to `newImplementation`, and subsequently execute the function call encoded in `data`. Calls {_authorizeUpgrade}. Emits an {Upgraded} event."
      }
    },
    "version": 1
  },
  "userdoc": {
    "kind": "user",
    "methods": {},
    "version": 1
  },
  "storageLayout": {
    "storage": [
      {
        "astId": 23714,
        "contract": "src/PiggyBank.sol:PiggyBank",
        "label": "_initialized",
        "offset": 0,
        "slot": "0",
        "type": "t_uint8"
      },
      {
        "astId": 23717,
        "contract": "src/PiggyBank.sol:PiggyBank",
        "label": "_initializing",
        "offset": 1,
        "slot": "0",
        "type": "t_bool"
      },
      {
        "astId": 27074,
        "contract": "src/PiggyBank.sol:PiggyBank",
        "label": "__gap",
        "offset": 0,
        "slot": "1",
        "type": "t_array(t_uint256)50_storage"
      },
      {
        "astId": 28977,
        "contract": "src/PiggyBank.sol:PiggyBank",
        "label": "_owner",
        "offset": 0,
        "slot": "51",
        "type": "t_address"
      },
      {
        "astId": 28979,
        "contract": "src/PiggyBank.sol:PiggyBank",
        "label": "_pendingOwner",
        "offset": 0,
        "slot": "52",
        "type": "t_address"
      },
      {
        "astId": 29177,
        "contract": "src/PiggyBank.sol:PiggyBank",
        "label": "__gap",
        "offset": 0,
        "slot": "53",
        "type": "t_array(t_uint256)48_storage"
      },
      {
        "astId": 23693,
        "contract": "src/PiggyBank.sol:PiggyBank",
        "label": "__gap",
        "offset": 0,
        "slot": "101",
        "type": "t_array(t_uint256)50_storage"
      },
      {
        "astId": 24016,
        "contract": "src/PiggyBank.sol:PiggyBank",
        "label": "__gap",
        "offset": 0,
        "slot": "151",
        "type": "t_array(t_uint256)50_storage"
      },
      {
        "astId": 7878,
        "contract": "src/PiggyBank.sol:PiggyBank",
        "label": "portal",
        "offset": 0,
        "slot": "201",
        "type": "t_address"
      },
      {
        "astId": 7880,
        "contract": "src/PiggyBank.sol:PiggyBank",
        "label": "multiple",
        "offset": 20,
        "slot": "201",
        "type": "t_uint8"
      },
      {
        "astId": 7882,
        "contract": "src/PiggyBank.sol:PiggyBank",
        "label": "minTimeLong",
        "offset": 21,
        "slot": "201",
        "type": "t_uint64"
      },
      {
        "astId": 7887,
        "contract": "src/PiggyBank.sol:PiggyBank",
        "label": "seasons",
        "offset": 0,
        "slot": "202",
        "type": "t_mapping(t_uint256,t_struct(SeasonInfo)14694_storage)"
      },
      {
        "astId": 7892,
        "contract": "src/PiggyBank.sol:PiggyBank",
        "label": "rounds",
        "offset": 0,
        "slot": "203",
        "type": "t_mapping(t_uint256,t_struct(RoundInfo)14703_storage)"
      },
      {
        "astId": 7900,
        "contract": "src/PiggyBank.sol:PiggyBank",
        "label": "userInfo",
        "offset": 0,
        "slot": "204",
        "type": "t_mapping(t_address,t_mapping(t_uint256,t_mapping(t_uint256,t_uint256)))"
      },
      {
        "astId": 7904,
        "contract": "src/PiggyBank.sol:PiggyBank",
        "label": "_gap",
        "offset": 0,
        "slot": "205",
        "type": "t_array(t_uint256)44_storage"
      }
    ],
    "types": {
      "t_address": {
        "encoding": "inplace",
        "label": "address",
        "numberOfBytes": "20"
      },
      "t_array(t_uint256)44_storage": {
        "base": "t_uint256",
        "encoding": "inplace",
        "label": "uint256[44]",
        "numberOfBytes": "1408"
      },
      "t_array(t_uint256)48_storage": {
        "base": "t_uint256",
        "encoding": "inplace",
        "label": "uint256[48]",
        "numberOfBytes": "1536"
      },
      "t_array(t_uint256)50_storage": {
        "base": "t_uint256",
        "encoding": "inplace",
        "label": "uint256[50]",
        "numberOfBytes": "1600"
      },
      "t_bool": {
        "encoding": "inplace",
        "label": "bool",
        "numberOfBytes": "1"
      },
      "t_bytes32": {
        "encoding": "inplace",
        "label": "bytes32",
        "numberOfBytes": "32"
      },
      "t_mapping(t_address,t_mapping(t_uint256,t_mapping(t_uint256,t_uint256)))": {
        "encoding": "mapping",
        "key": "t_address",
        "label": "mapping(address => mapping(uint256 => mapping(uint256 => uint256)))",
        "numberOfBytes": "32",
        "value": "t_mapping(t_uint256,t_mapping(t_uint256,t_uint256))"
      },
      "t_mapping(t_uint256,t_mapping(t_uint256,t_uint256))": {
        "encoding": "mapping",
        "key": "t_uint256",
        "label": "mapping(uint256 => mapping(uint256 => uint256))",
        "numberOfBytes": "32",
        "value": "t_mapping(t_uint256,t_uint256)"
      },
      "t_mapping(t_uint256,t_struct(RoundInfo)14703_storage)": {
        "encoding": "mapping",
        "key": "t_uint256",
        "label": "mapping(uint256 => struct IPiggyBank.RoundInfo)",
        "numberOfBytes": "32",
        "value": "t_struct(RoundInfo)14703_storage"
      },
      "t_mapping(t_uint256,t_struct(SeasonInfo)14694_storage)": {
        "encoding": "mapping",
        "key": "t_uint256",
        "label": "mapping(uint256 => struct IPiggyBank.SeasonInfo)",
        "numberOfBytes": "32",
        "value": "t_struct(SeasonInfo)14694_storage"
      },
      "t_mapping(t_uint256,t_uint256)": {
        "encoding": "mapping",
        "key": "t_uint256",
        "label": "mapping(uint256 => uint256)",
        "numberOfBytes": "32",
        "value": "t_uint256"
      },
      "t_struct(RoundInfo)14703_storage": {
        "encoding": "inplace",
        "label": "struct IPiggyBank.RoundInfo",
        "members": [
          {
            "astId": 14696,
            "contract": "src/PiggyBank.sol:PiggyBank",
            "label": "totalAmount",
            "offset": 0,
            "slot": "0",
            "type": "t_uint256"
          },
          {
            "astId": 14698,
            "contract": "src/PiggyBank.sol:PiggyBank",
            "label": "target",
            "offset": 0,
            "slot": "1",
            "type": "t_uint256"
          },
          {
            "astId": 14700,
            "contract": "src/PiggyBank.sol:PiggyBank",
            "label": "currentIndex",
            "offset": 0,
            "slot": "2",
            "type": "t_uint256"
          },
          {
            "astId": 14702,
            "contract": "src/PiggyBank.sol:PiggyBank",
            "label": "startTime",
            "offset": 0,
            "slot": "3",
            "type": "t_uint256"
          }
        ],
        "numberOfBytes": "128"
      },
      "t_struct(SeasonInfo)14694_storage": {
        "encoding": "inplace",
        "label": "struct IPiggyBank.SeasonInfo",
        "members": [
          {
            "astId": 14685,
            "contract": "src/PiggyBank.sol:PiggyBank",
            "label": "totalAmount",
            "offset": 0,
            "slot": "0",
            "type": "t_uint256"
          },
          {
            "astId": 14687,
            "contract": "src/PiggyBank.sol:PiggyBank",
            "label": "stopedHash",
            "offset": 0,
            "slot": "1",
            "type": "t_bytes32"
          },
          {
            "astId": 14689,
            "contract": "src/PiggyBank.sol:PiggyBank",
            "label": "verifySigner",
            "offset": 0,
            "slot": "2",
            "type": "t_address"
          },
          {
            "astId": 14691,
            "contract": "src/PiggyBank.sol:PiggyBank",
            "label": "startTime",
            "offset": 20,
            "slot": "2",
            "type": "t_uint32"
          },
          {
            "astId": 14693,
            "contract": "src/PiggyBank.sol:PiggyBank",
            "label": "stoped",
            "offset": 24,
            "slot": "2",
            "type": "t_bool"
          }
        ],
        "numberOfBytes": "96"
      },
      "t_uint256": {
        "encoding": "inplace",
        "label": "uint256",
        "numberOfBytes": "32"
      },
      "t_uint32": {
        "encoding": "inplace",
        "label": "uint32",
        "numberOfBytes": "4"
      },
      "t_uint64": {
        "encoding": "inplace",
        "label": "uint64",
        "numberOfBytes": "8"
      },
      "t_uint8": {
        "encoding": "inplace",
        "label": "uint8",
        "numberOfBytes": "1"
      }
    }
  }
}