{
  "address": "0x0Dcde80F18F1621f1301BA89F6d0076F2A6EC5e8",
  "abi": [
    {
      "inputs": [],
      "name": "CallerNotOwner",
      "type": "error"
    },
    {
      "inputs": [],
      "name": "CallerNotPendingOwner",
      "type": "error"
    },
    {
      "inputs": [],
      "name": "DropOff",
      "type": "error"
    },
    {
      "inputs": [],
      "name": "InBeta",
      "type": "error"
    },
    {
      "inputs": [],
      "name": "IncarnationExceedLimit",
      "type": "error"
    },
    {
      "inputs": [],
      "name": "InsufficientAmount",
      "type": "error"
    },
    {
      "inputs": [],
      "name": "NotSetBurnPoolAddress",
      "type": "error"
    },
    {
      "inputs": [],
      "name": "NotSigner",
      "type": "error"
    },
    {
      "inputs": [
        {
          "internalType": "address",
          "name": "have",
          "type": "address"
        },
        {
          "internalType": "address",
          "name": "want",
          "type": "address"
        }
      ],
      "name": "OnlyCoordinatorCanFulfill",
      "type": "error"
    },
    {
      "inputs": [],
      "name": "OnlySimulatedBackend",
      "type": "error"
    },
    {
      "inputs": [],
      "name": "SameSeed",
      "type": "error"
    },
    {
      "inputs": [],
      "name": "ZeroAddressCoordinatorSet",
      "type": "error"
    },
    {
      "inputs": [],
      "name": "ZeroAddressOwnerSet",
      "type": "error"
    },
    {
      "inputs": [],
      "name": "ZeroAddressSet",
      "type": "error"
    },
    {
      "anonymous": false,
      "inputs": [
        {
          "indexed": false,
          "internalType": "address",
          "name": "previousAdmin",
          "type": "address"
        },
        {
          "indexed": false,
          "internalType": "address",
          "name": "newAdmin",
          "type": "address"
        }
      ],
      "name": "AdminChanged",
      "type": "event"
    },
    {
      "anonymous": false,
      "inputs": [
        {
          "indexed": true,
          "internalType": "address",
          "name": "owner",
          "type": "address"
        },
        {
          "indexed": true,
          "internalType": "address",
          "name": "approved",
          "type": "address"
        },
        {
          "indexed": true,
          "internalType": "uint256",
          "name": "tokenId",
          "type": "uint256"
        }
      ],
      "name": "Approval",
      "type": "event"
    },
    {
      "anonymous": false,
      "inputs": [
        {
          "indexed": true,
          "internalType": "address",
          "name": "owner",
          "type": "address"
        },
        {
          "indexed": true,
          "internalType": "address",
          "name": "operator",
          "type": "address"
        },
        {
          "indexed": false,
          "internalType": "bool",
          "name": "approved",
          "type": "bool"
        }
      ],
      "name": "ApprovalForAll",
      "type": "event"
    },
    {
      "anonymous": false,
      "inputs": [
        {
          "indexed": true,
          "internalType": "address",
          "name": "user",
          "type": "address"
        },
        {
          "indexed": false,
          "internalType": "uint256",
          "name": "amount",
          "type": "uint256"
        }
      ],
      "name": "Baptise",
      "type": "event"
    },
    {
      "anonymous": false,
      "inputs": [
        {
          "indexed": true,
          "internalType": "address",
          "name": "beacon",
          "type": "address"
        }
      ],
      "name": "BeaconUpgraded",
      "type": "event"
    },
    {
      "anonymous": false,
      "inputs": [
        {
          "indexed": false,
          "internalType": "bool",
          "name": "",
          "type": "bool"
        }
      ],
      "name": "BetaStageSet",
      "type": "event"
    },
    {
      "anonymous": false,
      "inputs": [
        {
          "indexed": true,
          "internalType": "address",
          "name": "account",
          "type": "address"
        },
        {
          "indexed": false,
          "internalType": "uint256",
          "name": "tokenId",
          "type": "uint256"
        },
        {
          "indexed": false,
          "internalType": "uint256",
          "name": "amount",
          "type": "uint256"
        }
      ],
      "name": "DecreaseFromPool",
      "type": "event"
    },
    {
      "anonymous": false,
      "inputs": [
        {
          "indexed": false,
          "internalType": "uint256[]",
          "name": "tokenIds",
          "type": "uint256[]"
        }
      ],
      "name": "Drop",
      "type": "event"
    },
    {
      "anonymous": false,
      "inputs": [
        {
          "indexed": true,
          "internalType": "address",
          "name": "user",
          "type": "address"
        },
        {
          "indexed": true,
          "internalType": "uint256",
          "name": "tokenId",
          "type": "uint256"
        },
        {
          "indexed": false,
          "internalType": "uint256",
          "name": "amount",
          "type": "uint256"
        }
      ],
      "name": "Dry",
      "type": "event"
    },
    {
      "anonymous": false,
      "inputs": [
        {
          "indexed": true,
          "internalType": "bytes32",
          "name": "seed",
          "type": "bytes32"
        },
        {
          "indexed": true,
          "internalType": "address",
          "name": "user",
          "type": "address"
        },
        {
          "indexed": true,
          "internalType": "uint256",
          "name": "tokenId",
          "type": "uint256"
        },
        {
          "indexed": false,
          "internalType": "uint256",
          "name": "score",
          "type": "uint256"
        },
        {
          "indexed": false,
          "internalType": "uint256",
          "name": "reward",
          "type": "uint256"
        }
      ],
      "name": "Engrave",
      "type": "event"
    },
    {
      "anonymous": false,
      "inputs": [
        {
          "indexed": true,
          "internalType": "address",
          "name": "user",
          "type": "address"
        },
        {
          "indexed": true,
          "internalType": "uint256",
          "name": "talentPrice",
          "type": "uint256"
        },
        {
          "indexed": true,
          "internalType": "uint256",
          "name": "PropertyPrice",
          "type": "uint256"
        },
        {
          "indexed": false,
          "internalType": "uint256",
          "name": "soupPrice",
          "type": "uint256"
        }
      ],
      "name": "Incarnate",
      "type": "event"
    },
    {
      "anonymous": false,
      "inputs": [
        {
          "indexed": true,
          "internalType": "address",
          "name": "account",
          "type": "address"
        },
        {
          "indexed": false,
          "internalType": "uint256",
          "name": "tokenId",
          "type": "uint256"
        },
        {
          "indexed": false,
          "internalType": "uint256",
          "name": "amount",
          "type": "uint256"
        }
      ],
      "name": "IncreaseToPool",
      "type": "event"
    },
    {
      "anonymous": false,
      "inputs": [
        {
          "indexed": true,
          "internalType": "address",
          "name": "user",
          "type": "address"
        },
        {
          "indexed": true,
          "internalType": "uint256",
          "name": "tokenId",
          "type": "uint256"
        },
        {
          "indexed": false,
          "internalType": "uint256",
          "name": "amount",
          "type": "uint256"
        }
      ],
      "name": "Infuse",
      "type": "event"
    },
    {
      "anonymous": false,
      "inputs": [
        {
          "indexed": false,
          "internalType": "uint8",
          "name": "version",
          "type": "uint8"
        }
      ],
      "name": "Initialized",
      "type": "event"
    },
    {
      "anonymous": false,
      "inputs": [
        {
          "indexed": false,
          "internalType": "uint256",
          "name": "extraReward",
          "type": "uint256"
        }
      ],
      "name": "NewExtraReward",
      "type": "event"
    },
    {
      "anonymous": false,
      "inputs": [
        {
          "indexed": false,
          "internalType": "uint256",
          "name": "limit",
          "type": "uint256"
        }
      ],
      "name": "NewIncarnationLimit",
      "type": "event"
    },
    {
      "anonymous": false,
      "inputs": [
        {
          "indexed": false,
          "internalType": "uint256",
          "name": "",
          "type": "uint256"
        }
      ],
      "name": "NewSeason",
      "type": "event"
    },
    {
      "anonymous": false,
      "inputs": [
        {
          "indexed": false,
          "internalType": "uint256",
          "name": "price",
          "type": "uint256"
        }
      ],
      "name": "NewSoupPrice",
      "type": "event"
    },
    {
      "anonymous": false,
      "inputs": [
        {
          "indexed": true,
          "internalType": "address",
          "name": "previousOwner",
          "type": "address"
        },
        {
          "indexed": true,
          "internalType": "address",
          "name": "newOwner",
          "type": "address"
        }
      ],
      "name": "OwnershipTransferred",
      "type": "event"
    },
    {
      "anonymous": false,
      "inputs": [
        {
          "indexed": false,
          "internalType": "address",
          "name": "account",
          "type": "address"
        }
      ],
      "name": "Paused",
      "type": "event"
    },
    {
      "anonymous": false,
      "inputs": [
        {
          "indexed": false,
          "internalType": "address",
          "name": "referee",
          "type": "address"
        },
        {
          "indexed": false,
          "internalType": "address",
          "name": "referrer",
          "type": "address"
        }
      ],
      "name": "Refer",
      "type": "event"
    },
    {
      "anonymous": false,
      "inputs": [
        {
          "indexed": true,
          "internalType": "address",
          "name": "from",
          "type": "address"
        },
        {
          "indexed": true,
          "internalType": "address",
          "name": "to",
          "type": "address"
        },
        {
          "indexed": true,
          "internalType": "uint256",
          "name": "tokenId",
          "type": "uint256"
        }
      ],
      "name": "Transfer",
      "type": "event"
    },
    {
      "anonymous": false,
      "inputs": [
        {
          "indexed": false,
          "internalType": "address",
          "name": "account",
          "type": "address"
        }
      ],
      "name": "Unpaused",
      "type": "event"
    },
    {
      "anonymous": false,
      "inputs": [
        {
          "indexed": true,
          "internalType": "address",
          "name": "implementation",
          "type": "address"
        }
      ],
      "name": "Upgraded",
      "type": "event"
    },
    {
      "anonymous": false,
      "inputs": [
        {
          "indexed": false,
          "internalType": "address",
          "name": "rewardVault",
          "type": "address"
        }
      ],
      "name": "VaultSet",
      "type": "event"
    },
    {
      "inputs": [
        {
          "internalType": "address",
          "name": "to",
          "type": "address"
        },
        {
          "internalType": "uint256",
          "name": "tokenId",
          "type": "uint256"
        }
      ],
      "name": "approve",
      "outputs": [],
      "stateMutability": "nonpayable",
      "type": "function"
    },
    {
      "inputs": [
        {
          "internalType": "address",
          "name": "owner",
          "type": "address"
        }
      ],
      "name": "balanceOf",
      "outputs": [
        {
          "internalType": "uint256",
          "name": "",
          "type": "uint256"
        }
      ],
      "stateMutability": "view",
      "type": "function"
    },
    {
      "inputs": [
        {
          "internalType": "address",
          "name": "user",
          "type": "address"
        },
        {
          "internalType": "uint256",
          "name": "amount",
          "type": "uint256"
        }
      ],
      "name": "baptise",
      "outputs": [],
      "stateMutability": "nonpayable",
      "type": "function"
    },
    {
      "inputs": [
        {
          "internalType": "uint256",
          "name": "amount",
          "type": "uint256"
        }
      ],
      "name": "burnFromBurnPool",
      "outputs": [],
      "stateMutability": "nonpayable",
      "type": "function"
    },
    {
      "inputs": [],
      "name": "burnPool",
      "outputs": [
        {
          "internalType": "address",
          "name": "",
          "type": "address"
        }
      ],
      "stateMutability": "view",
      "type": "function"
    },
    {
      "inputs": [
        {
          "internalType": "address",
          "name": "account",
          "type": "address"
        },
        {
          "internalType": "uint256",
          "name": "amount",
          "type": "uint256"
        },
        {
          "internalType": "enum PortalLib.RewardType",
          "name": "rewardType",
          "type": "uint8"
        }
      ],
      "name": "calculateReferReward",
      "outputs": [
        {
          "internalType": "address",
          "name": "ref1",
          "type": "address"
        },
        {
          "internalType": "uint256",
          "name": "ref1Reward",
          "type": "uint256"
        },
        {
          "internalType": "address",
          "name": "ref2",
          "type": "address"
        },
        {
          "internalType": "uint256",
          "name": "ref2Reward",
          "type": "uint256"
        }
      ],
      "stateMutability": "view",
      "type": "function"
    },
    {
      "inputs": [
        {
          "internalType": "bytes",
          "name": "",
          "type": "bytes"
        }
      ],
      "name": "checkUpkeep",
      "outputs": [
        {
          "internalType": "bool",
          "name": "upkeepNeeded",
          "type": "bool"
        },
        {
          "internalType": "bytes",
          "name": "performData",
          "type": "bytes"
        }
      ],
      "stateMutability": "view",
      "type": "function"
    },
    {
      "inputs": [
        {
          "internalType": "uint256[]",
          "name": "tokenIds",
          "type": "uint256[]"
        }
      ],
      "name": "claimDrops",
      "outputs": [],
      "stateMutability": "nonpayable",
      "type": "function"
    },
    {
      "inputs": [
        {
          "internalType": "uint256[]",
          "name": "tokenIds",
          "type": "uint256[]"
        }
      ],
      "name": "claimNativeDrops",
      "outputs": [],
      "stateMutability": "nonpayable",
      "type": "function"
    },
    {
      "inputs": [],
      "name": "claimOwnership",
      "outputs": [],
      "stateMutability": "nonpayable",
      "type": "function"
    },
    {
      "inputs": [
        {
          "internalType": "uint256[]",
          "name": "tokenIds",
          "type": "uint256[]"
        }
      ],
      "name": "claimRebornDrops",
      "outputs": [],
      "stateMutability": "nonpayable",
      "type": "function"
    },
    {
      "inputs": [
        {
          "internalType": "bytes32",
          "name": "seed",
          "type": "bytes32"
        },
        {
          "internalType": "address",
          "name": "user",
          "type": "address"
        },
        {
          "internalType": "uint256",
          "name": "reward",
          "type": "uint256"
        },
        {
          "internalType": "uint256",
          "name": "score",
          "type": "uint256"
        },
        {
          "internalType": "uint256",
          "name": "age",
          "type": "uint256"
        },
        {
          "internalType": "uint256",
          "name": "cost",
          "type": "uint256"
        },
        {
          "internalType": "string",
          "name": "creatorName",
          "type": "string"
        }
      ],
      "name": "engrave",
      "outputs": [],
      "stateMutability": "nonpayable",
      "type": "function"
    },
    {
      "inputs": [
        {
          "internalType": "uint256",
          "name": "tokenId",
          "type": "uint256"
        }
      ],
      "name": "flattenRewardDebt",
      "outputs": [],
      "stateMutability": "nonpayable",
      "type": "function"
    },
    {
      "inputs": [
        {
          "internalType": "uint256",
          "name": "tokenId",
          "type": "uint256"
        }
      ],
      "name": "getApproved",
      "outputs": [
        {
          "internalType": "address",
          "name": "",
          "type": "address"
        }
      ],
      "stateMutability": "view",
      "type": "function"
    },
    {
      "inputs": [],
      "name": "getDropConf",
      "outputs": [
        {
          "components": [
            {
              "internalType": "uint8",
              "name": "_dropOn",
              "type": "uint8"
            },
            {
              "internalType": "uint40",
              "name": "_rebornDropInterval",
              "type": "uint40"
            },
            {
              "internalType": "uint40",
              "name": "_nativeDropInterval",
              "type": "uint40"
            },
            {
              "internalType": "uint40",
              "name": "_rebornDropLastUpdate",
              "type": "uint40"
            },
            {
              "internalType": "uint40",
              "name": "_nativeDropLastUpdate",
              "type": "uint40"
            },
            {
              "internalType": "uint16",
              "name": "_nativeTopDropRatio",
              "type": "uint16"
            },
            {
              "internalType": "uint16",
              "name": "_nativeRaffleDropRatio",
              "type": "uint16"
            },
            {
              "internalType": "uint16",
              "name": "_rebornTopEthAmount",
              "type": "uint16"
            },
            {
              "internalType": "uint40",
              "name": "_rebornRaffleEthAmount",
              "type": "uint40"
            }
          ],
          "internalType": "struct PortalLib.AirdropConf",
          "name": "",
          "type": "tuple"
        }
      ],
      "stateMutability": "view",
      "type": "function"
    },
    {
      "inputs": [
        {
          "internalType": "uint256",
          "name": "tokenId",
          "type": "uint256"
        }
      ],
      "name": "getPool",
      "outputs": [
        {
          "components": [
            {
              "internalType": "uint256",
              "name": "totalAmount",
              "type": "uint256"
            },
            {
              "internalType": "uint256",
              "name": "accRebornPerShare",
              "type": "uint256"
            },
            {
              "internalType": "uint256",
              "name": "accNativePerShare",
              "type": "uint256"
            },
            {
              "internalType": "uint256",
              "name": "epoch",
              "type": "uint256"
            },
            {
              "internalType": "uint256",
              "name": "lastUpdated",
              "type": "uint256"
            }
          ],
          "internalType": "struct PortalLib.Pool",
          "name": "",
          "type": "tuple"
        }
      ],
      "stateMutability": "view",
      "type": "function"
    },
    {
      "inputs": [
        {
          "internalType": "address",
          "name": "user",
          "type": "address"
        },
        {
          "internalType": "uint256",
          "name": "tokenId",
          "type": "uint256"
        }
      ],
      "name": "getPortfolio",
      "outputs": [
        {
          "components": [
            {
              "internalType": "uint256",
              "name": "accumulativeAmount",
              "type": "uint256"
            },
            {
              "internalType": "uint256",
              "name": "rebornRewardDebt",
              "type": "uint256"
            },
            {
              "internalType": "uint256",
              "name": "nativeRewardDebt",
              "type": "uint256"
            },
            {
              "internalType": "uint256",
              "name": "pendingOwnerRebornReward",
              "type": "uint256"
            },
            {
              "internalType": "uint256",
              "name": "pendingOwnerNativeReward",
              "type": "uint256"
            }
          ],
          "internalType": "struct PortalLib.Portfolio",
          "name": "",
          "type": "tuple"
        }
      ],
      "stateMutability": "view",
      "type": "function"
    },
    {
      "inputs": [
        {
          "internalType": "address",
          "name": "account",
          "type": "address"
        }
      ],
      "name": "getRerferrers",
      "outputs": [
        {
          "internalType": "address",
          "name": "referrer1",
          "type": "address"
        },
        {
          "internalType": "address",
          "name": "referrer2",
          "type": "address"
        }
      ],
      "stateMutability": "view",
      "type": "function"
    },
    {
      "inputs": [
        {
          "components": [
            {
              "internalType": "uint256",
              "name": "talentPrice",
              "type": "uint256"
            },
            {
              "internalType": "uint256",
              "name": "propertyPrice",
              "type": "uint256"
            }
          ],
          "internalType": "struct IRebornDefination.Innate",
          "name": "innate",
          "type": "tuple"
        },
        {
          "internalType": "address",
          "name": "referrer",
          "type": "address"
        },
        {
          "internalType": "uint256",
          "name": "_soupPrice",
          "type": "uint256"
        }
      ],
      "name": "incarnate",
      "outputs": [],
      "stateMutability": "payable",
      "type": "function"
    },
    {
      "inputs": [
        {
          "internalType": "uint256",
          "name": "tokenId",
          "type": "uint256"
        },
        {
          "internalType": "uint256",
          "name": "amount",
          "type": "uint256"
        },
        {
          "internalType": "uint256",
          "name": "permitAmount",
          "type": "uint256"
        },
        {
          "internalType": "uint256",
          "name": "deadline",
          "type": "uint256"
        },
        {
          "internalType": "bytes32",
          "name": "r",
          "type": "bytes32"
        },
        {
          "internalType": "bytes32",
          "name": "s",
          "type": "bytes32"
        },
        {
          "internalType": "uint8",
          "name": "v",
          "type": "uint8"
        }
      ],
      "name": "infuse",
      "outputs": [],
      "stateMutability": "nonpayable",
      "type": "function"
    },
    {
      "inputs": [
        {
          "internalType": "uint256",
          "name": "tokenId",
          "type": "uint256"
        },
        {
          "internalType": "uint256",
          "name": "amount",
          "type": "uint256"
        }
      ],
      "name": "infuse",
      "outputs": [],
      "stateMutability": "nonpayable",
      "type": "function"
    },
    {
      "inputs": [
        {
          "internalType": "contract RBT",
          "name": "rebornToken_",
          "type": "address"
        },
        {
          "internalType": "address",
          "name": "owner_",
          "type": "address"
        },
        {
          "internalType": "string",
          "name": "name_",
          "type": "string"
        },
        {
          "internalType": "string",
          "name": "symbol_",
          "type": "string"
        },
        {
          "internalType": "address",
          "name": "_vrfCoordinator",
          "type": "address"
        }
      ],
      "name": "initialize",
      "outputs": [],
      "stateMutability": "nonpayable",
      "type": "function"
    },
    {
      "inputs": [
        {
          "internalType": "address",
          "name": "owner",
          "type": "address"
        },
        {
          "internalType": "address",
          "name": "operator",
          "type": "address"
        }
      ],
      "name": "isApprovedForAll",
      "outputs": [
        {
          "internalType": "bool",
          "name": "",
          "type": "bool"
        }
      ],
      "stateMutability": "view",
      "type": "function"
    },
    {
      "inputs": [],
      "name": "name",
      "outputs": [
        {
          "internalType": "string",
          "name": "",
          "type": "string"
        }
      ],
      "stateMutability": "view",
      "type": "function"
    },
    {
      "inputs": [],
      "name": "owner",
      "outputs": [
        {
          "internalType": "address",
          "name": "",
          "type": "address"
        }
      ],
      "stateMutability": "view",
      "type": "function"
    },
    {
      "inputs": [
        {
          "internalType": "uint256",
          "name": "tokenId",
          "type": "uint256"
        }
      ],
      "name": "ownerOf",
      "outputs": [
        {
          "internalType": "address",
          "name": "",
          "type": "address"
        }
      ],
      "stateMutability": "view",
      "type": "function"
    },
    {
      "inputs": [],
      "name": "pause",
      "outputs": [],
      "stateMutability": "nonpayable",
      "type": "function"
    },
    {
      "inputs": [],
      "name": "paused",
      "outputs": [
        {
          "internalType": "bool",
          "name": "",
          "type": "bool"
        }
      ],
      "stateMutability": "view",
      "type": "function"
    },
    {
      "inputs": [
        {
          "internalType": "uint256[]",
          "name": "tokenIds",
          "type": "uint256[]"
        }
      ],
      "name": "pendingDrop",
      "outputs": [
        {
          "internalType": "uint256",
          "name": "pNative",
          "type": "uint256"
        },
        {
          "internalType": "uint256",
          "name": "pReborn",
          "type": "uint256"
        }
      ],
      "stateMutability": "view",
      "type": "function"
    },
    {
      "inputs": [],
      "name": "pendingOwner",
      "outputs": [
        {
          "internalType": "address",
          "name": "",
          "type": "address"
        }
      ],
      "stateMutability": "view",
      "type": "function"
    },
    {
      "inputs": [
        {
          "internalType": "bytes",
          "name": "performData",
          "type": "bytes"
        }
      ],
      "name": "performUpkeep",
      "outputs": [],
      "stateMutability": "nonpayable",
      "type": "function"
    },
    {
      "inputs": [],
      "name": "proxiableUUID",
      "outputs": [
        {
          "internalType": "bytes32",
          "name": "",
          "type": "bytes32"
        }
      ],
      "stateMutability": "view",
      "type": "function"
    },
    {
      "inputs": [
        {
          "internalType": "uint256",
          "name": "requestId",
          "type": "uint256"
        },
        {
          "internalType": "uint256[]",
          "name": "randomWords",
          "type": "uint256[]"
        }
      ],
      "name": "rawFulfillRandomWords",
      "outputs": [],
      "stateMutability": "nonpayable",
      "type": "function"
    },
    {
      "inputs": [],
      "name": "rebornToken",
      "outputs": [
        {
          "internalType": "contract RBT",
          "name": "",
          "type": "address"
        }
      ],
      "stateMutability": "view",
      "type": "function"
    },
    {
      "inputs": [],
      "name": "renounceOwnership",
      "outputs": [],
      "stateMutability": "nonpayable",
      "type": "function"
    },
    {
      "inputs": [],
      "name": "rewardFees",
      "outputs": [
        {
          "internalType": "uint16",
          "name": "incarnateRef1Fee",
          "type": "uint16"
        },
        {
          "internalType": "uint16",
          "name": "incarnateRef2Fee",
          "type": "uint16"
        },
        {
          "internalType": "uint16",
          "name": "vaultRef1Fee",
          "type": "uint16"
        },
        {
          "internalType": "uint16",
          "name": "vaultRef2Fee",
          "type": "uint16"
        },
        {
          "internalType": "uint192",
          "name": "_slotPlaceholder",
          "type": "uint192"
        }
      ],
      "stateMutability": "view",
      "type": "function"
    },
    {
      "inputs": [
        {
          "internalType": "address",
          "name": "from",
          "type": "address"
        },
        {
          "internalType": "address",
          "name": "to",
          "type": "address"
        },
        {
          "internalType": "uint256",
          "name": "tokenId",
          "type": "uint256"
        }
      ],
      "name": "safeTransferFrom",
      "outputs": [],
      "stateMutability": "nonpayable",
      "type": "function"
    },
    {
      "inputs": [
        {
          "internalType": "address",
          "name": "from",
          "type": "address"
        },
        {
          "internalType": "address",
          "name": "to",
          "type": "address"
        },
        {
          "internalType": "uint256",
          "name": "tokenId",
          "type": "uint256"
        },
        {
          "internalType": "bytes",
          "name": "data",
          "type": "bytes"
        }
      ],
      "name": "safeTransferFrom",
      "outputs": [],
      "stateMutability": "nonpayable",
      "type": "function"
    },
    {
      "inputs": [
        {
          "internalType": "bytes32",
          "name": "seed",
          "type": "bytes32"
        }
      ],
      "name": "seedExists",
      "outputs": [
        {
          "internalType": "bool",
          "name": "",
          "type": "bool"
        }
      ],
      "stateMutability": "view",
      "type": "function"
    },
    {
      "inputs": [
        {
          "internalType": "address",
          "name": "operator",
          "type": "address"
        },
        {
          "internalType": "bool",
          "name": "approved",
          "type": "bool"
        }
      ],
      "name": "setApprovalForAll",
      "outputs": [],
      "stateMutability": "nonpayable",
      "type": "function"
    },
    {
      "inputs": [
        {
          "internalType": "bool",
          "name": "isBeta_",
          "type": "bool"
        }
      ],
      "name": "setBeta",
      "outputs": [],
      "stateMutability": "nonpayable",
      "type": "function"
    },
    {
      "inputs": [
        {
          "internalType": "address",
          "name": "burnPool_",
          "type": "address"
        }
      ],
      "name": "setBurnPool",
      "outputs": [],
      "stateMutability": "nonpayable",
      "type": "function"
    },
    {
      "inputs": [
        {
          "components": [
            {
              "internalType": "uint8",
              "name": "_dropOn",
              "type": "uint8"
            },
            {
              "internalType": "uint40",
              "name": "_rebornDropInterval",
              "type": "uint40"
            },
            {
              "internalType": "uint40",
              "name": "_nativeDropInterval",
              "type": "uint40"
            },
            {
              "internalType": "uint40",
              "name": "_rebornDropLastUpdate",
              "type": "uint40"
            },
            {
              "internalType": "uint40",
              "name": "_nativeDropLastUpdate",
              "type": "uint40"
            },
            {
              "internalType": "uint16",
              "name": "_nativeTopDropRatio",
              "type": "uint16"
            },
            {
              "internalType": "uint16",
              "name": "_nativeRaffleDropRatio",
              "type": "uint16"
            },
            {
              "internalType": "uint16",
              "name": "_rebornTopEthAmount",
              "type": "uint16"
            },
            {
              "internalType": "uint40",
              "name": "_rebornRaffleEthAmount",
              "type": "uint40"
            }
          ],
          "internalType": "struct PortalLib.AirdropConf",
          "name": "conf",
          "type": "tuple"
        }
      ],
      "name": "setDropConf",
      "outputs": [],
      "stateMutability": "nonpayable",
      "type": "function"
    },
    {
      "inputs": [
        {
          "internalType": "uint256",
          "name": "extraReward",
          "type": "uint256"
        }
      ],
      "name": "setExtraReward",
      "outputs": [],
      "stateMutability": "nonpayable",
      "type": "function"
    },
    {
      "inputs": [
        {
          "internalType": "uint256",
          "name": "limit",
          "type": "uint256"
        }
      ],
      "name": "setIncarnationLimit",
      "outputs": [],
      "stateMutability": "nonpayable",
      "type": "function"
    },
    {
      "inputs": [
        {
          "internalType": "uint16",
          "name": "refL1Fee",
          "type": "uint16"
        },
        {
          "internalType": "uint16",
          "name": "refL2Fee",
          "type": "uint16"
        },
        {
          "internalType": "enum PortalLib.RewardType",
          "name": "rewardType",
          "type": "uint8"
        }
      ],
      "name": "setReferrerRewardFee",
      "outputs": [],
      "stateMutability": "nonpayable",
      "type": "function"
    },
    {
      "inputs": [
        {
          "internalType": "contract RewardVault",
          "name": "vault_",
          "type": "address"
        }
      ],
      "name": "setVault",
      "outputs": [],
      "stateMutability": "nonpayable",
      "type": "function"
    },
    {
      "inputs": [
        {
          "components": [
            {
              "internalType": "bytes32",
              "name": "keyHash",
              "type": "bytes32"
            },
            {
              "internalType": "uint64",
              "name": "s_subscriptionId",
              "type": "uint64"
            },
            {
              "internalType": "uint32",
              "name": "callbackGasLimit",
              "type": "uint32"
            },
            {
              "internalType": "uint32",
              "name": "numWords",
              "type": "uint32"
            },
            {
              "internalType": "uint16",
              "name": "requestConfirmations",
              "type": "uint16"
            }
          ],
          "internalType": "struct PortalLib.VrfConf",
          "name": "conf",
          "type": "tuple"
        }
      ],
      "name": "setVrfConf",
      "outputs": [],
      "stateMutability": "nonpayable",
      "type": "function"
    },
    {
      "inputs": [
        {
          "internalType": "address",
          "name": "",
          "type": "address"
        }
      ],
      "name": "signers",
      "outputs": [
        {
          "internalType": "bool",
          "name": "",
          "type": "bool"
        }
      ],
      "stateMutability": "view",
      "type": "function"
    },
    {
      "inputs": [
        {
          "internalType": "bytes4",
          "name": "interfaceId",
          "type": "bytes4"
        }
      ],
      "name": "supportsInterface",
      "outputs": [
        {
          "internalType": "bool",
          "name": "",
          "type": "bool"
        }
      ],
      "stateMutability": "view",
      "type": "function"
    },
    {
      "inputs": [
        {
          "internalType": "uint256",
          "name": "fromTokenId",
          "type": "uint256"
        },
        {
          "internalType": "uint256",
          "name": "toTokenId",
          "type": "uint256"
        },
        {
          "internalType": "uint256",
          "name": "amount",
          "type": "uint256"
        }
      ],
      "name": "switchPool",
      "outputs": [],
      "stateMutability": "nonpayable",
      "type": "function"
    },
    {
      "inputs": [],
      "name": "symbol",
      "outputs": [
        {
          "internalType": "string",
          "name": "",
          "type": "string"
        }
      ],
      "stateMutability": "view",
      "type": "function"
    },
    {
      "inputs": [],
      "name": "toNextSeason",
      "outputs": [],
      "stateMutability": "nonpayable",
      "type": "function"
    },
    {
      "inputs": [
        {
          "internalType": "uint256",
          "name": "tokenId",
          "type": "uint256"
        }
      ],
      "name": "tokenURI",
      "outputs": [
        {
          "internalType": "string",
          "name": "",
          "type": "string"
        }
      ],
      "stateMutability": "view",
      "type": "function"
    },
    {
      "inputs": [
        {
          "internalType": "address",
          "name": "from",
          "type": "address"
        },
        {
          "internalType": "address",
          "name": "to",
          "type": "address"
        },
        {
          "internalType": "uint256",
          "name": "tokenId",
          "type": "uint256"
        }
      ],
      "name": "transferFrom",
      "outputs": [],
      "stateMutability": "nonpayable",
      "type": "function"
    },
    {
      "inputs": [
        {
          "internalType": "address",
          "name": "newOwner",
          "type": "address"
        },
        {
          "internalType": "bool",
          "name": "direct",
          "type": "bool"
        }
      ],
      "name": "transferOwnership",
      "outputs": [],
      "stateMutability": "nonpayable",
      "type": "function"
    },
    {
      "inputs": [],
      "name": "unPause",
      "outputs": [],
      "stateMutability": "nonpayable",
      "type": "function"
    },
    {
      "inputs": [
        {
          "internalType": "address[]",
          "name": "toAdd",
          "type": "address[]"
        },
        {
          "internalType": "address[]",
          "name": "toRemove",
          "type": "address[]"
        }
      ],
      "name": "updateSigners",
      "outputs": [],
      "stateMutability": "nonpayable",
      "type": "function"
    },
    {
      "inputs": [
        {
          "internalType": "address",
          "name": "newImplementation",
          "type": "address"
        }
      ],
      "name": "upgradeTo",
      "outputs": [],
      "stateMutability": "nonpayable",
      "type": "function"
    },
    {
      "inputs": [
        {
          "internalType": "address",
          "name": "newImplementation",
          "type": "address"
        },
        {
          "internalType": "bytes",
          "name": "data",
          "type": "bytes"
        }
      ],
      "name": "upgradeToAndCall",
      "outputs": [],
      "stateMutability": "payable",
      "type": "function"
    },
    {
      "inputs": [],
      "name": "vault",
      "outputs": [
        {
          "internalType": "contract RewardVault",
          "name": "",
          "type": "address"
        }
      ],
      "stateMutability": "view",
      "type": "function"
    },
    {
      "inputs": [
        {
          "internalType": "uint256",
          "name": "amount",
          "type": "uint256"
        }
      ],
      "name": "withdrawNativeToken",
      "outputs": [],
      "stateMutability": "nonpayable",
      "type": "function"
    },
    {
      "inputs": [
        {
          "internalType": "address",
          "name": "to",
          "type": "address"
        }
      ],
      "name": "withdrawVault",
      "outputs": [],
      "stateMutability": "nonpayable",
      "type": "function"
    }
  ],
  "transactionHash": "0xcae496602b87f1ab1703a672864ff071156e2fe76297365d450021e515b8f4c5",
  "args": [],
  "numDeployments": 19,
  "solcInputHash": "9f43e61c4cd78caca04dca1819be1636",
  "bytecode": "0x60a08060405234610032573060805261566c9081620000388239608051818181611df001528181611f500152612b770152f35b600080fdfe608080604052600436101561001357600080fd5b600090813560e01c90816301ffc9a7146141a357508063068bcd8d1461416457806306fdde03146140bb578063081812fc1461409c578063095ea7b314613f255780630aaef80214613e465780630e357a6e14613db557806316a065c614613d8c57806317e0f25214613d3c5780631fe543e314613bbf57806320dfe3c61461359f57806323b872dd1461357a57806328275338146134155780632bf8e8f6146133c857806332eb808a146132ae578063350b2369146131d4578063362925c214612d205780633659cfe614612b5057806339c1750214612a1557806342842e0e146129d057806343f0e993146129755780634585e33b146122895780634e71e0c81461220d5780634f1ef28614611f105780635114859714611ea157806352d1902d14611ddd57806358c7a06314611d135780635c975abb14611cef578063603d080014611c905780636352211e14611c5f5780636817031b14611beb5780636e04ff0d14611b9157806370a0823114611afa578063715018a614611a79578063736c0d5b14611a3a57806376f7a9fc1461185c578063802e9cfa146117ea5780638456cb59146117845780638d47a30d146116815780638da5cb5b14611658578063918c49e4146114a05780639208b21e146113ee57806395d89b41146113035780639aab85e5146112a25780639d2150421461119c578063a22cb465146110c9578063a54b2a731461109f578063a94466c014610fea578063afd5f74714610ee4578063b242e53414610e6a578063b88d4fde14610df5578063b9e53a9f14610b6d578063c3b82b8d14610826578063c417db69146107ce578063c87b56dd146106d2578063db640081146105e5578063e30c3978146105bc578063e4421be21461046b578063e985e9c514610416578063f7b188a5146103b3578063fbd782351461036f578063fbfa77cf146103455763ff9c7543146102d657600080fd5b3461034257602036600319011261034257603354600435906001600160a01b03163303610330576020817f39feb9fafd10c5355c86cdccca7884a183c4dd524ca37b0761575ce0974cdb069261011155604051908152a180f35b604051632e6c18c960e11b8152600490fd5b80fd5b5034610342578060031936011261034257610104546040516001600160a01b039091168152602090f35b50346103425760203660031901126103425760206103a960043560ff6001918060081c600052610105602052161b60406000205416151590565b6040519015158152f35b50346103425780600319360112610342576033546001600160a01b03163303610330576103de614daf565b61019460ff1981541690557f5db9ee0a495bf2e6ff9c91a7834c1ba4fdd244a5e8aa4e537bd38aeae4b073aa6020604051338152a180f35b503461034257604036600319011261034257610430614258565b604061043a61426e565b9260018060a01b038093168152610135602052209116600052602052602060ff604060002054166040519015158152f35b50346103425760403660031901126105b75760043561048861555f565b610490614c92565b610498614cd7565b8173E428a2D5062e017F4526d19D4738ece5801D973760fb5482526101018060205260408320823b1561059057604051906329caab3960e11b825285600483015260248201528381604481865af49081156105ac578491610594575b505060018060a01b0361010454169060fb54845260205260408320823b1561059057604051630b06bff360e21b8152600481018690526001600160a01b039290921660248301526044820152908290829060649082905af480156105855761056d575b5060016101625561056a6024358361511b565b80f35b610576906142a0565b610581578138610557565b5080fd5b6040513d84823e3d90fd5b8380fd5b61059d906142a0565b6105a85782386104f4565b8280fd5b6040513d86823e3d90fd5b600080fd5b50346103425780600319360112610342576034546040516001600160a01b039091168152602090f35b50346103425760208060031936011261058157816004356001600160401b038111610581579161061a82933690600401614418565b92909161062561555f565b61062d614c92565b73E428a2D5062e017F4526d19D4738ece5801D973792825b858110610650578380f35b61065b818784614d89565b3560fb548552610101845260408520863b156106ce57604051916329caab3960e11b8352600483015260248201528481604481895af49081156106c35785916106af575b50506106aa90614d2e565b610645565b6106b8906142a0565b61059057838861069f565b6040513d87823e3d90fd5b8580fd5b50346103425760208060031936011261058157604051632f8218bd60e21b815261010060048201526004356024820152828160448173A8419025297971F6b4ECAB6FB82BF00de881a5785af49283156107c2578093610746575b5050610742604051928284938452830190614233565b0390f35b909192503d8082843e6107598184614320565b8201918381840312610581578051906001600160401b0382116105a8570182601f820112156105815780519161078e83614448565b9361079c6040519586614320565b8385528584840101116103425750906107ba91848085019101614210565b90388061072c565b604051903d90823e3d90fd5b5034610342576020366003190112610342576001600160a01b03806107f1614258565b16825261010260209081526040808420548316808552938190205481516001600160a01b039586168152931690931690820152f35b50346103425760603660031901126103425760243560043560443561084961555f565b610851614c92565b610859614cd7565b73E428a2D5062e017F4526d19D4738ece5801D97379160fb5485526101018560209482865260408220813b156105a8576040516329caab3960e11b9182825286600483015260248201528381604481865af49081156105ac578491610b59575b5050610104805460fb548552858952604085206001600160a01b039182169290853b15610b5557604051630b06bff360e21b808252600482018b90526001600160a01b0395909516602482015260448101919091528681606481895af4908115610b32578791610b41575b50506101629360018555610936614cd7565b60fb548752878b5260408720863b15610b3d576040519182528c600483015260248201528681604481895af4908115610b32578791610b1e575b505054169060fb54855285895260408520843b156106ce57604051918252600482018b90526001600160a01b0392909216602482015260448101919091528381606481865af49081156105ac578491610b0a575b50506001905560fb549283835280875260016040842001336000528752604060002085845287526040832093835286526040822084835286526040822092610a0d868254614b54565b8155610a1a868554614b54565b8455813b156105a8578290604460405180948193636496053360e01b835288600484015260248301525af4801561058557610af6575b5050610a5d90548261535d565b60405190815281838201527fe6907eb8ffc12ac27891b5560db15647cae89e2b344f0c34c63bb6f1d4249cff60403392a2605f810290808204605f1490151715610ae2576064900490610ab082846153ed565b6040519283528201527f7e9ecb928e58cb1d1c8cda62ae789939f9f184616eb26ef72e801f98b6ef556a60403392a280f35b634e487b7160e01b84526011600452602484fd5b610aff906142a0565b6106ce578538610a50565b610b13906142a0565b6105a85782386109c4565b610b27906142a0565b6106ce578538610970565b6040513d89823e3d90fd5b8780fd5b610b4a906142a0565b6106ce578538610924565b8680fd5b610b62906142a0565b6105a85782386108b9565b503660031901608081126105815760401361034257604051604081018181106001600160401b03821117610ddf5760405260043581526024356020808301918252916044356001600160a01b0381811692918381036105b757606435933388526101108088526040892054610111541115610dcd5733895287526040882080549060018201809211610db95755610c02614c92565b610c0a614cd7565b338852610102928388526040892054161580610db0575b80610da6575b610d4e575b5050610c44610c3c835185614b61565b855190614b61565b803410610d3c57869182808080610c5b8634614b54565b818115610d33575b3390f1156105855760fb5483526101018752600f6040842001610c87348254614b61565b905573E428a2D5062e017F4526d19D4738ece5801D973791823b1561059057608484926040519485938492633039061160e01b84526004840152610103602484015233604484015260648301525af4801561058557610d1b575b50507f617b1a2bf0533cea0c5dd46104e1d48f8b290fc7d7360dba0182dbf07a00e46a90519251936040519283523392a460016101625580f35b610d24906142a0565b610d2f578438610ce1565b8480fd5b506108fc610c63565b604051632ca2f52b60e11b8152600490fd5b604080892080546001600160a01b0319169290921790915580513381526001600160a01b039290921660208301527f677cd8c8ce12dc7827579d65be5e6efa74b6ac9ab04ac43d4648dc85d328c2ae91a13880610c2c565b5033811415610c27565b50801515610c21565b634e487b7160e01b8a52601160045260248afd5b60405163d92de14f60e01b8152600490fd5b634e487b7160e01b600052604160045260246000fd5b503461034257608036600319011261034257610e0f614258565b610e1761426e565b90606435906044356001600160401b038311610d2f5761056a93610e42610e6594369060040161449a565b92610e55610e508433614808565b614733565b610e608383836148d1565b614ad9565b6147e8565b503461034257604036600319011261034257610e84614258565b610e8c6144b8565b6033549091906001600160a01b039081163303610330578116918215610ed25715610ebb5761056a9150614bae565b506001600160601b0360a01b603454161760345580f35b604051633aafecb360e21b8152600490fd5b50346103425780600319360112610342576033546001600160a01b031633036103305760fb54906001820191828111610fd6578260fb55610f23614c92565b610194600160ff198254161790557f62e78cea01bee320cd4e420270b5ea74000d11b0c9f74754ebdbfc544b05a2586020604051338152a1815261010180602052600f604083200154908160041b9180830460101490151715610fc25782936064935260205204600f6040832001557f3bf8992b1ca7018d446bcf1d45dc7a62e50decf5248434be4194aef154463380602060fb54604051908152a180f35b634e487b7160e01b83526011600452602483fd5b634e487b7160e01b82526011600452602482fd5b5034610342578060208060031936011261109c5760043560fb549182845261010180825260408520838652825260408520938552815260016040852001336000528152604060002091845252604082209073E428a2D5062e017F4526d19D4738ece5801D973791823b1561109757604484926040519485938492636496053360e01b8452600484015260248301525af48015610585576110875750f35b611090906142a0565b6103425780f35b505050fd5b50fd5b5034610342578060031936011261034257610107546040516001600160a01b039091168152602090f35b5034610342576040366003190112610342576110e3614258565b6110eb6144b8565b6001600160a01b039091169033821461115757338352610135602052604083208260005260205260406000209015159060ff1981541660ff83161790556040519081527f17307eab39ab6107e8899845ad3d59bd9653f200f220920489ca2b5937696c3160203392a380f35b60405162461bcd60e51b815260206004820152601960248201527f4552433732313a20617070726f766520746f2063616c6c6572000000000000006044820152606490fd5b50346103425760a0366003190112610342576033546001600160a01b031633036103305760043580610108556024356001600160401b0381168091036105a857610109918254916044359363ffffffff91828616908187036105b757606435938416928385036105b7576084359661ffff8816958689036105b7577f3510c45fb24ce728b56d5136c57163ff69e25ab31ac04a1264387c7acff6c41e996bffffffff00000000000000008560a09b61ffff60801b9060801b169471ffffffffffffffffffffffffffffffffffff1916179160401b16179063ffffffff60601b9060601b16171790556040519485526020850152604084015260608301526080820152a180f35b5034610342576020366003190112610342576033546001600160a01b0390811633036103305781906101075416803b1561109c57818091602460405180948193630852cd8d60e31b835260043560048401525af18015610585576110875750f35b5034610342578060031936011261034257604051908061013190815490611329826146b9565b808652926001928084169081156113c15750600114611367575b6107428661135381880382614320565b604051918291602083526020830190614233565b815292507fbd987ad6ccdb7c7567f7335ea839f95dc944431abcf935b6924f70215963db735b8284106113a95750505081016020016113538261074238611343565b8054602085870181019190915290930192810161138d565b90508695506107429693506020925061135394915060ff191682840152151560051b820101929338611343565b50346103425760603660031901126103425760043561ffff908181168091036105b7576024359182168092036105b757604435906002821015610590576033546001600160a01b0316330361033057839273E428a2D5062e017F4526d19D4738ece5801D9737803b15610d2f5784926084916114916040519687958694631747e07760e01b86526101036004870152602486015260448501526064840190614e42565b5af48015610585576110875750f35b50346103425760e03660031901126103425760043560c43560ff81168091036105b75782906114cd61555f565b6114d5614c92565b6114dd614cd7565b73E428a2D5062e017F4526d19D4738ece5801D973760fb548352610101908160205260408420813b15610d2f57604051906329caab3960e11b825286600483015260248201528481604481855af49081156106c3578591611644575b50506101045460fb548552602092909252604084206001600160a01b0392831690823b156106ce57604051630b06bff360e21b8152600481018890526001600160a01b039290921660248301526044820152908490829060649082905af49081156105ac578491611630575b505060016101625560fc541690813b156105a857829160e48392604051948593849263d505accf60e01b845233600485015230602485015260443560448501526064356064850152608484015260843560a484015260a43560c48401525af180156105855761161c575b5061056a6024358361511b565b611625906142a0565b61058157813861160f565b611639906142a0565b6105a85782386115a5565b61164d906142a0565b610590578338611539565b50346103425780600319360112610342576033546040516001600160a01b039091168152602090f35b5034610342578060208060031936011261109c576004356001600160401b038111611780576116b583913690600401614418565b9190926116c061555f565b6116c8614c92565b73E428a2D5062e017F4526d19D4738ece5801D973792825b8181106116eb578380f35b6116f6818388614d89565b6101045460fb5486526101018552604086209135906001600160a01b0316873b15610b5557604051630b06bff360e21b815260048101929092526001600160a01b0316602482015260448101919091528481606481895af49081156106c357859161176c575b505061176790614d2e565b6116e0565b611775906142a0565b61059057838861175c565b5050fd5b50346103425780600319360112610342576033546001600160a01b03163303610330576117af614c92565b610194600160ff198254161790557f62e78cea01bee320cd4e420270b5ea74000d11b0c9f74754ebdbfc544b05a2586020604051338152a180f35b503461034257602036600319011261034257611804614258565b61180c614daf565b6033546001600160a01b03908116330361033057829181610104541691823b1561109757602484928360405195869485936350e0278760e11b85521660048401525af18015610585576110875750f35b503461034257610120366003190112610342576033546001600160a01b031633036103305760043560ff811681036105815764ffffffffff60243516602435036105b75764ffffffffff60443516604435036105b75764ffffffffff60643516606435036105b75764ffffffffff60843516608435036105b75761ffff8060a4351660a435036105b7578060c4351660c435036105b7578060e4351660e435036105b75764ffffffffff610104351661010435036105b7577f75dab8e449fbbb96e7a6aba10424f40cd398bf158f0be1270be90389a3eeef7e916101209164ffffffffff60d81b6101043560d81b1660ff831665ffffffffff0060243560081b16176affffffffff00000000000060443560301b161764ffffffffff60581b60643560581b161764ffffffffff60801b60843560801b161761ffff60a81b60a43560a81b161761ffff60b81b60c43560b81b161761ffff60c81b60e43560c81b1617176101065560ff6040519216825264ffffffffff60243516602083015264ffffffffff60443516604083015264ffffffffff60643516606083015264ffffffffff6084351660808301528060a4351660a08301528060c4351660c083015260e4351660e082015264ffffffffff6101043516610100820152a180f35b50346103425760203660031901126103425760209060ff906040906001600160a01b03611a65614258565b16815260fd84522054166040519015158152f35b50346103425780600319360112610342576033546001600160a01b03811633810361033057600091827fb53127684a568b3173ae13b9f8a6016e243e63b6e8ee1178d6a717850b5d6103556001600160601b0360a01b166033557f8be0079c531659141344cd1fd0a4f28419497f9722a3daafe3b4186f6b6457e08280a380f35b5034610342576020366003190112610342576001600160a01b03611b1c614258565b168015611b3a57816040916020935261013383522054604051908152f35b60405162461bcd60e51b815260206004820152602960248201527f4552433732313a2061646472657373207a65726f206973206e6f7420612076616044820152683634b21037bbb732b960b91b6064820152608490fd5b5034610342576020366003190112610342576004356001600160401b03811161058157611bc29036906004016143b6565b5050611bcc614eb2565b9061074260405192839215158352604060208401526040830190614233565b5034610342576020366003190112610342576004356001600160a01b03818116918290036105a8576033541633036103305761010480546001600160a01b031916821790556040519081527fe7ae49f883c825b05681b3e00e8be6fdea9ed2a8a45e4c6ecb9390fc44cce61590602090a180f35b5034610342576020366003190112610342576020611c7e600435614695565b6040516001600160a01b039091168152f35b503461034257602036600319011261034257611caa614258565b6033546001600160a01b0391908216330361033057168015611cdd5761010780546001600160a01b031916909117905580f35b604051630ae8f22360e21b8152600490fd5b5034610342578060031936011261034257602060ff61019454166040519015158152f35b503461034257604036600319011261034257611d2d614258565b60243590611d39615534565b611d41614c92565b610104546001600160a01b03919084908316803b15610581576040516310b3879160e11b81526001600160a01b0384166004820152602481018690529082908290604490829084905af1801561058557611dc9575b50507f7a0984e898d33e4bf6ad9f851bfab5517683d3dae5b57ed58fa8c7152d822e32916020916040519485521692a280f35b611dd2906142a0565b610590578338611d96565b50346103425780600319360112610342577f00000000000000000000000000000000000000000000000000000000000000006001600160a01b03163003611e365760206040516000805160206156178339815191528152f35b60405162461bcd60e51b815260206004820152603860248201527f555550535570677261646561626c653a206d757374206e6f742062652063616c60448201527f6c6564207468726f7567682064656c656761746563616c6c00000000000000006064820152608490fd5b5034610342576020366003190112610342576004358015158091036105b7576033546001600160a01b031633036103305760207f25b74b79765378f42707bcd2a5098af3c53ce7725211f607991f12c40d148a7f9161010f60ff1981541660ff8316179055604051908152a180f35b50604036600319011261034257611f25614258565b906024356001600160401b03811161058157611f4590369060040161449a565b916001600160a01b037f0000000000000000000000000000000000000000000000000000000000000000811690611f7e308314156144c7565b611f9b600080516020615617833981519152928284541614614528565b80603354163303610330577f4910fdfa16fed3260ed0e7147f7cc6da11a60208b5b9406d12a635614ffd91435460ff1615611fdd57505061056a919250614589565b6040516352d1902d60e01b8152602094939291831691908581600481865afa600091816121de575b506120665760405162461bcd60e51b815260048101879052602e60248201527f45524331393637557067726164653a206e657720696d706c656d656e7461746960448201526d6f6e206973206e6f74205555505360901b6064820152608490fd5b949394036121875761207782614589565b604051907fbc7cd75a20ee27fd9adebab32041f755214dbc6bffa90cc0225b39da2e5c2d3b600080a284511580159061217f575b6120b8575b505050905080f35b813b1561212e57506000848192846121249697519201905af46120d9614619565b907f416464726573733a206c6f772d6c6576656c2064656c65676174652063616c6c60405193612108856142e9565b60278552840152660819985a5b195960ca1b6040840152614b6e565b50803880806120b0565b62461bcd60e51b815260048101839052602660248201527f416464726573733a2064656c65676174652063616c6c20746f206e6f6e2d636f6044820152651b9d1c9858dd60d21b6064820152608490fd5b5060016120ab565b60405162461bcd60e51b815260048101849052602960248201527f45524331393637557067726164653a20756e737570706f727465642070726f786044820152681a58589b195555525160ba1b6064820152608490fd5b90918782813d8311612206575b6121f58183614320565b810103126103425750519038612005565b503d6121eb565b50346103425780600319360112610342576034546001600160a01b03908181163381900361227757806033549384167f8be0079c531659141344cd1fd0a4f28419497f9722a3daafe3b4186f6b6457e08680a36001600160a01b0319928316176033551660345580f35b6040516305e05b4b60e31b8152600490fd5b503461034257602080600319360112610581576001600160401b0390600435828111610590576122bf60409136906004016143b6565b908092916122cb614c92565b810103126105b757808201359035600181036124195750506101069182549060ff8216156124075761239c93839264ffffffffff60581b612310610e10420642614b54565b60581b1664ffffffffff60581b19919091161790556101c6546101085461010954604080516305d3b1d360e41b815260048101939093529381166001600160401b0316602483015261ffff608082901c16604483015263ffffffff9381901c8416606483015260601c9092166084830152909384916001600160a01b03169082908790829060a4820190565b03925af180156123fc5783906123cd575b835261010a90525060408120805463ff00ff001916630100010017905580f35b508082813d83116123f5575b6123e38183614320565b810103126105b75761010a91516123ad565b503d6123d9565b6040513d85823e3d90fd5b60405163a397eb4760e01b8152600490fd5b600281036125475750506101069182549060ff821615612407576124e793839264ffffffffff60801b612450610e10420642614b54565b64ffffffffff60801b19909216608092831b91909116179091556101c6546101085461010954604080516305d3b1d360e41b815260048101939093526001600160401b039582169590951660248301529283901c61ffff1660448201529282901c63ffffffff908116606485015260609290921c9091166084830152909384916001600160a01b03169082908790829060a4820190565b03925af180156123fc578390612518575b835261010a90525060408120805463ff00ff001916630200010017905580f35b508082813d8311612540575b61252e8183614320565b810103126105b75761010a91516124f8565b503d612524565b919392509060039081810361270c57506101069060ff825416156124075761256d61527a565b946125766152f9565b9573E428a2D5062e017F4526d19D4738ece5801D97379160fb548752610101918282526040882090843b156127085760405163df8fd62160e01b815260606004820152918991839182916125ce906064840190614e65565b908a602484015260448301520381875af480156126fd579088916126e9575b505060405193976125fd85614304565b600a90818652610140368488013787895261010a835260408920805462ff000019166201000017815560010199895b8381106126b2575050505086975060fb969596548652526040842090803b15610d2f5761267985936040519586948593849363b2bdfd6b60e01b8552606060048601526064850190614e65565b916024840152604483015203915af480156105855761269e575b505061056a9061557e565b6126a7906142a0565b610581578138612693565b806126d3605a6126c68f946126e4956151d5565b905490861b1c06856151ed565b516126de828b6151ed565b52614d2e565b61262c565b6126f2906142a0565b610b555786386125ed565b6040513d8a823e3d90fd5b8880fd5b92939260041461271d575b50505080f35b6101069060ff825416156124075761273361527a565b9161273c6152f9565b9173E428a2D5062e017F4526d19D4738ece5801D973760fb54885287610101958689526040822090833b156105a85760405163069381c360e51b81526060600482015291839183918291612794906064840190614e65565b9089602484015260448301520381865af4801561058557612961575b509190604051916127c083614304565b600a95868452610140368b86013788855261010a8a5260408520805462ff000019166201000017815560010191855b888110612931575050505060fb5483528588526040832091813b15610590578391612838916040518095819482936353ce4e5160e11b8452606060048501526064840190614e65565b90896024840152604483015203915af480156105855761291d575b50505461ffff808260a81c1691838302928084048514901517156129095760b81c168281029281840414901517156128f5579061288f91614b61565b9060fb5493848652818152600f604087200154928381029381850414901517156128df576128d7948652526128d0612710600f604087200192048254614b54565b905561557e565b388080612717565b634e487b7160e01b600052601160045260246000fd5b634e487b7160e01b86526011600452602486fd5b634e487b7160e01b88526011600452602488fd5b612926906142a0565b6106ce578538612853565b839495965061294a605a6126c6836129559596976151d5565b516126de82896151ed565b908b95949392916127ef565b61296a906142a0565b610b3d5787386127b0565b503461034257602036600319011261034257603354600435906001600160a01b03163303610330576020817f895ece2457e03622f6eab9f28377343eca29710870eb9636d6794049860e53fc9261010e55604051908152a180f35b5034610342576129df366143e3565b6040519060208201928284106001600160401b03851117610ddf5761056a94610e6594604052868452610e55610e508433614808565b5034610342578060031936011261034257610100604051612a3581614284565b8281528260208201528260408201528260608201528260808201528260a08201528260c08201528260e08201520152610120604051612a7381614284565b64ffffffffff610100610106549260ff84168152828460081c166020820152828460301c166040820152828460581c166060820152828460801c16608082015261ffff8460a81c1660a082015261ffff8460b81c1660c082015261ffff8460c81c1660e08201528360d81c8282015260ff6040519416845282602082015116602085015282604082015116604085015282606082015116606085015282608082015116608085015261ffff60a08201511660a085015261ffff60c08201511660c085015261ffff60e08201511660e0850152015116610100820152f35b5034610342576020908160031936011261034257612b6c614258565b6001600160a01b03927f00000000000000000000000000000000000000000000000000000000000000008416612ba4308214156144c7565b612bc1600080516020615617833981519152918683541614614528565b846033541633036103305760405194612bd9866142ce565b8486527f4910fdfa16fed3260ed0e7147f7cc6da11a60208b5b9406d12a635614ffd91435460ff1615612c145750505061056a919250614589565b8392949316906040516352d1902d60e01b81528581600481865afa60009181612cf1575b50612c995760405162461bcd60e51b815260048101879052602e60248201527f45524331393637557067726164653a206e657720696d706c656d656e7461746960448201526d6f6e206973206e6f74205555505360901b6064820152608490fd5b9493940361218757612caa82614589565b604051907fbc7cd75a20ee27fd9adebab32041f755214dbc6bffa90cc0225b39da2e5c2d3b600080a2845115801590612ce9576120b857505050905080f35b5060006120ab565b90918782813d8311612d19575b612d088183614320565b810103126103425750519038612c38565b503d612cfe565b50346103425760a0366003190112610342576001600160a01b03600435818116908190036105a857612d5061426e565b916001600160401b03916044358381116106ce57612d7290369060040161449a565b91606435848111610b5557612d8b90369060040161449a565b6084359182168092036105b75786549060ff95868360081c1615958680976131c8575b80156131b2575b156131565760019860ff1994888b878316178d55613145575b508615611cdd57612e0b906001600160601b0360a01b978860fc54161760fc55612e068a8d5460081c16612e0181614c1b565b614c1b565b614bae565b612e1e888b5460081c16612e0181614c1b565b80518281116131315761013090808c612e3784546146b9565b94601f958681116130e6575b5060209186841160011461305f5792613054575b5050600019600383901b1c1916908b1b1790555b82519182116130405761013192612e8284546146b9565b828111612feb575b506020918311600114612f6857612efa949392918b9183612f5d575b5050600019600383901b1c191690891b1790555b8754958660081c1690612ecc82614c1b565b612ed582614c1b565b8761016255612ee382614c1b565b612eec82614c1b565b610194908154169055614c1b565b8015612f4b576101c691825416179055612f12578280f35b61ff00191682556040519081527f7f26b83ff96e1f2b6a682f133852f6798a09c465da95921460cefb384740249890602090a138808280f35b604051630cee34c560e11b8152600490fd5b015190503880612ea6565b838b5293929189917fbd987ad6ccdb7c7567f7335ea839f95dc944431abcf935b6924f70215963db7390601f1983168d5b818110612fd357509683612efa9810612fba575b505050811b019055612eba565b015160001960f88460031b161c19169055388080612fad565b8289015184558d959093019260209283019201612f99565b61303190858d527fbd987ad6ccdb7c7567f7335ea839f95dc944431abcf935b6924f70215963db738480870160051c82019260208810613037575b0160051c0190614c7b565b38612e8a565b92508192613026565b634e487b7160e01b8a52604160045260248afd5b015190503880612e57565b91908e9450601f1984168684527f2f605e086faac1d93117bbfbc18835d434e9405fadc1ca66faf4b864746daf34935b8181106130c4575084116130ab575b505050811b019055612e6b565b015160001960f88460031b161c1916905538808061309e565b93839596602092939491839286015181550195019301908f959493929161308f565b61312b908684527f2f605e086faac1d93117bbfbc18835d434e9405fadc1ca66faf4b864746daf348880870160051c82019260208810613037570160051c0190614c7b565b38612e43565b634e487b7160e01b8b52604160045260248bfd5b61ffff1916610101178b5538612dce565b60405162461bcd60e51b815260206004820152602e60248201527f496e697469616c697a61626c653a20636f6e747261637420697320616c72656160448201526d191e481a5b9a5d1a585b1a5e995960921b6064820152608490fd5b50303b158015612db55750600188851614612db5565b50600188851610612dae565b503461034257600319604036820112610581576001600160401b039060043582811161059057613208903690600401614418565b919092602435908111610d2f57613223903690600401614418565b60335491939092916001600160a01b0316330361033057859473E428a2D5062e017F4526d19D4738ece5801D973791823b15610b555761329d61328e94889660405198899788968796631bd4474f60e31b885260fd6004890152606060248901526064880191614df9565b92858403016044860152614df9565b03915af48015610585576110875750f35b5034610342576060366003190112610342576132c8614258565b6044359060028210156105a857604051633f3ccdf960e01b815261010260048201526101036024808301919091526001600160a01b0392831660448301523560648201529161331b906084840190614e42565b60808260a48173E428a2D5062e017F4526d19D4738ece5801D97375af49081156123fc578392848591869461336a575b5060809550826040519516855260208501521660408301526060820152f35b9350505091506080813d82116133c0575b8161338860809383614320565b810103126105a8576080925061339d816154b9565b9160208201519260606133b2604085016154b9565b93015190939290923861334b565b3d915061337b565b503461034257806003193601126103425760a0610103546040519061ffff8082168352808260101c166020840152808260201c1660408401528160301c16606083015260401c6080820152f35b5034610342578060208060031936011261109c576004356001600160401b0381116117805761344983913690600401614418565b91909261345461555f565b61345c614c92565b73E428a2D5062e017F4526d19D4738ece5801D973792825b81811061347f578380f35b61348a818388614d89565b35613493614cd7565b60fb908154865261010180865260408720883b15610b3d57604051906329caab3960e11b8252836004830152602482015287816044818c5af49081156126fd578891613566575b50506101045492548752855260408620916001600160a01b0316873b15610b5557604051630b06bff360e21b815260048101929092526001600160a01b0316602482015260448101919091528481606481895af49081156106c3578591613552575b505061354d90600161016255614d2e565b613474565b61355b906142a0565b61059057838861353c565b61356f906142a0565b610b5557868b6134da565b50346103425761056a61358c366143e3565b9161359a610e508433614808565b6148d1565b50346103425760e0366003190112610342576135b961426e565b60c4356001600160401b0381116105a8576135d89036906004016143b6565b6135e3929192615534565b6135eb614c92565b61361160043560ff6001918060081c600052610105602052161b60406000205416151590565b613bad5760043560081c845261010560205260408420600160ff600435161b815417905561364060ff54614d2e565b8060ff55670de0b6b3a7640000908146029146830414461517156128f5579061366891614b61565b6001600160a01b038316855260fe602052604085208054919491929063ffffffff80851614613b995790613712929163ffffffff60018187160116809563ffffffff1916179055604051936136bc85614284565b60043585526001600160a01b038616602086015261ffff6084351660408601526060850152608084018790526001600160801b0360a435811660a08601526044351660c085015260643560e08501523691614463565b6101008201528284526101006020526101006004604086208351815560018060a01b0360208501511661ffff60a01b604086015160a01b1663ffffffff60b01b606087015160b01b169065ffffffffffff60d01b608088015160d01b169217171760018201556001600160801b0360a0850151166001600160801b031960c086015160801b1617600282015560e08401516003820155019101518051906001600160401b038211613b855781906137c984546146b9565b601f8111613b4a575b50602090601f8311600114613ae6578792613adb575b50508160011b916000199060031b1c19161790555b604051613809816142ce565b8381526001600160a01b03821615613a9757600083815261013260205260409020546138d791610e6591613849906001600160a01b031615155b15614d3d565b6000858152610132602052604090205461386d906001600160a01b03161515613843565b6001600160a01b0384168087526101336020908152604080892080546001019055878952610132909152872080546001600160a01b031916821790558590877fddf252ad1be2c89b69c2b068fc378daa952ba7f163c4a11628f55a4df523b3ef8180a484846149e5565b61010480546001600160a01b0316803b15610d2f576040516310b3879160e11b81526001600160a01b0384166004820152604480356024830152909186918391829084905af180156106c357613a84575b5083907385ae4212262E976101FdD82FA233c0966EDa67bE60fb54835261010160205260408320813b15610590578390606460405180948193636ebb252160e11b83526004830152896024830152823560448301525af49081156123fc578391613a70575b50505461010e5473E428a2D5062e017F4526d19D4738ece5801D9737916001600160a01b031690823b1561059057604051638ec4211160e01b8152610102600482015261010360248201526044808201939093526001600160a01b03861660648201529135608483015260a4820152908290829060c49082905af4801561058557613a5c575b505060408051606435815260443560208201526001600160a01b0390921691600435917faf1bba31184b4d13e4f756b22fc2755d77b6ad147f10a7b12ea6afa58a2ca5f691a480f35b613a65906142a0565b6105a8578238613a13565b613a79906142a0565b61058157813861398d565b613a90909491946142a0565b9238613928565b606460405162461bcd60e51b815260206004820152602060248201527f4552433732313a206d696e7420746f20746865207a65726f20616464726573736044820152fd5b0151905038806137e8565b848852602088209250601f198416885b818110613b325750908460019594939210613b19575b505050811b0190556137fd565b015160001960f88460031b161c19169055388080613b0c565b92936020600181928786015181550195019301613af6565b613b759085895260208920601f850160051c81019160208610613b7b575b601f0160051c0190614c7b565b386137d2565b9091508190613b68565b634e487b7160e01b86526041600452602486fd5b634e487b7160e01b87526011600452602487fd5b604051630490d63160e01b8152600490fd5b5034610342576040366003190112610342576004356001600160401b0360243581811161059057613bf4903690600401614358565b6101c6546001600160a01b031633819003613d0f575082845261010a60209281845260ff6040872054161580613cfe575b613c2d578580f35b600192836040882001908051928311613cea57680100000000000000008311613cea5785908254848455808510613cd0575b500190875284872084885b848110613cbe5750505050508385528252604084208160ff1982541617905561010c61010d928354865261010b81528460408720558354948652528260408520558201809211610fc2575538808080808580f35b87845194019381840155018590613c6a565b838a52828a20613ce4918101908601614c7b565b38613c5f565b634e487b7160e01b88526041600452602488fd5b5060ff604087205460081c16613c25565b60405163073e64fd60e21b81523360048201526001600160a01b03919091166024820152604490fd5b0390fd5b503461034257602036600319011261034257600435613d59614daf565b6033546001600160a01b03163303610330578180808093818115613d83575b3390f1156107c25780f35b506108fc613d78565b503461034257806003193601126103425760fc546040516001600160a01b039091168152602090f35b503461034257604036600319011261034257613e0f604060a092613dd7614258565b613ddf6154cd565b5060fb54825261010160205260018383200190600180871b031682526020528181206024358252602052206154f8565b613e44604051809260808091805184526020810151602085015260408101516040850152606081015160608501520151910152565bf35b5034610342576020366003190112610342576004356001600160401b038111610581576040613e7c613eb0923690600401614358565b60fb548452610101602052818420825193849283926371695c4760e01b845260048401528460248401526044830190614e65565b038173E428a2D5062e017F4526d19D4738ece5801D97375af480156105855782918391613ee8575b6040838382519182526020820152f35b9150506040813d604011613f1d575b81613f0460409383614320565b8101031261058157604091506020815191015138613ed8565b3d9150613ef7565b503461034257604036600319011261034257613f3f614258565b602435906001600160a01b038080613f5685614695565b1692169180831461404d5780331490811561402b575b5015613fc0578284526101346020526040842080546001600160a01b03191683179055613f9883614695565b167f8c5be1e5ebec7d5bd14f71427d1e84f3dd0314c0f7b2291e5b200ac8c7c3b9258480a480f35b60405162461bcd60e51b815260206004820152603d60248201527f4552433732313a20617070726f76652063616c6c6572206973206e6f7420746f60448201527f6b656e206f776e6572206f7220617070726f76656420666f7220616c6c0000006064820152608490fd5b905084526101356020526040842033855260205260ff60408520541638613f6c565b60405162461bcd60e51b815260206004820152602160248201527f4552433732313a20617070726f76616c20746f2063757272656e74206f776e656044820152603960f91b6064820152608490fd5b5034610342576020366003190112610342576020611c7e6004356146f3565b50346103425780600319360112610342576040519080610130908154906140e1826146b9565b808652926001928084169081156113c1575060011461410a576107428661135381880382614320565b815292507f2f605e086faac1d93117bbfbc18835d434e9405fadc1ca66faf4b864746daf345b82841061414c5750505081016020016113538261074238611343565b80546020858701810191909152909301928101614130565b503461034257602036600319011261034257613e0f604060a0926141866154cd565b5060fb5481526101016020528181206004358252602052206154f8565b9050346105815760203660031901126105815760043563ffffffff60e01b81168091036105a857602092506380ac58cd60e01b81149081156141ff575b81156141ee575b5015158152f35b6301ffc9a760e01b149050386141e7565b635b5e139f60e01b811491506141e0565b60005b8381106142235750506000910152565b8181015183820152602001614213565b9060209161424c81518092818552858086019101614210565b601f01601f1916010190565b600435906001600160a01b03821682036105b757565b602435906001600160a01b03821682036105b757565b61012081019081106001600160401b03821117610ddf57604052565b6001600160401b038111610ddf57604052565b60a081019081106001600160401b03821117610ddf57604052565b602081019081106001600160401b03821117610ddf57604052565b606081019081106001600160401b03821117610ddf57604052565b61016081019081106001600160401b03821117610ddf57604052565b90601f801991011681019081106001600160401b03821117610ddf57604052565b6001600160401b038111610ddf5760051b60200190565b81601f820112156105b75780359161436f83614341565b9261437d6040519485614320565b808452602092838086019260051b8201019283116105b7578301905b8282106143a7575050505090565b81358152908301908301614399565b9181601f840112156105b7578235916001600160401b0383116105b757602083818601950101116105b757565b60609060031901126105b7576001600160a01b039060043582811681036105b7579160243590811681036105b7579060443590565b9181601f840112156105b7578235916001600160401b0383116105b7576020808501948460051b0101116105b757565b6001600160401b038111610ddf57601f01601f191660200190565b92919261446f82614448565b9161447d6040519384614320565b8294818452818301116105b7578281602093846000960137010152565b9080601f830112156105b7578160206144b593359101614463565b90565b6024359081151582036105b757565b156144ce57565b60405162461bcd60e51b815260206004820152602c60248201527f46756e6374696f6e206d7573742062652063616c6c6564207468726f7567682060448201526b19195b1959d85d1958d85b1b60a21b6064820152608490fd5b1561452f57565b60405162461bcd60e51b815260206004820152602c60248201527f46756e6374696f6e206d7573742062652063616c6c6564207468726f7567682060448201526b6163746976652070726f787960a01b6064820152608490fd5b803b156145be5760008051602061561783398151915280546001600160a01b0319166001600160a01b03909216919091179055565b60405162461bcd60e51b815260206004820152602d60248201527f455243313936373a206e657720696d706c656d656e746174696f6e206973206e60448201526c1bdd08184818dbdb9d1c9858dd609a1b6064820152608490fd5b3d15614644573d9061462a82614448565b916146386040519384614320565b82523d6000602084013e565b606090565b1561465057565b60405162461bcd60e51b815260206004820152601860248201527f4552433732313a20696e76616c696420746f6b656e20494400000000000000006044820152606490fd5b600090815261013260205260409020546001600160a01b03166144b5811515614649565b90600182811c921680156146e9575b60208310146146d357565b634e487b7160e01b600052602260045260246000fd5b91607f16916146c8565b60008181526101326020526040902054614717906001600160a01b03161515614649565b600090815261013460205260409020546001600160a01b031690565b1561473a57565b60405162461bcd60e51b815260206004820152602d60248201527f4552433732313a2063616c6c6572206973206e6f7420746f6b656e206f776e6560448201526c1c881bdc88185c1c1c9bdd9959609a1b6064820152608490fd5b60809060208152603260208201527f4552433732313a207472616e7366657220746f206e6f6e20455243373231526560408201527131b2b4bb32b91034b6b83632b6b2b73a32b960711b60608201520190565b156147ef57565b60405162461bcd60e51b815280613d3860048201614795565b906001600160a01b03808061481c84614695565b1693169183831493841561484f575b508315614839575b50505090565b614845919293506146f3565b1614388080614833565b90935060005261013560205260406000208260005260205260ff60406000205416923861482b565b1561487e57565b60405162461bcd60e51b815260206004820152602560248201527f4552433732313a207472616e736665722066726f6d20696e636f72726563742060448201526437bbb732b960d91b6064820152608490fd5b906148f9916148df84614695565b6001600160a01b0393918416928492909183168414614877565b1691821561499457816149169161490f86614695565b1614614877565b7fddf252ad1be2c89b69c2b068fc378daa952ba7f163c4a11628f55a4df523b3ef6000848152610134602052604081206001600160601b0360a01b90818154169055838252610133602052604082206000198154019055848252604082206001815401905585825261013260205284604083209182541617905580a4565b60405162461bcd60e51b8152602060048201526024808201527f4552433732313a207472616e7366657220746f20746865207a65726f206164646044820152637265737360e01b6064820152608490fd5b9091600091803b15614ad057614a306020918493604051948580948193630a85bd0160e11b9a8b84523360048501528460248501526044840152608060648401526084830190614233565b03926001600160a01b03165af190829082614a88575b5050614a7a57614a54614619565b80519081614a755760405162461bcd60e51b815280613d3860048201614795565b602001fd5b6001600160e01b0319161490565b909192506020813d8211614ac8575b81614aa460209383614320565b810103126105815751906001600160e01b0319821682036103425750903880614a46565b3d9150614a97565b50505050600190565b91926000929190813b15614b4a57602091614b2f9185604051958680958194630a85bd0160e11b9b8c845233600485015260018060a01b0380951660248501526044840152608060648401526084830190614233565b0393165af190829082614a88575050614a7a57614a54614619565b5050505050600190565b919082039182116128df57565b919082018092116128df57565b90919015614b7a575090565b815115614b8a5750805190602001fd5b60405162461bcd60e51b815260206004820152908190613d38906024830190614233565b7fb53127684a568b3173ae13b9f8a6016e243e63b6e8ee1178d6a717850b5d6103819055603380546001600160a01b039283166001600160a01b0319821681179092559091167f8be0079c531659141344cd1fd0a4f28419497f9722a3daafe3b4186f6b6457e0600080a3565b15614c2257565b60405162461bcd60e51b815260206004820152602b60248201527f496e697469616c697a61626c653a20636f6e7472616374206973206e6f74206960448201526a6e697469616c697a696e6760a81b6064820152608490fd5b818110614c86575050565b60008155600101614c7b565b60ff6101945416614c9f57565b60405162461bcd60e51b815260206004820152601060248201526f14185d5cd8589b194e881c185d5cd95960821b6044820152606490fd5b6101626002815414614ce95760029055565b60405162461bcd60e51b815260206004820152601f60248201527f5265656e7472616e637947756172643a207265656e7472616e742063616c6c006044820152606490fd5b60001981146128df5760010190565b15614d4457565b60405162461bcd60e51b815260206004820152601c60248201527f4552433732313a20746f6b656e20616c7265616479206d696e746564000000006044820152606490fd5b9190811015614d995760051b0190565b634e487b7160e01b600052603260045260246000fd5b60ff610194541615614dbd57565b60405162461bcd60e51b815260206004820152601460248201527314185d5cd8589b194e881b9bdd081c185d5cd95960621b6044820152606490fd5b9190808252602080920192916000805b838210614e1857505050505090565b9091929394853560018060a01b0381168091036105a8578152830194830193929160010190614e09565b906002821015614e4f5752565b634e487b7160e01b600052602160045260246000fd5b90815180825260208080930193019160005b828110614e85575050505090565b835185529381019392810192600101614e77565b91909164ffffffffff808094169116019182116128df57565b600090600090606091610106546001908160ff821614614ed157505050565b64ffffffffff959295949193949081614ef4818360081c16828460581c16614e99565b16421115614f20575050505060405192816020850152604084015260408352614f1c836142e9565b9190565b808280614f3b9360309a969998979a1c169160801c16614e99565b1642116150f95773742402221E3505f8D74d35330cb710e737eD3d2b6040908151926305f739f960e21b845261010b8060048601526020948581602481875af49081156150ef5783916150c2575b50614f9657505050505050565b8395985060448597989495929395518096819363c9c3102d60e01b835260048301528560248301525af49283156150b6578193615087575b5082815261010a80865260ff8583205460181c16600381101561507357880361500b5750505060038251938401528183015281526144b5816142e9565b838298969594939852845260ff8382205460181c1690600382101561505f575060021461503a575b5050509190565b90919294506004825193840152818301528152615056816142e9565b91388080615033565b634e487b7160e01b81526021600452602490fd5b634e487b7160e01b83526021600452602483fd5b9092508481813d83116150af575b61509f8183614320565b810103126105a857519138614fce565b503d615095565b508351903d90823e3d90fd5b90508581813d83116150e8575b6150d98183614320565b810103126105a8575138614f89565b503d6150cf565b85513d85823e3d90fd5b93509091506040519260026020850152604084015260408352614f1c836142e9565b9060018060a01b038060fc5416906101075416604051906323b872dd60e01b82523360048301526024820152826044820152602081606481600080965af180156105855761519e575b505061517081836153ed565b6040519081527f58c7b3bf0b0e168048426c1e9443a72696526292ca664e18b11f934cd6cfbbf360203392a3565b6020813d82116151cd575b816151b660209383614320565b810103126105815751801515036103425780615164565b3d91506151a9565b8054821015614d995760005260206000200190600090565b8051821015614d995760209160051b010190565b60209081818403126105b7578051906001600160401b0382116105b757019180601f840112156105b757825161523681614341565b936152446040519586614320565b818552838086019260051b8201019283116105b7578301905b82821061526b575050505090565b8151815290830190830161525d565b60fb5460009081526101016020526002604082200160405190634d63fffd60e01b82526004820152816024820152600a60448201528181606481732e85aac7c9F162Dc039F5c25f502e2F22Ca3356c5af49182156107c25780926152dd57505090565b6144b592503d8091833e6152f18183614320565b810190615201565b60fb5460009081526101016020526002604082200160405190634d63fffd60e01b82526004820152600a6024820152605a60448201528181606481732e85aac7c9F162Dc039F5c25f502e2F22Ca3356c5af49182156107c25780926152dd57505090565b60fb54600090815261010160205260408120600c8101939192600d8201926002909201917385ae4212262E976101FdD82FA233c0966EDa67bE91823b156106ce57918594939160a49360405198899687956311b7263f60e21b8752600487015260248601526044850152606484015260848301525af49081156107c257506153e25750565b6153eb906142a0565b565b91909160fb5492600093845261010180602052604060018187200133875260205280862084875260205280862091615426848454614b61565b835560fb548752602052808620848752602052615447818720938454614b61565b83558573E428a2D5062e017F4526d19D4738ece5801D973792833b15610581576044835180958193636496053360e01b835288600484015260248301525af49081156154b057506153eb9495506154a1575b50549061535d565b6154aa906142a0565b38615499565b513d87823e3d90fd5b51906001600160a01b03821682036105b757565b604051906154da826142b3565b60006080838281528260208201528260408201528260608201520152565b90604051615505816142b3565b608060048294805484526001810154602085015260028101546040850152600381015460608501520154910152565b3360005260fd60205260ff604060002054161561554d57565b60405163143606b960e31b8152600490fd5b60ff61010f541661556c57565b604051635093a74160e11b8152600490fd5b600081815261010c9081602052604081205461010d928354946000199586810190811161560257845261010b92836020526040852054908552604085205583526020528160408120558254848101908111610fc257825260205280604081205581549283019283116155ee575055565b634e487b7160e01b81526011600452602490fd5b634e487b7160e01b85526011600452602485fdfe360894a13ba1a3210667c828492db98dca3e2076cc3735a920a3ca505d382bbca2646970667358221220c25acc3dcd2f64e3904d90b68f91bd9d24d8e56c07b941bea987c10e7279ca4364736f6c63430008110033",
  "deployedBytecode": "0x608080604052600436101561001357600080fd5b600090813560e01c90816301ffc9a7146141a357508063068bcd8d1461416457806306fdde03146140bb578063081812fc1461409c578063095ea7b314613f255780630aaef80214613e465780630e357a6e14613db557806316a065c614613d8c57806317e0f25214613d3c5780631fe543e314613bbf57806320dfe3c61461359f57806323b872dd1461357a57806328275338146134155780632bf8e8f6146133c857806332eb808a146132ae578063350b2369146131d4578063362925c214612d205780633659cfe614612b5057806339c1750214612a1557806342842e0e146129d057806343f0e993146129755780634585e33b146122895780634e71e0c81461220d5780634f1ef28614611f105780635114859714611ea157806352d1902d14611ddd57806358c7a06314611d135780635c975abb14611cef578063603d080014611c905780636352211e14611c5f5780636817031b14611beb5780636e04ff0d14611b9157806370a0823114611afa578063715018a614611a79578063736c0d5b14611a3a57806376f7a9fc1461185c578063802e9cfa146117ea5780638456cb59146117845780638d47a30d146116815780638da5cb5b14611658578063918c49e4146114a05780639208b21e146113ee57806395d89b41146113035780639aab85e5146112a25780639d2150421461119c578063a22cb465146110c9578063a54b2a731461109f578063a94466c014610fea578063afd5f74714610ee4578063b242e53414610e6a578063b88d4fde14610df5578063b9e53a9f14610b6d578063c3b82b8d14610826578063c417db69146107ce578063c87b56dd146106d2578063db640081146105e5578063e30c3978146105bc578063e4421be21461046b578063e985e9c514610416578063f7b188a5146103b3578063fbd782351461036f578063fbfa77cf146103455763ff9c7543146102d657600080fd5b3461034257602036600319011261034257603354600435906001600160a01b03163303610330576020817f39feb9fafd10c5355c86cdccca7884a183c4dd524ca37b0761575ce0974cdb069261011155604051908152a180f35b604051632e6c18c960e11b8152600490fd5b80fd5b5034610342578060031936011261034257610104546040516001600160a01b039091168152602090f35b50346103425760203660031901126103425760206103a960043560ff6001918060081c600052610105602052161b60406000205416151590565b6040519015158152f35b50346103425780600319360112610342576033546001600160a01b03163303610330576103de614daf565b61019460ff1981541690557f5db9ee0a495bf2e6ff9c91a7834c1ba4fdd244a5e8aa4e537bd38aeae4b073aa6020604051338152a180f35b503461034257604036600319011261034257610430614258565b604061043a61426e565b9260018060a01b038093168152610135602052209116600052602052602060ff604060002054166040519015158152f35b50346103425760403660031901126105b75760043561048861555f565b610490614c92565b610498614cd7565b8173__$bf3a140bdbff42a6137d0acc0952596ca5$__60fb5482526101018060205260408320823b1561059057604051906329caab3960e11b825285600483015260248201528381604481865af49081156105ac578491610594575b505060018060a01b0361010454169060fb54845260205260408320823b1561059057604051630b06bff360e21b8152600481018690526001600160a01b039290921660248301526044820152908290829060649082905af480156105855761056d575b5060016101625561056a6024358361511b565b80f35b610576906142a0565b610581578138610557565b5080fd5b6040513d84823e3d90fd5b8380fd5b61059d906142a0565b6105a85782386104f4565b8280fd5b6040513d86823e3d90fd5b600080fd5b50346103425780600319360112610342576034546040516001600160a01b039091168152602090f35b50346103425760208060031936011261058157816004356001600160401b038111610581579161061a82933690600401614418565b92909161062561555f565b61062d614c92565b73__$bf3a140bdbff42a6137d0acc0952596ca5$__92825b858110610650578380f35b61065b818784614d89565b3560fb548552610101845260408520863b156106ce57604051916329caab3960e11b8352600483015260248201528481604481895af49081156106c35785916106af575b50506106aa90614d2e565b610645565b6106b8906142a0565b61059057838861069f565b6040513d87823e3d90fd5b8580fd5b50346103425760208060031936011261058157604051632f8218bd60e21b815261010060048201526004356024820152828160448173__$0e7f1d138f6cc9ca9006918b4d39b2c532$__5af49283156107c2578093610746575b5050610742604051928284938452830190614233565b0390f35b909192503d8082843e6107598184614320565b8201918381840312610581578051906001600160401b0382116105a8570182601f820112156105815780519161078e83614448565b9361079c6040519586614320565b8385528584840101116103425750906107ba91848085019101614210565b90388061072c565b604051903d90823e3d90fd5b5034610342576020366003190112610342576001600160a01b03806107f1614258565b16825261010260209081526040808420548316808552938190205481516001600160a01b039586168152931690931690820152f35b50346103425760603660031901126103425760243560043560443561084961555f565b610851614c92565b610859614cd7565b73__$bf3a140bdbff42a6137d0acc0952596ca5$__9160fb5485526101018560209482865260408220813b156105a8576040516329caab3960e11b9182825286600483015260248201528381604481865af49081156105ac578491610b59575b5050610104805460fb548552858952604085206001600160a01b039182169290853b15610b5557604051630b06bff360e21b808252600482018b90526001600160a01b0395909516602482015260448101919091528681606481895af4908115610b32578791610b41575b50506101629360018555610936614cd7565b60fb548752878b5260408720863b15610b3d576040519182528c600483015260248201528681604481895af4908115610b32578791610b1e575b505054169060fb54855285895260408520843b156106ce57604051918252600482018b90526001600160a01b0392909216602482015260448101919091528381606481865af49081156105ac578491610b0a575b50506001905560fb549283835280875260016040842001336000528752604060002085845287526040832093835286526040822084835286526040822092610a0d868254614b54565b8155610a1a868554614b54565b8455813b156105a8578290604460405180948193636496053360e01b835288600484015260248301525af4801561058557610af6575b5050610a5d90548261535d565b60405190815281838201527fe6907eb8ffc12ac27891b5560db15647cae89e2b344f0c34c63bb6f1d4249cff60403392a2605f810290808204605f1490151715610ae2576064900490610ab082846153ed565b6040519283528201527f7e9ecb928e58cb1d1c8cda62ae789939f9f184616eb26ef72e801f98b6ef556a60403392a280f35b634e487b7160e01b84526011600452602484fd5b610aff906142a0565b6106ce578538610a50565b610b13906142a0565b6105a85782386109c4565b610b27906142a0565b6106ce578538610970565b6040513d89823e3d90fd5b8780fd5b610b4a906142a0565b6106ce578538610924565b8680fd5b610b62906142a0565b6105a85782386108b9565b503660031901608081126105815760401361034257604051604081018181106001600160401b03821117610ddf5760405260043581526024356020808301918252916044356001600160a01b0381811692918381036105b757606435933388526101108088526040892054610111541115610dcd5733895287526040882080549060018201809211610db95755610c02614c92565b610c0a614cd7565b338852610102928388526040892054161580610db0575b80610da6575b610d4e575b5050610c44610c3c835185614b61565b855190614b61565b803410610d3c57869182808080610c5b8634614b54565b818115610d33575b3390f1156105855760fb5483526101018752600f6040842001610c87348254614b61565b905573__$bf3a140bdbff42a6137d0acc0952596ca5$__91823b1561059057608484926040519485938492633039061160e01b84526004840152610103602484015233604484015260648301525af4801561058557610d1b575b50507f617b1a2bf0533cea0c5dd46104e1d48f8b290fc7d7360dba0182dbf07a00e46a90519251936040519283523392a460016101625580f35b610d24906142a0565b610d2f578438610ce1565b8480fd5b506108fc610c63565b604051632ca2f52b60e11b8152600490fd5b604080892080546001600160a01b0319169290921790915580513381526001600160a01b039290921660208301527f677cd8c8ce12dc7827579d65be5e6efa74b6ac9ab04ac43d4648dc85d328c2ae91a13880610c2c565b5033811415610c27565b50801515610c21565b634e487b7160e01b8a52601160045260248afd5b60405163d92de14f60e01b8152600490fd5b634e487b7160e01b600052604160045260246000fd5b503461034257608036600319011261034257610e0f614258565b610e1761426e565b90606435906044356001600160401b038311610d2f5761056a93610e42610e6594369060040161449a565b92610e55610e508433614808565b614733565b610e608383836148d1565b614ad9565b6147e8565b503461034257604036600319011261034257610e84614258565b610e8c6144b8565b6033549091906001600160a01b039081163303610330578116918215610ed25715610ebb5761056a9150614bae565b506001600160601b0360a01b603454161760345580f35b604051633aafecb360e21b8152600490fd5b50346103425780600319360112610342576033546001600160a01b031633036103305760fb54906001820191828111610fd6578260fb55610f23614c92565b610194600160ff198254161790557f62e78cea01bee320cd4e420270b5ea74000d11b0c9f74754ebdbfc544b05a2586020604051338152a1815261010180602052600f604083200154908160041b9180830460101490151715610fc25782936064935260205204600f6040832001557f3bf8992b1ca7018d446bcf1d45dc7a62e50decf5248434be4194aef154463380602060fb54604051908152a180f35b634e487b7160e01b83526011600452602483fd5b634e487b7160e01b82526011600452602482fd5b5034610342578060208060031936011261109c5760043560fb549182845261010180825260408520838652825260408520938552815260016040852001336000528152604060002091845252604082209073__$bf3a140bdbff42a6137d0acc0952596ca5$__91823b1561109757604484926040519485938492636496053360e01b8452600484015260248301525af48015610585576110875750f35b611090906142a0565b6103425780f35b505050fd5b50fd5b5034610342578060031936011261034257610107546040516001600160a01b039091168152602090f35b5034610342576040366003190112610342576110e3614258565b6110eb6144b8565b6001600160a01b039091169033821461115757338352610135602052604083208260005260205260406000209015159060ff1981541660ff83161790556040519081527f17307eab39ab6107e8899845ad3d59bd9653f200f220920489ca2b5937696c3160203392a380f35b60405162461bcd60e51b815260206004820152601960248201527f4552433732313a20617070726f766520746f2063616c6c6572000000000000006044820152606490fd5b50346103425760a0366003190112610342576033546001600160a01b031633036103305760043580610108556024356001600160401b0381168091036105a857610109918254916044359363ffffffff91828616908187036105b757606435938416928385036105b7576084359661ffff8816958689036105b7577f3510c45fb24ce728b56d5136c57163ff69e25ab31ac04a1264387c7acff6c41e996bffffffff00000000000000008560a09b61ffff60801b9060801b169471ffffffffffffffffffffffffffffffffffff1916179160401b16179063ffffffff60601b9060601b16171790556040519485526020850152604084015260608301526080820152a180f35b5034610342576020366003190112610342576033546001600160a01b0390811633036103305781906101075416803b1561109c57818091602460405180948193630852cd8d60e31b835260043560048401525af18015610585576110875750f35b5034610342578060031936011261034257604051908061013190815490611329826146b9565b808652926001928084169081156113c15750600114611367575b6107428661135381880382614320565b604051918291602083526020830190614233565b815292507fbd987ad6ccdb7c7567f7335ea839f95dc944431abcf935b6924f70215963db735b8284106113a95750505081016020016113538261074238611343565b8054602085870181019190915290930192810161138d565b90508695506107429693506020925061135394915060ff191682840152151560051b820101929338611343565b50346103425760603660031901126103425760043561ffff908181168091036105b7576024359182168092036105b757604435906002821015610590576033546001600160a01b0316330361033057839273__$bf3a140bdbff42a6137d0acc0952596ca5$__803b15610d2f5784926084916114916040519687958694631747e07760e01b86526101036004870152602486015260448501526064840190614e42565b5af48015610585576110875750f35b50346103425760e03660031901126103425760043560c43560ff81168091036105b75782906114cd61555f565b6114d5614c92565b6114dd614cd7565b73__$bf3a140bdbff42a6137d0acc0952596ca5$__60fb548352610101908160205260408420813b15610d2f57604051906329caab3960e11b825286600483015260248201528481604481855af49081156106c3578591611644575b50506101045460fb548552602092909252604084206001600160a01b0392831690823b156106ce57604051630b06bff360e21b8152600481018890526001600160a01b039290921660248301526044820152908490829060649082905af49081156105ac578491611630575b505060016101625560fc541690813b156105a857829160e48392604051948593849263d505accf60e01b845233600485015230602485015260443560448501526064356064850152608484015260843560a484015260a43560c48401525af180156105855761161c575b5061056a6024358361511b565b611625906142a0565b61058157813861160f565b611639906142a0565b6105a85782386115a5565b61164d906142a0565b610590578338611539565b50346103425780600319360112610342576033546040516001600160a01b039091168152602090f35b5034610342578060208060031936011261109c576004356001600160401b038111611780576116b583913690600401614418565b9190926116c061555f565b6116c8614c92565b73__$bf3a140bdbff42a6137d0acc0952596ca5$__92825b8181106116eb578380f35b6116f6818388614d89565b6101045460fb5486526101018552604086209135906001600160a01b0316873b15610b5557604051630b06bff360e21b815260048101929092526001600160a01b0316602482015260448101919091528481606481895af49081156106c357859161176c575b505061176790614d2e565b6116e0565b611775906142a0565b61059057838861175c565b5050fd5b50346103425780600319360112610342576033546001600160a01b03163303610330576117af614c92565b610194600160ff198254161790557f62e78cea01bee320cd4e420270b5ea74000d11b0c9f74754ebdbfc544b05a2586020604051338152a180f35b503461034257602036600319011261034257611804614258565b61180c614daf565b6033546001600160a01b03908116330361033057829181610104541691823b1561109757602484928360405195869485936350e0278760e11b85521660048401525af18015610585576110875750f35b503461034257610120366003190112610342576033546001600160a01b031633036103305760043560ff811681036105815764ffffffffff60243516602435036105b75764ffffffffff60443516604435036105b75764ffffffffff60643516606435036105b75764ffffffffff60843516608435036105b75761ffff8060a4351660a435036105b7578060c4351660c435036105b7578060e4351660e435036105b75764ffffffffff610104351661010435036105b7577f75dab8e449fbbb96e7a6aba10424f40cd398bf158f0be1270be90389a3eeef7e916101209164ffffffffff60d81b6101043560d81b1660ff831665ffffffffff0060243560081b16176affffffffff00000000000060443560301b161764ffffffffff60581b60643560581b161764ffffffffff60801b60843560801b161761ffff60a81b60a43560a81b161761ffff60b81b60c43560b81b161761ffff60c81b60e43560c81b1617176101065560ff6040519216825264ffffffffff60243516602083015264ffffffffff60443516604083015264ffffffffff60643516606083015264ffffffffff6084351660808301528060a4351660a08301528060c4351660c083015260e4351660e082015264ffffffffff6101043516610100820152a180f35b50346103425760203660031901126103425760209060ff906040906001600160a01b03611a65614258565b16815260fd84522054166040519015158152f35b50346103425780600319360112610342576033546001600160a01b03811633810361033057600091827fb53127684a568b3173ae13b9f8a6016e243e63b6e8ee1178d6a717850b5d6103556001600160601b0360a01b166033557f8be0079c531659141344cd1fd0a4f28419497f9722a3daafe3b4186f6b6457e08280a380f35b5034610342576020366003190112610342576001600160a01b03611b1c614258565b168015611b3a57816040916020935261013383522054604051908152f35b60405162461bcd60e51b815260206004820152602960248201527f4552433732313a2061646472657373207a65726f206973206e6f7420612076616044820152683634b21037bbb732b960b91b6064820152608490fd5b5034610342576020366003190112610342576004356001600160401b03811161058157611bc29036906004016143b6565b5050611bcc614eb2565b9061074260405192839215158352604060208401526040830190614233565b5034610342576020366003190112610342576004356001600160a01b03818116918290036105a8576033541633036103305761010480546001600160a01b031916821790556040519081527fe7ae49f883c825b05681b3e00e8be6fdea9ed2a8a45e4c6ecb9390fc44cce61590602090a180f35b5034610342576020366003190112610342576020611c7e600435614695565b6040516001600160a01b039091168152f35b503461034257602036600319011261034257611caa614258565b6033546001600160a01b0391908216330361033057168015611cdd5761010780546001600160a01b031916909117905580f35b604051630ae8f22360e21b8152600490fd5b5034610342578060031936011261034257602060ff61019454166040519015158152f35b503461034257604036600319011261034257611d2d614258565b60243590611d39615534565b611d41614c92565b610104546001600160a01b03919084908316803b15610581576040516310b3879160e11b81526001600160a01b0384166004820152602481018690529082908290604490829084905af1801561058557611dc9575b50507f7a0984e898d33e4bf6ad9f851bfab5517683d3dae5b57ed58fa8c7152d822e32916020916040519485521692a280f35b611dd2906142a0565b610590578338611d96565b50346103425780600319360112610342577f00000000000000000000000000000000000000000000000000000000000000006001600160a01b03163003611e365760206040516000805160206156178339815191528152f35b60405162461bcd60e51b815260206004820152603860248201527f555550535570677261646561626c653a206d757374206e6f742062652063616c60448201527f6c6564207468726f7567682064656c656761746563616c6c00000000000000006064820152608490fd5b5034610342576020366003190112610342576004358015158091036105b7576033546001600160a01b031633036103305760207f25b74b79765378f42707bcd2a5098af3c53ce7725211f607991f12c40d148a7f9161010f60ff1981541660ff8316179055604051908152a180f35b50604036600319011261034257611f25614258565b906024356001600160401b03811161058157611f4590369060040161449a565b916001600160a01b037f0000000000000000000000000000000000000000000000000000000000000000811690611f7e308314156144c7565b611f9b600080516020615617833981519152928284541614614528565b80603354163303610330577f4910fdfa16fed3260ed0e7147f7cc6da11a60208b5b9406d12a635614ffd91435460ff1615611fdd57505061056a919250614589565b6040516352d1902d60e01b8152602094939291831691908581600481865afa600091816121de575b506120665760405162461bcd60e51b815260048101879052602e60248201527f45524331393637557067726164653a206e657720696d706c656d656e7461746960448201526d6f6e206973206e6f74205555505360901b6064820152608490fd5b949394036121875761207782614589565b604051907fbc7cd75a20ee27fd9adebab32041f755214dbc6bffa90cc0225b39da2e5c2d3b600080a284511580159061217f575b6120b8575b505050905080f35b813b1561212e57506000848192846121249697519201905af46120d9614619565b907f416464726573733a206c6f772d6c6576656c2064656c65676174652063616c6c60405193612108856142e9565b60278552840152660819985a5b195960ca1b6040840152614b6e565b50803880806120b0565b62461bcd60e51b815260048101839052602660248201527f416464726573733a2064656c65676174652063616c6c20746f206e6f6e2d636f6044820152651b9d1c9858dd60d21b6064820152608490fd5b5060016120ab565b60405162461bcd60e51b815260048101849052602960248201527f45524331393637557067726164653a20756e737570706f727465642070726f786044820152681a58589b195555525160ba1b6064820152608490fd5b90918782813d8311612206575b6121f58183614320565b810103126103425750519038612005565b503d6121eb565b50346103425780600319360112610342576034546001600160a01b03908181163381900361227757806033549384167f8be0079c531659141344cd1fd0a4f28419497f9722a3daafe3b4186f6b6457e08680a36001600160a01b0319928316176033551660345580f35b6040516305e05b4b60e31b8152600490fd5b503461034257602080600319360112610581576001600160401b0390600435828111610590576122bf60409136906004016143b6565b908092916122cb614c92565b810103126105b757808201359035600181036124195750506101069182549060ff8216156124075761239c93839264ffffffffff60581b612310610e10420642614b54565b60581b1664ffffffffff60581b19919091161790556101c6546101085461010954604080516305d3b1d360e41b815260048101939093529381166001600160401b0316602483015261ffff608082901c16604483015263ffffffff9381901c8416606483015260601c9092166084830152909384916001600160a01b03169082908790829060a4820190565b03925af180156123fc5783906123cd575b835261010a90525060408120805463ff00ff001916630100010017905580f35b508082813d83116123f5575b6123e38183614320565b810103126105b75761010a91516123ad565b503d6123d9565b6040513d85823e3d90fd5b60405163a397eb4760e01b8152600490fd5b600281036125475750506101069182549060ff821615612407576124e793839264ffffffffff60801b612450610e10420642614b54565b64ffffffffff60801b19909216608092831b91909116179091556101c6546101085461010954604080516305d3b1d360e41b815260048101939093526001600160401b039582169590951660248301529283901c61ffff1660448201529282901c63ffffffff908116606485015260609290921c9091166084830152909384916001600160a01b03169082908790829060a4820190565b03925af180156123fc578390612518575b835261010a90525060408120805463ff00ff001916630200010017905580f35b508082813d8311612540575b61252e8183614320565b810103126105b75761010a91516124f8565b503d612524565b919392509060039081810361270c57506101069060ff825416156124075761256d61527a565b946125766152f9565b9573__$bf3a140bdbff42a6137d0acc0952596ca5$__9160fb548752610101918282526040882090843b156127085760405163df8fd62160e01b815260606004820152918991839182916125ce906064840190614e65565b908a602484015260448301520381875af480156126fd579088916126e9575b505060405193976125fd85614304565b600a90818652610140368488013787895261010a835260408920805462ff000019166201000017815560010199895b8381106126b2575050505086975060fb969596548652526040842090803b15610d2f5761267985936040519586948593849363b2bdfd6b60e01b8552606060048601526064850190614e65565b916024840152604483015203915af480156105855761269e575b505061056a9061557e565b6126a7906142a0565b610581578138612693565b806126d3605a6126c68f946126e4956151d5565b905490861b1c06856151ed565b516126de828b6151ed565b52614d2e565b61262c565b6126f2906142a0565b610b555786386125ed565b6040513d8a823e3d90fd5b8880fd5b92939260041461271d575b50505080f35b6101069060ff825416156124075761273361527a565b9161273c6152f9565b9173__$bf3a140bdbff42a6137d0acc0952596ca5$__60fb54885287610101958689526040822090833b156105a85760405163069381c360e51b81526060600482015291839183918291612794906064840190614e65565b9089602484015260448301520381865af4801561058557612961575b509190604051916127c083614304565b600a95868452610140368b86013788855261010a8a5260408520805462ff000019166201000017815560010191855b888110612931575050505060fb5483528588526040832091813b15610590578391612838916040518095819482936353ce4e5160e11b8452606060048501526064840190614e65565b90896024840152604483015203915af480156105855761291d575b50505461ffff808260a81c1691838302928084048514901517156129095760b81c168281029281840414901517156128f5579061288f91614b61565b9060fb5493848652818152600f604087200154928381029381850414901517156128df576128d7948652526128d0612710600f604087200192048254614b54565b905561557e565b388080612717565b634e487b7160e01b600052601160045260246000fd5b634e487b7160e01b86526011600452602486fd5b634e487b7160e01b88526011600452602488fd5b612926906142a0565b6106ce578538612853565b839495965061294a605a6126c6836129559596976151d5565b516126de82896151ed565b908b95949392916127ef565b61296a906142a0565b610b3d5787386127b0565b503461034257602036600319011261034257603354600435906001600160a01b03163303610330576020817f895ece2457e03622f6eab9f28377343eca29710870eb9636d6794049860e53fc9261010e55604051908152a180f35b5034610342576129df366143e3565b6040519060208201928284106001600160401b03851117610ddf5761056a94610e6594604052868452610e55610e508433614808565b5034610342578060031936011261034257610100604051612a3581614284565b8281528260208201528260408201528260608201528260808201528260a08201528260c08201528260e08201520152610120604051612a7381614284565b64ffffffffff610100610106549260ff84168152828460081c166020820152828460301c166040820152828460581c166060820152828460801c16608082015261ffff8460a81c1660a082015261ffff8460b81c1660c082015261ffff8460c81c1660e08201528360d81c8282015260ff6040519416845282602082015116602085015282604082015116604085015282606082015116606085015282608082015116608085015261ffff60a08201511660a085015261ffff60c08201511660c085015261ffff60e08201511660e0850152015116610100820152f35b5034610342576020908160031936011261034257612b6c614258565b6001600160a01b03927f00000000000000000000000000000000000000000000000000000000000000008416612ba4308214156144c7565b612bc1600080516020615617833981519152918683541614614528565b846033541633036103305760405194612bd9866142ce565b8486527f4910fdfa16fed3260ed0e7147f7cc6da11a60208b5b9406d12a635614ffd91435460ff1615612c145750505061056a919250614589565b8392949316906040516352d1902d60e01b81528581600481865afa60009181612cf1575b50612c995760405162461bcd60e51b815260048101879052602e60248201527f45524331393637557067726164653a206e657720696d706c656d656e7461746960448201526d6f6e206973206e6f74205555505360901b6064820152608490fd5b9493940361218757612caa82614589565b604051907fbc7cd75a20ee27fd9adebab32041f755214dbc6bffa90cc0225b39da2e5c2d3b600080a2845115801590612ce9576120b857505050905080f35b5060006120ab565b90918782813d8311612d19575b612d088183614320565b810103126103425750519038612c38565b503d612cfe565b50346103425760a0366003190112610342576001600160a01b03600435818116908190036105a857612d5061426e565b916001600160401b03916044358381116106ce57612d7290369060040161449a565b91606435848111610b5557612d8b90369060040161449a565b6084359182168092036105b75786549060ff95868360081c1615958680976131c8575b80156131b2575b156131565760019860ff1994888b878316178d55613145575b508615611cdd57612e0b906001600160601b0360a01b978860fc54161760fc55612e068a8d5460081c16612e0181614c1b565b614c1b565b614bae565b612e1e888b5460081c16612e0181614c1b565b80518281116131315761013090808c612e3784546146b9565b94601f958681116130e6575b5060209186841160011461305f5792613054575b5050600019600383901b1c1916908b1b1790555b82519182116130405761013192612e8284546146b9565b828111612feb575b506020918311600114612f6857612efa949392918b9183612f5d575b5050600019600383901b1c191690891b1790555b8754958660081c1690612ecc82614c1b565b612ed582614c1b565b8761016255612ee382614c1b565b612eec82614c1b565b610194908154169055614c1b565b8015612f4b576101c691825416179055612f12578280f35b61ff00191682556040519081527f7f26b83ff96e1f2b6a682f133852f6798a09c465da95921460cefb384740249890602090a138808280f35b604051630cee34c560e11b8152600490fd5b015190503880612ea6565b838b5293929189917fbd987ad6ccdb7c7567f7335ea839f95dc944431abcf935b6924f70215963db7390601f1983168d5b818110612fd357509683612efa9810612fba575b505050811b019055612eba565b015160001960f88460031b161c19169055388080612fad565b8289015184558d959093019260209283019201612f99565b61303190858d527fbd987ad6ccdb7c7567f7335ea839f95dc944431abcf935b6924f70215963db738480870160051c82019260208810613037575b0160051c0190614c7b565b38612e8a565b92508192613026565b634e487b7160e01b8a52604160045260248afd5b015190503880612e57565b91908e9450601f1984168684527f2f605e086faac1d93117bbfbc18835d434e9405fadc1ca66faf4b864746daf34935b8181106130c4575084116130ab575b505050811b019055612e6b565b015160001960f88460031b161c1916905538808061309e565b93839596602092939491839286015181550195019301908f959493929161308f565b61312b908684527f2f605e086faac1d93117bbfbc18835d434e9405fadc1ca66faf4b864746daf348880870160051c82019260208810613037570160051c0190614c7b565b38612e43565b634e487b7160e01b8b52604160045260248bfd5b61ffff1916610101178b5538612dce565b60405162461bcd60e51b815260206004820152602e60248201527f496e697469616c697a61626c653a20636f6e747261637420697320616c72656160448201526d191e481a5b9a5d1a585b1a5e995960921b6064820152608490fd5b50303b158015612db55750600188851614612db5565b50600188851610612dae565b503461034257600319604036820112610581576001600160401b039060043582811161059057613208903690600401614418565b919092602435908111610d2f57613223903690600401614418565b60335491939092916001600160a01b0316330361033057859473__$bf3a140bdbff42a6137d0acc0952596ca5$__91823b15610b555761329d61328e94889660405198899788968796631bd4474f60e31b885260fd6004890152606060248901526064880191614df9565b92858403016044860152614df9565b03915af48015610585576110875750f35b5034610342576060366003190112610342576132c8614258565b6044359060028210156105a857604051633f3ccdf960e01b815261010260048201526101036024808301919091526001600160a01b0392831660448301523560648201529161331b906084840190614e42565b60808260a48173__$bf3a140bdbff42a6137d0acc0952596ca5$__5af49081156123fc578392848591869461336a575b5060809550826040519516855260208501521660408301526060820152f35b9350505091506080813d82116133c0575b8161338860809383614320565b810103126105a8576080925061339d816154b9565b9160208201519260606133b2604085016154b9565b93015190939290923861334b565b3d915061337b565b503461034257806003193601126103425760a0610103546040519061ffff8082168352808260101c166020840152808260201c1660408401528160301c16606083015260401c6080820152f35b5034610342578060208060031936011261109c576004356001600160401b0381116117805761344983913690600401614418565b91909261345461555f565b61345c614c92565b73__$bf3a140bdbff42a6137d0acc0952596ca5$__92825b81811061347f578380f35b61348a818388614d89565b35613493614cd7565b60fb908154865261010180865260408720883b15610b3d57604051906329caab3960e11b8252836004830152602482015287816044818c5af49081156126fd578891613566575b50506101045492548752855260408620916001600160a01b0316873b15610b5557604051630b06bff360e21b815260048101929092526001600160a01b0316602482015260448101919091528481606481895af49081156106c3578591613552575b505061354d90600161016255614d2e565b613474565b61355b906142a0565b61059057838861353c565b61356f906142a0565b610b5557868b6134da565b50346103425761056a61358c366143e3565b9161359a610e508433614808565b6148d1565b50346103425760e0366003190112610342576135b961426e565b60c4356001600160401b0381116105a8576135d89036906004016143b6565b6135e3929192615534565b6135eb614c92565b61361160043560ff6001918060081c600052610105602052161b60406000205416151590565b613bad5760043560081c845261010560205260408420600160ff600435161b815417905561364060ff54614d2e565b8060ff55670de0b6b3a7640000908146029146830414461517156128f5579061366891614b61565b6001600160a01b038316855260fe602052604085208054919491929063ffffffff80851614613b995790613712929163ffffffff60018187160116809563ffffffff1916179055604051936136bc85614284565b60043585526001600160a01b038616602086015261ffff6084351660408601526060850152608084018790526001600160801b0360a435811660a08601526044351660c085015260643560e08501523691614463565b6101008201528284526101006020526101006004604086208351815560018060a01b0360208501511661ffff60a01b604086015160a01b1663ffffffff60b01b606087015160b01b169065ffffffffffff60d01b608088015160d01b169217171760018201556001600160801b0360a0850151166001600160801b031960c086015160801b1617600282015560e08401516003820155019101518051906001600160401b038211613b855781906137c984546146b9565b601f8111613b4a575b50602090601f8311600114613ae6578792613adb575b50508160011b916000199060031b1c19161790555b604051613809816142ce565b8381526001600160a01b03821615613a9757600083815261013260205260409020546138d791610e6591613849906001600160a01b031615155b15614d3d565b6000858152610132602052604090205461386d906001600160a01b03161515613843565b6001600160a01b0384168087526101336020908152604080892080546001019055878952610132909152872080546001600160a01b031916821790558590877fddf252ad1be2c89b69c2b068fc378daa952ba7f163c4a11628f55a4df523b3ef8180a484846149e5565b61010480546001600160a01b0316803b15610d2f576040516310b3879160e11b81526001600160a01b0384166004820152604480356024830152909186918391829084905af180156106c357613a84575b50839073__$b6aef517fe05d85bc7364998255804b986$__60fb54835261010160205260408320813b15610590578390606460405180948193636ebb252160e11b83526004830152896024830152823560448301525af49081156123fc578391613a70575b50505461010e5473__$bf3a140bdbff42a6137d0acc0952596ca5$__916001600160a01b031690823b1561059057604051638ec4211160e01b8152610102600482015261010360248201526044808201939093526001600160a01b03861660648201529135608483015260a4820152908290829060c49082905af4801561058557613a5c575b505060408051606435815260443560208201526001600160a01b0390921691600435917faf1bba31184b4d13e4f756b22fc2755d77b6ad147f10a7b12ea6afa58a2ca5f691a480f35b613a65906142a0565b6105a8578238613a13565b613a79906142a0565b61058157813861398d565b613a90909491946142a0565b9238613928565b606460405162461bcd60e51b815260206004820152602060248201527f4552433732313a206d696e7420746f20746865207a65726f20616464726573736044820152fd5b0151905038806137e8565b848852602088209250601f198416885b818110613b325750908460019594939210613b19575b505050811b0190556137fd565b015160001960f88460031b161c19169055388080613b0c565b92936020600181928786015181550195019301613af6565b613b759085895260208920601f850160051c81019160208610613b7b575b601f0160051c0190614c7b565b386137d2565b9091508190613b68565b634e487b7160e01b86526041600452602486fd5b634e487b7160e01b87526011600452602487fd5b604051630490d63160e01b8152600490fd5b5034610342576040366003190112610342576004356001600160401b0360243581811161059057613bf4903690600401614358565b6101c6546001600160a01b031633819003613d0f575082845261010a60209281845260ff6040872054161580613cfe575b613c2d578580f35b600192836040882001908051928311613cea57680100000000000000008311613cea5785908254848455808510613cd0575b500190875284872084885b848110613cbe5750505050508385528252604084208160ff1982541617905561010c61010d928354865261010b81528460408720558354948652528260408520558201809211610fc2575538808080808580f35b87845194019381840155018590613c6a565b838a52828a20613ce4918101908601614c7b565b38613c5f565b634e487b7160e01b88526041600452602488fd5b5060ff604087205460081c16613c25565b60405163073e64fd60e21b81523360048201526001600160a01b03919091166024820152604490fd5b0390fd5b503461034257602036600319011261034257600435613d59614daf565b6033546001600160a01b03163303610330578180808093818115613d83575b3390f1156107c25780f35b506108fc613d78565b503461034257806003193601126103425760fc546040516001600160a01b039091168152602090f35b503461034257604036600319011261034257613e0f604060a092613dd7614258565b613ddf6154cd565b5060fb54825261010160205260018383200190600180871b031682526020528181206024358252602052206154f8565b613e44604051809260808091805184526020810151602085015260408101516040850152606081015160608501520151910152565bf35b5034610342576020366003190112610342576004356001600160401b038111610581576040613e7c613eb0923690600401614358565b60fb548452610101602052818420825193849283926371695c4760e01b845260048401528460248401526044830190614e65565b038173__$bf3a140bdbff42a6137d0acc0952596ca5$__5af480156105855782918391613ee8575b6040838382519182526020820152f35b9150506040813d604011613f1d575b81613f0460409383614320565b8101031261058157604091506020815191015138613ed8565b3d9150613ef7565b503461034257604036600319011261034257613f3f614258565b602435906001600160a01b038080613f5685614695565b1692169180831461404d5780331490811561402b575b5015613fc0578284526101346020526040842080546001600160a01b03191683179055613f9883614695565b167f8c5be1e5ebec7d5bd14f71427d1e84f3dd0314c0f7b2291e5b200ac8c7c3b9258480a480f35b60405162461bcd60e51b815260206004820152603d60248201527f4552433732313a20617070726f76652063616c6c6572206973206e6f7420746f60448201527f6b656e206f776e6572206f7220617070726f76656420666f7220616c6c0000006064820152608490fd5b905084526101356020526040842033855260205260ff60408520541638613f6c565b60405162461bcd60e51b815260206004820152602160248201527f4552433732313a20617070726f76616c20746f2063757272656e74206f776e656044820152603960f91b6064820152608490fd5b5034610342576020366003190112610342576020611c7e6004356146f3565b50346103425780600319360112610342576040519080610130908154906140e1826146b9565b808652926001928084169081156113c1575060011461410a576107428661135381880382614320565b815292507f2f605e086faac1d93117bbfbc18835d434e9405fadc1ca66faf4b864746daf345b82841061414c5750505081016020016113538261074238611343565b80546020858701810191909152909301928101614130565b503461034257602036600319011261034257613e0f604060a0926141866154cd565b5060fb5481526101016020528181206004358252602052206154f8565b9050346105815760203660031901126105815760043563ffffffff60e01b81168091036105a857602092506380ac58cd60e01b81149081156141ff575b81156141ee575b5015158152f35b6301ffc9a760e01b149050386141e7565b635b5e139f60e01b811491506141e0565b60005b8381106142235750506000910152565b8181015183820152602001614213565b9060209161424c81518092818552858086019101614210565b601f01601f1916010190565b600435906001600160a01b03821682036105b757565b602435906001600160a01b03821682036105b757565b61012081019081106001600160401b03821117610ddf57604052565b6001600160401b038111610ddf57604052565b60a081019081106001600160401b03821117610ddf57604052565b602081019081106001600160401b03821117610ddf57604052565b606081019081106001600160401b03821117610ddf57604052565b61016081019081106001600160401b03821117610ddf57604052565b90601f801991011681019081106001600160401b03821117610ddf57604052565b6001600160401b038111610ddf5760051b60200190565b81601f820112156105b75780359161436f83614341565b9261437d6040519485614320565b808452602092838086019260051b8201019283116105b7578301905b8282106143a7575050505090565b81358152908301908301614399565b9181601f840112156105b7578235916001600160401b0383116105b757602083818601950101116105b757565b60609060031901126105b7576001600160a01b039060043582811681036105b7579160243590811681036105b7579060443590565b9181601f840112156105b7578235916001600160401b0383116105b7576020808501948460051b0101116105b757565b6001600160401b038111610ddf57601f01601f191660200190565b92919261446f82614448565b9161447d6040519384614320565b8294818452818301116105b7578281602093846000960137010152565b9080601f830112156105b7578160206144b593359101614463565b90565b6024359081151582036105b757565b156144ce57565b60405162461bcd60e51b815260206004820152602c60248201527f46756e6374696f6e206d7573742062652063616c6c6564207468726f7567682060448201526b19195b1959d85d1958d85b1b60a21b6064820152608490fd5b1561452f57565b60405162461bcd60e51b815260206004820152602c60248201527f46756e6374696f6e206d7573742062652063616c6c6564207468726f7567682060448201526b6163746976652070726f787960a01b6064820152608490fd5b803b156145be5760008051602061561783398151915280546001600160a01b0319166001600160a01b03909216919091179055565b60405162461bcd60e51b815260206004820152602d60248201527f455243313936373a206e657720696d706c656d656e746174696f6e206973206e60448201526c1bdd08184818dbdb9d1c9858dd609a1b6064820152608490fd5b3d15614644573d9061462a82614448565b916146386040519384614320565b82523d6000602084013e565b606090565b1561465057565b60405162461bcd60e51b815260206004820152601860248201527f4552433732313a20696e76616c696420746f6b656e20494400000000000000006044820152606490fd5b600090815261013260205260409020546001600160a01b03166144b5811515614649565b90600182811c921680156146e9575b60208310146146d357565b634e487b7160e01b600052602260045260246000fd5b91607f16916146c8565b60008181526101326020526040902054614717906001600160a01b03161515614649565b600090815261013460205260409020546001600160a01b031690565b1561473a57565b60405162461bcd60e51b815260206004820152602d60248201527f4552433732313a2063616c6c6572206973206e6f7420746f6b656e206f776e6560448201526c1c881bdc88185c1c1c9bdd9959609a1b6064820152608490fd5b60809060208152603260208201527f4552433732313a207472616e7366657220746f206e6f6e20455243373231526560408201527131b2b4bb32b91034b6b83632b6b2b73a32b960711b60608201520190565b156147ef57565b60405162461bcd60e51b815280613d3860048201614795565b906001600160a01b03808061481c84614695565b1693169183831493841561484f575b508315614839575b50505090565b614845919293506146f3565b1614388080614833565b90935060005261013560205260406000208260005260205260ff60406000205416923861482b565b1561487e57565b60405162461bcd60e51b815260206004820152602560248201527f4552433732313a207472616e736665722066726f6d20696e636f72726563742060448201526437bbb732b960d91b6064820152608490fd5b906148f9916148df84614695565b6001600160a01b0393918416928492909183168414614877565b1691821561499457816149169161490f86614695565b1614614877565b7fddf252ad1be2c89b69c2b068fc378daa952ba7f163c4a11628f55a4df523b3ef6000848152610134602052604081206001600160601b0360a01b90818154169055838252610133602052604082206000198154019055848252604082206001815401905585825261013260205284604083209182541617905580a4565b60405162461bcd60e51b8152602060048201526024808201527f4552433732313a207472616e7366657220746f20746865207a65726f206164646044820152637265737360e01b6064820152608490fd5b9091600091803b15614ad057614a306020918493604051948580948193630a85bd0160e11b9a8b84523360048501528460248501526044840152608060648401526084830190614233565b03926001600160a01b03165af190829082614a88575b5050614a7a57614a54614619565b80519081614a755760405162461bcd60e51b815280613d3860048201614795565b602001fd5b6001600160e01b0319161490565b909192506020813d8211614ac8575b81614aa460209383614320565b810103126105815751906001600160e01b0319821682036103425750903880614a46565b3d9150614a97565b50505050600190565b91926000929190813b15614b4a57602091614b2f9185604051958680958194630a85bd0160e11b9b8c845233600485015260018060a01b0380951660248501526044840152608060648401526084830190614233565b0393165af190829082614a88575050614a7a57614a54614619565b5050505050600190565b919082039182116128df57565b919082018092116128df57565b90919015614b7a575090565b815115614b8a5750805190602001fd5b60405162461bcd60e51b815260206004820152908190613d38906024830190614233565b7fb53127684a568b3173ae13b9f8a6016e243e63b6e8ee1178d6a717850b5d6103819055603380546001600160a01b039283166001600160a01b0319821681179092559091167f8be0079c531659141344cd1fd0a4f28419497f9722a3daafe3b4186f6b6457e0600080a3565b15614c2257565b60405162461bcd60e51b815260206004820152602b60248201527f496e697469616c697a61626c653a20636f6e7472616374206973206e6f74206960448201526a6e697469616c697a696e6760a81b6064820152608490fd5b818110614c86575050565b60008155600101614c7b565b60ff6101945416614c9f57565b60405162461bcd60e51b815260206004820152601060248201526f14185d5cd8589b194e881c185d5cd95960821b6044820152606490fd5b6101626002815414614ce95760029055565b60405162461bcd60e51b815260206004820152601f60248201527f5265656e7472616e637947756172643a207265656e7472616e742063616c6c006044820152606490fd5b60001981146128df5760010190565b15614d4457565b60405162461bcd60e51b815260206004820152601c60248201527f4552433732313a20746f6b656e20616c7265616479206d696e746564000000006044820152606490fd5b9190811015614d995760051b0190565b634e487b7160e01b600052603260045260246000fd5b60ff610194541615614dbd57565b60405162461bcd60e51b815260206004820152601460248201527314185d5cd8589b194e881b9bdd081c185d5cd95960621b6044820152606490fd5b9190808252602080920192916000805b838210614e1857505050505090565b9091929394853560018060a01b0381168091036105a8578152830194830193929160010190614e09565b906002821015614e4f5752565b634e487b7160e01b600052602160045260246000fd5b90815180825260208080930193019160005b828110614e85575050505090565b835185529381019392810192600101614e77565b91909164ffffffffff808094169116019182116128df57565b600090600090606091610106546001908160ff821614614ed157505050565b64ffffffffff959295949193949081614ef4818360081c16828460581c16614e99565b16421115614f20575050505060405192816020850152604084015260408352614f1c836142e9565b9190565b808280614f3b9360309a969998979a1c169160801c16614e99565b1642116150f95773__$f445361e8b50888b0b8cee3fd4db50a783$__6040908151926305f739f960e21b845261010b8060048601526020948581602481875af49081156150ef5783916150c2575b50614f9657505050505050565b8395985060448597989495929395518096819363c9c3102d60e01b835260048301528560248301525af49283156150b6578193615087575b5082815261010a80865260ff8583205460181c16600381101561507357880361500b5750505060038251938401528183015281526144b5816142e9565b838298969594939852845260ff8382205460181c1690600382101561505f575060021461503a575b5050509190565b90919294506004825193840152818301528152615056816142e9565b91388080615033565b634e487b7160e01b81526021600452602490fd5b634e487b7160e01b83526021600452602483fd5b9092508481813d83116150af575b61509f8183614320565b810103126105a857519138614fce565b503d615095565b508351903d90823e3d90fd5b90508581813d83116150e8575b6150d98183614320565b810103126105a8575138614f89565b503d6150cf565b85513d85823e3d90fd5b93509091506040519260026020850152604084015260408352614f1c836142e9565b9060018060a01b038060fc5416906101075416604051906323b872dd60e01b82523360048301526024820152826044820152602081606481600080965af180156105855761519e575b505061517081836153ed565b6040519081527f58c7b3bf0b0e168048426c1e9443a72696526292ca664e18b11f934cd6cfbbf360203392a3565b6020813d82116151cd575b816151b660209383614320565b810103126105815751801515036103425780615164565b3d91506151a9565b8054821015614d995760005260206000200190600090565b8051821015614d995760209160051b010190565b60209081818403126105b7578051906001600160401b0382116105b757019180601f840112156105b757825161523681614341565b936152446040519586614320565b818552838086019260051b8201019283116105b7578301905b82821061526b575050505090565b8151815290830190830161525d565b60fb5460009081526101016020526002604082200160405190634d63fffd60e01b82526004820152816024820152600a6044820152818160648173__$69292ab8e6f98571d324d08d63c6dae4eb$__5af49182156107c25780926152dd57505090565b6144b592503d8091833e6152f18183614320565b810190615201565b60fb5460009081526101016020526002604082200160405190634d63fffd60e01b82526004820152600a6024820152605a6044820152818160648173__$69292ab8e6f98571d324d08d63c6dae4eb$__5af49182156107c25780926152dd57505090565b60fb54600090815261010160205260408120600c8101939192600d82019260029092019173__$b6aef517fe05d85bc7364998255804b986$__91823b156106ce57918594939160a49360405198899687956311b7263f60e21b8752600487015260248601526044850152606484015260848301525af49081156107c257506153e25750565b6153eb906142a0565b565b91909160fb5492600093845261010180602052604060018187200133875260205280862084875260205280862091615426848454614b61565b835560fb548752602052808620848752602052615447818720938454614b61565b83558573__$bf3a140bdbff42a6137d0acc0952596ca5$__92833b15610581576044835180958193636496053360e01b835288600484015260248301525af49081156154b057506153eb9495506154a1575b50549061535d565b6154aa906142a0565b38615499565b513d87823e3d90fd5b51906001600160a01b03821682036105b757565b604051906154da826142b3565b60006080838281528260208201528260408201528260608201520152565b90604051615505816142b3565b608060048294805484526001810154602085015260028101546040850152600381015460608501520154910152565b3360005260fd60205260ff604060002054161561554d57565b60405163143606b960e31b8152600490fd5b60ff61010f541661556c57565b604051635093a74160e11b8152600490fd5b600081815261010c9081602052604081205461010d928354946000199586810190811161560257845261010b92836020526040852054908552604085205583526020528160408120558254848101908111610fc257825260205280604081205581549283019283116155ee575055565b634e487b7160e01b81526011600452602490fd5b634e487b7160e01b85526011600452602485fdfe360894a13ba1a3210667c828492db98dca3e2076cc3735a920a3ca505d382bbca2646970667358221220c25acc3dcd2f64e3904d90b68f91bd9d24d8e56c07b941bea987c10e7279ca4364736f6c63430008110033",
  "libraries": {
    "RenderConstant": "0x690FD309DdB62e707CdBfa4D9F905C9425928E3c",
    "Renderer": "0xA8419025297971F6b4ECAB6FB82BF00de881a578",
    "FastArray": "0x742402221E3505f8D74d35330cb710e737eD3d2b",
    "RankingRedBlackTree": "0x46147d19096d2B0aaf65a7d9c08759596E70FAD3",
    "SingleRanking": "0x2e85aac7c9F162Dc039F5c25f502e2F22Ca3356c",
    "DegenRank": "0x85ae4212262E976101FdD82FA233c0966EDa67bE",
    "PortalLib": "0xE428a2D5062e017F4526d19D4738ece5801D9737"
  },
  "devdoc": {
    "errors": {
      "DropOff()": [
        {
          "details": "revert when the drop is not on"
        }
      ],
      "InBeta()": [
        {
          "details": "revert when the status is beta"
        }
      ],
      "IncarnationExceedLimit()": [
        {
          "details": "revert when incarnation count exceed limit"
        }
      ],
      "InsufficientAmount()": [
        {
          "details": "revert when msg.value is insufficient"
        }
      ],
      "NotSetBurnPoolAddress()": [
        {
          "details": "revert if burnPool address not set when infuse"
        }
      ],
      "NotSigner()": [
        {
          "details": "revert when to caller is not signer"
        }
      ],
      "SameSeed()": [
        {
          "details": "revert when the random seed is duplicated"
        }
      ],
      "ZeroAddressSet()": [
        {
          "details": "revert when some address var are set to zero"
        }
      ]
    },
    "kind": "dev",
    "methods": {
      "approve(address,uint256)": {
        "details": "See {IERC721-approve}."
      },
      "balanceOf(address)": {
        "details": "See {IERC721-balanceOf}."
      },
      "baptise(address,uint256)": {
        "details": "reward for share the game",
        "params": {
          "amount": "amount for reward",
          "user": "user address"
        }
      },
      "burnFromBurnPool(uint256)": {
        "details": "burn $REBORN from burn pool",
        "params": {
          "amount": "burn from burn pool"
        }
      },
      "calculateReferReward(address,uint256,uint8)": {
        "details": "returns referrer and referer reward",
        "returns": {
          "ref1": " level1 of referrer. direct referrer",
          "ref1Reward": " level 1 referrer reward",
          "ref2": " level2 of referrer. referrer's referrer",
          "ref2Reward": " level 2 referrer reward"
        }
      },
      "checkUpkeep(bytes)": {
        "details": "checkUpkeep for chainlink automation"
      },
      "claimDrops(uint256[])": {
        "details": "user claim many pools' airdrop",
        "params": {
          "tokenIds": "pools' tokenId array to claim"
        }
      },
      "claimNativeDrops(uint256[])": {
        "details": "user claim many pools' native token airdrop",
        "params": {
          "tokenIds": "pools' tokenId array to claim"
        }
      },
      "claimOwnership()": {
        "details": "pending owner call this function to claim ownership"
      },
      "claimRebornDrops(uint256[])": {
        "details": "user claim many pools' reborn token airdrop",
        "params": {
          "tokenIds": "pools' tokenId array to claim"
        }
      },
      "engrave(bytes32,address,uint256,uint256,uint256,uint256,string)": {
        "details": "engrave the result on chain and reward",
        "params": {
          "cost": "user cost for this life",
          "reward": "$REBORN user earns, decimal 10^18",
          "score": "life score",
          "seed": "random seed in bytes32",
          "user": "user address"
        }
      },
      "flattenRewardDebt(uint256)": {
        "details": "use only in test environmentflatten Reward Debt, for fix in dev mode"
      },
      "getApproved(uint256)": {
        "details": "See {IERC721-getApproved}."
      },
      "getPool(uint256)": {
        "details": "read pool attribute"
      },
      "getPortfolio(address,uint256)": {
        "details": "read pool attribute"
      },
      "getRerferrers(address)": {
        "details": "referrer1: level1 of referrers referrer2: level2 of referrers"
      },
      "infuse(uint256,uint256)": {
        "details": "stake $REBORN on this tombstone",
        "params": {
          "amount": "stake amount, decimal 10^18",
          "tokenId": "tokenId of the life to stake"
        }
      },
      "infuse(uint256,uint256,uint256,uint256,bytes32,bytes32,uint8)": {
        "details": "stake $REBORN with permit",
        "params": {
          "amount": "amount of $REBORN to stake",
          "permitAmount": "amount of $REBORN to approve",
          "r": "r of signature",
          "s": "v of signature",
          "tokenId": "tokenId of the life to stake",
          "v": "v of signature"
        }
      },
      "isApprovedForAll(address,address)": {
        "details": "See {IERC721-isApprovedForAll}."
      },
      "name()": {
        "details": "See {IERC721Metadata-name}."
      },
      "owner()": {
        "details": "Returns the address of the current owner."
      },
      "ownerOf(uint256)": {
        "details": "See {IERC721-ownerOf}."
      },
      "paused()": {
        "details": "Returns true if the contract is paused, and false otherwise."
      },
      "pendingDrop(uint256[])": {
        "details": "read pending reward from specific pool",
        "params": {
          "tokenIds": "tokenId array of the pools"
        }
      },
      "pendingOwner()": {
        "details": "Return the address of the pending owner"
      },
      "performUpkeep(bytes)": {
        "details": "Upkeep perform of chainlink automation"
      },
      "proxiableUUID()": {
        "details": "Implementation of the ERC1822 {proxiableUUID} function. This returns the storage slot used by the implementation. It is used to validate the implementation's compatibility when performing an upgrade. IMPORTANT: A proxy pointing at a proxiable contract should not be considered proxiable itself, because this risks bricking a proxy that upgrades to it, by delegating to itself until out of gas. Thus it is critical that this function revert if invoked through a proxy. This is guaranteed by the `notDelegated` modifier."
      },
      "renounceOwnership()": {
        "details": "Leaves the contract without owner. It will not be possible to call `onlyOwner` functions anymore. Can only be called by the current owner. NOTE: Renouncing ownership will leave the contract without an owner, thereby removing any functionality that is only available to the owner."
      },
      "safeTransferFrom(address,address,uint256)": {
        "details": "See {IERC721-safeTransferFrom}."
      },
      "safeTransferFrom(address,address,uint256,bytes)": {
        "details": "See {IERC721-safeTransferFrom}."
      },
      "seedExists(bytes32)": {
        "details": "check whether the seed is used on-chain",
        "params": {
          "seed": "random seed in bytes32"
        }
      },
      "setApprovalForAll(address,bool)": {
        "details": "See {IERC721-setApprovalForAll}."
      },
      "setBeta(bool)": {
        "details": "set the stage to beta to disable some func"
      },
      "setDropConf((uint8,uint40,uint40,uint40,uint40,uint16,uint16,uint16,uint40))": {
        "details": "set new airdrop config"
      },
      "setIncarnationLimit(uint256)": {
        "details": "set incarnation limit"
      },
      "setReferrerRewardFee(uint16,uint16,uint8)": {
        "details": "set percentage of referrer reward",
        "params": {
          "rewardType": "0: incarnate reward 1: engrave reward"
        }
      },
      "setVault(address)": {
        "details": "set vault",
        "params": {
          "vault_": "new vault address"
        }
      },
      "setVrfConf((bytes32,uint64,uint32,uint32,uint16))": {
        "details": "set new chainlink vrf v2 config"
      },
      "supportsInterface(bytes4)": {
        "details": "See {IERC165-supportsInterface}."
      },
      "switchPool(uint256,uint256,uint256)": {
        "details": "switch stake amount from poolFrom to poolTo",
        "params": {
          "amount": "amount to switch",
          "fromTokenId": "tokenId of from pool",
          "toTokenId": "tokenId of to pool"
        }
      },
      "symbol()": {
        "details": "See {IERC721Metadata-symbol}."
      },
      "toNextSeason()": {
        "details": "switch to next season, call by owner"
      },
      "tokenURI(uint256)": {
        "details": "See {IERC721Metadata-tokenURI}."
      },
      "transferFrom(address,address,uint256)": {
        "details": "See {IERC721-transferFrom}."
      },
      "transferOwnership(address,bool)": {
        "details": "Transfers ownership of the contract to a new account (`newOwner`). Can only be called by the current owner. Note If direct is false, it will set an pending owner and the OwnerShipTransferring only happens when the pending owner claim the ownership"
      },
      "updateSigners(address[],address[])": {
        "details": "update signers",
        "params": {
          "toAdd": "list of to be added signer",
          "toRemove": "list of to be removed signer"
        }
      },
      "upgradeTo(address)": {
        "details": "Upgrade the implementation of the proxy to `newImplementation`. Calls {_authorizeUpgrade}. Emits an {Upgraded} event."
      },
      "upgradeToAndCall(address,bytes)": {
        "details": "Upgrade the implementation of the proxy to `newImplementation`, and subsequently execute the function call encoded in `data`. Calls {_authorizeUpgrade}. Emits an {Upgraded} event."
      },
      "withdrawNativeToken(uint256)": {
        "details": "withdraw native token for reward distributionamount how much to withdraw"
      },
      "withdrawVault(address)": {
        "details": "withdraw token from vault",
        "params": {
          "to": "the address which owner withdraw token to"
        }
      }
    },
    "version": 1
  },
  "userdoc": {
    "kind": "user",
    "methods": {
      "getRerferrers(address)": {
        "notice": "A -> B -> C: B: level1 A: level2"
      },
      "setReferrerRewardFee(uint16,uint16,uint8)": {
        "notice": "mul 100 when set. eg: 8% -> 800 18%-> 1800"
      }
    },
    "version": 1
  },
  "storageLayout": {
    "storage": [
      {
        "astId": 549,
        "contract": "src/RebornPortal.sol:RebornPortal",
        "label": "_initialized",
        "offset": 0,
        "slot": "0",
        "type": "t_uint8"
      },
      {
        "astId": 552,
        "contract": "src/RebornPortal.sol:RebornPortal",
        "label": "_initializing",
        "offset": 1,
        "slot": "0",
        "type": "t_bool"
      },
      {
        "astId": 3596,
        "contract": "src/RebornPortal.sol:RebornPortal",
        "label": "__gap",
        "offset": 0,
        "slot": "1",
        "type": "t_array(t_uint256)50_storage"
      },
      {
        "astId": 8211,
        "contract": "src/RebornPortal.sol:RebornPortal",
        "label": "_owner",
        "offset": 0,
        "slot": "51",
        "type": "t_address"
      },
      {
        "astId": 8213,
        "contract": "src/RebornPortal.sol:RebornPortal",
        "label": "_pendingOwner",
        "offset": 0,
        "slot": "52",
        "type": "t_address"
      },
      {
        "astId": 8404,
        "contract": "src/RebornPortal.sol:RebornPortal",
        "label": "__gap",
        "offset": 0,
        "slot": "53",
        "type": "t_array(t_uint256)48_storage"
      },
      {
        "astId": 531,
        "contract": "src/RebornPortal.sol:RebornPortal",
        "label": "__gap",
        "offset": 0,
        "slot": "101",
        "type": "t_array(t_uint256)50_storage"
      },
      {
        "astId": 846,
        "contract": "src/RebornPortal.sol:RebornPortal",
        "label": "__gap",
        "offset": 0,
        "slot": "151",
        "type": "t_array(t_uint256)50_storage"
      },
      {
        "astId": 4460,
        "contract": "src/RebornPortal.sol:RebornPortal",
        "label": "__gap",
        "offset": 0,
        "slot": "201",
        "type": "t_array(t_uint256)50_storage"
      },
      {
        "astId": 12422,
        "contract": "src/RebornPortal.sol:RebornPortal",
        "label": "_season",
        "offset": 0,
        "slot": "251",
        "type": "t_uint256"
      },
      {
        "astId": 12425,
        "contract": "src/RebornPortal.sol:RebornPortal",
        "label": "rebornToken",
        "offset": 0,
        "slot": "252",
        "type": "t_contract(RBT)10260"
      },
      {
        "astId": 12429,
        "contract": "src/RebornPortal.sol:RebornPortal",
        "label": "signers",
        "offset": 0,
        "slot": "253",
        "type": "t_mapping(t_address,t_bool)"
      },
      {
        "astId": 12433,
        "contract": "src/RebornPortal.sol:RebornPortal",
        "label": "rounds",
        "offset": 0,
        "slot": "254",
        "type": "t_mapping(t_address,t_uint32)"
      },
      {
        "astId": 12435,
        "contract": "src/RebornPortal.sol:RebornPortal",
        "label": "idx",
        "offset": 0,
        "slot": "255",
        "type": "t_uint256"
      },
      {
        "astId": 12440,
        "contract": "src/RebornPortal.sol:RebornPortal",
        "label": "details",
        "offset": 0,
        "slot": "256",
        "type": "t_mapping(t_uint256,t_struct(LifeDetail)13036_storage)"
      },
      {
        "astId": 12445,
        "contract": "src/RebornPortal.sol:RebornPortal",
        "label": "_seasonData",
        "offset": 0,
        "slot": "257",
        "type": "t_mapping(t_uint256,t_struct(SeasonData)13068_storage)"
      },
      {
        "astId": 12449,
        "contract": "src/RebornPortal.sol:RebornPortal",
        "label": "referrals",
        "offset": 0,
        "slot": "258",
        "type": "t_mapping(t_address,t_address)"
      },
      {
        "astId": 12452,
        "contract": "src/RebornPortal.sol:RebornPortal",
        "label": "rewardFees",
        "offset": 0,
        "slot": "259",
        "type": "t_struct(ReferrerRewardFees)8724_storage"
      },
      {
        "astId": 12455,
        "contract": "src/RebornPortal.sol:RebornPortal",
        "label": "vault",
        "offset": 0,
        "slot": "260",
        "type": "t_contract(RewardVault)12861"
      },
      {
        "astId": 12458,
        "contract": "src/RebornPortal.sol:RebornPortal",
        "label": "_seeds",
        "offset": 0,
        "slot": "261",
        "type": "t_struct(BitMap)5346_storage"
      },
      {
        "astId": 12461,
        "contract": "src/RebornPortal.sol:RebornPortal",
        "label": "_dropConf",
        "offset": 0,
        "slot": "262",
        "type": "t_struct(AirdropConf)8766_storage"
      },
      {
        "astId": 12463,
        "contract": "src/RebornPortal.sol:RebornPortal",
        "label": "burnPool",
        "offset": 0,
        "slot": "263",
        "type": "t_address"
      },
      {
        "astId": 12466,
        "contract": "src/RebornPortal.sol:RebornPortal",
        "label": "_vrfConf",
        "offset": 0,
        "slot": "264",
        "type": "t_struct(VrfConf)8777_storage"
      },
      {
        "astId": 12471,
        "contract": "src/RebornPortal.sol:RebornPortal",
        "label": "_vrfRequests",
        "offset": 0,
        "slot": "266",
        "type": "t_mapping(t_uint256,t_struct(RequestStatus)13085_storage)"
      },
      {
        "astId": 12474,
        "contract": "src/RebornPortal.sol:RebornPortal",
        "label": "_pendingDrops",
        "offset": 0,
        "slot": "267",
        "type": "t_struct(Data)13434_storage"
      },
      {
        "astId": 12476,
        "contract": "src/RebornPortal.sol:RebornPortal",
        "label": "_extraReward",
        "offset": 0,
        "slot": "270",
        "type": "t_uint256"
      },
      {
        "astId": 12478,
        "contract": "src/RebornPortal.sol:RebornPortal",
        "label": "_isBeta",
        "offset": 0,
        "slot": "271",
        "type": "t_bool"
      },
      {
        "astId": 12482,
        "contract": "src/RebornPortal.sol:RebornPortal",
        "label": "_incarnateCounts",
        "offset": 0,
        "slot": "272",
        "type": "t_mapping(t_address,t_uint256)"
      },
      {
        "astId": 12484,
        "contract": "src/RebornPortal.sol:RebornPortal",
        "label": "_incarnateCountLimit",
        "offset": 0,
        "slot": "273",
        "type": "t_uint256"
      },
      {
        "astId": 12489,
        "contract": "src/RebornPortal.sol:RebornPortal",
        "label": "_gap",
        "offset": 0,
        "slot": "274",
        "type": "t_array(t_uint256)30_storage"
      },
      {
        "astId": 2169,
        "contract": "src/RebornPortal.sol:RebornPortal",
        "label": "_name",
        "offset": 0,
        "slot": "304",
        "type": "t_string_storage"
      },
      {
        "astId": 2171,
        "contract": "src/RebornPortal.sol:RebornPortal",
        "label": "_symbol",
        "offset": 0,
        "slot": "305",
        "type": "t_string_storage"
      },
      {
        "astId": 2175,
        "contract": "src/RebornPortal.sol:RebornPortal",
        "label": "_owners",
        "offset": 0,
        "slot": "306",
        "type": "t_mapping(t_uint256,t_address)"
      },
      {
        "astId": 2179,
        "contract": "src/RebornPortal.sol:RebornPortal",
        "label": "_balances",
        "offset": 0,
        "slot": "307",
        "type": "t_mapping(t_address,t_uint256)"
      },
      {
        "astId": 2183,
        "contract": "src/RebornPortal.sol:RebornPortal",
        "label": "_tokenApprovals",
        "offset": 0,
        "slot": "308",
        "type": "t_mapping(t_uint256,t_address)"
      },
      {
        "astId": 2189,
        "contract": "src/RebornPortal.sol:RebornPortal",
        "label": "_operatorApprovals",
        "offset": 0,
        "slot": "309",
        "type": "t_mapping(t_address,t_mapping(t_address,t_bool))"
      },
      {
        "astId": 3109,
        "contract": "src/RebornPortal.sol:RebornPortal",
        "label": "__gap",
        "offset": 0,
        "slot": "310",
        "type": "t_array(t_uint256)44_storage"
      },
      {
        "astId": 988,
        "contract": "src/RebornPortal.sol:RebornPortal",
        "label": "_status",
        "offset": 0,
        "slot": "354",
        "type": "t_uint256"
      },
      {
        "astId": 1046,
        "contract": "src/RebornPortal.sol:RebornPortal",
        "label": "__gap",
        "offset": 0,
        "slot": "355",
        "type": "t_array(t_uint256)49_storage"
      },
      {
        "astId": 868,
        "contract": "src/RebornPortal.sol:RebornPortal",
        "label": "_paused",
        "offset": 0,
        "slot": "404",
        "type": "t_bool"
      },
      {
        "astId": 973,
        "contract": "src/RebornPortal.sol:RebornPortal",
        "label": "__gap",
        "offset": 0,
        "slot": "405",
        "type": "t_array(t_uint256)49_storage"
      },
      {
        "astId": 17086,
        "contract": "src/RebornPortal.sol:RebornPortal",
        "label": "vrfCoordinator",
        "offset": 0,
        "slot": "454",
        "type": "t_address"
      },
      {
        "astId": 17090,
        "contract": "src/RebornPortal.sol:RebornPortal",
        "label": "__gap",
        "offset": 0,
        "slot": "455",
        "type": "t_array(t_uint256)49_storage"
      }
    ],
    "types": {
      "t_address": {
        "encoding": "inplace",
        "label": "address",
        "numberOfBytes": "20"
      },
      "t_array(t_uint256)30_storage": {
        "base": "t_uint256",
        "encoding": "inplace",
        "label": "uint256[30]",
        "numberOfBytes": "960"
      },
      "t_array(t_uint256)44_storage": {
        "base": "t_uint256",
        "encoding": "inplace",
        "label": "uint256[44]",
        "numberOfBytes": "1408"
      },
      "t_array(t_uint256)48_storage": {
        "base": "t_uint256",
        "encoding": "inplace",
        "label": "uint256[48]",
        "numberOfBytes": "1536"
      },
      "t_array(t_uint256)49_storage": {
        "base": "t_uint256",
        "encoding": "inplace",
        "label": "uint256[49]",
        "numberOfBytes": "1568"
      },
      "t_array(t_uint256)50_storage": {
        "base": "t_uint256",
        "encoding": "inplace",
        "label": "uint256[50]",
        "numberOfBytes": "1600"
      },
      "t_array(t_uint256)dyn_storage": {
        "base": "t_uint256",
        "encoding": "dynamic_array",
        "label": "uint256[]",
        "numberOfBytes": "32"
      },
      "t_bool": {
        "encoding": "inplace",
        "label": "bool",
        "numberOfBytes": "1"
      },
      "t_bytes32": {
        "encoding": "inplace",
        "label": "bytes32",
        "numberOfBytes": "32"
      },
      "t_contract(RBT)10260": {
        "encoding": "inplace",
        "label": "contract RBT",
        "numberOfBytes": "20"
      },
      "t_contract(RewardVault)12861": {
        "encoding": "inplace",
        "label": "contract RewardVault",
        "numberOfBytes": "20"
      },
      "t_enum(AirdropVrfType)13072": {
        "encoding": "inplace",
        "label": "enum IRebornDefination.AirdropVrfType",
        "numberOfBytes": "1"
      },
      "t_mapping(t_address,t_address)": {
        "encoding": "mapping",
        "key": "t_address",
        "label": "mapping(address => address)",
        "numberOfBytes": "32",
        "value": "t_address"
      },
      "t_mapping(t_address,t_bool)": {
        "encoding": "mapping",
        "key": "t_address",
        "label": "mapping(address => bool)",
        "numberOfBytes": "32",
        "value": "t_bool"
      },
      "t_mapping(t_address,t_mapping(t_address,t_bool))": {
        "encoding": "mapping",
        "key": "t_address",
        "label": "mapping(address => mapping(address => bool))",
        "numberOfBytes": "32",
        "value": "t_mapping(t_address,t_bool)"
      },
      "t_mapping(t_address,t_mapping(t_uint256,t_struct(Portfolio)8747_storage))": {
        "encoding": "mapping",
        "key": "t_address",
        "label": "mapping(address => mapping(uint256 => struct PortalLib.Portfolio))",
        "numberOfBytes": "32",
        "value": "t_mapping(t_uint256,t_struct(Portfolio)8747_storage)"
      },
      "t_mapping(t_address,t_uint256)": {
        "encoding": "mapping",
        "key": "t_address",
        "label": "mapping(address => uint256)",
        "numberOfBytes": "32",
        "value": "t_uint256"
      },
      "t_mapping(t_address,t_uint32)": {
        "encoding": "mapping",
        "key": "t_address",
        "label": "mapping(address => uint32)",
        "numberOfBytes": "32",
        "value": "t_uint32"
      },
      "t_mapping(t_uint256,t_address)": {
        "encoding": "mapping",
        "key": "t_uint256",
        "label": "mapping(uint256 => address)",
        "numberOfBytes": "32",
        "value": "t_address"
      },
      "t_mapping(t_uint256,t_struct(Data)13434_storage)": {
        "encoding": "mapping",
        "key": "t_uint256",
        "label": "mapping(uint256 => struct FastArray.Data)",
        "numberOfBytes": "32",
        "value": "t_struct(Data)13434_storage"
      },
      "t_mapping(t_uint256,t_struct(LifeDetail)13036_storage)": {
        "encoding": "mapping",
        "key": "t_uint256",
        "label": "mapping(uint256 => struct IRebornDefination.LifeDetail)",
        "numberOfBytes": "32",
        "value": "t_struct(LifeDetail)13036_storage"
      },
      "t_mapping(t_uint256,t_struct(Node)13674_storage)": {
        "encoding": "mapping",
        "key": "t_uint256",
        "label": "mapping(uint256 => struct RankingRedBlackTree.Node)",
        "numberOfBytes": "32",
        "value": "t_struct(Node)13674_storage"
      },
      "t_mapping(t_uint256,t_struct(Pool)8735_storage)": {
        "encoding": "mapping",
        "key": "t_uint256",
        "label": "mapping(uint256 => struct PortalLib.Pool)",
        "numberOfBytes": "32",
        "value": "t_struct(Pool)8735_storage"
      },
      "t_mapping(t_uint256,t_struct(Portfolio)8747_storage)": {
        "encoding": "mapping",
        "key": "t_uint256",
        "label": "mapping(uint256 => struct PortalLib.Portfolio)",
        "numberOfBytes": "32",
        "value": "t_struct(Portfolio)8747_storage"
      },
      "t_mapping(t_uint256,t_struct(RequestStatus)13085_storage)": {
        "encoding": "mapping",
        "key": "t_uint256",
        "label": "mapping(uint256 => struct IRebornDefination.RequestStatus)",
        "numberOfBytes": "32",
        "value": "t_struct(RequestStatus)13085_storage"
      },
      "t_mapping(t_uint256,t_struct(SeasonData)13068_storage)": {
        "encoding": "mapping",
        "key": "t_uint256",
        "label": "mapping(uint256 => struct IRebornDefination.SeasonData)",
        "numberOfBytes": "32",
        "value": "t_struct(SeasonData)13068_storage"
      },
      "t_mapping(t_uint256,t_uint256)": {
        "encoding": "mapping",
        "key": "t_uint256",
        "label": "mapping(uint256 => uint256)",
        "numberOfBytes": "32",
        "value": "t_uint256"
      },
      "t_string_storage": {
        "encoding": "bytes",
        "label": "string",
        "numberOfBytes": "32"
      },
      "t_struct(AirdropConf)8766_storage": {
        "encoding": "inplace",
        "label": "struct PortalLib.AirdropConf",
        "members": [
          {
            "astId": 8749,
            "contract": "src/RebornPortal.sol:RebornPortal",
            "label": "_dropOn",
            "offset": 0,
            "slot": "0",
            "type": "t_uint8"
          },
          {
            "astId": 8751,
            "contract": "src/RebornPortal.sol:RebornPortal",
            "label": "_rebornDropInterval",
            "offset": 1,
            "slot": "0",
            "type": "t_uint40"
          },
          {
            "astId": 8753,
            "contract": "src/RebornPortal.sol:RebornPortal",
            "label": "_nativeDropInterval",
            "offset": 6,
            "slot": "0",
            "type": "t_uint40"
          },
          {
            "astId": 8755,
            "contract": "src/RebornPortal.sol:RebornPortal",
            "label": "_rebornDropLastUpdate",
            "offset": 11,
            "slot": "0",
            "type": "t_uint40"
          },
          {
            "astId": 8757,
            "contract": "src/RebornPortal.sol:RebornPortal",
            "label": "_nativeDropLastUpdate",
            "offset": 16,
            "slot": "0",
            "type": "t_uint40"
          },
          {
            "astId": 8759,
            "contract": "src/RebornPortal.sol:RebornPortal",
            "label": "_nativeTopDropRatio",
            "offset": 21,
            "slot": "0",
            "type": "t_uint16"
          },
          {
            "astId": 8761,
            "contract": "src/RebornPortal.sol:RebornPortal",
            "label": "_nativeRaffleDropRatio",
            "offset": 23,
            "slot": "0",
            "type": "t_uint16"
          },
          {
            "astId": 8763,
            "contract": "src/RebornPortal.sol:RebornPortal",
            "label": "_rebornTopEthAmount",
            "offset": 25,
            "slot": "0",
            "type": "t_uint16"
          },
          {
            "astId": 8765,
            "contract": "src/RebornPortal.sol:RebornPortal",
            "label": "_rebornRaffleEthAmount",
            "offset": 27,
            "slot": "0",
            "type": "t_uint40"
          }
        ],
        "numberOfBytes": "32"
      },
      "t_struct(BitMap)5346_storage": {
        "encoding": "inplace",
        "label": "struct BitMapsUpgradeable.BitMap",
        "members": [
          {
            "astId": 5345,
            "contract": "src/RebornPortal.sol:RebornPortal",
            "label": "_data",
            "offset": 0,
            "slot": "0",
            "type": "t_mapping(t_uint256,t_uint256)"
          }
        ],
        "numberOfBytes": "32"
      },
      "t_struct(Data)13434_storage": {
        "encoding": "inplace",
        "label": "struct FastArray.Data",
        "members": [
          {
            "astId": 13427,
            "contract": "src/RebornPortal.sol:RebornPortal",
            "label": "array",
            "offset": 0,
            "slot": "0",
            "type": "t_mapping(t_uint256,t_uint256)"
          },
          {
            "astId": 13431,
            "contract": "src/RebornPortal.sol:RebornPortal",
            "label": "indexMap",
            "offset": 0,
            "slot": "1",
            "type": "t_mapping(t_uint256,t_uint256)"
          },
          {
            "astId": 13433,
            "contract": "src/RebornPortal.sol:RebornPortal",
            "label": "length",
            "offset": 0,
            "slot": "2",
            "type": "t_uint256"
          }
        ],
        "numberOfBytes": "96"
      },
      "t_struct(Data)16569_storage": {
        "encoding": "inplace",
        "label": "struct SingleRanking.Data",
        "members": [
          {
            "astId": 16561,
            "contract": "src/RebornPortal.sol:RebornPortal",
            "label": "tree",
            "offset": 0,
            "slot": "0",
            "type": "t_struct(Tree)13684_storage"
          },
          {
            "astId": 16566,
            "contract": "src/RebornPortal.sol:RebornPortal",
            "label": "keys",
            "offset": 0,
            "slot": "3",
            "type": "t_mapping(t_uint256,t_struct(Data)13434_storage)"
          },
          {
            "astId": 16568,
            "contract": "src/RebornPortal.sol:RebornPortal",
            "label": "length",
            "offset": 0,
            "slot": "4",
            "type": "t_uint256"
          }
        ],
        "numberOfBytes": "160"
      },
      "t_struct(LifeDetail)13036_storage": {
        "encoding": "inplace",
        "label": "struct IRebornDefination.LifeDetail",
        "members": [
          {
            "astId": 13019,
            "contract": "src/RebornPortal.sol:RebornPortal",
            "label": "seed",
            "offset": 0,
            "slot": "0",
            "type": "t_bytes32"
          },
          {
            "astId": 13021,
            "contract": "src/RebornPortal.sol:RebornPortal",
            "label": "creator",
            "offset": 0,
            "slot": "1",
            "type": "t_address"
          },
          {
            "astId": 13023,
            "contract": "src/RebornPortal.sol:RebornPortal",
            "label": "age",
            "offset": 20,
            "slot": "1",
            "type": "t_uint16"
          },
          {
            "astId": 13025,
            "contract": "src/RebornPortal.sol:RebornPortal",
            "label": "round",
            "offset": 22,
            "slot": "1",
            "type": "t_uint32"
          },
          {
            "astId": 13027,
            "contract": "src/RebornPortal.sol:RebornPortal",
            "label": "nothing",
            "offset": 26,
            "slot": "1",
            "type": "t_uint48"
          },
          {
            "astId": 13029,
            "contract": "src/RebornPortal.sol:RebornPortal",
            "label": "cost",
            "offset": 0,
            "slot": "2",
            "type": "t_uint128"
          },
          {
            "astId": 13031,
            "contract": "src/RebornPortal.sol:RebornPortal",
            "label": "reward",
            "offset": 16,
            "slot": "2",
            "type": "t_uint128"
          },
          {
            "astId": 13033,
            "contract": "src/RebornPortal.sol:RebornPortal",
            "label": "score",
            "offset": 0,
            "slot": "3",
            "type": "t_uint256"
          },
          {
            "astId": 13035,
            "contract": "src/RebornPortal.sol:RebornPortal",
            "label": "creatorName",
            "offset": 0,
            "slot": "4",
            "type": "t_string_storage"
          }
        ],
        "numberOfBytes": "160"
      },
      "t_struct(Node)13674_storage": {
        "encoding": "inplace",
        "label": "struct RankingRedBlackTree.Node",
        "members": [
          {
            "astId": 13661,
            "contract": "src/RebornPortal.sol:RebornPortal",
            "label": "id",
            "offset": 0,
            "slot": "0",
            "type": "t_uint256"
          },
          {
            "astId": 13663,
            "contract": "src/RebornPortal.sol:RebornPortal",
            "label": "value",
            "offset": 0,
            "slot": "1",
            "type": "t_uint256"
          },
          {
            "astId": 13665,
            "contract": "src/RebornPortal.sol:RebornPortal",
            "label": "count",
            "offset": 0,
            "slot": "2",
            "type": "t_uint256"
          },
          {
            "astId": 13667,
            "contract": "src/RebornPortal.sol:RebornPortal",
            "label": "parent",
            "offset": 0,
            "slot": "3",
            "type": "t_uint256"
          },
          {
            "astId": 13669,
            "contract": "src/RebornPortal.sol:RebornPortal",
            "label": "left",
            "offset": 0,
            "slot": "4",
            "type": "t_uint256"
          },
          {
            "astId": 13671,
            "contract": "src/RebornPortal.sol:RebornPortal",
            "label": "right",
            "offset": 0,
            "slot": "5",
            "type": "t_uint256"
          },
          {
            "astId": 13673,
            "contract": "src/RebornPortal.sol:RebornPortal",
            "label": "red",
            "offset": 0,
            "slot": "6",
            "type": "t_bool"
          }
        ],
        "numberOfBytes": "224"
      },
      "t_struct(Pool)8735_storage": {
        "encoding": "inplace",
        "label": "struct PortalLib.Pool",
        "members": [
          {
            "astId": 8726,
            "contract": "src/RebornPortal.sol:RebornPortal",
            "label": "totalAmount",
            "offset": 0,
            "slot": "0",
            "type": "t_uint256"
          },
          {
            "astId": 8728,
            "contract": "src/RebornPortal.sol:RebornPortal",
            "label": "accRebornPerShare",
            "offset": 0,
            "slot": "1",
            "type": "t_uint256"
          },
          {
            "astId": 8730,
            "contract": "src/RebornPortal.sol:RebornPortal",
            "label": "accNativePerShare",
            "offset": 0,
            "slot": "2",
            "type": "t_uint256"
          },
          {
            "astId": 8732,
            "contract": "src/RebornPortal.sol:RebornPortal",
            "label": "epoch",
            "offset": 0,
            "slot": "3",
            "type": "t_uint256"
          },
          {
            "astId": 8734,
            "contract": "src/RebornPortal.sol:RebornPortal",
            "label": "lastUpdated",
            "offset": 0,
            "slot": "4",
            "type": "t_uint256"
          }
        ],
        "numberOfBytes": "160"
      },
      "t_struct(Portfolio)8747_storage": {
        "encoding": "inplace",
        "label": "struct PortalLib.Portfolio",
        "members": [
          {
            "astId": 8737,
            "contract": "src/RebornPortal.sol:RebornPortal",
            "label": "accumulativeAmount",
            "offset": 0,
            "slot": "0",
            "type": "t_uint256"
          },
          {
            "astId": 8739,
            "contract": "src/RebornPortal.sol:RebornPortal",
            "label": "rebornRewardDebt",
            "offset": 0,
            "slot": "1",
            "type": "t_uint256"
          },
          {
            "astId": 8741,
            "contract": "src/RebornPortal.sol:RebornPortal",
            "label": "nativeRewardDebt",
            "offset": 0,
            "slot": "2",
            "type": "t_uint256"
          },
          {
            "astId": 8744,
            "contract": "src/RebornPortal.sol:RebornPortal",
            "label": "pendingOwnerRebornReward",
            "offset": 0,
            "slot": "3",
            "type": "t_uint256"
          },
          {
            "astId": 8746,
            "contract": "src/RebornPortal.sol:RebornPortal",
            "label": "pendingOwnerNativeReward",
            "offset": 0,
            "slot": "4",
            "type": "t_uint256"
          }
        ],
        "numberOfBytes": "160"
      },
      "t_struct(ReferrerRewardFees)8724_storage": {
        "encoding": "inplace",
        "label": "struct PortalLib.ReferrerRewardFees",
        "members": [
          {
            "astId": 8715,
            "contract": "src/RebornPortal.sol:RebornPortal",
            "label": "incarnateRef1Fee",
            "offset": 0,
            "slot": "0",
            "type": "t_uint16"
          },
          {
            "astId": 8717,
            "contract": "src/RebornPortal.sol:RebornPortal",
            "label": "incarnateRef2Fee",
            "offset": 2,
            "slot": "0",
            "type": "t_uint16"
          },
          {
            "astId": 8719,
            "contract": "src/RebornPortal.sol:RebornPortal",
            "label": "vaultRef1Fee",
            "offset": 4,
            "slot": "0",
            "type": "t_uint16"
          },
          {
            "astId": 8721,
            "contract": "src/RebornPortal.sol:RebornPortal",
            "label": "vaultRef2Fee",
            "offset": 6,
            "slot": "0",
            "type": "t_uint16"
          },
          {
            "astId": 8723,
            "contract": "src/RebornPortal.sol:RebornPortal",
            "label": "_slotPlaceholder",
            "offset": 8,
            "slot": "0",
            "type": "t_uint192"
          }
        ],
        "numberOfBytes": "32"
      },
      "t_struct(RequestStatus)13085_storage": {
        "encoding": "inplace",
        "label": "struct IRebornDefination.RequestStatus",
        "members": [
          {
            "astId": 13074,
            "contract": "src/RebornPortal.sol:RebornPortal",
            "label": "fulfilled",
            "offset": 0,
            "slot": "0",
            "type": "t_bool"
          },
          {
            "astId": 13076,
            "contract": "src/RebornPortal.sol:RebornPortal",
            "label": "exists",
            "offset": 1,
            "slot": "0",
            "type": "t_bool"
          },
          {
            "astId": 13078,
            "contract": "src/RebornPortal.sol:RebornPortal",
            "label": "executed",
            "offset": 2,
            "slot": "0",
            "type": "t_bool"
          },
          {
            "astId": 13081,
            "contract": "src/RebornPortal.sol:RebornPortal",
            "label": "t",
            "offset": 3,
            "slot": "0",
            "type": "t_enum(AirdropVrfType)13072"
          },
          {
            "astId": 13084,
            "contract": "src/RebornPortal.sol:RebornPortal",
            "label": "randomWords",
            "offset": 0,
            "slot": "1",
            "type": "t_array(t_uint256)dyn_storage"
          }
        ],
        "numberOfBytes": "64"
      },
      "t_struct(SeasonData)13068_storage": {
        "encoding": "inplace",
        "label": "struct IRebornDefination.SeasonData",
        "members": [
          {
            "astId": 13041,
            "contract": "src/RebornPortal.sol:RebornPortal",
            "label": "pools",
            "offset": 0,
            "slot": "0",
            "type": "t_mapping(t_uint256,t_struct(Pool)8735_storage)"
          },
          {
            "astId": 13049,
            "contract": "src/RebornPortal.sol:RebornPortal",
            "label": "portfolios",
            "offset": 0,
            "slot": "1",
            "type": "t_mapping(t_address,t_mapping(t_uint256,t_struct(Portfolio)8747_storage))"
          },
          {
            "astId": 13052,
            "contract": "src/RebornPortal.sol:RebornPortal",
            "label": "_tributeRank",
            "offset": 0,
            "slot": "2",
            "type": "t_struct(Data)16569_storage"
          },
          {
            "astId": 13055,
            "contract": "src/RebornPortal.sol:RebornPortal",
            "label": "_scoreRank",
            "offset": 0,
            "slot": "7",
            "type": "t_struct(Data)16569_storage"
          },
          {
            "astId": 13059,
            "contract": "src/RebornPortal.sol:RebornPortal",
            "label": "_oldStakeAmounts",
            "offset": 0,
            "slot": "12",
            "type": "t_mapping(t_uint256,t_uint256)"
          },
          {
            "astId": 13063,
            "contract": "src/RebornPortal.sol:RebornPortal",
            "label": "_isTopHundredScore",
            "offset": 0,
            "slot": "13",
            "type": "t_struct(BitMap)5346_storage"
          },
          {
            "astId": 13065,
            "contract": "src/RebornPortal.sol:RebornPortal",
            "label": "_minScore",
            "offset": 0,
            "slot": "14",
            "type": "t_uint256"
          },
          {
            "astId": 13067,
            "contract": "src/RebornPortal.sol:RebornPortal",
            "label": "_jackpot",
            "offset": 0,
            "slot": "15",
            "type": "t_uint256"
          }
        ],
        "numberOfBytes": "512"
      },
      "t_struct(Tree)13684_storage": {
        "encoding": "inplace",
        "label": "struct RankingRedBlackTree.Tree",
        "members": [
          {
            "astId": 13676,
            "contract": "src/RebornPortal.sol:RebornPortal",
            "label": "root",
            "offset": 0,
            "slot": "0",
            "type": "t_uint256"
          },
          {
            "astId": 13681,
            "contract": "src/RebornPortal.sol:RebornPortal",
            "label": "nodes",
            "offset": 0,
            "slot": "1",
            "type": "t_mapping(t_uint256,t_struct(Node)13674_storage)"
          },
          {
            "astId": 13683,
            "contract": "src/RebornPortal.sol:RebornPortal",
            "label": "counter",
            "offset": 0,
            "slot": "2",
            "type": "t_uint256"
          }
        ],
        "numberOfBytes": "96"
      },
      "t_struct(VrfConf)8777_storage": {
        "encoding": "inplace",
        "label": "struct PortalLib.VrfConf",
        "members": [
          {
            "astId": 8768,
            "contract": "src/RebornPortal.sol:RebornPortal",
            "label": "keyHash",
            "offset": 0,
            "slot": "0",
            "type": "t_bytes32"
          },
          {
            "astId": 8770,
            "contract": "src/RebornPortal.sol:RebornPortal",
            "label": "s_subscriptionId",
            "offset": 0,
            "slot": "1",
            "type": "t_uint64"
          },
          {
            "astId": 8772,
            "contract": "src/RebornPortal.sol:RebornPortal",
            "label": "callbackGasLimit",
            "offset": 8,
            "slot": "1",
            "type": "t_uint32"
          },
          {
            "astId": 8774,
            "contract": "src/RebornPortal.sol:RebornPortal",
            "label": "numWords",
            "offset": 12,
            "slot": "1",
            "type": "t_uint32"
          },
          {
            "astId": 8776,
            "contract": "src/RebornPortal.sol:RebornPortal",
            "label": "requestConfirmations",
            "offset": 16,
            "slot": "1",
            "type": "t_uint16"
          }
        ],
        "numberOfBytes": "64"
      },
      "t_uint128": {
        "encoding": "inplace",
        "label": "uint128",
        "numberOfBytes": "16"
      },
      "t_uint16": {
        "encoding": "inplace",
        "label": "uint16",
        "numberOfBytes": "2"
      },
      "t_uint192": {
        "encoding": "inplace",
        "label": "uint192",
        "numberOfBytes": "24"
      },
      "t_uint256": {
        "encoding": "inplace",
        "label": "uint256",
        "numberOfBytes": "32"
      },
      "t_uint32": {
        "encoding": "inplace",
        "label": "uint32",
        "numberOfBytes": "4"
      },
      "t_uint40": {
        "encoding": "inplace",
        "label": "uint40",
        "numberOfBytes": "5"
      },
      "t_uint48": {
        "encoding": "inplace",
        "label": "uint48",
        "numberOfBytes": "6"
      },
      "t_uint64": {
        "encoding": "inplace",
        "label": "uint64",
        "numberOfBytes": "8"
      },
      "t_uint8": {
        "encoding": "inplace",
        "label": "uint8",
        "numberOfBytes": "1"
      }
    }
  }
}