{
  "address": "0xBf98565059Bf45dA9D7e48Ec5c70a4800517323C",
  "abi": [
    {
      "inputs": [],
      "name": "CallerNotOwner",
      "type": "error"
    },
    {
      "inputs": [],
      "name": "CallerNotPendingOwner",
      "type": "error"
    },
    {
      "inputs": [],
      "name": "DropOff",
      "type": "error"
    },
    {
      "inputs": [],
      "name": "IncarnationExceedLimit",
      "type": "error"
    },
    {
      "inputs": [],
      "name": "InsufficientAmount",
      "type": "error"
    },
    {
      "inputs": [],
      "name": "NotSetBurnPoolAddress",
      "type": "error"
    },
    {
      "inputs": [],
      "name": "NotSigner",
      "type": "error"
    },
    {
      "inputs": [
        {
          "internalType": "address",
          "name": "have",
          "type": "address"
        },
        {
          "internalType": "address",
          "name": "want",
          "type": "address"
        }
      ],
      "name": "OnlyCoordinatorCanFulfill",
      "type": "error"
    },
    {
      "inputs": [],
      "name": "OnlySimulatedBackend",
      "type": "error"
    },
    {
      "inputs": [],
      "name": "SameSeed",
      "type": "error"
    },
    {
      "inputs": [],
      "name": "ZeroAddressCoordinatorSet",
      "type": "error"
    },
    {
      "inputs": [],
      "name": "ZeroAddressOwnerSet",
      "type": "error"
    },
    {
      "inputs": [],
      "name": "ZeroAddressSet",
      "type": "error"
    },
    {
      "anonymous": false,
      "inputs": [
        {
          "indexed": false,
          "internalType": "address",
          "name": "previousAdmin",
          "type": "address"
        },
        {
          "indexed": false,
          "internalType": "address",
          "name": "newAdmin",
          "type": "address"
        }
      ],
      "name": "AdminChanged",
      "type": "event"
    },
    {
      "anonymous": false,
      "inputs": [
        {
          "indexed": true,
          "internalType": "address",
          "name": "owner",
          "type": "address"
        },
        {
          "indexed": true,
          "internalType": "address",
          "name": "approved",
          "type": "address"
        },
        {
          "indexed": true,
          "internalType": "uint256",
          "name": "tokenId",
          "type": "uint256"
        }
      ],
      "name": "Approval",
      "type": "event"
    },
    {
      "anonymous": false,
      "inputs": [
        {
          "indexed": true,
          "internalType": "address",
          "name": "owner",
          "type": "address"
        },
        {
          "indexed": true,
          "internalType": "address",
          "name": "operator",
          "type": "address"
        },
        {
          "indexed": false,
          "internalType": "bool",
          "name": "approved",
          "type": "bool"
        }
      ],
      "name": "ApprovalForAll",
      "type": "event"
    },
    {
      "anonymous": false,
      "inputs": [
        {
          "indexed": true,
          "internalType": "address",
          "name": "user",
          "type": "address"
        },
        {
          "indexed": false,
          "internalType": "uint256",
          "name": "amount",
          "type": "uint256"
        }
      ],
      "name": "Baptise",
      "type": "event"
    },
    {
      "anonymous": false,
      "inputs": [
        {
          "indexed": true,
          "internalType": "address",
          "name": "beacon",
          "type": "address"
        }
      ],
      "name": "BeaconUpgraded",
      "type": "event"
    },
    {
      "anonymous": false,
      "inputs": [
        {
          "indexed": false,
          "internalType": "bool",
          "name": "",
          "type": "bool"
        }
      ],
      "name": "BetaStageSet",
      "type": "event"
    },
    {
      "anonymous": false,
      "inputs": [
        {
          "indexed": true,
          "internalType": "address",
          "name": "account",
          "type": "address"
        },
        {
          "indexed": false,
          "internalType": "uint256",
          "name": "tokenId",
          "type": "uint256"
        },
        {
          "indexed": false,
          "internalType": "uint256",
          "name": "amount",
          "type": "uint256"
        }
      ],
      "name": "DecreaseFromPool",
      "type": "event"
    },
    {
      "anonymous": false,
      "inputs": [
        {
          "indexed": false,
          "internalType": "uint256[]",
          "name": "tokenIds",
          "type": "uint256[]"
        }
      ],
      "name": "Drop",
      "type": "event"
    },
    {
      "anonymous": false,
      "inputs": [
        {
          "indexed": true,
          "internalType": "address",
          "name": "user",
          "type": "address"
        },
        {
          "indexed": true,
          "internalType": "uint256",
          "name": "tokenId",
          "type": "uint256"
        },
        {
          "indexed": false,
          "internalType": "uint256",
          "name": "amount",
          "type": "uint256"
        }
      ],
      "name": "Dry",
      "type": "event"
    },
    {
      "anonymous": false,
      "inputs": [
        {
          "indexed": true,
          "internalType": "bytes32",
          "name": "seed",
          "type": "bytes32"
        },
        {
          "indexed": true,
          "internalType": "address",
          "name": "user",
          "type": "address"
        },
        {
          "indexed": true,
          "internalType": "uint256",
          "name": "tokenId",
          "type": "uint256"
        },
        {
          "indexed": false,
          "internalType": "uint256",
          "name": "score",
          "type": "uint256"
        },
        {
          "indexed": false,
          "internalType": "uint256",
          "name": "reward",
          "type": "uint256"
        }
      ],
      "name": "Engrave",
      "type": "event"
    },
    {
      "anonymous": false,
      "inputs": [
        {
          "indexed": true,
          "internalType": "address",
          "name": "user",
          "type": "address"
        },
        {
          "indexed": true,
          "internalType": "uint256",
          "name": "talentPrice",
          "type": "uint256"
        },
        {
          "indexed": true,
          "internalType": "uint256",
          "name": "PropertyPrice",
          "type": "uint256"
        },
        {
          "indexed": false,
          "internalType": "uint256",
          "name": "soupPrice",
          "type": "uint256"
        }
      ],
      "name": "Incarnate",
      "type": "event"
    },
    {
      "anonymous": false,
      "inputs": [
        {
          "indexed": true,
          "internalType": "address",
          "name": "account",
          "type": "address"
        },
        {
          "indexed": false,
          "internalType": "uint256",
          "name": "tokenId",
          "type": "uint256"
        },
        {
          "indexed": false,
          "internalType": "uint256",
          "name": "amount",
          "type": "uint256"
        }
      ],
      "name": "IncreaseToPool",
      "type": "event"
    },
    {
      "anonymous": false,
      "inputs": [
        {
          "indexed": true,
          "internalType": "address",
          "name": "user",
          "type": "address"
        },
        {
          "indexed": true,
          "internalType": "uint256",
          "name": "tokenId",
          "type": "uint256"
        },
        {
          "indexed": false,
          "internalType": "uint256",
          "name": "amount",
          "type": "uint256"
        }
      ],
      "name": "Infuse",
      "type": "event"
    },
    {
      "anonymous": false,
      "inputs": [
        {
          "indexed": false,
          "internalType": "uint8",
          "name": "version",
          "type": "uint8"
        }
      ],
      "name": "Initialized",
      "type": "event"
    },
    {
      "anonymous": false,
      "inputs": [
        {
          "indexed": false,
          "internalType": "uint256",
          "name": "extraReward",
          "type": "uint256"
        }
      ],
      "name": "NewExtraReward",
      "type": "event"
    },
    {
      "anonymous": false,
      "inputs": [
        {
          "indexed": false,
          "internalType": "uint256",
          "name": "limit",
          "type": "uint256"
        }
      ],
      "name": "NewIncarnationLimit",
      "type": "event"
    },
    {
      "anonymous": false,
      "inputs": [
        {
          "indexed": false,
          "internalType": "uint256",
          "name": "",
          "type": "uint256"
        }
      ],
      "name": "NewSeason",
      "type": "event"
    },
    {
      "anonymous": false,
      "inputs": [
        {
          "indexed": false,
          "internalType": "uint256",
          "name": "price",
          "type": "uint256"
        }
      ],
      "name": "NewSoupPrice",
      "type": "event"
    },
    {
      "anonymous": false,
      "inputs": [
        {
          "indexed": true,
          "internalType": "address",
          "name": "previousOwner",
          "type": "address"
        },
        {
          "indexed": true,
          "internalType": "address",
          "name": "newOwner",
          "type": "address"
        }
      ],
      "name": "OwnershipTransferred",
      "type": "event"
    },
    {
      "anonymous": false,
      "inputs": [
        {
          "indexed": false,
          "internalType": "address",
          "name": "account",
          "type": "address"
        }
      ],
      "name": "Paused",
      "type": "event"
    },
    {
      "anonymous": false,
      "inputs": [
        {
          "indexed": false,
          "internalType": "address",
          "name": "referee",
          "type": "address"
        },
        {
          "indexed": false,
          "internalType": "address",
          "name": "referrer",
          "type": "address"
        }
      ],
      "name": "Refer",
      "type": "event"
    },
    {
      "anonymous": false,
      "inputs": [
        {
          "indexed": true,
          "internalType": "address",
          "name": "from",
          "type": "address"
        },
        {
          "indexed": true,
          "internalType": "address",
          "name": "to",
          "type": "address"
        },
        {
          "indexed": true,
          "internalType": "uint256",
          "name": "tokenId",
          "type": "uint256"
        }
      ],
      "name": "Transfer",
      "type": "event"
    },
    {
      "anonymous": false,
      "inputs": [
        {
          "indexed": false,
          "internalType": "address",
          "name": "account",
          "type": "address"
        }
      ],
      "name": "Unpaused",
      "type": "event"
    },
    {
      "anonymous": false,
      "inputs": [
        {
          "indexed": true,
          "internalType": "address",
          "name": "implementation",
          "type": "address"
        }
      ],
      "name": "Upgraded",
      "type": "event"
    },
    {
      "anonymous": false,
      "inputs": [
        {
          "indexed": false,
          "internalType": "address",
          "name": "rewardVault",
          "type": "address"
        }
      ],
      "name": "VaultSet",
      "type": "event"
    },
    {
      "inputs": [
        {
          "internalType": "address",
          "name": "to",
          "type": "address"
        },
        {
          "internalType": "uint256",
          "name": "tokenId",
          "type": "uint256"
        }
      ],
      "name": "approve",
      "outputs": [],
      "stateMutability": "nonpayable",
      "type": "function"
    },
    {
      "inputs": [
        {
          "internalType": "address",
          "name": "owner",
          "type": "address"
        }
      ],
      "name": "balanceOf",
      "outputs": [
        {
          "internalType": "uint256",
          "name": "",
          "type": "uint256"
        }
      ],
      "stateMutability": "view",
      "type": "function"
    },
    {
      "inputs": [
        {
          "internalType": "address",
          "name": "user",
          "type": "address"
        },
        {
          "internalType": "uint256",
          "name": "amount",
          "type": "uint256"
        }
      ],
      "name": "baptise",
      "outputs": [],
      "stateMutability": "nonpayable",
      "type": "function"
    },
    {
      "inputs": [
        {
          "internalType": "uint256",
          "name": "amount",
          "type": "uint256"
        }
      ],
      "name": "burnFromBurnPool",
      "outputs": [],
      "stateMutability": "nonpayable",
      "type": "function"
    },
    {
      "inputs": [],
      "name": "burnPool",
      "outputs": [
        {
          "internalType": "address",
          "name": "",
          "type": "address"
        }
      ],
      "stateMutability": "view",
      "type": "function"
    },
    {
      "inputs": [
        {
          "internalType": "address",
          "name": "account",
          "type": "address"
        },
        {
          "internalType": "uint256",
          "name": "amount",
          "type": "uint256"
        },
        {
          "internalType": "enum PortalLib.RewardType",
          "name": "rewardType",
          "type": "uint8"
        }
      ],
      "name": "calculateReferReward",
      "outputs": [
        {
          "internalType": "address",
          "name": "ref1",
          "type": "address"
        },
        {
          "internalType": "uint256",
          "name": "ref1Reward",
          "type": "uint256"
        },
        {
          "internalType": "address",
          "name": "ref2",
          "type": "address"
        },
        {
          "internalType": "uint256",
          "name": "ref2Reward",
          "type": "uint256"
        }
      ],
      "stateMutability": "view",
      "type": "function"
    },
    {
      "inputs": [
        {
          "internalType": "bytes",
          "name": "",
          "type": "bytes"
        }
      ],
      "name": "checkUpkeep",
      "outputs": [
        {
          "internalType": "bool",
          "name": "upkeepNeeded",
          "type": "bool"
        },
        {
          "internalType": "bytes",
          "name": "performData",
          "type": "bytes"
        }
      ],
      "stateMutability": "view",
      "type": "function"
    },
    {
      "inputs": [
        {
          "internalType": "uint256[]",
          "name": "tokenIds",
          "type": "uint256[]"
        }
      ],
      "name": "claimDrops",
      "outputs": [],
      "stateMutability": "nonpayable",
      "type": "function"
    },
    {
      "inputs": [
        {
          "internalType": "uint256[]",
          "name": "tokenIds",
          "type": "uint256[]"
        }
      ],
      "name": "claimNativeDrops",
      "outputs": [],
      "stateMutability": "nonpayable",
      "type": "function"
    },
    {
      "inputs": [],
      "name": "claimOwnership",
      "outputs": [],
      "stateMutability": "nonpayable",
      "type": "function"
    },
    {
      "inputs": [
        {
          "internalType": "uint256[]",
          "name": "tokenIds",
          "type": "uint256[]"
        }
      ],
      "name": "claimRebornDrops",
      "outputs": [],
      "stateMutability": "nonpayable",
      "type": "function"
    },
    {
      "inputs": [
        {
          "internalType": "bytes32",
          "name": "seed",
          "type": "bytes32"
        },
        {
          "internalType": "address",
          "name": "user",
          "type": "address"
        },
        {
          "internalType": "uint256",
          "name": "reward",
          "type": "uint256"
        },
        {
          "internalType": "uint256",
          "name": "score",
          "type": "uint256"
        },
        {
          "internalType": "uint256",
          "name": "age",
          "type": "uint256"
        },
        {
          "internalType": "uint256",
          "name": "cost",
          "type": "uint256"
        },
        {
          "internalType": "string",
          "name": "creatorName",
          "type": "string"
        }
      ],
      "name": "engrave",
      "outputs": [],
      "stateMutability": "nonpayable",
      "type": "function"
    },
    {
      "inputs": [
        {
          "internalType": "uint256",
          "name": "tokenId",
          "type": "uint256"
        }
      ],
      "name": "getApproved",
      "outputs": [
        {
          "internalType": "address",
          "name": "",
          "type": "address"
        }
      ],
      "stateMutability": "view",
      "type": "function"
    },
    {
      "inputs": [],
      "name": "getDropConf",
      "outputs": [
        {
          "components": [
            {
              "internalType": "uint8",
              "name": "_dropOn",
              "type": "uint8"
            },
            {
              "internalType": "uint40",
              "name": "_rebornDropInterval",
              "type": "uint40"
            },
            {
              "internalType": "uint40",
              "name": "_nativeDropInterval",
              "type": "uint40"
            },
            {
              "internalType": "uint40",
              "name": "_rebornDropLastUpdate",
              "type": "uint40"
            },
            {
              "internalType": "uint40",
              "name": "_nativeDropLastUpdate",
              "type": "uint40"
            },
            {
              "internalType": "uint16",
              "name": "_nativeTopDropRatio",
              "type": "uint16"
            },
            {
              "internalType": "uint16",
              "name": "_nativeRaffleDropRatio",
              "type": "uint16"
            },
            {
              "internalType": "uint16",
              "name": "_rebornTopEthAmount",
              "type": "uint16"
            },
            {
              "internalType": "uint40",
              "name": "_rebornRaffleEthAmount",
              "type": "uint40"
            }
          ],
          "internalType": "struct PortalLib.AirdropConf",
          "name": "",
          "type": "tuple"
        }
      ],
      "stateMutability": "view",
      "type": "function"
    },
    {
      "inputs": [],
      "name": "getJackPot",
      "outputs": [
        {
          "internalType": "uint256",
          "name": "",
          "type": "uint256"
        }
      ],
      "stateMutability": "view",
      "type": "function"
    },
    {
      "inputs": [
        {
          "internalType": "uint256",
          "name": "tokenId",
          "type": "uint256"
        }
      ],
      "name": "getPool",
      "outputs": [
        {
          "components": [
            {
              "internalType": "uint256",
              "name": "totalAmount",
              "type": "uint256"
            },
            {
              "internalType": "uint256",
              "name": "accRebornPerShare",
              "type": "uint256"
            },
            {
              "internalType": "uint256",
              "name": "accNativePerShare",
              "type": "uint256"
            },
            {
              "internalType": "uint256",
              "name": "epoch",
              "type": "uint256"
            },
            {
              "internalType": "uint256",
              "name": "lastUpdated",
              "type": "uint256"
            }
          ],
          "internalType": "struct PortalLib.Pool",
          "name": "",
          "type": "tuple"
        }
      ],
      "stateMutability": "view",
      "type": "function"
    },
    {
      "inputs": [
        {
          "internalType": "address",
          "name": "user",
          "type": "address"
        },
        {
          "internalType": "uint256",
          "name": "tokenId",
          "type": "uint256"
        }
      ],
      "name": "getPortfolio",
      "outputs": [
        {
          "components": [
            {
              "internalType": "uint256",
              "name": "accumulativeAmount",
              "type": "uint256"
            },
            {
              "internalType": "uint256",
              "name": "rebornRewardDebt",
              "type": "uint256"
            },
            {
              "internalType": "uint256",
              "name": "nativeRewardDebt",
              "type": "uint256"
            },
            {
              "internalType": "uint256",
              "name": "pendingOwnerRebornReward",
              "type": "uint256"
            },
            {
              "internalType": "uint256",
              "name": "pendingOwnerNativeReward",
              "type": "uint256"
            }
          ],
          "internalType": "struct PortalLib.Portfolio",
          "name": "",
          "type": "tuple"
        }
      ],
      "stateMutability": "view",
      "type": "function"
    },
    {
      "inputs": [
        {
          "internalType": "address",
          "name": "account",
          "type": "address"
        }
      ],
      "name": "getRerferrers",
      "outputs": [
        {
          "internalType": "address",
          "name": "referrer1",
          "type": "address"
        },
        {
          "internalType": "address",
          "name": "referrer2",
          "type": "address"
        }
      ],
      "stateMutability": "view",
      "type": "function"
    },
    {
      "inputs": [
        {
          "components": [
            {
              "internalType": "uint256",
              "name": "talentPrice",
              "type": "uint256"
            },
            {
              "internalType": "uint256",
              "name": "propertyPrice",
              "type": "uint256"
            }
          ],
          "internalType": "struct IRebornDefination.Innate",
          "name": "innate",
          "type": "tuple"
        },
        {
          "internalType": "address",
          "name": "referrer",
          "type": "address"
        },
        {
          "internalType": "uint256",
          "name": "_soupPrice",
          "type": "uint256"
        }
      ],
      "name": "incarnate",
      "outputs": [],
      "stateMutability": "payable",
      "type": "function"
    },
    {
      "inputs": [
        {
          "internalType": "uint256",
          "name": "tokenId",
          "type": "uint256"
        },
        {
          "internalType": "uint256",
          "name": "amount",
          "type": "uint256"
        },
        {
          "internalType": "uint256",
          "name": "permitAmount",
          "type": "uint256"
        },
        {
          "internalType": "uint256",
          "name": "deadline",
          "type": "uint256"
        },
        {
          "internalType": "bytes32",
          "name": "r",
          "type": "bytes32"
        },
        {
          "internalType": "bytes32",
          "name": "s",
          "type": "bytes32"
        },
        {
          "internalType": "uint8",
          "name": "v",
          "type": "uint8"
        }
      ],
      "name": "infuse",
      "outputs": [],
      "stateMutability": "nonpayable",
      "type": "function"
    },
    {
      "inputs": [
        {
          "internalType": "uint256",
          "name": "tokenId",
          "type": "uint256"
        },
        {
          "internalType": "uint256",
          "name": "amount",
          "type": "uint256"
        }
      ],
      "name": "infuse",
      "outputs": [],
      "stateMutability": "nonpayable",
      "type": "function"
    },
    {
      "inputs": [
        {
          "internalType": "contract RBT",
          "name": "rebornToken_",
          "type": "address"
        },
        {
          "internalType": "address",
          "name": "owner_",
          "type": "address"
        },
        {
          "internalType": "string",
          "name": "name_",
          "type": "string"
        },
        {
          "internalType": "string",
          "name": "symbol_",
          "type": "string"
        },
        {
          "internalType": "address",
          "name": "vrfCoordinator_",
          "type": "address"
        }
      ],
      "name": "initialize",
      "outputs": [],
      "stateMutability": "nonpayable",
      "type": "function"
    },
    {
      "inputs": [
        {
          "internalType": "address",
          "name": "owner",
          "type": "address"
        },
        {
          "internalType": "address",
          "name": "operator",
          "type": "address"
        }
      ],
      "name": "isApprovedForAll",
      "outputs": [
        {
          "internalType": "bool",
          "name": "",
          "type": "bool"
        }
      ],
      "stateMutability": "view",
      "type": "function"
    },
    {
      "inputs": [],
      "name": "name",
      "outputs": [
        {
          "internalType": "string",
          "name": "",
          "type": "string"
        }
      ],
      "stateMutability": "view",
      "type": "function"
    },
    {
      "inputs": [],
      "name": "owner",
      "outputs": [
        {
          "internalType": "address",
          "name": "",
          "type": "address"
        }
      ],
      "stateMutability": "view",
      "type": "function"
    },
    {
      "inputs": [
        {
          "internalType": "uint256",
          "name": "tokenId",
          "type": "uint256"
        }
      ],
      "name": "ownerOf",
      "outputs": [
        {
          "internalType": "address",
          "name": "",
          "type": "address"
        }
      ],
      "stateMutability": "view",
      "type": "function"
    },
    {
      "inputs": [],
      "name": "pause",
      "outputs": [],
      "stateMutability": "nonpayable",
      "type": "function"
    },
    {
      "inputs": [],
      "name": "paused",
      "outputs": [
        {
          "internalType": "bool",
          "name": "",
          "type": "bool"
        }
      ],
      "stateMutability": "view",
      "type": "function"
    },
    {
      "inputs": [
        {
          "internalType": "uint256[]",
          "name": "tokenIds",
          "type": "uint256[]"
        }
      ],
      "name": "pendingDrop",
      "outputs": [
        {
          "internalType": "uint256",
          "name": "pNative",
          "type": "uint256"
        },
        {
          "internalType": "uint256",
          "name": "pReborn",
          "type": "uint256"
        }
      ],
      "stateMutability": "view",
      "type": "function"
    },
    {
      "inputs": [],
      "name": "pendingOwner",
      "outputs": [
        {
          "internalType": "address",
          "name": "",
          "type": "address"
        }
      ],
      "stateMutability": "view",
      "type": "function"
    },
    {
      "inputs": [
        {
          "internalType": "bytes",
          "name": "performData",
          "type": "bytes"
        }
      ],
      "name": "performUpkeep",
      "outputs": [],
      "stateMutability": "nonpayable",
      "type": "function"
    },
    {
      "inputs": [],
      "name": "proxiableUUID",
      "outputs": [
        {
          "internalType": "bytes32",
          "name": "",
          "type": "bytes32"
        }
      ],
      "stateMutability": "view",
      "type": "function"
    },
    {
      "inputs": [
        {
          "internalType": "uint256",
          "name": "requestId",
          "type": "uint256"
        },
        {
          "internalType": "uint256[]",
          "name": "randomWords",
          "type": "uint256[]"
        }
      ],
      "name": "rawFulfillRandomWords",
      "outputs": [],
      "stateMutability": "nonpayable",
      "type": "function"
    },
    {
      "inputs": [],
      "name": "rebornToken",
      "outputs": [
        {
          "internalType": "contract RBT",
          "name": "",
          "type": "address"
        }
      ],
      "stateMutability": "view",
      "type": "function"
    },
    {
      "inputs": [],
      "name": "renounceOwnership",
      "outputs": [],
      "stateMutability": "nonpayable",
      "type": "function"
    },
    {
      "inputs": [],
      "name": "rewardFees",
      "outputs": [
        {
          "internalType": "uint16",
          "name": "incarnateRef1Fee",
          "type": "uint16"
        },
        {
          "internalType": "uint16",
          "name": "incarnateRef2Fee",
          "type": "uint16"
        },
        {
          "internalType": "uint16",
          "name": "vaultRef1Fee",
          "type": "uint16"
        },
        {
          "internalType": "uint16",
          "name": "vaultRef2Fee",
          "type": "uint16"
        },
        {
          "internalType": "uint192",
          "name": "_slotPlaceholder",
          "type": "uint192"
        }
      ],
      "stateMutability": "view",
      "type": "function"
    },
    {
      "inputs": [
        {
          "internalType": "address",
          "name": "from",
          "type": "address"
        },
        {
          "internalType": "address",
          "name": "to",
          "type": "address"
        },
        {
          "internalType": "uint256",
          "name": "tokenId",
          "type": "uint256"
        }
      ],
      "name": "safeTransferFrom",
      "outputs": [],
      "stateMutability": "nonpayable",
      "type": "function"
    },
    {
      "inputs": [
        {
          "internalType": "address",
          "name": "from",
          "type": "address"
        },
        {
          "internalType": "address",
          "name": "to",
          "type": "address"
        },
        {
          "internalType": "uint256",
          "name": "tokenId",
          "type": "uint256"
        },
        {
          "internalType": "bytes",
          "name": "data",
          "type": "bytes"
        }
      ],
      "name": "safeTransferFrom",
      "outputs": [],
      "stateMutability": "nonpayable",
      "type": "function"
    },
    {
      "inputs": [
        {
          "internalType": "bytes32",
          "name": "seed",
          "type": "bytes32"
        }
      ],
      "name": "seedExists",
      "outputs": [
        {
          "internalType": "bool",
          "name": "",
          "type": "bool"
        }
      ],
      "stateMutability": "view",
      "type": "function"
    },
    {
      "inputs": [
        {
          "internalType": "address",
          "name": "operator",
          "type": "address"
        },
        {
          "internalType": "bool",
          "name": "approved",
          "type": "bool"
        }
      ],
      "name": "setApprovalForAll",
      "outputs": [],
      "stateMutability": "nonpayable",
      "type": "function"
    },
    {
      "inputs": [
        {
          "internalType": "address",
          "name": "burnPool_",
          "type": "address"
        }
      ],
      "name": "setBurnPool",
      "outputs": [],
      "stateMutability": "nonpayable",
      "type": "function"
    },
    {
      "inputs": [
        {
          "components": [
            {
              "internalType": "uint8",
              "name": "_dropOn",
              "type": "uint8"
            },
            {
              "internalType": "uint40",
              "name": "_rebornDropInterval",
              "type": "uint40"
            },
            {
              "internalType": "uint40",
              "name": "_nativeDropInterval",
              "type": "uint40"
            },
            {
              "internalType": "uint40",
              "name": "_rebornDropLastUpdate",
              "type": "uint40"
            },
            {
              "internalType": "uint40",
              "name": "_nativeDropLastUpdate",
              "type": "uint40"
            },
            {
              "internalType": "uint16",
              "name": "_nativeTopDropRatio",
              "type": "uint16"
            },
            {
              "internalType": "uint16",
              "name": "_nativeRaffleDropRatio",
              "type": "uint16"
            },
            {
              "internalType": "uint16",
              "name": "_rebornTopEthAmount",
              "type": "uint16"
            },
            {
              "internalType": "uint40",
              "name": "_rebornRaffleEthAmount",
              "type": "uint40"
            }
          ],
          "internalType": "struct PortalLib.AirdropConf",
          "name": "conf",
          "type": "tuple"
        }
      ],
      "name": "setDropConf",
      "outputs": [],
      "stateMutability": "nonpayable",
      "type": "function"
    },
    {
      "inputs": [
        {
          "internalType": "uint256",
          "name": "extraReward",
          "type": "uint256"
        }
      ],
      "name": "setExtraReward",
      "outputs": [],
      "stateMutability": "nonpayable",
      "type": "function"
    },
    {
      "inputs": [
        {
          "internalType": "uint256",
          "name": "limit",
          "type": "uint256"
        }
      ],
      "name": "setIncarnationLimit",
      "outputs": [],
      "stateMutability": "nonpayable",
      "type": "function"
    },
    {
      "inputs": [
        {
          "internalType": "uint16",
          "name": "refL1Fee",
          "type": "uint16"
        },
        {
          "internalType": "uint16",
          "name": "refL2Fee",
          "type": "uint16"
        },
        {
          "internalType": "enum PortalLib.RewardType",
          "name": "rewardType",
          "type": "uint8"
        }
      ],
      "name": "setReferrerRewardFee",
      "outputs": [],
      "stateMutability": "nonpayable",
      "type": "function"
    },
    {
      "inputs": [
        {
          "internalType": "contract RewardVault",
          "name": "vault_",
          "type": "address"
        }
      ],
      "name": "setVault",
      "outputs": [],
      "stateMutability": "nonpayable",
      "type": "function"
    },
    {
      "inputs": [
        {
          "components": [
            {
              "internalType": "bytes32",
              "name": "keyHash",
              "type": "bytes32"
            },
            {
              "internalType": "uint64",
              "name": "s_subscriptionId",
              "type": "uint64"
            },
            {
              "internalType": "uint32",
              "name": "callbackGasLimit",
              "type": "uint32"
            },
            {
              "internalType": "uint32",
              "name": "numWords",
              "type": "uint32"
            },
            {
              "internalType": "uint16",
              "name": "requestConfirmations",
              "type": "uint16"
            }
          ],
          "internalType": "struct PortalLib.VrfConf",
          "name": "conf",
          "type": "tuple"
        }
      ],
      "name": "setVrfConf",
      "outputs": [],
      "stateMutability": "nonpayable",
      "type": "function"
    },
    {
      "inputs": [
        {
          "internalType": "address",
          "name": "",
          "type": "address"
        }
      ],
      "name": "signers",
      "outputs": [
        {
          "internalType": "bool",
          "name": "",
          "type": "bool"
        }
      ],
      "stateMutability": "view",
      "type": "function"
    },
    {
      "inputs": [
        {
          "internalType": "bytes4",
          "name": "interfaceId",
          "type": "bytes4"
        }
      ],
      "name": "supportsInterface",
      "outputs": [
        {
          "internalType": "bool",
          "name": "",
          "type": "bool"
        }
      ],
      "stateMutability": "view",
      "type": "function"
    },
    {
      "inputs": [
        {
          "internalType": "uint256",
          "name": "fromTokenId",
          "type": "uint256"
        },
        {
          "internalType": "uint256",
          "name": "toTokenId",
          "type": "uint256"
        },
        {
          "internalType": "uint256",
          "name": "amount",
          "type": "uint256"
        }
      ],
      "name": "switchPool",
      "outputs": [],
      "stateMutability": "nonpayable",
      "type": "function"
    },
    {
      "inputs": [],
      "name": "symbol",
      "outputs": [
        {
          "internalType": "string",
          "name": "",
          "type": "string"
        }
      ],
      "stateMutability": "view",
      "type": "function"
    },
    {
      "inputs": [],
      "name": "toNextSeason",
      "outputs": [],
      "stateMutability": "nonpayable",
      "type": "function"
    },
    {
      "inputs": [
        {
          "internalType": "uint256",
          "name": "tokenId",
          "type": "uint256"
        }
      ],
      "name": "tokenURI",
      "outputs": [
        {
          "internalType": "string",
          "name": "",
          "type": "string"
        }
      ],
      "stateMutability": "view",
      "type": "function"
    },
    {
      "inputs": [
        {
          "internalType": "address",
          "name": "from",
          "type": "address"
        },
        {
          "internalType": "address",
          "name": "to",
          "type": "address"
        },
        {
          "internalType": "uint256",
          "name": "tokenId",
          "type": "uint256"
        }
      ],
      "name": "transferFrom",
      "outputs": [],
      "stateMutability": "nonpayable",
      "type": "function"
    },
    {
      "inputs": [
        {
          "internalType": "address",
          "name": "newOwner",
          "type": "address"
        },
        {
          "internalType": "bool",
          "name": "direct",
          "type": "bool"
        }
      ],
      "name": "transferOwnership",
      "outputs": [],
      "stateMutability": "nonpayable",
      "type": "function"
    },
    {
      "inputs": [],
      "name": "unPause",
      "outputs": [],
      "stateMutability": "nonpayable",
      "type": "function"
    },
    {
      "inputs": [
        {
          "internalType": "address[]",
          "name": "toAdd",
          "type": "address[]"
        },
        {
          "internalType": "address[]",
          "name": "toRemove",
          "type": "address[]"
        }
      ],
      "name": "updateSigners",
      "outputs": [],
      "stateMutability": "nonpayable",
      "type": "function"
    },
    {
      "inputs": [
        {
          "internalType": "address",
          "name": "newImplementation",
          "type": "address"
        }
      ],
      "name": "upgradeTo",
      "outputs": [],
      "stateMutability": "nonpayable",
      "type": "function"
    },
    {
      "inputs": [
        {
          "internalType": "address",
          "name": "newImplementation",
          "type": "address"
        },
        {
          "internalType": "bytes",
          "name": "data",
          "type": "bytes"
        }
      ],
      "name": "upgradeToAndCall",
      "outputs": [],
      "stateMutability": "payable",
      "type": "function"
    },
    {
      "inputs": [],
      "name": "vault",
      "outputs": [
        {
          "internalType": "contract RewardVault",
          "name": "",
          "type": "address"
        }
      ],
      "stateMutability": "view",
      "type": "function"
    },
    {
      "inputs": [
        {
          "internalType": "uint256",
          "name": "amount",
          "type": "uint256"
        }
      ],
      "name": "withdrawNativeToken",
      "outputs": [],
      "stateMutability": "nonpayable",
      "type": "function"
    },
    {
      "inputs": [
        {
          "internalType": "address",
          "name": "to",
          "type": "address"
        }
      ],
      "name": "withdrawVault",
      "outputs": [],
      "stateMutability": "nonpayable",
      "type": "function"
    }
  ],
  "transactionHash": "0xb51bf9b1b086ceb65873c2ae7c7b129acee339dff73c9b719577c2bf28070cb3",
  "args": [],
  "numDeployments": 24,
  "solcInputHash": "f6e6d452782abdad5dd9693be35085b8",
  "bytecode": "0x60a08060405234610031573060805261553e90816100378239608051818181611d2d01528181611e1e0152612a470152f35b600080fdfe608080604052600436101561001357600080fd5b600090813560e01c90816301ffc9a71461407457508063068bcd8d1461403557806306fdde0314613f8c578063081812fc14613f6d578063095ea7b314613df65780630aaef80214613d175780630e357a6e14613c8657806316a065c614613c5d57806317e0f25214613c0d5780631fe543e314613a9057806320dfe3c61461347057806323b872dd1461344b57806328275338146132ee5780632bf8e8f6146132a157806332eb808a1461317e578063350b2369146130a4578063362925c214612bf05780633659cfe614612a2057806339c17502146128e557806342842e0e1461288a57806343f0e9931461282f5780634585e33b146121575780634e71e0c8146120db5780634f1ef28614611dde57806352d1902d14611d1a57806358c7a06314611c505780635c975abb14611c2c578063603d080014611bcd5780636352211e14611b9c5780636817031b14611b285780636e04ff0d14611ace57806370a0823114611a37578063715018a6146119b6578063736c0d5b1461197757806376f7a9fc14611799578063802e9cfa146117225780638456cb59146116bc5780638d47a30d146115c15780638da5cb5b14611598578063918c49e4146113e85780639208b21e1461133657806395d89b411461124b5780639aab85e5146111d75780639d215042146110d1578063a22cb46514611011578063a54b2a7314610fe7578063afd5f74714610ee1578063b242e53414610e7a578063b88d4fde14610e01578063b9e53a9f14610b77578063c3b82b8d14610838578063c417db69146107e0578063c87b56dd146106e4578063db640081146105ff578063e30c3978146105d6578063e4421be21461048d578063e985e9c514610438578063f1bd4c041461040b578063f7b188a5146103a8578063fbd7823514610364578063fbfa77cf1461033a5763ff9c7543146102cb57600080fd5b3461033757602036600319011261033757603354600435906001600160a01b03163303610325576020817f39feb9fafd10c5355c86cdccca7884a183c4dd524ca37b0761575ce0974cdb069261011155604051908152a180f35b604051632e6c18c960e11b8152600490fd5b80fd5b5034610337578060031936011261033757610104546040516001600160a01b039091168152602090f35b503461033757602036600319011261033757602061039e60043560ff6001918060081c600052610105602052161b60406000205416151590565b6040519015158152f35b50346103375780600319360112610337576033546001600160a01b03163303610325576103d3614ca0565b61019460ff1981541690557f5db9ee0a495bf2e6ff9c91a7834c1ba4fdd244a5e8aa4e537bd38aeae4b073aa6020604051338152a180f35b5034610337578060031936011261033757600f604060209260fb5481526101018452200154604051908152f35b503461033757604036600319011261033757610452614129565b604061045c61413f565b9260018060a01b038093168152610135602052209116600052602052602060ff604060002054166040519015158152f35b50346103375760403660031901126105d1576004356104aa614b83565b6104b2614bc8565b8173605B6900CB9c632000312Cd116B3e1e82985aF7460fb5482526101018060205260408320823b156105aa57604051906329caab3960e11b825285600483015260248201528381604481865af49081156105c65784916105ae575b505060018060a01b0361010454169060fb54845260205260408320823b156105aa57604051630b06bff360e21b8152600481018690526001600160a01b039290921660248301526044820152908290829060649082905af4801561059f57610587575b506001610162556105846024358361500c565b80f35b61059090614171565b61059b578138610571565b5080fd5b6040513d84823e3d90fd5b8380fd5b6105b790614171565b6105c257823861050e565b8280fd5b6040513d86823e3d90fd5b600080fd5b50346103375780600319360112610337576034546040516001600160a01b039091168152602090f35b50346103375760208060031936011261059b57816004356001600160401b03811161059b5791610634829336906004016142e9565b92909161063f614b83565b73605B6900CB9c632000312Cd116B3e1e82985aF7492825b858110610662578380f35b61066d818784614c7a565b3560fb548552610101845260408520863b156106e057604051916329caab3960e11b8352600483015260248201528481604481895af49081156106d55785916106c1575b50506106bc90614c1f565b610657565b6106ca90614171565b6105aa5783886106b1565b6040513d87823e3d90fd5b8580fd5b50346103375760208060031936011261059b57604051632f8218bd60e21b815261010060048201526004356024820152828160448173F4415A0f02255B9dd5FfF6bE3F4E514F2E18DDfa5af49283156107d4578093610758575b5050610754604051928284938452830190614104565b0390f35b909192503d8082843e61076b81846141f1565b820191838184031261059b578051906001600160401b0382116105c2570182601f8201121561059b578051916107a083614319565b936107ae60405195866141f1565b8385528584840101116103375750906107cc918480850191016140e1565b90388061073e565b604051903d90823e3d90fd5b5034610337576020366003190112610337576001600160a01b0380610803614129565b16825261010260209081526040808420548316808552938190205481516001600160a01b039586168152931690931690820152f35b50346103375760603660031901126103375760243560043560443561085b614b83565b610863614bc8565b73605B6900CB9c632000312Cd116B3e1e82985aF749160fb5485526101018560209482865260408220813b156105c2576040516329caab3960e11b9182825286600483015260248201528381604481865af49081156105c6578491610b63575b5050610104805460fb548552858952604085206001600160a01b039182169290853b15610b5f57604051630b06bff360e21b808252600482018b90526001600160a01b0395909516602482015260448101919091528681606481895af4908115610b3c578791610b4b575b50506101629360018555610940614bc8565b60fb548752878b5260408720863b15610b47576040519182528c600483015260248201528681604481895af4908115610b3c578791610b28575b505054169060fb54855285895260408520843b156106e057604051918252600482018b90526001600160a01b0392909216602482015260448101919091528381606481865af49081156105c6578491610b14575b50506001905560fb549283835280875260016040842001336000528752604060002085845287526040832093835286526040822084835286526040822092610a17868254614a45565b8155610a24868554614a45565b8455813b156105c2578290604460405180948193636496053360e01b835288600484015260248301525af4801561059f57610b00575b5050610a6790548261524e565b60405190815281838201527fe6907eb8ffc12ac27891b5560db15647cae89e2b344f0c34c63bb6f1d4249cff60403392a2605f810290808204605f1490151715610aec576064900490610aba82846152de565b6040519283528201527f7e9ecb928e58cb1d1c8cda62ae789939f9f184616eb26ef72e801f98b6ef556a60403392a280f35b634e487b7160e01b84526011600452602484fd5b610b0990614171565b6106e0578538610a5a565b610b1d90614171565b6105c25782386109ce565b610b3190614171565b6106e057853861097a565b6040513d89823e3d90fd5b8780fd5b610b5490614171565b6106e057853861092e565b8680fd5b610b6c90614171565b6105c25782386108c3565b5036600319016080811261059b57604013610337576044356001600160a01b03818116918281036105d15760643590338552610110936020948086526040872054610111541115610def5733875285526040862080549060018201809211610ddb5755610be2614b83565b610bea614bc8565b338652610102938486526040872054161580610dd2575b80610dc8575b610d70575b505060043591610c1c8383614a52565b93610c2a6024358096614a52565b91823410610d5e5786808080610c408734614a45565b818115610d55575b3390f115610d4a5760405190633039061160e01b825260048201526101036024820152336044820152826064820152818160848173605B6900CB9c632000312Cd116B3e1e82985aF745af4908115610b3c578791610cfd575b50610ccd907f617b1a2bf0533cea0c5dd46104e1d48f8b290fc7d7360dba0182dbf07a00e46a93614a45565b60fb5487526101018252610ce9600f6040892001918254614a52565b90556040519283523392a460016101625580f35b90508181813d8311610d43575b610d1481836141f1565b810103126105d157517f617b1a2bf0533cea0c5dd46104e1d48f8b290fc7d7360dba0182dbf07a00e46a610ca1565b503d610d0a565b6040513d88823e3d90fd5b506108fc610c48565b604051632ca2f52b60e11b8152600490fd5b604080872080546001600160a01b0319169290921790915580513381526001600160a01b039290921660208301527f677cd8c8ce12dc7827579d65be5e6efa74b6ac9ab04ac43d4648dc85d328c2ae91a13880610c0c565b5033811415610c07565b50801515610c01565b634e487b7160e01b88526011600452602488fd5b60405163d92de14f60e01b8152600490fd5b503461033757608036600319011261033757610e1b614129565b610e2361413f565b90606435906044356001600160401b038311610e765761058493610e4e610e7194369060040161436b565b92610e61610e5c84336146f9565b614624565b610e6c8383836147c2565b6149ca565b6146d9565b8480fd5b503461033757610e8936614389565b6033549091906001600160a01b039081163303610325578116918215610ecf5715610eb8576105849150614a9f565b506001600160601b0360a01b603454161760345580f35b604051633aafecb360e21b8152600490fd5b50346103375780600319360112610337576033546001600160a01b031633036103255760fb54906001820191828111610fd3578260fb55610f20614b83565b610194600160ff198254161790557f62e78cea01bee320cd4e420270b5ea74000d11b0c9f74754ebdbfc544b05a2586020604051338152a1815261010180602052600f604083200154908160041b9180830460101490151715610fbf5782936064935260205204600f6040832001557f3bf8992b1ca7018d446bcf1d45dc7a62e50decf5248434be4194aef154463380602060fb54604051908152a180f35b634e487b7160e01b83526011600452602483fd5b634e487b7160e01b82526011600452602482fd5b5034610337578060031936011261033757610107546040516001600160a01b039091168152602090f35b50346103375761102036614389565b6001600160a01b039091169033821461108c57338352610135602052604083208260005260205260406000209015159060ff1981541660ff83161790556040519081527f17307eab39ab6107e8899845ad3d59bd9653f200f220920489ca2b5937696c3160203392a380f35b60405162461bcd60e51b815260206004820152601960248201527f4552433732313a20617070726f766520746f2063616c6c6572000000000000006044820152606490fd5b50346103375760a0366003190112610337576033546001600160a01b031633036103255760043580610108556024356001600160401b0381168091036105c257610109918254916044359363ffffffff91828616908187036105d157606435938416928385036105d1576084359661ffff8816958689036105d1577f3510c45fb24ce728b56d5136c57163ff69e25ab31ac04a1264387c7acff6c41e996bffffffff00000000000000008560a09b61ffff60801b9060801b169471ffffffffffffffffffffffffffffffffffff1916179160401b16179063ffffffff60601b9060601b16171790556040519485526020850152604084015260608301526080820152a180f35b5034610337576020366003190112610337576033546001600160a01b0390811633036103255781906101075416803b1561124857818091602460405180948193630852cd8d60e31b835260043560048401525af1801561059f576112385750f35b61124190614171565b6103375780f35b50fd5b5034610337578060031936011261033757604051908061013190815490611271826145aa565b8086529260019280841690811561130957506001146112af575b6107548661129b818803826141f1565b604051918291602083526020830190614104565b815292507fbd987ad6ccdb7c7567f7335ea839f95dc944431abcf935b6924f70215963db735b8284106112f157505050810160200161129b826107543861128b565b805460208587018101919091529093019281016112d5565b90508695506107549693506020925061129b94915060ff191682840152151560051b82010192933861128b565b50346103375760603660031901126103375760043561ffff908181168091036105d1576024359182168092036105d1576044359060028210156105aa576033546001600160a01b0316330361032557839273605B6900CB9c632000312Cd116B3e1e82985aF74803b15610e765784926084916113d96040519687958694631747e07760e01b86526101036004870152602486015260448501526064840190614d33565b5af4801561059f576112385750f35b50346103375760e03660031901126103375760043560c43560ff81168091036105d1578290611415614b83565b61141d614bc8565b73605B6900CB9c632000312Cd116B3e1e82985aF7460fb548352610101908160205260408420813b15610e7657604051906329caab3960e11b825286600483015260248201528481604481855af49081156106d5578591611584575b50506101045460fb548552602092909252604084206001600160a01b0392831690823b156106e057604051630b06bff360e21b8152600481018890526001600160a01b039290921660248301526044820152908490829060649082905af49081156105c6578491611570575b505060016101625560fc541690813b156105c257829160e48392604051948593849263d505accf60e01b845233600485015230602485015260443560448501526064356064850152608484015260843560a484015260a43560c48401525af1801561059f5761155c575b506105846024358361500c565b61156590614171565b61059b57813861154f565b61157990614171565b6105c25782386114e5565b61158d90614171565b6105aa578338611479565b50346103375780600319360112610337576033546040516001600160a01b039091168152602090f35b50346103375780602080600319360112611248576004356001600160401b0381116116b8576115f5839136906004016142e9565b919092611600614b83565b73605B6900CB9c632000312Cd116B3e1e82985aF7492825b818110611623578380f35b61162e818388614c7a565b6101045460fb5486526101018552604086209135906001600160a01b0316873b15610b5f57604051630b06bff360e21b815260048101929092526001600160a01b0316602482015260448101919091528481606481895af49081156106d55785916116a4575b505061169f90614c1f565b611618565b6116ad90614171565b6105aa578388611694565b5050fd5b50346103375780600319360112610337576033546001600160a01b03163303610325576116e7614b83565b610194600160ff198254161790557f62e78cea01bee320cd4e420270b5ea74000d11b0c9f74754ebdbfc544b05a2586020604051338152a180f35b50346103375760203660031901126103375761173c614129565b611744614ca0565b6033546001600160a01b03908116330361032557829181610104541691823b1561179457602484928360405195869485936350e0278760e11b85521660048401525af1801561059f576112385750f35b505050fd5b503461033757610120366003190112610337576033546001600160a01b031633036103255760043560ff8116810361059b5764ffffffffff60243516602435036105d15764ffffffffff60443516604435036105d15764ffffffffff60643516606435036105d15764ffffffffff60843516608435036105d15761ffff8060a4351660a435036105d1578060c4351660c435036105d1578060e4351660e435036105d15764ffffffffff610104351661010435036105d1577f75dab8e449fbbb96e7a6aba10424f40cd398bf158f0be1270be90389a3eeef7e916101209164ffffffffff60d81b6101043560d81b1660ff831665ffffffffff0060243560081b16176affffffffff00000000000060443560301b161764ffffffffff60581b60643560581b161764ffffffffff60801b60843560801b161761ffff60a81b60a43560a81b161761ffff60b81b60c43560b81b161761ffff60c81b60e43560c81b1617176101065560ff6040519216825264ffffffffff60243516602083015264ffffffffff60443516604083015264ffffffffff60643516606083015264ffffffffff6084351660808301528060a4351660a08301528060c4351660c083015260e4351660e082015264ffffffffff6101043516610100820152a180f35b50346103375760203660031901126103375760209060ff906040906001600160a01b036119a2614129565b16815260fd84522054166040519015158152f35b50346103375780600319360112610337576033546001600160a01b03811633810361032557600091827fb53127684a568b3173ae13b9f8a6016e243e63b6e8ee1178d6a717850b5d6103556001600160601b0360a01b166033557f8be0079c531659141344cd1fd0a4f28419497f9722a3daafe3b4186f6b6457e08280a380f35b5034610337576020366003190112610337576001600160a01b03611a59614129565b168015611a7757816040916020935261013383522054604051908152f35b60405162461bcd60e51b815260206004820152602960248201527f4552433732313a2061646472657373207a65726f206973206e6f7420612076616044820152683634b21037bbb732b960b91b6064820152608490fd5b5034610337576020366003190112610337576004356001600160401b03811161059b57611aff903690600401614287565b5050611b09614da3565b9061075460405192839215158352604060208401526040830190614104565b5034610337576020366003190112610337576004356001600160a01b03818116918290036105c2576033541633036103255761010480546001600160a01b031916821790556040519081527fe7ae49f883c825b05681b3e00e8be6fdea9ed2a8a45e4c6ecb9390fc44cce61590602090a180f35b5034610337576020366003190112610337576020611bbb600435614586565b6040516001600160a01b039091168152f35b503461033757602036600319011261033757611be7614129565b6033546001600160a01b0391908216330361032557168015611c1a5761010780546001600160a01b031916909117905580f35b604051630ae8f22360e21b8152600490fd5b5034610337578060031936011261033757602060ff61019454166040519015158152f35b503461033757604036600319011261033757611c6a614129565b60243590611c76615425565b611c7e614b83565b610104546001600160a01b03919084908316803b1561059b576040516310b3879160e11b81526001600160a01b0384166004820152602481018690529082908290604490829084905af1801561059f57611d06575b50507f7a0984e898d33e4bf6ad9f851bfab5517683d3dae5b57ed58fa8c7152d822e32916020916040519485521692a280f35b611d0f90614171565b6105aa578338611cd3565b50346103375780600319360112610337577f00000000000000000000000000000000000000000000000000000000000000006001600160a01b03163003611d735760206040516000805160206154e98339815191528152f35b60405162461bcd60e51b815260206004820152603860248201527f555550535570677261646561626c653a206d757374206e6f742062652063616c60448201527f6c6564207468726f7567682064656c656761746563616c6c00000000000000006064820152608490fd5b50604036600319011261033757611df3614129565b906024356001600160401b03811161059b57611e1390369060040161436b565b916001600160a01b037f0000000000000000000000000000000000000000000000000000000000000000811690611e4c308314156143b8565b611e696000805160206154e9833981519152928284541614614419565b80603354163303610325577f4910fdfa16fed3260ed0e7147f7cc6da11a60208b5b9406d12a635614ffd91435460ff1615611eab57505061058491925061447a565b6040516352d1902d60e01b8152602094939291831691908581600481865afa600091816120ac575b50611f345760405162461bcd60e51b815260048101879052602e60248201527f45524331393637557067726164653a206e657720696d706c656d656e7461746960448201526d6f6e206973206e6f74205555505360901b6064820152608490fd5b9493940361205557611f458261447a565b604051907fbc7cd75a20ee27fd9adebab32041f755214dbc6bffa90cc0225b39da2e5c2d3b600080a284511580159061204d575b611f86575b505050905080f35b813b15611ffc5750600084819284611ff29697519201905af4611fa761450a565b907f416464726573733a206c6f772d6c6576656c2064656c65676174652063616c6c60405193611fd6856141ba565b60278552840152660819985a5b195960ca1b6040840152614a5f565b5080388080611f7e565b62461bcd60e51b815260048101839052602660248201527f416464726573733a2064656c65676174652063616c6c20746f206e6f6e2d636f6044820152651b9d1c9858dd60d21b6064820152608490fd5b506001611f79565b60405162461bcd60e51b815260048101849052602960248201527f45524331393637557067726164653a20756e737570706f727465642070726f786044820152681a58589b195555525160ba1b6064820152608490fd5b90918782813d83116120d4575b6120c381836141f1565b810103126103375750519038611ed3565b503d6120b9565b50346103375780600319360112610337576034546001600160a01b03908181163381900361214557806033549384167f8be0079c531659141344cd1fd0a4f28419497f9722a3daafe3b4186f6b6457e08680a36001600160a01b0319928316176033551660345580f35b6040516305e05b4b60e31b8152600490fd5b50346103375760208060031936011261059b576001600160401b03906004358281116105aa5761218d6040913690600401614287565b90809291612199614b83565b810103126105d157808201359035600181036122e75750506101069182549060ff8216156122d55761226a93839264ffffffffff60581b6121de610e10420642614a45565b60581b1664ffffffffff60581b19919091161790556101c6546101085461010954604080516305d3b1d360e41b815260048101939093529381166001600160401b0316602483015261ffff608082901c16604483015263ffffffff9381901c8416606483015260601c9092166084830152909384916001600160a01b03169082908790829060a4820190565b03925af180156122ca57839061229b575b835261010a90525060408120805463ff00ff001916630100010017905580f35b508082813d83116122c3575b6122b181836141f1565b810103126105d15761010a915161227b565b503d6122a7565b6040513d85823e3d90fd5b60405163a397eb4760e01b8152600490fd5b600281036124155750506101069182549060ff8216156122d5576123b593839264ffffffffff60801b61231e610e10420642614a45565b64ffffffffff60801b19909216608092831b91909116179091556101c6546101085461010954604080516305d3b1d360e41b815260048101939093526001600160401b039582169590951660248301529283901c61ffff1660448201529282901c63ffffffff908116606485015260609290921c9091166084830152909384916001600160a01b03169082908790829060a4820190565b03925af180156122ca5783906123e6575b835261010a90525060408120805463ff00ff001916630200010017905580f35b508082813d831161240e575b6123fc81836141f1565b810103126105d15761010a91516123c6565b503d6123f2565b91939250906003908181036125da57506101069060ff825416156122d55761243b61516b565b946124446151ea565b9573605B6900CB9c632000312Cd116B3e1e82985aF749160fb548752610101918282526040882090843b156125d65760405163df8fd62160e01b8152606060048201529189918391829161249c906064840190614d56565b908a602484015260448301520381875af480156125cb579088916125b7575b505060405193976124cb856141d5565b600a90818652610140368488013787895261010a835260408920805462ff000019166201000017815560010199895b838110612580575050505086975060fb969596548652526040842090803b15610e765761254785936040519586948593849363b2bdfd6b60e01b8552606060048601526064850190614d56565b916024840152604483015203915af4801561059f5761256c575b505061058490615450565b61257590614171565b61059b578138612561565b806125a1605a6125948f946125b2956150c6565b905490861b1c06856150de565b516125ac828b6150de565b52614c1f565b6124fa565b6125c090614171565b610b5f5786386124bb565b6040513d8a823e3d90fd5b8880fd5b9293926004146125eb575b50505080f35b6101069060ff825416156122d55761260161516b565b9161260a6151ea565b9173605B6900CB9c632000312Cd116B3e1e82985aF7460fb54885287610101958689526040822090833b156105c25760405163069381c360e51b81526060600482015291839183918291612662906064840190614d56565b9089602484015260448301520381865af4801561059f5761281b575b5091906040519161268e836141d5565b600a95868452610140368b86013788855261010a8a5260408520805462ff000019166201000017815560010191855b8881106127eb575050505060fb5483528588526040832091813b156105aa578391612706916040518095819482936353ce4e5160e11b8452606060048501526064840190614d56565b90896024840152604483015203915af4801561059f576127d7575b50505461ffff808260a81c169183830292808404851490151715610ddb5760b81c168281029281840414901517156127c3579061275d91614a52565b9060fb5493848652818152600f604087200154928381029381850414901517156127ad576127a59486525261279e612710600f604087200192048254614a45565b9055615450565b3880806125e5565b634e487b7160e01b600052601160045260246000fd5b634e487b7160e01b86526011600452602486fd5b6127e090614171565b6106e0578538612721565b8394959650612804605a6125948361280f9596976150c6565b516125ac82896150de565b908b95949392916126bd565b61282490614171565b610b4757873861267e565b503461033757602036600319011261033757603354600435906001600160a01b03163303610325576020817f895ece2457e03622f6eab9f28377343eca29710870eb9636d6794049860e53fc9261010e55604051908152a180f35b503461033757612899366142b4565b6040519060208201928284106001600160401b038511176128cf5761058494610e7194604052868452610e61610e5c84336146f9565b634e487b7160e01b600052604160045260246000fd5b503461033757806003193601126103375761010060405161290581614155565b8281528260208201528260408201528260608201528260808201528260a08201528260c08201528260e0820152015261012060405161294381614155565b64ffffffffff610100610106549260ff84168152828460081c166020820152828460301c166040820152828460581c166060820152828460801c16608082015261ffff8460a81c1660a082015261ffff8460b81c1660c082015261ffff8460c81c1660e08201528360d81c8282015260ff6040519416845282602082015116602085015282604082015116604085015282606082015116606085015282608082015116608085015261ffff60a08201511660a085015261ffff60c08201511660c085015261ffff60e08201511660e0850152015116610100820152f35b5034610337576020908160031936011261033757612a3c614129565b6001600160a01b03927f00000000000000000000000000000000000000000000000000000000000000008416612a74308214156143b8565b612a916000805160206154e9833981519152918683541614614419565b846033541633036103255760405194612aa98661419f565b8486527f4910fdfa16fed3260ed0e7147f7cc6da11a60208b5b9406d12a635614ffd91435460ff1615612ae45750505061058491925061447a565b8392949316906040516352d1902d60e01b81528581600481865afa60009181612bc1575b50612b695760405162461bcd60e51b815260048101879052602e60248201527f45524331393637557067726164653a206e657720696d706c656d656e7461746960448201526d6f6e206973206e6f74205555505360901b6064820152608490fd5b9493940361205557612b7a8261447a565b604051907fbc7cd75a20ee27fd9adebab32041f755214dbc6bffa90cc0225b39da2e5c2d3b600080a2845115801590612bb957611f8657505050905080f35b506000611f79565b90918782813d8311612be9575b612bd881836141f1565b810103126103375750519038612b08565b503d612bce565b50346103375760a0366003190112610337576001600160a01b03600435818116908190036105c257612c2061413f565b916001600160401b03916044358381116106e057612c4290369060040161436b565b91606435848111610b5f57612c5b90369060040161436b565b6084359182168092036105d15786549060ff95868360081c161595868097613098575b8015613082575b156130265760019860ff1994888b878316178d55613015575b508615611c1a57612cdb906001600160601b0360a01b978860fc54161760fc55612cd68a8d5460081c16612cd181614b0c565b614b0c565b614a9f565b612cee888b5460081c16612cd181614b0c565b80518281116130015761013090808c612d0784546145aa565b94601f95868111612fb6575b50602091868411600114612f2f5792612f24575b5050600019600383901b1c1916908b1b1790555b8251918211612f105761013192612d5284546145aa565b828111612ebb575b506020918311600114612e3857612dca949392918b9183612e2d575b5050600019600383901b1c191690891b1790555b8754958660081c1690612d9c82614b0c565b612da582614b0c565b8761016255612db382614b0c565b612dbc82614b0c565b610194908154169055614b0c565b8015612e1b576101c691825416179055612de2578280f35b61ff00191682556040519081527f7f26b83ff96e1f2b6a682f133852f6798a09c465da95921460cefb384740249890602090a138808280f35b604051630cee34c560e11b8152600490fd5b015190503880612d76565b838b5293929189917fbd987ad6ccdb7c7567f7335ea839f95dc944431abcf935b6924f70215963db7390601f1983168d5b818110612ea357509683612dca9810612e8a575b505050811b019055612d8a565b015160001960f88460031b161c19169055388080612e7d565b8289015184558d959093019260209283019201612e69565b612f0190858d527fbd987ad6ccdb7c7567f7335ea839f95dc944431abcf935b6924f70215963db738480870160051c82019260208810612f07575b0160051c0190614b6c565b38612d5a565b92508192612ef6565b634e487b7160e01b8a52604160045260248afd5b015190503880612d27565b91908e9450601f1984168684527f2f605e086faac1d93117bbfbc18835d434e9405fadc1ca66faf4b864746daf34935b818110612f9457508411612f7b575b505050811b019055612d3b565b015160001960f88460031b161c19169055388080612f6e565b93839596602092939491839286015181550195019301908f9594939291612f5f565b612ffb908684527f2f605e086faac1d93117bbfbc18835d434e9405fadc1ca66faf4b864746daf348880870160051c82019260208810612f07570160051c0190614b6c565b38612d13565b634e487b7160e01b8b52604160045260248bfd5b61ffff1916610101178b5538612c9e565b60405162461bcd60e51b815260206004820152602e60248201527f496e697469616c697a61626c653a20636f6e747261637420697320616c72656160448201526d191e481a5b9a5d1a585b1a5e995960921b6064820152608490fd5b50303b158015612c855750600188851614612c85565b50600188851610612c7e565b50346103375760031960403682011261059b576001600160401b03906004358281116105aa576130d89036906004016142e9565b919092602435908111610e76576130f39036906004016142e9565b60335491939092916001600160a01b0316330361032557859473605B6900CB9c632000312Cd116B3e1e82985aF7491823b15610b5f5761316d61315e94889660405198899788968796631bd4474f60e31b885260fd6004890152606060248901526064880191614cea565b92858403016044860152614cea565b03915af4801561059f576112385750f35b503461033757606036600319011261033757613198614129565b6044359060028210156105c25761010e54604051631b7fc0f360e11b815261010260048201526101036024808301919091526001600160a01b039384166044830152356064820152926131ef906084850190614d33565b60a483015260808260c48173605B6900CB9c632000312Cd116B3e1e82985aF745af49081156122ca5783928485918694613243575b5060809550826040519516855260208501521660408301526060820152f35b9350505091506080813d8211613299575b81613261608093836141f1565b810103126105c25760809250613276816153aa565b91602082015192606061328b604085016153aa565b930151909392909238613224565b3d9150613254565b503461033757806003193601126103375760a0610103546040519061ffff8082168352808260101c166020840152808260201c1660408401528160301c16606083015260401c6080820152f35b50346103375780602080600319360112611248576004356001600160401b0381116116b857613322839136906004016142e9565b91909261332d614b83565b73605B6900CB9c632000312Cd116B3e1e82985aF7492825b818110613350578380f35b61335b818388614c7a565b35613364614bc8565b60fb908154865261010180865260408720883b15610b4757604051906329caab3960e11b8252836004830152602482015287816044818c5af49081156125cb578891613437575b50506101045492548752855260408620916001600160a01b0316873b15610b5f57604051630b06bff360e21b815260048101929092526001600160a01b0316602482015260448101919091528481606481895af49081156106d5578591613423575b505061341e90600161016255614c1f565b613345565b61342c90614171565b6105aa57838861340d565b61344090614171565b610b5f57868b6133ab565b50346103375761058461345d366142b4565b9161346b610e5c84336146f9565b6147c2565b50346103375760e03660031901126103375761348a61413f565b60c4356001600160401b0381116105c2576134a9903690600401614287565b6134b4929192615425565b6134bc614b83565b6134e260043560ff6001918060081c600052610105602052161b60406000205416151590565b613a7e5760043560081c845261010560205260408420600160ff600435161b815417905561351160ff54614c1f565b8060ff55670de0b6b3a7640000908146029146830414461517156127c3579061353991614a52565b6001600160a01b038316855260fe602052604085208054919491929063ffffffff80851614613a6a57906135e3929163ffffffff60018187160116809563ffffffff19161790556040519361358d85614155565b60043585526001600160a01b038616602086015261ffff6084351660408601526060850152608084018790526001600160801b0360a435811660a08601526044351660c085015260643560e08501523691614334565b6101008201528284526101006020526101006004604086208351815560018060a01b0360208501511661ffff60a01b604086015160a01b1663ffffffff60b01b606087015160b01b169065ffffffffffff60d01b608088015160d01b169217171760018201556001600160801b0360a0850151166001600160801b031960c086015160801b1617600282015560e08401516003820155019101518051906001600160401b038211613a5657819061369a84546145aa565b601f8111613a1b575b50602090601f83116001146139b75787926139ac575b50508160011b916000199060031b1c19161790555b6040516136da8161419f565b8381526001600160a01b0382161561396857600083815261013260205260409020546137a891610e719161371a906001600160a01b031615155b15614c2e565b6000858152610132602052604090205461373e906001600160a01b03161515613714565b6001600160a01b0384168087526101336020908152604080892080546001019055878952610132909152872080546001600160a01b031916821790558590877fddf252ad1be2c89b69c2b068fc378daa952ba7f163c4a11628f55a4df523b3ef8180a484846148d6565b61010480546001600160a01b0316803b15610e76576040516310b3879160e11b81526001600160a01b0384166004820152604480356024830152909186918391829084905af180156106d557613955575b50839073dB4DfBAbCF466592159037B88e4067C61654eFAC60fb54835261010160205260408320813b156105aa578390606460405180948193636ebb252160e11b83526004830152896024830152823560448301525af49081156122ca578391613941575b50505461010e5473605B6900CB9c632000312Cd116B3e1e82985aF74916001600160a01b031690823b156105aa57604051638ec4211160e01b8152610102600482015261010360248201526044808201939093526001600160a01b03861660648201529135608483015260a4820152908290829060c49082905af4801561059f5761392d575b505060408051606435815260443560208201526001600160a01b0390921691600435917faf1bba31184b4d13e4f756b22fc2755d77b6ad147f10a7b12ea6afa58a2ca5f691a480f35b61393690614171565b6105c25782386138e4565b61394a90614171565b61059b57813861385e565b61396190949194614171565b92386137f9565b606460405162461bcd60e51b815260206004820152602060248201527f4552433732313a206d696e7420746f20746865207a65726f20616464726573736044820152fd5b0151905038806136b9565b848852602088209250601f198416885b818110613a0357509084600195949392106139ea575b505050811b0190556136ce565b015160001960f88460031b161c191690553880806139dd565b929360206001819287860151815501950193016139c7565b613a469085895260208920601f850160051c81019160208610613a4c575b601f0160051c0190614b6c565b386136a3565b9091508190613a39565b634e487b7160e01b86526041600452602486fd5b634e487b7160e01b87526011600452602487fd5b604051630490d63160e01b8152600490fd5b5034610337576040366003190112610337576004356001600160401b036024358181116105aa57613ac5903690600401614229565b6101c6546001600160a01b031633819003613be0575082845261010a60209281845260ff6040872054161580613bcf575b613afe578580f35b600192836040882001908051928311613bbb57680100000000000000008311613bbb5785908254848455808510613ba1575b500190875284872084885b848110613b8f5750505050508385528252604084208160ff1982541617905561010c61010d928354865261010b81528460408720558354948652528260408520558201809211610fbf575538808080808580f35b87845194019381840155018590613b3b565b838a52828a20613bb5918101908601614b6c565b38613b30565b634e487b7160e01b88526041600452602488fd5b5060ff604087205460081c16613af6565b60405163073e64fd60e21b81523360048201526001600160a01b03919091166024820152604490fd5b0390fd5b503461033757602036600319011261033757600435613c2a614ca0565b6033546001600160a01b03163303610325578180808093818115613c54575b3390f1156107d45780f35b506108fc613c49565b503461033757806003193601126103375760fc546040516001600160a01b039091168152602090f35b503461033757604036600319011261033757613ce0604060a092613ca8614129565b613cb06153be565b5060fb54825261010160205260018383200190600180871b031682526020528181206024358252602052206153e9565b613d15604051809260808091805184526020810151602085015260408101516040850152606081015160608501520151910152565bf35b5034610337576020366003190112610337576004356001600160401b03811161059b576040613d4d613d81923690600401614229565b60fb548452610101602052818420825193849283926371695c4760e01b845260048401528460248401526044830190614d56565b038173605B6900CB9c632000312Cd116B3e1e82985aF745af4801561059f5782918391613db9575b6040838382519182526020820152f35b9150506040813d604011613dee575b81613dd5604093836141f1565b8101031261059b57604091506020815191015138613da9565b3d9150613dc8565b503461033757604036600319011261033757613e10614129565b602435906001600160a01b038080613e2785614586565b16921691808314613f1e57803314908115613efc575b5015613e91578284526101346020526040842080546001600160a01b03191683179055613e6983614586565b167f8c5be1e5ebec7d5bd14f71427d1e84f3dd0314c0f7b2291e5b200ac8c7c3b9258480a480f35b60405162461bcd60e51b815260206004820152603d60248201527f4552433732313a20617070726f76652063616c6c6572206973206e6f7420746f60448201527f6b656e206f776e6572206f7220617070726f76656420666f7220616c6c0000006064820152608490fd5b905084526101356020526040842033855260205260ff60408520541638613e3d565b60405162461bcd60e51b815260206004820152602160248201527f4552433732313a20617070726f76616c20746f2063757272656e74206f776e656044820152603960f91b6064820152608490fd5b5034610337576020366003190112610337576020611bbb6004356145e4565b5034610337578060031936011261033757604051908061013090815490613fb2826145aa565b808652926001928084169081156113095750600114613fdb576107548661129b818803826141f1565b815292507f2f605e086faac1d93117bbfbc18835d434e9405fadc1ca66faf4b864746daf345b82841061401d57505050810160200161129b826107543861128b565b80546020858701810191909152909301928101614001565b503461033757602036600319011261033757613ce0604060a0926140576153be565b5060fb5481526101016020528181206004358252602052206153e9565b90503461059b57602036600319011261059b5760043563ffffffff60e01b81168091036105c257602092506380ac58cd60e01b81149081156140d0575b81156140bf575b5015158152f35b6301ffc9a760e01b149050386140b8565b635b5e139f60e01b811491506140b1565b60005b8381106140f45750506000910152565b81810151838201526020016140e4565b9060209161411d815180928185528580860191016140e1565b601f01601f1916010190565b600435906001600160a01b03821682036105d157565b602435906001600160a01b03821682036105d157565b61012081019081106001600160401b038211176128cf57604052565b6001600160401b0381116128cf57604052565b60a081019081106001600160401b038211176128cf57604052565b602081019081106001600160401b038211176128cf57604052565b606081019081106001600160401b038211176128cf57604052565b61016081019081106001600160401b038211176128cf57604052565b90601f801991011681019081106001600160401b038211176128cf57604052565b6001600160401b0381116128cf5760051b60200190565b81601f820112156105d15780359161424083614212565b9261424e60405194856141f1565b808452602092838086019260051b8201019283116105d1578301905b828210614278575050505090565b8135815290830190830161426a565b9181601f840112156105d1578235916001600160401b0383116105d157602083818601950101116105d157565b60609060031901126105d1576001600160a01b039060043582811681036105d1579160243590811681036105d1579060443590565b9181601f840112156105d1578235916001600160401b0383116105d1576020808501948460051b0101116105d157565b6001600160401b0381116128cf57601f01601f191660200190565b92919261434082614319565b9161434e60405193846141f1565b8294818452818301116105d1578281602093846000960137010152565b9080601f830112156105d15781602061438693359101614334565b90565b60409060031901126105d1576004356001600160a01b03811681036105d1579060243580151581036105d15790565b156143bf57565b60405162461bcd60e51b815260206004820152602c60248201527f46756e6374696f6e206d7573742062652063616c6c6564207468726f7567682060448201526b19195b1959d85d1958d85b1b60a21b6064820152608490fd5b1561442057565b60405162461bcd60e51b815260206004820152602c60248201527f46756e6374696f6e206d7573742062652063616c6c6564207468726f7567682060448201526b6163746976652070726f787960a01b6064820152608490fd5b803b156144af576000805160206154e983398151915280546001600160a01b0319166001600160a01b03909216919091179055565b60405162461bcd60e51b815260206004820152602d60248201527f455243313936373a206e657720696d706c656d656e746174696f6e206973206e60448201526c1bdd08184818dbdb9d1c9858dd609a1b6064820152608490fd5b3d15614535573d9061451b82614319565b9161452960405193846141f1565b82523d6000602084013e565b606090565b1561454157565b60405162461bcd60e51b815260206004820152601860248201527f4552433732313a20696e76616c696420746f6b656e20494400000000000000006044820152606490fd5b600090815261013260205260409020546001600160a01b031661438681151561453a565b90600182811c921680156145da575b60208310146145c457565b634e487b7160e01b600052602260045260246000fd5b91607f16916145b9565b60008181526101326020526040902054614608906001600160a01b0316151561453a565b600090815261013460205260409020546001600160a01b031690565b1561462b57565b60405162461bcd60e51b815260206004820152602d60248201527f4552433732313a2063616c6c6572206973206e6f7420746f6b656e206f776e6560448201526c1c881bdc88185c1c1c9bdd9959609a1b6064820152608490fd5b60809060208152603260208201527f4552433732313a207472616e7366657220746f206e6f6e20455243373231526560408201527131b2b4bb32b91034b6b83632b6b2b73a32b960711b60608201520190565b156146e057565b60405162461bcd60e51b815280613c0960048201614686565b906001600160a01b03808061470d84614586565b16931691838314938415614740575b50831561472a575b50505090565b614736919293506145e4565b1614388080614724565b90935060005261013560205260406000208260005260205260ff60406000205416923861471c565b1561476f57565b60405162461bcd60e51b815260206004820152602560248201527f4552433732313a207472616e736665722066726f6d20696e636f72726563742060448201526437bbb732b960d91b6064820152608490fd5b906147ea916147d084614586565b6001600160a01b0393918416928492909183168414614768565b1691821561488557816148079161480086614586565b1614614768565b7fddf252ad1be2c89b69c2b068fc378daa952ba7f163c4a11628f55a4df523b3ef6000848152610134602052604081206001600160601b0360a01b90818154169055838252610133602052604082206000198154019055848252604082206001815401905585825261013260205284604083209182541617905580a4565b60405162461bcd60e51b8152602060048201526024808201527f4552433732313a207472616e7366657220746f20746865207a65726f206164646044820152637265737360e01b6064820152608490fd5b9091600091803b156149c1576149216020918493604051948580948193630a85bd0160e11b9a8b84523360048501528460248501526044840152608060648401526084830190614104565b03926001600160a01b03165af190829082614979575b505061496b5761494561450a565b805190816149665760405162461bcd60e51b815280613c0960048201614686565b602001fd5b6001600160e01b0319161490565b909192506020813d82116149b9575b81614995602093836141f1565b8101031261059b5751906001600160e01b0319821682036103375750903880614937565b3d9150614988565b50505050600190565b91926000929190813b15614a3b57602091614a209185604051958680958194630a85bd0160e11b9b8c845233600485015260018060a01b0380951660248501526044840152608060648401526084830190614104565b0393165af19082908261497957505061496b5761494561450a565b5050505050600190565b919082039182116127ad57565b919082018092116127ad57565b90919015614a6b575090565b815115614a7b5750805190602001fd5b60405162461bcd60e51b815260206004820152908190613c09906024830190614104565b7fb53127684a568b3173ae13b9f8a6016e243e63b6e8ee1178d6a717850b5d6103819055603380546001600160a01b039283166001600160a01b0319821681179092559091167f8be0079c531659141344cd1fd0a4f28419497f9722a3daafe3b4186f6b6457e0600080a3565b15614b1357565b60405162461bcd60e51b815260206004820152602b60248201527f496e697469616c697a61626c653a20636f6e7472616374206973206e6f74206960448201526a6e697469616c697a696e6760a81b6064820152608490fd5b818110614b77575050565b60008155600101614b6c565b60ff6101945416614b9057565b60405162461bcd60e51b815260206004820152601060248201526f14185d5cd8589b194e881c185d5cd95960821b6044820152606490fd5b6101626002815414614bda5760029055565b60405162461bcd60e51b815260206004820152601f60248201527f5265656e7472616e637947756172643a207265656e7472616e742063616c6c006044820152606490fd5b60001981146127ad5760010190565b15614c3557565b60405162461bcd60e51b815260206004820152601c60248201527f4552433732313a20746f6b656e20616c7265616479206d696e746564000000006044820152606490fd5b9190811015614c8a5760051b0190565b634e487b7160e01b600052603260045260246000fd5b60ff610194541615614cae57565b60405162461bcd60e51b815260206004820152601460248201527314185d5cd8589b194e881b9bdd081c185d5cd95960621b6044820152606490fd5b9190808252602080920192916000805b838210614d0957505050505090565b9091929394853560018060a01b0381168091036105c2578152830194830193929160010190614cfa565b906002821015614d405752565b634e487b7160e01b600052602160045260246000fd5b90815180825260208080930193019160005b828110614d76575050505090565b835185529381019392810192600101614d68565b91909164ffffffffff808094169116019182116127ad57565b600090600090606091610106546001908160ff821614614dc257505050565b64ffffffffff959295949193949081614de5818360081c16828460581c16614d8a565b16421115614e11575050505060405192816020850152604084015260408352614e0d836141ba565b9190565b808280614e2c9360309a969998979a1c169160801c16614d8a565b164211614fea5773EDB80829E4ED4b4E6Ff7A178801b78586d279d266040908151926305f739f960e21b845261010b8060048601526020948581602481875af4908115614fe0578391614fb3575b50614e8757505050505050565b8395985060448597989495929395518096819363c9c3102d60e01b835260048301528560248301525af4928315614fa7578193614f78575b5082815261010a80865260ff8583205460181c166003811015614f64578803614efc575050506003825193840152818301528152614386816141ba565b838298969594939852845260ff8382205460181c16906003821015614f505750600214614f2b575b5050509190565b90919294506004825193840152818301528152614f47816141ba565b91388080614f24565b634e487b7160e01b81526021600452602490fd5b634e487b7160e01b83526021600452602483fd5b9092508481813d8311614fa0575b614f9081836141f1565b810103126105c257519138614ebf565b503d614f86565b508351903d90823e3d90fd5b90508581813d8311614fd9575b614fca81836141f1565b810103126105c2575138614e7a565b503d614fc0565b85513d85823e3d90fd5b93509091506040519260026020850152604084015260408352614e0d836141ba565b9060018060a01b038060fc5416906101075416604051906323b872dd60e01b82523360048301526024820152826044820152602081606481600080965af1801561059f5761508f575b505061506181836152de565b6040519081527f58c7b3bf0b0e168048426c1e9443a72696526292ca664e18b11f934cd6cfbbf360203392a3565b6020813d82116150be575b816150a7602093836141f1565b8101031261059b5751801515036103375780615055565b3d915061509a565b8054821015614c8a5760005260206000200190600090565b8051821015614c8a5760209160051b010190565b60209081818403126105d1578051906001600160401b0382116105d157019180601f840112156105d157825161512781614212565b9361513560405195866141f1565b818552838086019260051b8201019283116105d1578301905b82821061515c575050505090565b8151815290830190830161514e565b60fb5460009081526101016020526002604082200160405190634d63fffd60e01b82526004820152816024820152600a6044820152818160648173D2ACc08f1d6e403FCcBfD20D2098C653f79ddb4d5af49182156107d45780926151ce57505090565b61438692503d8091833e6151e281836141f1565b8101906150f2565b60fb5460009081526101016020526002604082200160405190634d63fffd60e01b82526004820152600a6024820152605a6044820152818160648173D2ACc08f1d6e403FCcBfD20D2098C653f79ddb4d5af49182156107d45780926151ce57505090565b60fb54600090815261010160205260408120600c8101939192600d82019260029092019173dB4DfBAbCF466592159037B88e4067C61654eFAC91823b156106e057918594939160a49360405198899687956311b7263f60e21b8752600487015260248601526044850152606484015260848301525af49081156107d457506152d35750565b6152dc90614171565b565b91909160fb5492600093845261010180602052604060018187200133875260205280862084875260205280862091615317848454614a52565b835560fb548752602052808620848752602052615338818720938454614a52565b83558573605B6900CB9c632000312Cd116B3e1e82985aF7492833b1561059b576044835180958193636496053360e01b835288600484015260248301525af49081156153a157506152dc949550615392575b50549061524e565b61539b90614171565b3861538a565b513d87823e3d90fd5b51906001600160a01b03821682036105d157565b604051906153cb82614184565b60006080838281528260208201528260408201528260608201520152565b906040516153f681614184565b608060048294805484526001810154602085015260028101546040850152600381015460608501520154910152565b3360005260fd60205260ff604060002054161561543e57565b60405163143606b960e31b8152600490fd5b600081815261010c9081602052604081205461010d92835494600019958681019081116154d457845261010b92836020526040852054908552604085205583526020528160408120558254848101908111610fbf57825260205280604081205581549283019283116154c0575055565b634e487b7160e01b81526011600452602490fd5b634e487b7160e01b85526011600452602485fdfe360894a13ba1a3210667c828492db98dca3e2076cc3735a920a3ca505d382bbca2646970667358221220f568baf440c478582acc96778c3c978cfbc96c153e481c91fe2994c5cf95ee1364736f6c63430008110033",
  "deployedBytecode": "0x608080604052600436101561001357600080fd5b600090813560e01c90816301ffc9a71461407457508063068bcd8d1461403557806306fdde0314613f8c578063081812fc14613f6d578063095ea7b314613df65780630aaef80214613d175780630e357a6e14613c8657806316a065c614613c5d57806317e0f25214613c0d5780631fe543e314613a9057806320dfe3c61461347057806323b872dd1461344b57806328275338146132ee5780632bf8e8f6146132a157806332eb808a1461317e578063350b2369146130a4578063362925c214612bf05780633659cfe614612a2057806339c17502146128e557806342842e0e1461288a57806343f0e9931461282f5780634585e33b146121575780634e71e0c8146120db5780634f1ef28614611dde57806352d1902d14611d1a57806358c7a06314611c505780635c975abb14611c2c578063603d080014611bcd5780636352211e14611b9c5780636817031b14611b285780636e04ff0d14611ace57806370a0823114611a37578063715018a6146119b6578063736c0d5b1461197757806376f7a9fc14611799578063802e9cfa146117225780638456cb59146116bc5780638d47a30d146115c15780638da5cb5b14611598578063918c49e4146113e85780639208b21e1461133657806395d89b411461124b5780639aab85e5146111d75780639d215042146110d1578063a22cb46514611011578063a54b2a7314610fe7578063afd5f74714610ee1578063b242e53414610e7a578063b88d4fde14610e01578063b9e53a9f14610b77578063c3b82b8d14610838578063c417db69146107e0578063c87b56dd146106e4578063db640081146105ff578063e30c3978146105d6578063e4421be21461048d578063e985e9c514610438578063f1bd4c041461040b578063f7b188a5146103a8578063fbd7823514610364578063fbfa77cf1461033a5763ff9c7543146102cb57600080fd5b3461033757602036600319011261033757603354600435906001600160a01b03163303610325576020817f39feb9fafd10c5355c86cdccca7884a183c4dd524ca37b0761575ce0974cdb069261011155604051908152a180f35b604051632e6c18c960e11b8152600490fd5b80fd5b5034610337578060031936011261033757610104546040516001600160a01b039091168152602090f35b503461033757602036600319011261033757602061039e60043560ff6001918060081c600052610105602052161b60406000205416151590565b6040519015158152f35b50346103375780600319360112610337576033546001600160a01b03163303610325576103d3614ca0565b61019460ff1981541690557f5db9ee0a495bf2e6ff9c91a7834c1ba4fdd244a5e8aa4e537bd38aeae4b073aa6020604051338152a180f35b5034610337578060031936011261033757600f604060209260fb5481526101018452200154604051908152f35b503461033757604036600319011261033757610452614129565b604061045c61413f565b9260018060a01b038093168152610135602052209116600052602052602060ff604060002054166040519015158152f35b50346103375760403660031901126105d1576004356104aa614b83565b6104b2614bc8565b8173__$bf3a140bdbff42a6137d0acc0952596ca5$__60fb5482526101018060205260408320823b156105aa57604051906329caab3960e11b825285600483015260248201528381604481865af49081156105c65784916105ae575b505060018060a01b0361010454169060fb54845260205260408320823b156105aa57604051630b06bff360e21b8152600481018690526001600160a01b039290921660248301526044820152908290829060649082905af4801561059f57610587575b506001610162556105846024358361500c565b80f35b61059090614171565b61059b578138610571565b5080fd5b6040513d84823e3d90fd5b8380fd5b6105b790614171565b6105c257823861050e565b8280fd5b6040513d86823e3d90fd5b600080fd5b50346103375780600319360112610337576034546040516001600160a01b039091168152602090f35b50346103375760208060031936011261059b57816004356001600160401b03811161059b5791610634829336906004016142e9565b92909161063f614b83565b73__$bf3a140bdbff42a6137d0acc0952596ca5$__92825b858110610662578380f35b61066d818784614c7a565b3560fb548552610101845260408520863b156106e057604051916329caab3960e11b8352600483015260248201528481604481895af49081156106d55785916106c1575b50506106bc90614c1f565b610657565b6106ca90614171565b6105aa5783886106b1565b6040513d87823e3d90fd5b8580fd5b50346103375760208060031936011261059b57604051632f8218bd60e21b815261010060048201526004356024820152828160448173__$0e7f1d138f6cc9ca9006918b4d39b2c532$__5af49283156107d4578093610758575b5050610754604051928284938452830190614104565b0390f35b909192503d8082843e61076b81846141f1565b820191838184031261059b578051906001600160401b0382116105c2570182601f8201121561059b578051916107a083614319565b936107ae60405195866141f1565b8385528584840101116103375750906107cc918480850191016140e1565b90388061073e565b604051903d90823e3d90fd5b5034610337576020366003190112610337576001600160a01b0380610803614129565b16825261010260209081526040808420548316808552938190205481516001600160a01b039586168152931690931690820152f35b50346103375760603660031901126103375760243560043560443561085b614b83565b610863614bc8565b73__$bf3a140bdbff42a6137d0acc0952596ca5$__9160fb5485526101018560209482865260408220813b156105c2576040516329caab3960e11b9182825286600483015260248201528381604481865af49081156105c6578491610b63575b5050610104805460fb548552858952604085206001600160a01b039182169290853b15610b5f57604051630b06bff360e21b808252600482018b90526001600160a01b0395909516602482015260448101919091528681606481895af4908115610b3c578791610b4b575b50506101629360018555610940614bc8565b60fb548752878b5260408720863b15610b47576040519182528c600483015260248201528681604481895af4908115610b3c578791610b28575b505054169060fb54855285895260408520843b156106e057604051918252600482018b90526001600160a01b0392909216602482015260448101919091528381606481865af49081156105c6578491610b14575b50506001905560fb549283835280875260016040842001336000528752604060002085845287526040832093835286526040822084835286526040822092610a17868254614a45565b8155610a24868554614a45565b8455813b156105c2578290604460405180948193636496053360e01b835288600484015260248301525af4801561059f57610b00575b5050610a6790548261524e565b60405190815281838201527fe6907eb8ffc12ac27891b5560db15647cae89e2b344f0c34c63bb6f1d4249cff60403392a2605f810290808204605f1490151715610aec576064900490610aba82846152de565b6040519283528201527f7e9ecb928e58cb1d1c8cda62ae789939f9f184616eb26ef72e801f98b6ef556a60403392a280f35b634e487b7160e01b84526011600452602484fd5b610b0990614171565b6106e0578538610a5a565b610b1d90614171565b6105c25782386109ce565b610b3190614171565b6106e057853861097a565b6040513d89823e3d90fd5b8780fd5b610b5490614171565b6106e057853861092e565b8680fd5b610b6c90614171565b6105c25782386108c3565b5036600319016080811261059b57604013610337576044356001600160a01b03818116918281036105d15760643590338552610110936020948086526040872054610111541115610def5733875285526040862080549060018201809211610ddb5755610be2614b83565b610bea614bc8565b338652610102938486526040872054161580610dd2575b80610dc8575b610d70575b505060043591610c1c8383614a52565b93610c2a6024358096614a52565b91823410610d5e5786808080610c408734614a45565b818115610d55575b3390f115610d4a5760405190633039061160e01b825260048201526101036024820152336044820152826064820152818160848173__$bf3a140bdbff42a6137d0acc0952596ca5$__5af4908115610b3c578791610cfd575b50610ccd907f617b1a2bf0533cea0c5dd46104e1d48f8b290fc7d7360dba0182dbf07a00e46a93614a45565b60fb5487526101018252610ce9600f6040892001918254614a52565b90556040519283523392a460016101625580f35b90508181813d8311610d43575b610d1481836141f1565b810103126105d157517f617b1a2bf0533cea0c5dd46104e1d48f8b290fc7d7360dba0182dbf07a00e46a610ca1565b503d610d0a565b6040513d88823e3d90fd5b506108fc610c48565b604051632ca2f52b60e11b8152600490fd5b604080872080546001600160a01b0319169290921790915580513381526001600160a01b039290921660208301527f677cd8c8ce12dc7827579d65be5e6efa74b6ac9ab04ac43d4648dc85d328c2ae91a13880610c0c565b5033811415610c07565b50801515610c01565b634e487b7160e01b88526011600452602488fd5b60405163d92de14f60e01b8152600490fd5b503461033757608036600319011261033757610e1b614129565b610e2361413f565b90606435906044356001600160401b038311610e765761058493610e4e610e7194369060040161436b565b92610e61610e5c84336146f9565b614624565b610e6c8383836147c2565b6149ca565b6146d9565b8480fd5b503461033757610e8936614389565b6033549091906001600160a01b039081163303610325578116918215610ecf5715610eb8576105849150614a9f565b506001600160601b0360a01b603454161760345580f35b604051633aafecb360e21b8152600490fd5b50346103375780600319360112610337576033546001600160a01b031633036103255760fb54906001820191828111610fd3578260fb55610f20614b83565b610194600160ff198254161790557f62e78cea01bee320cd4e420270b5ea74000d11b0c9f74754ebdbfc544b05a2586020604051338152a1815261010180602052600f604083200154908160041b9180830460101490151715610fbf5782936064935260205204600f6040832001557f3bf8992b1ca7018d446bcf1d45dc7a62e50decf5248434be4194aef154463380602060fb54604051908152a180f35b634e487b7160e01b83526011600452602483fd5b634e487b7160e01b82526011600452602482fd5b5034610337578060031936011261033757610107546040516001600160a01b039091168152602090f35b50346103375761102036614389565b6001600160a01b039091169033821461108c57338352610135602052604083208260005260205260406000209015159060ff1981541660ff83161790556040519081527f17307eab39ab6107e8899845ad3d59bd9653f200f220920489ca2b5937696c3160203392a380f35b60405162461bcd60e51b815260206004820152601960248201527f4552433732313a20617070726f766520746f2063616c6c6572000000000000006044820152606490fd5b50346103375760a0366003190112610337576033546001600160a01b031633036103255760043580610108556024356001600160401b0381168091036105c257610109918254916044359363ffffffff91828616908187036105d157606435938416928385036105d1576084359661ffff8816958689036105d1577f3510c45fb24ce728b56d5136c57163ff69e25ab31ac04a1264387c7acff6c41e996bffffffff00000000000000008560a09b61ffff60801b9060801b169471ffffffffffffffffffffffffffffffffffff1916179160401b16179063ffffffff60601b9060601b16171790556040519485526020850152604084015260608301526080820152a180f35b5034610337576020366003190112610337576033546001600160a01b0390811633036103255781906101075416803b1561124857818091602460405180948193630852cd8d60e31b835260043560048401525af1801561059f576112385750f35b61124190614171565b6103375780f35b50fd5b5034610337578060031936011261033757604051908061013190815490611271826145aa565b8086529260019280841690811561130957506001146112af575b6107548661129b818803826141f1565b604051918291602083526020830190614104565b815292507fbd987ad6ccdb7c7567f7335ea839f95dc944431abcf935b6924f70215963db735b8284106112f157505050810160200161129b826107543861128b565b805460208587018101919091529093019281016112d5565b90508695506107549693506020925061129b94915060ff191682840152151560051b82010192933861128b565b50346103375760603660031901126103375760043561ffff908181168091036105d1576024359182168092036105d1576044359060028210156105aa576033546001600160a01b0316330361032557839273__$bf3a140bdbff42a6137d0acc0952596ca5$__803b15610e765784926084916113d96040519687958694631747e07760e01b86526101036004870152602486015260448501526064840190614d33565b5af4801561059f576112385750f35b50346103375760e03660031901126103375760043560c43560ff81168091036105d1578290611415614b83565b61141d614bc8565b73__$bf3a140bdbff42a6137d0acc0952596ca5$__60fb548352610101908160205260408420813b15610e7657604051906329caab3960e11b825286600483015260248201528481604481855af49081156106d5578591611584575b50506101045460fb548552602092909252604084206001600160a01b0392831690823b156106e057604051630b06bff360e21b8152600481018890526001600160a01b039290921660248301526044820152908490829060649082905af49081156105c6578491611570575b505060016101625560fc541690813b156105c257829160e48392604051948593849263d505accf60e01b845233600485015230602485015260443560448501526064356064850152608484015260843560a484015260a43560c48401525af1801561059f5761155c575b506105846024358361500c565b61156590614171565b61059b57813861154f565b61157990614171565b6105c25782386114e5565b61158d90614171565b6105aa578338611479565b50346103375780600319360112610337576033546040516001600160a01b039091168152602090f35b50346103375780602080600319360112611248576004356001600160401b0381116116b8576115f5839136906004016142e9565b919092611600614b83565b73__$bf3a140bdbff42a6137d0acc0952596ca5$__92825b818110611623578380f35b61162e818388614c7a565b6101045460fb5486526101018552604086209135906001600160a01b0316873b15610b5f57604051630b06bff360e21b815260048101929092526001600160a01b0316602482015260448101919091528481606481895af49081156106d55785916116a4575b505061169f90614c1f565b611618565b6116ad90614171565b6105aa578388611694565b5050fd5b50346103375780600319360112610337576033546001600160a01b03163303610325576116e7614b83565b610194600160ff198254161790557f62e78cea01bee320cd4e420270b5ea74000d11b0c9f74754ebdbfc544b05a2586020604051338152a180f35b50346103375760203660031901126103375761173c614129565b611744614ca0565b6033546001600160a01b03908116330361032557829181610104541691823b1561179457602484928360405195869485936350e0278760e11b85521660048401525af1801561059f576112385750f35b505050fd5b503461033757610120366003190112610337576033546001600160a01b031633036103255760043560ff8116810361059b5764ffffffffff60243516602435036105d15764ffffffffff60443516604435036105d15764ffffffffff60643516606435036105d15764ffffffffff60843516608435036105d15761ffff8060a4351660a435036105d1578060c4351660c435036105d1578060e4351660e435036105d15764ffffffffff610104351661010435036105d1577f75dab8e449fbbb96e7a6aba10424f40cd398bf158f0be1270be90389a3eeef7e916101209164ffffffffff60d81b6101043560d81b1660ff831665ffffffffff0060243560081b16176affffffffff00000000000060443560301b161764ffffffffff60581b60643560581b161764ffffffffff60801b60843560801b161761ffff60a81b60a43560a81b161761ffff60b81b60c43560b81b161761ffff60c81b60e43560c81b1617176101065560ff6040519216825264ffffffffff60243516602083015264ffffffffff60443516604083015264ffffffffff60643516606083015264ffffffffff6084351660808301528060a4351660a08301528060c4351660c083015260e4351660e082015264ffffffffff6101043516610100820152a180f35b50346103375760203660031901126103375760209060ff906040906001600160a01b036119a2614129565b16815260fd84522054166040519015158152f35b50346103375780600319360112610337576033546001600160a01b03811633810361032557600091827fb53127684a568b3173ae13b9f8a6016e243e63b6e8ee1178d6a717850b5d6103556001600160601b0360a01b166033557f8be0079c531659141344cd1fd0a4f28419497f9722a3daafe3b4186f6b6457e08280a380f35b5034610337576020366003190112610337576001600160a01b03611a59614129565b168015611a7757816040916020935261013383522054604051908152f35b60405162461bcd60e51b815260206004820152602960248201527f4552433732313a2061646472657373207a65726f206973206e6f7420612076616044820152683634b21037bbb732b960b91b6064820152608490fd5b5034610337576020366003190112610337576004356001600160401b03811161059b57611aff903690600401614287565b5050611b09614da3565b9061075460405192839215158352604060208401526040830190614104565b5034610337576020366003190112610337576004356001600160a01b03818116918290036105c2576033541633036103255761010480546001600160a01b031916821790556040519081527fe7ae49f883c825b05681b3e00e8be6fdea9ed2a8a45e4c6ecb9390fc44cce61590602090a180f35b5034610337576020366003190112610337576020611bbb600435614586565b6040516001600160a01b039091168152f35b503461033757602036600319011261033757611be7614129565b6033546001600160a01b0391908216330361032557168015611c1a5761010780546001600160a01b031916909117905580f35b604051630ae8f22360e21b8152600490fd5b5034610337578060031936011261033757602060ff61019454166040519015158152f35b503461033757604036600319011261033757611c6a614129565b60243590611c76615425565b611c7e614b83565b610104546001600160a01b03919084908316803b1561059b576040516310b3879160e11b81526001600160a01b0384166004820152602481018690529082908290604490829084905af1801561059f57611d06575b50507f7a0984e898d33e4bf6ad9f851bfab5517683d3dae5b57ed58fa8c7152d822e32916020916040519485521692a280f35b611d0f90614171565b6105aa578338611cd3565b50346103375780600319360112610337577f00000000000000000000000000000000000000000000000000000000000000006001600160a01b03163003611d735760206040516000805160206154e98339815191528152f35b60405162461bcd60e51b815260206004820152603860248201527f555550535570677261646561626c653a206d757374206e6f742062652063616c60448201527f6c6564207468726f7567682064656c656761746563616c6c00000000000000006064820152608490fd5b50604036600319011261033757611df3614129565b906024356001600160401b03811161059b57611e1390369060040161436b565b916001600160a01b037f0000000000000000000000000000000000000000000000000000000000000000811690611e4c308314156143b8565b611e696000805160206154e9833981519152928284541614614419565b80603354163303610325577f4910fdfa16fed3260ed0e7147f7cc6da11a60208b5b9406d12a635614ffd91435460ff1615611eab57505061058491925061447a565b6040516352d1902d60e01b8152602094939291831691908581600481865afa600091816120ac575b50611f345760405162461bcd60e51b815260048101879052602e60248201527f45524331393637557067726164653a206e657720696d706c656d656e7461746960448201526d6f6e206973206e6f74205555505360901b6064820152608490fd5b9493940361205557611f458261447a565b604051907fbc7cd75a20ee27fd9adebab32041f755214dbc6bffa90cc0225b39da2e5c2d3b600080a284511580159061204d575b611f86575b505050905080f35b813b15611ffc5750600084819284611ff29697519201905af4611fa761450a565b907f416464726573733a206c6f772d6c6576656c2064656c65676174652063616c6c60405193611fd6856141ba565b60278552840152660819985a5b195960ca1b6040840152614a5f565b5080388080611f7e565b62461bcd60e51b815260048101839052602660248201527f416464726573733a2064656c65676174652063616c6c20746f206e6f6e2d636f6044820152651b9d1c9858dd60d21b6064820152608490fd5b506001611f79565b60405162461bcd60e51b815260048101849052602960248201527f45524331393637557067726164653a20756e737570706f727465642070726f786044820152681a58589b195555525160ba1b6064820152608490fd5b90918782813d83116120d4575b6120c381836141f1565b810103126103375750519038611ed3565b503d6120b9565b50346103375780600319360112610337576034546001600160a01b03908181163381900361214557806033549384167f8be0079c531659141344cd1fd0a4f28419497f9722a3daafe3b4186f6b6457e08680a36001600160a01b0319928316176033551660345580f35b6040516305e05b4b60e31b8152600490fd5b50346103375760208060031936011261059b576001600160401b03906004358281116105aa5761218d6040913690600401614287565b90809291612199614b83565b810103126105d157808201359035600181036122e75750506101069182549060ff8216156122d55761226a93839264ffffffffff60581b6121de610e10420642614a45565b60581b1664ffffffffff60581b19919091161790556101c6546101085461010954604080516305d3b1d360e41b815260048101939093529381166001600160401b0316602483015261ffff608082901c16604483015263ffffffff9381901c8416606483015260601c9092166084830152909384916001600160a01b03169082908790829060a4820190565b03925af180156122ca57839061229b575b835261010a90525060408120805463ff00ff001916630100010017905580f35b508082813d83116122c3575b6122b181836141f1565b810103126105d15761010a915161227b565b503d6122a7565b6040513d85823e3d90fd5b60405163a397eb4760e01b8152600490fd5b600281036124155750506101069182549060ff8216156122d5576123b593839264ffffffffff60801b61231e610e10420642614a45565b64ffffffffff60801b19909216608092831b91909116179091556101c6546101085461010954604080516305d3b1d360e41b815260048101939093526001600160401b039582169590951660248301529283901c61ffff1660448201529282901c63ffffffff908116606485015260609290921c9091166084830152909384916001600160a01b03169082908790829060a4820190565b03925af180156122ca5783906123e6575b835261010a90525060408120805463ff00ff001916630200010017905580f35b508082813d831161240e575b6123fc81836141f1565b810103126105d15761010a91516123c6565b503d6123f2565b91939250906003908181036125da57506101069060ff825416156122d55761243b61516b565b946124446151ea565b9573__$bf3a140bdbff42a6137d0acc0952596ca5$__9160fb548752610101918282526040882090843b156125d65760405163df8fd62160e01b8152606060048201529189918391829161249c906064840190614d56565b908a602484015260448301520381875af480156125cb579088916125b7575b505060405193976124cb856141d5565b600a90818652610140368488013787895261010a835260408920805462ff000019166201000017815560010199895b838110612580575050505086975060fb969596548652526040842090803b15610e765761254785936040519586948593849363b2bdfd6b60e01b8552606060048601526064850190614d56565b916024840152604483015203915af4801561059f5761256c575b505061058490615450565b61257590614171565b61059b578138612561565b806125a1605a6125948f946125b2956150c6565b905490861b1c06856150de565b516125ac828b6150de565b52614c1f565b6124fa565b6125c090614171565b610b5f5786386124bb565b6040513d8a823e3d90fd5b8880fd5b9293926004146125eb575b50505080f35b6101069060ff825416156122d55761260161516b565b9161260a6151ea565b9173__$bf3a140bdbff42a6137d0acc0952596ca5$__60fb54885287610101958689526040822090833b156105c25760405163069381c360e51b81526060600482015291839183918291612662906064840190614d56565b9089602484015260448301520381865af4801561059f5761281b575b5091906040519161268e836141d5565b600a95868452610140368b86013788855261010a8a5260408520805462ff000019166201000017815560010191855b8881106127eb575050505060fb5483528588526040832091813b156105aa578391612706916040518095819482936353ce4e5160e11b8452606060048501526064840190614d56565b90896024840152604483015203915af4801561059f576127d7575b50505461ffff808260a81c169183830292808404851490151715610ddb5760b81c168281029281840414901517156127c3579061275d91614a52565b9060fb5493848652818152600f604087200154928381029381850414901517156127ad576127a59486525261279e612710600f604087200192048254614a45565b9055615450565b3880806125e5565b634e487b7160e01b600052601160045260246000fd5b634e487b7160e01b86526011600452602486fd5b6127e090614171565b6106e0578538612721565b8394959650612804605a6125948361280f9596976150c6565b516125ac82896150de565b908b95949392916126bd565b61282490614171565b610b4757873861267e565b503461033757602036600319011261033757603354600435906001600160a01b03163303610325576020817f895ece2457e03622f6eab9f28377343eca29710870eb9636d6794049860e53fc9261010e55604051908152a180f35b503461033757612899366142b4565b6040519060208201928284106001600160401b038511176128cf5761058494610e7194604052868452610e61610e5c84336146f9565b634e487b7160e01b600052604160045260246000fd5b503461033757806003193601126103375761010060405161290581614155565b8281528260208201528260408201528260608201528260808201528260a08201528260c08201528260e0820152015261012060405161294381614155565b64ffffffffff610100610106549260ff84168152828460081c166020820152828460301c166040820152828460581c166060820152828460801c16608082015261ffff8460a81c1660a082015261ffff8460b81c1660c082015261ffff8460c81c1660e08201528360d81c8282015260ff6040519416845282602082015116602085015282604082015116604085015282606082015116606085015282608082015116608085015261ffff60a08201511660a085015261ffff60c08201511660c085015261ffff60e08201511660e0850152015116610100820152f35b5034610337576020908160031936011261033757612a3c614129565b6001600160a01b03927f00000000000000000000000000000000000000000000000000000000000000008416612a74308214156143b8565b612a916000805160206154e9833981519152918683541614614419565b846033541633036103255760405194612aa98661419f565b8486527f4910fdfa16fed3260ed0e7147f7cc6da11a60208b5b9406d12a635614ffd91435460ff1615612ae45750505061058491925061447a565b8392949316906040516352d1902d60e01b81528581600481865afa60009181612bc1575b50612b695760405162461bcd60e51b815260048101879052602e60248201527f45524331393637557067726164653a206e657720696d706c656d656e7461746960448201526d6f6e206973206e6f74205555505360901b6064820152608490fd5b9493940361205557612b7a8261447a565b604051907fbc7cd75a20ee27fd9adebab32041f755214dbc6bffa90cc0225b39da2e5c2d3b600080a2845115801590612bb957611f8657505050905080f35b506000611f79565b90918782813d8311612be9575b612bd881836141f1565b810103126103375750519038612b08565b503d612bce565b50346103375760a0366003190112610337576001600160a01b03600435818116908190036105c257612c2061413f565b916001600160401b03916044358381116106e057612c4290369060040161436b565b91606435848111610b5f57612c5b90369060040161436b565b6084359182168092036105d15786549060ff95868360081c161595868097613098575b8015613082575b156130265760019860ff1994888b878316178d55613015575b508615611c1a57612cdb906001600160601b0360a01b978860fc54161760fc55612cd68a8d5460081c16612cd181614b0c565b614b0c565b614a9f565b612cee888b5460081c16612cd181614b0c565b80518281116130015761013090808c612d0784546145aa565b94601f95868111612fb6575b50602091868411600114612f2f5792612f24575b5050600019600383901b1c1916908b1b1790555b8251918211612f105761013192612d5284546145aa565b828111612ebb575b506020918311600114612e3857612dca949392918b9183612e2d575b5050600019600383901b1c191690891b1790555b8754958660081c1690612d9c82614b0c565b612da582614b0c565b8761016255612db382614b0c565b612dbc82614b0c565b610194908154169055614b0c565b8015612e1b576101c691825416179055612de2578280f35b61ff00191682556040519081527f7f26b83ff96e1f2b6a682f133852f6798a09c465da95921460cefb384740249890602090a138808280f35b604051630cee34c560e11b8152600490fd5b015190503880612d76565b838b5293929189917fbd987ad6ccdb7c7567f7335ea839f95dc944431abcf935b6924f70215963db7390601f1983168d5b818110612ea357509683612dca9810612e8a575b505050811b019055612d8a565b015160001960f88460031b161c19169055388080612e7d565b8289015184558d959093019260209283019201612e69565b612f0190858d527fbd987ad6ccdb7c7567f7335ea839f95dc944431abcf935b6924f70215963db738480870160051c82019260208810612f07575b0160051c0190614b6c565b38612d5a565b92508192612ef6565b634e487b7160e01b8a52604160045260248afd5b015190503880612d27565b91908e9450601f1984168684527f2f605e086faac1d93117bbfbc18835d434e9405fadc1ca66faf4b864746daf34935b818110612f9457508411612f7b575b505050811b019055612d3b565b015160001960f88460031b161c19169055388080612f6e565b93839596602092939491839286015181550195019301908f9594939291612f5f565b612ffb908684527f2f605e086faac1d93117bbfbc18835d434e9405fadc1ca66faf4b864746daf348880870160051c82019260208810612f07570160051c0190614b6c565b38612d13565b634e487b7160e01b8b52604160045260248bfd5b61ffff1916610101178b5538612c9e565b60405162461bcd60e51b815260206004820152602e60248201527f496e697469616c697a61626c653a20636f6e747261637420697320616c72656160448201526d191e481a5b9a5d1a585b1a5e995960921b6064820152608490fd5b50303b158015612c855750600188851614612c85565b50600188851610612c7e565b50346103375760031960403682011261059b576001600160401b03906004358281116105aa576130d89036906004016142e9565b919092602435908111610e76576130f39036906004016142e9565b60335491939092916001600160a01b0316330361032557859473__$bf3a140bdbff42a6137d0acc0952596ca5$__91823b15610b5f5761316d61315e94889660405198899788968796631bd4474f60e31b885260fd6004890152606060248901526064880191614cea565b92858403016044860152614cea565b03915af4801561059f576112385750f35b503461033757606036600319011261033757613198614129565b6044359060028210156105c25761010e54604051631b7fc0f360e11b815261010260048201526101036024808301919091526001600160a01b039384166044830152356064820152926131ef906084850190614d33565b60a483015260808260c48173__$bf3a140bdbff42a6137d0acc0952596ca5$__5af49081156122ca5783928485918694613243575b5060809550826040519516855260208501521660408301526060820152f35b9350505091506080813d8211613299575b81613261608093836141f1565b810103126105c25760809250613276816153aa565b91602082015192606061328b604085016153aa565b930151909392909238613224565b3d9150613254565b503461033757806003193601126103375760a0610103546040519061ffff8082168352808260101c166020840152808260201c1660408401528160301c16606083015260401c6080820152f35b50346103375780602080600319360112611248576004356001600160401b0381116116b857613322839136906004016142e9565b91909261332d614b83565b73__$bf3a140bdbff42a6137d0acc0952596ca5$__92825b818110613350578380f35b61335b818388614c7a565b35613364614bc8565b60fb908154865261010180865260408720883b15610b4757604051906329caab3960e11b8252836004830152602482015287816044818c5af49081156125cb578891613437575b50506101045492548752855260408620916001600160a01b0316873b15610b5f57604051630b06bff360e21b815260048101929092526001600160a01b0316602482015260448101919091528481606481895af49081156106d5578591613423575b505061341e90600161016255614c1f565b613345565b61342c90614171565b6105aa57838861340d565b61344090614171565b610b5f57868b6133ab565b50346103375761058461345d366142b4565b9161346b610e5c84336146f9565b6147c2565b50346103375760e03660031901126103375761348a61413f565b60c4356001600160401b0381116105c2576134a9903690600401614287565b6134b4929192615425565b6134bc614b83565b6134e260043560ff6001918060081c600052610105602052161b60406000205416151590565b613a7e5760043560081c845261010560205260408420600160ff600435161b815417905561351160ff54614c1f565b8060ff55670de0b6b3a7640000908146029146830414461517156127c3579061353991614a52565b6001600160a01b038316855260fe602052604085208054919491929063ffffffff80851614613a6a57906135e3929163ffffffff60018187160116809563ffffffff19161790556040519361358d85614155565b60043585526001600160a01b038616602086015261ffff6084351660408601526060850152608084018790526001600160801b0360a435811660a08601526044351660c085015260643560e08501523691614334565b6101008201528284526101006020526101006004604086208351815560018060a01b0360208501511661ffff60a01b604086015160a01b1663ffffffff60b01b606087015160b01b169065ffffffffffff60d01b608088015160d01b169217171760018201556001600160801b0360a0850151166001600160801b031960c086015160801b1617600282015560e08401516003820155019101518051906001600160401b038211613a5657819061369a84546145aa565b601f8111613a1b575b50602090601f83116001146139b75787926139ac575b50508160011b916000199060031b1c19161790555b6040516136da8161419f565b8381526001600160a01b0382161561396857600083815261013260205260409020546137a891610e719161371a906001600160a01b031615155b15614c2e565b6000858152610132602052604090205461373e906001600160a01b03161515613714565b6001600160a01b0384168087526101336020908152604080892080546001019055878952610132909152872080546001600160a01b031916821790558590877fddf252ad1be2c89b69c2b068fc378daa952ba7f163c4a11628f55a4df523b3ef8180a484846148d6565b61010480546001600160a01b0316803b15610e76576040516310b3879160e11b81526001600160a01b0384166004820152604480356024830152909186918391829084905af180156106d557613955575b50839073__$b6aef517fe05d85bc7364998255804b986$__60fb54835261010160205260408320813b156105aa578390606460405180948193636ebb252160e11b83526004830152896024830152823560448301525af49081156122ca578391613941575b50505461010e5473__$bf3a140bdbff42a6137d0acc0952596ca5$__916001600160a01b031690823b156105aa57604051638ec4211160e01b8152610102600482015261010360248201526044808201939093526001600160a01b03861660648201529135608483015260a4820152908290829060c49082905af4801561059f5761392d575b505060408051606435815260443560208201526001600160a01b0390921691600435917faf1bba31184b4d13e4f756b22fc2755d77b6ad147f10a7b12ea6afa58a2ca5f691a480f35b61393690614171565b6105c25782386138e4565b61394a90614171565b61059b57813861385e565b61396190949194614171565b92386137f9565b606460405162461bcd60e51b815260206004820152602060248201527f4552433732313a206d696e7420746f20746865207a65726f20616464726573736044820152fd5b0151905038806136b9565b848852602088209250601f198416885b818110613a0357509084600195949392106139ea575b505050811b0190556136ce565b015160001960f88460031b161c191690553880806139dd565b929360206001819287860151815501950193016139c7565b613a469085895260208920601f850160051c81019160208610613a4c575b601f0160051c0190614b6c565b386136a3565b9091508190613a39565b634e487b7160e01b86526041600452602486fd5b634e487b7160e01b87526011600452602487fd5b604051630490d63160e01b8152600490fd5b5034610337576040366003190112610337576004356001600160401b036024358181116105aa57613ac5903690600401614229565b6101c6546001600160a01b031633819003613be0575082845261010a60209281845260ff6040872054161580613bcf575b613afe578580f35b600192836040882001908051928311613bbb57680100000000000000008311613bbb5785908254848455808510613ba1575b500190875284872084885b848110613b8f5750505050508385528252604084208160ff1982541617905561010c61010d928354865261010b81528460408720558354948652528260408520558201809211610fbf575538808080808580f35b87845194019381840155018590613b3b565b838a52828a20613bb5918101908601614b6c565b38613b30565b634e487b7160e01b88526041600452602488fd5b5060ff604087205460081c16613af6565b60405163073e64fd60e21b81523360048201526001600160a01b03919091166024820152604490fd5b0390fd5b503461033757602036600319011261033757600435613c2a614ca0565b6033546001600160a01b03163303610325578180808093818115613c54575b3390f1156107d45780f35b506108fc613c49565b503461033757806003193601126103375760fc546040516001600160a01b039091168152602090f35b503461033757604036600319011261033757613ce0604060a092613ca8614129565b613cb06153be565b5060fb54825261010160205260018383200190600180871b031682526020528181206024358252602052206153e9565b613d15604051809260808091805184526020810151602085015260408101516040850152606081015160608501520151910152565bf35b5034610337576020366003190112610337576004356001600160401b03811161059b576040613d4d613d81923690600401614229565b60fb548452610101602052818420825193849283926371695c4760e01b845260048401528460248401526044830190614d56565b038173__$bf3a140bdbff42a6137d0acc0952596ca5$__5af4801561059f5782918391613db9575b6040838382519182526020820152f35b9150506040813d604011613dee575b81613dd5604093836141f1565b8101031261059b57604091506020815191015138613da9565b3d9150613dc8565b503461033757604036600319011261033757613e10614129565b602435906001600160a01b038080613e2785614586565b16921691808314613f1e57803314908115613efc575b5015613e91578284526101346020526040842080546001600160a01b03191683179055613e6983614586565b167f8c5be1e5ebec7d5bd14f71427d1e84f3dd0314c0f7b2291e5b200ac8c7c3b9258480a480f35b60405162461bcd60e51b815260206004820152603d60248201527f4552433732313a20617070726f76652063616c6c6572206973206e6f7420746f60448201527f6b656e206f776e6572206f7220617070726f76656420666f7220616c6c0000006064820152608490fd5b905084526101356020526040842033855260205260ff60408520541638613e3d565b60405162461bcd60e51b815260206004820152602160248201527f4552433732313a20617070726f76616c20746f2063757272656e74206f776e656044820152603960f91b6064820152608490fd5b5034610337576020366003190112610337576020611bbb6004356145e4565b5034610337578060031936011261033757604051908061013090815490613fb2826145aa565b808652926001928084169081156113095750600114613fdb576107548661129b818803826141f1565b815292507f2f605e086faac1d93117bbfbc18835d434e9405fadc1ca66faf4b864746daf345b82841061401d57505050810160200161129b826107543861128b565b80546020858701810191909152909301928101614001565b503461033757602036600319011261033757613ce0604060a0926140576153be565b5060fb5481526101016020528181206004358252602052206153e9565b90503461059b57602036600319011261059b5760043563ffffffff60e01b81168091036105c257602092506380ac58cd60e01b81149081156140d0575b81156140bf575b5015158152f35b6301ffc9a760e01b149050386140b8565b635b5e139f60e01b811491506140b1565b60005b8381106140f45750506000910152565b81810151838201526020016140e4565b9060209161411d815180928185528580860191016140e1565b601f01601f1916010190565b600435906001600160a01b03821682036105d157565b602435906001600160a01b03821682036105d157565b61012081019081106001600160401b038211176128cf57604052565b6001600160401b0381116128cf57604052565b60a081019081106001600160401b038211176128cf57604052565b602081019081106001600160401b038211176128cf57604052565b606081019081106001600160401b038211176128cf57604052565b61016081019081106001600160401b038211176128cf57604052565b90601f801991011681019081106001600160401b038211176128cf57604052565b6001600160401b0381116128cf5760051b60200190565b81601f820112156105d15780359161424083614212565b9261424e60405194856141f1565b808452602092838086019260051b8201019283116105d1578301905b828210614278575050505090565b8135815290830190830161426a565b9181601f840112156105d1578235916001600160401b0383116105d157602083818601950101116105d157565b60609060031901126105d1576001600160a01b039060043582811681036105d1579160243590811681036105d1579060443590565b9181601f840112156105d1578235916001600160401b0383116105d1576020808501948460051b0101116105d157565b6001600160401b0381116128cf57601f01601f191660200190565b92919261434082614319565b9161434e60405193846141f1565b8294818452818301116105d1578281602093846000960137010152565b9080601f830112156105d15781602061438693359101614334565b90565b60409060031901126105d1576004356001600160a01b03811681036105d1579060243580151581036105d15790565b156143bf57565b60405162461bcd60e51b815260206004820152602c60248201527f46756e6374696f6e206d7573742062652063616c6c6564207468726f7567682060448201526b19195b1959d85d1958d85b1b60a21b6064820152608490fd5b1561442057565b60405162461bcd60e51b815260206004820152602c60248201527f46756e6374696f6e206d7573742062652063616c6c6564207468726f7567682060448201526b6163746976652070726f787960a01b6064820152608490fd5b803b156144af576000805160206154e983398151915280546001600160a01b0319166001600160a01b03909216919091179055565b60405162461bcd60e51b815260206004820152602d60248201527f455243313936373a206e657720696d706c656d656e746174696f6e206973206e60448201526c1bdd08184818dbdb9d1c9858dd609a1b6064820152608490fd5b3d15614535573d9061451b82614319565b9161452960405193846141f1565b82523d6000602084013e565b606090565b1561454157565b60405162461bcd60e51b815260206004820152601860248201527f4552433732313a20696e76616c696420746f6b656e20494400000000000000006044820152606490fd5b600090815261013260205260409020546001600160a01b031661438681151561453a565b90600182811c921680156145da575b60208310146145c457565b634e487b7160e01b600052602260045260246000fd5b91607f16916145b9565b60008181526101326020526040902054614608906001600160a01b0316151561453a565b600090815261013460205260409020546001600160a01b031690565b1561462b57565b60405162461bcd60e51b815260206004820152602d60248201527f4552433732313a2063616c6c6572206973206e6f7420746f6b656e206f776e6560448201526c1c881bdc88185c1c1c9bdd9959609a1b6064820152608490fd5b60809060208152603260208201527f4552433732313a207472616e7366657220746f206e6f6e20455243373231526560408201527131b2b4bb32b91034b6b83632b6b2b73a32b960711b60608201520190565b156146e057565b60405162461bcd60e51b815280613c0960048201614686565b906001600160a01b03808061470d84614586565b16931691838314938415614740575b50831561472a575b50505090565b614736919293506145e4565b1614388080614724565b90935060005261013560205260406000208260005260205260ff60406000205416923861471c565b1561476f57565b60405162461bcd60e51b815260206004820152602560248201527f4552433732313a207472616e736665722066726f6d20696e636f72726563742060448201526437bbb732b960d91b6064820152608490fd5b906147ea916147d084614586565b6001600160a01b0393918416928492909183168414614768565b1691821561488557816148079161480086614586565b1614614768565b7fddf252ad1be2c89b69c2b068fc378daa952ba7f163c4a11628f55a4df523b3ef6000848152610134602052604081206001600160601b0360a01b90818154169055838252610133602052604082206000198154019055848252604082206001815401905585825261013260205284604083209182541617905580a4565b60405162461bcd60e51b8152602060048201526024808201527f4552433732313a207472616e7366657220746f20746865207a65726f206164646044820152637265737360e01b6064820152608490fd5b9091600091803b156149c1576149216020918493604051948580948193630a85bd0160e11b9a8b84523360048501528460248501526044840152608060648401526084830190614104565b03926001600160a01b03165af190829082614979575b505061496b5761494561450a565b805190816149665760405162461bcd60e51b815280613c0960048201614686565b602001fd5b6001600160e01b0319161490565b909192506020813d82116149b9575b81614995602093836141f1565b8101031261059b5751906001600160e01b0319821682036103375750903880614937565b3d9150614988565b50505050600190565b91926000929190813b15614a3b57602091614a209185604051958680958194630a85bd0160e11b9b8c845233600485015260018060a01b0380951660248501526044840152608060648401526084830190614104565b0393165af19082908261497957505061496b5761494561450a565b5050505050600190565b919082039182116127ad57565b919082018092116127ad57565b90919015614a6b575090565b815115614a7b5750805190602001fd5b60405162461bcd60e51b815260206004820152908190613c09906024830190614104565b7fb53127684a568b3173ae13b9f8a6016e243e63b6e8ee1178d6a717850b5d6103819055603380546001600160a01b039283166001600160a01b0319821681179092559091167f8be0079c531659141344cd1fd0a4f28419497f9722a3daafe3b4186f6b6457e0600080a3565b15614b1357565b60405162461bcd60e51b815260206004820152602b60248201527f496e697469616c697a61626c653a20636f6e7472616374206973206e6f74206960448201526a6e697469616c697a696e6760a81b6064820152608490fd5b818110614b77575050565b60008155600101614b6c565b60ff6101945416614b9057565b60405162461bcd60e51b815260206004820152601060248201526f14185d5cd8589b194e881c185d5cd95960821b6044820152606490fd5b6101626002815414614bda5760029055565b60405162461bcd60e51b815260206004820152601f60248201527f5265656e7472616e637947756172643a207265656e7472616e742063616c6c006044820152606490fd5b60001981146127ad5760010190565b15614c3557565b60405162461bcd60e51b815260206004820152601c60248201527f4552433732313a20746f6b656e20616c7265616479206d696e746564000000006044820152606490fd5b9190811015614c8a5760051b0190565b634e487b7160e01b600052603260045260246000fd5b60ff610194541615614cae57565b60405162461bcd60e51b815260206004820152601460248201527314185d5cd8589b194e881b9bdd081c185d5cd95960621b6044820152606490fd5b9190808252602080920192916000805b838210614d0957505050505090565b9091929394853560018060a01b0381168091036105c2578152830194830193929160010190614cfa565b906002821015614d405752565b634e487b7160e01b600052602160045260246000fd5b90815180825260208080930193019160005b828110614d76575050505090565b835185529381019392810192600101614d68565b91909164ffffffffff808094169116019182116127ad57565b600090600090606091610106546001908160ff821614614dc257505050565b64ffffffffff959295949193949081614de5818360081c16828460581c16614d8a565b16421115614e11575050505060405192816020850152604084015260408352614e0d836141ba565b9190565b808280614e2c9360309a969998979a1c169160801c16614d8a565b164211614fea5773__$f445361e8b50888b0b8cee3fd4db50a783$__6040908151926305f739f960e21b845261010b8060048601526020948581602481875af4908115614fe0578391614fb3575b50614e8757505050505050565b8395985060448597989495929395518096819363c9c3102d60e01b835260048301528560248301525af4928315614fa7578193614f78575b5082815261010a80865260ff8583205460181c166003811015614f64578803614efc575050506003825193840152818301528152614386816141ba565b838298969594939852845260ff8382205460181c16906003821015614f505750600214614f2b575b5050509190565b90919294506004825193840152818301528152614f47816141ba565b91388080614f24565b634e487b7160e01b81526021600452602490fd5b634e487b7160e01b83526021600452602483fd5b9092508481813d8311614fa0575b614f9081836141f1565b810103126105c257519138614ebf565b503d614f86565b508351903d90823e3d90fd5b90508581813d8311614fd9575b614fca81836141f1565b810103126105c2575138614e7a565b503d614fc0565b85513d85823e3d90fd5b93509091506040519260026020850152604084015260408352614e0d836141ba565b9060018060a01b038060fc5416906101075416604051906323b872dd60e01b82523360048301526024820152826044820152602081606481600080965af1801561059f5761508f575b505061506181836152de565b6040519081527f58c7b3bf0b0e168048426c1e9443a72696526292ca664e18b11f934cd6cfbbf360203392a3565b6020813d82116150be575b816150a7602093836141f1565b8101031261059b5751801515036103375780615055565b3d915061509a565b8054821015614c8a5760005260206000200190600090565b8051821015614c8a5760209160051b010190565b60209081818403126105d1578051906001600160401b0382116105d157019180601f840112156105d157825161512781614212565b9361513560405195866141f1565b818552838086019260051b8201019283116105d1578301905b82821061515c575050505090565b8151815290830190830161514e565b60fb5460009081526101016020526002604082200160405190634d63fffd60e01b82526004820152816024820152600a6044820152818160648173__$69292ab8e6f98571d324d08d63c6dae4eb$__5af49182156107d45780926151ce57505090565b61438692503d8091833e6151e281836141f1565b8101906150f2565b60fb5460009081526101016020526002604082200160405190634d63fffd60e01b82526004820152600a6024820152605a6044820152818160648173__$69292ab8e6f98571d324d08d63c6dae4eb$__5af49182156107d45780926151ce57505090565b60fb54600090815261010160205260408120600c8101939192600d82019260029092019173__$b6aef517fe05d85bc7364998255804b986$__91823b156106e057918594939160a49360405198899687956311b7263f60e21b8752600487015260248601526044850152606484015260848301525af49081156107d457506152d35750565b6152dc90614171565b565b91909160fb5492600093845261010180602052604060018187200133875260205280862084875260205280862091615317848454614a52565b835560fb548752602052808620848752602052615338818720938454614a52565b83558573__$bf3a140bdbff42a6137d0acc0952596ca5$__92833b1561059b576044835180958193636496053360e01b835288600484015260248301525af49081156153a157506152dc949550615392575b50549061524e565b61539b90614171565b3861538a565b513d87823e3d90fd5b51906001600160a01b03821682036105d157565b604051906153cb82614184565b60006080838281528260208201528260408201528260608201520152565b906040516153f681614184565b608060048294805484526001810154602085015260028101546040850152600381015460608501520154910152565b3360005260fd60205260ff604060002054161561543e57565b60405163143606b960e31b8152600490fd5b600081815261010c9081602052604081205461010d92835494600019958681019081116154d457845261010b92836020526040852054908552604085205583526020528160408120558254848101908111610fbf57825260205280604081205581549283019283116154c0575055565b634e487b7160e01b81526011600452602490fd5b634e487b7160e01b85526011600452602485fdfe360894a13ba1a3210667c828492db98dca3e2076cc3735a920a3ca505d382bbca2646970667358221220f568baf440c478582acc96778c3c978cfbc96c153e481c91fe2994c5cf95ee1364736f6c63430008110033",
  "libraries": {
    "RenderConstant": "0x1Cd4a056477222f0fB4D7727F059191613E44f7E",
    "Renderer": "0xF4415A0f02255B9dd5FfF6bE3F4E514F2E18DDfa",
    "FastArray": "0xEDB80829E4ED4b4E6Ff7A178801b78586d279d26",
    "RankingRedBlackTree": "0x6385827d74AD1879fA80A2246e0374557d558C39",
    "SingleRanking": "0xD2ACc08f1d6e403FCcBfD20D2098C653f79ddb4d",
    "DegenRank": "0xdB4DfBAbCF466592159037B88e4067C61654eFAC",
    "PortalLib": "0x605B6900CB9c632000312Cd116B3e1e82985aF74"
  },
  "devdoc": {
    "errors": {
      "DropOff()": [
        {
          "details": "revert when the drop is not on"
        }
      ],
      "IncarnationExceedLimit()": [
        {
          "details": "revert when incarnation count exceed limit"
        }
      ],
      "InsufficientAmount()": [
        {
          "details": "revert when msg.value is insufficient"
        }
      ],
      "NotSetBurnPoolAddress()": [
        {
          "details": "revert if burnPool address not set when infuse"
        }
      ],
      "NotSigner()": [
        {
          "details": "revert when to caller is not signer"
        }
      ],
      "SameSeed()": [
        {
          "details": "revert when the random seed is duplicated"
        }
      ],
      "ZeroAddressSet()": [
        {
          "details": "revert when some address var are set to zero"
        }
      ]
    },
    "kind": "dev",
    "methods": {
      "approve(address,uint256)": {
        "details": "See {IERC721-approve}."
      },
      "balanceOf(address)": {
        "details": "See {IERC721-balanceOf}."
      },
      "baptise(address,uint256)": {
        "details": "reward for share the game",
        "params": {
          "amount": "amount for reward",
          "user": "user address"
        }
      },
      "burnFromBurnPool(uint256)": {
        "details": "burn $REBORN from burn pool",
        "params": {
          "amount": "burn from burn pool"
        }
      },
      "calculateReferReward(address,uint256,uint8)": {
        "details": "returns referrer and referer reward",
        "returns": {
          "ref1": " level1 of referrer. direct referrer",
          "ref1Reward": " level 1 referrer reward",
          "ref2": " level2 of referrer. referrer's referrer",
          "ref2Reward": " level 2 referrer reward"
        }
      },
      "checkUpkeep(bytes)": {
        "details": "checkUpkeep for chainlink automation"
      },
      "claimDrops(uint256[])": {
        "details": "user claim many pools' airdrop",
        "params": {
          "tokenIds": "pools' tokenId array to claim"
        }
      },
      "claimNativeDrops(uint256[])": {
        "details": "user claim many pools' native token airdrop",
        "params": {
          "tokenIds": "pools' tokenId array to claim"
        }
      },
      "claimOwnership()": {
        "details": "pending owner call this function to claim ownership"
      },
      "claimRebornDrops(uint256[])": {
        "details": "user claim many pools' reborn token airdrop",
        "params": {
          "tokenIds": "pools' tokenId array to claim"
        }
      },
      "engrave(bytes32,address,uint256,uint256,uint256,uint256,string)": {
        "details": "engrave the result on chain and reward",
        "params": {
          "cost": "user cost for this life",
          "reward": "$REBORN user earns, decimal 10^18",
          "score": "life score",
          "seed": "random seed in bytes32",
          "user": "user address"
        }
      },
      "getApproved(uint256)": {
        "details": "See {IERC721-getApproved}."
      },
      "getJackPot()": {
        "details": "return the jackpot amount of current season"
      },
      "getPool(uint256)": {
        "details": "read pool attribute"
      },
      "getPortfolio(address,uint256)": {
        "details": "read pool attribute"
      },
      "getRerferrers(address)": {
        "details": "referrer1: level1 of referrers referrer2: level2 of referrers"
      },
      "incarnate((uint256,uint256),address,uint256)": {
        "details": "user buy the innate for the life",
        "params": {
          "innate": "talent and property choice",
          "referrer": "the referrer address"
        }
      },
      "infuse(uint256,uint256)": {
        "details": "stake $REBORN on this tombstone",
        "params": {
          "amount": "stake amount, decimal 10^18",
          "tokenId": "tokenId of the life to stake"
        }
      },
      "infuse(uint256,uint256,uint256,uint256,bytes32,bytes32,uint8)": {
        "details": "stake $REBORN with permit",
        "params": {
          "amount": "amount of $REBORN to stake",
          "permitAmount": "amount of $REBORN to approve",
          "r": "r of signature",
          "s": "v of signature",
          "tokenId": "tokenId of the life to stake",
          "v": "v of signature"
        }
      },
      "initialize(address,address,string,string,address)": {
        "details": "initialize function",
        "params": {
          "name_": "ERC712 name",
          "owner_": "owner address",
          "rebornToken_": "$REBORN token address",
          "symbol_": "ERC721 symbol",
          "vrfCoordinator_": "chainlink vrf coordinator_ address"
        }
      },
      "isApprovedForAll(address,address)": {
        "details": "See {IERC721-isApprovedForAll}."
      },
      "name()": {
        "details": "See {IERC721Metadata-name}."
      },
      "owner()": {
        "details": "Returns the address of the current owner."
      },
      "ownerOf(uint256)": {
        "details": "See {IERC721-ownerOf}."
      },
      "paused()": {
        "details": "Returns true if the contract is paused, and false otherwise."
      },
      "pendingDrop(uint256[])": {
        "details": "read pending reward from specific pool",
        "params": {
          "tokenIds": "tokenId array of the pools"
        }
      },
      "pendingOwner()": {
        "details": "Return the address of the pending owner"
      },
      "performUpkeep(bytes)": {
        "details": "Upkeep perform of chainlink automation"
      },
      "proxiableUUID()": {
        "details": "Implementation of the ERC1822 {proxiableUUID} function. This returns the storage slot used by the implementation. It is used to validate the implementation's compatibility when performing an upgrade. IMPORTANT: A proxy pointing at a proxiable contract should not be considered proxiable itself, because this risks bricking a proxy that upgrades to it, by delegating to itself until out of gas. Thus it is critical that this function revert if invoked through a proxy. This is guaranteed by the `notDelegated` modifier."
      },
      "renounceOwnership()": {
        "details": "Leaves the contract without owner. It will not be possible to call `onlyOwner` functions anymore. Can only be called by the current owner. NOTE: Renouncing ownership will leave the contract without an owner, thereby removing any functionality that is only available to the owner."
      },
      "safeTransferFrom(address,address,uint256)": {
        "details": "See {IERC721-safeTransferFrom}."
      },
      "safeTransferFrom(address,address,uint256,bytes)": {
        "details": "See {IERC721-safeTransferFrom}."
      },
      "seedExists(bytes32)": {
        "details": "check whether the seed is used on-chain",
        "params": {
          "seed": "random seed in bytes32"
        }
      },
      "setApprovalForAll(address,bool)": {
        "details": "See {IERC721-setApprovalForAll}."
      },
      "setDropConf((uint8,uint40,uint40,uint40,uint40,uint16,uint16,uint16,uint40))": {
        "details": "set new airdrop config"
      },
      "setIncarnationLimit(uint256)": {
        "details": "set incarnation limit"
      },
      "setReferrerRewardFee(uint16,uint16,uint8)": {
        "details": "set percentage of referrer reward",
        "params": {
          "rewardType": "0: incarnate reward 1: engrave reward"
        }
      },
      "setVault(address)": {
        "details": "set vault",
        "params": {
          "vault_": "new vault address"
        }
      },
      "setVrfConf((bytes32,uint64,uint32,uint32,uint16))": {
        "details": "set new chainlink vrf v2 config"
      },
      "supportsInterface(bytes4)": {
        "details": "See {IERC165-supportsInterface}."
      },
      "switchPool(uint256,uint256,uint256)": {
        "details": "switch stake amount from poolFrom to poolTo",
        "params": {
          "amount": "amount to switch",
          "fromTokenId": "tokenId of from pool",
          "toTokenId": "tokenId of to pool"
        }
      },
      "symbol()": {
        "details": "See {IERC721Metadata-symbol}."
      },
      "toNextSeason()": {
        "details": "switch to next season, call by owner"
      },
      "tokenURI(uint256)": {
        "details": "See {IERC721Metadata-tokenURI}."
      },
      "transferFrom(address,address,uint256)": {
        "details": "See {IERC721-transferFrom}."
      },
      "transferOwnership(address,bool)": {
        "details": "Transfers ownership of the contract to a new account (`newOwner`). Can only be called by the current owner. Note If direct is false, it will set an pending owner and the OwnerShipTransferring only happens when the pending owner claim the ownership"
      },
      "updateSigners(address[],address[])": {
        "details": "update signers",
        "params": {
          "toAdd": "list of to be added signer",
          "toRemove": "list of to be removed signer"
        }
      },
      "upgradeTo(address)": {
        "details": "Upgrade the implementation of the proxy to `newImplementation`. Calls {_authorizeUpgrade}. Emits an {Upgraded} event."
      },
      "upgradeToAndCall(address,bytes)": {
        "details": "Upgrade the implementation of the proxy to `newImplementation`, and subsequently execute the function call encoded in `data`. Calls {_authorizeUpgrade}. Emits an {Upgraded} event."
      },
      "withdrawNativeToken(uint256)": {
        "details": "withdraw native token for reward distributionamount how much to withdraw"
      },
      "withdrawVault(address)": {
        "details": "withdraw token from vault",
        "params": {
          "to": "the address which owner withdraw token to"
        }
      }
    },
    "version": 1
  },
  "userdoc": {
    "kind": "user",
    "methods": {
      "getRerferrers(address)": {
        "notice": "A -> B -> C: B: level1 A: level2"
      },
      "setReferrerRewardFee(uint16,uint16,uint8)": {
        "notice": "mul 100 when set. eg: 8% -> 800 18%-> 1800"
      }
    },
    "version": 1
  },
  "storageLayout": {
    "storage": [
      {
        "astId": 549,
        "contract": "src/RebornPortal.sol:RebornPortal",
        "label": "_initialized",
        "offset": 0,
        "slot": "0",
        "type": "t_uint8"
      },
      {
        "astId": 552,
        "contract": "src/RebornPortal.sol:RebornPortal",
        "label": "_initializing",
        "offset": 1,
        "slot": "0",
        "type": "t_bool"
      },
      {
        "astId": 3596,
        "contract": "src/RebornPortal.sol:RebornPortal",
        "label": "__gap",
        "offset": 0,
        "slot": "1",
        "type": "t_array(t_uint256)50_storage"
      },
      {
        "astId": 8211,
        "contract": "src/RebornPortal.sol:RebornPortal",
        "label": "_owner",
        "offset": 0,
        "slot": "51",
        "type": "t_address"
      },
      {
        "astId": 8213,
        "contract": "src/RebornPortal.sol:RebornPortal",
        "label": "_pendingOwner",
        "offset": 0,
        "slot": "52",
        "type": "t_address"
      },
      {
        "astId": 8404,
        "contract": "src/RebornPortal.sol:RebornPortal",
        "label": "__gap",
        "offset": 0,
        "slot": "53",
        "type": "t_array(t_uint256)48_storage"
      },
      {
        "astId": 531,
        "contract": "src/RebornPortal.sol:RebornPortal",
        "label": "__gap",
        "offset": 0,
        "slot": "101",
        "type": "t_array(t_uint256)50_storage"
      },
      {
        "astId": 846,
        "contract": "src/RebornPortal.sol:RebornPortal",
        "label": "__gap",
        "offset": 0,
        "slot": "151",
        "type": "t_array(t_uint256)50_storage"
      },
      {
        "astId": 4460,
        "contract": "src/RebornPortal.sol:RebornPortal",
        "label": "__gap",
        "offset": 0,
        "slot": "201",
        "type": "t_array(t_uint256)50_storage"
      },
      {
        "astId": 12356,
        "contract": "src/RebornPortal.sol:RebornPortal",
        "label": "_season",
        "offset": 0,
        "slot": "251",
        "type": "t_uint256"
      },
      {
        "astId": 12359,
        "contract": "src/RebornPortal.sol:RebornPortal",
        "label": "rebornToken",
        "offset": 0,
        "slot": "252",
        "type": "t_contract(RBT)10264"
      },
      {
        "astId": 12363,
        "contract": "src/RebornPortal.sol:RebornPortal",
        "label": "signers",
        "offset": 0,
        "slot": "253",
        "type": "t_mapping(t_address,t_bool)"
      },
      {
        "astId": 12367,
        "contract": "src/RebornPortal.sol:RebornPortal",
        "label": "rounds",
        "offset": 0,
        "slot": "254",
        "type": "t_mapping(t_address,t_uint32)"
      },
      {
        "astId": 12369,
        "contract": "src/RebornPortal.sol:RebornPortal",
        "label": "idx",
        "offset": 0,
        "slot": "255",
        "type": "t_uint256"
      },
      {
        "astId": 12374,
        "contract": "src/RebornPortal.sol:RebornPortal",
        "label": "details",
        "offset": 0,
        "slot": "256",
        "type": "t_mapping(t_uint256,t_struct(LifeDetail)12970_storage)"
      },
      {
        "astId": 12379,
        "contract": "src/RebornPortal.sol:RebornPortal",
        "label": "_seasonData",
        "offset": 0,
        "slot": "257",
        "type": "t_mapping(t_uint256,t_struct(SeasonData)13002_storage)"
      },
      {
        "astId": 12383,
        "contract": "src/RebornPortal.sol:RebornPortal",
        "label": "referrals",
        "offset": 0,
        "slot": "258",
        "type": "t_mapping(t_address,t_address)"
      },
      {
        "astId": 12386,
        "contract": "src/RebornPortal.sol:RebornPortal",
        "label": "rewardFees",
        "offset": 0,
        "slot": "259",
        "type": "t_struct(ReferrerRewardFees)8724_storage"
      },
      {
        "astId": 12389,
        "contract": "src/RebornPortal.sol:RebornPortal",
        "label": "vault",
        "offset": 0,
        "slot": "260",
        "type": "t_contract(RewardVault)12795"
      },
      {
        "astId": 12392,
        "contract": "src/RebornPortal.sol:RebornPortal",
        "label": "_seeds",
        "offset": 0,
        "slot": "261",
        "type": "t_struct(BitMap)5346_storage"
      },
      {
        "astId": 12395,
        "contract": "src/RebornPortal.sol:RebornPortal",
        "label": "_dropConf",
        "offset": 0,
        "slot": "262",
        "type": "t_struct(AirdropConf)8766_storage"
      },
      {
        "astId": 12397,
        "contract": "src/RebornPortal.sol:RebornPortal",
        "label": "burnPool",
        "offset": 0,
        "slot": "263",
        "type": "t_address"
      },
      {
        "astId": 12400,
        "contract": "src/RebornPortal.sol:RebornPortal",
        "label": "_vrfConf",
        "offset": 0,
        "slot": "264",
        "type": "t_struct(VrfConf)8777_storage"
      },
      {
        "astId": 12405,
        "contract": "src/RebornPortal.sol:RebornPortal",
        "label": "_vrfRequests",
        "offset": 0,
        "slot": "266",
        "type": "t_mapping(t_uint256,t_struct(RequestStatus)13019_storage)"
      },
      {
        "astId": 12408,
        "contract": "src/RebornPortal.sol:RebornPortal",
        "label": "_pendingDrops",
        "offset": 0,
        "slot": "267",
        "type": "t_struct(Data)13359_storage"
      },
      {
        "astId": 12410,
        "contract": "src/RebornPortal.sol:RebornPortal",
        "label": "_extraReward",
        "offset": 0,
        "slot": "270",
        "type": "t_uint256"
      },
      {
        "astId": 12412,
        "contract": "src/RebornPortal.sol:RebornPortal",
        "label": "_g",
        "offset": 0,
        "slot": "271",
        "type": "t_bool"
      },
      {
        "astId": 12416,
        "contract": "src/RebornPortal.sol:RebornPortal",
        "label": "_incarnateCounts",
        "offset": 0,
        "slot": "272",
        "type": "t_mapping(t_address,t_uint256)"
      },
      {
        "astId": 12418,
        "contract": "src/RebornPortal.sol:RebornPortal",
        "label": "_incarnateCountLimit",
        "offset": 0,
        "slot": "273",
        "type": "t_uint256"
      },
      {
        "astId": 12423,
        "contract": "src/RebornPortal.sol:RebornPortal",
        "label": "_gap",
        "offset": 0,
        "slot": "274",
        "type": "t_array(t_uint256)30_storage"
      },
      {
        "astId": 2169,
        "contract": "src/RebornPortal.sol:RebornPortal",
        "label": "_name",
        "offset": 0,
        "slot": "304",
        "type": "t_string_storage"
      },
      {
        "astId": 2171,
        "contract": "src/RebornPortal.sol:RebornPortal",
        "label": "_symbol",
        "offset": 0,
        "slot": "305",
        "type": "t_string_storage"
      },
      {
        "astId": 2175,
        "contract": "src/RebornPortal.sol:RebornPortal",
        "label": "_owners",
        "offset": 0,
        "slot": "306",
        "type": "t_mapping(t_uint256,t_address)"
      },
      {
        "astId": 2179,
        "contract": "src/RebornPortal.sol:RebornPortal",
        "label": "_balances",
        "offset": 0,
        "slot": "307",
        "type": "t_mapping(t_address,t_uint256)"
      },
      {
        "astId": 2183,
        "contract": "src/RebornPortal.sol:RebornPortal",
        "label": "_tokenApprovals",
        "offset": 0,
        "slot": "308",
        "type": "t_mapping(t_uint256,t_address)"
      },
      {
        "astId": 2189,
        "contract": "src/RebornPortal.sol:RebornPortal",
        "label": "_operatorApprovals",
        "offset": 0,
        "slot": "309",
        "type": "t_mapping(t_address,t_mapping(t_address,t_bool))"
      },
      {
        "astId": 3109,
        "contract": "src/RebornPortal.sol:RebornPortal",
        "label": "__gap",
        "offset": 0,
        "slot": "310",
        "type": "t_array(t_uint256)44_storage"
      },
      {
        "astId": 988,
        "contract": "src/RebornPortal.sol:RebornPortal",
        "label": "_status",
        "offset": 0,
        "slot": "354",
        "type": "t_uint256"
      },
      {
        "astId": 1046,
        "contract": "src/RebornPortal.sol:RebornPortal",
        "label": "__gap",
        "offset": 0,
        "slot": "355",
        "type": "t_array(t_uint256)49_storage"
      },
      {
        "astId": 868,
        "contract": "src/RebornPortal.sol:RebornPortal",
        "label": "_paused",
        "offset": 0,
        "slot": "404",
        "type": "t_bool"
      },
      {
        "astId": 973,
        "contract": "src/RebornPortal.sol:RebornPortal",
        "label": "__gap",
        "offset": 0,
        "slot": "405",
        "type": "t_array(t_uint256)49_storage"
      },
      {
        "astId": 19092,
        "contract": "src/RebornPortal.sol:RebornPortal",
        "label": "vrfCoordinator",
        "offset": 0,
        "slot": "454",
        "type": "t_address"
      },
      {
        "astId": 19096,
        "contract": "src/RebornPortal.sol:RebornPortal",
        "label": "__gap",
        "offset": 0,
        "slot": "455",
        "type": "t_array(t_uint256)49_storage"
      }
    ],
    "types": {
      "t_address": {
        "encoding": "inplace",
        "label": "address",
        "numberOfBytes": "20"
      },
      "t_array(t_uint256)30_storage": {
        "base": "t_uint256",
        "encoding": "inplace",
        "label": "uint256[30]",
        "numberOfBytes": "960"
      },
      "t_array(t_uint256)44_storage": {
        "base": "t_uint256",
        "encoding": "inplace",
        "label": "uint256[44]",
        "numberOfBytes": "1408"
      },
      "t_array(t_uint256)48_storage": {
        "base": "t_uint256",
        "encoding": "inplace",
        "label": "uint256[48]",
        "numberOfBytes": "1536"
      },
      "t_array(t_uint256)49_storage": {
        "base": "t_uint256",
        "encoding": "inplace",
        "label": "uint256[49]",
        "numberOfBytes": "1568"
      },
      "t_array(t_uint256)50_storage": {
        "base": "t_uint256",
        "encoding": "inplace",
        "label": "uint256[50]",
        "numberOfBytes": "1600"
      },
      "t_array(t_uint256)dyn_storage": {
        "base": "t_uint256",
        "encoding": "dynamic_array",
        "label": "uint256[]",
        "numberOfBytes": "32"
      },
      "t_bool": {
        "encoding": "inplace",
        "label": "bool",
        "numberOfBytes": "1"
      },
      "t_bytes32": {
        "encoding": "inplace",
        "label": "bytes32",
        "numberOfBytes": "32"
      },
      "t_contract(RBT)10264": {
        "encoding": "inplace",
        "label": "contract RBT",
        "numberOfBytes": "20"
      },
      "t_contract(RewardVault)12795": {
        "encoding": "inplace",
        "label": "contract RewardVault",
        "numberOfBytes": "20"
      },
      "t_enum(AirdropVrfType)13006": {
        "encoding": "inplace",
        "label": "enum IRebornDefination.AirdropVrfType",
        "numberOfBytes": "1"
      },
      "t_mapping(t_address,t_address)": {
        "encoding": "mapping",
        "key": "t_address",
        "label": "mapping(address => address)",
        "numberOfBytes": "32",
        "value": "t_address"
      },
      "t_mapping(t_address,t_bool)": {
        "encoding": "mapping",
        "key": "t_address",
        "label": "mapping(address => bool)",
        "numberOfBytes": "32",
        "value": "t_bool"
      },
      "t_mapping(t_address,t_mapping(t_address,t_bool))": {
        "encoding": "mapping",
        "key": "t_address",
        "label": "mapping(address => mapping(address => bool))",
        "numberOfBytes": "32",
        "value": "t_mapping(t_address,t_bool)"
      },
      "t_mapping(t_address,t_mapping(t_uint256,t_struct(Portfolio)8747_storage))": {
        "encoding": "mapping",
        "key": "t_address",
        "label": "mapping(address => mapping(uint256 => struct PortalLib.Portfolio))",
        "numberOfBytes": "32",
        "value": "t_mapping(t_uint256,t_struct(Portfolio)8747_storage)"
      },
      "t_mapping(t_address,t_uint256)": {
        "encoding": "mapping",
        "key": "t_address",
        "label": "mapping(address => uint256)",
        "numberOfBytes": "32",
        "value": "t_uint256"
      },
      "t_mapping(t_address,t_uint32)": {
        "encoding": "mapping",
        "key": "t_address",
        "label": "mapping(address => uint32)",
        "numberOfBytes": "32",
        "value": "t_uint32"
      },
      "t_mapping(t_uint256,t_address)": {
        "encoding": "mapping",
        "key": "t_uint256",
        "label": "mapping(uint256 => address)",
        "numberOfBytes": "32",
        "value": "t_address"
      },
      "t_mapping(t_uint256,t_struct(Data)13359_storage)": {
        "encoding": "mapping",
        "key": "t_uint256",
        "label": "mapping(uint256 => struct FastArray.Data)",
        "numberOfBytes": "32",
        "value": "t_struct(Data)13359_storage"
      },
      "t_mapping(t_uint256,t_struct(LifeDetail)12970_storage)": {
        "encoding": "mapping",
        "key": "t_uint256",
        "label": "mapping(uint256 => struct IRebornDefination.LifeDetail)",
        "numberOfBytes": "32",
        "value": "t_struct(LifeDetail)12970_storage"
      },
      "t_mapping(t_uint256,t_struct(Node)13599_storage)": {
        "encoding": "mapping",
        "key": "t_uint256",
        "label": "mapping(uint256 => struct RankingRedBlackTree.Node)",
        "numberOfBytes": "32",
        "value": "t_struct(Node)13599_storage"
      },
      "t_mapping(t_uint256,t_struct(Pool)8735_storage)": {
        "encoding": "mapping",
        "key": "t_uint256",
        "label": "mapping(uint256 => struct PortalLib.Pool)",
        "numberOfBytes": "32",
        "value": "t_struct(Pool)8735_storage"
      },
      "t_mapping(t_uint256,t_struct(Portfolio)8747_storage)": {
        "encoding": "mapping",
        "key": "t_uint256",
        "label": "mapping(uint256 => struct PortalLib.Portfolio)",
        "numberOfBytes": "32",
        "value": "t_struct(Portfolio)8747_storage"
      },
      "t_mapping(t_uint256,t_struct(RequestStatus)13019_storage)": {
        "encoding": "mapping",
        "key": "t_uint256",
        "label": "mapping(uint256 => struct IRebornDefination.RequestStatus)",
        "numberOfBytes": "32",
        "value": "t_struct(RequestStatus)13019_storage"
      },
      "t_mapping(t_uint256,t_struct(SeasonData)13002_storage)": {
        "encoding": "mapping",
        "key": "t_uint256",
        "label": "mapping(uint256 => struct IRebornDefination.SeasonData)",
        "numberOfBytes": "32",
        "value": "t_struct(SeasonData)13002_storage"
      },
      "t_mapping(t_uint256,t_uint256)": {
        "encoding": "mapping",
        "key": "t_uint256",
        "label": "mapping(uint256 => uint256)",
        "numberOfBytes": "32",
        "value": "t_uint256"
      },
      "t_string_storage": {
        "encoding": "bytes",
        "label": "string",
        "numberOfBytes": "32"
      },
      "t_struct(AirdropConf)8766_storage": {
        "encoding": "inplace",
        "label": "struct PortalLib.AirdropConf",
        "members": [
          {
            "astId": 8749,
            "contract": "src/RebornPortal.sol:RebornPortal",
            "label": "_dropOn",
            "offset": 0,
            "slot": "0",
            "type": "t_uint8"
          },
          {
            "astId": 8751,
            "contract": "src/RebornPortal.sol:RebornPortal",
            "label": "_rebornDropInterval",
            "offset": 1,
            "slot": "0",
            "type": "t_uint40"
          },
          {
            "astId": 8753,
            "contract": "src/RebornPortal.sol:RebornPortal",
            "label": "_nativeDropInterval",
            "offset": 6,
            "slot": "0",
            "type": "t_uint40"
          },
          {
            "astId": 8755,
            "contract": "src/RebornPortal.sol:RebornPortal",
            "label": "_rebornDropLastUpdate",
            "offset": 11,
            "slot": "0",
            "type": "t_uint40"
          },
          {
            "astId": 8757,
            "contract": "src/RebornPortal.sol:RebornPortal",
            "label": "_nativeDropLastUpdate",
            "offset": 16,
            "slot": "0",
            "type": "t_uint40"
          },
          {
            "astId": 8759,
            "contract": "src/RebornPortal.sol:RebornPortal",
            "label": "_nativeTopDropRatio",
            "offset": 21,
            "slot": "0",
            "type": "t_uint16"
          },
          {
            "astId": 8761,
            "contract": "src/RebornPortal.sol:RebornPortal",
            "label": "_nativeRaffleDropRatio",
            "offset": 23,
            "slot": "0",
            "type": "t_uint16"
          },
          {
            "astId": 8763,
            "contract": "src/RebornPortal.sol:RebornPortal",
            "label": "_rebornTopEthAmount",
            "offset": 25,
            "slot": "0",
            "type": "t_uint16"
          },
          {
            "astId": 8765,
            "contract": "src/RebornPortal.sol:RebornPortal",
            "label": "_rebornRaffleEthAmount",
            "offset": 27,
            "slot": "0",
            "type": "t_uint40"
          }
        ],
        "numberOfBytes": "32"
      },
      "t_struct(BitMap)5346_storage": {
        "encoding": "inplace",
        "label": "struct BitMapsUpgradeable.BitMap",
        "members": [
          {
            "astId": 5345,
            "contract": "src/RebornPortal.sol:RebornPortal",
            "label": "_data",
            "offset": 0,
            "slot": "0",
            "type": "t_mapping(t_uint256,t_uint256)"
          }
        ],
        "numberOfBytes": "32"
      },
      "t_struct(Data)13359_storage": {
        "encoding": "inplace",
        "label": "struct FastArray.Data",
        "members": [
          {
            "astId": 13352,
            "contract": "src/RebornPortal.sol:RebornPortal",
            "label": "array",
            "offset": 0,
            "slot": "0",
            "type": "t_mapping(t_uint256,t_uint256)"
          },
          {
            "astId": 13356,
            "contract": "src/RebornPortal.sol:RebornPortal",
            "label": "indexMap",
            "offset": 0,
            "slot": "1",
            "type": "t_mapping(t_uint256,t_uint256)"
          },
          {
            "astId": 13358,
            "contract": "src/RebornPortal.sol:RebornPortal",
            "label": "length",
            "offset": 0,
            "slot": "2",
            "type": "t_uint256"
          }
        ],
        "numberOfBytes": "96"
      },
      "t_struct(Data)16713_storage": {
        "encoding": "inplace",
        "label": "struct SingleRanking.Data",
        "members": [
          {
            "astId": 16705,
            "contract": "src/RebornPortal.sol:RebornPortal",
            "label": "tree",
            "offset": 0,
            "slot": "0",
            "type": "t_struct(Tree)13609_storage"
          },
          {
            "astId": 16710,
            "contract": "src/RebornPortal.sol:RebornPortal",
            "label": "keys",
            "offset": 0,
            "slot": "3",
            "type": "t_mapping(t_uint256,t_struct(Data)13359_storage)"
          },
          {
            "astId": 16712,
            "contract": "src/RebornPortal.sol:RebornPortal",
            "label": "length",
            "offset": 0,
            "slot": "4",
            "type": "t_uint256"
          }
        ],
        "numberOfBytes": "160"
      },
      "t_struct(LifeDetail)12970_storage": {
        "encoding": "inplace",
        "label": "struct IRebornDefination.LifeDetail",
        "members": [
          {
            "astId": 12953,
            "contract": "src/RebornPortal.sol:RebornPortal",
            "label": "seed",
            "offset": 0,
            "slot": "0",
            "type": "t_bytes32"
          },
          {
            "astId": 12955,
            "contract": "src/RebornPortal.sol:RebornPortal",
            "label": "creator",
            "offset": 0,
            "slot": "1",
            "type": "t_address"
          },
          {
            "astId": 12957,
            "contract": "src/RebornPortal.sol:RebornPortal",
            "label": "age",
            "offset": 20,
            "slot": "1",
            "type": "t_uint16"
          },
          {
            "astId": 12959,
            "contract": "src/RebornPortal.sol:RebornPortal",
            "label": "round",
            "offset": 22,
            "slot": "1",
            "type": "t_uint32"
          },
          {
            "astId": 12961,
            "contract": "src/RebornPortal.sol:RebornPortal",
            "label": "nothing",
            "offset": 26,
            "slot": "1",
            "type": "t_uint48"
          },
          {
            "astId": 12963,
            "contract": "src/RebornPortal.sol:RebornPortal",
            "label": "cost",
            "offset": 0,
            "slot": "2",
            "type": "t_uint128"
          },
          {
            "astId": 12965,
            "contract": "src/RebornPortal.sol:RebornPortal",
            "label": "reward",
            "offset": 16,
            "slot": "2",
            "type": "t_uint128"
          },
          {
            "astId": 12967,
            "contract": "src/RebornPortal.sol:RebornPortal",
            "label": "score",
            "offset": 0,
            "slot": "3",
            "type": "t_uint256"
          },
          {
            "astId": 12969,
            "contract": "src/RebornPortal.sol:RebornPortal",
            "label": "creatorName",
            "offset": 0,
            "slot": "4",
            "type": "t_string_storage"
          }
        ],
        "numberOfBytes": "160"
      },
      "t_struct(Node)13599_storage": {
        "encoding": "inplace",
        "label": "struct RankingRedBlackTree.Node",
        "members": [
          {
            "astId": 13586,
            "contract": "src/RebornPortal.sol:RebornPortal",
            "label": "id",
            "offset": 0,
            "slot": "0",
            "type": "t_uint256"
          },
          {
            "astId": 13588,
            "contract": "src/RebornPortal.sol:RebornPortal",
            "label": "value",
            "offset": 0,
            "slot": "1",
            "type": "t_uint256"
          },
          {
            "astId": 13590,
            "contract": "src/RebornPortal.sol:RebornPortal",
            "label": "count",
            "offset": 0,
            "slot": "2",
            "type": "t_uint256"
          },
          {
            "astId": 13592,
            "contract": "src/RebornPortal.sol:RebornPortal",
            "label": "parent",
            "offset": 0,
            "slot": "3",
            "type": "t_uint256"
          },
          {
            "astId": 13594,
            "contract": "src/RebornPortal.sol:RebornPortal",
            "label": "left",
            "offset": 0,
            "slot": "4",
            "type": "t_uint256"
          },
          {
            "astId": 13596,
            "contract": "src/RebornPortal.sol:RebornPortal",
            "label": "right",
            "offset": 0,
            "slot": "5",
            "type": "t_uint256"
          },
          {
            "astId": 13598,
            "contract": "src/RebornPortal.sol:RebornPortal",
            "label": "red",
            "offset": 0,
            "slot": "6",
            "type": "t_bool"
          }
        ],
        "numberOfBytes": "224"
      },
      "t_struct(Pool)8735_storage": {
        "encoding": "inplace",
        "label": "struct PortalLib.Pool",
        "members": [
          {
            "astId": 8726,
            "contract": "src/RebornPortal.sol:RebornPortal",
            "label": "totalAmount",
            "offset": 0,
            "slot": "0",
            "type": "t_uint256"
          },
          {
            "astId": 8728,
            "contract": "src/RebornPortal.sol:RebornPortal",
            "label": "accRebornPerShare",
            "offset": 0,
            "slot": "1",
            "type": "t_uint256"
          },
          {
            "astId": 8730,
            "contract": "src/RebornPortal.sol:RebornPortal",
            "label": "accNativePerShare",
            "offset": 0,
            "slot": "2",
            "type": "t_uint256"
          },
          {
            "astId": 8732,
            "contract": "src/RebornPortal.sol:RebornPortal",
            "label": "epoch",
            "offset": 0,
            "slot": "3",
            "type": "t_uint256"
          },
          {
            "astId": 8734,
            "contract": "src/RebornPortal.sol:RebornPortal",
            "label": "lastUpdated",
            "offset": 0,
            "slot": "4",
            "type": "t_uint256"
          }
        ],
        "numberOfBytes": "160"
      },
      "t_struct(Portfolio)8747_storage": {
        "encoding": "inplace",
        "label": "struct PortalLib.Portfolio",
        "members": [
          {
            "astId": 8737,
            "contract": "src/RebornPortal.sol:RebornPortal",
            "label": "accumulativeAmount",
            "offset": 0,
            "slot": "0",
            "type": "t_uint256"
          },
          {
            "astId": 8739,
            "contract": "src/RebornPortal.sol:RebornPortal",
            "label": "rebornRewardDebt",
            "offset": 0,
            "slot": "1",
            "type": "t_uint256"
          },
          {
            "astId": 8741,
            "contract": "src/RebornPortal.sol:RebornPortal",
            "label": "nativeRewardDebt",
            "offset": 0,
            "slot": "2",
            "type": "t_uint256"
          },
          {
            "astId": 8744,
            "contract": "src/RebornPortal.sol:RebornPortal",
            "label": "pendingOwnerRebornReward",
            "offset": 0,
            "slot": "3",
            "type": "t_uint256"
          },
          {
            "astId": 8746,
            "contract": "src/RebornPortal.sol:RebornPortal",
            "label": "pendingOwnerNativeReward",
            "offset": 0,
            "slot": "4",
            "type": "t_uint256"
          }
        ],
        "numberOfBytes": "160"
      },
      "t_struct(ReferrerRewardFees)8724_storage": {
        "encoding": "inplace",
        "label": "struct PortalLib.ReferrerRewardFees",
        "members": [
          {
            "astId": 8715,
            "contract": "src/RebornPortal.sol:RebornPortal",
            "label": "incarnateRef1Fee",
            "offset": 0,
            "slot": "0",
            "type": "t_uint16"
          },
          {
            "astId": 8717,
            "contract": "src/RebornPortal.sol:RebornPortal",
            "label": "incarnateRef2Fee",
            "offset": 2,
            "slot": "0",
            "type": "t_uint16"
          },
          {
            "astId": 8719,
            "contract": "src/RebornPortal.sol:RebornPortal",
            "label": "vaultRef1Fee",
            "offset": 4,
            "slot": "0",
            "type": "t_uint16"
          },
          {
            "astId": 8721,
            "contract": "src/RebornPortal.sol:RebornPortal",
            "label": "vaultRef2Fee",
            "offset": 6,
            "slot": "0",
            "type": "t_uint16"
          },
          {
            "astId": 8723,
            "contract": "src/RebornPortal.sol:RebornPortal",
            "label": "_slotPlaceholder",
            "offset": 8,
            "slot": "0",
            "type": "t_uint192"
          }
        ],
        "numberOfBytes": "32"
      },
      "t_struct(RequestStatus)13019_storage": {
        "encoding": "inplace",
        "label": "struct IRebornDefination.RequestStatus",
        "members": [
          {
            "astId": 13008,
            "contract": "src/RebornPortal.sol:RebornPortal",
            "label": "fulfilled",
            "offset": 0,
            "slot": "0",
            "type": "t_bool"
          },
          {
            "astId": 13010,
            "contract": "src/RebornPortal.sol:RebornPortal",
            "label": "exists",
            "offset": 1,
            "slot": "0",
            "type": "t_bool"
          },
          {
            "astId": 13012,
            "contract": "src/RebornPortal.sol:RebornPortal",
            "label": "executed",
            "offset": 2,
            "slot": "0",
            "type": "t_bool"
          },
          {
            "astId": 13015,
            "contract": "src/RebornPortal.sol:RebornPortal",
            "label": "t",
            "offset": 3,
            "slot": "0",
            "type": "t_enum(AirdropVrfType)13006"
          },
          {
            "astId": 13018,
            "contract": "src/RebornPortal.sol:RebornPortal",
            "label": "randomWords",
            "offset": 0,
            "slot": "1",
            "type": "t_array(t_uint256)dyn_storage"
          }
        ],
        "numberOfBytes": "64"
      },
      "t_struct(SeasonData)13002_storage": {
        "encoding": "inplace",
        "label": "struct IRebornDefination.SeasonData",
        "members": [
          {
            "astId": 12975,
            "contract": "src/RebornPortal.sol:RebornPortal",
            "label": "pools",
            "offset": 0,
            "slot": "0",
            "type": "t_mapping(t_uint256,t_struct(Pool)8735_storage)"
          },
          {
            "astId": 12983,
            "contract": "src/RebornPortal.sol:RebornPortal",
            "label": "portfolios",
            "offset": 0,
            "slot": "1",
            "type": "t_mapping(t_address,t_mapping(t_uint256,t_struct(Portfolio)8747_storage))"
          },
          {
            "astId": 12986,
            "contract": "src/RebornPortal.sol:RebornPortal",
            "label": "_tributeRank",
            "offset": 0,
            "slot": "2",
            "type": "t_struct(Data)16713_storage"
          },
          {
            "astId": 12989,
            "contract": "src/RebornPortal.sol:RebornPortal",
            "label": "_scoreRank",
            "offset": 0,
            "slot": "7",
            "type": "t_struct(Data)16713_storage"
          },
          {
            "astId": 12993,
            "contract": "src/RebornPortal.sol:RebornPortal",
            "label": "_oldStakeAmounts",
            "offset": 0,
            "slot": "12",
            "type": "t_mapping(t_uint256,t_uint256)"
          },
          {
            "astId": 12997,
            "contract": "src/RebornPortal.sol:RebornPortal",
            "label": "_isTopHundredScore",
            "offset": 0,
            "slot": "13",
            "type": "t_struct(BitMap)5346_storage"
          },
          {
            "astId": 12999,
            "contract": "src/RebornPortal.sol:RebornPortal",
            "label": "_minScore",
            "offset": 0,
            "slot": "14",
            "type": "t_uint256"
          },
          {
            "astId": 13001,
            "contract": "src/RebornPortal.sol:RebornPortal",
            "label": "_jackpot",
            "offset": 0,
            "slot": "15",
            "type": "t_uint256"
          }
        ],
        "numberOfBytes": "512"
      },
      "t_struct(Tree)13609_storage": {
        "encoding": "inplace",
        "label": "struct RankingRedBlackTree.Tree",
        "members": [
          {
            "astId": 13601,
            "contract": "src/RebornPortal.sol:RebornPortal",
            "label": "root",
            "offset": 0,
            "slot": "0",
            "type": "t_uint256"
          },
          {
            "astId": 13606,
            "contract": "src/RebornPortal.sol:RebornPortal",
            "label": "nodes",
            "offset": 0,
            "slot": "1",
            "type": "t_mapping(t_uint256,t_struct(Node)13599_storage)"
          },
          {
            "astId": 13608,
            "contract": "src/RebornPortal.sol:RebornPortal",
            "label": "counter",
            "offset": 0,
            "slot": "2",
            "type": "t_uint256"
          }
        ],
        "numberOfBytes": "96"
      },
      "t_struct(VrfConf)8777_storage": {
        "encoding": "inplace",
        "label": "struct PortalLib.VrfConf",
        "members": [
          {
            "astId": 8768,
            "contract": "src/RebornPortal.sol:RebornPortal",
            "label": "keyHash",
            "offset": 0,
            "slot": "0",
            "type": "t_bytes32"
          },
          {
            "astId": 8770,
            "contract": "src/RebornPortal.sol:RebornPortal",
            "label": "s_subscriptionId",
            "offset": 0,
            "slot": "1",
            "type": "t_uint64"
          },
          {
            "astId": 8772,
            "contract": "src/RebornPortal.sol:RebornPortal",
            "label": "callbackGasLimit",
            "offset": 8,
            "slot": "1",
            "type": "t_uint32"
          },
          {
            "astId": 8774,
            "contract": "src/RebornPortal.sol:RebornPortal",
            "label": "numWords",
            "offset": 12,
            "slot": "1",
            "type": "t_uint32"
          },
          {
            "astId": 8776,
            "contract": "src/RebornPortal.sol:RebornPortal",
            "label": "requestConfirmations",
            "offset": 16,
            "slot": "1",
            "type": "t_uint16"
          }
        ],
        "numberOfBytes": "64"
      },
      "t_uint128": {
        "encoding": "inplace",
        "label": "uint128",
        "numberOfBytes": "16"
      },
      "t_uint16": {
        "encoding": "inplace",
        "label": "uint16",
        "numberOfBytes": "2"
      },
      "t_uint192": {
        "encoding": "inplace",
        "label": "uint192",
        "numberOfBytes": "24"
      },
      "t_uint256": {
        "encoding": "inplace",
        "label": "uint256",
        "numberOfBytes": "32"
      },
      "t_uint32": {
        "encoding": "inplace",
        "label": "uint32",
        "numberOfBytes": "4"
      },
      "t_uint40": {
        "encoding": "inplace",
        "label": "uint40",
        "numberOfBytes": "5"
      },
      "t_uint48": {
        "encoding": "inplace",
        "label": "uint48",
        "numberOfBytes": "6"
      },
      "t_uint64": {
        "encoding": "inplace",
        "label": "uint64",
        "numberOfBytes": "8"
      },
      "t_uint8": {
        "encoding": "inplace",
        "label": "uint8",
        "numberOfBytes": "1"
      }
    }
  }
}