{
  "address": "0xBf0182e630a6357F09c3148c9C76BDa446733B1c",
  "abi": [
    {
      "inputs": [],
      "name": "ApproveFromNonZeroToNonZeroAllowance",
      "type": "error"
    },
    {
      "inputs": [],
      "name": "ApproveFromZeroAddress",
      "type": "error"
    },
    {
      "inputs": [],
      "name": "ApproveToCaller",
      "type": "error"
    },
    {
      "inputs": [],
      "name": "ApproveToCurrentOwner",
      "type": "error"
    },
    {
      "inputs": [],
      "name": "ApproveToZeroAddress",
      "type": "error"
    },
    {
      "inputs": [],
      "name": "BeaconImplementationIsNotContract",
      "type": "error"
    },
    {
      "inputs": [],
      "name": "BetaStoped",
      "type": "error"
    },
    {
      "inputs": [],
      "name": "BurnAmountExceedsBalance",
      "type": "error"
    },
    {
      "inputs": [],
      "name": "BurnFromZeroAddress",
      "type": "error"
    },
    {
      "inputs": [],
      "name": "CallerNotOwner",
      "type": "error"
    },
    {
      "inputs": [],
      "name": "CallerNotPendingOwner",
      "type": "error"
    },
    {
      "inputs": [],
      "name": "CallerNotTokenOwnerOrApproved",
      "type": "error"
    },
    {
      "inputs": [],
      "name": "ContractAlreadyInitialized",
      "type": "error"
    },
    {
      "inputs": [],
      "name": "ContractIsInitializing",
      "type": "error"
    },
    {
      "inputs": [],
      "name": "ContractIsNotInitializing",
      "type": "error"
    },
    {
      "inputs": [],
      "name": "DecreasedAllowanceBelowZero",
      "type": "error"
    },
    {
      "inputs": [],
      "name": "DelegateCallToNonContract",
      "type": "error"
    },
    {
      "inputs": [],
      "name": "DirectionError",
      "type": "error"
    },
    {
      "inputs": [],
      "name": "DropOff",
      "type": "error"
    },
    {
      "inputs": [],
      "name": "ERC20OperationDidNotSucceed",
      "type": "error"
    },
    {
      "inputs": [],
      "name": "IncarnationExceedLimit",
      "type": "error"
    },
    {
      "inputs": [],
      "name": "InsufficientAllowance",
      "type": "error"
    },
    {
      "inputs": [],
      "name": "InsufficientAmount",
      "type": "error"
    },
    {
      "inputs": [],
      "name": "InvalidParams",
      "type": "error"
    },
    {
      "inputs": [],
      "name": "InvalidSignature",
      "type": "error"
    },
    {
      "inputs": [],
      "name": "InvalidSignatureLength",
      "type": "error"
    },
    {
      "inputs": [],
      "name": "InvalidSignatureSValue",
      "type": "error"
    },
    {
      "inputs": [],
      "name": "InvalidTokenID",
      "type": "error"
    },
    {
      "inputs": [],
      "name": "MintToZeroAddress",
      "type": "error"
    },
    {
      "inputs": [],
      "name": "MustBeCalledThroughActiveProxy",
      "type": "error"
    },
    {
      "inputs": [],
      "name": "MustBeCalledThroughDelegatecall",
      "type": "error"
    },
    {
      "inputs": [],
      "name": "NewAdminIsZeroAddress",
      "type": "error"
    },
    {
      "inputs": [],
      "name": "NewBeaconIsNotContract",
      "type": "error"
    },
    {
      "inputs": [],
      "name": "NewImplementationIsNotContract",
      "type": "error"
    },
    {
      "inputs": [],
      "name": "NewImplementationIsNotUUPS",
      "type": "error"
    },
    {
      "inputs": [],
      "name": "NotSetBurnPoolAddress",
      "type": "error"
    },
    {
      "inputs": [],
      "name": "NotSigner",
      "type": "error"
    },
    {
      "inputs": [
        {
          "internalType": "address",
          "name": "have",
          "type": "address"
        },
        {
          "internalType": "address",
          "name": "want",
          "type": "address"
        }
      ],
      "name": "OnlyCoordinatorCanFulfill",
      "type": "error"
    },
    {
      "inputs": [],
      "name": "OnlySimulatedBackend",
      "type": "error"
    },
    {
      "inputs": [],
      "name": "PausableNotPaused",
      "type": "error"
    },
    {
      "inputs": [],
      "name": "PausablePaused",
      "type": "error"
    },
    {
      "inputs": [],
      "name": "PermitDidNotSucceed",
      "type": "error"
    },
    {
      "inputs": [],
      "name": "ReentrantCall",
      "type": "error"
    },
    {
      "inputs": [],
      "name": "SameSeed",
      "type": "error"
    },
    {
      "inputs": [],
      "name": "SignatureExpired",
      "type": "error"
    },
    {
      "inputs": [],
      "name": "TokenAlreadyMinted",
      "type": "error"
    },
    {
      "inputs": [],
      "name": "TransferAmountExceedsBalance",
      "type": "error"
    },
    {
      "inputs": [],
      "name": "TransferFromIncorrectOwner",
      "type": "error"
    },
    {
      "inputs": [],
      "name": "TransferFromZeroAddress",
      "type": "error"
    },
    {
      "inputs": [],
      "name": "TransferToNonERC721ReceiverImplementer",
      "type": "error"
    },
    {
      "inputs": [],
      "name": "TransferToZeroAddress",
      "type": "error"
    },
    {
      "inputs": [],
      "name": "UnsupportedProxiableUUID",
      "type": "error"
    },
    {
      "inputs": [],
      "name": "ZeroAddressCoordinatorSet",
      "type": "error"
    },
    {
      "inputs": [],
      "name": "ZeroAddressOwnerSet",
      "type": "error"
    },
    {
      "inputs": [],
      "name": "ZeroAddressSet",
      "type": "error"
    },
    {
      "inputs": [],
      "name": "ZeroOwnerSet",
      "type": "error"
    },
    {
      "anonymous": false,
      "inputs": [
        {
          "indexed": false,
          "internalType": "address",
          "name": "previousAdmin",
          "type": "address"
        },
        {
          "indexed": false,
          "internalType": "address",
          "name": "newAdmin",
          "type": "address"
        }
      ],
      "name": "AdminChanged",
      "type": "event"
    },
    {
      "anonymous": false,
      "inputs": [
        {
          "indexed": true,
          "internalType": "address",
          "name": "owner",
          "type": "address"
        },
        {
          "indexed": true,
          "internalType": "address",
          "name": "approved",
          "type": "address"
        },
        {
          "indexed": true,
          "internalType": "uint256",
          "name": "tokenId",
          "type": "uint256"
        }
      ],
      "name": "Approval",
      "type": "event"
    },
    {
      "anonymous": false,
      "inputs": [
        {
          "indexed": true,
          "internalType": "address",
          "name": "owner",
          "type": "address"
        },
        {
          "indexed": true,
          "internalType": "address",
          "name": "operator",
          "type": "address"
        },
        {
          "indexed": false,
          "internalType": "bool",
          "name": "approved",
          "type": "bool"
        }
      ],
      "name": "ApprovalForAll",
      "type": "event"
    },
    {
      "anonymous": false,
      "inputs": [
        {
          "indexed": true,
          "internalType": "address",
          "name": "user",
          "type": "address"
        },
        {
          "indexed": false,
          "internalType": "uint256",
          "name": "amount",
          "type": "uint256"
        }
      ],
      "name": "Baptise",
      "type": "event"
    },
    {
      "anonymous": false,
      "inputs": [
        {
          "indexed": true,
          "internalType": "address",
          "name": "beacon",
          "type": "address"
        }
      ],
      "name": "BeaconUpgraded",
      "type": "event"
    },
    {
      "anonymous": false,
      "inputs": [
        {
          "indexed": false,
          "internalType": "bool",
          "name": "",
          "type": "bool"
        }
      ],
      "name": "BetaStageSet",
      "type": "event"
    },
    {
      "anonymous": false,
      "inputs": [
        {
          "indexed": true,
          "internalType": "address",
          "name": "account",
          "type": "address"
        },
        {
          "indexed": false,
          "internalType": "uint256",
          "name": "tokenId",
          "type": "uint256"
        },
        {
          "indexed": false,
          "internalType": "uint256",
          "name": "amount",
          "type": "uint256"
        },
        {
          "indexed": false,
          "internalType": "enum IRebornDefination.TributeDirection",
          "name": "tributeDirection",
          "type": "uint8"
        }
      ],
      "name": "DecreaseFromPool",
      "type": "event"
    },
    {
      "anonymous": false,
      "inputs": [
        {
          "indexed": false,
          "internalType": "uint256[]",
          "name": "tokenIds",
          "type": "uint256[]"
        }
      ],
      "name": "Drop",
      "type": "event"
    },
    {
      "anonymous": false,
      "inputs": [
        {
          "indexed": true,
          "internalType": "address",
          "name": "user",
          "type": "address"
        },
        {
          "indexed": true,
          "internalType": "uint256",
          "name": "tokenId",
          "type": "uint256"
        },
        {
          "indexed": false,
          "internalType": "uint256",
          "name": "amount",
          "type": "uint256"
        }
      ],
      "name": "Dry",
      "type": "event"
    },
    {
      "anonymous": false,
      "inputs": [
        {
          "indexed": true,
          "internalType": "bytes32",
          "name": "seed",
          "type": "bytes32"
        },
        {
          "indexed": true,
          "internalType": "address",
          "name": "user",
          "type": "address"
        },
        {
          "indexed": true,
          "internalType": "uint256",
          "name": "tokenId",
          "type": "uint256"
        },
        {
          "indexed": false,
          "internalType": "uint256",
          "name": "score",
          "type": "uint256"
        },
        {
          "indexed": false,
          "internalType": "uint256",
          "name": "reward",
          "type": "uint256"
        }
      ],
      "name": "Engrave",
      "type": "event"
    },
    {
      "anonymous": false,
      "inputs": [
        {
          "indexed": false,
          "internalType": "uint256",
          "name": "newLevel",
          "type": "uint256"
        }
      ],
      "name": "ForgedTo",
      "type": "event"
    },
    {
      "anonymous": false,
      "inputs": [
        {
          "indexed": true,
          "internalType": "address",
          "name": "user",
          "type": "address"
        },
        {
          "indexed": true,
          "internalType": "uint256",
          "name": "charTokenId",
          "type": "uint256"
        },
        {
          "indexed": false,
          "internalType": "uint256",
          "name": "talentNativePrice",
          "type": "uint256"
        },
        {
          "indexed": false,
          "internalType": "uint256",
          "name": "talentRebornPrice",
          "type": "uint256"
        },
        {
          "indexed": false,
          "internalType": "uint256",
          "name": "propertyNativePrice",
          "type": "uint256"
        },
        {
          "indexed": false,
          "internalType": "uint256",
          "name": "propertyRebornPrice",
          "type": "uint256"
        },
        {
          "indexed": false,
          "internalType": "uint256",
          "name": "soupPrice",
          "type": "uint256"
        }
      ],
      "name": "Incarnate",
      "type": "event"
    },
    {
      "anonymous": false,
      "inputs": [
        {
          "indexed": true,
          "internalType": "address",
          "name": "account",
          "type": "address"
        },
        {
          "indexed": false,
          "internalType": "uint256",
          "name": "tokenId",
          "type": "uint256"
        },
        {
          "indexed": false,
          "internalType": "uint256",
          "name": "amount",
          "type": "uint256"
        },
        {
          "indexed": false,
          "internalType": "enum IRebornDefination.TributeDirection",
          "name": "tributeDirection",
          "type": "uint8"
        }
      ],
      "name": "IncreaseToPool",
      "type": "event"
    },
    {
      "anonymous": false,
      "inputs": [
        {
          "indexed": true,
          "internalType": "address",
          "name": "user",
          "type": "address"
        },
        {
          "indexed": true,
          "internalType": "uint256",
          "name": "tokenId",
          "type": "uint256"
        },
        {
          "indexed": false,
          "internalType": "uint256",
          "name": "amount",
          "type": "uint256"
        },
        {
          "indexed": false,
          "internalType": "enum IRebornDefination.TributeDirection",
          "name": "tributeDirection",
          "type": "uint8"
        }
      ],
      "name": "Infuse",
      "type": "event"
    },
    {
      "anonymous": false,
      "inputs": [
        {
          "indexed": false,
          "internalType": "uint8",
          "name": "version",
          "type": "uint8"
        }
      ],
      "name": "Initialized",
      "type": "event"
    },
    {
      "anonymous": false,
      "inputs": [
        {
          "indexed": false,
          "internalType": "uint256",
          "name": "extraReward",
          "type": "uint256"
        }
      ],
      "name": "NewExtraReward",
      "type": "event"
    },
    {
      "anonymous": false,
      "inputs": [
        {
          "indexed": false,
          "internalType": "uint256",
          "name": "limit",
          "type": "uint256"
        }
      ],
      "name": "NewIncarnationLimit",
      "type": "event"
    },
    {
      "anonymous": false,
      "inputs": [
        {
          "indexed": false,
          "internalType": "uint256",
          "name": "",
          "type": "uint256"
        }
      ],
      "name": "NewSeason",
      "type": "event"
    },
    {
      "anonymous": false,
      "inputs": [
        {
          "indexed": false,
          "internalType": "uint256",
          "name": "price",
          "type": "uint256"
        }
      ],
      "name": "NewSoupPrice",
      "type": "event"
    },
    {
      "anonymous": false,
      "inputs": [
        {
          "indexed": false,
          "internalType": "uint256",
          "name": "stopBetaBlockNumber",
          "type": "uint256"
        }
      ],
      "name": "NewStopBetaBlockNumberConfig",
      "type": "event"
    },
    {
      "anonymous": false,
      "inputs": [
        {
          "indexed": true,
          "internalType": "address",
          "name": "previousOwner",
          "type": "address"
        },
        {
          "indexed": true,
          "internalType": "address",
          "name": "newOwner",
          "type": "address"
        }
      ],
      "name": "OwnershipTransferred",
      "type": "event"
    },
    {
      "anonymous": false,
      "inputs": [
        {
          "indexed": false,
          "internalType": "address",
          "name": "account",
          "type": "address"
        }
      ],
      "name": "Paused",
      "type": "event"
    },
    {
      "anonymous": false,
      "inputs": [
        {
          "indexed": true,
          "internalType": "address",
          "name": "from",
          "type": "address"
        },
        {
          "indexed": true,
          "internalType": "address",
          "name": "to",
          "type": "address"
        },
        {
          "indexed": true,
          "internalType": "uint256",
          "name": "tokenId",
          "type": "uint256"
        }
      ],
      "name": "Transfer",
      "type": "event"
    },
    {
      "anonymous": false,
      "inputs": [
        {
          "indexed": false,
          "internalType": "address",
          "name": "account",
          "type": "address"
        }
      ],
      "name": "Unpaused",
      "type": "event"
    },
    {
      "anonymous": false,
      "inputs": [
        {
          "indexed": true,
          "internalType": "address",
          "name": "implementation",
          "type": "address"
        }
      ],
      "name": "Upgraded",
      "type": "event"
    },
    {
      "anonymous": false,
      "inputs": [
        {
          "indexed": false,
          "internalType": "address",
          "name": "rewardVault",
          "type": "address"
        }
      ],
      "name": "VaultSet",
      "type": "event"
    },
    {
      "inputs": [
        {
          "internalType": "uint256",
          "name": "tokenId",
          "type": "uint256"
        },
        {
          "internalType": "uint256",
          "name": "score",
          "type": "uint256"
        }
      ],
      "name": "antiCheat",
      "outputs": [],
      "stateMutability": "nonpayable",
      "type": "function"
    },
    {
      "inputs": [
        {
          "internalType": "address",
          "name": "to",
          "type": "address"
        },
        {
          "internalType": "uint256",
          "name": "tokenId",
          "type": "uint256"
        }
      ],
      "name": "approve",
      "outputs": [],
      "stateMutability": "nonpayable",
      "type": "function"
    },
    {
      "inputs": [
        {
          "internalType": "address",
          "name": "owner",
          "type": "address"
        }
      ],
      "name": "balanceOf",
      "outputs": [
        {
          "internalType": "uint256",
          "name": "",
          "type": "uint256"
        }
      ],
      "stateMutability": "view",
      "type": "function"
    },
    {
      "inputs": [
        {
          "internalType": "address",
          "name": "user",
          "type": "address"
        },
        {
          "internalType": "uint256",
          "name": "amount",
          "type": "uint256"
        }
      ],
      "name": "baptise",
      "outputs": [],
      "stateMutability": "nonpayable",
      "type": "function"
    },
    {
      "inputs": [
        {
          "internalType": "uint256",
          "name": "amount",
          "type": "uint256"
        }
      ],
      "name": "burnFromBurnPool",
      "outputs": [],
      "stateMutability": "nonpayable",
      "type": "function"
    },
    {
      "inputs": [],
      "name": "burnPool",
      "outputs": [
        {
          "internalType": "address",
          "name": "",
          "type": "address"
        }
      ],
      "stateMutability": "view",
      "type": "function"
    },
    {
      "inputs": [
        {
          "internalType": "address",
          "name": "account",
          "type": "address"
        },
        {
          "internalType": "uint256",
          "name": "amount",
          "type": "uint256"
        },
        {
          "internalType": "enum PortalLib.RewardType",
          "name": "rewardType",
          "type": "uint8"
        }
      ],
      "name": "calculateReferReward",
      "outputs": [
        {
          "internalType": "address",
          "name": "ref1",
          "type": "address"
        },
        {
          "internalType": "uint256",
          "name": "ref1Reward",
          "type": "uint256"
        },
        {
          "internalType": "address",
          "name": "ref2",
          "type": "address"
        },
        {
          "internalType": "uint256",
          "name": "ref2Reward",
          "type": "uint256"
        }
      ],
      "stateMutability": "view",
      "type": "function"
    },
    {
      "inputs": [
        {
          "internalType": "bytes",
          "name": "",
          "type": "bytes"
        }
      ],
      "name": "checkUpkeep",
      "outputs": [
        {
          "internalType": "bool",
          "name": "upkeepNeeded",
          "type": "bool"
        },
        {
          "internalType": "bytes",
          "name": "performData",
          "type": "bytes"
        }
      ],
      "stateMutability": "view",
      "type": "function"
    },
    {
      "inputs": [
        {
          "internalType": "uint256[]",
          "name": "tokenIds",
          "type": "uint256[]"
        }
      ],
      "name": "claimNativeDrops",
      "outputs": [],
      "stateMutability": "nonpayable",
      "type": "function"
    },
    {
      "inputs": [],
      "name": "claimOwnership",
      "outputs": [],
      "stateMutability": "nonpayable",
      "type": "function"
    },
    {
      "inputs": [
        {
          "internalType": "uint256[]",
          "name": "tokenIds",
          "type": "uint256[]"
        }
      ],
      "name": "claimRebornDrops",
      "outputs": [],
      "stateMutability": "nonpayable",
      "type": "function"
    },
    {
      "inputs": [
        {
          "internalType": "bytes32",
          "name": "seed",
          "type": "bytes32"
        },
        {
          "internalType": "address",
          "name": "user",
          "type": "address"
        },
        {
          "internalType": "uint256",
          "name": "reward",
          "type": "uint256"
        },
        {
          "internalType": "uint256",
          "name": "score",
          "type": "uint256"
        },
        {
          "internalType": "uint256",
          "name": "age",
          "type": "uint256"
        },
        {
          "internalType": "uint256",
          "name": "cost",
          "type": "uint256"
        },
        {
          "internalType": "string",
          "name": "creatorName",
          "type": "string"
        }
      ],
      "name": "engrave",
      "outputs": [],
      "stateMutability": "nonpayable",
      "type": "function"
    },
    {
      "inputs": [
        {
          "internalType": "uint256",
          "name": "tokenId",
          "type": "uint256"
        }
      ],
      "name": "forging",
      "outputs": [],
      "stateMutability": "nonpayable",
      "type": "function"
    },
    {
      "inputs": [
        {
          "internalType": "uint256",
          "name": "tokenId",
          "type": "uint256"
        },
        {
          "components": [
            {
              "internalType": "uint256",
              "name": "amount",
              "type": "uint256"
            },
            {
              "internalType": "uint256",
              "name": "deadline",
              "type": "uint256"
            },
            {
              "internalType": "bytes32",
              "name": "r",
              "type": "bytes32"
            },
            {
              "internalType": "bytes32",
              "name": "s",
              "type": "bytes32"
            },
            {
              "internalType": "uint8",
              "name": "v",
              "type": "uint8"
            }
          ],
          "internalType": "struct IRebornDefination.PermitParams",
          "name": "permitParams",
          "type": "tuple"
        }
      ],
      "name": "forging",
      "outputs": [],
      "stateMutability": "nonpayable",
      "type": "function"
    },
    {
      "inputs": [
        {
          "internalType": "uint256",
          "name": "tokenId",
          "type": "uint256"
        }
      ],
      "name": "getApproved",
      "outputs": [
        {
          "internalType": "address",
          "name": "",
          "type": "address"
        }
      ],
      "stateMutability": "view",
      "type": "function"
    },
    {
      "inputs": [
        {
          "internalType": "uint256",
          "name": "tokenId",
          "type": "uint256"
        },
        {
          "internalType": "address",
          "name": "account",
          "type": "address"
        }
      ],
      "name": "getCoinday",
      "outputs": [
        {
          "internalType": "uint256",
          "name": "userCoinday",
          "type": "uint256"
        },
        {
          "internalType": "uint256",
          "name": "poolCoinday",
          "type": "uint256"
        }
      ],
      "stateMutability": "view",
      "type": "function"
    },
    {
      "inputs": [],
      "name": "getDropConf",
      "outputs": [
        {
          "components": [
            {
              "internalType": "uint8",
              "name": "_dropOn",
              "type": "uint8"
            },
            {
              "internalType": "uint40",
              "name": "_rebornDropInterval",
              "type": "uint40"
            },
            {
              "internalType": "uint40",
              "name": "_nativeDropInterval",
              "type": "uint40"
            },
            {
              "internalType": "uint40",
              "name": "_rebornDropLastUpdate",
              "type": "uint40"
            },
            {
              "internalType": "uint40",
              "name": "_nativeDropLastUpdate",
              "type": "uint40"
            },
            {
              "internalType": "uint16",
              "name": "_nativeTopDropRatio",
              "type": "uint16"
            },
            {
              "internalType": "uint16",
              "name": "_nativeRaffleDropRatio",
              "type": "uint16"
            },
            {
              "internalType": "uint16",
              "name": "_rebornTopEthAmount",
              "type": "uint16"
            },
            {
              "internalType": "uint40",
              "name": "_rebornRaffleEthAmount",
              "type": "uint40"
            }
          ],
          "internalType": "struct PortalLib.AirdropConf",
          "name": "",
          "type": "tuple"
        }
      ],
      "stateMutability": "view",
      "type": "function"
    },
    {
      "inputs": [],
      "name": "getJackPot",
      "outputs": [
        {
          "internalType": "uint256",
          "name": "",
          "type": "uint256"
        }
      ],
      "stateMutability": "view",
      "type": "function"
    },
    {
      "inputs": [
        {
          "internalType": "uint256",
          "name": "tokenId",
          "type": "uint256"
        }
      ],
      "name": "getPool",
      "outputs": [
        {
          "components": [
            {
              "internalType": "uint256",
              "name": "totalAmount",
              "type": "uint256"
            },
            {
              "internalType": "uint256",
              "name": "accRebornPerShare",
              "type": "uint256"
            },
            {
              "internalType": "uint256",
              "name": "accNativePerShare",
              "type": "uint256"
            },
            {
              "internalType": "uint256",
              "name": "epoch",
              "type": "uint256"
            },
            {
              "internalType": "uint256",
              "name": "lastUpdated",
              "type": "uint256"
            },
            {
              "internalType": "uint256",
              "name": "coindayCumulant",
              "type": "uint256"
            },
            {
              "internalType": "uint256",
              "name": "coindayUpdateLastTime",
              "type": "uint256"
            },
            {
              "internalType": "uint256",
              "name": "totalForwardTribute",
              "type": "uint256"
            },
            {
              "internalType": "uint256",
              "name": "totalReverseTribute",
              "type": "uint256"
            }
          ],
          "internalType": "struct PortalLib.Pool",
          "name": "",
          "type": "tuple"
        }
      ],
      "stateMutability": "view",
      "type": "function"
    },
    {
      "inputs": [
        {
          "internalType": "address",
          "name": "user",
          "type": "address"
        },
        {
          "internalType": "uint256",
          "name": "tokenId",
          "type": "uint256"
        }
      ],
      "name": "getPortfolio",
      "outputs": [
        {
          "components": [
            {
              "internalType": "uint256",
              "name": "accumulativeAmount",
              "type": "uint256"
            },
            {
              "internalType": "uint256",
              "name": "rebornRewardDebt",
              "type": "uint256"
            },
            {
              "internalType": "uint256",
              "name": "nativeRewardDebt",
              "type": "uint256"
            },
            {
              "internalType": "uint256",
              "name": "pendingOwnerRebornReward",
              "type": "uint256"
            },
            {
              "internalType": "uint256",
              "name": "pendingOwnerNativeReward",
              "type": "uint256"
            },
            {
              "internalType": "uint256",
              "name": "coindayCumulant",
              "type": "uint256"
            },
            {
              "internalType": "uint256",
              "name": "coindayUpdateLastTime",
              "type": "uint256"
            },
            {
              "internalType": "uint256",
              "name": "totalForwardTribute",
              "type": "uint256"
            },
            {
              "internalType": "uint256",
              "name": "totalReverseTribute",
              "type": "uint256"
            }
          ],
          "internalType": "struct PortalLib.Portfolio",
          "name": "",
          "type": "tuple"
        }
      ],
      "stateMutability": "view",
      "type": "function"
    },
    {
      "inputs": [
        {
          "internalType": "address",
          "name": "account",
          "type": "address"
        }
      ],
      "name": "getReferrers",
      "outputs": [
        {
          "internalType": "address",
          "name": "referrer1",
          "type": "address"
        },
        {
          "internalType": "address",
          "name": "referrer2",
          "type": "address"
        }
      ],
      "stateMutability": "view",
      "type": "function"
    },
    {
      "inputs": [
        {
          "components": [
            {
              "internalType": "uint256",
              "name": "talentNativePrice",
              "type": "uint256"
            },
            {
              "internalType": "uint256",
              "name": "talentRebornPrice",
              "type": "uint256"
            },
            {
              "internalType": "uint256",
              "name": "propertyNativePrice",
              "type": "uint256"
            },
            {
              "internalType": "uint256",
              "name": "propertyRebornPrice",
              "type": "uint256"
            },
            {
              "internalType": "uint256",
              "name": "soupPrice",
              "type": "uint256"
            }
          ],
          "internalType": "struct IRebornDefination.InnateParams",
          "name": "innate",
          "type": "tuple"
        },
        {
          "internalType": "address",
          "name": "referrer",
          "type": "address"
        },
        {
          "components": [
            {
              "internalType": "uint256",
              "name": "charTokenId",
              "type": "uint256"
            },
            {
              "internalType": "uint256",
              "name": "deadline",
              "type": "uint256"
            },
            {
              "internalType": "bytes32",
              "name": "r",
              "type": "bytes32"
            },
            {
              "internalType": "bytes32",
              "name": "s",
              "type": "bytes32"
            },
            {
              "internalType": "uint8",
              "name": "v",
              "type": "uint8"
            }
          ],
          "internalType": "struct IRebornDefination.CharParams",
          "name": "charParams",
          "type": "tuple"
        }
      ],
      "name": "incarnate",
      "outputs": [],
      "stateMutability": "payable",
      "type": "function"
    },
    {
      "inputs": [
        {
          "components": [
            {
              "internalType": "uint256",
              "name": "talentNativePrice",
              "type": "uint256"
            },
            {
              "internalType": "uint256",
              "name": "talentRebornPrice",
              "type": "uint256"
            },
            {
              "internalType": "uint256",
              "name": "propertyNativePrice",
              "type": "uint256"
            },
            {
              "internalType": "uint256",
              "name": "propertyRebornPrice",
              "type": "uint256"
            },
            {
              "internalType": "uint256",
              "name": "soupPrice",
              "type": "uint256"
            }
          ],
          "internalType": "struct IRebornDefination.InnateParams",
          "name": "innate",
          "type": "tuple"
        },
        {
          "internalType": "address",
          "name": "referrer",
          "type": "address"
        },
        {
          "components": [
            {
              "internalType": "uint256",
              "name": "charTokenId",
              "type": "uint256"
            },
            {
              "internalType": "uint256",
              "name": "deadline",
              "type": "uint256"
            },
            {
              "internalType": "bytes32",
              "name": "r",
              "type": "bytes32"
            },
            {
              "internalType": "bytes32",
              "name": "s",
              "type": "bytes32"
            },
            {
              "internalType": "uint8",
              "name": "v",
              "type": "uint8"
            }
          ],
          "internalType": "struct IRebornDefination.CharParams",
          "name": "charParams",
          "type": "tuple"
        },
        {
          "components": [
            {
              "internalType": "uint256",
              "name": "amount",
              "type": "uint256"
            },
            {
              "internalType": "uint256",
              "name": "deadline",
              "type": "uint256"
            },
            {
              "internalType": "bytes32",
              "name": "r",
              "type": "bytes32"
            },
            {
              "internalType": "bytes32",
              "name": "s",
              "type": "bytes32"
            },
            {
              "internalType": "uint8",
              "name": "v",
              "type": "uint8"
            }
          ],
          "internalType": "struct IRebornDefination.PermitParams",
          "name": "permitParams",
          "type": "tuple"
        }
      ],
      "name": "incarnate",
      "outputs": [],
      "stateMutability": "payable",
      "type": "function"
    },
    {
      "inputs": [
        {
          "internalType": "uint256",
          "name": "tokenId",
          "type": "uint256"
        },
        {
          "internalType": "uint256",
          "name": "amount",
          "type": "uint256"
        },
        {
          "internalType": "enum IRebornDefination.TributeDirection",
          "name": "tributeDirection",
          "type": "uint8"
        }
      ],
      "name": "infuse",
      "outputs": [],
      "stateMutability": "nonpayable",
      "type": "function"
    },
    {
      "inputs": [
        {
          "internalType": "uint256",
          "name": "tokenId",
          "type": "uint256"
        },
        {
          "internalType": "uint256",
          "name": "amount",
          "type": "uint256"
        },
        {
          "internalType": "enum IRebornDefination.TributeDirection",
          "name": "tributeDirection",
          "type": "uint8"
        },
        {
          "internalType": "uint256",
          "name": "permitAmount",
          "type": "uint256"
        },
        {
          "internalType": "uint256",
          "name": "deadline",
          "type": "uint256"
        },
        {
          "internalType": "bytes32",
          "name": "r",
          "type": "bytes32"
        },
        {
          "internalType": "bytes32",
          "name": "s",
          "type": "bytes32"
        },
        {
          "internalType": "uint8",
          "name": "v",
          "type": "uint8"
        }
      ],
      "name": "infuse",
      "outputs": [],
      "stateMutability": "nonpayable",
      "type": "function"
    },
    {
      "inputs": [
        {
          "internalType": "contract RBT",
          "name": "rebornToken_",
          "type": "address"
        },
        {
          "internalType": "address",
          "name": "owner_",
          "type": "address"
        },
        {
          "internalType": "string",
          "name": "name_",
          "type": "string"
        },
        {
          "internalType": "string",
          "name": "symbol_",
          "type": "string"
        },
        {
          "internalType": "address",
          "name": "vrfCoordinator_",
          "type": "address"
        }
      ],
      "name": "initialize",
      "outputs": [],
      "stateMutability": "nonpayable",
      "type": "function"
    },
    {
      "inputs": [
        {
          "internalType": "address",
          "name": "owner",
          "type": "address"
        },
        {
          "internalType": "address",
          "name": "operator",
          "type": "address"
        }
      ],
      "name": "isApprovedForAll",
      "outputs": [
        {
          "internalType": "bool",
          "name": "",
          "type": "bool"
        }
      ],
      "stateMutability": "view",
      "type": "function"
    },
    {
      "inputs": [],
      "name": "name",
      "outputs": [
        {
          "internalType": "string",
          "name": "",
          "type": "string"
        }
      ],
      "stateMutability": "view",
      "type": "function"
    },
    {
      "inputs": [],
      "name": "owner",
      "outputs": [
        {
          "internalType": "address",
          "name": "",
          "type": "address"
        }
      ],
      "stateMutability": "view",
      "type": "function"
    },
    {
      "inputs": [
        {
          "internalType": "uint256",
          "name": "tokenId",
          "type": "uint256"
        }
      ],
      "name": "ownerOf",
      "outputs": [
        {
          "internalType": "address",
          "name": "",
          "type": "address"
        }
      ],
      "stateMutability": "view",
      "type": "function"
    },
    {
      "inputs": [],
      "name": "pause",
      "outputs": [],
      "stateMutability": "nonpayable",
      "type": "function"
    },
    {
      "inputs": [],
      "name": "paused",
      "outputs": [
        {
          "internalType": "bool",
          "name": "",
          "type": "bool"
        }
      ],
      "stateMutability": "view",
      "type": "function"
    },
    {
      "inputs": [
        {
          "internalType": "uint256[]",
          "name": "tokenIds",
          "type": "uint256[]"
        }
      ],
      "name": "pendingDrop",
      "outputs": [
        {
          "internalType": "uint256",
          "name": "pNative",
          "type": "uint256"
        },
        {
          "internalType": "uint256",
          "name": "pReborn",
          "type": "uint256"
        }
      ],
      "stateMutability": "view",
      "type": "function"
    },
    {
      "inputs": [],
      "name": "pendingOwner",
      "outputs": [
        {
          "internalType": "address",
          "name": "",
          "type": "address"
        }
      ],
      "stateMutability": "view",
      "type": "function"
    },
    {
      "inputs": [
        {
          "internalType": "bytes",
          "name": "performData",
          "type": "bytes"
        }
      ],
      "name": "performUpkeep",
      "outputs": [],
      "stateMutability": "nonpayable",
      "type": "function"
    },
    {
      "inputs": [],
      "name": "proxiableUUID",
      "outputs": [
        {
          "internalType": "bytes32",
          "name": "",
          "type": "bytes32"
        }
      ],
      "stateMutability": "view",
      "type": "function"
    },
    {
      "inputs": [
        {
          "internalType": "uint256",
          "name": "requestId",
          "type": "uint256"
        },
        {
          "internalType": "uint256[]",
          "name": "randomWords",
          "type": "uint256[]"
        }
      ],
      "name": "rawFulfillRandomWords",
      "outputs": [],
      "stateMutability": "nonpayable",
      "type": "function"
    },
    {
      "inputs": [
        {
          "internalType": "uint256",
          "name": "tokenId",
          "type": "uint256"
        }
      ],
      "name": "readCharProperty",
      "outputs": [
        {
          "components": [
            {
              "internalType": "uint8",
              "name": "currentAP",
              "type": "uint8"
            },
            {
              "internalType": "uint8",
              "name": "maxAP",
              "type": "uint8"
            },
            {
              "internalType": "uint40",
              "name": "restoreTimePerAP",
              "type": "uint40"
            },
            {
              "internalType": "uint40",
              "name": "lastTimeAPUpdate",
              "type": "uint40"
            },
            {
              "internalType": "uint8",
              "name": "level",
              "type": "uint8"
            }
          ],
          "internalType": "struct PortalLib.CharacterProperty",
          "name": "",
          "type": "tuple"
        }
      ],
      "stateMutability": "view",
      "type": "function"
    },
    {
      "inputs": [],
      "name": "rebornToken",
      "outputs": [
        {
          "internalType": "contract RBT",
          "name": "",
          "type": "address"
        }
      ],
      "stateMutability": "view",
      "type": "function"
    },
    {
      "inputs": [],
      "name": "renounceOwnership",
      "outputs": [],
      "stateMutability": "nonpayable",
      "type": "function"
    },
    {
      "inputs": [],
      "name": "rewardFees",
      "outputs": [
        {
          "internalType": "uint16",
          "name": "incarnateRef1Fee",
          "type": "uint16"
        },
        {
          "internalType": "uint16",
          "name": "incarnateRef2Fee",
          "type": "uint16"
        },
        {
          "internalType": "uint16",
          "name": "vaultRef1Fee",
          "type": "uint16"
        },
        {
          "internalType": "uint16",
          "name": "vaultRef2Fee",
          "type": "uint16"
        },
        {
          "internalType": "uint192",
          "name": "_slotPlaceholder",
          "type": "uint192"
        }
      ],
      "stateMutability": "view",
      "type": "function"
    },
    {
      "inputs": [
        {
          "internalType": "address",
          "name": "from",
          "type": "address"
        },
        {
          "internalType": "address",
          "name": "to",
          "type": "address"
        },
        {
          "internalType": "uint256",
          "name": "tokenId",
          "type": "uint256"
        }
      ],
      "name": "safeTransferFrom",
      "outputs": [],
      "stateMutability": "nonpayable",
      "type": "function"
    },
    {
      "inputs": [
        {
          "internalType": "address",
          "name": "from",
          "type": "address"
        },
        {
          "internalType": "address",
          "name": "to",
          "type": "address"
        },
        {
          "internalType": "uint256",
          "name": "tokenId",
          "type": "uint256"
        },
        {
          "internalType": "bytes",
          "name": "data",
          "type": "bytes"
        }
      ],
      "name": "safeTransferFrom",
      "outputs": [],
      "stateMutability": "nonpayable",
      "type": "function"
    },
    {
      "inputs": [
        {
          "internalType": "bytes32",
          "name": "seed",
          "type": "bytes32"
        }
      ],
      "name": "seedExists",
      "outputs": [
        {
          "internalType": "bool",
          "name": "",
          "type": "bool"
        }
      ],
      "stateMutability": "view",
      "type": "function"
    },
    {
      "inputs": [
        {
          "internalType": "address",
          "name": "operator",
          "type": "address"
        },
        {
          "internalType": "bool",
          "name": "approved",
          "type": "bool"
        }
      ],
      "name": "setApprovalForAll",
      "outputs": [],
      "stateMutability": "nonpayable",
      "type": "function"
    },
    {
      "inputs": [
        {
          "internalType": "uint256",
          "name": "stopBetaBlockNumber",
          "type": "uint256"
        }
      ],
      "name": "setBetaStopedBlockNumber",
      "outputs": [],
      "stateMutability": "nonpayable",
      "type": "function"
    },
    {
      "inputs": [
        {
          "internalType": "address",
          "name": "burnPool_",
          "type": "address"
        }
      ],
      "name": "setBurnPool",
      "outputs": [],
      "stateMutability": "nonpayable",
      "type": "function"
    },
    {
      "inputs": [
        {
          "internalType": "uint256[]",
          "name": "tokenIds",
          "type": "uint256[]"
        },
        {
          "components": [
            {
              "internalType": "uint256",
              "name": "maxAP",
              "type": "uint256"
            },
            {
              "internalType": "uint256",
              "name": "restoreTimePerAP",
              "type": "uint256"
            },
            {
              "internalType": "uint256",
              "name": "level",
              "type": "uint256"
            }
          ],
          "internalType": "struct PortalLib.CharacterParams[]",
          "name": "charParams",
          "type": "tuple[]"
        }
      ],
      "name": "setCharProperty",
      "outputs": [],
      "stateMutability": "nonpayable",
      "type": "function"
    },
    {
      "inputs": [
        {
          "components": [
            {
              "internalType": "uint8",
              "name": "_dropOn",
              "type": "uint8"
            },
            {
              "internalType": "uint40",
              "name": "_rebornDropInterval",
              "type": "uint40"
            },
            {
              "internalType": "uint40",
              "name": "_nativeDropInterval",
              "type": "uint40"
            },
            {
              "internalType": "uint40",
              "name": "_rebornDropLastUpdate",
              "type": "uint40"
            },
            {
              "internalType": "uint40",
              "name": "_nativeDropLastUpdate",
              "type": "uint40"
            },
            {
              "internalType": "uint16",
              "name": "_nativeTopDropRatio",
              "type": "uint16"
            },
            {
              "internalType": "uint16",
              "name": "_nativeRaffleDropRatio",
              "type": "uint16"
            },
            {
              "internalType": "uint16",
              "name": "_rebornTopEthAmount",
              "type": "uint16"
            },
            {
              "internalType": "uint40",
              "name": "_rebornRaffleEthAmount",
              "type": "uint40"
            }
          ],
          "internalType": "struct PortalLib.AirdropConf",
          "name": "conf",
          "type": "tuple"
        }
      ],
      "name": "setDropConf",
      "outputs": [],
      "stateMutability": "nonpayable",
      "type": "function"
    },
    {
      "inputs": [
        {
          "internalType": "uint256",
          "name": "extraReward",
          "type": "uint256"
        }
      ],
      "name": "setExtraReward",
      "outputs": [],
      "stateMutability": "nonpayable",
      "type": "function"
    },
    {
      "inputs": [
        {
          "internalType": "uint256[]",
          "name": "levels",
          "type": "uint256[]"
        },
        {
          "internalType": "uint256[]",
          "name": "amounts",
          "type": "uint256[]"
        }
      ],
      "name": "setForgingRequiredAmount",
      "outputs": [],
      "stateMutability": "nonpayable",
      "type": "function"
    },
    {
      "inputs": [
        {
          "internalType": "uint256",
          "name": "limit",
          "type": "uint256"
        }
      ],
      "name": "setIncarnationLimit",
      "outputs": [],
      "stateMutability": "nonpayable",
      "type": "function"
    },
    {
      "inputs": [
        {
          "internalType": "uint16",
          "name": "refL1Fee",
          "type": "uint16"
        },
        {
          "internalType": "uint16",
          "name": "refL2Fee",
          "type": "uint16"
        },
        {
          "internalType": "enum PortalLib.RewardType",
          "name": "rewardType",
          "type": "uint8"
        }
      ],
      "name": "setReferrerRewardFee",
      "outputs": [],
      "stateMutability": "nonpayable",
      "type": "function"
    },
    {
      "inputs": [
        {
          "internalType": "contract RewardVault",
          "name": "vault_",
          "type": "address"
        }
      ],
      "name": "setVault",
      "outputs": [],
      "stateMutability": "nonpayable",
      "type": "function"
    },
    {
      "inputs": [
        {
          "components": [
            {
              "internalType": "bytes32",
              "name": "keyHash",
              "type": "bytes32"
            },
            {
              "internalType": "uint64",
              "name": "s_subscriptionId",
              "type": "uint64"
            },
            {
              "internalType": "uint32",
              "name": "callbackGasLimit",
              "type": "uint32"
            },
            {
              "internalType": "uint32",
              "name": "numWords",
              "type": "uint32"
            },
            {
              "internalType": "uint16",
              "name": "requestConfirmations",
              "type": "uint16"
            }
          ],
          "internalType": "struct PortalLib.VrfConf",
          "name": "conf",
          "type": "tuple"
        }
      ],
      "name": "setVrfConf",
      "outputs": [],
      "stateMutability": "nonpayable",
      "type": "function"
    },
    {
      "inputs": [
        {
          "internalType": "address",
          "name": "",
          "type": "address"
        }
      ],
      "name": "signers",
      "outputs": [
        {
          "internalType": "bool",
          "name": "",
          "type": "bool"
        }
      ],
      "stateMutability": "view",
      "type": "function"
    },
    {
      "inputs": [
        {
          "internalType": "bytes4",
          "name": "interfaceId",
          "type": "bytes4"
        }
      ],
      "name": "supportsInterface",
      "outputs": [
        {
          "internalType": "bool",
          "name": "",
          "type": "bool"
        }
      ],
      "stateMutability": "view",
      "type": "function"
    },
    {
      "inputs": [
        {
          "internalType": "uint256",
          "name": "fromTokenId",
          "type": "uint256"
        },
        {
          "internalType": "uint256",
          "name": "toTokenId",
          "type": "uint256"
        },
        {
          "internalType": "uint256",
          "name": "amount",
          "type": "uint256"
        },
        {
          "internalType": "enum IRebornDefination.TributeDirection",
          "name": "tributeDirection",
          "type": "uint8"
        }
      ],
      "name": "switchPool",
      "outputs": [],
      "stateMutability": "nonpayable",
      "type": "function"
    },
    {
      "inputs": [],
      "name": "symbol",
      "outputs": [
        {
          "internalType": "string",
          "name": "",
          "type": "string"
        }
      ],
      "stateMutability": "view",
      "type": "function"
    },
    {
      "inputs": [],
      "name": "toNextSeason",
      "outputs": [],
      "stateMutability": "nonpayable",
      "type": "function"
    },
    {
      "inputs": [
        {
          "internalType": "uint256",
          "name": "tokenId",
          "type": "uint256"
        }
      ],
      "name": "tokenURI",
      "outputs": [
        {
          "internalType": "string",
          "name": "",
          "type": "string"
        }
      ],
      "stateMutability": "view",
      "type": "function"
    },
    {
      "inputs": [
        {
          "internalType": "address",
          "name": "from",
          "type": "address"
        },
        {
          "internalType": "address",
          "name": "to",
          "type": "address"
        },
        {
          "internalType": "uint256",
          "name": "tokenId",
          "type": "uint256"
        }
      ],
      "name": "transferFrom",
      "outputs": [],
      "stateMutability": "nonpayable",
      "type": "function"
    },
    {
      "inputs": [
        {
          "internalType": "address",
          "name": "newOwner",
          "type": "address"
        },
        {
          "internalType": "bool",
          "name": "direct",
          "type": "bool"
        }
      ],
      "name": "transferOwnership",
      "outputs": [],
      "stateMutability": "nonpayable",
      "type": "function"
    },
    {
      "inputs": [],
      "name": "unPause",
      "outputs": [],
      "stateMutability": "nonpayable",
      "type": "function"
    },
    {
      "inputs": [
        {
          "internalType": "address[]",
          "name": "toAdd",
          "type": "address[]"
        },
        {
          "internalType": "address[]",
          "name": "toRemove",
          "type": "address[]"
        }
      ],
      "name": "updateSigners",
      "outputs": [],
      "stateMutability": "nonpayable",
      "type": "function"
    },
    {
      "inputs": [
        {
          "internalType": "address",
          "name": "newImplementation",
          "type": "address"
        }
      ],
      "name": "upgradeTo",
      "outputs": [],
      "stateMutability": "nonpayable",
      "type": "function"
    },
    {
      "inputs": [
        {
          "internalType": "address",
          "name": "newImplementation",
          "type": "address"
        },
        {
          "internalType": "bytes",
          "name": "data",
          "type": "bytes"
        }
      ],
      "name": "upgradeToAndCall",
      "outputs": [],
      "stateMutability": "payable",
      "type": "function"
    },
    {
      "inputs": [],
      "name": "vault",
      "outputs": [
        {
          "internalType": "contract RewardVault",
          "name": "",
          "type": "address"
        }
      ],
      "stateMutability": "view",
      "type": "function"
    },
    {
      "inputs": [
        {
          "internalType": "address",
          "name": "to",
          "type": "address"
        },
        {
          "internalType": "uint256",
          "name": "amount",
          "type": "uint256"
        }
      ],
      "name": "withdrawNativeToken",
      "outputs": [],
      "stateMutability": "nonpayable",
      "type": "function"
    },
    {
      "inputs": [
        {
          "internalType": "address",
          "name": "to",
          "type": "address"
        }
      ],
      "name": "withdrawVault",
      "outputs": [],
      "stateMutability": "nonpayable",
      "type": "function"
    }
  ],
  "transactionHash": "0x9bb8b5b7dfed2eb6295b854f76b1c01fd5264ab8a645bd8b5a7d673b1789873a",
  "args": [],
  "numDeployments": 10,
  "solcInputHash": "2a380620a6654386f21a1d45e6162bb8",
  "bytecode": "0x60a0806040523461003257306080526158ce908162000038823960805181818161197a01528181611a2d015261298c0152f35b600080fdfe608080604052600436101561001357600080fd5b600090813560e01c90816301ffc9a714613c9557508063068bcd8d14613c5457806306fdde0314613bcd578063081812fc14613bae578063095ea7b314613adf5780630aaef80214613a355780630dd9be96146139c65780630e357a6e1461390b57806316a065c6146138e157806318bb9952146138ab5780631fe543e31461370e57806320dfe3c61461314257806323b872dd146131085780632bf8e8f6146130bb57806332eb808a14612f98578063350b236914612f09578063362925c214612ab55780633659cfe6146129675780633693075b1461283657806337cecbf2146124be57806339c17502146123b857806342842e0e1461236757806343f0e993146123185780634585e33b14611c605780634e71e0c814611bf65780634f1ef286146119ef5780634fab4038146119d257806352d1902d14611967578063536c6bfa1461190f57806358c7a063146118515780635c975abb1461182d578063603d0800146117d35780636352211e146117a257806368168ba5146116725780636817031b146116025780636e04ff0d146115a857806370a0823114611556578063715018a6146114f9578063736c0d5b146114b95780637507f18e1461141e57806376f7a9fc1461124d578063802e9cfa146111de57806380e3b45c146111935780638456cb59146111495780638d47a30d1461104e5780638da5cb5b146110255780639208b21e14610f7857806395d89b4114610eb15780639aab85e514610e415780639cad5fd914610d765780639d21504214610c88578063a089624214610c3a578063a22cb46514610bad578063a54b2a7314610b83578063afd5f74714610a9a578063b242e53414610a38578063b88d4fde146109e9578063c87b56dd146108fd578063dacc9852146107d9578063db640081146106e7578063df65845a14610698578063e30c39781461066f578063e4c86c94146104f2578063e985e9c51461049d578063f0f5095a1461044e578063f1bd4c0414610420578063f7b188a5146103c7578063fbd782351461039e578063fbfa77cf146103745763ff9c75431461032357600080fd5b34610371576020366003190112610371577f39feb9fafd10c5355c86cdccca7884a183c4dd524ca37b0761575ce0974cdb066020600435610362615749565b8061014555604051908152a180f35b80fd5b5034610371578060031936011261037157610138546040516001600160a01b039091168152602090f35b50346103715760203660031901126103715760206103bd600435615729565b6040519015158152f35b50346103715780600319360112610371576103e0615749565b6103e8615288565b6101c860ff1981541690557f5db9ee0a495bf2e6ff9c91a7834c1ba4fdd244a5e8aa4e537bd38aeae4b073aa6020604051338152a180f35b5034610371578060031936011261037157600f604060209261012f5481526101358452200154604051908152f35b5034610371576020366003190112610371577f600fd8b7202f5a03f5914d27e40874025dc4298891a01446843f84c5405ef854602060043561048e615749565b8061014655604051908152a180f35b5034610371576040366003190112610371576104b7613d4a565b60406104c1613d76565b9260018060a01b038093168152610169602052209116600052602052602060ff604060002054166040519015158152f35b50346103715761010036600319011261037157600435604435600281101561066b5760e4359160ff831683036106665761052a615269565b6105326152a7565b837383982B06070279A59A9DB60B9a15e0Ed09779f2861012f80548352610135806020526040842090833b156106435760405163dad02e6b60e01b815286600482015261013a9283602483015260448201528581606481885af490811561065b578691610647575b505060018060a01b036101385416925485526020526040842092803b1561064357849260849160405195869485936364abf4c560e11b85528a60048601526024850152604484015260648301525af4801561063857610620575b505061061461061d9360016101965560c43560a43560843560643561490e565b60243590614982565b80f35b61062990613d8c565b6106345783386105f4565b8380fd5b6040513d84823e3d90fd5b8480fd5b61065090613d8c565b61064357843861059a565b6040513d88823e3d90fd5b600080fd5b8280fd5b50346103715780600319360112610371576068546040516001600160a01b039091168152602090f35b5034610371576020366003190112610371576001600160a01b03806106bb613d4a565b168252610136602052604081818420541692838152205416906106e360405192839283614093565b0390f35b5034610371576020806003193601126107d557816004356001600160401b0381116107d5579161071c82933690600401613edb565b929091610727615269565b7383982B06070279A59A9DB60B9a15e0Ed09779f2892825b85811061074a578380f35b610755818784614337565b3561012f548552610135845260408520863b156107d1576040519163dad02e6b60e01b8352600483015261013a602483015260448201528481606481895af49081156107c65785916107b2575b50506107ad90614283565b61073f565b6107bb90613d8c565b6106345783886107a2565b6040513d87823e3d90fd5b8580fd5b5080fd5b5034610371576020806003193601126107d5578160806040516107fb81613dbb565b8281528284820152826040820152826060820152015260043582526101478152604082209060ff6040519261082f84613dbb565b548181168452818160081c168385015264ffffffffff808260101c1660408601528160381c16606085015260601c1660808301526040519063e51057f560e01b825261087e6004830184614056565b808260a4817383982B06070279A59A9DB60B9a15e0Ed09779f285af49384156108f157936108bf575b60a08360ff861681526108bd6040518092614056565bf35b90809350813d83116108ea575b6108d68183613e43565b810103126106665760ff60a09251926108a7565b503d6108cc565b604051903d90823e3d90fd5b5034610371576020806003193601126107d557604051632f8218bd60e21b815261013460048201526004356024820152828160448173F4415A0f02255B9dd5FfF6bE3F4E514F2E18DDfa5af49283156108f157809361096d575b50506106e3604051928284938452830190613d25565b909192503d8082843e6109808184613e43565b82019183818403126107d5578051906001600160401b03821161066b570182601f820112156107d5578051916109b583613fb7565b936109c36040519586613e43565b8385528584840101116103715750906109e191848085019101613d02565b903880610957565b503461037157608036600319011261037157610a03613d4a565b610a0b613d76565b606435916001600160401b03831161063457610a2e61061d933690600401614009565b9160443591615329565b503461037157610a4736614027565b90610a50615749565b6001600160a01b038116918215610a885715610a705761061d915061576f565b50606880546001600160a01b03191691909117905580f35b604051633aafecb360e21b8152600490fd5b5034610371578060031936011261037157610ab3615749565b61012f80546001810190818111610b6f57818355610acf615269565b6101c8600160ff198254161790556000805160206158798339815191526020604051338152a1835261013580602052600f604085200154918260041b9280840460101490151715610b5b576020927f3bf8992b1ca7018d446bcf1d45dc7a62e50decf5248434be4194aef15446338094926064928752845204600f60408620015554604051908152a180f35b634e487b7160e01b85526011600452602485fd5b634e487b7160e01b84526011600452602484fd5b503461037157806003193601126103715761013b546040516001600160a01b039091168152602090f35b503461037157610bbc36614027565b6001600160a01b0390911690338214610c2857338352610169602052604083208260005260205260406000209015159060ff1981541660ff83161790556040519081527f17307eab39ab6107e8899845ad3d59bd9653f200f220920489ca2b5937696c3160203392a380f35b60405163b06307db60e01b8152600490fd5b50346103715760403660031901126106665761061d600435610c5a615749565b8083526101346020526003604084200190815491602435905561012f548452610135602052604084206144fa565b50346103715760a036600319011261037157610ca2615749565b60043561013c8190556024356001600160401b0381169081900361066b5761013d918254916044359363ffffffff91828616908187036106665760643593841692838503610666576084359661ffff881695868903610666577f3510c45fb24ce728b56d5136c57163ff69e25ab31ac04a1264387c7acff6c41e998460a09a61ffff60801b9060801b169360018060901b031916179063ffffffff60401b9060401b16179063ffffffff60601b9060601b16171790556040519485526020850152604084015260608301526080820152a180f35b503461037157604036600319011261037157610d90613d76565b61012f548252610135602052604080832081516321dc13e160e21b815260048035908201526001600160a01b0390931660248401526044830152909190826064817383982B06070279A59A9DB60B9a15e0Ed09779f285af48015610e34576040928291610e05575b5082519182526020820152f35b9050610e279150823d8411610e2d575b610e1f8183613e43565b810190614642565b38610df8565b503d610e15565b50604051903d90823e3d90fd5b503461037157602036600319011261037157610e5b615749565b61013b5481906001600160a01b0316803b15610eae57818091602460405180948193630852cd8d60e31b835260043560048401525af1801561063857610e9e5750f35b610ea790613d8c565b6103715780f35b50fd5b5034610371578060031936011261037157604051816101658054610ed4816142b5565b80855291600191808316908115610f4d5750600114610f12575b6106e385610efe81890382613e43565b604051918291602083526020830190613d25565b835260208084209095505b828410610f3a57505050816106e393610efe928201019338610eee565b8054858501870152928501928101610f1d565b90506106e39650610efe9450602092508593915060ff191682840152151560051b8201019338610eee565b50346103715760603660031901126103715760043561ffff8082168092036106665760243590811680910361066657829160443591600283101561102057610fbe615749565b7383982B06070279A59A9DB60B9a15e0Ed09779f28803b156106435784926084916040519586948593631747e07760e01b855261013760048601526024850152604484015261100c816144da565b60648301525af4801561063857610e9e5750f35b505050fd5b50346103715780600319360112610371576067546040516001600160a01b039091168152602090f35b50346103715780602080600319360112610eae576004356001600160401b0381116111455761108283913690600401613edb565b91909261108d615269565b7383982B06070279A59A9DB60B9a15e0Ed09779f2892825b8181106110b0578380f35b6110bb818388614337565b6101385461012f548652610135855260408620913591906001600160a01b0316873b1561114157604051926364abf4c560e11b84526004840152602483015261013a604483015260648201528481608481895af49081156107c657859161112d575b505061112890614283565b6110a5565b61113690613d8c565b61063457838861111d565b8680fd5b5050fd5b5034610371578060031936011261037157611162615749565b61116a615269565b6101c8600160ff198254161790556000805160206158798339815191526020604051338152a180f35b50346103715760c03660031901126103715760a03660231901126103715760a43560ff81168103610666576111d39060843560643560443560243561490e565b61061d6004356143ed565b503461037157602036600319011261037157806111f9613d4a565b611201615288565b611209615749565b610138546001600160a01b039081169190823b1561102057602484928360405195869485936350e0278760e11b85521660048401525af1801561063857610e9e5750f35b50346103715761012036600319011261037157611268615749565b60043560ff811681036106665764ffffffffff60243516602435036106665764ffffffffff60443516604435036106665764ffffffffff60643516606435036106665764ffffffffff60843516608435036106665761ffff8060a4351660a43503610666578060c4351660c43503610666578060e4351660e435036106665764ffffffffff61010435166101043503610666577f75dab8e449fbbb96e7a6aba10424f40cd398bf158f0be1270be90389a3eeef7e916101209164ffffffffff60d81b6101043560d81b1660ff831665ffffffffff0060243560081b161764ffffffffff60301b60443560301b161764ffffffffff60581b60643560581b161764ffffffffff60801b60843560801b161761ffff60a81b60a43560a81b161761ffff60b81b60c43560b81b161761ffff60c81b60e43560c81b16171761013a5560ff6040519216825264ffffffffff60243516602083015264ffffffffff60443516604083015264ffffffffff60643516606083015264ffffffffff6084351660808301528060a4351660a08301528060c4351660c083015260e4351660e082015264ffffffffff6101043516610100820152a180f35b50366003190161020081126107d55760a0136103715761143c613d60565b60a03660c31901126107d55760a0366101631901126107d55761147690611461615169565b611469615269565b6114716152a7565b614c00565b6101e43560ff811681036106665761149d906101c4356101a435610184356101643561490e565b6114a56140ad565b6114b060c435614a30565b60016101965580f35b50346103715760203660031901126103715760209060ff906040906001600160a01b036114e4613d4a565b16815261013184522054166040519015158152f35b5034610371578060031936011261037157611512615749565b60006000805160206157d9833981519152819055606780546001600160a01b031981169091556001600160a01b03166000805160206158198339815191528280a380f35b5034610371576020366003190112610371576001600160a01b03611578613d4a565b16801561159657816040916020935261016783522054604051908152f35b604051636500287b60e11b8152600490fd5b5034610371576020366003190112610371576004356001600160401b0381116107d5576115d9903690600401613f55565b50506115e36146a5565b906106e360405192839215158352604060208401526040830190613d25565b5034610371576020366003190112610371576004356001600160a01b038116908190036107d55760207fe7ae49f883c825b05681b3e00e8be6fdea9ed2a8a45e4c6ecb9390fc44cce61591611655615749565b61013880546001600160a01b03191682179055604051908152a180f35b503461037157606036600319011261037157600435604435600281101561066b5761169b615269565b6116a36152a7565b827383982B06070279A59A9DB60B9a15e0Ed09779f2861012f80548352610135806020526040842090833b156106435760405163dad02e6b60e01b815287600482015261013a9283602483015260448201528581606481885af490811561065b57869161178e575b505060018060a01b036101385416925485526020526040842092803b1561064357849260849160405195869485936364abf4c560e11b85528b60048601526024850152604484015260648301525af480156106385761177a575b505061061d9160016101965560243590614982565b61178390613d8c565b61066b578238611765565b61179790613d8c565b61064357843861170b565b50346103715760203660031901126103715760206117c16004356152cb565b6040516001600160a01b039091168152f35b5034610371576020366003190112610371576117ed613d4a565b6117f5615749565b6001600160a01b0316801561181b5761013b80546001600160a01b031916909117905580f35b604051630ae8f22360e21b8152600490fd5b5034610371578060031936011261037157602060ff6101c854166040519015158152f35b50346103715760403660031901126103715761186b613d4a565b602435906118776151c6565b61187f615269565b610138546001600160a01b03919084908316803b156107d5578160405180926310b3879160e11b82528183816118b98b8a60048401614306565b03925af18015610638576118fb575b50507f7a0984e898d33e4bf6ad9f851bfab5517683d3dae5b57ed58fa8c7152d822e32916020916040519485521692a280f35b61190490613d8c565b6106345783386118c8565b5034610371576040366003190112610371578080808061192d613d4a565b60243590611939615288565b611941615749565b8290821561195d575b6001600160a01b031690f1156108f15780f35b6108fc915061194a565b50346103715780600319360112610371577f00000000000000000000000000000000000000000000000000000000000000006001600160a01b031630036119c05760206040516000805160206157f98339815191528152f35b60405163e437988b60e01b8152600490fd5b50346103715760203660031901126103715761061d6004356143ed565b50604036600319011261037157611a04613d4a565b6024356001600160401b03811161066b57611a23903690600401614009565b6001600160a01b037f000000000000000000000000000000000000000000000000000000000000000081169291903084146119c0576000805160206157f9833981519152938185541603611be457611a79615749565b6000805160206157b98339815191525460ff1615611a9d57505061061d91506151f2565b82919216604051936352d1902d60e01b85526020948581600481865afa60009181611bb5575b50611ada5760405163fec758a960e01b8152600490fd5b03611ba357611ae8826151f2565b60405190600080516020615839833981519152600080a2825115801590611b9b575b611b16575b5050505080f35b813b15611b8c5750600082819285611b829695519201905af4611b37615239565b907f416464726573733a206c6f772d6c6576656c2064656c65676174652063616c6c60405193611b6685613e0c565b60278552840152660819985a5b195960ca1b6040840152615611565b5038808080611b0f565b63a6c49bc960e01b8152600490fd5b506001611b0a565b6040516322b9fa5360e21b8152600490fd5b90918782813d8311611bdd575b611bcc8183613e43565b810103126103715750519038611ac3565b503d611bc2565b604051631008d79560e01b8152600490fd5b50346103715780600319360112610371576068546001600160a01b039081811633819003611c4e57806067549384166000805160206158198339815191528680a36001600160a01b0319928316176067551660685580f35b6040516305e05b4b60e31b8152600490fd5b5034610371576020366003190112610371576001600160401b0360043581811161066b57611c946040913690600401613f55565b90809291611ca0615269565b8101031261066657803560018103611daa5750506020611d4591611cc2615149565b611cd0610e1042064261435d565b61013a9081549064ffffffffff60581b9060581b169064ffffffffff60581b191617905560018060a01b036101fa541661013c54918561013d54604051968795869485936305d3b1d360e41b855263ffffffff92838260601c16938260401c169261ffff8360801c1692169060048701614e08565b03925af1908115610638578291611d78575b50815261013e60205260408120805463ff00ff001916630100010017905580f35b90506020813d602011611da2575b81611d9360209383613e43565b81010312610666575138611d57565b3d9150611d86565b60028103611eb05750506020611e4b91611dc2615149565b611dd0610e1042064261435d565b61013a805464ffffffffff60801b1916608092831b64ffffffffff60801b161790556101fa5461013c5461013d54604080516305d3b1d360e41b81529788966001600160a01b03959095169587958b9587959394606085901c63ffffffff908116959182901c169381901c61ffff1692169060048701614e08565b03925af1908115610638578291611e7e575b50815261013e60205260408120805463ff00ff001916630200010017905580f35b90506020813d602011611ea8575b81611e9960209383613e43565b81010312610666575138611e5d565b3d9150611e8c565b909150600381036120fe575090611ec5615149565b611ecd614d23565b91611ed6614da3565b61013a549361012f54845261013560205260408420907383982B06070279A59A9DB60B9a15e0Ed09779f283b1561064357611f3b9185916040519384928392632968920160e01b8452670de0b6b3a764000061ffff8c60c81c16029060048501614c5c565b03817383982B06070279A59A9DB60B9a15e0Ed09779f285af480156120f3579084916120df575b505060405190611f7182613e27565b600a8252610140366020840137602083810135855261013e905260408420805462ff000019166201000017815560010190845b600a81106120a857505050829361012f548452610135602052604084207383982B06070279A59A9DB60B9a15e0Ed09779f283b15610643576040516395661b4b60e01b81529285928492839261200b9260d81c670de0b6b3a7640000029060048501614c5c565b03817383982B06070279A59A9DB60B9a15e0Ed09779f285af490811561209d578391612089575b50507313850aef070D3D3f39B611dAfA36517F989f4D6f90813b1561114557602060448492604051948593849263f9ff0d8560e01b845261013f6004850152013560248301525af4801561063857610e9e57505080f35b61209290613d8c565b610eae578138612032565b6040513d85823e3d90fd5b806120c9605a6120bb6120da9487614c7e565b90549060031b1c0684614c96565b516120d48287614c96565b52614283565b611fa4565b6120e890613d8c565b61066b578238611f62565b6040513d86823e3d90fd5b600414612109575080f35b90612112615149565b61211a614d23565b91612123614da3565b9061013a549061012f918254855261013580602052612710600f604088200154928161ffff94858360a81c16020493600f60408a2001549160b81c16020493600f604088200197600a98898786010281540390557383982B06070279A59A9DB60B9a15e0Ed09779f2893825489526040892091853b15612314579089916121be604051948593849363e4e2c3d560e01b855260048501614c5c565b0381875af48015612309579088916122f5575b50506020604098969851946121e586613e27565b8786526101403683880137013580885261013e60205260408820805462ff000019166201000017815560010198909690885b8281106122d1575050508697505486526020526040852090803b156107d1576122599386936040519586948593849363ea94cb2f60e01b855260048501614c5c565b03915af490811561209d5783916122bd575b50507313850aef070D3D3f39B611dAfA36517F989f4D6f90813b1561114557829060446040518094819363f9ff0d8560e01b835261013f600484015260248301525af4801561063857610e9e57505080f35b6122c690613d8c565b610eae57813861226b565b806122e3605a6120bb6001948f614c7e565b516122ee828a614c96565b5201612217565b6122fe90613d8c565b6111415786386121d1565b6040513d8a823e3d90fd5b8980fd5b5034610371576020366003190112610371577f895ece2457e03622f6eab9f28377343eca29710870eb9636d6794049860e53fc6020600435612358615749565b8061014255604051908152a180f35b50346103715761237636613f82565b60405160208101939092906001600160401b038511848610176123a25761061d94604052858452615329565b634e487b7160e01b600052604160045260246000fd5b50346103715780600319360112610371576123d161509f565b506101206040516123e181613d9f565b64ffffffffff61010061013a549260ff84168152828460081c166020820152828460301c166040820152828460581c166060820152828460801c16608082015261ffff8460a81c1660a082015261ffff8460b81c1660c082015261ffff8460c81c1660e08201528360d81c8282015260ff6040519416845282602082015116602085015282604082015116604085015282606082015116606085015282608082015116608085015261ffff60a08201511660a085015261ffff60c08201511660c085015261ffff60e08201511660e0850152015116610100820152f35b50346103715760803660031901126103715760643560028110156107d5576124e4615269565b6124ec6152a7565b61012f908154835261013590602082815260408520927383982B06070279A59A9DB60B9a15e0Ed09779f2894853b1561114157866040519563dad02e6b60e01b978888526004359788600482015261013a9283602483015260448201528381606481855af49081156120f3578491612822575b50506101385484548452858752604084206001600160a01b039182169190833b156107d157604051906364abf4c560e11b938483528c6004840152602483015285604483015260648201528581608481875af490811561065b57869161280e575b50506001610196556125d06152a7565b85548552868852604085209a833b156107d1576040519081526024359b8c600483015285602483015260448201528581606481875af490811561065b5786916127fa575b5050610138541692855485528688526040852091833b156107d15785938c936084936040519788968795865260048601526024850152604484015260648301525af48015610638576127e0575b5050917fe27d3581f2f954f0767266ff4cfaee3c9f1f93908d0e116ffa69c9f1425db88c94605f9260649460016101965554895282527fa3f77db734c277d287820497fc8b450a9496d4e14a17d325277b4471d6b2aa9161277060408a20938a94336000526001810182526040600020858d52825260408c20915260408b20906126eb8282614e89565b604435956126fa87835461435d565b825561270787845461435d565b83556127138284614e5f565b6007820187600882549401938454808211600014612797575050905061273b915082546142a8565b90556008810161274c8682546142a8565b905561276161275b8c92614ec7565b85614eed565b60405191829186339684614e40565b0390a20204612780828286614f73565b612791604051928392339684614e40565b0390a280f35b9080929394969550106127b4575b50505061275b61276191614ec7565b6127c0929394506142a8565b9055600781016127d18682546142a8565b905560019061275b86386127a5565b6127ed9094929394613d8c565b6111415791908638612661565b61280390613d8c565b610643578438612614565b61281790613d8c565b6106435784386125c0565b61282b90613d8c565b61066b57823861255f565b5034610371576040366003190112610371576001600160401b03906004358281116107d557612869903690600401613edb565b9060243593808511610634573660238601121561063457846004013590811161063457606036602482840288010111610643576128a46151c6565b7383982B06070279A59A9DB60B9a15e0Ed09779f2892833b156107d15760405163afb3da2560e01b81526004810183905260648101869052946001600160fb1b0381116111415760249160a4916005999594991b8091608489013786018360848201608089840301858a01525201920195855b82811061293f5761014760448701528680878181808903818b5af4801561063857610e9e5750f35b8735845260208089013590850152604080890135908501529681019692810192600101612917565b5034610371576020806003193601126107d557612982613d4a565b6001600160a01b037f000000000000000000000000000000000000000000000000000000000000000081163081146119c0576000805160206157f9833981519152908282541603611be4576129d5615749565b604051916129e283613dd6565b8583526000805160206157b98339815191525460ff1615612a0a5750505061061d91506151f2565b83929316906040516352d1902d60e01b81528581600481865afa60009181612a86575b50612a445760405163fec758a960e01b8152600490fd5b03611ba357612a52826151f2565b60405190600080516020615839833981519152600080a2825115801590612a7e57611b16575050505080f35b506000611b0a565b90918782813d8311612aae575b612a9d8183613e43565b810103126103715750519038612a2d565b503d612a93565b50346103715760a0366003190112610371576001600160a01b036004358181169081900361066b57612ae5613d76565b916001600160401b03916044358381116107d157612b07903690600401614009565b9160643584811161114157612b20903690600401614009565b6084359182168092036106665786549060ff95868360081c161595868097612efd575b8015612ee7575b15612e8b5760019860ff1994888b878316178d55612e7a575b50861561181b5761013080546001600160a01b031990811690981790558a5460081c891615612cfc57612b959061576f565b878a5460081c1615612cfc578051828111612e665761016490808c612bba84546142b5565b94601f95868111612e38575b50602091868411600114612dcf5792612dc4575b5050600019600383901b1c1916908b1b1790555b8251918211612db0578190610165938b612c0886546142b5565b838111612d78575b50506020918311600114612d19578b92612d0e575b5050600019600383901b1c191690881b1790555b8654948560081c1615612cfc5785610196556101c89081541690558015612cea576101fa91825416179055604051612c7081613df1565b6005815283602082016420b63a30b960d91b81526020604051612c9281613df1565b8381520192603160f81b84525190209120908455600255612cb1578280f35b61ff00191682556040519081527f7f26b83ff96e1f2b6a682f133852f6798a09c465da95921460cefb384740249890602090a138808280f35b604051630cee34c560e11b8152600490fd5b6040516369be8d9360e11b8152600490fd5b015190503880612c25565b848c52818c208b94509190601f1984168d5b818110612d6057508411612d47575b505050811b019055612c39565b015160001960f88460031b161c19169055388080612d3a565b8284015185558d969094019360209384019301612d2b565b60208288612da09452208480870160051c82019260208810612da7575b0160051c01906142ef565b8b38612c10565b92508192612d95565b634e487b7160e01b8a52604160045260248afd5b015190503880612bda565b91908e9450601f198416868452828420935b818110612e1657508411612dfd575b505050811b019055612bee565b015160001960f88460031b161c19169055388080612df0565b93839596602092939491839286015181550195019301908f9594939291612de1565b612e6090868452602084208880870160051c82019260208810612da7570160051c01906142ef565b38612bc6565b634e487b7160e01b8b52604160045260248bfd5b61ffff1916610101178b5538612b63565b60405162461bcd60e51b815260206004820152602e60248201527f496e697469616c697a61626c653a20636f6e747261637420697320616c72656160448201526d191e481a5b9a5d1a585b1a5e995960921b6064820152608490fd5b50303b158015612b4a5750600188851614612b4a565b50600188851610612b43565b50346103715780612f1936613f0b565b92612f22615749565b7383982B06070279A59A9DB60B9a15e0Ed09779f2890813b156107d1578593612f87612f759460405197889687958695631bd4474f60e31b8752610131600488015260606024880152606487019161436a565b8481036003190160448601529161436a565b03915af4801561063857610e9e5750f35b503461037157606036600319011261037157612fb2613d4a565b60443590600282101561066b5761014254604051631b7fc0f360e11b815261013660048201526101376024808301919091526001600160a01b03938416604483015235606482015292613004816144da565b608484015260a483015260808260c4817383982B06070279A59A9DB60B9a15e0Ed09779f285af490811561209d578392848591869461305d575b5060809550826040519516855260208501521660408301526060820152f35b9350505091506080813d82116130b3575b8161307b60809383613e43565b8101031261066b57608092506130908161508b565b9160208201519260606130a56040850161508b565b93015190939290923861303e565b3d915061306e565b503461037157806003193601126103715760a0610137546040519061ffff8082168352808260101c166020840152808260201c1660408401528160301c16606083015260401c6080820152f35b50346103715761311736613f82565b906131228233615356565b156131305761061d926153e3565b6040516329572f6760e01b8152600490fd5b50346103715760e03660031901126103715761315c613d76565b60c4356001600160401b03811161066b5761317b903690600401613f55565b6131869291926151c6565b61318e615269565b613199600435615729565b6136fc5760043560081c845261013960205260408420600160ff600435161b81541790556101336131ca8154614283565b809155670de0b6b3a7640000908146029146830414461517156136e857906131f1916142a8565b6001600160a01b0383168552610132602052604085208054919491929063ffffffff808516146136d4579061329c929163ffffffff60018187160116809563ffffffff19161790556040519361324685613d9f565b60043585526001600160a01b038616602086015261ffff6084351660408601526060850152608084018790526001600160801b0360a435811660a08601526044351660c085015260643560e08501523691613fd2565b6101008201528284526101346020526101006004604086208351815560018060a01b0360208501511661ffff60a01b604086015160a01b1663ffffffff60b01b606087015160b01b169060018060d01b0319608088015160d01b169217171760018201556002810160018060801b0360a0860151168154908960018060801b031960c089015160801b1692161717905560e084015160038201550191015180519060018060401b0382116136c057819061335684546142b5565b601f8111613685575b50602090601f8311600114613621578792613616575b50508160011b916000199060031b1c19161790555b60405161339681613dd6565b8381526001600160a01b03821615613605576133b1836153c5565b6135f4576133be836153c5565b6135f4576001600160a01b0382168085526101676020908152604080872080546001019055858752610166909152852080546001600160a01b0319168217905561341f91908490866000805160206158598339815191528180a483836154a9565b156135e25761013880548491906001600160a01b0316803b1561066b578260405180926310b3879160e11b825281838161345f6044358b60048401614306565b03925af190811561209d5783916135ce575b505061012f548252610135602052604082207362258feE97a193C45B9bD607E8435Ff40870B218803b15610634576134c59184916040518080958194636ebb252160e11b83528b6064359160048501614321565b03915af490811561209d5783916135ba575b505054610142547383982B06070279A59A9DB60B9a15e0Ed09779f28916001600160a01b031690823b1561063457604051638ec4211160e01b8152610136600482015261013760248201526044808201939093526001600160a01b03861660648201529135608483015260a4820152908290829060c49082905af48015610638576135a6575b505060408051606435815260443560208201526001600160a01b0390921691600435917faf1bba31184b4d13e4f756b22fc2755d77b6ad147f10a7b12ea6afa58a2ca5f691a480f35b6135af90613d8c565b61066b57823861355d565b6135c390613d8c565b6107d55781386134d7565b6135d790613d8c565b6107d5578138613471565b6040516368d2bf6b60e11b8152600490fd5b60405162a5a1f560e01b8152600490fd5b604051622e076360e81b8152600490fd5b015190503880613375565b848852602088209250601f198416885b81811061366d5750908460019594939210613654575b505050811b01905561338a565b015160001960f88460031b161c19169055388080613647565b92936020600181928786015181550195019301613631565b6136b09085895260208920601f850160051c810191602086106136b6575b601f0160051c01906142ef565b3861335f565b90915081906136a3565b634e487b7160e01b86526041600452602486fd5b634e487b7160e01b87526011600452602487fd5b634e487b7160e01b86526011600452602486fd5b604051630490d63160e01b8152600490fd5b5034610371576040366003190112610371576004356001600160401b0360243581811161063457613743903690600401613e7d565b6101fa549091906001600160a01b031633819003613889575082845261013e9060209082825260ff6040872054161580613878575b613780578580f35b60019384604088200190805192831161386457600160401b8311613864578390825484845580851061384a575b500190875282872085885b84811061383857505050505083855252604083209060ff19825416179055817313850aef070D3D3f39B611dAfA36517F989f4D6f91823b156107d55760446040518094819363f715530760e01b835261013f600484015260248301525af4801561063857613829575b808080808580f35b61383290613d8c565b38613821565b858451940193818401550186906137b8565b838a52828a2061385e9181019086016142ef565b386137ad565b634e487b7160e01b88526041600452602488fd5b5060ff604087205460081c16613778565b60405163073e64fd60e21b81529081906138a7903360048401614093565b0390fd5b50366003190161016081126107d55760a013610371576138c9613d60565b60a03660c31901126107d55761149d90611461615169565b5034610371578060031936011261037157610130546040516001600160a01b039091168152602090f35b50346103715760403660031901126103715761396860406101209261392e613d4a565b61393661509f565b5061012f5482526101356020526001838320019060018060a01b031682526020528181206024358252602052206150e4565b6108bd6040518092805182526020810151602083015260408101516040830152606081015160608301526080810151608083015260a081015160a083015260c081015160c083015260e081015160e083015261010080910151910152565b5034610371576139d536613f0b565b6139e193929193615749565b808203613a2357845b8281106139f5578580f35b80613a036001928488614337565b35613a0f828688614337565b3588526101486020526040882055016139ea565b604051635435b28960e11b8152600490fd5b5034610371576020366003190112610371576004356001600160401b0381116107d557906040613a6c613aa2933690600401613e7d565b61012f5483526101356020528183208251948592839263b93cda1360e01b84526004840152606060248401526064830190614658565b61013a604483015203817383982B06070279A59A9DB60B9a15e0Ed09779f285af48015610e34576040928291610e05575082519182526020820152f35b503461037157604036600319011261037157613af9613d4a565b602435906001600160a01b038080613b10856152cb565b16921691808314613b9c57803314159081613b79575b50613130578284526101686020526040842080546001600160a01b03191683179055613b51836152cb565b167f8c5be1e5ebec7d5bd14f71427d1e84f3dd0314c0f7b2291e5b200ac8c7c3b9258480a480f35b905084526101696020526040842033855260205260ff6040852054161538613b26565b604051639196021d60e01b8152600490fd5b50346103715760203660031901126103715760206117c16004356152ff565b5034610371578060031936011261037157604051816101648054613bf0816142b5565b80855291600191808316908115610f4d5750600114613c19576106e385610efe81890382613e43565b835260208084209095505b828410613c4157505050816106e393610efe928201019338610eee565b8054858501870152928501928101613c24565b503461037157602036600319011261037157613968604061012092613c7761509f565b5061012f5481526101356020528181206004358252602052206150e4565b9050346107d55760203660031901126107d55760043563ffffffff60e01b811680910361066b57602092506380ac58cd60e01b8114908115613cf1575b8115613ce0575b5015158152f35b6301ffc9a760e01b14905038613cd9565b635b5e139f60e01b81149150613cd2565b60005b838110613d155750506000910152565b8181015183820152602001613d05565b90602091613d3e81518092818552858086019101613d02565b601f01601f1916010190565b600435906001600160a01b038216820361066657565b60a435906001600160a01b038216820361066657565b602435906001600160a01b038216820361066657565b6001600160401b0381116123a257604052565b61012081019081106001600160401b038211176123a257604052565b60a081019081106001600160401b038211176123a257604052565b602081019081106001600160401b038211176123a257604052565b604081019081106001600160401b038211176123a257604052565b606081019081106001600160401b038211176123a257604052565b61016081019081106001600160401b038211176123a257604052565b601f909101601f19168101906001600160401b038211908210176123a257604052565b6001600160401b0381116123a25760051b60200190565b81601f8201121561066657803591613e9483613e66565b92613ea26040519485613e43565b808452602092838086019260051b820101928311610666578301905b828210613ecc575050505090565b81358152908301908301613ebe565b9181601f84011215610666578235916001600160401b038311610666576020808501948460051b01011161066657565b6040600319820112610666576001600160401b03916004358381116106665782613f3791600401613edb565b9390939260243591821161066657613f5191600401613edb565b9091565b9181601f84011215610666578235916001600160401b038311610666576020838186019501011161066657565b6060906003190112610666576001600160a01b0390600435828116810361066657916024359081168103610666579060443590565b6001600160401b0381116123a257601f01601f191660200190565b929192613fde82613fb7565b91613fec6040519384613e43565b829481845281830111610666578281602093846000960137010152565b9080601f830112156106665781602061402493359101613fd2565b90565b6040906003190112610666576004356001600160a01b0381168103610666579060243580151581036106665790565b60ff6080809282815116855282602082015116602086015264ffffffffff8060408301511660408701526060820151166060860152015116910152565b6001600160a01b0391821681529116602082015260400190565b60c43580156142805760e4358042101561426e57604090815160208101917f2c22ad5976ec3eec588e31f767e3220b1f0b0979235058a6c2f5ae01e8b69efb8352338483015284606083015260808201526080815261410b81613dbb565b51902060015460025483519060208201927f8b73c3c69bb8fe3d512ecc4cf759cc79239f7b179b0ffacaa9a75d522b39400f84528583015260608201524660808201523060a082015260a0815260c081019160018060401b0391808410838511176123a25761014091848752815190209460e082019561190160f01b875260e2830152610102820152604284520190828210908211176123a2578352519020610144359060ff82168203610666576141d8916141d091610124359161010435916156b1565b919091615651565b6001600160a01b031660009081526101316020528181205460ff161561425d577383982B06070279A59A9DB60B9a15e0Ed09779f2892833b156107d55781906044845180968193632691a0af60e01b8352600483015261014760248301525af49182156142535750506142485750565b61425190613d8c565b565b51903d90823e3d90fd5b815163143606b960e31b8152600490fd5b604051630819bdcd60e01b8152600490fd5b50565b60001981146142925760010190565b634e487b7160e01b600052601160045260246000fd5b9190820180921161429257565b90600182811c921680156142e5575b60208310146142cf57565b634e487b7160e01b600052602260045260246000fd5b91607f16916142c4565b8181106142fa575050565b600081556001016142ef565b6001600160a01b039091168152602081019190915260400190565b6040919493926060820195825260208201520152565b91908110156143475760051b0190565b634e487b7160e01b600052603260045260246000fd5b9190820391821161429257565b9190808252602080920192916000805b83821061438957505050505090565b9091929394853560018060a01b03811680910361066b57815283019483019392916001019061437a565b90816020910312610666575180151581036106665790565b6001600160a01b03918216815291166020820152604081019190915260600190565b9060009182526020610147815260409260ff8482205460601c169081815261014883528481205480156144c95790836144509260018060a01b038061013054169061013b5416848a518097819582946323b872dd60e01b845233600485016143cb565b03925af19081156144be5750946001917fdfc1992bc86f884519616357f399708b93f5d607719f2b4cfe4c1f70844a2b5c9596614491575b505191018152a1565b6144b090853d87116144b7575b6144a88183613e43565b8101906143b3565b5038614488565b503d61449e565b8651903d90823e3d90fd5b8551635435b28960e11b8152600490fd5b600211156144e457565b634e487b7160e01b600052602160045260246000fd5b91600d8301918060081c93600160ff83161b906000918683528560205260409581878520541615978498614637577353D5ad3709dF44aD4576Fd3Ea073c16cff933d5194853b156103715788518181806145676327cdb4c160e21b9c8d83528c60078c0160048501614321565b03818a5af4801561462d57614619575b5050885260205285872090198154169055600c81019383875284602052858720546145a6575b50505050505050565b85872054833b15614615579287926002926145d187968a519788968795869586520160048501614321565b03915af4801561460b579085916145f7575b50526020528120553880808080808061459d565b61460090613d8c565b6106345783386145e3565b84513d87823e3d90fd5b8780fd5b61462591929a50613d8c565b973880614577565b8a513d84823e3d90fd5b505050505050505050565b9190826040910312610666576020825192015190565b90815180825260208080930193019160005b828110614678575050505090565b83518552938101939281019260010161466a565b91909164ffffffffff8080941691160191821161429257565b60009060009060609161013a546001908160ff8216146146c457505050565b64ffffffffff9592959491939490816146e7818360081c16828460581c1661468c565b1642111561471357505050506040519281602085015260408401526040835261470f83613e0c565b9190565b80828061472e9360309a969998979a1c169160801c1661468c565b1642116148ec577313850aef070D3D3f39B611dAfA36517F989f4D6f6040908151926305f739f960e21b845261013f8060048601526020948581602481875af49081156148e25783916148b5575b5061478957505050505050565b8395985060448597989495929395518096819363c9c3102d60e01b835260048301528560248301525af49283156148a957819361487a575b5082815261013e80865260ff8583205460181c1660038110156148665788036147fe57505050600382519384015281830152815261402481613e0c565b838298969594939852845260ff8382205460181c16906003821015614852575060021461482d575b5050509190565b9091929450600482519384015281830152815261484981613e0c565b91388080614826565b634e487b7160e01b81526021600452602490fd5b634e487b7160e01b83526021600452602483fd5b9092508481813d83116148a2575b6148928183613e43565b8101031261066b575191386147c1565b503d614888565b508351903d90823e3d90fd5b90508581813d83116148db575b6148cc8183613e43565b8101031261066b57513861477c565b503d6148c2565b85513d85823e3d90fd5b9350909150604051926002602085015260408401526040835261470f83613e0c565b610130546001600160a01b0316939192843b156106665760009460e493869260ff604051998a98899763d505accf60e01b89523360048a01523060248a01526044890152606488015216608486015260a485015260c48401525af18015614976576142485750565b6040513d6000823e3d90fd5b916149bb60208360018060a01b038061013054169061013b541660006040518096819582946323b872dd60e01b845233600485016143cb565b03925af1801561497657614a12575b506149d6818385614f73565b6040519182526149e5816144da565b60208201527f82e94ebf59ab1823045c86284257f1099d3757b9622dc0574bc166aecea2fe9860403392a3565b614a299060203d81116144b7576144a88183613e43565b50386149ca565b600435608435614a4082826142a8565b614a4d60443580926142a8565b6064359190602435614a5f84826142a8565b91803410614bee576000813414614be5575b600080808093853403903390f11561497657604092835191633039061160e01b83526101366004840152610137602484015233604484015281606484015260209283816084817383982B06070279A59A9DB60B9a15e0Ed09779f285af4908115614bda5790849291600091614ba8575b5090614b33939161012f546000526101358452600f88600020019103815401905560018060a01b038061013054169061013b5416600088518096819582946323b872dd60e01b845233600485016143cb565b03925af18015614b9d57614b80575b508251968752860152840152606083015260808201527fe03b78662d1cf3cc1f92436fdfbc1755c98708c68667440bd7865b839269b44760a03392a3565b614b9690823d84116144b7576144a88183613e43565b5038614b42565b84513d6000823e3d90fd5b919282813d8311614bd3575b614bbe8183613e43565b81010312610371575051839190614b33614ae1565b503d614bb4565b86513d6000823e3d90fd5b506108fc614a71565b604051632ca2f52b60e11b8152600490fd5b7383982B06070279A59A9DB60B9a15e0Ed09779f2890813b1561066657604051633880f0ab60e01b815261013660048201526001600160a01b03909116602482015290600090829060449082905af48015614976576142485750565b614c7460409295949395606083526060830190614658565b9460208201520152565b80548210156143475760005260206000200190600090565b80518210156143475760209160051b010190565b6020908181840312610666578051906001600160401b03821161066657019180601f84011215610666578251614cdf81613e66565b93614ced6040519586613e43565b818552838086019260051b820101928311610666578301905b828210614d14575050505090565b81518152908301908301614d06565b61012f5460009081526101356020526002604082200160405190634d63fffd60e01b82526004820152816024820152600a604482015281816064817353D5ad3709dF44aD4576Fd3Ea073c16cff933d515af49182156108f1578092614d8757505090565b61402492503d8091833e614d9b8183613e43565b810190614caa565b61012f5460009081526101356020526002604082200160405190634d63fffd60e01b82526004820152600a6024820152605a604482015281816064817353D5ad3709dF44aD4576Fd3Ea073c16cff933d515af49182156108f1578092614d8757505090565b9081526001600160401b03909116602082015261ffff909116604082015263ffffffff91821660608201529116608082015260a00190565b604091949392606082019582526020820152614e5b836144da565b0152565b600190600583015482678ac7230489e8000092836002820154840204600287015501540204910155565b906006820180549260056201518080958354904203020491019081540190554290556005600682019283544203835402049101908154019055429055565b60086007820154910154600091818111600014614ee857614024925061435d565b505090565b61012f54600090815261013560205260408120600c8101939192600d8201926002909201917362258feE97a193C45B9bD607E8435Ff40870B21891823b156107d157918594939160a49360405198899687956311b7263f60e21b8752600487015260248601526044850152606484015260848301525af49081156108f157506142485750565b909161012f5492600093845261013560205260408085209433815260018601602052818120858252602052818120956020522090614fb18286614e89565b808554018555808254018255614fc78583614e5f565b60078501906008825496019586548082119182615078575b8215615055575b50506150435761425195600185614fff615028976144da565b0361502e575061502190600784016150188282546142a8565b905582546142a8565b9055614ec7565b90614eed565b915061502190600884016150188282546142a8565b604051638f04435560e01b8152600490fd5b10905080615065575b3880614fe6565b5061506f846144da565b6001841461505e565b9150615083866144da565b851591614fdf565b51906001600160a01b038216820361066657565b604051906150ac82613d9f565b816101006000918281528260208201528260408201528260608201528260808201528260a08201528260c08201528260e08201520152565b906040516150f181613d9f565b610100600882948054845260018101546020850152600281015460408501526003810154606085015260048101546080850152600581015460a0850152600681015460c0850152600781015460e08501520154910152565b60ff61013a54161561515757565b60405163a397eb4760e01b8152600490fd5b60003381526101448060205260408220546101455411156151b45733825260205260408120805491600183018093116151a0575055565b634e487b7160e01b81526011600452602490fd5b60405163d92de14f60e01b8152600490fd5b3360005261013160205260ff60406000205416156151e057565b60405163143606b960e31b8152600490fd5b803b15615227576000805160206157f983398151915280546001600160a01b0319166001600160a01b03909216919091179055565b60405163145708c760e31b8152600490fd5b3d15615264573d9061524a82613fb7565b916152586040519384613e43565b82523d6000602084013e565b606090565b60ff6101c8541661527657565b60405163928dfa7760e01b8152600490fd5b60ff6101c854161561529657565b60405162c5619760e61b8152600490fd5b61019660028154146152b95760029055565b6040516306fda65d60e31b8152600490fd5b600090815261016660205260409020546001600160a01b031680156152ed5790565b604051636aa2a93760e01b8152600490fd5b615308816153c5565b156152ed57600090815261016860205260409020546001600160a01b031690565b9291906153368233615356565b15613130578361534a838361534f976153e3565b615596565b156135e257565b906001600160a01b03808061536a846152cb565b1693169183831493841561539d575b508315615387575b50505090565b615393919293506152ff565b1614388080615381565b90935060005261016960205260406000208260005260205260ff604060002054169238615379565b600090815261016660205260409020546001600160a01b0316151590565b6153ec836152cb565b6001600160a01b039291831691908316829003615486578216918215615497578190615417856152cb565b16036154865760008051602061585983398151915260008481526101686020526040812060018060a01b031990818154169055838252610167602052604082206000198154019055848252604082206001815401905585825261016660205284604083209182541617905580a4565b60405162a1148160e81b8152600490fd5b604051633a954ecd60e21b8152600490fd5b9091600091803b1561558d576154f46020918493604051948580948193630a85bd0160e11b9a8b84523360048501528460248501526044840152608060648401526084830190613d25565b03926001600160a01b03165af190829082615545575b505061553757615518615239565b80519081615532576040516368d2bf6b60e11b8152600490fd5b602001fd5b6001600160e01b0319161490565b909192506020813d8211615585575b8161556160209383613e43565b810103126107d55751906001600160e01b031982168203610371575090388061550a565b3d9150615554565b50505050600190565b91926000929190813b15615607576020916155ec9185604051958680958194630a85bd0160e11b9b8c845233600485015260018060a01b0380951660248501526044840152608060648401526084830190613d25565b0393165af19082908261554557505061553757615518615239565b5050505050600190565b9091901561561d575090565b81511561562d5750805190602001fd5b60405162461bcd60e51b8152602060048201529081906138a7906024830190613d25565b60058110156144e457806156625750565b6001810361567c57604051638baa579f60e01b8152600490fd5b6002810361569657604051634be6321b60e01b8152600490fd5b60031461569f57565b60405163185f3d1d60e21b8152600490fd5b9291906fa2a8918ca85bafe22016d0b997e4df60600160ff1b03831161571d5791608094939160ff602094604051948552168484015260408301526060820152600093849182805260015afa15610e345781516001600160a01b03811615615717579190565b50600190565b50505050600090600390565b60ff6001918060081c600052610139602052161b60406000205416151590565b6067546001600160a01b0316330361575d57565b604051632e6c18c960e11b8152600490fd5b6000805160206157d9833981519152819055606780546001600160a01b039283166001600160a01b031982168117909255909116600080516020615819833981519152600080a356fe4910fdfa16fed3260ed0e7147f7cc6da11a60208b5b9406d12a635614ffd9143b53127684a568b3173ae13b9f8a6016e243e63b6e8ee1178d6a717850b5d6103360894a13ba1a3210667c828492db98dca3e2076cc3735a920a3ca505d382bbc8be0079c531659141344cd1fd0a4f28419497f9722a3daafe3b4186f6b6457e0bc7cd75a20ee27fd9adebab32041f755214dbc6bffa90cc0225b39da2e5c2d3bddf252ad1be2c89b69c2b068fc378daa952ba7f163c4a11628f55a4df523b3ef62e78cea01bee320cd4e420270b5ea74000d11b0c9f74754ebdbfc544b05a258a2646970667358221220956aeead7f42cf3bcf742ebe160c2f4ff84dc48bf56e0b6826fa2e963b4c5e2b64736f6c63430008110033",
  "deployedBytecode": "0x608080604052600436101561001357600080fd5b600090813560e01c90816301ffc9a714613c9557508063068bcd8d14613c5457806306fdde0314613bcd578063081812fc14613bae578063095ea7b314613adf5780630aaef80214613a355780630dd9be96146139c65780630e357a6e1461390b57806316a065c6146138e157806318bb9952146138ab5780631fe543e31461370e57806320dfe3c61461314257806323b872dd146131085780632bf8e8f6146130bb57806332eb808a14612f98578063350b236914612f09578063362925c214612ab55780633659cfe6146129675780633693075b1461283657806337cecbf2146124be57806339c17502146123b857806342842e0e1461236757806343f0e993146123185780634585e33b14611c605780634e71e0c814611bf65780634f1ef286146119ef5780634fab4038146119d257806352d1902d14611967578063536c6bfa1461190f57806358c7a063146118515780635c975abb1461182d578063603d0800146117d35780636352211e146117a257806368168ba5146116725780636817031b146116025780636e04ff0d146115a857806370a0823114611556578063715018a6146114f9578063736c0d5b146114b95780637507f18e1461141e57806376f7a9fc1461124d578063802e9cfa146111de57806380e3b45c146111935780638456cb59146111495780638d47a30d1461104e5780638da5cb5b146110255780639208b21e14610f7857806395d89b4114610eb15780639aab85e514610e415780639cad5fd914610d765780639d21504214610c88578063a089624214610c3a578063a22cb46514610bad578063a54b2a7314610b83578063afd5f74714610a9a578063b242e53414610a38578063b88d4fde146109e9578063c87b56dd146108fd578063dacc9852146107d9578063db640081146106e7578063df65845a14610698578063e30c39781461066f578063e4c86c94146104f2578063e985e9c51461049d578063f0f5095a1461044e578063f1bd4c0414610420578063f7b188a5146103c7578063fbd782351461039e578063fbfa77cf146103745763ff9c75431461032357600080fd5b34610371576020366003190112610371577f39feb9fafd10c5355c86cdccca7884a183c4dd524ca37b0761575ce0974cdb066020600435610362615749565b8061014555604051908152a180f35b80fd5b5034610371578060031936011261037157610138546040516001600160a01b039091168152602090f35b50346103715760203660031901126103715760206103bd600435615729565b6040519015158152f35b50346103715780600319360112610371576103e0615749565b6103e8615288565b6101c860ff1981541690557f5db9ee0a495bf2e6ff9c91a7834c1ba4fdd244a5e8aa4e537bd38aeae4b073aa6020604051338152a180f35b5034610371578060031936011261037157600f604060209261012f5481526101358452200154604051908152f35b5034610371576020366003190112610371577f600fd8b7202f5a03f5914d27e40874025dc4298891a01446843f84c5405ef854602060043561048e615749565b8061014655604051908152a180f35b5034610371576040366003190112610371576104b7613d4a565b60406104c1613d76565b9260018060a01b038093168152610169602052209116600052602052602060ff604060002054166040519015158152f35b50346103715761010036600319011261037157600435604435600281101561066b5760e4359160ff831683036106665761052a615269565b6105326152a7565b8373__$bf3a140bdbff42a6137d0acc0952596ca5$__61012f80548352610135806020526040842090833b156106435760405163dad02e6b60e01b815286600482015261013a9283602483015260448201528581606481885af490811561065b578691610647575b505060018060a01b036101385416925485526020526040842092803b1561064357849260849160405195869485936364abf4c560e11b85528a60048601526024850152604484015260648301525af4801561063857610620575b505061061461061d9360016101965560c43560a43560843560643561490e565b60243590614982565b80f35b61062990613d8c565b6106345783386105f4565b8380fd5b6040513d84823e3d90fd5b8480fd5b61065090613d8c565b61064357843861059a565b6040513d88823e3d90fd5b600080fd5b8280fd5b50346103715780600319360112610371576068546040516001600160a01b039091168152602090f35b5034610371576020366003190112610371576001600160a01b03806106bb613d4a565b168252610136602052604081818420541692838152205416906106e360405192839283614093565b0390f35b5034610371576020806003193601126107d557816004356001600160401b0381116107d5579161071c82933690600401613edb565b929091610727615269565b73__$bf3a140bdbff42a6137d0acc0952596ca5$__92825b85811061074a578380f35b610755818784614337565b3561012f548552610135845260408520863b156107d1576040519163dad02e6b60e01b8352600483015261013a602483015260448201528481606481895af49081156107c65785916107b2575b50506107ad90614283565b61073f565b6107bb90613d8c565b6106345783886107a2565b6040513d87823e3d90fd5b8580fd5b5080fd5b5034610371576020806003193601126107d5578160806040516107fb81613dbb565b8281528284820152826040820152826060820152015260043582526101478152604082209060ff6040519261082f84613dbb565b548181168452818160081c168385015264ffffffffff808260101c1660408601528160381c16606085015260601c1660808301526040519063e51057f560e01b825261087e6004830184614056565b808260a48173__$bf3a140bdbff42a6137d0acc0952596ca5$__5af49384156108f157936108bf575b60a08360ff861681526108bd6040518092614056565bf35b90809350813d83116108ea575b6108d68183613e43565b810103126106665760ff60a09251926108a7565b503d6108cc565b604051903d90823e3d90fd5b5034610371576020806003193601126107d557604051632f8218bd60e21b815261013460048201526004356024820152828160448173__$0e7f1d138f6cc9ca9006918b4d39b2c532$__5af49283156108f157809361096d575b50506106e3604051928284938452830190613d25565b909192503d8082843e6109808184613e43565b82019183818403126107d5578051906001600160401b03821161066b570182601f820112156107d5578051916109b583613fb7565b936109c36040519586613e43565b8385528584840101116103715750906109e191848085019101613d02565b903880610957565b503461037157608036600319011261037157610a03613d4a565b610a0b613d76565b606435916001600160401b03831161063457610a2e61061d933690600401614009565b9160443591615329565b503461037157610a4736614027565b90610a50615749565b6001600160a01b038116918215610a885715610a705761061d915061576f565b50606880546001600160a01b03191691909117905580f35b604051633aafecb360e21b8152600490fd5b5034610371578060031936011261037157610ab3615749565b61012f80546001810190818111610b6f57818355610acf615269565b6101c8600160ff198254161790556000805160206158798339815191526020604051338152a1835261013580602052600f604085200154918260041b9280840460101490151715610b5b576020927f3bf8992b1ca7018d446bcf1d45dc7a62e50decf5248434be4194aef15446338094926064928752845204600f60408620015554604051908152a180f35b634e487b7160e01b85526011600452602485fd5b634e487b7160e01b84526011600452602484fd5b503461037157806003193601126103715761013b546040516001600160a01b039091168152602090f35b503461037157610bbc36614027565b6001600160a01b0390911690338214610c2857338352610169602052604083208260005260205260406000209015159060ff1981541660ff83161790556040519081527f17307eab39ab6107e8899845ad3d59bd9653f200f220920489ca2b5937696c3160203392a380f35b60405163b06307db60e01b8152600490fd5b50346103715760403660031901126106665761061d600435610c5a615749565b8083526101346020526003604084200190815491602435905561012f548452610135602052604084206144fa565b50346103715760a036600319011261037157610ca2615749565b60043561013c8190556024356001600160401b0381169081900361066b5761013d918254916044359363ffffffff91828616908187036106665760643593841692838503610666576084359661ffff881695868903610666577f3510c45fb24ce728b56d5136c57163ff69e25ab31ac04a1264387c7acff6c41e998460a09a61ffff60801b9060801b169360018060901b031916179063ffffffff60401b9060401b16179063ffffffff60601b9060601b16171790556040519485526020850152604084015260608301526080820152a180f35b503461037157604036600319011261037157610d90613d76565b61012f548252610135602052604080832081516321dc13e160e21b815260048035908201526001600160a01b03909316602484015260448301529091908260648173__$bf3a140bdbff42a6137d0acc0952596ca5$__5af48015610e34576040928291610e05575b5082519182526020820152f35b9050610e279150823d8411610e2d575b610e1f8183613e43565b810190614642565b38610df8565b503d610e15565b50604051903d90823e3d90fd5b503461037157602036600319011261037157610e5b615749565b61013b5481906001600160a01b0316803b15610eae57818091602460405180948193630852cd8d60e31b835260043560048401525af1801561063857610e9e5750f35b610ea790613d8c565b6103715780f35b50fd5b5034610371578060031936011261037157604051816101658054610ed4816142b5565b80855291600191808316908115610f4d5750600114610f12575b6106e385610efe81890382613e43565b604051918291602083526020830190613d25565b835260208084209095505b828410610f3a57505050816106e393610efe928201019338610eee565b8054858501870152928501928101610f1d565b90506106e39650610efe9450602092508593915060ff191682840152151560051b8201019338610eee565b50346103715760603660031901126103715760043561ffff8082168092036106665760243590811680910361066657829160443591600283101561102057610fbe615749565b73__$bf3a140bdbff42a6137d0acc0952596ca5$__803b156106435784926084916040519586948593631747e07760e01b855261013760048601526024850152604484015261100c816144da565b60648301525af4801561063857610e9e5750f35b505050fd5b50346103715780600319360112610371576067546040516001600160a01b039091168152602090f35b50346103715780602080600319360112610eae576004356001600160401b0381116111455761108283913690600401613edb565b91909261108d615269565b73__$bf3a140bdbff42a6137d0acc0952596ca5$__92825b8181106110b0578380f35b6110bb818388614337565b6101385461012f548652610135855260408620913591906001600160a01b0316873b1561114157604051926364abf4c560e11b84526004840152602483015261013a604483015260648201528481608481895af49081156107c657859161112d575b505061112890614283565b6110a5565b61113690613d8c565b61063457838861111d565b8680fd5b5050fd5b5034610371578060031936011261037157611162615749565b61116a615269565b6101c8600160ff198254161790556000805160206158798339815191526020604051338152a180f35b50346103715760c03660031901126103715760a03660231901126103715760a43560ff81168103610666576111d39060843560643560443560243561490e565b61061d6004356143ed565b503461037157602036600319011261037157806111f9613d4a565b611201615288565b611209615749565b610138546001600160a01b039081169190823b1561102057602484928360405195869485936350e0278760e11b85521660048401525af1801561063857610e9e5750f35b50346103715761012036600319011261037157611268615749565b60043560ff811681036106665764ffffffffff60243516602435036106665764ffffffffff60443516604435036106665764ffffffffff60643516606435036106665764ffffffffff60843516608435036106665761ffff8060a4351660a43503610666578060c4351660c43503610666578060e4351660e435036106665764ffffffffff61010435166101043503610666577f75dab8e449fbbb96e7a6aba10424f40cd398bf158f0be1270be90389a3eeef7e916101209164ffffffffff60d81b6101043560d81b1660ff831665ffffffffff0060243560081b161764ffffffffff60301b60443560301b161764ffffffffff60581b60643560581b161764ffffffffff60801b60843560801b161761ffff60a81b60a43560a81b161761ffff60b81b60c43560b81b161761ffff60c81b60e43560c81b16171761013a5560ff6040519216825264ffffffffff60243516602083015264ffffffffff60443516604083015264ffffffffff60643516606083015264ffffffffff6084351660808301528060a4351660a08301528060c4351660c083015260e4351660e082015264ffffffffff6101043516610100820152a180f35b50366003190161020081126107d55760a0136103715761143c613d60565b60a03660c31901126107d55760a0366101631901126107d55761147690611461615169565b611469615269565b6114716152a7565b614c00565b6101e43560ff811681036106665761149d906101c4356101a435610184356101643561490e565b6114a56140ad565b6114b060c435614a30565b60016101965580f35b50346103715760203660031901126103715760209060ff906040906001600160a01b036114e4613d4a565b16815261013184522054166040519015158152f35b5034610371578060031936011261037157611512615749565b60006000805160206157d9833981519152819055606780546001600160a01b031981169091556001600160a01b03166000805160206158198339815191528280a380f35b5034610371576020366003190112610371576001600160a01b03611578613d4a565b16801561159657816040916020935261016783522054604051908152f35b604051636500287b60e11b8152600490fd5b5034610371576020366003190112610371576004356001600160401b0381116107d5576115d9903690600401613f55565b50506115e36146a5565b906106e360405192839215158352604060208401526040830190613d25565b5034610371576020366003190112610371576004356001600160a01b038116908190036107d55760207fe7ae49f883c825b05681b3e00e8be6fdea9ed2a8a45e4c6ecb9390fc44cce61591611655615749565b61013880546001600160a01b03191682179055604051908152a180f35b503461037157606036600319011261037157600435604435600281101561066b5761169b615269565b6116a36152a7565b8273__$bf3a140bdbff42a6137d0acc0952596ca5$__61012f80548352610135806020526040842090833b156106435760405163dad02e6b60e01b815287600482015261013a9283602483015260448201528581606481885af490811561065b57869161178e575b505060018060a01b036101385416925485526020526040842092803b1561064357849260849160405195869485936364abf4c560e11b85528b60048601526024850152604484015260648301525af480156106385761177a575b505061061d9160016101965560243590614982565b61178390613d8c565b61066b578238611765565b61179790613d8c565b61064357843861170b565b50346103715760203660031901126103715760206117c16004356152cb565b6040516001600160a01b039091168152f35b5034610371576020366003190112610371576117ed613d4a565b6117f5615749565b6001600160a01b0316801561181b5761013b80546001600160a01b031916909117905580f35b604051630ae8f22360e21b8152600490fd5b5034610371578060031936011261037157602060ff6101c854166040519015158152f35b50346103715760403660031901126103715761186b613d4a565b602435906118776151c6565b61187f615269565b610138546001600160a01b03919084908316803b156107d5578160405180926310b3879160e11b82528183816118b98b8a60048401614306565b03925af18015610638576118fb575b50507f7a0984e898d33e4bf6ad9f851bfab5517683d3dae5b57ed58fa8c7152d822e32916020916040519485521692a280f35b61190490613d8c565b6106345783386118c8565b5034610371576040366003190112610371578080808061192d613d4a565b60243590611939615288565b611941615749565b8290821561195d575b6001600160a01b031690f1156108f15780f35b6108fc915061194a565b50346103715780600319360112610371577f00000000000000000000000000000000000000000000000000000000000000006001600160a01b031630036119c05760206040516000805160206157f98339815191528152f35b60405163e437988b60e01b8152600490fd5b50346103715760203660031901126103715761061d6004356143ed565b50604036600319011261037157611a04613d4a565b6024356001600160401b03811161066b57611a23903690600401614009565b6001600160a01b037f000000000000000000000000000000000000000000000000000000000000000081169291903084146119c0576000805160206157f9833981519152938185541603611be457611a79615749565b6000805160206157b98339815191525460ff1615611a9d57505061061d91506151f2565b82919216604051936352d1902d60e01b85526020948581600481865afa60009181611bb5575b50611ada5760405163fec758a960e01b8152600490fd5b03611ba357611ae8826151f2565b60405190600080516020615839833981519152600080a2825115801590611b9b575b611b16575b5050505080f35b813b15611b8c5750600082819285611b829695519201905af4611b37615239565b907f416464726573733a206c6f772d6c6576656c2064656c65676174652063616c6c60405193611b6685613e0c565b60278552840152660819985a5b195960ca1b6040840152615611565b5038808080611b0f565b63a6c49bc960e01b8152600490fd5b506001611b0a565b6040516322b9fa5360e21b8152600490fd5b90918782813d8311611bdd575b611bcc8183613e43565b810103126103715750519038611ac3565b503d611bc2565b604051631008d79560e01b8152600490fd5b50346103715780600319360112610371576068546001600160a01b039081811633819003611c4e57806067549384166000805160206158198339815191528680a36001600160a01b0319928316176067551660685580f35b6040516305e05b4b60e31b8152600490fd5b5034610371576020366003190112610371576001600160401b0360043581811161066b57611c946040913690600401613f55565b90809291611ca0615269565b8101031261066657803560018103611daa5750506020611d4591611cc2615149565b611cd0610e1042064261435d565b61013a9081549064ffffffffff60581b9060581b169064ffffffffff60581b191617905560018060a01b036101fa541661013c54918561013d54604051968795869485936305d3b1d360e41b855263ffffffff92838260601c16938260401c169261ffff8360801c1692169060048701614e08565b03925af1908115610638578291611d78575b50815261013e60205260408120805463ff00ff001916630100010017905580f35b90506020813d602011611da2575b81611d9360209383613e43565b81010312610666575138611d57565b3d9150611d86565b60028103611eb05750506020611e4b91611dc2615149565b611dd0610e1042064261435d565b61013a805464ffffffffff60801b1916608092831b64ffffffffff60801b161790556101fa5461013c5461013d54604080516305d3b1d360e41b81529788966001600160a01b03959095169587958b9587959394606085901c63ffffffff908116959182901c169381901c61ffff1692169060048701614e08565b03925af1908115610638578291611e7e575b50815261013e60205260408120805463ff00ff001916630200010017905580f35b90506020813d602011611ea8575b81611e9960209383613e43565b81010312610666575138611e5d565b3d9150611e8c565b909150600381036120fe575090611ec5615149565b611ecd614d23565b91611ed6614da3565b61013a549361012f548452610135602052604084209073__$bf3a140bdbff42a6137d0acc0952596ca5$__3b1561064357611f3b9185916040519384928392632968920160e01b8452670de0b6b3a764000061ffff8c60c81c16029060048501614c5c565b038173__$bf3a140bdbff42a6137d0acc0952596ca5$__5af480156120f3579084916120df575b505060405190611f7182613e27565b600a8252610140366020840137602083810135855261013e905260408420805462ff000019166201000017815560010190845b600a81106120a857505050829361012f5484526101356020526040842073__$bf3a140bdbff42a6137d0acc0952596ca5$__3b15610643576040516395661b4b60e01b81529285928492839261200b9260d81c670de0b6b3a7640000029060048501614c5c565b038173__$bf3a140bdbff42a6137d0acc0952596ca5$__5af490811561209d578391612089575b505073__$f445361e8b50888b0b8cee3fd4db50a783$__90813b1561114557602060448492604051948593849263f9ff0d8560e01b845261013f6004850152013560248301525af4801561063857610e9e57505080f35b61209290613d8c565b610eae578138612032565b6040513d85823e3d90fd5b806120c9605a6120bb6120da9487614c7e565b90549060031b1c0684614c96565b516120d48287614c96565b52614283565b611fa4565b6120e890613d8c565b61066b578238611f62565b6040513d86823e3d90fd5b600414612109575080f35b90612112615149565b61211a614d23565b91612123614da3565b9061013a549061012f918254855261013580602052612710600f604088200154928161ffff94858360a81c16020493600f60408a2001549160b81c16020493600f604088200197600a988987860102815403905573__$bf3a140bdbff42a6137d0acc0952596ca5$__93825489526040892091853b15612314579089916121be604051948593849363e4e2c3d560e01b855260048501614c5c565b0381875af48015612309579088916122f5575b50506020604098969851946121e586613e27565b8786526101403683880137013580885261013e60205260408820805462ff000019166201000017815560010198909690885b8281106122d1575050508697505486526020526040852090803b156107d1576122599386936040519586948593849363ea94cb2f60e01b855260048501614c5c565b03915af490811561209d5783916122bd575b505073__$f445361e8b50888b0b8cee3fd4db50a783$__90813b1561114557829060446040518094819363f9ff0d8560e01b835261013f600484015260248301525af4801561063857610e9e57505080f35b6122c690613d8c565b610eae57813861226b565b806122e3605a6120bb6001948f614c7e565b516122ee828a614c96565b5201612217565b6122fe90613d8c565b6111415786386121d1565b6040513d8a823e3d90fd5b8980fd5b5034610371576020366003190112610371577f895ece2457e03622f6eab9f28377343eca29710870eb9636d6794049860e53fc6020600435612358615749565b8061014255604051908152a180f35b50346103715761237636613f82565b60405160208101939092906001600160401b038511848610176123a25761061d94604052858452615329565b634e487b7160e01b600052604160045260246000fd5b50346103715780600319360112610371576123d161509f565b506101206040516123e181613d9f565b64ffffffffff61010061013a549260ff84168152828460081c166020820152828460301c166040820152828460581c166060820152828460801c16608082015261ffff8460a81c1660a082015261ffff8460b81c1660c082015261ffff8460c81c1660e08201528360d81c8282015260ff6040519416845282602082015116602085015282604082015116604085015282606082015116606085015282608082015116608085015261ffff60a08201511660a085015261ffff60c08201511660c085015261ffff60e08201511660e0850152015116610100820152f35b50346103715760803660031901126103715760643560028110156107d5576124e4615269565b6124ec6152a7565b61012f9081548352610135906020828152604085209273__$bf3a140bdbff42a6137d0acc0952596ca5$__94853b1561114157866040519563dad02e6b60e01b978888526004359788600482015261013a9283602483015260448201528381606481855af49081156120f3578491612822575b50506101385484548452858752604084206001600160a01b039182169190833b156107d157604051906364abf4c560e11b938483528c6004840152602483015285604483015260648201528581608481875af490811561065b57869161280e575b50506001610196556125d06152a7565b85548552868852604085209a833b156107d1576040519081526024359b8c600483015285602483015260448201528581606481875af490811561065b5786916127fa575b5050610138541692855485528688526040852091833b156107d15785938c936084936040519788968795865260048601526024850152604484015260648301525af48015610638576127e0575b5050917fe27d3581f2f954f0767266ff4cfaee3c9f1f93908d0e116ffa69c9f1425db88c94605f9260649460016101965554895282527fa3f77db734c277d287820497fc8b450a9496d4e14a17d325277b4471d6b2aa9161277060408a20938a94336000526001810182526040600020858d52825260408c20915260408b20906126eb8282614e89565b604435956126fa87835461435d565b825561270787845461435d565b83556127138284614e5f565b6007820187600882549401938454808211600014612797575050905061273b915082546142a8565b90556008810161274c8682546142a8565b905561276161275b8c92614ec7565b85614eed565b60405191829186339684614e40565b0390a20204612780828286614f73565b612791604051928392339684614e40565b0390a280f35b9080929394969550106127b4575b50505061275b61276191614ec7565b6127c0929394506142a8565b9055600781016127d18682546142a8565b905560019061275b86386127a5565b6127ed9094929394613d8c565b6111415791908638612661565b61280390613d8c565b610643578438612614565b61281790613d8c565b6106435784386125c0565b61282b90613d8c565b61066b57823861255f565b5034610371576040366003190112610371576001600160401b03906004358281116107d557612869903690600401613edb565b9060243593808511610634573660238601121561063457846004013590811161063457606036602482840288010111610643576128a46151c6565b73__$bf3a140bdbff42a6137d0acc0952596ca5$__92833b156107d15760405163afb3da2560e01b81526004810183905260648101869052946001600160fb1b0381116111415760249160a4916005999594991b8091608489013786018360848201608089840301858a01525201920195855b82811061293f5761014760448701528680878181808903818b5af4801561063857610e9e5750f35b8735845260208089013590850152604080890135908501529681019692810192600101612917565b5034610371576020806003193601126107d557612982613d4a565b6001600160a01b037f000000000000000000000000000000000000000000000000000000000000000081163081146119c0576000805160206157f9833981519152908282541603611be4576129d5615749565b604051916129e283613dd6565b8583526000805160206157b98339815191525460ff1615612a0a5750505061061d91506151f2565b83929316906040516352d1902d60e01b81528581600481865afa60009181612a86575b50612a445760405163fec758a960e01b8152600490fd5b03611ba357612a52826151f2565b60405190600080516020615839833981519152600080a2825115801590612a7e57611b16575050505080f35b506000611b0a565b90918782813d8311612aae575b612a9d8183613e43565b810103126103715750519038612a2d565b503d612a93565b50346103715760a0366003190112610371576001600160a01b036004358181169081900361066b57612ae5613d76565b916001600160401b03916044358381116107d157612b07903690600401614009565b9160643584811161114157612b20903690600401614009565b6084359182168092036106665786549060ff95868360081c161595868097612efd575b8015612ee7575b15612e8b5760019860ff1994888b878316178d55612e7a575b50861561181b5761013080546001600160a01b031990811690981790558a5460081c891615612cfc57612b959061576f565b878a5460081c1615612cfc578051828111612e665761016490808c612bba84546142b5565b94601f95868111612e38575b50602091868411600114612dcf5792612dc4575b5050600019600383901b1c1916908b1b1790555b8251918211612db0578190610165938b612c0886546142b5565b838111612d78575b50506020918311600114612d19578b92612d0e575b5050600019600383901b1c191690881b1790555b8654948560081c1615612cfc5785610196556101c89081541690558015612cea576101fa91825416179055604051612c7081613df1565b6005815283602082016420b63a30b960d91b81526020604051612c9281613df1565b8381520192603160f81b84525190209120908455600255612cb1578280f35b61ff00191682556040519081527f7f26b83ff96e1f2b6a682f133852f6798a09c465da95921460cefb384740249890602090a138808280f35b604051630cee34c560e11b8152600490fd5b6040516369be8d9360e11b8152600490fd5b015190503880612c25565b848c52818c208b94509190601f1984168d5b818110612d6057508411612d47575b505050811b019055612c39565b015160001960f88460031b161c19169055388080612d3a565b8284015185558d969094019360209384019301612d2b565b60208288612da09452208480870160051c82019260208810612da7575b0160051c01906142ef565b8b38612c10565b92508192612d95565b634e487b7160e01b8a52604160045260248afd5b015190503880612bda565b91908e9450601f198416868452828420935b818110612e1657508411612dfd575b505050811b019055612bee565b015160001960f88460031b161c19169055388080612df0565b93839596602092939491839286015181550195019301908f9594939291612de1565b612e6090868452602084208880870160051c82019260208810612da7570160051c01906142ef565b38612bc6565b634e487b7160e01b8b52604160045260248bfd5b61ffff1916610101178b5538612b63565b60405162461bcd60e51b815260206004820152602e60248201527f496e697469616c697a61626c653a20636f6e747261637420697320616c72656160448201526d191e481a5b9a5d1a585b1a5e995960921b6064820152608490fd5b50303b158015612b4a5750600188851614612b4a565b50600188851610612b43565b50346103715780612f1936613f0b565b92612f22615749565b73__$bf3a140bdbff42a6137d0acc0952596ca5$__90813b156107d1578593612f87612f759460405197889687958695631bd4474f60e31b8752610131600488015260606024880152606487019161436a565b8481036003190160448601529161436a565b03915af4801561063857610e9e5750f35b503461037157606036600319011261037157612fb2613d4a565b60443590600282101561066b5761014254604051631b7fc0f360e11b815261013660048201526101376024808301919091526001600160a01b03938416604483015235606482015292613004816144da565b608484015260a483015260808260c48173__$bf3a140bdbff42a6137d0acc0952596ca5$__5af490811561209d578392848591869461305d575b5060809550826040519516855260208501521660408301526060820152f35b9350505091506080813d82116130b3575b8161307b60809383613e43565b8101031261066b57608092506130908161508b565b9160208201519260606130a56040850161508b565b93015190939290923861303e565b3d915061306e565b503461037157806003193601126103715760a0610137546040519061ffff8082168352808260101c166020840152808260201c1660408401528160301c16606083015260401c6080820152f35b50346103715761311736613f82565b906131228233615356565b156131305761061d926153e3565b6040516329572f6760e01b8152600490fd5b50346103715760e03660031901126103715761315c613d76565b60c4356001600160401b03811161066b5761317b903690600401613f55565b6131869291926151c6565b61318e615269565b613199600435615729565b6136fc5760043560081c845261013960205260408420600160ff600435161b81541790556101336131ca8154614283565b809155670de0b6b3a7640000908146029146830414461517156136e857906131f1916142a8565b6001600160a01b0383168552610132602052604085208054919491929063ffffffff808516146136d4579061329c929163ffffffff60018187160116809563ffffffff19161790556040519361324685613d9f565b60043585526001600160a01b038616602086015261ffff6084351660408601526060850152608084018790526001600160801b0360a435811660a08601526044351660c085015260643560e08501523691613fd2565b6101008201528284526101346020526101006004604086208351815560018060a01b0360208501511661ffff60a01b604086015160a01b1663ffffffff60b01b606087015160b01b169060018060d01b0319608088015160d01b169217171760018201556002810160018060801b0360a0860151168154908960018060801b031960c089015160801b1692161717905560e084015160038201550191015180519060018060401b0382116136c057819061335684546142b5565b601f8111613685575b50602090601f8311600114613621578792613616575b50508160011b916000199060031b1c19161790555b60405161339681613dd6565b8381526001600160a01b03821615613605576133b1836153c5565b6135f4576133be836153c5565b6135f4576001600160a01b0382168085526101676020908152604080872080546001019055858752610166909152852080546001600160a01b0319168217905561341f91908490866000805160206158598339815191528180a483836154a9565b156135e25761013880548491906001600160a01b0316803b1561066b578260405180926310b3879160e11b825281838161345f6044358b60048401614306565b03925af190811561209d5783916135ce575b505061012f5482526101356020526040822073__$b6aef517fe05d85bc7364998255804b986$__803b15610634576134c59184916040518080958194636ebb252160e11b83528b6064359160048501614321565b03915af490811561209d5783916135ba575b5050546101425473__$bf3a140bdbff42a6137d0acc0952596ca5$__916001600160a01b031690823b1561063457604051638ec4211160e01b8152610136600482015261013760248201526044808201939093526001600160a01b03861660648201529135608483015260a4820152908290829060c49082905af48015610638576135a6575b505060408051606435815260443560208201526001600160a01b0390921691600435917faf1bba31184b4d13e4f756b22fc2755d77b6ad147f10a7b12ea6afa58a2ca5f691a480f35b6135af90613d8c565b61066b57823861355d565b6135c390613d8c565b6107d55781386134d7565b6135d790613d8c565b6107d5578138613471565b6040516368d2bf6b60e11b8152600490fd5b60405162a5a1f560e01b8152600490fd5b604051622e076360e81b8152600490fd5b015190503880613375565b848852602088209250601f198416885b81811061366d5750908460019594939210613654575b505050811b01905561338a565b015160001960f88460031b161c19169055388080613647565b92936020600181928786015181550195019301613631565b6136b09085895260208920601f850160051c810191602086106136b6575b601f0160051c01906142ef565b3861335f565b90915081906136a3565b634e487b7160e01b86526041600452602486fd5b634e487b7160e01b87526011600452602487fd5b634e487b7160e01b86526011600452602486fd5b604051630490d63160e01b8152600490fd5b5034610371576040366003190112610371576004356001600160401b0360243581811161063457613743903690600401613e7d565b6101fa549091906001600160a01b031633819003613889575082845261013e9060209082825260ff6040872054161580613878575b613780578580f35b60019384604088200190805192831161386457600160401b8311613864578390825484845580851061384a575b500190875282872085885b84811061383857505050505083855252604083209060ff198254161790558173__$f445361e8b50888b0b8cee3fd4db50a783$__91823b156107d55760446040518094819363f715530760e01b835261013f600484015260248301525af4801561063857613829575b808080808580f35b61383290613d8c565b38613821565b858451940193818401550186906137b8565b838a52828a2061385e9181019086016142ef565b386137ad565b634e487b7160e01b88526041600452602488fd5b5060ff604087205460081c16613778565b60405163073e64fd60e21b81529081906138a7903360048401614093565b0390fd5b50366003190161016081126107d55760a013610371576138c9613d60565b60a03660c31901126107d55761149d90611461615169565b5034610371578060031936011261037157610130546040516001600160a01b039091168152602090f35b50346103715760403660031901126103715761396860406101209261392e613d4a565b61393661509f565b5061012f5482526101356020526001838320019060018060a01b031682526020528181206024358252602052206150e4565b6108bd6040518092805182526020810151602083015260408101516040830152606081015160608301526080810151608083015260a081015160a083015260c081015160c083015260e081015160e083015261010080910151910152565b5034610371576139d536613f0b565b6139e193929193615749565b808203613a2357845b8281106139f5578580f35b80613a036001928488614337565b35613a0f828688614337565b3588526101486020526040882055016139ea565b604051635435b28960e11b8152600490fd5b5034610371576020366003190112610371576004356001600160401b0381116107d557906040613a6c613aa2933690600401613e7d565b61012f5483526101356020528183208251948592839263b93cda1360e01b84526004840152606060248401526064830190614658565b61013a6044830152038173__$bf3a140bdbff42a6137d0acc0952596ca5$__5af48015610e34576040928291610e05575082519182526020820152f35b503461037157604036600319011261037157613af9613d4a565b602435906001600160a01b038080613b10856152cb565b16921691808314613b9c57803314159081613b79575b50613130578284526101686020526040842080546001600160a01b03191683179055613b51836152cb565b167f8c5be1e5ebec7d5bd14f71427d1e84f3dd0314c0f7b2291e5b200ac8c7c3b9258480a480f35b905084526101696020526040842033855260205260ff6040852054161538613b26565b604051639196021d60e01b8152600490fd5b50346103715760203660031901126103715760206117c16004356152ff565b5034610371578060031936011261037157604051816101648054613bf0816142b5565b80855291600191808316908115610f4d5750600114613c19576106e385610efe81890382613e43565b835260208084209095505b828410613c4157505050816106e393610efe928201019338610eee565b8054858501870152928501928101613c24565b503461037157602036600319011261037157613968604061012092613c7761509f565b5061012f5481526101356020528181206004358252602052206150e4565b9050346107d55760203660031901126107d55760043563ffffffff60e01b811680910361066b57602092506380ac58cd60e01b8114908115613cf1575b8115613ce0575b5015158152f35b6301ffc9a760e01b14905038613cd9565b635b5e139f60e01b81149150613cd2565b60005b838110613d155750506000910152565b8181015183820152602001613d05565b90602091613d3e81518092818552858086019101613d02565b601f01601f1916010190565b600435906001600160a01b038216820361066657565b60a435906001600160a01b038216820361066657565b602435906001600160a01b038216820361066657565b6001600160401b0381116123a257604052565b61012081019081106001600160401b038211176123a257604052565b60a081019081106001600160401b038211176123a257604052565b602081019081106001600160401b038211176123a257604052565b604081019081106001600160401b038211176123a257604052565b606081019081106001600160401b038211176123a257604052565b61016081019081106001600160401b038211176123a257604052565b601f909101601f19168101906001600160401b038211908210176123a257604052565b6001600160401b0381116123a25760051b60200190565b81601f8201121561066657803591613e9483613e66565b92613ea26040519485613e43565b808452602092838086019260051b820101928311610666578301905b828210613ecc575050505090565b81358152908301908301613ebe565b9181601f84011215610666578235916001600160401b038311610666576020808501948460051b01011161066657565b6040600319820112610666576001600160401b03916004358381116106665782613f3791600401613edb565b9390939260243591821161066657613f5191600401613edb565b9091565b9181601f84011215610666578235916001600160401b038311610666576020838186019501011161066657565b6060906003190112610666576001600160a01b0390600435828116810361066657916024359081168103610666579060443590565b6001600160401b0381116123a257601f01601f191660200190565b929192613fde82613fb7565b91613fec6040519384613e43565b829481845281830111610666578281602093846000960137010152565b9080601f830112156106665781602061402493359101613fd2565b90565b6040906003190112610666576004356001600160a01b0381168103610666579060243580151581036106665790565b60ff6080809282815116855282602082015116602086015264ffffffffff8060408301511660408701526060820151166060860152015116910152565b6001600160a01b0391821681529116602082015260400190565b60c43580156142805760e4358042101561426e57604090815160208101917f2c22ad5976ec3eec588e31f767e3220b1f0b0979235058a6c2f5ae01e8b69efb8352338483015284606083015260808201526080815261410b81613dbb565b51902060015460025483519060208201927f8b73c3c69bb8fe3d512ecc4cf759cc79239f7b179b0ffacaa9a75d522b39400f84528583015260608201524660808201523060a082015260a0815260c081019160018060401b0391808410838511176123a25761014091848752815190209460e082019561190160f01b875260e2830152610102820152604284520190828210908211176123a2578352519020610144359060ff82168203610666576141d8916141d091610124359161010435916156b1565b919091615651565b6001600160a01b031660009081526101316020528181205460ff161561425d5773__$bf3a140bdbff42a6137d0acc0952596ca5$__92833b156107d55781906044845180968193632691a0af60e01b8352600483015261014760248301525af49182156142535750506142485750565b61425190613d8c565b565b51903d90823e3d90fd5b815163143606b960e31b8152600490fd5b604051630819bdcd60e01b8152600490fd5b50565b60001981146142925760010190565b634e487b7160e01b600052601160045260246000fd5b9190820180921161429257565b90600182811c921680156142e5575b60208310146142cf57565b634e487b7160e01b600052602260045260246000fd5b91607f16916142c4565b8181106142fa575050565b600081556001016142ef565b6001600160a01b039091168152602081019190915260400190565b6040919493926060820195825260208201520152565b91908110156143475760051b0190565b634e487b7160e01b600052603260045260246000fd5b9190820391821161429257565b9190808252602080920192916000805b83821061438957505050505090565b9091929394853560018060a01b03811680910361066b57815283019483019392916001019061437a565b90816020910312610666575180151581036106665790565b6001600160a01b03918216815291166020820152604081019190915260600190565b9060009182526020610147815260409260ff8482205460601c169081815261014883528481205480156144c95790836144509260018060a01b038061013054169061013b5416848a518097819582946323b872dd60e01b845233600485016143cb565b03925af19081156144be5750946001917fdfc1992bc86f884519616357f399708b93f5d607719f2b4cfe4c1f70844a2b5c9596614491575b505191018152a1565b6144b090853d87116144b7575b6144a88183613e43565b8101906143b3565b5038614488565b503d61449e565b8651903d90823e3d90fd5b8551635435b28960e11b8152600490fd5b600211156144e457565b634e487b7160e01b600052602160045260246000fd5b91600d8301918060081c93600160ff83161b9060009186835285602052604095818785205416159784986146375773__$69292ab8e6f98571d324d08d63c6dae4eb$__94853b156103715788518181806145676327cdb4c160e21b9c8d83528c60078c0160048501614321565b03818a5af4801561462d57614619575b5050885260205285872090198154169055600c81019383875284602052858720546145a6575b50505050505050565b85872054833b15614615579287926002926145d187968a519788968795869586520160048501614321565b03915af4801561460b579085916145f7575b50526020528120553880808080808061459d565b61460090613d8c565b6106345783386145e3565b84513d87823e3d90fd5b8780fd5b61462591929a50613d8c565b973880614577565b8a513d84823e3d90fd5b505050505050505050565b9190826040910312610666576020825192015190565b90815180825260208080930193019160005b828110614678575050505090565b83518552938101939281019260010161466a565b91909164ffffffffff8080941691160191821161429257565b60009060009060609161013a546001908160ff8216146146c457505050565b64ffffffffff9592959491939490816146e7818360081c16828460581c1661468c565b1642111561471357505050506040519281602085015260408401526040835261470f83613e0c565b9190565b80828061472e9360309a969998979a1c169160801c1661468c565b1642116148ec5773__$f445361e8b50888b0b8cee3fd4db50a783$__6040908151926305f739f960e21b845261013f8060048601526020948581602481875af49081156148e25783916148b5575b5061478957505050505050565b8395985060448597989495929395518096819363c9c3102d60e01b835260048301528560248301525af49283156148a957819361487a575b5082815261013e80865260ff8583205460181c1660038110156148665788036147fe57505050600382519384015281830152815261402481613e0c565b838298969594939852845260ff8382205460181c16906003821015614852575060021461482d575b5050509190565b9091929450600482519384015281830152815261484981613e0c565b91388080614826565b634e487b7160e01b81526021600452602490fd5b634e487b7160e01b83526021600452602483fd5b9092508481813d83116148a2575b6148928183613e43565b8101031261066b575191386147c1565b503d614888565b508351903d90823e3d90fd5b90508581813d83116148db575b6148cc8183613e43565b8101031261066b57513861477c565b503d6148c2565b85513d85823e3d90fd5b9350909150604051926002602085015260408401526040835261470f83613e0c565b610130546001600160a01b0316939192843b156106665760009460e493869260ff604051998a98899763d505accf60e01b89523360048a01523060248a01526044890152606488015216608486015260a485015260c48401525af18015614976576142485750565b6040513d6000823e3d90fd5b916149bb60208360018060a01b038061013054169061013b541660006040518096819582946323b872dd60e01b845233600485016143cb565b03925af1801561497657614a12575b506149d6818385614f73565b6040519182526149e5816144da565b60208201527f82e94ebf59ab1823045c86284257f1099d3757b9622dc0574bc166aecea2fe9860403392a3565b614a299060203d81116144b7576144a88183613e43565b50386149ca565b600435608435614a4082826142a8565b614a4d60443580926142a8565b6064359190602435614a5f84826142a8565b91803410614bee576000813414614be5575b600080808093853403903390f11561497657604092835191633039061160e01b835261013660048401526101376024840152336044840152816064840152602092838160848173__$bf3a140bdbff42a6137d0acc0952596ca5$__5af4908115614bda5790849291600091614ba8575b5090614b33939161012f546000526101358452600f88600020019103815401905560018060a01b038061013054169061013b5416600088518096819582946323b872dd60e01b845233600485016143cb565b03925af18015614b9d57614b80575b508251968752860152840152606083015260808201527fe03b78662d1cf3cc1f92436fdfbc1755c98708c68667440bd7865b839269b44760a03392a3565b614b9690823d84116144b7576144a88183613e43565b5038614b42565b84513d6000823e3d90fd5b919282813d8311614bd3575b614bbe8183613e43565b81010312610371575051839190614b33614ae1565b503d614bb4565b86513d6000823e3d90fd5b506108fc614a71565b604051632ca2f52b60e11b8152600490fd5b73__$bf3a140bdbff42a6137d0acc0952596ca5$__90813b1561066657604051633880f0ab60e01b815261013660048201526001600160a01b03909116602482015290600090829060449082905af48015614976576142485750565b614c7460409295949395606083526060830190614658565b9460208201520152565b80548210156143475760005260206000200190600090565b80518210156143475760209160051b010190565b6020908181840312610666578051906001600160401b03821161066657019180601f84011215610666578251614cdf81613e66565b93614ced6040519586613e43565b818552838086019260051b820101928311610666578301905b828210614d14575050505090565b81518152908301908301614d06565b61012f5460009081526101356020526002604082200160405190634d63fffd60e01b82526004820152816024820152600a6044820152818160648173__$69292ab8e6f98571d324d08d63c6dae4eb$__5af49182156108f1578092614d8757505090565b61402492503d8091833e614d9b8183613e43565b810190614caa565b61012f5460009081526101356020526002604082200160405190634d63fffd60e01b82526004820152600a6024820152605a6044820152818160648173__$69292ab8e6f98571d324d08d63c6dae4eb$__5af49182156108f1578092614d8757505090565b9081526001600160401b03909116602082015261ffff909116604082015263ffffffff91821660608201529116608082015260a00190565b604091949392606082019582526020820152614e5b836144da565b0152565b600190600583015482678ac7230489e8000092836002820154840204600287015501540204910155565b906006820180549260056201518080958354904203020491019081540190554290556005600682019283544203835402049101908154019055429055565b60086007820154910154600091818111600014614ee857614024925061435d565b505090565b61012f54600090815261013560205260408120600c8101939192600d82019260029092019173__$b6aef517fe05d85bc7364998255804b986$__91823b156107d157918594939160a49360405198899687956311b7263f60e21b8752600487015260248601526044850152606484015260848301525af49081156108f157506142485750565b909161012f5492600093845261013560205260408085209433815260018601602052818120858252602052818120956020522090614fb18286614e89565b808554018555808254018255614fc78583614e5f565b60078501906008825496019586548082119182615078575b8215615055575b50506150435761425195600185614fff615028976144da565b0361502e575061502190600784016150188282546142a8565b905582546142a8565b9055614ec7565b90614eed565b915061502190600884016150188282546142a8565b604051638f04435560e01b8152600490fd5b10905080615065575b3880614fe6565b5061506f846144da565b6001841461505e565b9150615083866144da565b851591614fdf565b51906001600160a01b038216820361066657565b604051906150ac82613d9f565b816101006000918281528260208201528260408201528260608201528260808201528260a08201528260c08201528260e08201520152565b906040516150f181613d9f565b610100600882948054845260018101546020850152600281015460408501526003810154606085015260048101546080850152600581015460a0850152600681015460c0850152600781015460e08501520154910152565b60ff61013a54161561515757565b60405163a397eb4760e01b8152600490fd5b60003381526101448060205260408220546101455411156151b45733825260205260408120805491600183018093116151a0575055565b634e487b7160e01b81526011600452602490fd5b60405163d92de14f60e01b8152600490fd5b3360005261013160205260ff60406000205416156151e057565b60405163143606b960e31b8152600490fd5b803b15615227576000805160206157f983398151915280546001600160a01b0319166001600160a01b03909216919091179055565b60405163145708c760e31b8152600490fd5b3d15615264573d9061524a82613fb7565b916152586040519384613e43565b82523d6000602084013e565b606090565b60ff6101c8541661527657565b60405163928dfa7760e01b8152600490fd5b60ff6101c854161561529657565b60405162c5619760e61b8152600490fd5b61019660028154146152b95760029055565b6040516306fda65d60e31b8152600490fd5b600090815261016660205260409020546001600160a01b031680156152ed5790565b604051636aa2a93760e01b8152600490fd5b615308816153c5565b156152ed57600090815261016860205260409020546001600160a01b031690565b9291906153368233615356565b15613130578361534a838361534f976153e3565b615596565b156135e257565b906001600160a01b03808061536a846152cb565b1693169183831493841561539d575b508315615387575b50505090565b615393919293506152ff565b1614388080615381565b90935060005261016960205260406000208260005260205260ff604060002054169238615379565b600090815261016660205260409020546001600160a01b0316151590565b6153ec836152cb565b6001600160a01b039291831691908316829003615486578216918215615497578190615417856152cb565b16036154865760008051602061585983398151915260008481526101686020526040812060018060a01b031990818154169055838252610167602052604082206000198154019055848252604082206001815401905585825261016660205284604083209182541617905580a4565b60405162a1148160e81b8152600490fd5b604051633a954ecd60e21b8152600490fd5b9091600091803b1561558d576154f46020918493604051948580948193630a85bd0160e11b9a8b84523360048501528460248501526044840152608060648401526084830190613d25565b03926001600160a01b03165af190829082615545575b505061553757615518615239565b80519081615532576040516368d2bf6b60e11b8152600490fd5b602001fd5b6001600160e01b0319161490565b909192506020813d8211615585575b8161556160209383613e43565b810103126107d55751906001600160e01b031982168203610371575090388061550a565b3d9150615554565b50505050600190565b91926000929190813b15615607576020916155ec9185604051958680958194630a85bd0160e11b9b8c845233600485015260018060a01b0380951660248501526044840152608060648401526084830190613d25565b0393165af19082908261554557505061553757615518615239565b5050505050600190565b9091901561561d575090565b81511561562d5750805190602001fd5b60405162461bcd60e51b8152602060048201529081906138a7906024830190613d25565b60058110156144e457806156625750565b6001810361567c57604051638baa579f60e01b8152600490fd5b6002810361569657604051634be6321b60e01b8152600490fd5b60031461569f57565b60405163185f3d1d60e21b8152600490fd5b9291906fa2a8918ca85bafe22016d0b997e4df60600160ff1b03831161571d5791608094939160ff602094604051948552168484015260408301526060820152600093849182805260015afa15610e345781516001600160a01b03811615615717579190565b50600190565b50505050600090600390565b60ff6001918060081c600052610139602052161b60406000205416151590565b6067546001600160a01b0316330361575d57565b604051632e6c18c960e11b8152600490fd5b6000805160206157d9833981519152819055606780546001600160a01b039283166001600160a01b031982168117909255909116600080516020615819833981519152600080a356fe4910fdfa16fed3260ed0e7147f7cc6da11a60208b5b9406d12a635614ffd9143b53127684a568b3173ae13b9f8a6016e243e63b6e8ee1178d6a717850b5d6103360894a13ba1a3210667c828492db98dca3e2076cc3735a920a3ca505d382bbc8be0079c531659141344cd1fd0a4f28419497f9722a3daafe3b4186f6b6457e0bc7cd75a20ee27fd9adebab32041f755214dbc6bffa90cc0225b39da2e5c2d3bddf252ad1be2c89b69c2b068fc378daa952ba7f163c4a11628f55a4df523b3ef62e78cea01bee320cd4e420270b5ea74000d11b0c9f74754ebdbfc544b05a258a2646970667358221220956aeead7f42cf3bcf742ebe160c2f4ff84dc48bf56e0b6826fa2e963b4c5e2b64736f6c63430008110033",
  "libraries": {
    "RenderConstant": "0x1Cd4a056477222f0fB4D7727F059191613E44f7E",
    "Renderer": "0xF4415A0f02255B9dd5FfF6bE3F4E514F2E18DDfa",
    "FastArray": "0x13850aef070D3D3f39B611dAfA36517F989f4D6f",
    "RankingRedBlackTree": "0xF0fBEd9483c95f77F52844bdcf2598359d7489D2",
    "SingleRanking": "0x53D5ad3709dF44aD4576Fd3Ea073c16cff933d51",
    "DegenRank": "0x62258feE97a193C45B9bD607E8435Ff40870B218",
    "PortalLib": "0x83982B06070279A59A9DB60B9a15e0Ed09779f28"
  },
  "devdoc": {
    "errors": {
      "BetaStoped()": [
        {
          "details": "revert user continue play game when beta stoped"
        }
      ],
      "DropOff()": [
        {
          "details": "revert when the drop is not on"
        }
      ],
      "IncarnationExceedLimit()": [
        {
          "details": "revert when incarnation count exceed limit"
        }
      ],
      "InsufficientAmount()": [
        {
          "details": "revert when msg.value is insufficient"
        }
      ],
      "NotSetBurnPoolAddress()": [
        {
          "details": "revert if burnPool address not set when infuse"
        }
      ],
      "NotSigner()": [
        {
          "details": "revert when to caller is not signer"
        }
      ],
      "SameSeed()": [
        {
          "details": "revert when the random seed is duplicated"
        }
      ],
      "ZeroAddressSet()": [
        {
          "details": "revert when some address var are set to zero"
        }
      ]
    },
    "kind": "dev",
    "methods": {
      "antiCheat(uint256,uint256)": {
        "details": "anticheat, downgrade score and remove from rank"
      },
      "approve(address,uint256)": {
        "details": "See {IERC721-approve}."
      },
      "balanceOf(address)": {
        "details": "See {IERC721-balanceOf}."
      },
      "baptise(address,uint256)": {
        "details": "reward for share the game",
        "params": {
          "amount": "amount for reward",
          "user": "user address"
        }
      },
      "burnFromBurnPool(uint256)": {
        "details": "burn $REBORN from burn pool",
        "params": {
          "amount": "burn from burn pool"
        }
      },
      "calculateReferReward(address,uint256,uint8)": {
        "details": "returns referrer and referer reward",
        "returns": {
          "ref1": " level1 of referrer. direct referrer",
          "ref1Reward": " level 1 referrer reward",
          "ref2": " level2 of referrer. referrer's referrer",
          "ref2Reward": " level 2 referrer reward"
        }
      },
      "checkUpkeep(bytes)": {
        "details": "checkUpkeep for chainlink automation"
      },
      "claimNativeDrops(uint256[])": {
        "details": "user claim many pools' native token airdrop",
        "params": {
          "tokenIds": "pools' tokenId array to claim"
        }
      },
      "claimOwnership()": {
        "details": "pending owner call this function to claim ownership"
      },
      "claimRebornDrops(uint256[])": {
        "details": "user claim many pools' reborn token airdrop",
        "params": {
          "tokenIds": "pools' tokenId array to claim"
        }
      },
      "engrave(bytes32,address,uint256,uint256,uint256,uint256,string)": {
        "details": "engrave the result on chain and reward",
        "params": {
          "cost": "user cost for this life",
          "reward": "$REBORN user earns, decimal 10^18",
          "score": "life score",
          "seed": "random seed in bytes32",
          "user": "user address"
        }
      },
      "forging(uint256,(uint256,uint256,bytes32,bytes32,uint8))": {
        "details": "forging with permit"
      },
      "getApproved(uint256)": {
        "details": "See {IERC721-getApproved}."
      },
      "getJackPot()": {
        "details": "return the jackpot amount of current season"
      },
      "getPool(uint256)": {
        "details": "read pool attribute"
      },
      "getPortfolio(address,uint256)": {
        "details": "read pool attribute"
      },
      "getReferrers(address)": {
        "details": "referrer1: level1 of referrers referrer2: level2 of referrers"
      },
      "incarnate((uint256,uint256,uint256,uint256,uint256),address,(uint256,uint256,bytes32,bytes32,uint8))": {
        "details": "user buy the innate for the life",
        "params": {
          "innate": "talent and property choice",
          "referrer": "the referrer address"
        }
      },
      "infuse(uint256,uint256,uint8)": {
        "details": "stake $REBORN on this tombstone",
        "params": {
          "amount": "stake amount, decimal 10^18",
          "tokenId": "tokenId of the life to stake"
        }
      },
      "infuse(uint256,uint256,uint8,uint256,uint256,bytes32,bytes32,uint8)": {
        "details": "stake $REBORN with permit",
        "params": {
          "amount": "amount of $REBORN to stake",
          "permitAmount": "amount of $REBORN to approve",
          "r": "r of signature",
          "s": "v of signature",
          "tokenId": "tokenId of the life to stake",
          "v": "v of signature"
        }
      },
      "initialize(address,address,string,string,address)": {
        "details": "initialize function",
        "params": {
          "name_": "ERC712 name",
          "owner_": "owner address",
          "rebornToken_": "$REBORN token address",
          "symbol_": "ERC721 symbol",
          "vrfCoordinator_": "chainlink vrf coordinator_ address"
        }
      },
      "isApprovedForAll(address,address)": {
        "details": "See {IERC721-isApprovedForAll}."
      },
      "name()": {
        "details": "See {IERC721Metadata-name}."
      },
      "owner()": {
        "details": "Returns the address of the current owner."
      },
      "ownerOf(uint256)": {
        "details": "See {IERC721-ownerOf}."
      },
      "paused()": {
        "details": "Returns true if the contract is paused, and false otherwise."
      },
      "pendingDrop(uint256[])": {
        "details": "read pending reward from specific pool",
        "params": {
          "tokenIds": "tokenId array of the pools"
        }
      },
      "pendingOwner()": {
        "details": "Return the address of the pending owner"
      },
      "performUpkeep(bytes)": {
        "details": "Upkeep perform of chainlink automation"
      },
      "proxiableUUID()": {
        "details": "Implementation of the ERC1822 {proxiableUUID} function. This returns the storage slot used by the implementation. It is used to validate the implementation's compatibility when performing an upgrade. IMPORTANT: A proxy pointing at a proxiable contract should not be considered proxiable itself, because this risks bricking a proxy that upgrades to it, by delegating to itself until out of gas. Thus it is critical that this function revert if invoked through a proxy. This is guaranteed by the `notDelegated` modifier."
      },
      "renounceOwnership()": {
        "details": "Leaves the contract without owner. It will not be possible to call `onlyOwner` functions anymore. Can only be called by the current owner. NOTE: Renouncing ownership will leave the contract without an owner, thereby removing any functionality that is only available to the owner."
      },
      "safeTransferFrom(address,address,uint256)": {
        "details": "See {IERC721-safeTransferFrom}."
      },
      "safeTransferFrom(address,address,uint256,bytes)": {
        "details": "See {IERC721-safeTransferFrom}."
      },
      "seedExists(bytes32)": {
        "details": "check whether the seed is used on-chain",
        "params": {
          "seed": "random seed in bytes32"
        }
      },
      "setApprovalForAll(address,bool)": {
        "details": "See {IERC721-setApprovalForAll}."
      },
      "setBetaStopedBlockNumber(uint256)": {
        "details": "set stop timestamp"
      },
      "setDropConf((uint8,uint40,uint40,uint40,uint40,uint16,uint16,uint16,uint40))": {
        "details": "set new airdrop config"
      },
      "setIncarnationLimit(uint256)": {
        "details": "set incarnation limit"
      },
      "setReferrerRewardFee(uint16,uint16,uint8)": {
        "details": "set percentage of referrer reward",
        "params": {
          "rewardType": "0: incarnate reward 1: engrave reward"
        }
      },
      "setVault(address)": {
        "details": "set vault",
        "params": {
          "vault_": "new vault address"
        }
      },
      "setVrfConf((bytes32,uint64,uint32,uint32,uint16))": {
        "details": "set new chainlink vrf v2 config"
      },
      "supportsInterface(bytes4)": {
        "details": "See {IERC165-supportsInterface}."
      },
      "switchPool(uint256,uint256,uint256,uint8)": {
        "details": "switch stake amount from poolFrom to poolTo",
        "params": {
          "amount": "amount to switch",
          "fromTokenId": "tokenId of from pool",
          "toTokenId": "tokenId of to pool"
        }
      },
      "symbol()": {
        "details": "See {IERC721Metadata-symbol}."
      },
      "toNextSeason()": {
        "details": "switch to next season, call by owner"
      },
      "tokenURI(uint256)": {
        "details": "See {IERC721Metadata-tokenURI}."
      },
      "transferFrom(address,address,uint256)": {
        "details": "See {IERC721-transferFrom}."
      },
      "transferOwnership(address,bool)": {
        "details": "Transfers ownership of the contract to a new account (`newOwner`). Can only be called by the current owner. Note If direct is false, it will set an pending owner and the OwnerShipTransferring only happens when the pending owner claim the ownership"
      },
      "updateSigners(address[],address[])": {
        "details": "update signers",
        "params": {
          "toAdd": "list of to be added signer",
          "toRemove": "list of to be removed signer"
        }
      },
      "upgradeTo(address)": {
        "details": "Upgrade the implementation of the proxy to `newImplementation`. Calls {_authorizeUpgrade}. Emits an {Upgraded} event."
      },
      "upgradeToAndCall(address,bytes)": {
        "details": "Upgrade the implementation of the proxy to `newImplementation`, and subsequently execute the function call encoded in `data`. Calls {_authorizeUpgrade}. Emits an {Upgraded} event."
      },
      "withdrawNativeToken(address,uint256)": {
        "details": "withdraw native token for reward distributionamount how much to withdraw"
      },
      "withdrawVault(address)": {
        "details": "withdraw token from vault",
        "params": {
          "to": "the address which owner withdraw token to"
        }
      }
    },
    "version": 1
  },
  "userdoc": {
    "kind": "user",
    "methods": {
      "getReferrers(address)": {
        "notice": "A -> B -> C: B: level1 A: level2"
      },
      "setReferrerRewardFee(uint16,uint16,uint8)": {
        "notice": "mul 100 when set. eg: 8% -> 800 18%-> 1800"
      }
    },
    "version": 1
  },
  "storageLayout": {
    "storage": [
      {
        "astId": 22743,
        "contract": "src/RebornPortal.sol:RebornPortal",
        "label": "_initialized",
        "offset": 0,
        "slot": "0",
        "type": "t_uint8"
      },
      {
        "astId": 22746,
        "contract": "src/RebornPortal.sol:RebornPortal",
        "label": "_initializing",
        "offset": 1,
        "slot": "0",
        "type": "t_bool"
      },
      {
        "astId": 26786,
        "contract": "src/RebornPortal.sol:RebornPortal",
        "label": "_HASHED_NAME",
        "offset": 0,
        "slot": "1",
        "type": "t_bytes32"
      },
      {
        "astId": 26788,
        "contract": "src/RebornPortal.sol:RebornPortal",
        "label": "_HASHED_VERSION",
        "offset": 0,
        "slot": "2",
        "type": "t_bytes32"
      },
      {
        "astId": 26926,
        "contract": "src/RebornPortal.sol:RebornPortal",
        "label": "__gap",
        "offset": 0,
        "slot": "3",
        "type": "t_array(t_uint256)50_storage"
      },
      {
        "astId": 26103,
        "contract": "src/RebornPortal.sol:RebornPortal",
        "label": "__gap",
        "offset": 0,
        "slot": "53",
        "type": "t_array(t_uint256)50_storage"
      },
      {
        "astId": 28006,
        "contract": "src/RebornPortal.sol:RebornPortal",
        "label": "_owner",
        "offset": 0,
        "slot": "103",
        "type": "t_address"
      },
      {
        "astId": 28008,
        "contract": "src/RebornPortal.sol:RebornPortal",
        "label": "_pendingOwner",
        "offset": 0,
        "slot": "104",
        "type": "t_address"
      },
      {
        "astId": 28206,
        "contract": "src/RebornPortal.sol:RebornPortal",
        "label": "__gap",
        "offset": 0,
        "slot": "105",
        "type": "t_array(t_uint256)48_storage"
      },
      {
        "astId": 22722,
        "contract": "src/RebornPortal.sol:RebornPortal",
        "label": "__gap",
        "offset": 0,
        "slot": "153",
        "type": "t_array(t_uint256)50_storage"
      },
      {
        "astId": 23045,
        "contract": "src/RebornPortal.sol:RebornPortal",
        "label": "__gap",
        "offset": 0,
        "slot": "203",
        "type": "t_array(t_uint256)50_storage"
      },
      {
        "astId": 26970,
        "contract": "src/RebornPortal.sol:RebornPortal",
        "label": "__gap",
        "offset": 0,
        "slot": "253",
        "type": "t_array(t_uint256)50_storage"
      },
      {
        "astId": 12676,
        "contract": "src/RebornPortal.sol:RebornPortal",
        "label": "_season",
        "offset": 0,
        "slot": "303",
        "type": "t_uint256"
      },
      {
        "astId": 12679,
        "contract": "src/RebornPortal.sol:RebornPortal",
        "label": "rebornToken",
        "offset": 0,
        "slot": "304",
        "type": "t_contract(RBT)10320"
      },
      {
        "astId": 12683,
        "contract": "src/RebornPortal.sol:RebornPortal",
        "label": "signers",
        "offset": 0,
        "slot": "305",
        "type": "t_mapping(t_address,t_bool)"
      },
      {
        "astId": 12687,
        "contract": "src/RebornPortal.sol:RebornPortal",
        "label": "rounds",
        "offset": 0,
        "slot": "306",
        "type": "t_mapping(t_address,t_uint32)"
      },
      {
        "astId": 12689,
        "contract": "src/RebornPortal.sol:RebornPortal",
        "label": "idx",
        "offset": 0,
        "slot": "307",
        "type": "t_uint256"
      },
      {
        "astId": 12694,
        "contract": "src/RebornPortal.sol:RebornPortal",
        "label": "details",
        "offset": 0,
        "slot": "308",
        "type": "t_mapping(t_uint256,t_struct(LifeDetail)13921_storage)"
      },
      {
        "astId": 12699,
        "contract": "src/RebornPortal.sol:RebornPortal",
        "label": "_seasonData",
        "offset": 0,
        "slot": "309",
        "type": "t_mapping(t_uint256,t_struct(SeasonData)13953_storage)"
      },
      {
        "astId": 12703,
        "contract": "src/RebornPortal.sol:RebornPortal",
        "label": "referrals",
        "offset": 0,
        "slot": "310",
        "type": "t_mapping(t_address,t_address)"
      },
      {
        "astId": 12706,
        "contract": "src/RebornPortal.sol:RebornPortal",
        "label": "rewardFees",
        "offset": 0,
        "slot": "311",
        "type": "t_struct(ReferrerRewardFees)7914_storage"
      },
      {
        "astId": 12709,
        "contract": "src/RebornPortal.sol:RebornPortal",
        "label": "vault",
        "offset": 0,
        "slot": "312",
        "type": "t_contract(RewardVault)13406"
      },
      {
        "astId": 12712,
        "contract": "src/RebornPortal.sol:RebornPortal",
        "label": "_seeds",
        "offset": 0,
        "slot": "313",
        "type": "t_struct(BitMap)27856_storage"
      },
      {
        "astId": 12715,
        "contract": "src/RebornPortal.sol:RebornPortal",
        "label": "_dropConf",
        "offset": 0,
        "slot": "314",
        "type": "t_struct(AirdropConf)7972_storage"
      },
      {
        "astId": 12717,
        "contract": "src/RebornPortal.sol:RebornPortal",
        "label": "burnPool",
        "offset": 0,
        "slot": "315",
        "type": "t_address"
      },
      {
        "astId": 12720,
        "contract": "src/RebornPortal.sol:RebornPortal",
        "label": "_vrfConf",
        "offset": 0,
        "slot": "316",
        "type": "t_struct(VrfConf)7983_storage"
      },
      {
        "astId": 12725,
        "contract": "src/RebornPortal.sol:RebornPortal",
        "label": "_vrfRequests",
        "offset": 0,
        "slot": "318",
        "type": "t_mapping(t_uint256,t_struct(RequestStatus)13973_storage)"
      },
      {
        "astId": 12728,
        "contract": "src/RebornPortal.sol:RebornPortal",
        "label": "_pendingDrops",
        "offset": 0,
        "slot": "319",
        "type": "t_struct(Data)14725_storage"
      },
      {
        "astId": 12730,
        "contract": "src/RebornPortal.sol:RebornPortal",
        "label": "_extraReward",
        "offset": 0,
        "slot": "322",
        "type": "t_uint256"
      },
      {
        "astId": 12732,
        "contract": "src/RebornPortal.sol:RebornPortal",
        "label": "_g",
        "offset": 0,
        "slot": "323",
        "type": "t_bool"
      },
      {
        "astId": 12736,
        "contract": "src/RebornPortal.sol:RebornPortal",
        "label": "_incarnateCounts",
        "offset": 0,
        "slot": "324",
        "type": "t_mapping(t_address,t_uint256)"
      },
      {
        "astId": 12738,
        "contract": "src/RebornPortal.sol:RebornPortal",
        "label": "_incarnateCountLimit",
        "offset": 0,
        "slot": "325",
        "type": "t_uint256"
      },
      {
        "astId": 12740,
        "contract": "src/RebornPortal.sol:RebornPortal",
        "label": "_stopBetaBlockNumber",
        "offset": 0,
        "slot": "326",
        "type": "t_uint256"
      },
      {
        "astId": 12745,
        "contract": "src/RebornPortal.sol:RebornPortal",
        "label": "_characterProperties",
        "offset": 0,
        "slot": "327",
        "type": "t_mapping(t_uint256,t_struct(CharacterProperty)7900_storage)"
      },
      {
        "astId": 12749,
        "contract": "src/RebornPortal.sol:RebornPortal",
        "label": "_forgeRequiredMaterials",
        "offset": 0,
        "slot": "328",
        "type": "t_mapping(t_uint256,t_uint256)"
      },
      {
        "astId": 12754,
        "contract": "src/RebornPortal.sol:RebornPortal",
        "label": "_gap",
        "offset": 0,
        "slot": "329",
        "type": "t_array(t_uint256)27_storage"
      },
      {
        "astId": 24676,
        "contract": "src/RebornPortal.sol:RebornPortal",
        "label": "_name",
        "offset": 0,
        "slot": "356",
        "type": "t_string_storage"
      },
      {
        "astId": 24678,
        "contract": "src/RebornPortal.sol:RebornPortal",
        "label": "_symbol",
        "offset": 0,
        "slot": "357",
        "type": "t_string_storage"
      },
      {
        "astId": 24682,
        "contract": "src/RebornPortal.sol:RebornPortal",
        "label": "_owners",
        "offset": 0,
        "slot": "358",
        "type": "t_mapping(t_uint256,t_address)"
      },
      {
        "astId": 24686,
        "contract": "src/RebornPortal.sol:RebornPortal",
        "label": "_balances",
        "offset": 0,
        "slot": "359",
        "type": "t_mapping(t_address,t_uint256)"
      },
      {
        "astId": 24690,
        "contract": "src/RebornPortal.sol:RebornPortal",
        "label": "_tokenApprovals",
        "offset": 0,
        "slot": "360",
        "type": "t_mapping(t_uint256,t_address)"
      },
      {
        "astId": 24696,
        "contract": "src/RebornPortal.sol:RebornPortal",
        "label": "_operatorApprovals",
        "offset": 0,
        "slot": "361",
        "type": "t_mapping(t_address,t_mapping(t_address,t_bool))"
      },
      {
        "astId": 25604,
        "contract": "src/RebornPortal.sol:RebornPortal",
        "label": "__gap",
        "offset": 0,
        "slot": "362",
        "type": "t_array(t_uint256)44_storage"
      },
      {
        "astId": 23189,
        "contract": "src/RebornPortal.sol:RebornPortal",
        "label": "_status",
        "offset": 0,
        "slot": "406",
        "type": "t_uint256"
      },
      {
        "astId": 23248,
        "contract": "src/RebornPortal.sol:RebornPortal",
        "label": "__gap",
        "offset": 0,
        "slot": "407",
        "type": "t_array(t_uint256)49_storage"
      },
      {
        "astId": 23067,
        "contract": "src/RebornPortal.sol:RebornPortal",
        "label": "_paused",
        "offset": 0,
        "slot": "456",
        "type": "t_bool"
      },
      {
        "astId": 23174,
        "contract": "src/RebornPortal.sol:RebornPortal",
        "label": "__gap",
        "offset": 0,
        "slot": "457",
        "type": "t_array(t_uint256)49_storage"
      },
      {
        "astId": 20522,
        "contract": "src/RebornPortal.sol:RebornPortal",
        "label": "vrfCoordinator",
        "offset": 0,
        "slot": "506",
        "type": "t_address"
      },
      {
        "astId": 20526,
        "contract": "src/RebornPortal.sol:RebornPortal",
        "label": "__gap",
        "offset": 0,
        "slot": "507",
        "type": "t_array(t_uint256)49_storage"
      }
    ],
    "types": {
      "t_address": {
        "encoding": "inplace",
        "label": "address",
        "numberOfBytes": "20"
      },
      "t_array(t_uint256)27_storage": {
        "base": "t_uint256",
        "encoding": "inplace",
        "label": "uint256[27]",
        "numberOfBytes": "864"
      },
      "t_array(t_uint256)44_storage": {
        "base": "t_uint256",
        "encoding": "inplace",
        "label": "uint256[44]",
        "numberOfBytes": "1408"
      },
      "t_array(t_uint256)48_storage": {
        "base": "t_uint256",
        "encoding": "inplace",
        "label": "uint256[48]",
        "numberOfBytes": "1536"
      },
      "t_array(t_uint256)49_storage": {
        "base": "t_uint256",
        "encoding": "inplace",
        "label": "uint256[49]",
        "numberOfBytes": "1568"
      },
      "t_array(t_uint256)50_storage": {
        "base": "t_uint256",
        "encoding": "inplace",
        "label": "uint256[50]",
        "numberOfBytes": "1600"
      },
      "t_array(t_uint256)dyn_storage": {
        "base": "t_uint256",
        "encoding": "dynamic_array",
        "label": "uint256[]",
        "numberOfBytes": "32"
      },
      "t_bool": {
        "encoding": "inplace",
        "label": "bool",
        "numberOfBytes": "1"
      },
      "t_bytes32": {
        "encoding": "inplace",
        "label": "bytes32",
        "numberOfBytes": "32"
      },
      "t_contract(RBT)10320": {
        "encoding": "inplace",
        "label": "contract RBT",
        "numberOfBytes": "20"
      },
      "t_contract(RewardVault)13406": {
        "encoding": "inplace",
        "label": "contract RewardVault",
        "numberOfBytes": "20"
      },
      "t_enum(AirdropVrfType)13957": {
        "encoding": "inplace",
        "label": "enum IRebornDefination.AirdropVrfType",
        "numberOfBytes": "1"
      },
      "t_mapping(t_address,t_address)": {
        "encoding": "mapping",
        "key": "t_address",
        "label": "mapping(address => address)",
        "numberOfBytes": "32",
        "value": "t_address"
      },
      "t_mapping(t_address,t_bool)": {
        "encoding": "mapping",
        "key": "t_address",
        "label": "mapping(address => bool)",
        "numberOfBytes": "32",
        "value": "t_bool"
      },
      "t_mapping(t_address,t_mapping(t_address,t_bool))": {
        "encoding": "mapping",
        "key": "t_address",
        "label": "mapping(address => mapping(address => bool))",
        "numberOfBytes": "32",
        "value": "t_mapping(t_address,t_bool)"
      },
      "t_mapping(t_address,t_mapping(t_uint256,t_struct(Portfolio)7953_storage))": {
        "encoding": "mapping",
        "key": "t_address",
        "label": "mapping(address => mapping(uint256 => struct PortalLib.Portfolio))",
        "numberOfBytes": "32",
        "value": "t_mapping(t_uint256,t_struct(Portfolio)7953_storage)"
      },
      "t_mapping(t_address,t_uint256)": {
        "encoding": "mapping",
        "key": "t_address",
        "label": "mapping(address => uint256)",
        "numberOfBytes": "32",
        "value": "t_uint256"
      },
      "t_mapping(t_address,t_uint32)": {
        "encoding": "mapping",
        "key": "t_address",
        "label": "mapping(address => uint32)",
        "numberOfBytes": "32",
        "value": "t_uint32"
      },
      "t_mapping(t_uint256,t_address)": {
        "encoding": "mapping",
        "key": "t_uint256",
        "label": "mapping(uint256 => address)",
        "numberOfBytes": "32",
        "value": "t_address"
      },
      "t_mapping(t_uint256,t_struct(CharacterProperty)7900_storage)": {
        "encoding": "mapping",
        "key": "t_uint256",
        "label": "mapping(uint256 => struct PortalLib.CharacterProperty)",
        "numberOfBytes": "32",
        "value": "t_struct(CharacterProperty)7900_storage"
      },
      "t_mapping(t_uint256,t_struct(Data)14725_storage)": {
        "encoding": "mapping",
        "key": "t_uint256",
        "label": "mapping(uint256 => struct FastArray.Data)",
        "numberOfBytes": "32",
        "value": "t_struct(Data)14725_storage"
      },
      "t_mapping(t_uint256,t_struct(LifeDetail)13921_storage)": {
        "encoding": "mapping",
        "key": "t_uint256",
        "label": "mapping(uint256 => struct IRebornDefination.LifeDetail)",
        "numberOfBytes": "32",
        "value": "t_struct(LifeDetail)13921_storage"
      },
      "t_mapping(t_uint256,t_struct(Node)14966_storage)": {
        "encoding": "mapping",
        "key": "t_uint256",
        "label": "mapping(uint256 => struct RankingRedBlackTree.Node)",
        "numberOfBytes": "32",
        "value": "t_struct(Node)14966_storage"
      },
      "t_mapping(t_uint256,t_struct(Pool)7933_storage)": {
        "encoding": "mapping",
        "key": "t_uint256",
        "label": "mapping(uint256 => struct PortalLib.Pool)",
        "numberOfBytes": "32",
        "value": "t_struct(Pool)7933_storage"
      },
      "t_mapping(t_uint256,t_struct(Portfolio)7953_storage)": {
        "encoding": "mapping",
        "key": "t_uint256",
        "label": "mapping(uint256 => struct PortalLib.Portfolio)",
        "numberOfBytes": "32",
        "value": "t_struct(Portfolio)7953_storage"
      },
      "t_mapping(t_uint256,t_struct(RequestStatus)13973_storage)": {
        "encoding": "mapping",
        "key": "t_uint256",
        "label": "mapping(uint256 => struct IRebornDefination.RequestStatus)",
        "numberOfBytes": "32",
        "value": "t_struct(RequestStatus)13973_storage"
      },
      "t_mapping(t_uint256,t_struct(SeasonData)13953_storage)": {
        "encoding": "mapping",
        "key": "t_uint256",
        "label": "mapping(uint256 => struct IRebornDefination.SeasonData)",
        "numberOfBytes": "32",
        "value": "t_struct(SeasonData)13953_storage"
      },
      "t_mapping(t_uint256,t_uint256)": {
        "encoding": "mapping",
        "key": "t_uint256",
        "label": "mapping(uint256 => uint256)",
        "numberOfBytes": "32",
        "value": "t_uint256"
      },
      "t_string_storage": {
        "encoding": "bytes",
        "label": "string",
        "numberOfBytes": "32"
      },
      "t_struct(AirdropConf)7972_storage": {
        "encoding": "inplace",
        "label": "struct PortalLib.AirdropConf",
        "members": [
          {
            "astId": 7955,
            "contract": "src/RebornPortal.sol:RebornPortal",
            "label": "_dropOn",
            "offset": 0,
            "slot": "0",
            "type": "t_uint8"
          },
          {
            "astId": 7957,
            "contract": "src/RebornPortal.sol:RebornPortal",
            "label": "_rebornDropInterval",
            "offset": 1,
            "slot": "0",
            "type": "t_uint40"
          },
          {
            "astId": 7959,
            "contract": "src/RebornPortal.sol:RebornPortal",
            "label": "_nativeDropInterval",
            "offset": 6,
            "slot": "0",
            "type": "t_uint40"
          },
          {
            "astId": 7961,
            "contract": "src/RebornPortal.sol:RebornPortal",
            "label": "_rebornDropLastUpdate",
            "offset": 11,
            "slot": "0",
            "type": "t_uint40"
          },
          {
            "astId": 7963,
            "contract": "src/RebornPortal.sol:RebornPortal",
            "label": "_nativeDropLastUpdate",
            "offset": 16,
            "slot": "0",
            "type": "t_uint40"
          },
          {
            "astId": 7965,
            "contract": "src/RebornPortal.sol:RebornPortal",
            "label": "_nativeTopDropRatio",
            "offset": 21,
            "slot": "0",
            "type": "t_uint16"
          },
          {
            "astId": 7967,
            "contract": "src/RebornPortal.sol:RebornPortal",
            "label": "_nativeRaffleDropRatio",
            "offset": 23,
            "slot": "0",
            "type": "t_uint16"
          },
          {
            "astId": 7969,
            "contract": "src/RebornPortal.sol:RebornPortal",
            "label": "_rebornTopEthAmount",
            "offset": 25,
            "slot": "0",
            "type": "t_uint16"
          },
          {
            "astId": 7971,
            "contract": "src/RebornPortal.sol:RebornPortal",
            "label": "_rebornRaffleEthAmount",
            "offset": 27,
            "slot": "0",
            "type": "t_uint40"
          }
        ],
        "numberOfBytes": "32"
      },
      "t_struct(BitMap)27856_storage": {
        "encoding": "inplace",
        "label": "struct BitMapsUpgradeable.BitMap",
        "members": [
          {
            "astId": 27855,
            "contract": "src/RebornPortal.sol:RebornPortal",
            "label": "_data",
            "offset": 0,
            "slot": "0",
            "type": "t_mapping(t_uint256,t_uint256)"
          }
        ],
        "numberOfBytes": "32"
      },
      "t_struct(CharacterProperty)7900_storage": {
        "encoding": "inplace",
        "label": "struct PortalLib.CharacterProperty",
        "members": [
          {
            "astId": 7891,
            "contract": "src/RebornPortal.sol:RebornPortal",
            "label": "currentAP",
            "offset": 0,
            "slot": "0",
            "type": "t_uint8"
          },
          {
            "astId": 7893,
            "contract": "src/RebornPortal.sol:RebornPortal",
            "label": "maxAP",
            "offset": 1,
            "slot": "0",
            "type": "t_uint8"
          },
          {
            "astId": 7895,
            "contract": "src/RebornPortal.sol:RebornPortal",
            "label": "restoreTimePerAP",
            "offset": 2,
            "slot": "0",
            "type": "t_uint40"
          },
          {
            "astId": 7897,
            "contract": "src/RebornPortal.sol:RebornPortal",
            "label": "lastTimeAPUpdate",
            "offset": 7,
            "slot": "0",
            "type": "t_uint40"
          },
          {
            "astId": 7899,
            "contract": "src/RebornPortal.sol:RebornPortal",
            "label": "level",
            "offset": 12,
            "slot": "0",
            "type": "t_uint8"
          }
        ],
        "numberOfBytes": "32"
      },
      "t_struct(Data)14725_storage": {
        "encoding": "inplace",
        "label": "struct FastArray.Data",
        "members": [
          {
            "astId": 14718,
            "contract": "src/RebornPortal.sol:RebornPortal",
            "label": "array",
            "offset": 0,
            "slot": "0",
            "type": "t_mapping(t_uint256,t_uint256)"
          },
          {
            "astId": 14722,
            "contract": "src/RebornPortal.sol:RebornPortal",
            "label": "indexMap",
            "offset": 0,
            "slot": "1",
            "type": "t_mapping(t_uint256,t_uint256)"
          },
          {
            "astId": 14724,
            "contract": "src/RebornPortal.sol:RebornPortal",
            "label": "length",
            "offset": 0,
            "slot": "2",
            "type": "t_uint256"
          }
        ],
        "numberOfBytes": "96"
      },
      "t_struct(Data)18081_storage": {
        "encoding": "inplace",
        "label": "struct SingleRanking.Data",
        "members": [
          {
            "astId": 18073,
            "contract": "src/RebornPortal.sol:RebornPortal",
            "label": "tree",
            "offset": 0,
            "slot": "0",
            "type": "t_struct(Tree)14976_storage"
          },
          {
            "astId": 18078,
            "contract": "src/RebornPortal.sol:RebornPortal",
            "label": "keys",
            "offset": 0,
            "slot": "3",
            "type": "t_mapping(t_uint256,t_struct(Data)14725_storage)"
          },
          {
            "astId": 18080,
            "contract": "src/RebornPortal.sol:RebornPortal",
            "label": "length",
            "offset": 0,
            "slot": "4",
            "type": "t_uint256"
          }
        ],
        "numberOfBytes": "160"
      },
      "t_struct(LifeDetail)13921_storage": {
        "encoding": "inplace",
        "label": "struct IRebornDefination.LifeDetail",
        "members": [
          {
            "astId": 13904,
            "contract": "src/RebornPortal.sol:RebornPortal",
            "label": "seed",
            "offset": 0,
            "slot": "0",
            "type": "t_bytes32"
          },
          {
            "astId": 13906,
            "contract": "src/RebornPortal.sol:RebornPortal",
            "label": "creator",
            "offset": 0,
            "slot": "1",
            "type": "t_address"
          },
          {
            "astId": 13908,
            "contract": "src/RebornPortal.sol:RebornPortal",
            "label": "age",
            "offset": 20,
            "slot": "1",
            "type": "t_uint16"
          },
          {
            "astId": 13910,
            "contract": "src/RebornPortal.sol:RebornPortal",
            "label": "round",
            "offset": 22,
            "slot": "1",
            "type": "t_uint32"
          },
          {
            "astId": 13912,
            "contract": "src/RebornPortal.sol:RebornPortal",
            "label": "nothing",
            "offset": 26,
            "slot": "1",
            "type": "t_uint48"
          },
          {
            "astId": 13914,
            "contract": "src/RebornPortal.sol:RebornPortal",
            "label": "cost",
            "offset": 0,
            "slot": "2",
            "type": "t_uint128"
          },
          {
            "astId": 13916,
            "contract": "src/RebornPortal.sol:RebornPortal",
            "label": "reward",
            "offset": 16,
            "slot": "2",
            "type": "t_uint128"
          },
          {
            "astId": 13918,
            "contract": "src/RebornPortal.sol:RebornPortal",
            "label": "score",
            "offset": 0,
            "slot": "3",
            "type": "t_uint256"
          },
          {
            "astId": 13920,
            "contract": "src/RebornPortal.sol:RebornPortal",
            "label": "creatorName",
            "offset": 0,
            "slot": "4",
            "type": "t_string_storage"
          }
        ],
        "numberOfBytes": "160"
      },
      "t_struct(Node)14966_storage": {
        "encoding": "inplace",
        "label": "struct RankingRedBlackTree.Node",
        "members": [
          {
            "astId": 14953,
            "contract": "src/RebornPortal.sol:RebornPortal",
            "label": "id",
            "offset": 0,
            "slot": "0",
            "type": "t_uint256"
          },
          {
            "astId": 14955,
            "contract": "src/RebornPortal.sol:RebornPortal",
            "label": "value",
            "offset": 0,
            "slot": "1",
            "type": "t_uint256"
          },
          {
            "astId": 14957,
            "contract": "src/RebornPortal.sol:RebornPortal",
            "label": "count",
            "offset": 0,
            "slot": "2",
            "type": "t_uint256"
          },
          {
            "astId": 14959,
            "contract": "src/RebornPortal.sol:RebornPortal",
            "label": "parent",
            "offset": 0,
            "slot": "3",
            "type": "t_uint256"
          },
          {
            "astId": 14961,
            "contract": "src/RebornPortal.sol:RebornPortal",
            "label": "left",
            "offset": 0,
            "slot": "4",
            "type": "t_uint256"
          },
          {
            "astId": 14963,
            "contract": "src/RebornPortal.sol:RebornPortal",
            "label": "right",
            "offset": 0,
            "slot": "5",
            "type": "t_uint256"
          },
          {
            "astId": 14965,
            "contract": "src/RebornPortal.sol:RebornPortal",
            "label": "red",
            "offset": 0,
            "slot": "6",
            "type": "t_bool"
          }
        ],
        "numberOfBytes": "224"
      },
      "t_struct(Pool)7933_storage": {
        "encoding": "inplace",
        "label": "struct PortalLib.Pool",
        "members": [
          {
            "astId": 7916,
            "contract": "src/RebornPortal.sol:RebornPortal",
            "label": "totalAmount",
            "offset": 0,
            "slot": "0",
            "type": "t_uint256"
          },
          {
            "astId": 7918,
            "contract": "src/RebornPortal.sol:RebornPortal",
            "label": "accRebornPerShare",
            "offset": 0,
            "slot": "1",
            "type": "t_uint256"
          },
          {
            "astId": 7920,
            "contract": "src/RebornPortal.sol:RebornPortal",
            "label": "accNativePerShare",
            "offset": 0,
            "slot": "2",
            "type": "t_uint256"
          },
          {
            "astId": 7922,
            "contract": "src/RebornPortal.sol:RebornPortal",
            "label": "epoch",
            "offset": 0,
            "slot": "3",
            "type": "t_uint256"
          },
          {
            "astId": 7924,
            "contract": "src/RebornPortal.sol:RebornPortal",
            "label": "lastUpdated",
            "offset": 0,
            "slot": "4",
            "type": "t_uint256"
          },
          {
            "astId": 7926,
            "contract": "src/RebornPortal.sol:RebornPortal",
            "label": "coindayCumulant",
            "offset": 0,
            "slot": "5",
            "type": "t_uint256"
          },
          {
            "astId": 7928,
            "contract": "src/RebornPortal.sol:RebornPortal",
            "label": "coindayUpdateLastTime",
            "offset": 0,
            "slot": "6",
            "type": "t_uint256"
          },
          {
            "astId": 7930,
            "contract": "src/RebornPortal.sol:RebornPortal",
            "label": "totalForwardTribute",
            "offset": 0,
            "slot": "7",
            "type": "t_uint256"
          },
          {
            "astId": 7932,
            "contract": "src/RebornPortal.sol:RebornPortal",
            "label": "totalReverseTribute",
            "offset": 0,
            "slot": "8",
            "type": "t_uint256"
          }
        ],
        "numberOfBytes": "288"
      },
      "t_struct(Portfolio)7953_storage": {
        "encoding": "inplace",
        "label": "struct PortalLib.Portfolio",
        "members": [
          {
            "astId": 7935,
            "contract": "src/RebornPortal.sol:RebornPortal",
            "label": "accumulativeAmount",
            "offset": 0,
            "slot": "0",
            "type": "t_uint256"
          },
          {
            "astId": 7937,
            "contract": "src/RebornPortal.sol:RebornPortal",
            "label": "rebornRewardDebt",
            "offset": 0,
            "slot": "1",
            "type": "t_uint256"
          },
          {
            "astId": 7939,
            "contract": "src/RebornPortal.sol:RebornPortal",
            "label": "nativeRewardDebt",
            "offset": 0,
            "slot": "2",
            "type": "t_uint256"
          },
          {
            "astId": 7942,
            "contract": "src/RebornPortal.sol:RebornPortal",
            "label": "pendingOwnerRebornReward",
            "offset": 0,
            "slot": "3",
            "type": "t_uint256"
          },
          {
            "astId": 7944,
            "contract": "src/RebornPortal.sol:RebornPortal",
            "label": "pendingOwnerNativeReward",
            "offset": 0,
            "slot": "4",
            "type": "t_uint256"
          },
          {
            "astId": 7946,
            "contract": "src/RebornPortal.sol:RebornPortal",
            "label": "coindayCumulant",
            "offset": 0,
            "slot": "5",
            "type": "t_uint256"
          },
          {
            "astId": 7948,
            "contract": "src/RebornPortal.sol:RebornPortal",
            "label": "coindayUpdateLastTime",
            "offset": 0,
            "slot": "6",
            "type": "t_uint256"
          },
          {
            "astId": 7950,
            "contract": "src/RebornPortal.sol:RebornPortal",
            "label": "totalForwardTribute",
            "offset": 0,
            "slot": "7",
            "type": "t_uint256"
          },
          {
            "astId": 7952,
            "contract": "src/RebornPortal.sol:RebornPortal",
            "label": "totalReverseTribute",
            "offset": 0,
            "slot": "8",
            "type": "t_uint256"
          }
        ],
        "numberOfBytes": "288"
      },
      "t_struct(ReferrerRewardFees)7914_storage": {
        "encoding": "inplace",
        "label": "struct PortalLib.ReferrerRewardFees",
        "members": [
          {
            "astId": 7905,
            "contract": "src/RebornPortal.sol:RebornPortal",
            "label": "incarnateRef1Fee",
            "offset": 0,
            "slot": "0",
            "type": "t_uint16"
          },
          {
            "astId": 7907,
            "contract": "src/RebornPortal.sol:RebornPortal",
            "label": "incarnateRef2Fee",
            "offset": 2,
            "slot": "0",
            "type": "t_uint16"
          },
          {
            "astId": 7909,
            "contract": "src/RebornPortal.sol:RebornPortal",
            "label": "vaultRef1Fee",
            "offset": 4,
            "slot": "0",
            "type": "t_uint16"
          },
          {
            "astId": 7911,
            "contract": "src/RebornPortal.sol:RebornPortal",
            "label": "vaultRef2Fee",
            "offset": 6,
            "slot": "0",
            "type": "t_uint16"
          },
          {
            "astId": 7913,
            "contract": "src/RebornPortal.sol:RebornPortal",
            "label": "_slotPlaceholder",
            "offset": 8,
            "slot": "0",
            "type": "t_uint192"
          }
        ],
        "numberOfBytes": "32"
      },
      "t_struct(RequestStatus)13973_storage": {
        "encoding": "inplace",
        "label": "struct IRebornDefination.RequestStatus",
        "members": [
          {
            "astId": 13962,
            "contract": "src/RebornPortal.sol:RebornPortal",
            "label": "fulfilled",
            "offset": 0,
            "slot": "0",
            "type": "t_bool"
          },
          {
            "astId": 13964,
            "contract": "src/RebornPortal.sol:RebornPortal",
            "label": "exists",
            "offset": 1,
            "slot": "0",
            "type": "t_bool"
          },
          {
            "astId": 13966,
            "contract": "src/RebornPortal.sol:RebornPortal",
            "label": "executed",
            "offset": 2,
            "slot": "0",
            "type": "t_bool"
          },
          {
            "astId": 13969,
            "contract": "src/RebornPortal.sol:RebornPortal",
            "label": "t",
            "offset": 3,
            "slot": "0",
            "type": "t_enum(AirdropVrfType)13957"
          },
          {
            "astId": 13972,
            "contract": "src/RebornPortal.sol:RebornPortal",
            "label": "randomWords",
            "offset": 0,
            "slot": "1",
            "type": "t_array(t_uint256)dyn_storage"
          }
        ],
        "numberOfBytes": "64"
      },
      "t_struct(SeasonData)13953_storage": {
        "encoding": "inplace",
        "label": "struct IRebornDefination.SeasonData",
        "members": [
          {
            "astId": 13926,
            "contract": "src/RebornPortal.sol:RebornPortal",
            "label": "pools",
            "offset": 0,
            "slot": "0",
            "type": "t_mapping(t_uint256,t_struct(Pool)7933_storage)"
          },
          {
            "astId": 13934,
            "contract": "src/RebornPortal.sol:RebornPortal",
            "label": "portfolios",
            "offset": 0,
            "slot": "1",
            "type": "t_mapping(t_address,t_mapping(t_uint256,t_struct(Portfolio)7953_storage))"
          },
          {
            "astId": 13937,
            "contract": "src/RebornPortal.sol:RebornPortal",
            "label": "_tributeRank",
            "offset": 0,
            "slot": "2",
            "type": "t_struct(Data)18081_storage"
          },
          {
            "astId": 13940,
            "contract": "src/RebornPortal.sol:RebornPortal",
            "label": "_scoreRank",
            "offset": 0,
            "slot": "7",
            "type": "t_struct(Data)18081_storage"
          },
          {
            "astId": 13944,
            "contract": "src/RebornPortal.sol:RebornPortal",
            "label": "_oldStakeAmounts",
            "offset": 0,
            "slot": "12",
            "type": "t_mapping(t_uint256,t_uint256)"
          },
          {
            "astId": 13948,
            "contract": "src/RebornPortal.sol:RebornPortal",
            "label": "_isTopHundredScore",
            "offset": 0,
            "slot": "13",
            "type": "t_struct(BitMap)27856_storage"
          },
          {
            "astId": 13950,
            "contract": "src/RebornPortal.sol:RebornPortal",
            "label": "_minScore",
            "offset": 0,
            "slot": "14",
            "type": "t_uint256"
          },
          {
            "astId": 13952,
            "contract": "src/RebornPortal.sol:RebornPortal",
            "label": "_jackpot",
            "offset": 0,
            "slot": "15",
            "type": "t_uint256"
          }
        ],
        "numberOfBytes": "512"
      },
      "t_struct(Tree)14976_storage": {
        "encoding": "inplace",
        "label": "struct RankingRedBlackTree.Tree",
        "members": [
          {
            "astId": 14968,
            "contract": "src/RebornPortal.sol:RebornPortal",
            "label": "root",
            "offset": 0,
            "slot": "0",
            "type": "t_uint256"
          },
          {
            "astId": 14973,
            "contract": "src/RebornPortal.sol:RebornPortal",
            "label": "nodes",
            "offset": 0,
            "slot": "1",
            "type": "t_mapping(t_uint256,t_struct(Node)14966_storage)"
          },
          {
            "astId": 14975,
            "contract": "src/RebornPortal.sol:RebornPortal",
            "label": "counter",
            "offset": 0,
            "slot": "2",
            "type": "t_uint256"
          }
        ],
        "numberOfBytes": "96"
      },
      "t_struct(VrfConf)7983_storage": {
        "encoding": "inplace",
        "label": "struct PortalLib.VrfConf",
        "members": [
          {
            "astId": 7974,
            "contract": "src/RebornPortal.sol:RebornPortal",
            "label": "keyHash",
            "offset": 0,
            "slot": "0",
            "type": "t_bytes32"
          },
          {
            "astId": 7976,
            "contract": "src/RebornPortal.sol:RebornPortal",
            "label": "s_subscriptionId",
            "offset": 0,
            "slot": "1",
            "type": "t_uint64"
          },
          {
            "astId": 7978,
            "contract": "src/RebornPortal.sol:RebornPortal",
            "label": "callbackGasLimit",
            "offset": 8,
            "slot": "1",
            "type": "t_uint32"
          },
          {
            "astId": 7980,
            "contract": "src/RebornPortal.sol:RebornPortal",
            "label": "numWords",
            "offset": 12,
            "slot": "1",
            "type": "t_uint32"
          },
          {
            "astId": 7982,
            "contract": "src/RebornPortal.sol:RebornPortal",
            "label": "requestConfirmations",
            "offset": 16,
            "slot": "1",
            "type": "t_uint16"
          }
        ],
        "numberOfBytes": "64"
      },
      "t_uint128": {
        "encoding": "inplace",
        "label": "uint128",
        "numberOfBytes": "16"
      },
      "t_uint16": {
        "encoding": "inplace",
        "label": "uint16",
        "numberOfBytes": "2"
      },
      "t_uint192": {
        "encoding": "inplace",
        "label": "uint192",
        "numberOfBytes": "24"
      },
      "t_uint256": {
        "encoding": "inplace",
        "label": "uint256",
        "numberOfBytes": "32"
      },
      "t_uint32": {
        "encoding": "inplace",
        "label": "uint32",
        "numberOfBytes": "4"
      },
      "t_uint40": {
        "encoding": "inplace",
        "label": "uint40",
        "numberOfBytes": "5"
      },
      "t_uint48": {
        "encoding": "inplace",
        "label": "uint48",
        "numberOfBytes": "6"
      },
      "t_uint64": {
        "encoding": "inplace",
        "label": "uint64",
        "numberOfBytes": "8"
      },
      "t_uint8": {
        "encoding": "inplace",
        "label": "uint8",
        "numberOfBytes": "1"
      }
    }
  }
}