{
  "address": "0xBfdD98EF0CA0330b68D2ea8BFB9F39fc2F1dcA99",
  "abi": [
    {
      "inputs": [],
      "name": "ApproveFromNonZeroToNonZeroAllowance",
      "type": "error"
    },
    {
      "inputs": [],
      "name": "ApproveFromZeroAddress",
      "type": "error"
    },
    {
      "inputs": [],
      "name": "ApproveToCaller",
      "type": "error"
    },
    {
      "inputs": [],
      "name": "ApproveToCurrentOwner",
      "type": "error"
    },
    {
      "inputs": [],
      "name": "ApproveToZeroAddress",
      "type": "error"
    },
    {
      "inputs": [],
      "name": "BeaconImplementationIsNotContract",
      "type": "error"
    },
    {
      "inputs": [],
      "name": "BurnAmountExceedsBalance",
      "type": "error"
    },
    {
      "inputs": [],
      "name": "BurnFromZeroAddress",
      "type": "error"
    },
    {
      "inputs": [],
      "name": "CallerNotOwner",
      "type": "error"
    },
    {
      "inputs": [],
      "name": "CallerNotPendingOwner",
      "type": "error"
    },
    {
      "inputs": [],
      "name": "CallerNotTokenOwnerOrApproved",
      "type": "error"
    },
    {
      "inputs": [],
      "name": "ContractAlreadyInitialized",
      "type": "error"
    },
    {
      "inputs": [],
      "name": "ContractIsInitializing",
      "type": "error"
    },
    {
      "inputs": [],
      "name": "ContractIsNotInitializing",
      "type": "error"
    },
    {
      "inputs": [],
      "name": "DecreasedAllowanceBelowZero",
      "type": "error"
    },
    {
      "inputs": [],
      "name": "DelegateCallToNonContract",
      "type": "error"
    },
    {
      "inputs": [],
      "name": "DirectionError",
      "type": "error"
    },
    {
      "inputs": [],
      "name": "DropLocked",
      "type": "error"
    },
    {
      "inputs": [],
      "name": "DropOff",
      "type": "error"
    },
    {
      "inputs": [],
      "name": "ERC20OperationDidNotSucceed",
      "type": "error"
    },
    {
      "inputs": [],
      "name": "IncarnationExceedLimit",
      "type": "error"
    },
    {
      "inputs": [],
      "name": "InsufficientAllowance",
      "type": "error"
    },
    {
      "inputs": [],
      "name": "InsufficientAmount",
      "type": "error"
    },
    {
      "inputs": [],
      "name": "InvalidParams",
      "type": "error"
    },
    {
      "inputs": [],
      "name": "InvalidSignature",
      "type": "error"
    },
    {
      "inputs": [],
      "name": "InvalidSignatureLength",
      "type": "error"
    },
    {
      "inputs": [],
      "name": "InvalidSignatureSValue",
      "type": "error"
    },
    {
      "inputs": [],
      "name": "InvalidTokenID",
      "type": "error"
    },
    {
      "inputs": [],
      "name": "MintToZeroAddress",
      "type": "error"
    },
    {
      "inputs": [],
      "name": "MustBeCalledThroughActiveProxy",
      "type": "error"
    },
    {
      "inputs": [],
      "name": "MustBeCalledThroughDelegatecall",
      "type": "error"
    },
    {
      "inputs": [],
      "name": "NewAdminIsZeroAddress",
      "type": "error"
    },
    {
      "inputs": [],
      "name": "NewBeaconIsNotContract",
      "type": "error"
    },
    {
      "inputs": [],
      "name": "NewImplementationIsNotContract",
      "type": "error"
    },
    {
      "inputs": [],
      "name": "NewImplementationIsNotUUPS",
      "type": "error"
    },
    {
      "inputs": [],
      "name": "NotSetBurnPoolAddress",
      "type": "error"
    },
    {
      "inputs": [],
      "name": "NotSigner",
      "type": "error"
    },
    {
      "inputs": [
        {
          "internalType": "address",
          "name": "have",
          "type": "address"
        },
        {
          "internalType": "address",
          "name": "want",
          "type": "address"
        }
      ],
      "name": "OnlyCoordinatorCanFulfill",
      "type": "error"
    },
    {
      "inputs": [],
      "name": "OnlySimulatedBackend",
      "type": "error"
    },
    {
      "inputs": [],
      "name": "PausableNotPaused",
      "type": "error"
    },
    {
      "inputs": [],
      "name": "PausablePaused",
      "type": "error"
    },
    {
      "inputs": [],
      "name": "PermitDidNotSucceed",
      "type": "error"
    },
    {
      "inputs": [],
      "name": "ReentrantCall",
      "type": "error"
    },
    {
      "inputs": [],
      "name": "SameSeed",
      "type": "error"
    },
    {
      "inputs": [],
      "name": "SignatureExpired",
      "type": "error"
    },
    {
      "inputs": [],
      "name": "TokenAlreadyMinted",
      "type": "error"
    },
    {
      "inputs": [],
      "name": "TransferAmountExceedsBalance",
      "type": "error"
    },
    {
      "inputs": [],
      "name": "TransferFromIncorrectOwner",
      "type": "error"
    },
    {
      "inputs": [],
      "name": "TransferFromZeroAddress",
      "type": "error"
    },
    {
      "inputs": [],
      "name": "TransferToNonERC721ReceiverImplementer",
      "type": "error"
    },
    {
      "inputs": [],
      "name": "TransferToZeroAddress",
      "type": "error"
    },
    {
      "inputs": [],
      "name": "UnsupportedProxiableUUID",
      "type": "error"
    },
    {
      "inputs": [],
      "name": "ZeroAddressCoordinatorSet",
      "type": "error"
    },
    {
      "inputs": [],
      "name": "ZeroAddressOwnerSet",
      "type": "error"
    },
    {
      "inputs": [],
      "name": "ZeroAddressSet",
      "type": "error"
    },
    {
      "inputs": [],
      "name": "ZeroOwnerSet",
      "type": "error"
    },
    {
      "anonymous": false,
      "inputs": [
        {
          "indexed": false,
          "internalType": "address",
          "name": "previousAdmin",
          "type": "address"
        },
        {
          "indexed": false,
          "internalType": "address",
          "name": "newAdmin",
          "type": "address"
        }
      ],
      "name": "AdminChanged",
      "type": "event"
    },
    {
      "anonymous": false,
      "inputs": [
        {
          "indexed": true,
          "internalType": "address",
          "name": "owner",
          "type": "address"
        },
        {
          "indexed": true,
          "internalType": "address",
          "name": "approved",
          "type": "address"
        },
        {
          "indexed": true,
          "internalType": "uint256",
          "name": "tokenId",
          "type": "uint256"
        }
      ],
      "name": "Approval",
      "type": "event"
    },
    {
      "anonymous": false,
      "inputs": [
        {
          "indexed": true,
          "internalType": "address",
          "name": "owner",
          "type": "address"
        },
        {
          "indexed": true,
          "internalType": "address",
          "name": "operator",
          "type": "address"
        },
        {
          "indexed": false,
          "internalType": "bool",
          "name": "approved",
          "type": "bool"
        }
      ],
      "name": "ApprovalForAll",
      "type": "event"
    },
    {
      "anonymous": false,
      "inputs": [
        {
          "indexed": true,
          "internalType": "address",
          "name": "user",
          "type": "address"
        },
        {
          "indexed": false,
          "internalType": "uint256",
          "name": "amount",
          "type": "uint256"
        },
        {
          "indexed": true,
          "internalType": "uint256",
          "name": "baptiseType",
          "type": "uint256"
        }
      ],
      "name": "Baptise",
      "type": "event"
    },
    {
      "anonymous": false,
      "inputs": [
        {
          "indexed": true,
          "internalType": "address",
          "name": "beacon",
          "type": "address"
        }
      ],
      "name": "BeaconUpgraded",
      "type": "event"
    },
    {
      "anonymous": false,
      "inputs": [
        {
          "indexed": true,
          "internalType": "address",
          "name": "account",
          "type": "address"
        },
        {
          "indexed": false,
          "internalType": "uint256",
          "name": "tokenId",
          "type": "uint256"
        },
        {
          "indexed": false,
          "internalType": "uint256",
          "name": "amount",
          "type": "uint256"
        },
        {
          "indexed": false,
          "internalType": "enum IRebornDefination.TributeDirection",
          "name": "tributeDirection",
          "type": "uint8"
        }
      ],
      "name": "DecreaseFromPool",
      "type": "event"
    },
    {
      "anonymous": false,
      "inputs": [
        {
          "indexed": false,
          "internalType": "uint256[]",
          "name": "tokenIds",
          "type": "uint256[]"
        }
      ],
      "name": "Drop",
      "type": "event"
    },
    {
      "anonymous": false,
      "inputs": [
        {
          "indexed": true,
          "internalType": "address",
          "name": "user",
          "type": "address"
        },
        {
          "indexed": true,
          "internalType": "uint256",
          "name": "tokenId",
          "type": "uint256"
        },
        {
          "indexed": false,
          "internalType": "uint256",
          "name": "amount",
          "type": "uint256"
        }
      ],
      "name": "Dry",
      "type": "event"
    },
    {
      "anonymous": false,
      "inputs": [
        {
          "indexed": true,
          "internalType": "bytes32",
          "name": "seed",
          "type": "bytes32"
        },
        {
          "indexed": true,
          "internalType": "address",
          "name": "user",
          "type": "address"
        },
        {
          "indexed": true,
          "internalType": "uint256",
          "name": "tokenId",
          "type": "uint256"
        },
        {
          "indexed": false,
          "internalType": "uint256",
          "name": "score",
          "type": "uint256"
        },
        {
          "indexed": false,
          "internalType": "uint256",
          "name": "reward",
          "type": "uint256"
        }
      ],
      "name": "Engrave",
      "type": "event"
    },
    {
      "anonymous": false,
      "inputs": [
        {
          "indexed": true,
          "internalType": "uint256",
          "name": "tokenId",
          "type": "uint256"
        },
        {
          "indexed": false,
          "internalType": "uint256",
          "name": "newLevel",
          "type": "uint256"
        },
        {
          "indexed": false,
          "internalType": "uint256",
          "name": "burnTokenAmount",
          "type": "uint256"
        }
      ],
      "name": "ForgedTo",
      "type": "event"
    },
    {
      "anonymous": false,
      "inputs": [
        {
          "indexed": true,
          "internalType": "address",
          "name": "user",
          "type": "address"
        },
        {
          "indexed": true,
          "internalType": "uint256",
          "name": "charTokenId",
          "type": "uint256"
        },
        {
          "indexed": false,
          "internalType": "uint256",
          "name": "talentNativePrice",
          "type": "uint256"
        },
        {
          "indexed": false,
          "internalType": "uint256",
          "name": "talentRebornPrice",
          "type": "uint256"
        },
        {
          "indexed": false,
          "internalType": "uint256",
          "name": "propertyNativePrice",
          "type": "uint256"
        },
        {
          "indexed": false,
          "internalType": "uint256",
          "name": "propertyRebornPrice",
          "type": "uint256"
        },
        {
          "indexed": false,
          "internalType": "uint256",
          "name": "soupPrice",
          "type": "uint256"
        }
      ],
      "name": "Incarnate",
      "type": "event"
    },
    {
      "anonymous": false,
      "inputs": [
        {
          "indexed": true,
          "internalType": "address",
          "name": "account",
          "type": "address"
        },
        {
          "indexed": false,
          "internalType": "uint256",
          "name": "tokenId",
          "type": "uint256"
        },
        {
          "indexed": false,
          "internalType": "uint256",
          "name": "amount",
          "type": "uint256"
        },
        {
          "indexed": false,
          "internalType": "enum IRebornDefination.TributeDirection",
          "name": "tributeDirection",
          "type": "uint8"
        }
      ],
      "name": "IncreaseToPool",
      "type": "event"
    },
    {
      "anonymous": false,
      "inputs": [
        {
          "indexed": true,
          "internalType": "address",
          "name": "user",
          "type": "address"
        },
        {
          "indexed": true,
          "internalType": "uint256",
          "name": "tokenId",
          "type": "uint256"
        },
        {
          "indexed": false,
          "internalType": "uint256",
          "name": "amount",
          "type": "uint256"
        },
        {
          "indexed": false,
          "internalType": "enum IRebornDefination.TributeDirection",
          "name": "tributeDirection",
          "type": "uint8"
        }
      ],
      "name": "Infuse",
      "type": "event"
    },
    {
      "anonymous": false,
      "inputs": [
        {
          "indexed": false,
          "internalType": "uint8",
          "name": "version",
          "type": "uint8"
        }
      ],
      "name": "Initialized",
      "type": "event"
    },
    {
      "anonymous": false,
      "inputs": [
        {
          "indexed": false,
          "internalType": "uint256",
          "name": "limit",
          "type": "uint256"
        }
      ],
      "name": "NewIncarnationLimit",
      "type": "event"
    },
    {
      "anonymous": false,
      "inputs": [
        {
          "indexed": false,
          "internalType": "uint256",
          "name": "",
          "type": "uint256"
        }
      ],
      "name": "NewSeason",
      "type": "event"
    },
    {
      "anonymous": false,
      "inputs": [
        {
          "indexed": false,
          "internalType": "uint256",
          "name": "price",
          "type": "uint256"
        }
      ],
      "name": "NewSoupPrice",
      "type": "event"
    },
    {
      "anonymous": false,
      "inputs": [
        {
          "indexed": true,
          "internalType": "address",
          "name": "previousOwner",
          "type": "address"
        },
        {
          "indexed": true,
          "internalType": "address",
          "name": "newOwner",
          "type": "address"
        }
      ],
      "name": "OwnershipTransferred",
      "type": "event"
    },
    {
      "anonymous": false,
      "inputs": [
        {
          "indexed": false,
          "internalType": "address",
          "name": "account",
          "type": "address"
        }
      ],
      "name": "Paused",
      "type": "event"
    },
    {
      "anonymous": false,
      "inputs": [
        {
          "indexed": false,
          "internalType": "address",
          "name": "piggyBank",
          "type": "address"
        }
      ],
      "name": "SetNewPiggyBank",
      "type": "event"
    },
    {
      "anonymous": false,
      "inputs": [
        {
          "indexed": false,
          "internalType": "uint256",
          "name": "piggyBankFee",
          "type": "uint256"
        }
      ],
      "name": "SetNewPiggyBankFee",
      "type": "event"
    },
    {
      "anonymous": false,
      "inputs": [
        {
          "indexed": true,
          "internalType": "address",
          "name": "from",
          "type": "address"
        },
        {
          "indexed": true,
          "internalType": "address",
          "name": "to",
          "type": "address"
        },
        {
          "indexed": true,
          "internalType": "uint256",
          "name": "tokenId",
          "type": "uint256"
        }
      ],
      "name": "Transfer",
      "type": "event"
    },
    {
      "anonymous": false,
      "inputs": [
        {
          "indexed": false,
          "internalType": "address",
          "name": "account",
          "type": "address"
        }
      ],
      "name": "Unpaused",
      "type": "event"
    },
    {
      "anonymous": false,
      "inputs": [
        {
          "indexed": true,
          "internalType": "address",
          "name": "implementation",
          "type": "address"
        }
      ],
      "name": "Upgraded",
      "type": "event"
    },
    {
      "anonymous": false,
      "inputs": [
        {
          "indexed": false,
          "internalType": "address",
          "name": "rewardVault",
          "type": "address"
        }
      ],
      "name": "VaultSet",
      "type": "event"
    },
    {
      "inputs": [
        {
          "internalType": "address",
          "name": "to",
          "type": "address"
        },
        {
          "internalType": "uint256",
          "name": "tokenId",
          "type": "uint256"
        }
      ],
      "name": "approve",
      "outputs": [],
      "stateMutability": "nonpayable",
      "type": "function"
    },
    {
      "inputs": [
        {
          "internalType": "address",
          "name": "owner",
          "type": "address"
        }
      ],
      "name": "balanceOf",
      "outputs": [
        {
          "internalType": "uint256",
          "name": "",
          "type": "uint256"
        }
      ],
      "stateMutability": "view",
      "type": "function"
    },
    {
      "inputs": [
        {
          "internalType": "address",
          "name": "user",
          "type": "address"
        },
        {
          "internalType": "uint256",
          "name": "amount",
          "type": "uint256"
        },
        {
          "internalType": "uint256",
          "name": "baptiseType",
          "type": "uint256"
        }
      ],
      "name": "baptise",
      "outputs": [],
      "stateMutability": "nonpayable",
      "type": "function"
    },
    {
      "inputs": [
        {
          "internalType": "uint256",
          "name": "amount",
          "type": "uint256"
        }
      ],
      "name": "burnFromBurnPool",
      "outputs": [],
      "stateMutability": "nonpayable",
      "type": "function"
    },
    {
      "inputs": [],
      "name": "burnPool",
      "outputs": [
        {
          "internalType": "address",
          "name": "",
          "type": "address"
        }
      ],
      "stateMutability": "view",
      "type": "function"
    },
    {
      "inputs": [
        {
          "internalType": "address",
          "name": "account",
          "type": "address"
        },
        {
          "internalType": "uint256",
          "name": "amount",
          "type": "uint256"
        },
        {
          "internalType": "enum PortalLib.RewardType",
          "name": "rewardType",
          "type": "uint8"
        }
      ],
      "name": "calculateReferReward",
      "outputs": [
        {
          "internalType": "address",
          "name": "ref1",
          "type": "address"
        },
        {
          "internalType": "uint256",
          "name": "ref1Reward",
          "type": "uint256"
        },
        {
          "internalType": "address",
          "name": "ref2",
          "type": "address"
        },
        {
          "internalType": "uint256",
          "name": "ref2Reward",
          "type": "uint256"
        }
      ],
      "stateMutability": "view",
      "type": "function"
    },
    {
      "inputs": [
        {
          "internalType": "bytes",
          "name": "",
          "type": "bytes"
        }
      ],
      "name": "checkUpkeep",
      "outputs": [
        {
          "internalType": "bool",
          "name": "upkeepNeeded",
          "type": "bool"
        },
        {
          "internalType": "bytes",
          "name": "performData",
          "type": "bytes"
        }
      ],
      "stateMutability": "view",
      "type": "function"
    },
    {
      "inputs": [
        {
          "internalType": "uint256[]",
          "name": "tokenIds",
          "type": "uint256[]"
        }
      ],
      "name": "claimNativeDrops",
      "outputs": [],
      "stateMutability": "nonpayable",
      "type": "function"
    },
    {
      "inputs": [],
      "name": "claimOwnership",
      "outputs": [],
      "stateMutability": "nonpayable",
      "type": "function"
    },
    {
      "inputs": [
        {
          "internalType": "uint256[]",
          "name": "tokenIds",
          "type": "uint256[]"
        }
      ],
      "name": "claimRebornDrops",
      "outputs": [],
      "stateMutability": "nonpayable",
      "type": "function"
    },
    {
      "inputs": [
        {
          "internalType": "bytes32",
          "name": "seed",
          "type": "bytes32"
        },
        {
          "internalType": "address",
          "name": "user",
          "type": "address"
        },
        {
          "internalType": "uint256",
          "name": "lifeReward",
          "type": "uint256"
        },
        {
          "internalType": "uint256",
          "name": "boostReward",
          "type": "uint256"
        },
        {
          "internalType": "uint256",
          "name": "score",
          "type": "uint256"
        },
        {
          "internalType": "uint256",
          "name": "age",
          "type": "uint256"
        },
        {
          "internalType": "uint256",
          "name": "nativeCost",
          "type": "uint256"
        },
        {
          "internalType": "uint256",
          "name": "rebornCost",
          "type": "uint256"
        },
        {
          "internalType": "string",
          "name": "creatorName",
          "type": "string"
        }
      ],
      "name": "engrave",
      "outputs": [],
      "stateMutability": "nonpayable",
      "type": "function"
    },
    {
      "inputs": [
        {
          "internalType": "uint256",
          "name": "tokenId",
          "type": "uint256"
        },
        {
          "internalType": "uint256",
          "name": "lastDropNativeTime",
          "type": "uint256"
        },
        {
          "internalType": "uint256",
          "name": "lastDropRebornTime",
          "type": "uint256"
        }
      ],
      "name": "fixLastDropTime",
      "outputs": [],
      "stateMutability": "nonpayable",
      "type": "function"
    },
    {
      "inputs": [
        {
          "internalType": "uint256",
          "name": "tokenId",
          "type": "uint256"
        },
        {
          "internalType": "address",
          "name": "user",
          "type": "address"
        }
      ],
      "name": "flattenUserDrop",
      "outputs": [],
      "stateMutability": "nonpayable",
      "type": "function"
    },
    {
      "inputs": [
        {
          "internalType": "uint256",
          "name": "tokenId",
          "type": "uint256"
        },
        {
          "internalType": "uint256",
          "name": "toLevel",
          "type": "uint256"
        }
      ],
      "name": "forging",
      "outputs": [],
      "stateMutability": "nonpayable",
      "type": "function"
    },
    {
      "inputs": [
        {
          "internalType": "uint256",
          "name": "tokenId",
          "type": "uint256"
        },
        {
          "internalType": "uint256",
          "name": "toLevel",
          "type": "uint256"
        },
        {
          "components": [
            {
              "internalType": "uint256",
              "name": "amount",
              "type": "uint256"
            },
            {
              "internalType": "uint256",
              "name": "deadline",
              "type": "uint256"
            },
            {
              "internalType": "bytes32",
              "name": "r",
              "type": "bytes32"
            },
            {
              "internalType": "bytes32",
              "name": "s",
              "type": "bytes32"
            },
            {
              "internalType": "uint8",
              "name": "v",
              "type": "uint8"
            }
          ],
          "internalType": "struct IRebornDefination.PermitParams",
          "name": "permitParams",
          "type": "tuple"
        }
      ],
      "name": "forging",
      "outputs": [],
      "stateMutability": "nonpayable",
      "type": "function"
    },
    {
      "inputs": [
        {
          "internalType": "uint256",
          "name": "tokenId",
          "type": "uint256"
        }
      ],
      "name": "getApproved",
      "outputs": [
        {
          "internalType": "address",
          "name": "",
          "type": "address"
        }
      ],
      "stateMutability": "view",
      "type": "function"
    },
    {
      "inputs": [
        {
          "internalType": "uint256",
          "name": "tokenId",
          "type": "uint256"
        },
        {
          "internalType": "address",
          "name": "account",
          "type": "address"
        }
      ],
      "name": "getCoinday",
      "outputs": [
        {
          "internalType": "uint256",
          "name": "userCoinday",
          "type": "uint256"
        },
        {
          "internalType": "uint256",
          "name": "poolCoinday",
          "type": "uint256"
        }
      ],
      "stateMutability": "view",
      "type": "function"
    },
    {
      "inputs": [],
      "name": "getDropConf",
      "outputs": [
        {
          "components": [
            {
              "internalType": "uint8",
              "name": "_dropOn",
              "type": "uint8"
            },
            {
              "internalType": "bool",
              "name": "_lockRequestDropReborn",
              "type": "bool"
            },
            {
              "internalType": "bool",
              "name": "_lockRequestDropNative",
              "type": "bool"
            },
            {
              "internalType": "uint24",
              "name": "_rebornDropInterval",
              "type": "uint24"
            },
            {
              "internalType": "uint24",
              "name": "_nativeDropInterval",
              "type": "uint24"
            },
            {
              "internalType": "uint32",
              "name": "_rebornDropLastUpdate",
              "type": "uint32"
            },
            {
              "internalType": "uint32",
              "name": "_nativeDropLastUpdate",
              "type": "uint32"
            },
            {
              "internalType": "uint16",
              "name": "_nativeTopDropRatio",
              "type": "uint16"
            },
            {
              "internalType": "uint16",
              "name": "_nativeRaffleDropRatio",
              "type": "uint16"
            },
            {
              "internalType": "uint40",
              "name": "_rebornTopEthAmount",
              "type": "uint40"
            },
            {
              "internalType": "uint40",
              "name": "_rebornRaffleEthAmount",
              "type": "uint40"
            },
            {
              "internalType": "uint8",
              "name": "_placeholder",
              "type": "uint8"
            }
          ],
          "internalType": "struct PortalLib.AirdropConf",
          "name": "",
          "type": "tuple"
        }
      ],
      "stateMutability": "view",
      "type": "function"
    },
    {
      "inputs": [
        {
          "internalType": "uint256",
          "name": "season",
          "type": "uint256"
        },
        {
          "internalType": "address",
          "name": "user",
          "type": "address"
        }
      ],
      "name": "getIncarnateCount",
      "outputs": [
        {
          "internalType": "uint256",
          "name": "",
          "type": "uint256"
        }
      ],
      "stateMutability": "view",
      "type": "function"
    },
    {
      "inputs": [],
      "name": "getIncarnateLimit",
      "outputs": [
        {
          "internalType": "uint256",
          "name": "",
          "type": "uint256"
        }
      ],
      "stateMutability": "view",
      "type": "function"
    },
    {
      "inputs": [],
      "name": "getJackPot",
      "outputs": [
        {
          "internalType": "uint256",
          "name": "",
          "type": "uint256"
        }
      ],
      "stateMutability": "view",
      "type": "function"
    },
    {
      "inputs": [
        {
          "internalType": "uint256",
          "name": "tokenId",
          "type": "uint256"
        }
      ],
      "name": "getPool",
      "outputs": [
        {
          "components": [
            {
              "internalType": "uint256",
              "name": "totalAmount",
              "type": "uint256"
            },
            {
              "internalType": "uint256",
              "name": "accRebornPerShare",
              "type": "uint256"
            },
            {
              "internalType": "uint256",
              "name": "accNativePerShare",
              "type": "uint256"
            },
            {
              "internalType": "uint128",
              "name": "droppedRebornTotal",
              "type": "uint128"
            },
            {
              "internalType": "uint128",
              "name": "droppedNativeTotal",
              "type": "uint128"
            },
            {
              "internalType": "uint256",
              "name": "coindayCumulant",
              "type": "uint256"
            },
            {
              "internalType": "uint32",
              "name": "coindayUpdateLastTime",
              "type": "uint32"
            },
            {
              "internalType": "uint112",
              "name": "totalForwardTribute",
              "type": "uint112"
            },
            {
              "internalType": "uint112",
              "name": "totalReverseTribute",
              "type": "uint112"
            },
            {
              "internalType": "uint32",
              "name": "lastDropNativeTime",
              "type": "uint32"
            },
            {
              "internalType": "uint32",
              "name": "lastDropRebornTime",
              "type": "uint32"
            },
            {
              "internalType": "uint192",
              "name": "placeholder",
              "type": "uint192"
            }
          ],
          "internalType": "struct PortalLib.Pool",
          "name": "",
          "type": "tuple"
        }
      ],
      "stateMutability": "view",
      "type": "function"
    },
    {
      "inputs": [
        {
          "internalType": "address",
          "name": "user",
          "type": "address"
        },
        {
          "internalType": "uint256",
          "name": "tokenId",
          "type": "uint256"
        }
      ],
      "name": "getPortfolio",
      "outputs": [
        {
          "components": [
            {
              "internalType": "uint256",
              "name": "accumulativeAmount",
              "type": "uint256"
            },
            {
              "internalType": "uint128",
              "name": "rebornRewardDebt",
              "type": "uint128"
            },
            {
              "internalType": "uint128",
              "name": "nativeRewardDebt",
              "type": "uint128"
            },
            {
              "internalType": "uint128",
              "name": "pendingOwnerRebornReward",
              "type": "uint128"
            },
            {
              "internalType": "uint128",
              "name": "pendingOwnerNativeReward",
              "type": "uint128"
            },
            {
              "internalType": "uint256",
              "name": "coindayCumulant",
              "type": "uint256"
            },
            {
              "internalType": "uint32",
              "name": "coindayUpdateLastTime",
              "type": "uint32"
            },
            {
              "internalType": "uint112",
              "name": "totalForwardTribute",
              "type": "uint112"
            },
            {
              "internalType": "uint112",
              "name": "totalReverseTribute",
              "type": "uint112"
            }
          ],
          "internalType": "struct PortalLib.Portfolio",
          "name": "",
          "type": "tuple"
        }
      ],
      "stateMutability": "view",
      "type": "function"
    },
    {
      "inputs": [
        {
          "internalType": "address",
          "name": "account",
          "type": "address"
        }
      ],
      "name": "getReferrers",
      "outputs": [
        {
          "internalType": "address",
          "name": "referrer1",
          "type": "address"
        },
        {
          "internalType": "address",
          "name": "referrer2",
          "type": "address"
        }
      ],
      "stateMutability": "view",
      "type": "function"
    },
    {
      "inputs": [
        {
          "components": [
            {
              "internalType": "uint256",
              "name": "talentNativePrice",
              "type": "uint256"
            },
            {
              "internalType": "uint256",
              "name": "talentRebornPrice",
              "type": "uint256"
            },
            {
              "internalType": "uint256",
              "name": "propertyNativePrice",
              "type": "uint256"
            },
            {
              "internalType": "uint256",
              "name": "propertyRebornPrice",
              "type": "uint256"
            }
          ],
          "internalType": "struct IRebornDefination.InnateParams",
          "name": "innate",
          "type": "tuple"
        },
        {
          "internalType": "address",
          "name": "referrer",
          "type": "address"
        },
        {
          "components": [
            {
              "internalType": "uint256",
              "name": "soupPrice",
              "type": "uint256"
            },
            {
              "internalType": "uint256",
              "name": "charTokenId",
              "type": "uint256"
            },
            {
              "internalType": "uint256",
              "name": "deadline",
              "type": "uint256"
            },
            {
              "internalType": "bytes32",
              "name": "r",
              "type": "bytes32"
            },
            {
              "internalType": "bytes32",
              "name": "s",
              "type": "bytes32"
            },
            {
              "internalType": "uint8",
              "name": "v",
              "type": "uint8"
            }
          ],
          "internalType": "struct IRebornDefination.SoupParams",
          "name": "soupParams",
          "type": "tuple"
        },
        {
          "components": [
            {
              "internalType": "uint256",
              "name": "amount",
              "type": "uint256"
            },
            {
              "internalType": "uint256",
              "name": "deadline",
              "type": "uint256"
            },
            {
              "internalType": "bytes32",
              "name": "r",
              "type": "bytes32"
            },
            {
              "internalType": "bytes32",
              "name": "s",
              "type": "bytes32"
            },
            {
              "internalType": "uint8",
              "name": "v",
              "type": "uint8"
            }
          ],
          "internalType": "struct IRebornDefination.PermitParams",
          "name": "permitParams",
          "type": "tuple"
        }
      ],
      "name": "incarnate",
      "outputs": [],
      "stateMutability": "payable",
      "type": "function"
    },
    {
      "inputs": [
        {
          "components": [
            {
              "internalType": "uint256",
              "name": "talentNativePrice",
              "type": "uint256"
            },
            {
              "internalType": "uint256",
              "name": "talentRebornPrice",
              "type": "uint256"
            },
            {
              "internalType": "uint256",
              "name": "propertyNativePrice",
              "type": "uint256"
            },
            {
              "internalType": "uint256",
              "name": "propertyRebornPrice",
              "type": "uint256"
            }
          ],
          "internalType": "struct IRebornDefination.InnateParams",
          "name": "innate",
          "type": "tuple"
        },
        {
          "internalType": "address",
          "name": "referrer",
          "type": "address"
        },
        {
          "components": [
            {
              "internalType": "uint256",
              "name": "soupPrice",
              "type": "uint256"
            },
            {
              "internalType": "uint256",
              "name": "charTokenId",
              "type": "uint256"
            },
            {
              "internalType": "uint256",
              "name": "deadline",
              "type": "uint256"
            },
            {
              "internalType": "bytes32",
              "name": "r",
              "type": "bytes32"
            },
            {
              "internalType": "bytes32",
              "name": "s",
              "type": "bytes32"
            },
            {
              "internalType": "uint8",
              "name": "v",
              "type": "uint8"
            }
          ],
          "internalType": "struct IRebornDefination.SoupParams",
          "name": "soupParams",
          "type": "tuple"
        }
      ],
      "name": "incarnate",
      "outputs": [],
      "stateMutability": "payable",
      "type": "function"
    },
    {
      "inputs": [
        {
          "internalType": "uint256",
          "name": "tokenId",
          "type": "uint256"
        },
        {
          "internalType": "uint256",
          "name": "amount",
          "type": "uint256"
        },
        {
          "internalType": "enum IRebornDefination.TributeDirection",
          "name": "tributeDirection",
          "type": "uint8"
        }
      ],
      "name": "infuse",
      "outputs": [],
      "stateMutability": "nonpayable",
      "type": "function"
    },
    {
      "inputs": [
        {
          "internalType": "uint256",
          "name": "tokenId",
          "type": "uint256"
        },
        {
          "internalType": "uint256",
          "name": "amount",
          "type": "uint256"
        },
        {
          "internalType": "enum IRebornDefination.TributeDirection",
          "name": "tributeDirection",
          "type": "uint8"
        },
        {
          "internalType": "uint256",
          "name": "permitAmount",
          "type": "uint256"
        },
        {
          "internalType": "uint256",
          "name": "deadline",
          "type": "uint256"
        },
        {
          "internalType": "bytes32",
          "name": "r",
          "type": "bytes32"
        },
        {
          "internalType": "bytes32",
          "name": "s",
          "type": "bytes32"
        },
        {
          "internalType": "uint8",
          "name": "v",
          "type": "uint8"
        }
      ],
      "name": "infuse",
      "outputs": [],
      "stateMutability": "nonpayable",
      "type": "function"
    },
    {
      "inputs": [
        {
          "internalType": "contract RBT",
          "name": "rebornToken_",
          "type": "address"
        },
        {
          "internalType": "address",
          "name": "owner_",
          "type": "address"
        },
        {
          "internalType": "string",
          "name": "name_",
          "type": "string"
        },
        {
          "internalType": "string",
          "name": "symbol_",
          "type": "string"
        },
        {
          "internalType": "address",
          "name": "vrfCoordinator_",
          "type": "address"
        }
      ],
      "name": "initialize",
      "outputs": [],
      "stateMutability": "nonpayable",
      "type": "function"
    },
    {
      "inputs": [
        {
          "internalType": "uint256",
          "name": "target",
          "type": "uint256"
        }
      ],
      "name": "initializeSeason",
      "outputs": [],
      "stateMutability": "payable",
      "type": "function"
    },
    {
      "inputs": [
        {
          "internalType": "address",
          "name": "owner",
          "type": "address"
        },
        {
          "internalType": "address",
          "name": "operator",
          "type": "address"
        }
      ],
      "name": "isApprovedForAll",
      "outputs": [
        {
          "internalType": "bool",
          "name": "",
          "type": "bool"
        }
      ],
      "stateMutability": "view",
      "type": "function"
    },
    {
      "inputs": [],
      "name": "name",
      "outputs": [
        {
          "internalType": "string",
          "name": "",
          "type": "string"
        }
      ],
      "stateMutability": "view",
      "type": "function"
    },
    {
      "inputs": [],
      "name": "owner",
      "outputs": [
        {
          "internalType": "address",
          "name": "",
          "type": "address"
        }
      ],
      "stateMutability": "view",
      "type": "function"
    },
    {
      "inputs": [
        {
          "internalType": "uint256",
          "name": "tokenId",
          "type": "uint256"
        }
      ],
      "name": "ownerOf",
      "outputs": [
        {
          "internalType": "address",
          "name": "",
          "type": "address"
        }
      ],
      "stateMutability": "view",
      "type": "function"
    },
    {
      "inputs": [],
      "name": "pause",
      "outputs": [],
      "stateMutability": "nonpayable",
      "type": "function"
    },
    {
      "inputs": [],
      "name": "paused",
      "outputs": [
        {
          "internalType": "bool",
          "name": "",
          "type": "bool"
        }
      ],
      "stateMutability": "view",
      "type": "function"
    },
    {
      "inputs": [
        {
          "internalType": "uint256[]",
          "name": "tokenIds",
          "type": "uint256[]"
        }
      ],
      "name": "pendingDrop",
      "outputs": [
        {
          "internalType": "uint256",
          "name": "pNative",
          "type": "uint256"
        },
        {
          "internalType": "uint256",
          "name": "pReborn",
          "type": "uint256"
        }
      ],
      "stateMutability": "view",
      "type": "function"
    },
    {
      "inputs": [],
      "name": "pendingOwner",
      "outputs": [
        {
          "internalType": "address",
          "name": "",
          "type": "address"
        }
      ],
      "stateMutability": "view",
      "type": "function"
    },
    {
      "inputs": [
        {
          "internalType": "bytes",
          "name": "performData",
          "type": "bytes"
        }
      ],
      "name": "performUpkeep",
      "outputs": [],
      "stateMutability": "nonpayable",
      "type": "function"
    },
    {
      "inputs": [],
      "name": "proxiableUUID",
      "outputs": [
        {
          "internalType": "bytes32",
          "name": "",
          "type": "bytes32"
        }
      ],
      "stateMutability": "view",
      "type": "function"
    },
    {
      "inputs": [
        {
          "internalType": "uint256",
          "name": "requestId",
          "type": "uint256"
        },
        {
          "internalType": "uint256[]",
          "name": "randomWords",
          "type": "uint256[]"
        }
      ],
      "name": "rawFulfillRandomWords",
      "outputs": [],
      "stateMutability": "nonpayable",
      "type": "function"
    },
    {
      "inputs": [
        {
          "internalType": "uint256",
          "name": "tokenId",
          "type": "uint256"
        }
      ],
      "name": "readCharProperty",
      "outputs": [
        {
          "components": [
            {
              "internalType": "uint8",
              "name": "currentAP",
              "type": "uint8"
            },
            {
              "internalType": "uint8",
              "name": "maxAP",
              "type": "uint8"
            },
            {
              "internalType": "uint24",
              "name": "restoreTimePerAP",
              "type": "uint24"
            },
            {
              "internalType": "uint32",
              "name": "lastTimeAPUpdate",
              "type": "uint32"
            },
            {
              "internalType": "uint8",
              "name": "level",
              "type": "uint8"
            }
          ],
          "internalType": "struct PortalLib.CharacterProperty",
          "name": "",
          "type": "tuple"
        }
      ],
      "stateMutability": "view",
      "type": "function"
    },
    {
      "inputs": [],
      "name": "rebornToken",
      "outputs": [
        {
          "internalType": "contract RBT",
          "name": "",
          "type": "address"
        }
      ],
      "stateMutability": "view",
      "type": "function"
    },
    {
      "inputs": [],
      "name": "renounceOwnership",
      "outputs": [],
      "stateMutability": "nonpayable",
      "type": "function"
    },
    {
      "inputs": [
        {
          "internalType": "address",
          "name": "from",
          "type": "address"
        },
        {
          "internalType": "address",
          "name": "to",
          "type": "address"
        },
        {
          "internalType": "uint256",
          "name": "tokenId",
          "type": "uint256"
        }
      ],
      "name": "safeTransferFrom",
      "outputs": [],
      "stateMutability": "nonpayable",
      "type": "function"
    },
    {
      "inputs": [
        {
          "internalType": "address",
          "name": "from",
          "type": "address"
        },
        {
          "internalType": "address",
          "name": "to",
          "type": "address"
        },
        {
          "internalType": "uint256",
          "name": "tokenId",
          "type": "uint256"
        },
        {
          "internalType": "bytes",
          "name": "data",
          "type": "bytes"
        }
      ],
      "name": "safeTransferFrom",
      "outputs": [],
      "stateMutability": "nonpayable",
      "type": "function"
    },
    {
      "inputs": [
        {
          "internalType": "bytes32",
          "name": "seed",
          "type": "bytes32"
        }
      ],
      "name": "seedExists",
      "outputs": [
        {
          "internalType": "bool",
          "name": "",
          "type": "bool"
        }
      ],
      "stateMutability": "view",
      "type": "function"
    },
    {
      "inputs": [
        {
          "internalType": "address",
          "name": "operator",
          "type": "address"
        },
        {
          "internalType": "bool",
          "name": "approved",
          "type": "bool"
        }
      ],
      "name": "setApprovalForAll",
      "outputs": [],
      "stateMutability": "nonpayable",
      "type": "function"
    },
    {
      "inputs": [
        {
          "internalType": "address",
          "name": "burnPool_",
          "type": "address"
        }
      ],
      "name": "setBurnPool",
      "outputs": [],
      "stateMutability": "nonpayable",
      "type": "function"
    },
    {
      "inputs": [
        {
          "internalType": "uint256[]",
          "name": "tokenIds",
          "type": "uint256[]"
        },
        {
          "components": [
            {
              "internalType": "uint256",
              "name": "maxAP",
              "type": "uint256"
            },
            {
              "internalType": "uint256",
              "name": "restoreTimePerAP",
              "type": "uint256"
            },
            {
              "internalType": "uint256",
              "name": "level",
              "type": "uint256"
            }
          ],
          "internalType": "struct PortalLib.CharacterParams[]",
          "name": "charParams",
          "type": "tuple[]"
        }
      ],
      "name": "setCharProperty",
      "outputs": [],
      "stateMutability": "nonpayable",
      "type": "function"
    },
    {
      "inputs": [
        {
          "components": [
            {
              "internalType": "uint8",
              "name": "_dropOn",
              "type": "uint8"
            },
            {
              "internalType": "bool",
              "name": "_lockRequestDropReborn",
              "type": "bool"
            },
            {
              "internalType": "bool",
              "name": "_lockRequestDropNative",
              "type": "bool"
            },
            {
              "internalType": "uint24",
              "name": "_rebornDropInterval",
              "type": "uint24"
            },
            {
              "internalType": "uint24",
              "name": "_nativeDropInterval",
              "type": "uint24"
            },
            {
              "internalType": "uint32",
              "name": "_rebornDropLastUpdate",
              "type": "uint32"
            },
            {
              "internalType": "uint32",
              "name": "_nativeDropLastUpdate",
              "type": "uint32"
            },
            {
              "internalType": "uint16",
              "name": "_nativeTopDropRatio",
              "type": "uint16"
            },
            {
              "internalType": "uint16",
              "name": "_nativeRaffleDropRatio",
              "type": "uint16"
            },
            {
              "internalType": "uint40",
              "name": "_rebornTopEthAmount",
              "type": "uint40"
            },
            {
              "internalType": "uint40",
              "name": "_rebornRaffleEthAmount",
              "type": "uint40"
            },
            {
              "internalType": "uint8",
              "name": "_placeholder",
              "type": "uint8"
            }
          ],
          "internalType": "struct PortalLib.AirdropConf",
          "name": "conf",
          "type": "tuple"
        }
      ],
      "name": "setDropConf",
      "outputs": [],
      "stateMutability": "nonpayable",
      "type": "function"
    },
    {
      "inputs": [
        {
          "internalType": "uint256[]",
          "name": "levels",
          "type": "uint256[]"
        },
        {
          "internalType": "uint256[]",
          "name": "amounts",
          "type": "uint256[]"
        }
      ],
      "name": "setForgingRequiredAmount",
      "outputs": [],
      "stateMutability": "nonpayable",
      "type": "function"
    },
    {
      "inputs": [
        {
          "internalType": "uint256",
          "name": "limit",
          "type": "uint256"
        }
      ],
      "name": "setIncarnationLimit",
      "outputs": [],
      "stateMutability": "nonpayable",
      "type": "function"
    },
    {
      "inputs": [
        {
          "internalType": "contract IPiggyBank",
          "name": "piggyBank_",
          "type": "address"
        }
      ],
      "name": "setPiggyBank",
      "outputs": [],
      "stateMutability": "nonpayable",
      "type": "function"
    },
    {
      "inputs": [
        {
          "internalType": "uint16",
          "name": "piggyBankFee_",
          "type": "uint16"
        }
      ],
      "name": "setPiggyBankFee",
      "outputs": [],
      "stateMutability": "nonpayable",
      "type": "function"
    },
    {
      "inputs": [
        {
          "internalType": "uint16",
          "name": "refL1Fee",
          "type": "uint16"
        },
        {
          "internalType": "uint16",
          "name": "refL2Fee",
          "type": "uint16"
        },
        {
          "internalType": "enum PortalLib.RewardType",
          "name": "rewardType",
          "type": "uint8"
        }
      ],
      "name": "setReferrerRewardFee",
      "outputs": [],
      "stateMutability": "nonpayable",
      "type": "function"
    },
    {
      "inputs": [
        {
          "internalType": "contract RewardVault",
          "name": "vault_",
          "type": "address"
        }
      ],
      "name": "setVault",
      "outputs": [],
      "stateMutability": "nonpayable",
      "type": "function"
    },
    {
      "inputs": [
        {
          "components": [
            {
              "internalType": "bytes32",
              "name": "keyHash",
              "type": "bytes32"
            },
            {
              "internalType": "uint64",
              "name": "s_subscriptionId",
              "type": "uint64"
            },
            {
              "internalType": "uint32",
              "name": "callbackGasLimit",
              "type": "uint32"
            },
            {
              "internalType": "uint32",
              "name": "numWords",
              "type": "uint32"
            },
            {
              "internalType": "uint16",
              "name": "requestConfirmations",
              "type": "uint16"
            }
          ],
          "internalType": "struct PortalLib.VrfConf",
          "name": "conf",
          "type": "tuple"
        }
      ],
      "name": "setVrfConf",
      "outputs": [],
      "stateMutability": "nonpayable",
      "type": "function"
    },
    {
      "inputs": [
        {
          "internalType": "bytes4",
          "name": "interfaceId",
          "type": "bytes4"
        }
      ],
      "name": "supportsInterface",
      "outputs": [
        {
          "internalType": "bool",
          "name": "",
          "type": "bool"
        }
      ],
      "stateMutability": "view",
      "type": "function"
    },
    {
      "inputs": [
        {
          "internalType": "uint256",
          "name": "fromTokenId",
          "type": "uint256"
        },
        {
          "internalType": "uint256",
          "name": "toTokenId",
          "type": "uint256"
        },
        {
          "internalType": "uint256",
          "name": "amount",
          "type": "uint256"
        },
        {
          "internalType": "enum IRebornDefination.TributeDirection",
          "name": "tributeDirection",
          "type": "uint8"
        }
      ],
      "name": "switchPool",
      "outputs": [],
      "stateMutability": "nonpayable",
      "type": "function"
    },
    {
      "inputs": [],
      "name": "symbol",
      "outputs": [
        {
          "internalType": "string",
          "name": "",
          "type": "string"
        }
      ],
      "stateMutability": "view",
      "type": "function"
    },
    {
      "inputs": [],
      "name": "toNextSeason",
      "outputs": [],
      "stateMutability": "nonpayable",
      "type": "function"
    },
    {
      "inputs": [
        {
          "internalType": "uint256",
          "name": "tokenId",
          "type": "uint256"
        }
      ],
      "name": "tokenURI",
      "outputs": [
        {
          "internalType": "string",
          "name": "",
          "type": "string"
        }
      ],
      "stateMutability": "view",
      "type": "function"
    },
    {
      "inputs": [
        {
          "internalType": "address",
          "name": "from",
          "type": "address"
        },
        {
          "internalType": "address",
          "name": "to",
          "type": "address"
        },
        {
          "internalType": "uint256",
          "name": "tokenId",
          "type": "uint256"
        }
      ],
      "name": "transferFrom",
      "outputs": [],
      "stateMutability": "nonpayable",
      "type": "function"
    },
    {
      "inputs": [
        {
          "internalType": "address",
          "name": "newOwner",
          "type": "address"
        },
        {
          "internalType": "bool",
          "name": "direct",
          "type": "bool"
        }
      ],
      "name": "transferOwnership",
      "outputs": [],
      "stateMutability": "nonpayable",
      "type": "function"
    },
    {
      "inputs": [],
      "name": "unPause",
      "outputs": [],
      "stateMutability": "nonpayable",
      "type": "function"
    },
    {
      "inputs": [
        {
          "internalType": "address[]",
          "name": "toAdd",
          "type": "address[]"
        },
        {
          "internalType": "address[]",
          "name": "toRemove",
          "type": "address[]"
        }
      ],
      "name": "updateSigners",
      "outputs": [],
      "stateMutability": "nonpayable",
      "type": "function"
    },
    {
      "inputs": [
        {
          "internalType": "address",
          "name": "newImplementation",
          "type": "address"
        }
      ],
      "name": "upgradeTo",
      "outputs": [],
      "stateMutability": "nonpayable",
      "type": "function"
    },
    {
      "inputs": [
        {
          "internalType": "address",
          "name": "newImplementation",
          "type": "address"
        },
        {
          "internalType": "bytes",
          "name": "data",
          "type": "bytes"
        }
      ],
      "name": "upgradeToAndCall",
      "outputs": [],
      "stateMutability": "payable",
      "type": "function"
    },
    {
      "inputs": [],
      "name": "vault",
      "outputs": [
        {
          "internalType": "contract RewardVault",
          "name": "",
          "type": "address"
        }
      ],
      "stateMutability": "view",
      "type": "function"
    },
    {
      "inputs": [
        {
          "internalType": "address",
          "name": "to",
          "type": "address"
        },
        {
          "internalType": "uint256",
          "name": "amount",
          "type": "uint256"
        }
      ],
      "name": "withdrawNativeToken",
      "outputs": [],
      "stateMutability": "nonpayable",
      "type": "function"
    },
    {
      "inputs": [
        {
          "internalType": "address",
          "name": "to",
          "type": "address"
        }
      ],
      "name": "withdrawVault",
      "outputs": [],
      "stateMutability": "nonpayable",
      "type": "function"
    }
  ],
  "transactionHash": "0x9a21b4cb964fcbfbb3364e2f5ffb33c58c06ccc60f89d34875244ba8380c9f45",
  "args": [],
  "numDeployments": 8,
  "solcInputHash": "00dfc87c571a39032e4fc172bc597944",
  "bytecode": "0x60a080604052346100325730608052615fa99081620000388239608051818181611c0901528181611c9f0152612d420152f35b600080fdfe608080604052600436101561001357600080fd5b600090813560e01c90816301ffc9a71461427357508063068bcd8d146140e357806306fdde031461405c578063081812fc1461403d578063095ea7b314613f6e5780630aaef80214613ec55780630dd9be9614613e685780630e357a6e14613cd45780631305bffc146136d0578063153b25c41461366657806316a065c61461363d5780631fe543e3146134f757806323b872dd146134bd57806332eb808a146133a3578063350b236914613314578063362925c214612e6b5780633659cfe614612d1d5780633693075b14612bec57806337cecbf2146127fc57806339c175021461267e57806342842e0e1461262d57806344f044041461260d5780634585e33b14611ed25780634e71e0c814611e685780634f1ef28614611c6157806352d1902d14611bf6578063536c6bfa14611b9e5780635c975abb14611b7a578063603d080014611b20578063609213a614611ac85780636352211e14611a9757806368168ba5146119695780636817031b146118fa5780636c79c008146118db5780636e04ff0d1461188157806370a082311461182f578063715018a6146117d2578063802e9cfa146117645780638456cb591461171a5780638d47a30d146116255780638da5cb5b146115fc5780639208b21e1461155757806395d89b41146114905780639aab85e5146114315780639c41b9a6146113c75780639cad5fd9146112fd5780639d2150421461120f578063a22cb4651461116f578063a54b2a7314611146578063afd5f74714610f99578063b1df74d714610f2a578063b242e53414610eb5578063b88d4fde14610e66578063bb4d995514610da8578063bee5b71514610d4c578063c87b56dd14610c60578063cb8cd81414610a24578063cd5c4084146109dc578063dacc9852146108f3578063db6400811461080d578063df65845a146107be578063e30c397814610795578063e4c86c941461062d578063e56b9f8e146105c7578063e985e9c514610572578063ee6b89b11461051c578063f1bd4c04146104ef578063f3a7f2fe14610435578063f7b188a5146103dc578063fbd78235146103b3578063fbfa77cf1461038a5763ff9c75431461033957600080fd5b34610387576020366003190112610387577f39feb9fafd10c5355c86cdccca7884a183c4dd524ca37b0761575ce0974cdb066020600435610378615e24565b8061010655604051908152a180f35b80fd5b503461038757806003193601126103875760fc546040516001600160a01b039091168152602090f35b50346103875760203660031901126103875760206103d2600435615e04565b6040519015158152f35b50346103875780600319360112610387576103f5615e24565b6103fd615963565b61019360ff1981541690557f5db9ee0a495bf2e6ff9c91a7834c1ba4fdd244a5e8aa4e537bd38aeae4b073aa6020604051338152a180f35b5034610387576040366003190112610387578061045061433e565b610458615e24565b733EfDc4307580DBe1fB9D857fbE9C1250a185Fe1a9060ff54835261010760205260408320823b156104ea5760405163ed7c9de360e01b815260048035908201526001600160a01b03909216602483015261010a60448301526064820152908290829060849082905af480156104df576104cf5750f35b6104d8906143a2565b6103875780f35b6040513d84823e3d90fd5b505050fd5b5034610387578060031936011261038757600f604060209260ff5481526101078452200154604051908152f35b50346103875760e03660031901126103875760a03660431901126103875760c43560ff8116810361056d5761055c9060a435608435606435604435614c03565b61056a6024356004356147c1565b80f35b600080fd5b50346103875760403660031901126103875761058c614328565b604061059661433e565b9260018060a01b038093168152610134602052209116600052602052602060ff604060002054166040519015158152f35b5034610387576060366003190112610387576105e1615e24565b60ff5481526101076020908152604080832060043584528252822060060180546001600160401b03191660243563ffffffff161760443590921b63ffffffff60201b1691909117905580f35b5034610387576101003660031901126103875760043560443560028110156107915760e4359160ff8316830361056d57610665615944565b61066d615982565b83733EfDc4307580DBe1fB9D857fbE9C1250a185Fe1a60ff5482526101078060205260408320823b1561076a5760405163dad02e6b60e01b815285600482015261010a9182602483015260448201528481606481875af4908115610786578591610772575b505060018060a01b0360fc54169160ff5485526020526040842092803b1561076e57849260849160405195869485936364abf4c560e11b85528a60048601526024850152604484015260648301525af480156104df57610756575b505061074d61056a9360016101615560c43560a435608435606435614c03565b60243590614c81565b61075f906143a2565b61076a57833861072d565b8380fd5b8480fd5b61077b906143a2565b61076a5783386106d2565b6040513d87823e3d90fd5b8280fd5b50346103875780600319360112610387576034546040516001600160a01b039091168152602090f35b5034610387576020366003190112610387576001600160a01b03806107e1614328565b1682526101086020526040818184205416928381522054169061080960405192839283614680565b0390f35b5034610387576020806003193601126108ef57816004356001600160401b0381116108ef5791610842829336906004016144d5565b92909161084d615944565b733EfDc4307580DBe1fB9D857fbE9C1250a185Fe1a92825b858110610870578380f35b61087b818784614714565b3560ff548552610107845260408520863b156108eb576040519163dad02e6b60e01b8352600483015261010a602483015260448201528481606481895af49081156107865785916108d7575b50506108d29061469a565b610865565b6108e0906143a2565b61076a5783886108c7565b8580fd5b5080fd5b5034610387576020806003193601126108ef57816080604051610915816143b5565b8281528284820152826040820152826060820152015260043582526101118152610941604083206151f6565b60405163e51057f560e01b8152909161095d6004830184614641565b808260a481733EfDc4307580DBe1fB9D857fbE9C1250a185Fe1a5af49384156109d0579361099e575b60a08360ff8616815261099c6040518092614641565bf35b90809350813d83116109c9575b6109b5818361443d565b8101031261056d5760ff60a0925192610986565b503d6109ab565b604051903d90823e3d90fd5b50346103875760403660031901126103875760406109f861433e565b916004358152610105602052209060018060a01b03166000526020526020604060002054604051908152f35b50346103875761018036600319011261038757610a3f615e24565b60043560ff8116810361056d57602435801515810361056d5760443591821515830361056d5762ffffff80606435166064350361056d5780608435166084350361056d5763ffffffff908160a4351660a4350361056d578160c4351660c4350361056d5761ffff60e4351660e4350361056d5761ffff6101043516610104350361056d5764ffffffffff6101243516610124350361056d5764ffffffffff6101443516610144350361056d5760ff6101643516610164350361056d577f644a735f0a2f3c02bf4c681e68a69f4049d90b36f4884f1ad16804e6cb52e961946101809460ff60f81b6101643560f81b169061ff0060ff871691151560081b161762ff000083151560101b161765ffffff00000060643560181b161762ffffff60301b60843560301b161763ffffffff60481b60a43560481b161763ffffffff60681b60c43560681b161761ffff60881b60e43560881b161761ffff60981b6101043560981b161764ffffffffff60a81b6101243560a81b161764ffffffffff60d01b6101443560d01b16171761010a5560ff60405194168452610bdf614632565b1515602085015215156040840152806064351660608401526084351660808301528060a4351660a083015260c4351660c082015261ffff60e4351660e082015261ffff610104351661010082015264ffffffffff610124351661012082015264ffffffffff610144351661014082015260ff6101643516610160820152a180f35b5034610387576020806003193601126108ef57604051632f8218bd60e21b81526101036004820152600435602482015282816044817364AA040D9cDf0Eced7c34840355940016dcE4ca35af49283156109d0578093610cd0575b5050610809604051928284938452830190614303565b909192503d8082843e610ce3818461443d565b82019183818403126108ef578051906001600160401b038211610791570182601f820112156108ef57805191610d18836145b1565b93610d26604051958661443d565b838552858484010111610387575090610d44918480850191016142e0565b903880610cba565b50366003190161016081126108ef5760801361038757610d6a614354565b60c03660a31901126108ef57610d9790610d82615944565b610d8a615982565b610d9261584a565b6152b6565b610d9f614d2d565b60016101615580f35b503461038757606036600319011261038757610dc2614328565b602435610dcd615944565b610dd56158a1565b60fc546001600160a01b039084908216803b156108ef578160405180926310b3879160e11b8252818381610e0d8a8c600484016146f9565b03925af180156104df57610e52575b505060207ff4bf7e6aad5513467782ce008fd12fc10653118cb8b12ac0f818ced4e2df188291604051938452604435941692a380f35b610e5b906143a2565b61076a578338610e1c565b503461038757608036600319011261038757610e80614328565b610e8861433e565b606435916001600160401b03831161076a57610eab61056a933690600401614603565b9160443591615a04565b503461038757604036600319011261038757610ecf614328565b610ed7614632565b90610ee0615e24565b6001600160a01b038116918215610f185715610f005761056a9150615e4a565b50603480546001600160a01b03191691909117905580f35b604051633aafecb360e21b8152600490fd5b5034610387576020366003190112610387576004356001600160a01b038116908190036108ef5760207fb17fb480312a56d282372043fb80c9263fb00b4b5a91187776baf4946d8f4ac291610f7d615e24565b60fe80546001600160a01b03191682179055604051908152a180f35b5034610387578060031936011261038757610fb2615e24565b60fe5460ff546001600160a01b039291831690813b15610791578291602483926040519485938492636299f8cf60e01b845260048401525af180156104df57908291611132575b505060ff54600181018091116111065781928160ff5560fe541690813b1561112e57829160448392604051948593849263744d443360e11b845260048401524260248401525af180156104df5761111a575b5050611055615944565b610193600160ff19825416179055600080516020615f548339815191526020604051338152a160ff5490600019820182811161110657815261010780602052600f604083200154908160041b91808304601014901517156110f25782936064935260205204600f6040832001557f3bf8992b1ca7018d446bcf1d45dc7a62e50decf5248434be4194aef154463380602060ff54604051908152a180f35b634e487b7160e01b83526011600452602483fd5b634e487b7160e01b82526011600452602482fd5b611123906143a2565b61038757803861104b565b5050fd5b61113b906143a2565b610387578038610ff9565b503461038757806003193601126103875760fd546040516001600160a01b039091168152602090f35b503461038757604036600319011261038757611189614328565b611191614632565b6001600160a01b03909116903382146111fd57338352610134602052604083208260005260205260406000209015159060ff1981541660ff83161790556040519081527f17307eab39ab6107e8899845ad3d59bd9653f200f220920489ca2b5937696c3160203392a380f35b60405163b06307db60e01b8152600490fd5b50346103875760a036600319011261038757611229615e24565b60043561010b8190556024356001600160401b038116908190036107915761010c918254916044359363ffffffff918286169081870361056d576064359384169283850361056d576084359661ffff88169586890361056d577f3510c45fb24ce728b56d5136c57163ff69e25ab31ac04a1264387c7acff6c41e998460a09a61ffff60801b9060801b169360018060901b031916179063ffffffff60401b9060401b16179063ffffffff60601b9060601b16171790556040519485526020850152604084015260608301526080820152a180f35b50346103875760403660031901126103875761131761433e565b60ff548252610107602052604080832081516321dc13e160e21b815260048035908201526001600160a01b039093166024840152604483015290919082606481733EfDc4307580DBe1fB9D857fbE9C1250a185Fe1a5af480156113ba57604092829161138b575b5082519182526020820152f35b90506113ad9150823d84116113b3575b6113a5818361443d565b810190614903565b3861137e565b503d61139b565b50604051903d90823e3d90fd5b50366003190161020081126108ef57608013610387576113e5614354565b60c03660a31901126108ef5760a0366101631901126108ef5761140a90610d82615944565b6101e43560ff8116810361056d57610d97906101c4356101a4356101843561016435614c03565b50346103875760203660031901126103875761144b615e24565b60fd5481906001600160a01b0316803b1561148d57818091602460405180948193630852cd8d60e31b835260043560048401525af180156104df576104cf5750f35b50fd5b50346103875780600319360112610387576040518161013080546114b3816146bf565b8085529160019180831690811561152c57506001146114f1575b610809856114dd8189038261443d565b604051918291602083526020830190614303565b835260208084209095505b8284106115195750505081610809936114dd9282010193386114cd565b80548585018701529285019281016114fc565b905061080996506114dd9450602092508593915060ff191682840152151560051b82010193386114cd565b503461038757606036600319011261038757611571614621565b60243561ffff9182821680920361056d578392604435600281101561076e57611598615e24565b733EfDc4307580DBe1fB9D857fbE9C1250a185Fe1a92833b156108eb5785936084926040519687958694631747e07760e01b8652610109600487015216602485015260448401526115e8816148e3565b60648301525af480156104df576104cf5750f35b50346103875780600319360112610387576033546040516001600160a01b039091168152602090f35b5034610387578060208060031936011261148d576004356001600160401b03811161112e57611659839136906004016144d5565b919092611664615944565b733EfDc4307580DBe1fB9D857fbE9C1250a185Fe1a92825b818110611687578380f35b611692818388614714565b60fc5460ff548652610107855260408620913591906001600160a01b0316873b1561171657604051926364abf4c560e11b84526004840152602483015261010a604483015260648201528481608481895af4908115610786578591611702575b50506116fd9061469a565b61167c565b61170b906143a2565b61076a5783886116f2565b8680fd5b5034610387578060031936011261038757611733615e24565b61173b615944565b610193600160ff19825416179055600080516020615f548339815191526020604051338152a180f35b5034610387576020366003190112610387578061177f614328565b611787615963565b61178f615e24565b60fc546001600160a01b039081169190823b156104ea57602484928360405195869485936350e0278760e11b85521660048401525af180156104df576104cf5750f35b50346103875780600319360112610387576117eb615e24565b6000600080516020615eb4833981519152819055603380546001600160a01b031981169091556001600160a01b0316600080516020615ef48339815191528280a380f35b5034610387576020366003190112610387576001600160a01b03611851614328565b16801561186f57816040916020935261013283522054604051908152f35b604051636500287b60e11b8152600490fd5b5034610387576020366003190112610387576004356001600160401b0381116108ef576118b290369060040161454f565b50506118bc61494d565b9061080960405192839215158352604060208401526040830190614303565b5034610387578060031936011261038757602061010654604051908152f35b5034610387576020366003190112610387576004356001600160a01b038116908190036108ef5760207fe7ae49f883c825b05681b3e00e8be6fdea9ed2a8a45e4c6ecb9390fc44cce6159161194d615e24565b60fc80546001600160a01b03191682179055604051908152a180f35b503461038757606036600319011261038757600435604435600281101561079157611992615944565b61199a615982565b82733EfDc4307580DBe1fB9D857fbE9C1250a185Fe1a60ff5482526101078060205260408320823b1561076a5760405163dad02e6b60e01b815286600482015261010a9182602483015260448201528481606481875af4908115610786578591611a83575b505060018060a01b0360fc54169160ff5485526020526040842092803b1561076e57849260849160405195869485936364abf4c560e11b85528b60048601526024850152604484015260648301525af480156104df57611a6f575b505061056a9160016101615560243590614c81565b611a78906143a2565b610791578238611a5a565b611a8c906143a2565b61076a5783386119ff565b5034610387576020366003190112610387576020611ab66004356159a6565b6040516001600160a01b039091168152f35b5034610387576020366003190112610387577f9d0f7db17f6a6b48d74e890cdcde48ddd19d708f5eae2e1c842e9615cc6fe45a602061ffff611b08614621565b611b10615e24565b168061011355604051908152a180f35b503461038757602036600319011261038757611b3a614328565b611b42615e24565b6001600160a01b03168015611b685760fd80546001600160a01b03191691909117905580f35b604051630ae8f22360e21b8152600490fd5b5034610387578060031936011261038757602060ff61019354166040519015158152f35b50346103875760403660031901126103875780808080611bbc614328565b60243590611bc8615963565b611bd0615e24565b82908215611bec575b6001600160a01b031690f1156109d05780f35b6108fc9150611bd9565b50346103875780600319360112610387577f00000000000000000000000000000000000000000000000000000000000000006001600160a01b03163003611c4f576020604051600080516020615ed48339815191528152f35b60405163e437988b60e01b8152600490fd5b50604036600319011261038757611c76614328565b6024356001600160401b03811161079157611c95903690600401614603565b6001600160a01b037f00000000000000000000000000000000000000000000000000000000000000008116929190308414611c4f57600080516020615ed4833981519152938185541603611e5657611ceb615e24565b600080516020615e948339815191525460ff1615611d0f57505061056a91506158cd565b82919216604051936352d1902d60e01b85526020948581600481865afa60009181611e27575b50611d4c5760405163fec758a960e01b8152600490fd5b03611e1557611d5a826158cd565b60405190600080516020615f14833981519152600080a2825115801590611e0d575b611d88575b5050505080f35b813b15611dfe5750600082819285611df49695519201905af4611da9615914565b907f416464726573733a206c6f772d6c6576656c2064656c65676174652063616c6c60405193611dd8856143eb565b60278552840152660819985a5b195960ca1b6040840152615cec565b5038808080611d81565b63a6c49bc960e01b8152600490fd5b506001611d7c565b6040516322b9fa5360e21b8152600490fd5b90918782813d8311611e4f575b611e3e818361443d565b810103126103875750519038611d35565b503d611e34565b604051631008d79560e01b8152600490fd5b50346103875780600319360112610387576034546001600160a01b039081811633819003611ec05780603354938416600080516020615ef48339815191528680a36001600160a01b0319928316176033551660345580f35b6040516305e05b4b60e31b8152600490fd5b5034610387576020806003193601126108ef576001600160401b039060043582811161076a57611f08604091369060040161454f565b90809291611f14615944565b8101031261056d5780820135906001903581810361202a5750505090611f3861582a565b61010a9081549260ff8460081c166120185780611faf92610100948561ff001980981617905560018060a01b036101c5541661010b54918861010c54604051978895869485936305d3b1d360e41b855263ffffffff92838260601c16938260401c169261ffff8360801c16921690600487016154a4565b03925af18015610786578590611fe9575b855261010d90525060408320805463ff0000001993169190911791909116630100000017905580f35b508082813d8311612011575b611fff818361443d565b8101031261056d5761010d9151611fc0565b503d611ff5565b604051636dbaff7360e01b8152600490fd5b6002810361211e5750505061203d61582a565b61010a9182549060ff8260101c16612018576120b39362010000849362ff0000191617905560018060a01b036101c5541661010b54918661010c54604051978895869485936305d3b1d360e41b855263ffffffff92838260601c16938260401c169261ffff8360801c16921690600487016154a4565b03925af180156121135783906120e4575b835261010d90525060408120805463ff00ff001916630200010017905580f35b508082813d831161210c575b6120fa818361443d565b8101031261056d5761010d91516120c4565b503d6120f0565b6040513d85823e3d90fd5b9294935090916003810361238c575061213561582a565b61010a805461ff0063ffffffff60481b0119164260481b63ffffffff60481b1617815582845261010d855260408420805462ff0000191662010000178082559195909160181c60ff166003811015612378578303612366576121956153c1565b9061219e615440565b965492733EfDc4307580DBe1fB9D857fbE9C1250a185Fe1a9160ff5488526101079182825260408920843b15612357579061220a8a8895949360405180938192632968920160e01b8352670de0b6b3a76400009b8c64ffffffffff809c60a81c16029060048501615312565b0381895af4801561235b57908b91612343575b50506040519761222c89614406565b600a91828a5261014036858c013701548a905b8282106123025750505088995060ff548952526040872093823b156122fe576122868895604051978896879586956395661b4b60e01b875260d01c16029060048501615312565b03915af49081156121135783916122ea575b5050736C600B27D40edf17934bC7749490d86446D44C9E90813b1561112e57829060446040518094819363f9ff0d8560e01b835261010e600484015260248301525af480156104df576104cf57505080f35b6122f3906143a2565b61148d578138612298565b8780fd5b61233d90612313602882068f615334565b5161231e848d615334565b5260405185810191825285815261233481614422565b5190209161469a565b9061223f565b61234c906143a2565b61235757893861221d565b8980fd5b6040513d8d823e3d90fd5b604051635435b28960e11b8152600490fd5b634e487b7160e01b86526021600452602486fd5b90939060041461239e575b5050905080f35b6123a661582a565b61010a805462ff000063ffffffff60681b0119164260681b63ffffffff60681b1617815582845261010d825260408420805462ff0000191662010000178082559192909160181c60ff16600381101561237857600203612366576124086153c1565b612410615440565b93549160ff54875261010791828252612710600f60408a200154948161ffff96878360881c16020495600f60408c2001549160981c16020495600f60408a200191600a9283898801028154039055733EfDc4307580DBe1fB9D857fbE9C1250a185Fe1a9560ff548b5260408b2091873b1561260957908b916124a6604051948593849363e4e2c3d560e01b855260048501615312565b0381895af480156125fe57908a916125e6575b505089604051966124c988614406565b83885261014036868a013701549089915b8383106125ab575050505086975060ff548752526040852090803b156108eb5761251d9386936040519586948593849363ea94cb2f60e01b855260048501615312565b03915af4908115612113578391612597575b5050736C600B27D40edf17934bC7749490d86446D44C9E90813b1561112e57829060446040518094819363f9ff0d8560e01b835261010e600484015260248301525af480156104df57612583575b80612397565b61258c906143a2565b61038757803861257d565b6125a0906143a2565b61148d57813861252f565b806125ba60288e930684615334565b516125c5858b615334565b526040518681019182528681526125db81614422565b5190209201916124da565b6125ef906143a2565b6125fa5788386124b9565b8880fd5b6040513d8c823e3d90fd5b8b80fd5b503461038757604036600319011261056d5761056a6024356004356147c1565b50346103875761263c3661457c565b60405160208101939092906001600160401b038511848610176126685761056a94604052858452615a04565b634e487b7160e01b600052604160045260246000fd5b50346103875780600319360112610387576126976157d0565b506101806040516126a78161436a565b60ff61016061010a54928284168152828460081c1615156020820152828460101c161515604082015262ffffff8460181c16606082015262ffffff8460301c16608082015263ffffffff8460481c1660a082015263ffffffff8460681c1660c082015261ffff8460881c1660e082015261ffff8460981c1661010082015264ffffffffff8460a81c1661012082015264ffffffffff8460d01c166101408201528360f81c82820152826040519416845260208101511515602085015260408101511515604085015262ffffff606082015116606085015262ffffff608082015116608085015263ffffffff60a08201511660a085015263ffffffff60c08201511660c085015261ffff60e08201511660e085015261ffff6101008201511661010085015264ffffffffff6101208201511661012085015264ffffffffff61014082015116610140850152015116610160820152f35b50346103875760803660031901126103875760643560028110156108ef57612822615944565b61282a615982565b60ff5482526101079060209082825260408420733EfDc4307580DBe1fB9D857fbE9C1250a185Fe1a93843b156108eb57856040519263dad02e6b60e01b968785526004359485600482015261010a9283602483015260448201528381606481855af4908115612be1578491612bcd575b505060fc5460ff548452848852604084206001600160a01b039182169190833b156108eb57604051906364abf4c560e11b93848352896004840152602483015285604483015260648201528581608481875af4908115612bae578691612bb9575b505060016101615561290b615982565b60ff5485528589526040852099833b156108eb576040519081526024359a8b600483015285602483015260448201528581606481875af4908115612bae578691612b9a575b505060fc54169260ff5485528589526040852091833b156108eb5785938b936084936040519788968795865260048601526024850152604484015260648301525af480156104df57612b86575b50507fe27d3581f2f954f0767266ff4cfaee3c9f1f93908d0e116ffa69c9f1425db88c93606492605f9260016101615560ff54895282527fa3f77db734c277d287820497fc8b450a9496d4e14a17d325277b4471d6b2aa91612ade60408a20938a336000526001860182526040600020858d52825260408c2095825260408c2090612a288288615514565b600460443597612a39898254614731565b8155612a46898554614731565b84550180546001600160701b03949192919080821c86169060901c80821115612b055750505050612aaa612abc9293881691612a8683825460901c6154fb565b9080546001600160901b031660909290921b6001600160901b031916919091179055565b612a866005840191825460901c6154fb565b612acf612ac98c9261556e565b856155a4565b604051918291863396846154dc565b0390a20204612aee828286615629565b612aff6040519283923396846154dc565b0390a280f35b81939692949110612b21575b50505050612ac9612acf9161556e565b612b7694955090612b67612b3d9392612b3d838d1680956154fb565b908054600160201b600160901b03191660209290921b600160201b600160901b0316919091179055565b60058601938454901c166154fb565b600190612ac9612acf3880612b11565b612b8f906143a2565b6108eb57853861299d565b612ba3906143a2565b61076e578438612950565b6040513d88823e3d90fd5b612bc2906143a2565b61076e5784386128fb565b612bd6906143a2565b61079157823861289a565b6040513d86823e3d90fd5b5034610387576040366003190112610387576001600160401b03906004358281116108ef57612c1f9036906004016144d5565b906024359380851161076a573660238601121561076a57846004013590811161076a5760603660248284028801011161076e57612c5a6158a1565b733EfDc4307580DBe1fB9D857fbE9C1250a185Fe1a92833b156108eb5760405163afb3da2560e01b81526004810183905260648101869052946001600160fb1b0381116117165760249160a4916005999594991b8091608489013786018360848201608089840301858a01525201920195855b828110612cf55761011160448701528680878181808903818b5af480156104df576104cf5750f35b8735845260208089013590850152604080890135908501529681019692810192600101612ccd565b5034610387576020806003193601126108ef57612d38614328565b6001600160a01b037f00000000000000000000000000000000000000000000000000000000000000008116308114611c4f57600080516020615ed4833981519152908282541603611e5657612d8b615e24565b60405191612d98836143d0565b858352600080516020615e948339815191525460ff1615612dc05750505061056a91506158cd565b83929316906040516352d1902d60e01b81528581600481865afa60009181612e3c575b50612dfa5760405163fec758a960e01b8152600490fd5b03611e1557612e08826158cd565b60405190600080516020615f14833981519152600080a2825115801590612e3457611d88575050505080f35b506000611d7c565b90918782813d8311612e64575b612e53818361443d565b810103126103875750519038612de3565b503d612e49565b50346103875760a0366003190112610387576004356001600160a01b038116919082900361038757612e9b61433e565b6044356001600160401b03811161079157612eba903690600401614603565b926064356001600160401b03811161076a57612eda903690600401614603565b93612ee3614354565b9284549260ff8460081c161593848095613307575b80156132f0575b156132945760ff198116600117875584613283575b508015611b685760fb80546001600160a01b031916919091179055845460081c60ff161561309157612f4590615e4a565b60ff845460081c1615613091578051906001600160401b03821161326f578190612f7161012f546146bf565b601f8111613203575b50602090601f831160011461319757869261318c575b50508160011b916000199060031b1c19161761012f555b83516001600160401b03811161317857612fc3610130546146bf565b601f8111613114575b50602094601f82116001146130ae5794849582939495926130a3575b50508160011b916000199060031b1c191617610130555b82549160ff8360081c161561309157600161016155610193805460ff191690556001600160a01b0316801561307f576101c580546001600160a01b031916909117905561304a575080f35b61ff00191681557f7f26b83ff96e1f2b6a682f133852f6798a09c465da95921460cefb3847402498602060405160018152a180f35b604051630cee34c560e11b8152600490fd5b6040516369be8d9360e11b8152600490fd5b015190503880612fe8565b601f19821695610130865280862091865b8881106130fc575083600195969798106130e3575b505050811b0161013055612fff565b015160001960f88460031b161c191690553880806130d4565b919260206001819286850151815501940192016130bf565b61013085527f2f605e086faac1d93117bbfbc18835d434e9405fadc1ca66faf4b864746daf34601f830160051c8101916020841061316e575b601f0160051c01905b8181106131635750612fcc565b858155600101613156565b909150819061314d565b634e487b7160e01b84526041600452602484fd5b015190503880612f90565b925061012f86528086209086935b601f19841685106131e8576001945083601f198116106131cf575b505050811b0161012f55612fa7565b015160001960f88460031b161c191690553880806131c0565b818101518355602094850194600190930192909101906131a5565b61012f87529091507f232da9e50dad2971456a78fb5cd6ff6b75019984d6e918139ce990999420f979601f840160051c810160208510613268575b90849392915b601f830160051c8201811061325a575050612f7a565b888155859450600101613244565b508061323e565b634e487b7160e01b85526041600452602485fd5b61ffff191661010117865538612f14565b60405162461bcd60e51b815260206004820152602e60248201527f496e697469616c697a61626c653a20636f6e747261637420697320616c72656160448201526d191e481a5b9a5d1a585b1a5e995960921b6064820152608490fd5b50303b158015612eff5750600160ff821614612eff565b50600160ff821610612ef8565b5034610387578061332436614505565b9261332d615e24565b733EfDc4307580DBe1fB9D857fbE9C1250a185Fe1a90813b156108eb5785936133926133809460405197889687958695631bd4474f60e31b8752610100600488015260606024880152606487019161473e565b8481036003190160448601529161473e565b03915af480156104df576104cf5750f35b5034610387576060366003190112610387576133bd614328565b60443590600282101561079157604051633f3ccdf960e01b815261010860048201526101096024808301919091526001600160a01b0392831660448301523560648201529161340b816148e3565b608483015260808260a481733EfDc4307580DBe1fB9D857fbE9C1250a185Fe1a5af4908115612113578392848591869461345f575b5060809550826040519516855260208501521660408301526060820152f35b9350505091506080813d82116134b5575b8161347d6080938361443d565b810103126107915760809250613492816157bc565b9160208201519260606134a7604085016157bc565b930151909392909238613440565b3d9150613470565b5034610387576134cc3661457c565b906134d78233615a31565b156134e55761056a92615abe565b6040516329572f6760e01b8152600490fd5b5034610387576040366003190112610387576004356024356001600160401b0381116107915761352b903690600401614477565b6101c5549091906001600160a01b03163381900361361b575080835261010d8060205260ff604085205416158061360a575b613565578380f35b8251156135f45760208493015190828452602052600160408420015560408220600160ff19825416179055736C600B27D40edf17934bC7749490d86446D44C9E90813b1561112e57829060446040518094819363f715530760e01b835261010e600484015260248301525af480156104df576135e057808380f35b6135e9906143a2565b610387578038808380f35b634e487b7160e01b600052603260045260246000fd5b5060ff604085205460081c1661355d565b60405163073e64fd60e21b8152908190613639903360048401614680565b0390fd5b503461038757806003193601126103875760fb546040516001600160a01b039091168152602090f35b5060203660031901126103875761367b615e24565b60fe5481906001600160a01b0316803b1561148d5781606491604051928380926329f9144560e21b825284600483015263ffffffff42166024830152600435604483015234905af180156104df576104cf5750f35b503461038757610120366003190112610387576136eb61433e565b61010480356001600160401b03811161076a5761370c90369060040161454f565b9091613716615944565b61371e6158a1565b613729600435615e04565b613cc25760043560081c855260205260408420600160ff600435161b81541790556137ff6101019283549360018501905560018060a01b0385168652610102602052604086209261377a845461469a565b8094556040519361378a85614386565b60043585526001600160a01b03871660208601526001600160601b03606435604435018116604087015260e43516606086015261ffff60a435811660808701521660a08501526001600160401b036084351660c085015265ffffffffffff64e8d4a5100060c435041660e085015236916145cc565b610100820190815246670de0b6b3a7640000028301600190810186526101036020908152604080882085518155918501519085015160a090811b6001600160a01b0319166001600160a01b0392909216919091179282019290925560608085015160808601519386015160c087015160e0909701519490921b61ffff60601b166001600160601b03919091161760709190911b63ffffffff60701b161760909490941b600160901b600160d01b03169390931760d09190911b6001600160d01b031916176002830155518051906001600160401b038211613cae576138e760038401546146bf565b601f8111613c6a575b50602090601f8311600114613bfe5760039291879183613bf3575b50508160011b9160001990841b1c1916179101555b60405161392c816143d0565b8381526001600160a01b03831615613be2576139566001670de0b6b3a76400004602840101615aa0565b613bd1576139726001670de0b6b3a76400004602840101615aa0565b613bd1576001600160a01b038316808552610132602090815260408087208054600190810190915546670de0b6b3a764000002860101808852610131909252862080546001600160a01b031916831790556139f1929186600080516020615f348339815191528180a46001670de0b6b3a7640000460284010184615b84565b15613bbf5760fc546001600160a01b0316803b1561076a578360405180926310b3879160e11b8252818381613a30606435604435018a600484016146f9565b03925af18015612be157613bac575b508273Ab4B82B8DD8A5DB597A3166f0c46c64b3000b69260ff54825261010760205260408220813b15610791578290606460405180948193636ebb252160e11b835260048301526001670de0b6b3a76400004602890101602483015260843560448301525af480156104df57613b98575b5060fc54733EfDc4307580DBe1fB9D857fbE9C1250a185Fe1a906001600160a01b0316813b1561079157829060a4604051809481936337a8f5a560e01b835261010860048401526101096024840152604483015260018060a01b038916606483015260443560848301525af480156104df57613b84575b505060408051608435815260443560643501602082015246670de0b6b3a764000002909201600101926001600160a01b031691600435917faf1bba31184b4d13e4f756b22fc2755d77b6ad147f10a7b12ea6afa58a2ca5f691a480f35b613b8d906143a2565b610791578238613b27565b613ba1906143a2565b610791578238613ab0565b613bb8909391936143a2565b9138613a3f565b6040516368d2bf6b60e11b8152600490fd5b60405162a5a1f560e01b8152600490fd5b604051622e076360e81b8152600490fd5b01519050388061390b565b906003840187526020872091875b601f1985168110613c525750918391600193600395601f19811610613c3a575b505050811b01910155613920565b015160001983861b60f8161c19169055388080613c2c565b91926020600181928685015181550194019201613c0c565b60038401875260208720601f840160051c810160208510613ca7575b601f830160051c82018110613c9c5750506138f0565b888155600101613c86565b5080613c86565b634e487b7160e01b86526041600452602486fd5b604051630490d63160e01b8152600490fd5b503461038757604036600319011261038757604061012091613cf4614328565b816101008451613d0381614386565b82815282602082015282868201528260608201528260808201528260a08201528260c08201528260e0820152015260ff5482526101076020526001838320019060018060a01b03168252602052818120602435825260205220604051613d6881614386565b6004825492838352600181015460018060801b038116602085015260801c6040840152600281015460018060801b038116606085015260801c6080840152600381015460a0840152015463ffffffff811660c083015260018060701b038160201c1660e083015260901c61010082015260405191825260018060801b03602082015116602083015260018060801b03604082015116604083015260018060801b03606082015116606083015260018060801b03608082015116608083015260a081015160a083015263ffffffff60c08201511660c083015260018060701b0360e08201511660e083015261010060018060701b0391015116610100820152f35b503461038757613e7736614505565b613e8393929193615e24565b80820361236657845b828110613e97578580f35b80613ea56001928488614714565b35613eb1828688614714565b358852610112602052604088205501613e8c565b5034610387576020366003190112610387576004356001600160401b0381116108ef57906040613efc613f31933690600401614477565b60ff5483526101076020528183208251948592839263b93cda1360e01b84526004840152606060248401526064830190614919565b61010a60448301520381733EfDc4307580DBe1fB9D857fbE9C1250a185Fe1a5af480156113ba57604092829161138b575082519182526020820152f35b503461038757604036600319011261038757613f88614328565b602435906001600160a01b038080613f9f856159a6565b1692169180831461402b57803314159081614008575b506134e5578284526101336020526040842080546001600160a01b03191683179055613fe0836159a6565b167f8c5be1e5ebec7d5bd14f71427d1e84f3dd0314c0f7b2291e5b200ac8c7c3b9258480a480f35b905084526101346020526040842033855260205260ff6040852054161538613fb5565b604051639196021d60e01b8152600490fd5b5034610387576020366003190112610387576020611ab66004356159da565b50346103875780600319360112610387576040518161012f805461407f816146bf565b8085529160019180831690811561152c57506001146140a857610809856114dd8189038261443d565b835260208084209095505b8284106140d05750505081610809936114dd9282010193386114cd565b80548585018701529285019281016140b3565b5034610387576020366003190112610387576040610180916141036157d0565b5060ff5481526101076020528181206004358252602052206040516141278161436a565b60068254928383526001810154602084015260028101546040840152600381015460018060801b038116606085015260801c6080840152600481015460a0840152600581015463ffffffff811660c085015260018060701b038160201c1660e085015260901c610100840152015463ffffffff811661012083015263ffffffff8160201c1661014083015260401c610160820152604051918252602081015160208301526040810151604083015260018060801b03606082015116606083015260018060801b03608082015116608083015260a081015160a083015263ffffffff60c08201511660c083015260018060701b0360e08201511660e083015260018060701b036101008201511661010083015263ffffffff6101208201511661012083015263ffffffff6101408201511661014083015261016060018060c01b0391015116610160820152f35b9050346108ef5760203660031901126108ef5760043563ffffffff60e01b811680910361079157602092506380ac58cd60e01b81149081156142cf575b81156142be575b5015158152f35b6301ffc9a760e01b149050386142b7565b635b5e139f60e01b811491506142b0565b60005b8381106142f35750506000910152565b81810151838201526020016142e3565b9060209161431c815180928185528580860191016142e0565b601f01601f1916010190565b600435906001600160a01b038216820361056d57565b602435906001600160a01b038216820361056d57565b608435906001600160a01b038216820361056d57565b61018081019081106001600160401b0382111761266857604052565b61012081019081106001600160401b0382111761266857604052565b6001600160401b03811161266857604052565b60a081019081106001600160401b0382111761266857604052565b602081019081106001600160401b0382111761266857604052565b606081019081106001600160401b0382111761266857604052565b61016081019081106001600160401b0382111761266857604052565b604081019081106001600160401b0382111761266857604052565b601f909101601f19168101906001600160401b0382119082101761266857604052565b6001600160401b0381116126685760051b60200190565b81601f8201121561056d5780359161448e83614460565b9261449c604051948561443d565b808452602092838086019260051b82010192831161056d578301905b8282106144c6575050505090565b813581529083019083016144b8565b9181601f8401121561056d578235916001600160401b03831161056d576020808501948460051b01011161056d57565b604060031982011261056d576001600160401b039160043583811161056d5782614531916004016144d5565b9390939260243591821161056d5761454b916004016144d5565b9091565b9181601f8401121561056d578235916001600160401b03831161056d576020838186019501011161056d57565b606090600319011261056d576001600160a01b0390600435828116810361056d5791602435908116810361056d579060443590565b6001600160401b03811161266857601f01601f191660200190565b9291926145d8826145b1565b916145e6604051938461443d565b82948184528183011161056d578281602093846000960137010152565b9080601f8301121561056d5781602061461e933591016145cc565b90565b6004359061ffff8216820361056d57565b60243590811515820361056d57565b60ff6080809282815116855282602082015116602086015262ffffff604082015116604086015263ffffffff6060820151166060860152015116910152565b6001600160a01b0391821681529116602082015260400190565b60001981146146a95760010190565b634e487b7160e01b600052601160045260246000fd5b90600182811c921680156146ef575b60208310146146d957565b634e487b7160e01b600052602260045260246000fd5b91607f16916146ce565b6001600160a01b039091168152602081019190915260400190565b91908110156135f45760051b0190565b919082018092116146a957565b919082039182116146a957565b9190808252602080920192916000805b83821061475d57505050505090565b9091929394853560018060a01b03811680910361079157815283019483019392916001019061474e565b9081602091031261056d5751801515810361056d5790565b6001600160a01b03918216815291166020820152604081019190915260600190565b919091600092818452602090610111825260409160ff8387205460481c1690828210156148d25786915b83811061489d5750614826818360018060a01b038060fb54169060fd54168b89518096819582946323b872dd60e01b8452336004850161479f565b03925af18015614893577fcc113e594226c9d99f0187a3efb1c9e4ce0771412ce4d7a288f90144f04429f096979850614866575b508351928352820152a2565b61488590823d841161488c575b61487d818361443d565b810190614787565b503861485a565b503d614873565b85513d8a823e3d90fd5b918288526101128252848820549081156148c15701916148bc9061469a565b6147eb565b8551635435b28960e11b8152600490fd5b8351635435b28960e11b8152600490fd5b600211156148ed57565b634e487b7160e01b600052602160045260246000fd5b919082604091031261056d576020825192015190565b90815180825260208080930193019160005b828110614939575050505090565b83518552938101939281019260010161492b565b60009060009060609161010a546001908160ff82161461496c57505050565b63ffffffff95929594919394808260481c1661498e610e109182810690614731565b916149a362ffffff93848660181c1690614724565b421180614bf5575b156149d657505050505050604051928160208501526040840152604083526149d2836143eb565b9190565b6149ff92916149f3918560689b979a99989b1c1690810690614731565b908360301c1690614724565b42119081614be6575b50614bc457736C600B27D40edf17934bC7749490d86446D44C9E6040908151926305f739f960e21b845261010e8060048601526020948581602481875af4908115614bba578391614b8d575b50614a6157505050505050565b8395985060448597989495929395518096819363c9c3102d60e01b835260048301528560248301525af4928315614b81578193614b52575b5082815261010d80865260ff8583205460181c166003811015614b3e578803614ad657505050600382519384015281830152815261461e816143eb565b838298969594939852845260ff8382205460181c16906003821015614b2a5750600214614b05575b5050509190565b90919294506004825193840152818301528152614b21816143eb565b91388080614afe565b634e487b7160e01b81526021600452602490fd5b634e487b7160e01b83526021600452602483fd5b9092508481813d8311614b7a575b614b6a818361443d565b8101031261079157519138614a99565b503d614b60565b508351903d90823e3d90fd5b90508581813d8311614bb3575b614ba4818361443d565b81010312610791575138614a54565b503d614b9a565b85513d85823e3d90fd5b935090915060405192600260208501526040840152604083526149d2836143eb565b60ff915060101c161538614a08565b5060ff8460081c16156149ab565b60fb546001600160a01b0316939192843b1561056d5760009460e493869260ff604051998a98899763d505accf60e01b89523360048a01523060248a01526044890152606488015216608486015260a485015260c48401525af18015614c7557614c6a5750565b614c73906143a2565b565b6040513d6000823e3d90fd5b91614cb860208360018060a01b038060fb54169060fd541660006040518096819582946323b872dd60e01b8452336004850161479f565b03925af18015614c7557614d0f575b50614cd3818385615629565b604051918252614ce2816148e3565b60208201527f82e94ebf59ab1823045c86284257f1099d3757b9622dc0574bc166aecea2fe9860403392a3565b614d269060203d811161488c5761487d818361443d565b5038614cc7565b60ff80546000908152602061010581526040928383203384528252838320549360e43592834210156151e55760a4359360c43596835191838301917f94fd718aa05a42d2b36d996b7fe56ff32591e46434435d6d3449720695e107588352338685015287606085015260808401528860a084015260c083015260c0825260e0820160018060401b0391838210838311176151bd578186528351902091610100938481017f8b73c3c69bb8fe3d512ecc4cf759cc79239f7b179b0ffacaa9a75d522b39400f81527ffe3fbe86e0865f85b73468493ed84d96796c37eb91c75c13d77cbf2506478a3f6101208301527fc89efdaa54c0f20c7adf612882df0950f5a951637e0307cdcb4c672f298b8bc6610140830152466101608301523061018083015260a084526101a0820193808510848611176151d15784895251902061190160f01b6101c083019081526101c28301919091526101e28201949094526042835261022001908111828210176151bd578552519020610144359085821682036122fe57614ed294939291614eca9161012435916101043591615d8c565b949094615d2c565b6001600160a01b0393841687528152818620548416156151ac5786615149575b600490813596614f028888614724565b94614f106044358097614724565b906024359460643598614f238a88614724565b93803410615139578580823414615130575b81808092853403903390f11561512657885163abfdc0e560e01b815261010884820152610109602482015233604482015260648101829052918783608481733EfDc4307580DBe1fB9D857fbE9C1250a185Fe1a5af492831561511c5787936150ed575b50828203926101135490818502918583041490841417156150da576127109004918560fe5416908254823b15612357579060648a92868f51958694859363bc157ac160e01b85528c85015233602485015260448401525af180156150d0579161504698979593918a9795936150bd575b505487526101078652600f8b88200191038154019055848260fb54169260fd5416918a51978895869485936323b872dd60e01b85523390850161479f565b03925af19081156150b25750615095575b508251968752860152840152606083015260808201527fe03b78662d1cf3cc1f92436fdfbc1755c98708c68667440bd7865b839269b44760a03392a3565b6150ab90823d841161488c5761487d818361443d565b5038615057565b8551903d90823e3d90fd5b6150c9909891986143a2565b9638615008565b8b513d8a823e3d90fd5b634e487b7160e01b885260118552602488fd5b9092508781813d8311615115575b615105818361443d565b8101031261171657519138614f98565b503d6150fb565b8a513d89823e3d90fd5b88513d87823e3d90fd5b506108fc614f35565b8851632ca2f52b60e11b81528390fd5b8686526101118152818620615165615160826151f6565b615240565b600019810190811161519857815468ffffffff00000000ff1916908616174260281b63ffffffff60281b16179055614ef2565b634e487b7160e01b88526011600452602488fd5b815163143606b960e31b8152600490fd5b634e487b7160e01b89526041600452602489fd5b634e487b7160e01b8c52604160045260248cfd5b8151630819bdcd60e01b8152600490fd5b90604051615203816143b5565b608060ff8294548181168452818160081c16602085015262ffffff8160101c16604085015263ffffffff8160281c16606085015260481c16910152565b6040810162ffffff80825116156152ad5761526563ffffffff60608501511642614731565b9151169081156152975761528360209160ff93848651169104614724565b92015116808211615292575090565b905090565b634e487b7160e01b600052601260045260246000fd5b50505160ff1690565b733EfDc4307580DBe1fB9D857fbE9C1250a185Fe1a90813b1561056d57604051633880f0ab60e01b815261010860048201526001600160a01b03909116602482015290600090829060449082905af48015614c7557614c6a5750565b61532a60409295949395606083526060830190614919565b9460208201520152565b80518210156135f45760209160051b010190565b602090818184031261056d578051906001600160401b03821161056d57019180601f8401121561056d57825161537d81614460565b9361538b604051958661443d565b818552838086019260051b82010192831161056d578301905b8282106153b2575050505090565b815181529083019083016153a4565b60ff5460009081526101076020526002604082200160405190634d63fffd60e01b82526004820152816024820152600a6044820152818160648173f1C6f1621A71A8FEB5FE5cBE1247113cC6Eec6915af49182156109d057809261542457505090565b61461e92503d8091833e615438818361443d565b810190615348565b60ff5460009081526101076020526002604082200160405190634d63fffd60e01b82526004820152600a602482015260326044820152818160648173f1C6f1621A71A8FEB5FE5cBE1247113cC6Eec6915af49182156109d057809261542457505090565b9081526001600160401b03909116602082015261ffff909116604082015263ffffffff91821660608201529116608082015260a00190565b6040919493926060820195825260208201526154f7836148e3565b0152565b6001600160701b0391821690821601919082116146a957565b906003916004810191825491805463ffffffff91620151809687910191838616420302048154019055804216938463ffffffff19809516179055600582019485549260048154910192841642030204815401905516179055565b600501546001600160701b0390609081901c9060201c821660008282111561559d5750038181116146a9571690565b9150501690565b60ff54600090815261010760205260408120600c8101939192600d82019260029092019173Ab4B82B8DD8A5DB597A3166f0c46c64b3000b69291823b156108eb57918594939160a49360405198899687956311b7263f60e21b8752600487015260248601526044850152606484015260848301525af49081156109d05750614c6a5750565b909160ff54600090815260209361010785526004604080842093338152600185018852818120878252885281812094885220926156668482615514565b8281548015615768575b0181558354830184550180546001600160701b039690609081901c90821c8816818111919082615755575b8215615732575b505061572057614c73966001866156bb6156f1986148e3565b036156f7579081612b3d926156ec9516916156e260058801612b3d85858354861c166154fb565b8454901c166154fb565b61556e565b906155a4565b612a8691506156ec931661571660058601612a8683825460901c6154fb565b825460901c6154fb565b604051638f04435560e01b8152600490fd5b10905080615742575b38806156a2565b5061574c856148e3565b6001851461573b565b9150615760876148e3565b86159161569b565b60038301546002870154600180860180546001600160801b0319678ac7230489e8000094860285900460801b166001600160801b0391821681178355928b0154909402929092049092169091179055615670565b51906001600160a01b038216820361056d57565b604051906157dd8261436a565b816101606000918281528260208201528260408201528260608201528260808201528260a08201528260c08201528260e08201528261010082015282610120820152826101408201520152565b60ff61010a54161561583857565b60405163a397eb4760e01b8152600490fd5b60ff5460009080825261010590816020526040832033845260205260408320546101065481101561588f57604092600192855260205282842033855260205201912055565b60405163d92de14f60e01b8152600490fd5b3360005261010060205260ff60406000205416156158bb57565b60405163143606b960e31b8152600490fd5b803b1561590257600080516020615ed483398151915280546001600160a01b0319166001600160a01b03909216919091179055565b60405163145708c760e31b8152600490fd5b3d1561593f573d90615925826145b1565b91615933604051938461443d565b82523d6000602084013e565b606090565b60ff610193541661595157565b60405163928dfa7760e01b8152600490fd5b60ff61019354161561597157565b60405162c5619760e61b8152600490fd5b61016160028154146159945760029055565b6040516306fda65d60e31b8152600490fd5b600090815261013160205260409020546001600160a01b031680156159c85790565b604051636aa2a93760e01b8152600490fd5b6159e381615aa0565b156159c857600090815261013360205260409020546001600160a01b031690565b929190615a118233615a31565b156134e55783615a258383615a2a97615abe565b615c71565b15613bbf57565b906001600160a01b038080615a45846159a6565b16931691838314938415615a78575b508315615a62575b50505090565b615a6e919293506159da565b1614388080615a5c565b90935060005261013460205260406000208260005260205260ff604060002054169238615a54565b600090815261013160205260409020546001600160a01b0316151590565b615ac7836159a6565b6001600160a01b039291831691908316829003615b61578216918215615b72578190615af2856159a6565b1603615b6157600080516020615f3483398151915260008481526101336020526040812060018060a01b031990818154169055838252610132602052604082206000198154019055848252604082206001815401905585825261013160205284604083209182541617905580a4565b60405162a1148160e81b8152600490fd5b604051633a954ecd60e21b8152600490fd5b9091600091803b15615c6857615bcf6020918493604051948580948193630a85bd0160e11b9a8b84523360048501528460248501526044840152608060648401526084830190614303565b03926001600160a01b03165af190829082615c20575b5050615c1257615bf3615914565b80519081615c0d576040516368d2bf6b60e11b8152600490fd5b602001fd5b6001600160e01b0319161490565b909192506020813d8211615c60575b81615c3c6020938361443d565b810103126108ef5751906001600160e01b0319821682036103875750903880615be5565b3d9150615c2f565b50505050600190565b91926000929190813b15615ce257602091615cc79185604051958680958194630a85bd0160e11b9b8c845233600485015260018060a01b0380951660248501526044840152608060648401526084830190614303565b0393165af190829082615c20575050615c1257615bf3615914565b5050505050600190565b90919015615cf8575090565b815115615d085750805190602001fd5b60405162461bcd60e51b815260206004820152908190613639906024830190614303565b60058110156148ed5780615d3d5750565b60018103615d5757604051638baa579f60e01b8152600490fd5b60028103615d7157604051634be6321b60e01b8152600490fd5b600314615d7a57565b60405163185f3d1d60e21b8152600490fd5b9291906fa2a8918ca85bafe22016d0b997e4df60600160ff1b038311615df85791608094939160ff602094604051948552168484015260408301526060820152600093849182805260015afa156113ba5781516001600160a01b03811615615df2579190565b50600190565b50505050600090600390565b60ff6001918060081c600052610104602052161b60406000205416151590565b6033546001600160a01b03163303615e3857565b604051632e6c18c960e11b8152600490fd5b600080516020615eb4833981519152819055603380546001600160a01b039283166001600160a01b031982168117909255909116600080516020615ef4833981519152600080a356fe4910fdfa16fed3260ed0e7147f7cc6da11a60208b5b9406d12a635614ffd9143b53127684a568b3173ae13b9f8a6016e243e63b6e8ee1178d6a717850b5d6103360894a13ba1a3210667c828492db98dca3e2076cc3735a920a3ca505d382bbc8be0079c531659141344cd1fd0a4f28419497f9722a3daafe3b4186f6b6457e0bc7cd75a20ee27fd9adebab32041f755214dbc6bffa90cc0225b39da2e5c2d3bddf252ad1be2c89b69c2b068fc378daa952ba7f163c4a11628f55a4df523b3ef62e78cea01bee320cd4e420270b5ea74000d11b0c9f74754ebdbfc544b05a258a26469706673582212203a22b9502b83232759d78e29709c87f03e08ff2069bc9734957e19b9ea2ef09b64736f6c63430008110033",
  "deployedBytecode": "0x608080604052600436101561001357600080fd5b600090813560e01c90816301ffc9a71461427357508063068bcd8d146140e357806306fdde031461405c578063081812fc1461403d578063095ea7b314613f6e5780630aaef80214613ec55780630dd9be9614613e685780630e357a6e14613cd45780631305bffc146136d0578063153b25c41461366657806316a065c61461363d5780631fe543e3146134f757806323b872dd146134bd57806332eb808a146133a3578063350b236914613314578063362925c214612e6b5780633659cfe614612d1d5780633693075b14612bec57806337cecbf2146127fc57806339c175021461267e57806342842e0e1461262d57806344f044041461260d5780634585e33b14611ed25780634e71e0c814611e685780634f1ef28614611c6157806352d1902d14611bf6578063536c6bfa14611b9e5780635c975abb14611b7a578063603d080014611b20578063609213a614611ac85780636352211e14611a9757806368168ba5146119695780636817031b146118fa5780636c79c008146118db5780636e04ff0d1461188157806370a082311461182f578063715018a6146117d2578063802e9cfa146117645780638456cb591461171a5780638d47a30d146116255780638da5cb5b146115fc5780639208b21e1461155757806395d89b41146114905780639aab85e5146114315780639c41b9a6146113c75780639cad5fd9146112fd5780639d2150421461120f578063a22cb4651461116f578063a54b2a7314611146578063afd5f74714610f99578063b1df74d714610f2a578063b242e53414610eb5578063b88d4fde14610e66578063bb4d995514610da8578063bee5b71514610d4c578063c87b56dd14610c60578063cb8cd81414610a24578063cd5c4084146109dc578063dacc9852146108f3578063db6400811461080d578063df65845a146107be578063e30c397814610795578063e4c86c941461062d578063e56b9f8e146105c7578063e985e9c514610572578063ee6b89b11461051c578063f1bd4c04146104ef578063f3a7f2fe14610435578063f7b188a5146103dc578063fbd78235146103b3578063fbfa77cf1461038a5763ff9c75431461033957600080fd5b34610387576020366003190112610387577f39feb9fafd10c5355c86cdccca7884a183c4dd524ca37b0761575ce0974cdb066020600435610378615e24565b8061010655604051908152a180f35b80fd5b503461038757806003193601126103875760fc546040516001600160a01b039091168152602090f35b50346103875760203660031901126103875760206103d2600435615e04565b6040519015158152f35b50346103875780600319360112610387576103f5615e24565b6103fd615963565b61019360ff1981541690557f5db9ee0a495bf2e6ff9c91a7834c1ba4fdd244a5e8aa4e537bd38aeae4b073aa6020604051338152a180f35b5034610387576040366003190112610387578061045061433e565b610458615e24565b73__$bf3a140bdbff42a6137d0acc0952596ca5$__9060ff54835261010760205260408320823b156104ea5760405163ed7c9de360e01b815260048035908201526001600160a01b03909216602483015261010a60448301526064820152908290829060849082905af480156104df576104cf5750f35b6104d8906143a2565b6103875780f35b6040513d84823e3d90fd5b505050fd5b5034610387578060031936011261038757600f604060209260ff5481526101078452200154604051908152f35b50346103875760e03660031901126103875760a03660431901126103875760c43560ff8116810361056d5761055c9060a435608435606435604435614c03565b61056a6024356004356147c1565b80f35b600080fd5b50346103875760403660031901126103875761058c614328565b604061059661433e565b9260018060a01b038093168152610134602052209116600052602052602060ff604060002054166040519015158152f35b5034610387576060366003190112610387576105e1615e24565b60ff5481526101076020908152604080832060043584528252822060060180546001600160401b03191660243563ffffffff161760443590921b63ffffffff60201b1691909117905580f35b5034610387576101003660031901126103875760043560443560028110156107915760e4359160ff8316830361056d57610665615944565b61066d615982565b8373__$bf3a140bdbff42a6137d0acc0952596ca5$__60ff5482526101078060205260408320823b1561076a5760405163dad02e6b60e01b815285600482015261010a9182602483015260448201528481606481875af4908115610786578591610772575b505060018060a01b0360fc54169160ff5485526020526040842092803b1561076e57849260849160405195869485936364abf4c560e11b85528a60048601526024850152604484015260648301525af480156104df57610756575b505061074d61056a9360016101615560c43560a435608435606435614c03565b60243590614c81565b61075f906143a2565b61076a57833861072d565b8380fd5b8480fd5b61077b906143a2565b61076a5783386106d2565b6040513d87823e3d90fd5b8280fd5b50346103875780600319360112610387576034546040516001600160a01b039091168152602090f35b5034610387576020366003190112610387576001600160a01b03806107e1614328565b1682526101086020526040818184205416928381522054169061080960405192839283614680565b0390f35b5034610387576020806003193601126108ef57816004356001600160401b0381116108ef5791610842829336906004016144d5565b92909161084d615944565b73__$bf3a140bdbff42a6137d0acc0952596ca5$__92825b858110610870578380f35b61087b818784614714565b3560ff548552610107845260408520863b156108eb576040519163dad02e6b60e01b8352600483015261010a602483015260448201528481606481895af49081156107865785916108d7575b50506108d29061469a565b610865565b6108e0906143a2565b61076a5783886108c7565b8580fd5b5080fd5b5034610387576020806003193601126108ef57816080604051610915816143b5565b8281528284820152826040820152826060820152015260043582526101118152610941604083206151f6565b60405163e51057f560e01b8152909161095d6004830184614641565b808260a48173__$bf3a140bdbff42a6137d0acc0952596ca5$__5af49384156109d0579361099e575b60a08360ff8616815261099c6040518092614641565bf35b90809350813d83116109c9575b6109b5818361443d565b8101031261056d5760ff60a0925192610986565b503d6109ab565b604051903d90823e3d90fd5b50346103875760403660031901126103875760406109f861433e565b916004358152610105602052209060018060a01b03166000526020526020604060002054604051908152f35b50346103875761018036600319011261038757610a3f615e24565b60043560ff8116810361056d57602435801515810361056d5760443591821515830361056d5762ffffff80606435166064350361056d5780608435166084350361056d5763ffffffff908160a4351660a4350361056d578160c4351660c4350361056d5761ffff60e4351660e4350361056d5761ffff6101043516610104350361056d5764ffffffffff6101243516610124350361056d5764ffffffffff6101443516610144350361056d5760ff6101643516610164350361056d577f644a735f0a2f3c02bf4c681e68a69f4049d90b36f4884f1ad16804e6cb52e961946101809460ff60f81b6101643560f81b169061ff0060ff871691151560081b161762ff000083151560101b161765ffffff00000060643560181b161762ffffff60301b60843560301b161763ffffffff60481b60a43560481b161763ffffffff60681b60c43560681b161761ffff60881b60e43560881b161761ffff60981b6101043560981b161764ffffffffff60a81b6101243560a81b161764ffffffffff60d01b6101443560d01b16171761010a5560ff60405194168452610bdf614632565b1515602085015215156040840152806064351660608401526084351660808301528060a4351660a083015260c4351660c082015261ffff60e4351660e082015261ffff610104351661010082015264ffffffffff610124351661012082015264ffffffffff610144351661014082015260ff6101643516610160820152a180f35b5034610387576020806003193601126108ef57604051632f8218bd60e21b815261010360048201526004356024820152828160448173__$0e7f1d138f6cc9ca9006918b4d39b2c532$__5af49283156109d0578093610cd0575b5050610809604051928284938452830190614303565b909192503d8082843e610ce3818461443d565b82019183818403126108ef578051906001600160401b038211610791570182601f820112156108ef57805191610d18836145b1565b93610d26604051958661443d565b838552858484010111610387575090610d44918480850191016142e0565b903880610cba565b50366003190161016081126108ef5760801361038757610d6a614354565b60c03660a31901126108ef57610d9790610d82615944565b610d8a615982565b610d9261584a565b6152b6565b610d9f614d2d565b60016101615580f35b503461038757606036600319011261038757610dc2614328565b602435610dcd615944565b610dd56158a1565b60fc546001600160a01b039084908216803b156108ef578160405180926310b3879160e11b8252818381610e0d8a8c600484016146f9565b03925af180156104df57610e52575b505060207ff4bf7e6aad5513467782ce008fd12fc10653118cb8b12ac0f818ced4e2df188291604051938452604435941692a380f35b610e5b906143a2565b61076a578338610e1c565b503461038757608036600319011261038757610e80614328565b610e8861433e565b606435916001600160401b03831161076a57610eab61056a933690600401614603565b9160443591615a04565b503461038757604036600319011261038757610ecf614328565b610ed7614632565b90610ee0615e24565b6001600160a01b038116918215610f185715610f005761056a9150615e4a565b50603480546001600160a01b03191691909117905580f35b604051633aafecb360e21b8152600490fd5b5034610387576020366003190112610387576004356001600160a01b038116908190036108ef5760207fb17fb480312a56d282372043fb80c9263fb00b4b5a91187776baf4946d8f4ac291610f7d615e24565b60fe80546001600160a01b03191682179055604051908152a180f35b5034610387578060031936011261038757610fb2615e24565b60fe5460ff546001600160a01b039291831690813b15610791578291602483926040519485938492636299f8cf60e01b845260048401525af180156104df57908291611132575b505060ff54600181018091116111065781928160ff5560fe541690813b1561112e57829160448392604051948593849263744d443360e11b845260048401524260248401525af180156104df5761111a575b5050611055615944565b610193600160ff19825416179055600080516020615f548339815191526020604051338152a160ff5490600019820182811161110657815261010780602052600f604083200154908160041b91808304601014901517156110f25782936064935260205204600f6040832001557f3bf8992b1ca7018d446bcf1d45dc7a62e50decf5248434be4194aef154463380602060ff54604051908152a180f35b634e487b7160e01b83526011600452602483fd5b634e487b7160e01b82526011600452602482fd5b611123906143a2565b61038757803861104b565b5050fd5b61113b906143a2565b610387578038610ff9565b503461038757806003193601126103875760fd546040516001600160a01b039091168152602090f35b503461038757604036600319011261038757611189614328565b611191614632565b6001600160a01b03909116903382146111fd57338352610134602052604083208260005260205260406000209015159060ff1981541660ff83161790556040519081527f17307eab39ab6107e8899845ad3d59bd9653f200f220920489ca2b5937696c3160203392a380f35b60405163b06307db60e01b8152600490fd5b50346103875760a036600319011261038757611229615e24565b60043561010b8190556024356001600160401b038116908190036107915761010c918254916044359363ffffffff918286169081870361056d576064359384169283850361056d576084359661ffff88169586890361056d577f3510c45fb24ce728b56d5136c57163ff69e25ab31ac04a1264387c7acff6c41e998460a09a61ffff60801b9060801b169360018060901b031916179063ffffffff60401b9060401b16179063ffffffff60601b9060601b16171790556040519485526020850152604084015260608301526080820152a180f35b50346103875760403660031901126103875761131761433e565b60ff548252610107602052604080832081516321dc13e160e21b815260048035908201526001600160a01b03909316602484015260448301529091908260648173__$bf3a140bdbff42a6137d0acc0952596ca5$__5af480156113ba57604092829161138b575b5082519182526020820152f35b90506113ad9150823d84116113b3575b6113a5818361443d565b810190614903565b3861137e565b503d61139b565b50604051903d90823e3d90fd5b50366003190161020081126108ef57608013610387576113e5614354565b60c03660a31901126108ef5760a0366101631901126108ef5761140a90610d82615944565b6101e43560ff8116810361056d57610d97906101c4356101a4356101843561016435614c03565b50346103875760203660031901126103875761144b615e24565b60fd5481906001600160a01b0316803b1561148d57818091602460405180948193630852cd8d60e31b835260043560048401525af180156104df576104cf5750f35b50fd5b50346103875780600319360112610387576040518161013080546114b3816146bf565b8085529160019180831690811561152c57506001146114f1575b610809856114dd8189038261443d565b604051918291602083526020830190614303565b835260208084209095505b8284106115195750505081610809936114dd9282010193386114cd565b80548585018701529285019281016114fc565b905061080996506114dd9450602092508593915060ff191682840152151560051b82010193386114cd565b503461038757606036600319011261038757611571614621565b60243561ffff9182821680920361056d578392604435600281101561076e57611598615e24565b73__$bf3a140bdbff42a6137d0acc0952596ca5$__92833b156108eb5785936084926040519687958694631747e07760e01b8652610109600487015216602485015260448401526115e8816148e3565b60648301525af480156104df576104cf5750f35b50346103875780600319360112610387576033546040516001600160a01b039091168152602090f35b5034610387578060208060031936011261148d576004356001600160401b03811161112e57611659839136906004016144d5565b919092611664615944565b73__$bf3a140bdbff42a6137d0acc0952596ca5$__92825b818110611687578380f35b611692818388614714565b60fc5460ff548652610107855260408620913591906001600160a01b0316873b1561171657604051926364abf4c560e11b84526004840152602483015261010a604483015260648201528481608481895af4908115610786578591611702575b50506116fd9061469a565b61167c565b61170b906143a2565b61076a5783886116f2565b8680fd5b5034610387578060031936011261038757611733615e24565b61173b615944565b610193600160ff19825416179055600080516020615f548339815191526020604051338152a180f35b5034610387576020366003190112610387578061177f614328565b611787615963565b61178f615e24565b60fc546001600160a01b039081169190823b156104ea57602484928360405195869485936350e0278760e11b85521660048401525af180156104df576104cf5750f35b50346103875780600319360112610387576117eb615e24565b6000600080516020615eb4833981519152819055603380546001600160a01b031981169091556001600160a01b0316600080516020615ef48339815191528280a380f35b5034610387576020366003190112610387576001600160a01b03611851614328565b16801561186f57816040916020935261013283522054604051908152f35b604051636500287b60e11b8152600490fd5b5034610387576020366003190112610387576004356001600160401b0381116108ef576118b290369060040161454f565b50506118bc61494d565b9061080960405192839215158352604060208401526040830190614303565b5034610387578060031936011261038757602061010654604051908152f35b5034610387576020366003190112610387576004356001600160a01b038116908190036108ef5760207fe7ae49f883c825b05681b3e00e8be6fdea9ed2a8a45e4c6ecb9390fc44cce6159161194d615e24565b60fc80546001600160a01b03191682179055604051908152a180f35b503461038757606036600319011261038757600435604435600281101561079157611992615944565b61199a615982565b8273__$bf3a140bdbff42a6137d0acc0952596ca5$__60ff5482526101078060205260408320823b1561076a5760405163dad02e6b60e01b815286600482015261010a9182602483015260448201528481606481875af4908115610786578591611a83575b505060018060a01b0360fc54169160ff5485526020526040842092803b1561076e57849260849160405195869485936364abf4c560e11b85528b60048601526024850152604484015260648301525af480156104df57611a6f575b505061056a9160016101615560243590614c81565b611a78906143a2565b610791578238611a5a565b611a8c906143a2565b61076a5783386119ff565b5034610387576020366003190112610387576020611ab66004356159a6565b6040516001600160a01b039091168152f35b5034610387576020366003190112610387577f9d0f7db17f6a6b48d74e890cdcde48ddd19d708f5eae2e1c842e9615cc6fe45a602061ffff611b08614621565b611b10615e24565b168061011355604051908152a180f35b503461038757602036600319011261038757611b3a614328565b611b42615e24565b6001600160a01b03168015611b685760fd80546001600160a01b03191691909117905580f35b604051630ae8f22360e21b8152600490fd5b5034610387578060031936011261038757602060ff61019354166040519015158152f35b50346103875760403660031901126103875780808080611bbc614328565b60243590611bc8615963565b611bd0615e24565b82908215611bec575b6001600160a01b031690f1156109d05780f35b6108fc9150611bd9565b50346103875780600319360112610387577f00000000000000000000000000000000000000000000000000000000000000006001600160a01b03163003611c4f576020604051600080516020615ed48339815191528152f35b60405163e437988b60e01b8152600490fd5b50604036600319011261038757611c76614328565b6024356001600160401b03811161079157611c95903690600401614603565b6001600160a01b037f00000000000000000000000000000000000000000000000000000000000000008116929190308414611c4f57600080516020615ed4833981519152938185541603611e5657611ceb615e24565b600080516020615e948339815191525460ff1615611d0f57505061056a91506158cd565b82919216604051936352d1902d60e01b85526020948581600481865afa60009181611e27575b50611d4c5760405163fec758a960e01b8152600490fd5b03611e1557611d5a826158cd565b60405190600080516020615f14833981519152600080a2825115801590611e0d575b611d88575b5050505080f35b813b15611dfe5750600082819285611df49695519201905af4611da9615914565b907f416464726573733a206c6f772d6c6576656c2064656c65676174652063616c6c60405193611dd8856143eb565b60278552840152660819985a5b195960ca1b6040840152615cec565b5038808080611d81565b63a6c49bc960e01b8152600490fd5b506001611d7c565b6040516322b9fa5360e21b8152600490fd5b90918782813d8311611e4f575b611e3e818361443d565b810103126103875750519038611d35565b503d611e34565b604051631008d79560e01b8152600490fd5b50346103875780600319360112610387576034546001600160a01b039081811633819003611ec05780603354938416600080516020615ef48339815191528680a36001600160a01b0319928316176033551660345580f35b6040516305e05b4b60e31b8152600490fd5b5034610387576020806003193601126108ef576001600160401b039060043582811161076a57611f08604091369060040161454f565b90809291611f14615944565b8101031261056d5780820135906001903581810361202a5750505090611f3861582a565b61010a9081549260ff8460081c166120185780611faf92610100948561ff001980981617905560018060a01b036101c5541661010b54918861010c54604051978895869485936305d3b1d360e41b855263ffffffff92838260601c16938260401c169261ffff8360801c16921690600487016154a4565b03925af18015610786578590611fe9575b855261010d90525060408320805463ff0000001993169190911791909116630100000017905580f35b508082813d8311612011575b611fff818361443d565b8101031261056d5761010d9151611fc0565b503d611ff5565b604051636dbaff7360e01b8152600490fd5b6002810361211e5750505061203d61582a565b61010a9182549060ff8260101c16612018576120b39362010000849362ff0000191617905560018060a01b036101c5541661010b54918661010c54604051978895869485936305d3b1d360e41b855263ffffffff92838260601c16938260401c169261ffff8360801c16921690600487016154a4565b03925af180156121135783906120e4575b835261010d90525060408120805463ff00ff001916630200010017905580f35b508082813d831161210c575b6120fa818361443d565b8101031261056d5761010d91516120c4565b503d6120f0565b6040513d85823e3d90fd5b9294935090916003810361238c575061213561582a565b61010a805461ff0063ffffffff60481b0119164260481b63ffffffff60481b1617815582845261010d855260408420805462ff0000191662010000178082559195909160181c60ff166003811015612378578303612366576121956153c1565b9061219e615440565b96549273__$bf3a140bdbff42a6137d0acc0952596ca5$__9160ff5488526101079182825260408920843b15612357579061220a8a8895949360405180938192632968920160e01b8352670de0b6b3a76400009b8c64ffffffffff809c60a81c16029060048501615312565b0381895af4801561235b57908b91612343575b50506040519761222c89614406565b600a91828a5261014036858c013701548a905b8282106123025750505088995060ff548952526040872093823b156122fe576122868895604051978896879586956395661b4b60e01b875260d01c16029060048501615312565b03915af49081156121135783916122ea575b505073__$f445361e8b50888b0b8cee3fd4db50a783$__90813b1561112e57829060446040518094819363f9ff0d8560e01b835261010e600484015260248301525af480156104df576104cf57505080f35b6122f3906143a2565b61148d578138612298565b8780fd5b61233d90612313602882068f615334565b5161231e848d615334565b5260405185810191825285815261233481614422565b5190209161469a565b9061223f565b61234c906143a2565b61235757893861221d565b8980fd5b6040513d8d823e3d90fd5b604051635435b28960e11b8152600490fd5b634e487b7160e01b86526021600452602486fd5b90939060041461239e575b5050905080f35b6123a661582a565b61010a805462ff000063ffffffff60681b0119164260681b63ffffffff60681b1617815582845261010d825260408420805462ff0000191662010000178082559192909160181c60ff16600381101561237857600203612366576124086153c1565b612410615440565b93549160ff54875261010791828252612710600f60408a200154948161ffff96878360881c16020495600f60408c2001549160981c16020495600f60408a200191600a928389880102815403905573__$bf3a140bdbff42a6137d0acc0952596ca5$__9560ff548b5260408b2091873b1561260957908b916124a6604051948593849363e4e2c3d560e01b855260048501615312565b0381895af480156125fe57908a916125e6575b505089604051966124c988614406565b83885261014036868a013701549089915b8383106125ab575050505086975060ff548752526040852090803b156108eb5761251d9386936040519586948593849363ea94cb2f60e01b855260048501615312565b03915af4908115612113578391612597575b505073__$f445361e8b50888b0b8cee3fd4db50a783$__90813b1561112e57829060446040518094819363f9ff0d8560e01b835261010e600484015260248301525af480156104df57612583575b80612397565b61258c906143a2565b61038757803861257d565b6125a0906143a2565b61148d57813861252f565b806125ba60288e930684615334565b516125c5858b615334565b526040518681019182528681526125db81614422565b5190209201916124da565b6125ef906143a2565b6125fa5788386124b9565b8880fd5b6040513d8c823e3d90fd5b8b80fd5b503461038757604036600319011261056d5761056a6024356004356147c1565b50346103875761263c3661457c565b60405160208101939092906001600160401b038511848610176126685761056a94604052858452615a04565b634e487b7160e01b600052604160045260246000fd5b50346103875780600319360112610387576126976157d0565b506101806040516126a78161436a565b60ff61016061010a54928284168152828460081c1615156020820152828460101c161515604082015262ffffff8460181c16606082015262ffffff8460301c16608082015263ffffffff8460481c1660a082015263ffffffff8460681c1660c082015261ffff8460881c1660e082015261ffff8460981c1661010082015264ffffffffff8460a81c1661012082015264ffffffffff8460d01c166101408201528360f81c82820152826040519416845260208101511515602085015260408101511515604085015262ffffff606082015116606085015262ffffff608082015116608085015263ffffffff60a08201511660a085015263ffffffff60c08201511660c085015261ffff60e08201511660e085015261ffff6101008201511661010085015264ffffffffff6101208201511661012085015264ffffffffff61014082015116610140850152015116610160820152f35b50346103875760803660031901126103875760643560028110156108ef57612822615944565b61282a615982565b60ff548252610107906020908282526040842073__$bf3a140bdbff42a6137d0acc0952596ca5$__93843b156108eb57856040519263dad02e6b60e01b968785526004359485600482015261010a9283602483015260448201528381606481855af4908115612be1578491612bcd575b505060fc5460ff548452848852604084206001600160a01b039182169190833b156108eb57604051906364abf4c560e11b93848352896004840152602483015285604483015260648201528581608481875af4908115612bae578691612bb9575b505060016101615561290b615982565b60ff5485528589526040852099833b156108eb576040519081526024359a8b600483015285602483015260448201528581606481875af4908115612bae578691612b9a575b505060fc54169260ff5485528589526040852091833b156108eb5785938b936084936040519788968795865260048601526024850152604484015260648301525af480156104df57612b86575b50507fe27d3581f2f954f0767266ff4cfaee3c9f1f93908d0e116ffa69c9f1425db88c93606492605f9260016101615560ff54895282527fa3f77db734c277d287820497fc8b450a9496d4e14a17d325277b4471d6b2aa91612ade60408a20938a336000526001860182526040600020858d52825260408c2095825260408c2090612a288288615514565b600460443597612a39898254614731565b8155612a46898554614731565b84550180546001600160701b03949192919080821c86169060901c80821115612b055750505050612aaa612abc9293881691612a8683825460901c6154fb565b9080546001600160901b031660909290921b6001600160901b031916919091179055565b612a866005840191825460901c6154fb565b612acf612ac98c9261556e565b856155a4565b604051918291863396846154dc565b0390a20204612aee828286615629565b612aff6040519283923396846154dc565b0390a280f35b81939692949110612b21575b50505050612ac9612acf9161556e565b612b7694955090612b67612b3d9392612b3d838d1680956154fb565b908054600160201b600160901b03191660209290921b600160201b600160901b0316919091179055565b60058601938454901c166154fb565b600190612ac9612acf3880612b11565b612b8f906143a2565b6108eb57853861299d565b612ba3906143a2565b61076e578438612950565b6040513d88823e3d90fd5b612bc2906143a2565b61076e5784386128fb565b612bd6906143a2565b61079157823861289a565b6040513d86823e3d90fd5b5034610387576040366003190112610387576001600160401b03906004358281116108ef57612c1f9036906004016144d5565b906024359380851161076a573660238601121561076a57846004013590811161076a5760603660248284028801011161076e57612c5a6158a1565b73__$bf3a140bdbff42a6137d0acc0952596ca5$__92833b156108eb5760405163afb3da2560e01b81526004810183905260648101869052946001600160fb1b0381116117165760249160a4916005999594991b8091608489013786018360848201608089840301858a01525201920195855b828110612cf55761011160448701528680878181808903818b5af480156104df576104cf5750f35b8735845260208089013590850152604080890135908501529681019692810192600101612ccd565b5034610387576020806003193601126108ef57612d38614328565b6001600160a01b037f00000000000000000000000000000000000000000000000000000000000000008116308114611c4f57600080516020615ed4833981519152908282541603611e5657612d8b615e24565b60405191612d98836143d0565b858352600080516020615e948339815191525460ff1615612dc05750505061056a91506158cd565b83929316906040516352d1902d60e01b81528581600481865afa60009181612e3c575b50612dfa5760405163fec758a960e01b8152600490fd5b03611e1557612e08826158cd565b60405190600080516020615f14833981519152600080a2825115801590612e3457611d88575050505080f35b506000611d7c565b90918782813d8311612e64575b612e53818361443d565b810103126103875750519038612de3565b503d612e49565b50346103875760a0366003190112610387576004356001600160a01b038116919082900361038757612e9b61433e565b6044356001600160401b03811161079157612eba903690600401614603565b926064356001600160401b03811161076a57612eda903690600401614603565b93612ee3614354565b9284549260ff8460081c161593848095613307575b80156132f0575b156132945760ff198116600117875584613283575b508015611b685760fb80546001600160a01b031916919091179055845460081c60ff161561309157612f4590615e4a565b60ff845460081c1615613091578051906001600160401b03821161326f578190612f7161012f546146bf565b601f8111613203575b50602090601f831160011461319757869261318c575b50508160011b916000199060031b1c19161761012f555b83516001600160401b03811161317857612fc3610130546146bf565b601f8111613114575b50602094601f82116001146130ae5794849582939495926130a3575b50508160011b916000199060031b1c191617610130555b82549160ff8360081c161561309157600161016155610193805460ff191690556001600160a01b0316801561307f576101c580546001600160a01b031916909117905561304a575080f35b61ff00191681557f7f26b83ff96e1f2b6a682f133852f6798a09c465da95921460cefb3847402498602060405160018152a180f35b604051630cee34c560e11b8152600490fd5b6040516369be8d9360e11b8152600490fd5b015190503880612fe8565b601f19821695610130865280862091865b8881106130fc575083600195969798106130e3575b505050811b0161013055612fff565b015160001960f88460031b161c191690553880806130d4565b919260206001819286850151815501940192016130bf565b61013085527f2f605e086faac1d93117bbfbc18835d434e9405fadc1ca66faf4b864746daf34601f830160051c8101916020841061316e575b601f0160051c01905b8181106131635750612fcc565b858155600101613156565b909150819061314d565b634e487b7160e01b84526041600452602484fd5b015190503880612f90565b925061012f86528086209086935b601f19841685106131e8576001945083601f198116106131cf575b505050811b0161012f55612fa7565b015160001960f88460031b161c191690553880806131c0565b818101518355602094850194600190930192909101906131a5565b61012f87529091507f232da9e50dad2971456a78fb5cd6ff6b75019984d6e918139ce990999420f979601f840160051c810160208510613268575b90849392915b601f830160051c8201811061325a575050612f7a565b888155859450600101613244565b508061323e565b634e487b7160e01b85526041600452602485fd5b61ffff191661010117865538612f14565b60405162461bcd60e51b815260206004820152602e60248201527f496e697469616c697a61626c653a20636f6e747261637420697320616c72656160448201526d191e481a5b9a5d1a585b1a5e995960921b6064820152608490fd5b50303b158015612eff5750600160ff821614612eff565b50600160ff821610612ef8565b5034610387578061332436614505565b9261332d615e24565b73__$bf3a140bdbff42a6137d0acc0952596ca5$__90813b156108eb5785936133926133809460405197889687958695631bd4474f60e31b8752610100600488015260606024880152606487019161473e565b8481036003190160448601529161473e565b03915af480156104df576104cf5750f35b5034610387576060366003190112610387576133bd614328565b60443590600282101561079157604051633f3ccdf960e01b815261010860048201526101096024808301919091526001600160a01b0392831660448301523560648201529161340b816148e3565b608483015260808260a48173__$bf3a140bdbff42a6137d0acc0952596ca5$__5af4908115612113578392848591869461345f575b5060809550826040519516855260208501521660408301526060820152f35b9350505091506080813d82116134b5575b8161347d6080938361443d565b810103126107915760809250613492816157bc565b9160208201519260606134a7604085016157bc565b930151909392909238613440565b3d9150613470565b5034610387576134cc3661457c565b906134d78233615a31565b156134e55761056a92615abe565b6040516329572f6760e01b8152600490fd5b5034610387576040366003190112610387576004356024356001600160401b0381116107915761352b903690600401614477565b6101c5549091906001600160a01b03163381900361361b575080835261010d8060205260ff604085205416158061360a575b613565578380f35b8251156135f45760208493015190828452602052600160408420015560408220600160ff1982541617905573__$f445361e8b50888b0b8cee3fd4db50a783$__90813b1561112e57829060446040518094819363f715530760e01b835261010e600484015260248301525af480156104df576135e057808380f35b6135e9906143a2565b610387578038808380f35b634e487b7160e01b600052603260045260246000fd5b5060ff604085205460081c1661355d565b60405163073e64fd60e21b8152908190613639903360048401614680565b0390fd5b503461038757806003193601126103875760fb546040516001600160a01b039091168152602090f35b5060203660031901126103875761367b615e24565b60fe5481906001600160a01b0316803b1561148d5781606491604051928380926329f9144560e21b825284600483015263ffffffff42166024830152600435604483015234905af180156104df576104cf5750f35b503461038757610120366003190112610387576136eb61433e565b61010480356001600160401b03811161076a5761370c90369060040161454f565b9091613716615944565b61371e6158a1565b613729600435615e04565b613cc25760043560081c855260205260408420600160ff600435161b81541790556137ff6101019283549360018501905560018060a01b0385168652610102602052604086209261377a845461469a565b8094556040519361378a85614386565b60043585526001600160a01b03871660208601526001600160601b03606435604435018116604087015260e43516606086015261ffff60a435811660808701521660a08501526001600160401b036084351660c085015265ffffffffffff64e8d4a5100060c435041660e085015236916145cc565b610100820190815246670de0b6b3a7640000028301600190810186526101036020908152604080882085518155918501519085015160a090811b6001600160a01b0319166001600160a01b0392909216919091179282019290925560608085015160808601519386015160c087015160e0909701519490921b61ffff60601b166001600160601b03919091161760709190911b63ffffffff60701b161760909490941b600160901b600160d01b03169390931760d09190911b6001600160d01b031916176002830155518051906001600160401b038211613cae576138e760038401546146bf565b601f8111613c6a575b50602090601f8311600114613bfe5760039291879183613bf3575b50508160011b9160001990841b1c1916179101555b60405161392c816143d0565b8381526001600160a01b03831615613be2576139566001670de0b6b3a76400004602840101615aa0565b613bd1576139726001670de0b6b3a76400004602840101615aa0565b613bd1576001600160a01b038316808552610132602090815260408087208054600190810190915546670de0b6b3a764000002860101808852610131909252862080546001600160a01b031916831790556139f1929186600080516020615f348339815191528180a46001670de0b6b3a7640000460284010184615b84565b15613bbf5760fc546001600160a01b0316803b1561076a578360405180926310b3879160e11b8252818381613a30606435604435018a600484016146f9565b03925af18015612be157613bac575b508273__$b6aef517fe05d85bc7364998255804b986$__60ff54825261010760205260408220813b15610791578290606460405180948193636ebb252160e11b835260048301526001670de0b6b3a76400004602890101602483015260843560448301525af480156104df57613b98575b5060fc5473__$bf3a140bdbff42a6137d0acc0952596ca5$__906001600160a01b0316813b1561079157829060a4604051809481936337a8f5a560e01b835261010860048401526101096024840152604483015260018060a01b038916606483015260443560848301525af480156104df57613b84575b505060408051608435815260443560643501602082015246670de0b6b3a764000002909201600101926001600160a01b031691600435917faf1bba31184b4d13e4f756b22fc2755d77b6ad147f10a7b12ea6afa58a2ca5f691a480f35b613b8d906143a2565b610791578238613b27565b613ba1906143a2565b610791578238613ab0565b613bb8909391936143a2565b9138613a3f565b6040516368d2bf6b60e11b8152600490fd5b60405162a5a1f560e01b8152600490fd5b604051622e076360e81b8152600490fd5b01519050388061390b565b906003840187526020872091875b601f1985168110613c525750918391600193600395601f19811610613c3a575b505050811b01910155613920565b015160001983861b60f8161c19169055388080613c2c565b91926020600181928685015181550194019201613c0c565b60038401875260208720601f840160051c810160208510613ca7575b601f830160051c82018110613c9c5750506138f0565b888155600101613c86565b5080613c86565b634e487b7160e01b86526041600452602486fd5b604051630490d63160e01b8152600490fd5b503461038757604036600319011261038757604061012091613cf4614328565b816101008451613d0381614386565b82815282602082015282868201528260608201528260808201528260a08201528260c08201528260e0820152015260ff5482526101076020526001838320019060018060a01b03168252602052818120602435825260205220604051613d6881614386565b6004825492838352600181015460018060801b038116602085015260801c6040840152600281015460018060801b038116606085015260801c6080840152600381015460a0840152015463ffffffff811660c083015260018060701b038160201c1660e083015260901c61010082015260405191825260018060801b03602082015116602083015260018060801b03604082015116604083015260018060801b03606082015116606083015260018060801b03608082015116608083015260a081015160a083015263ffffffff60c08201511660c083015260018060701b0360e08201511660e083015261010060018060701b0391015116610100820152f35b503461038757613e7736614505565b613e8393929193615e24565b80820361236657845b828110613e97578580f35b80613ea56001928488614714565b35613eb1828688614714565b358852610112602052604088205501613e8c565b5034610387576020366003190112610387576004356001600160401b0381116108ef57906040613efc613f31933690600401614477565b60ff5483526101076020528183208251948592839263b93cda1360e01b84526004840152606060248401526064830190614919565b61010a6044830152038173__$bf3a140bdbff42a6137d0acc0952596ca5$__5af480156113ba57604092829161138b575082519182526020820152f35b503461038757604036600319011261038757613f88614328565b602435906001600160a01b038080613f9f856159a6565b1692169180831461402b57803314159081614008575b506134e5578284526101336020526040842080546001600160a01b03191683179055613fe0836159a6565b167f8c5be1e5ebec7d5bd14f71427d1e84f3dd0314c0f7b2291e5b200ac8c7c3b9258480a480f35b905084526101346020526040842033855260205260ff6040852054161538613fb5565b604051639196021d60e01b8152600490fd5b5034610387576020366003190112610387576020611ab66004356159da565b50346103875780600319360112610387576040518161012f805461407f816146bf565b8085529160019180831690811561152c57506001146140a857610809856114dd8189038261443d565b835260208084209095505b8284106140d05750505081610809936114dd9282010193386114cd565b80548585018701529285019281016140b3565b5034610387576020366003190112610387576040610180916141036157d0565b5060ff5481526101076020528181206004358252602052206040516141278161436a565b60068254928383526001810154602084015260028101546040840152600381015460018060801b038116606085015260801c6080840152600481015460a0840152600581015463ffffffff811660c085015260018060701b038160201c1660e085015260901c610100840152015463ffffffff811661012083015263ffffffff8160201c1661014083015260401c610160820152604051918252602081015160208301526040810151604083015260018060801b03606082015116606083015260018060801b03608082015116608083015260a081015160a083015263ffffffff60c08201511660c083015260018060701b0360e08201511660e083015260018060701b036101008201511661010083015263ffffffff6101208201511661012083015263ffffffff6101408201511661014083015261016060018060c01b0391015116610160820152f35b9050346108ef5760203660031901126108ef5760043563ffffffff60e01b811680910361079157602092506380ac58cd60e01b81149081156142cf575b81156142be575b5015158152f35b6301ffc9a760e01b149050386142b7565b635b5e139f60e01b811491506142b0565b60005b8381106142f35750506000910152565b81810151838201526020016142e3565b9060209161431c815180928185528580860191016142e0565b601f01601f1916010190565b600435906001600160a01b038216820361056d57565b602435906001600160a01b038216820361056d57565b608435906001600160a01b038216820361056d57565b61018081019081106001600160401b0382111761266857604052565b61012081019081106001600160401b0382111761266857604052565b6001600160401b03811161266857604052565b60a081019081106001600160401b0382111761266857604052565b602081019081106001600160401b0382111761266857604052565b606081019081106001600160401b0382111761266857604052565b61016081019081106001600160401b0382111761266857604052565b604081019081106001600160401b0382111761266857604052565b601f909101601f19168101906001600160401b0382119082101761266857604052565b6001600160401b0381116126685760051b60200190565b81601f8201121561056d5780359161448e83614460565b9261449c604051948561443d565b808452602092838086019260051b82010192831161056d578301905b8282106144c6575050505090565b813581529083019083016144b8565b9181601f8401121561056d578235916001600160401b03831161056d576020808501948460051b01011161056d57565b604060031982011261056d576001600160401b039160043583811161056d5782614531916004016144d5565b9390939260243591821161056d5761454b916004016144d5565b9091565b9181601f8401121561056d578235916001600160401b03831161056d576020838186019501011161056d57565b606090600319011261056d576001600160a01b0390600435828116810361056d5791602435908116810361056d579060443590565b6001600160401b03811161266857601f01601f191660200190565b9291926145d8826145b1565b916145e6604051938461443d565b82948184528183011161056d578281602093846000960137010152565b9080601f8301121561056d5781602061461e933591016145cc565b90565b6004359061ffff8216820361056d57565b60243590811515820361056d57565b60ff6080809282815116855282602082015116602086015262ffffff604082015116604086015263ffffffff6060820151166060860152015116910152565b6001600160a01b0391821681529116602082015260400190565b60001981146146a95760010190565b634e487b7160e01b600052601160045260246000fd5b90600182811c921680156146ef575b60208310146146d957565b634e487b7160e01b600052602260045260246000fd5b91607f16916146ce565b6001600160a01b039091168152602081019190915260400190565b91908110156135f45760051b0190565b919082018092116146a957565b919082039182116146a957565b9190808252602080920192916000805b83821061475d57505050505090565b9091929394853560018060a01b03811680910361079157815283019483019392916001019061474e565b9081602091031261056d5751801515810361056d5790565b6001600160a01b03918216815291166020820152604081019190915260600190565b919091600092818452602090610111825260409160ff8387205460481c1690828210156148d25786915b83811061489d5750614826818360018060a01b038060fb54169060fd54168b89518096819582946323b872dd60e01b8452336004850161479f565b03925af18015614893577fcc113e594226c9d99f0187a3efb1c9e4ce0771412ce4d7a288f90144f04429f096979850614866575b508351928352820152a2565b61488590823d841161488c575b61487d818361443d565b810190614787565b503861485a565b503d614873565b85513d8a823e3d90fd5b918288526101128252848820549081156148c15701916148bc9061469a565b6147eb565b8551635435b28960e11b8152600490fd5b8351635435b28960e11b8152600490fd5b600211156148ed57565b634e487b7160e01b600052602160045260246000fd5b919082604091031261056d576020825192015190565b90815180825260208080930193019160005b828110614939575050505090565b83518552938101939281019260010161492b565b60009060009060609161010a546001908160ff82161461496c57505050565b63ffffffff95929594919394808260481c1661498e610e109182810690614731565b916149a362ffffff93848660181c1690614724565b421180614bf5575b156149d657505050505050604051928160208501526040840152604083526149d2836143eb565b9190565b6149ff92916149f3918560689b979a99989b1c1690810690614731565b908360301c1690614724565b42119081614be6575b50614bc45773__$f445361e8b50888b0b8cee3fd4db50a783$__6040908151926305f739f960e21b845261010e8060048601526020948581602481875af4908115614bba578391614b8d575b50614a6157505050505050565b8395985060448597989495929395518096819363c9c3102d60e01b835260048301528560248301525af4928315614b81578193614b52575b5082815261010d80865260ff8583205460181c166003811015614b3e578803614ad657505050600382519384015281830152815261461e816143eb565b838298969594939852845260ff8382205460181c16906003821015614b2a5750600214614b05575b5050509190565b90919294506004825193840152818301528152614b21816143eb565b91388080614afe565b634e487b7160e01b81526021600452602490fd5b634e487b7160e01b83526021600452602483fd5b9092508481813d8311614b7a575b614b6a818361443d565b8101031261079157519138614a99565b503d614b60565b508351903d90823e3d90fd5b90508581813d8311614bb3575b614ba4818361443d565b81010312610791575138614a54565b503d614b9a565b85513d85823e3d90fd5b935090915060405192600260208501526040840152604083526149d2836143eb565b60ff915060101c161538614a08565b5060ff8460081c16156149ab565b60fb546001600160a01b0316939192843b1561056d5760009460e493869260ff604051998a98899763d505accf60e01b89523360048a01523060248a01526044890152606488015216608486015260a485015260c48401525af18015614c7557614c6a5750565b614c73906143a2565b565b6040513d6000823e3d90fd5b91614cb860208360018060a01b038060fb54169060fd541660006040518096819582946323b872dd60e01b8452336004850161479f565b03925af18015614c7557614d0f575b50614cd3818385615629565b604051918252614ce2816148e3565b60208201527f82e94ebf59ab1823045c86284257f1099d3757b9622dc0574bc166aecea2fe9860403392a3565b614d269060203d811161488c5761487d818361443d565b5038614cc7565b60ff80546000908152602061010581526040928383203384528252838320549360e43592834210156151e55760a4359360c43596835191838301917f94fd718aa05a42d2b36d996b7fe56ff32591e46434435d6d3449720695e107588352338685015287606085015260808401528860a084015260c083015260c0825260e0820160018060401b0391838210838311176151bd578186528351902091610100938481017f8b73c3c69bb8fe3d512ecc4cf759cc79239f7b179b0ffacaa9a75d522b39400f81527ffe3fbe86e0865f85b73468493ed84d96796c37eb91c75c13d77cbf2506478a3f6101208301527fc89efdaa54c0f20c7adf612882df0950f5a951637e0307cdcb4c672f298b8bc6610140830152466101608301523061018083015260a084526101a0820193808510848611176151d15784895251902061190160f01b6101c083019081526101c28301919091526101e28201949094526042835261022001908111828210176151bd578552519020610144359085821682036122fe57614ed294939291614eca9161012435916101043591615d8c565b949094615d2c565b6001600160a01b0393841687528152818620548416156151ac5786615149575b600490813596614f028888614724565b94614f106044358097614724565b906024359460643598614f238a88614724565b93803410615139578580823414615130575b81808092853403903390f11561512657885163abfdc0e560e01b81526101088482015261010960248201523360448201526064810182905291878360848173__$bf3a140bdbff42a6137d0acc0952596ca5$__5af492831561511c5787936150ed575b50828203926101135490818502918583041490841417156150da576127109004918560fe5416908254823b15612357579060648a92868f51958694859363bc157ac160e01b85528c85015233602485015260448401525af180156150d0579161504698979593918a9795936150bd575b505487526101078652600f8b88200191038154019055848260fb54169260fd5416918a51978895869485936323b872dd60e01b85523390850161479f565b03925af19081156150b25750615095575b508251968752860152840152606083015260808201527fe03b78662d1cf3cc1f92436fdfbc1755c98708c68667440bd7865b839269b44760a03392a3565b6150ab90823d841161488c5761487d818361443d565b5038615057565b8551903d90823e3d90fd5b6150c9909891986143a2565b9638615008565b8b513d8a823e3d90fd5b634e487b7160e01b885260118552602488fd5b9092508781813d8311615115575b615105818361443d565b8101031261171657519138614f98565b503d6150fb565b8a513d89823e3d90fd5b88513d87823e3d90fd5b506108fc614f35565b8851632ca2f52b60e11b81528390fd5b8686526101118152818620615165615160826151f6565b615240565b600019810190811161519857815468ffffffff00000000ff1916908616174260281b63ffffffff60281b16179055614ef2565b634e487b7160e01b88526011600452602488fd5b815163143606b960e31b8152600490fd5b634e487b7160e01b89526041600452602489fd5b634e487b7160e01b8c52604160045260248cfd5b8151630819bdcd60e01b8152600490fd5b90604051615203816143b5565b608060ff8294548181168452818160081c16602085015262ffffff8160101c16604085015263ffffffff8160281c16606085015260481c16910152565b6040810162ffffff80825116156152ad5761526563ffffffff60608501511642614731565b9151169081156152975761528360209160ff93848651169104614724565b92015116808211615292575090565b905090565b634e487b7160e01b600052601260045260246000fd5b50505160ff1690565b73__$bf3a140bdbff42a6137d0acc0952596ca5$__90813b1561056d57604051633880f0ab60e01b815261010860048201526001600160a01b03909116602482015290600090829060449082905af48015614c7557614c6a5750565b61532a60409295949395606083526060830190614919565b9460208201520152565b80518210156135f45760209160051b010190565b602090818184031261056d578051906001600160401b03821161056d57019180601f8401121561056d57825161537d81614460565b9361538b604051958661443d565b818552838086019260051b82010192831161056d578301905b8282106153b2575050505090565b815181529083019083016153a4565b60ff5460009081526101076020526002604082200160405190634d63fffd60e01b82526004820152816024820152600a6044820152818160648173__$69292ab8e6f98571d324d08d63c6dae4eb$__5af49182156109d057809261542457505090565b61461e92503d8091833e615438818361443d565b810190615348565b60ff5460009081526101076020526002604082200160405190634d63fffd60e01b82526004820152600a602482015260326044820152818160648173__$69292ab8e6f98571d324d08d63c6dae4eb$__5af49182156109d057809261542457505090565b9081526001600160401b03909116602082015261ffff909116604082015263ffffffff91821660608201529116608082015260a00190565b6040919493926060820195825260208201526154f7836148e3565b0152565b6001600160701b0391821690821601919082116146a957565b906003916004810191825491805463ffffffff91620151809687910191838616420302048154019055804216938463ffffffff19809516179055600582019485549260048154910192841642030204815401905516179055565b600501546001600160701b0390609081901c9060201c821660008282111561559d5750038181116146a9571690565b9150501690565b60ff54600090815261010760205260408120600c8101939192600d82019260029092019173__$b6aef517fe05d85bc7364998255804b986$__91823b156108eb57918594939160a49360405198899687956311b7263f60e21b8752600487015260248601526044850152606484015260848301525af49081156109d05750614c6a5750565b909160ff54600090815260209361010785526004604080842093338152600185018852818120878252885281812094885220926156668482615514565b8281548015615768575b0181558354830184550180546001600160701b039690609081901c90821c8816818111919082615755575b8215615732575b505061572057614c73966001866156bb6156f1986148e3565b036156f7579081612b3d926156ec9516916156e260058801612b3d85858354861c166154fb565b8454901c166154fb565b61556e565b906155a4565b612a8691506156ec931661571660058601612a8683825460901c6154fb565b825460901c6154fb565b604051638f04435560e01b8152600490fd5b10905080615742575b38806156a2565b5061574c856148e3565b6001851461573b565b9150615760876148e3565b86159161569b565b60038301546002870154600180860180546001600160801b0319678ac7230489e8000094860285900460801b166001600160801b0391821681178355928b0154909402929092049092169091179055615670565b51906001600160a01b038216820361056d57565b604051906157dd8261436a565b816101606000918281528260208201528260408201528260608201528260808201528260a08201528260c08201528260e08201528261010082015282610120820152826101408201520152565b60ff61010a54161561583857565b60405163a397eb4760e01b8152600490fd5b60ff5460009080825261010590816020526040832033845260205260408320546101065481101561588f57604092600192855260205282842033855260205201912055565b60405163d92de14f60e01b8152600490fd5b3360005261010060205260ff60406000205416156158bb57565b60405163143606b960e31b8152600490fd5b803b1561590257600080516020615ed483398151915280546001600160a01b0319166001600160a01b03909216919091179055565b60405163145708c760e31b8152600490fd5b3d1561593f573d90615925826145b1565b91615933604051938461443d565b82523d6000602084013e565b606090565b60ff610193541661595157565b60405163928dfa7760e01b8152600490fd5b60ff61019354161561597157565b60405162c5619760e61b8152600490fd5b61016160028154146159945760029055565b6040516306fda65d60e31b8152600490fd5b600090815261013160205260409020546001600160a01b031680156159c85790565b604051636aa2a93760e01b8152600490fd5b6159e381615aa0565b156159c857600090815261013360205260409020546001600160a01b031690565b929190615a118233615a31565b156134e55783615a258383615a2a97615abe565b615c71565b15613bbf57565b906001600160a01b038080615a45846159a6565b16931691838314938415615a78575b508315615a62575b50505090565b615a6e919293506159da565b1614388080615a5c565b90935060005261013460205260406000208260005260205260ff604060002054169238615a54565b600090815261013160205260409020546001600160a01b0316151590565b615ac7836159a6565b6001600160a01b039291831691908316829003615b61578216918215615b72578190615af2856159a6565b1603615b6157600080516020615f3483398151915260008481526101336020526040812060018060a01b031990818154169055838252610132602052604082206000198154019055848252604082206001815401905585825261013160205284604083209182541617905580a4565b60405162a1148160e81b8152600490fd5b604051633a954ecd60e21b8152600490fd5b9091600091803b15615c6857615bcf6020918493604051948580948193630a85bd0160e11b9a8b84523360048501528460248501526044840152608060648401526084830190614303565b03926001600160a01b03165af190829082615c20575b5050615c1257615bf3615914565b80519081615c0d576040516368d2bf6b60e11b8152600490fd5b602001fd5b6001600160e01b0319161490565b909192506020813d8211615c60575b81615c3c6020938361443d565b810103126108ef5751906001600160e01b0319821682036103875750903880615be5565b3d9150615c2f565b50505050600190565b91926000929190813b15615ce257602091615cc79185604051958680958194630a85bd0160e11b9b8c845233600485015260018060a01b0380951660248501526044840152608060648401526084830190614303565b0393165af190829082615c20575050615c1257615bf3615914565b5050505050600190565b90919015615cf8575090565b815115615d085750805190602001fd5b60405162461bcd60e51b815260206004820152908190613639906024830190614303565b60058110156148ed5780615d3d5750565b60018103615d5757604051638baa579f60e01b8152600490fd5b60028103615d7157604051634be6321b60e01b8152600490fd5b600314615d7a57565b60405163185f3d1d60e21b8152600490fd5b9291906fa2a8918ca85bafe22016d0b997e4df60600160ff1b038311615df85791608094939160ff602094604051948552168484015260408301526060820152600093849182805260015afa156113ba5781516001600160a01b03811615615df2579190565b50600190565b50505050600090600390565b60ff6001918060081c600052610104602052161b60406000205416151590565b6033546001600160a01b03163303615e3857565b604051632e6c18c960e11b8152600490fd5b600080516020615eb4833981519152819055603380546001600160a01b039283166001600160a01b031982168117909255909116600080516020615ef4833981519152600080a356fe4910fdfa16fed3260ed0e7147f7cc6da11a60208b5b9406d12a635614ffd9143b53127684a568b3173ae13b9f8a6016e243e63b6e8ee1178d6a717850b5d6103360894a13ba1a3210667c828492db98dca3e2076cc3735a920a3ca505d382bbc8be0079c531659141344cd1fd0a4f28419497f9722a3daafe3b4186f6b6457e0bc7cd75a20ee27fd9adebab32041f755214dbc6bffa90cc0225b39da2e5c2d3bddf252ad1be2c89b69c2b068fc378daa952ba7f163c4a11628f55a4df523b3ef62e78cea01bee320cd4e420270b5ea74000d11b0c9f74754ebdbfc544b05a258a26469706673582212203a22b9502b83232759d78e29709c87f03e08ff2069bc9734957e19b9ea2ef09b64736f6c63430008110033",
  "libraries": {
    "RenderConstant": "0x4e8c1A8eC8b7f1039af9ceB3ebC7c8cA6Cb1cB23",
    "RenderConstant2": "0xa139D1E2f9338e244c117B133D3F451F6a41025C",
    "Renderer": "0x64AA040D9cDf0Eced7c34840355940016dcE4ca3",
    "FastArray": "0x6C600B27D40edf17934bC7749490d86446D44C9E",
    "RankingRedBlackTree": "0xA26821313C4b9DC722E4270b4B558AF9D53A9A90",
    "SingleRanking": "0xf1C6f1621A71A8FEB5FE5cBE1247113cC6Eec691",
    "DegenRank": "0xAb4B82B8DD8A5DB597A3166f0c46c64b3000b692",
    "PortalLib": "0x3EfDc4307580DBe1fB9D857fbE9C1250a185Fe1a"
  },
  "devdoc": {
    "errors": {
      "DropOff()": [
        {
          "details": "revert when the drop is not on"
        }
      ],
      "IncarnationExceedLimit()": [
        {
          "details": "revert when incarnation count exceed limit"
        }
      ],
      "InsufficientAmount()": [
        {
          "details": "revert when msg.value is insufficient"
        }
      ],
      "NotSetBurnPoolAddress()": [
        {
          "details": "revert if burnPool address not set when infuse"
        }
      ],
      "NotSigner()": [
        {
          "details": "revert when to caller is not signer"
        }
      ],
      "SameSeed()": [
        {
          "details": "revert when the random seed is duplicated"
        }
      ],
      "ZeroAddressSet()": [
        {
          "details": "revert when some address var are set to zero"
        }
      ]
    },
    "kind": "dev",
    "methods": {
      "approve(address,uint256)": {
        "details": "See {IERC721-approve}."
      },
      "balanceOf(address)": {
        "details": "See {IERC721-balanceOf}."
      },
      "baptise(address,uint256,uint256)": {
        "details": "reward for share the game",
        "params": {
          "amount": "amount for reward",
          "user": "user address"
        }
      },
      "burnFromBurnPool(uint256)": {
        "details": "burn $REBORN from burn pool",
        "params": {
          "amount": "burn from burn pool"
        }
      },
      "calculateReferReward(address,uint256,uint8)": {
        "details": "returns referrer and referer reward",
        "returns": {
          "ref1": " level1 of referrer. direct referrer",
          "ref1Reward": " level 1 referrer reward",
          "ref2": " level2 of referrer. referrer's referrer",
          "ref2Reward": " level 2 referrer reward"
        }
      },
      "checkUpkeep(bytes)": {
        "details": "checkUpkeep for chainlink automation"
      },
      "claimNativeDrops(uint256[])": {
        "details": "user claim many pools' native token airdrop",
        "params": {
          "tokenIds": "pools' tokenId array to claim"
        }
      },
      "claimOwnership()": {
        "details": "pending owner call this function to claim ownership"
      },
      "claimRebornDrops(uint256[])": {
        "details": "user claim many pools' reborn token airdrop",
        "params": {
          "tokenIds": "pools' tokenId array to claim"
        }
      },
      "engrave(bytes32,address,uint256,uint256,uint256,uint256,uint256,uint256,string)": {
        "details": "engrave the result on chain and reward",
        "params": {
          "boostReward": "$REBORN user earns with degen2009 boost",
          "lifeReward": "$REBORN user earns, decimal 10^18",
          "nativeCost": "user cost native token for this life",
          "rebornCost": "user cost reborn token for this life",
          "score": "life score",
          "seed": "random seed in bytes32",
          "user": "user address"
        }
      },
      "forging(uint256,uint256,(uint256,uint256,bytes32,bytes32,uint8))": {
        "details": "forging with permit"
      },
      "getApproved(uint256)": {
        "details": "See {IERC721-getApproved}."
      },
      "getJackPot()": {
        "details": "return the jackpot amount of current season"
      },
      "getPool(uint256)": {
        "details": "read pool attribute"
      },
      "getPortfolio(address,uint256)": {
        "details": "read pool attribute"
      },
      "getReferrers(address)": {
        "details": "referrer1: level1 of referrers referrer2: level2 of referrers"
      },
      "incarnate((uint256,uint256,uint256,uint256),address,(uint256,uint256,uint256,bytes32,bytes32,uint8))": {
        "details": "user buy the innate for the life",
        "params": {
          "innate": "talent and property choice",
          "referrer": "the referrer address"
        }
      },
      "infuse(uint256,uint256,uint8)": {
        "details": "stake $REBORN on this tombstone",
        "params": {
          "amount": "stake amount, decimal 10^18",
          "tokenId": "tokenId of the life to stake"
        }
      },
      "infuse(uint256,uint256,uint8,uint256,uint256,bytes32,bytes32,uint8)": {
        "details": "stake $REBORN with permit",
        "params": {
          "amount": "amount of $REBORN to stake",
          "permitAmount": "amount of $REBORN to approve",
          "r": "r of signature",
          "s": "v of signature",
          "tokenId": "tokenId of the life to stake",
          "v": "v of signature"
        }
      },
      "initialize(address,address,string,string,address)": {
        "details": "initialize function",
        "params": {
          "name_": "ERC712 name",
          "owner_": "owner address",
          "rebornToken_": "$REBORN token address",
          "symbol_": "ERC721 symbol",
          "vrfCoordinator_": "chainlink vrf coordinator_ address"
        }
      },
      "isApprovedForAll(address,address)": {
        "details": "See {IERC721-isApprovedForAll}."
      },
      "name()": {
        "details": "See {IERC721Metadata-name}."
      },
      "owner()": {
        "details": "Returns the address of the current owner."
      },
      "ownerOf(uint256)": {
        "details": "See {IERC721-ownerOf}."
      },
      "paused()": {
        "details": "Returns true if the contract is paused, and false otherwise."
      },
      "pendingDrop(uint256[])": {
        "details": "read pending reward from specific pool",
        "params": {
          "tokenIds": "tokenId array of the pools"
        }
      },
      "pendingOwner()": {
        "details": "Return the address of the pending owner"
      },
      "performUpkeep(bytes)": {
        "details": "Upkeep perform of chainlink automation"
      },
      "proxiableUUID()": {
        "details": "Implementation of the ERC1822 {proxiableUUID} function. This returns the storage slot used by the implementation. It is used to validate the implementation's compatibility when performing an upgrade. IMPORTANT: A proxy pointing at a proxiable contract should not be considered proxiable itself, because this risks bricking a proxy that upgrades to it, by delegating to itself until out of gas. Thus it is critical that this function revert if invoked through a proxy. This is guaranteed by the `notDelegated` modifier."
      },
      "renounceOwnership()": {
        "details": "Leaves the contract without owner. It will not be possible to call `onlyOwner` functions anymore. Can only be called by the current owner. NOTE: Renouncing ownership will leave the contract without an owner, thereby removing any functionality that is only available to the owner."
      },
      "safeTransferFrom(address,address,uint256)": {
        "details": "See {IERC721-safeTransferFrom}."
      },
      "safeTransferFrom(address,address,uint256,bytes)": {
        "details": "See {IERC721-safeTransferFrom}."
      },
      "seedExists(bytes32)": {
        "details": "check whether the seed is used on-chain",
        "params": {
          "seed": "random seed in bytes32"
        }
      },
      "setApprovalForAll(address,bool)": {
        "details": "See {IERC721-setApprovalForAll}."
      },
      "setDropConf((uint8,bool,bool,uint24,uint24,uint32,uint32,uint16,uint16,uint40,uint40,uint8))": {
        "details": "set new airdrop config"
      },
      "setIncarnationLimit(uint256)": {
        "details": "set incarnation limit"
      },
      "setReferrerRewardFee(uint16,uint16,uint8)": {
        "details": "set percentage of referrer reward",
        "params": {
          "rewardType": "0: incarnate reward 1: engrave reward"
        }
      },
      "setVault(address)": {
        "details": "set vault",
        "params": {
          "vault_": "new vault address"
        }
      },
      "setVrfConf((bytes32,uint64,uint32,uint32,uint16))": {
        "details": "set new chainlink vrf v2 config"
      },
      "supportsInterface(bytes4)": {
        "details": "See {IERC165-supportsInterface}."
      },
      "switchPool(uint256,uint256,uint256,uint8)": {
        "details": "switch stake amount from poolFrom to poolTo",
        "params": {
          "amount": "amount to switch",
          "fromTokenId": "tokenId of from pool",
          "toTokenId": "tokenId of to pool"
        }
      },
      "symbol()": {
        "details": "See {IERC721Metadata-symbol}."
      },
      "toNextSeason()": {
        "details": "switch to next season, call by owner"
      },
      "tokenURI(uint256)": {
        "details": "See {IERC721Metadata-tokenURI}."
      },
      "transferFrom(address,address,uint256)": {
        "details": "See {IERC721-transferFrom}."
      },
      "transferOwnership(address,bool)": {
        "details": "Transfers ownership of the contract to a new account (`newOwner`). Can only be called by the current owner. Note If direct is false, it will set an pending owner and the OwnerShipTransferring only happens when the pending owner claim the ownership"
      },
      "updateSigners(address[],address[])": {
        "details": "update signers",
        "params": {
          "toAdd": "list of to be added signer",
          "toRemove": "list of to be removed signer"
        }
      },
      "upgradeTo(address)": {
        "details": "Upgrade the implementation of the proxy to `newImplementation`. Calls {_authorizeUpgrade}. Emits an {Upgraded} event."
      },
      "upgradeToAndCall(address,bytes)": {
        "details": "Upgrade the implementation of the proxy to `newImplementation`, and subsequently execute the function call encoded in `data`. Calls {_authorizeUpgrade}. Emits an {Upgraded} event."
      },
      "withdrawNativeToken(address,uint256)": {
        "details": "withdraw native token for reward distributionamount how much to withdraw"
      },
      "withdrawVault(address)": {
        "details": "withdraw token from vault",
        "params": {
          "to": "the address which owner withdraw token to"
        }
      }
    },
    "version": 1
  },
  "userdoc": {
    "kind": "user",
    "methods": {
      "getReferrers(address)": {
        "notice": "A -> B -> C: B: level1 A: level2"
      },
      "setReferrerRewardFee(uint16,uint16,uint8)": {
        "notice": "mul 100 when set. eg: 8% -> 800 18%-> 1800"
      }
    },
    "version": 1
  },
  "storageLayout": {
    "storage": [
      {
        "astId": 24486,
        "contract": "src/RebornPortal.sol:RebornPortal",
        "label": "_initialized",
        "offset": 0,
        "slot": "0",
        "type": "t_uint8"
      },
      {
        "astId": 24489,
        "contract": "src/RebornPortal.sol:RebornPortal",
        "label": "_initializing",
        "offset": 1,
        "slot": "0",
        "type": "t_bool"
      },
      {
        "astId": 27846,
        "contract": "src/RebornPortal.sol:RebornPortal",
        "label": "__gap",
        "offset": 0,
        "slot": "1",
        "type": "t_array(t_uint256)50_storage"
      },
      {
        "astId": 29749,
        "contract": "src/RebornPortal.sol:RebornPortal",
        "label": "_owner",
        "offset": 0,
        "slot": "51",
        "type": "t_address"
      },
      {
        "astId": 29751,
        "contract": "src/RebornPortal.sol:RebornPortal",
        "label": "_pendingOwner",
        "offset": 0,
        "slot": "52",
        "type": "t_address"
      },
      {
        "astId": 29949,
        "contract": "src/RebornPortal.sol:RebornPortal",
        "label": "__gap",
        "offset": 0,
        "slot": "53",
        "type": "t_array(t_uint256)48_storage"
      },
      {
        "astId": 24465,
        "contract": "src/RebornPortal.sol:RebornPortal",
        "label": "__gap",
        "offset": 0,
        "slot": "101",
        "type": "t_array(t_uint256)50_storage"
      },
      {
        "astId": 24788,
        "contract": "src/RebornPortal.sol:RebornPortal",
        "label": "__gap",
        "offset": 0,
        "slot": "151",
        "type": "t_array(t_uint256)50_storage"
      },
      {
        "astId": 28713,
        "contract": "src/RebornPortal.sol:RebornPortal",
        "label": "__gap",
        "offset": 0,
        "slot": "201",
        "type": "t_array(t_uint256)50_storage"
      },
      {
        "astId": 14171,
        "contract": "src/RebornPortal.sol:RebornPortal",
        "label": "rebornToken",
        "offset": 0,
        "slot": "251",
        "type": "t_contract(RBT)11427"
      },
      {
        "astId": 14174,
        "contract": "src/RebornPortal.sol:RebornPortal",
        "label": "vault",
        "offset": 0,
        "slot": "252",
        "type": "t_contract(RewardVault)14901"
      },
      {
        "astId": 14176,
        "contract": "src/RebornPortal.sol:RebornPortal",
        "label": "burnPool",
        "offset": 0,
        "slot": "253",
        "type": "t_address"
      },
      {
        "astId": 14179,
        "contract": "src/RebornPortal.sol:RebornPortal",
        "label": "piggyBank",
        "offset": 0,
        "slot": "254",
        "type": "t_contract(IPiggyBank)15472"
      },
      {
        "astId": 14181,
        "contract": "src/RebornPortal.sol:RebornPortal",
        "label": "_season",
        "offset": 0,
        "slot": "255",
        "type": "t_uint256"
      },
      {
        "astId": 14185,
        "contract": "src/RebornPortal.sol:RebornPortal",
        "label": "signers",
        "offset": 0,
        "slot": "256",
        "type": "t_mapping(t_address,t_bool)"
      },
      {
        "astId": 14187,
        "contract": "src/RebornPortal.sol:RebornPortal",
        "label": "idx",
        "offset": 0,
        "slot": "257",
        "type": "t_uint256"
      },
      {
        "astId": 14191,
        "contract": "src/RebornPortal.sol:RebornPortal",
        "label": "rounds",
        "offset": 0,
        "slot": "258",
        "type": "t_mapping(t_address,t_uint256)"
      },
      {
        "astId": 14196,
        "contract": "src/RebornPortal.sol:RebornPortal",
        "label": "details",
        "offset": 0,
        "slot": "259",
        "type": "t_mapping(t_uint256,t_struct(LifeDetail)15532_storage)"
      },
      {
        "astId": 14199,
        "contract": "src/RebornPortal.sol:RebornPortal",
        "label": "_seeds",
        "offset": 0,
        "slot": "260",
        "type": "t_struct(BitMap)29599_storage"
      },
      {
        "astId": 14205,
        "contract": "src/RebornPortal.sol:RebornPortal",
        "label": "_incarnateCounts",
        "offset": 0,
        "slot": "261",
        "type": "t_mapping(t_uint256,t_mapping(t_address,t_uint256))"
      },
      {
        "astId": 14207,
        "contract": "src/RebornPortal.sol:RebornPortal",
        "label": "_incarnateCountLimit",
        "offset": 0,
        "slot": "262",
        "type": "t_uint256"
      },
      {
        "astId": 14212,
        "contract": "src/RebornPortal.sol:RebornPortal",
        "label": "_seasonData",
        "offset": 0,
        "slot": "263",
        "type": "t_mapping(t_uint256,t_struct(SeasonData)15564_storage)"
      },
      {
        "astId": 14216,
        "contract": "src/RebornPortal.sol:RebornPortal",
        "label": "referrals",
        "offset": 0,
        "slot": "264",
        "type": "t_mapping(t_address,t_address)"
      },
      {
        "astId": 14219,
        "contract": "src/RebornPortal.sol:RebornPortal",
        "label": "rewardFees",
        "offset": 0,
        "slot": "265",
        "type": "t_struct(ReferrerRewardFees)8554_storage"
      },
      {
        "astId": 14222,
        "contract": "src/RebornPortal.sol:RebornPortal",
        "label": "_dropConf",
        "offset": 0,
        "slot": "266",
        "type": "t_struct(AirdropConf)8624_storage"
      },
      {
        "astId": 14225,
        "contract": "src/RebornPortal.sol:RebornPortal",
        "label": "_vrfConf",
        "offset": 0,
        "slot": "267",
        "type": "t_struct(VrfConf)8635_storage"
      },
      {
        "astId": 14230,
        "contract": "src/RebornPortal.sol:RebornPortal",
        "label": "_vrfRequests",
        "offset": 0,
        "slot": "269",
        "type": "t_mapping(t_uint256,t_struct(RequestStatus)15583_storage)"
      },
      {
        "astId": 14233,
        "contract": "src/RebornPortal.sol:RebornPortal",
        "label": "_pendingDrops",
        "offset": 0,
        "slot": "270",
        "type": "t_struct(Data)16346_storage"
      },
      {
        "astId": 14238,
        "contract": "src/RebornPortal.sol:RebornPortal",
        "label": "_characterProperties",
        "offset": 0,
        "slot": "273",
        "type": "t_mapping(t_uint256,t_struct(CharacterProperty)8540_storage)"
      },
      {
        "astId": 14242,
        "contract": "src/RebornPortal.sol:RebornPortal",
        "label": "_forgeRequiredMaterials",
        "offset": 0,
        "slot": "274",
        "type": "t_mapping(t_uint256,t_uint256)"
      },
      {
        "astId": 14244,
        "contract": "src/RebornPortal.sol:RebornPortal",
        "label": "piggyBankFee",
        "offset": 0,
        "slot": "275",
        "type": "t_uint256"
      },
      {
        "astId": 14249,
        "contract": "src/RebornPortal.sol:RebornPortal",
        "label": "_gap",
        "offset": 0,
        "slot": "276",
        "type": "t_array(t_uint256)27_storage"
      },
      {
        "astId": 26419,
        "contract": "src/RebornPortal.sol:RebornPortal",
        "label": "_name",
        "offset": 0,
        "slot": "303",
        "type": "t_string_storage"
      },
      {
        "astId": 26421,
        "contract": "src/RebornPortal.sol:RebornPortal",
        "label": "_symbol",
        "offset": 0,
        "slot": "304",
        "type": "t_string_storage"
      },
      {
        "astId": 26425,
        "contract": "src/RebornPortal.sol:RebornPortal",
        "label": "_owners",
        "offset": 0,
        "slot": "305",
        "type": "t_mapping(t_uint256,t_address)"
      },
      {
        "astId": 26429,
        "contract": "src/RebornPortal.sol:RebornPortal",
        "label": "_balances",
        "offset": 0,
        "slot": "306",
        "type": "t_mapping(t_address,t_uint256)"
      },
      {
        "astId": 26433,
        "contract": "src/RebornPortal.sol:RebornPortal",
        "label": "_tokenApprovals",
        "offset": 0,
        "slot": "307",
        "type": "t_mapping(t_uint256,t_address)"
      },
      {
        "astId": 26439,
        "contract": "src/RebornPortal.sol:RebornPortal",
        "label": "_operatorApprovals",
        "offset": 0,
        "slot": "308",
        "type": "t_mapping(t_address,t_mapping(t_address,t_bool))"
      },
      {
        "astId": 27347,
        "contract": "src/RebornPortal.sol:RebornPortal",
        "label": "__gap",
        "offset": 0,
        "slot": "309",
        "type": "t_array(t_uint256)44_storage"
      },
      {
        "astId": 24932,
        "contract": "src/RebornPortal.sol:RebornPortal",
        "label": "_status",
        "offset": 0,
        "slot": "353",
        "type": "t_uint256"
      },
      {
        "astId": 24991,
        "contract": "src/RebornPortal.sol:RebornPortal",
        "label": "__gap",
        "offset": 0,
        "slot": "354",
        "type": "t_array(t_uint256)49_storage"
      },
      {
        "astId": 24810,
        "contract": "src/RebornPortal.sol:RebornPortal",
        "label": "_paused",
        "offset": 0,
        "slot": "403",
        "type": "t_bool"
      },
      {
        "astId": 24917,
        "contract": "src/RebornPortal.sol:RebornPortal",
        "label": "__gap",
        "offset": 0,
        "slot": "404",
        "type": "t_array(t_uint256)49_storage"
      },
      {
        "astId": 22265,
        "contract": "src/RebornPortal.sol:RebornPortal",
        "label": "vrfCoordinator",
        "offset": 0,
        "slot": "453",
        "type": "t_address"
      },
      {
        "astId": 22269,
        "contract": "src/RebornPortal.sol:RebornPortal",
        "label": "__gap",
        "offset": 0,
        "slot": "454",
        "type": "t_array(t_uint256)49_storage"
      }
    ],
    "types": {
      "t_address": {
        "encoding": "inplace",
        "label": "address",
        "numberOfBytes": "20"
      },
      "t_array(t_uint256)27_storage": {
        "base": "t_uint256",
        "encoding": "inplace",
        "label": "uint256[27]",
        "numberOfBytes": "864"
      },
      "t_array(t_uint256)44_storage": {
        "base": "t_uint256",
        "encoding": "inplace",
        "label": "uint256[44]",
        "numberOfBytes": "1408"
      },
      "t_array(t_uint256)48_storage": {
        "base": "t_uint256",
        "encoding": "inplace",
        "label": "uint256[48]",
        "numberOfBytes": "1536"
      },
      "t_array(t_uint256)49_storage": {
        "base": "t_uint256",
        "encoding": "inplace",
        "label": "uint256[49]",
        "numberOfBytes": "1568"
      },
      "t_array(t_uint256)50_storage": {
        "base": "t_uint256",
        "encoding": "inplace",
        "label": "uint256[50]",
        "numberOfBytes": "1600"
      },
      "t_bool": {
        "encoding": "inplace",
        "label": "bool",
        "numberOfBytes": "1"
      },
      "t_bytes32": {
        "encoding": "inplace",
        "label": "bytes32",
        "numberOfBytes": "32"
      },
      "t_contract(IPiggyBank)15472": {
        "encoding": "inplace",
        "label": "contract IPiggyBank",
        "numberOfBytes": "20"
      },
      "t_contract(RBT)11427": {
        "encoding": "inplace",
        "label": "contract RBT",
        "numberOfBytes": "20"
      },
      "t_contract(RewardVault)14901": {
        "encoding": "inplace",
        "label": "contract RewardVault",
        "numberOfBytes": "20"
      },
      "t_enum(AirdropVrfType)15568": {
        "encoding": "inplace",
        "label": "enum IRebornDefination.AirdropVrfType",
        "numberOfBytes": "1"
      },
      "t_mapping(t_address,t_address)": {
        "encoding": "mapping",
        "key": "t_address",
        "label": "mapping(address => address)",
        "numberOfBytes": "32",
        "value": "t_address"
      },
      "t_mapping(t_address,t_bool)": {
        "encoding": "mapping",
        "key": "t_address",
        "label": "mapping(address => bool)",
        "numberOfBytes": "32",
        "value": "t_bool"
      },
      "t_mapping(t_address,t_mapping(t_address,t_bool))": {
        "encoding": "mapping",
        "key": "t_address",
        "label": "mapping(address => mapping(address => bool))",
        "numberOfBytes": "32",
        "value": "t_mapping(t_address,t_bool)"
      },
      "t_mapping(t_address,t_mapping(t_uint256,t_struct(Portfolio)8599_storage))": {
        "encoding": "mapping",
        "key": "t_address",
        "label": "mapping(address => mapping(uint256 => struct PortalLib.Portfolio))",
        "numberOfBytes": "32",
        "value": "t_mapping(t_uint256,t_struct(Portfolio)8599_storage)"
      },
      "t_mapping(t_address,t_uint256)": {
        "encoding": "mapping",
        "key": "t_address",
        "label": "mapping(address => uint256)",
        "numberOfBytes": "32",
        "value": "t_uint256"
      },
      "t_mapping(t_uint256,t_address)": {
        "encoding": "mapping",
        "key": "t_uint256",
        "label": "mapping(uint256 => address)",
        "numberOfBytes": "32",
        "value": "t_address"
      },
      "t_mapping(t_uint256,t_mapping(t_address,t_uint256))": {
        "encoding": "mapping",
        "key": "t_uint256",
        "label": "mapping(uint256 => mapping(address => uint256))",
        "numberOfBytes": "32",
        "value": "t_mapping(t_address,t_uint256)"
      },
      "t_mapping(t_uint256,t_struct(CharacterProperty)8540_storage)": {
        "encoding": "mapping",
        "key": "t_uint256",
        "label": "mapping(uint256 => struct PortalLib.CharacterProperty)",
        "numberOfBytes": "32",
        "value": "t_struct(CharacterProperty)8540_storage"
      },
      "t_mapping(t_uint256,t_struct(Data)16346_storage)": {
        "encoding": "mapping",
        "key": "t_uint256",
        "label": "mapping(uint256 => struct FastArray.Data)",
        "numberOfBytes": "32",
        "value": "t_struct(Data)16346_storage"
      },
      "t_mapping(t_uint256,t_struct(LifeDetail)15532_storage)": {
        "encoding": "mapping",
        "key": "t_uint256",
        "label": "mapping(uint256 => struct IRebornDefination.LifeDetail)",
        "numberOfBytes": "32",
        "value": "t_struct(LifeDetail)15532_storage"
      },
      "t_mapping(t_uint256,t_struct(Node)16587_storage)": {
        "encoding": "mapping",
        "key": "t_uint256",
        "label": "mapping(uint256 => struct RankingRedBlackTree.Node)",
        "numberOfBytes": "32",
        "value": "t_struct(Node)16587_storage"
      },
      "t_mapping(t_uint256,t_struct(Pool)8579_storage)": {
        "encoding": "mapping",
        "key": "t_uint256",
        "label": "mapping(uint256 => struct PortalLib.Pool)",
        "numberOfBytes": "32",
        "value": "t_struct(Pool)8579_storage"
      },
      "t_mapping(t_uint256,t_struct(Portfolio)8599_storage)": {
        "encoding": "mapping",
        "key": "t_uint256",
        "label": "mapping(uint256 => struct PortalLib.Portfolio)",
        "numberOfBytes": "32",
        "value": "t_struct(Portfolio)8599_storage"
      },
      "t_mapping(t_uint256,t_struct(RequestStatus)15583_storage)": {
        "encoding": "mapping",
        "key": "t_uint256",
        "label": "mapping(uint256 => struct IRebornDefination.RequestStatus)",
        "numberOfBytes": "32",
        "value": "t_struct(RequestStatus)15583_storage"
      },
      "t_mapping(t_uint256,t_struct(SeasonData)15564_storage)": {
        "encoding": "mapping",
        "key": "t_uint256",
        "label": "mapping(uint256 => struct IRebornDefination.SeasonData)",
        "numberOfBytes": "32",
        "value": "t_struct(SeasonData)15564_storage"
      },
      "t_mapping(t_uint256,t_uint256)": {
        "encoding": "mapping",
        "key": "t_uint256",
        "label": "mapping(uint256 => uint256)",
        "numberOfBytes": "32",
        "value": "t_uint256"
      },
      "t_string_storage": {
        "encoding": "bytes",
        "label": "string",
        "numberOfBytes": "32"
      },
      "t_struct(AirdropConf)8624_storage": {
        "encoding": "inplace",
        "label": "struct PortalLib.AirdropConf",
        "members": [
          {
            "astId": 8601,
            "contract": "src/RebornPortal.sol:RebornPortal",
            "label": "_dropOn",
            "offset": 0,
            "slot": "0",
            "type": "t_uint8"
          },
          {
            "astId": 8603,
            "contract": "src/RebornPortal.sol:RebornPortal",
            "label": "_lockRequestDropReborn",
            "offset": 1,
            "slot": "0",
            "type": "t_bool"
          },
          {
            "astId": 8605,
            "contract": "src/RebornPortal.sol:RebornPortal",
            "label": "_lockRequestDropNative",
            "offset": 2,
            "slot": "0",
            "type": "t_bool"
          },
          {
            "astId": 8607,
            "contract": "src/RebornPortal.sol:RebornPortal",
            "label": "_rebornDropInterval",
            "offset": 3,
            "slot": "0",
            "type": "t_uint24"
          },
          {
            "astId": 8609,
            "contract": "src/RebornPortal.sol:RebornPortal",
            "label": "_nativeDropInterval",
            "offset": 6,
            "slot": "0",
            "type": "t_uint24"
          },
          {
            "astId": 8611,
            "contract": "src/RebornPortal.sol:RebornPortal",
            "label": "_rebornDropLastUpdate",
            "offset": 9,
            "slot": "0",
            "type": "t_uint32"
          },
          {
            "astId": 8613,
            "contract": "src/RebornPortal.sol:RebornPortal",
            "label": "_nativeDropLastUpdate",
            "offset": 13,
            "slot": "0",
            "type": "t_uint32"
          },
          {
            "astId": 8615,
            "contract": "src/RebornPortal.sol:RebornPortal",
            "label": "_nativeTopDropRatio",
            "offset": 17,
            "slot": "0",
            "type": "t_uint16"
          },
          {
            "astId": 8617,
            "contract": "src/RebornPortal.sol:RebornPortal",
            "label": "_nativeRaffleDropRatio",
            "offset": 19,
            "slot": "0",
            "type": "t_uint16"
          },
          {
            "astId": 8619,
            "contract": "src/RebornPortal.sol:RebornPortal",
            "label": "_rebornTopEthAmount",
            "offset": 21,
            "slot": "0",
            "type": "t_uint40"
          },
          {
            "astId": 8621,
            "contract": "src/RebornPortal.sol:RebornPortal",
            "label": "_rebornRaffleEthAmount",
            "offset": 26,
            "slot": "0",
            "type": "t_uint40"
          },
          {
            "astId": 8623,
            "contract": "src/RebornPortal.sol:RebornPortal",
            "label": "_placeholder",
            "offset": 31,
            "slot": "0",
            "type": "t_uint8"
          }
        ],
        "numberOfBytes": "32"
      },
      "t_struct(BitMap)29599_storage": {
        "encoding": "inplace",
        "label": "struct BitMapsUpgradeable.BitMap",
        "members": [
          {
            "astId": 29598,
            "contract": "src/RebornPortal.sol:RebornPortal",
            "label": "_data",
            "offset": 0,
            "slot": "0",
            "type": "t_mapping(t_uint256,t_uint256)"
          }
        ],
        "numberOfBytes": "32"
      },
      "t_struct(CharacterProperty)8540_storage": {
        "encoding": "inplace",
        "label": "struct PortalLib.CharacterProperty",
        "members": [
          {
            "astId": 8531,
            "contract": "src/RebornPortal.sol:RebornPortal",
            "label": "currentAP",
            "offset": 0,
            "slot": "0",
            "type": "t_uint8"
          },
          {
            "astId": 8533,
            "contract": "src/RebornPortal.sol:RebornPortal",
            "label": "maxAP",
            "offset": 1,
            "slot": "0",
            "type": "t_uint8"
          },
          {
            "astId": 8535,
            "contract": "src/RebornPortal.sol:RebornPortal",
            "label": "restoreTimePerAP",
            "offset": 2,
            "slot": "0",
            "type": "t_uint24"
          },
          {
            "astId": 8537,
            "contract": "src/RebornPortal.sol:RebornPortal",
            "label": "lastTimeAPUpdate",
            "offset": 5,
            "slot": "0",
            "type": "t_uint32"
          },
          {
            "astId": 8539,
            "contract": "src/RebornPortal.sol:RebornPortal",
            "label": "level",
            "offset": 9,
            "slot": "0",
            "type": "t_uint8"
          }
        ],
        "numberOfBytes": "32"
      },
      "t_struct(Data)16346_storage": {
        "encoding": "inplace",
        "label": "struct FastArray.Data",
        "members": [
          {
            "astId": 16339,
            "contract": "src/RebornPortal.sol:RebornPortal",
            "label": "array",
            "offset": 0,
            "slot": "0",
            "type": "t_mapping(t_uint256,t_uint256)"
          },
          {
            "astId": 16343,
            "contract": "src/RebornPortal.sol:RebornPortal",
            "label": "indexMap",
            "offset": 0,
            "slot": "1",
            "type": "t_mapping(t_uint256,t_uint256)"
          },
          {
            "astId": 16345,
            "contract": "src/RebornPortal.sol:RebornPortal",
            "label": "length",
            "offset": 0,
            "slot": "2",
            "type": "t_uint256"
          }
        ],
        "numberOfBytes": "96"
      },
      "t_struct(Data)19764_storage": {
        "encoding": "inplace",
        "label": "struct SingleRanking.Data",
        "members": [
          {
            "astId": 19756,
            "contract": "src/RebornPortal.sol:RebornPortal",
            "label": "tree",
            "offset": 0,
            "slot": "0",
            "type": "t_struct(Tree)16597_storage"
          },
          {
            "astId": 19761,
            "contract": "src/RebornPortal.sol:RebornPortal",
            "label": "keys",
            "offset": 0,
            "slot": "3",
            "type": "t_mapping(t_uint256,t_struct(Data)16346_storage)"
          },
          {
            "astId": 19763,
            "contract": "src/RebornPortal.sol:RebornPortal",
            "label": "length",
            "offset": 0,
            "slot": "4",
            "type": "t_uint256"
          }
        ],
        "numberOfBytes": "160"
      },
      "t_struct(LifeDetail)15532_storage": {
        "encoding": "inplace",
        "label": "struct IRebornDefination.LifeDetail",
        "members": [
          {
            "astId": 15515,
            "contract": "src/RebornPortal.sol:RebornPortal",
            "label": "seed",
            "offset": 0,
            "slot": "0",
            "type": "t_bytes32"
          },
          {
            "astId": 15517,
            "contract": "src/RebornPortal.sol:RebornPortal",
            "label": "creator",
            "offset": 0,
            "slot": "1",
            "type": "t_address"
          },
          {
            "astId": 15519,
            "contract": "src/RebornPortal.sol:RebornPortal",
            "label": "reward",
            "offset": 20,
            "slot": "1",
            "type": "t_uint96"
          },
          {
            "astId": 15521,
            "contract": "src/RebornPortal.sol:RebornPortal",
            "label": "rebornCost",
            "offset": 0,
            "slot": "2",
            "type": "t_uint96"
          },
          {
            "astId": 15523,
            "contract": "src/RebornPortal.sol:RebornPortal",
            "label": "age",
            "offset": 12,
            "slot": "2",
            "type": "t_uint16"
          },
          {
            "astId": 15525,
            "contract": "src/RebornPortal.sol:RebornPortal",
            "label": "round",
            "offset": 14,
            "slot": "2",
            "type": "t_uint32"
          },
          {
            "astId": 15527,
            "contract": "src/RebornPortal.sol:RebornPortal",
            "label": "score",
            "offset": 18,
            "slot": "2",
            "type": "t_uint64"
          },
          {
            "astId": 15529,
            "contract": "src/RebornPortal.sol:RebornPortal",
            "label": "nativeCost",
            "offset": 26,
            "slot": "2",
            "type": "t_uint48"
          },
          {
            "astId": 15531,
            "contract": "src/RebornPortal.sol:RebornPortal",
            "label": "creatorName",
            "offset": 0,
            "slot": "3",
            "type": "t_string_storage"
          }
        ],
        "numberOfBytes": "128"
      },
      "t_struct(Node)16587_storage": {
        "encoding": "inplace",
        "label": "struct RankingRedBlackTree.Node",
        "members": [
          {
            "astId": 16574,
            "contract": "src/RebornPortal.sol:RebornPortal",
            "label": "id",
            "offset": 0,
            "slot": "0",
            "type": "t_uint256"
          },
          {
            "astId": 16576,
            "contract": "src/RebornPortal.sol:RebornPortal",
            "label": "value",
            "offset": 0,
            "slot": "1",
            "type": "t_uint256"
          },
          {
            "astId": 16578,
            "contract": "src/RebornPortal.sol:RebornPortal",
            "label": "count",
            "offset": 0,
            "slot": "2",
            "type": "t_uint256"
          },
          {
            "astId": 16580,
            "contract": "src/RebornPortal.sol:RebornPortal",
            "label": "parent",
            "offset": 0,
            "slot": "3",
            "type": "t_uint256"
          },
          {
            "astId": 16582,
            "contract": "src/RebornPortal.sol:RebornPortal",
            "label": "left",
            "offset": 0,
            "slot": "4",
            "type": "t_uint256"
          },
          {
            "astId": 16584,
            "contract": "src/RebornPortal.sol:RebornPortal",
            "label": "right",
            "offset": 0,
            "slot": "5",
            "type": "t_uint256"
          },
          {
            "astId": 16586,
            "contract": "src/RebornPortal.sol:RebornPortal",
            "label": "red",
            "offset": 0,
            "slot": "6",
            "type": "t_bool"
          }
        ],
        "numberOfBytes": "224"
      },
      "t_struct(Pool)8579_storage": {
        "encoding": "inplace",
        "label": "struct PortalLib.Pool",
        "members": [
          {
            "astId": 8556,
            "contract": "src/RebornPortal.sol:RebornPortal",
            "label": "totalAmount",
            "offset": 0,
            "slot": "0",
            "type": "t_uint256"
          },
          {
            "astId": 8558,
            "contract": "src/RebornPortal.sol:RebornPortal",
            "label": "accRebornPerShare",
            "offset": 0,
            "slot": "1",
            "type": "t_uint256"
          },
          {
            "astId": 8560,
            "contract": "src/RebornPortal.sol:RebornPortal",
            "label": "accNativePerShare",
            "offset": 0,
            "slot": "2",
            "type": "t_uint256"
          },
          {
            "astId": 8562,
            "contract": "src/RebornPortal.sol:RebornPortal",
            "label": "droppedRebornTotal",
            "offset": 0,
            "slot": "3",
            "type": "t_uint128"
          },
          {
            "astId": 8564,
            "contract": "src/RebornPortal.sol:RebornPortal",
            "label": "droppedNativeTotal",
            "offset": 16,
            "slot": "3",
            "type": "t_uint128"
          },
          {
            "astId": 8566,
            "contract": "src/RebornPortal.sol:RebornPortal",
            "label": "coindayCumulant",
            "offset": 0,
            "slot": "4",
            "type": "t_uint256"
          },
          {
            "astId": 8568,
            "contract": "src/RebornPortal.sol:RebornPortal",
            "label": "coindayUpdateLastTime",
            "offset": 0,
            "slot": "5",
            "type": "t_uint32"
          },
          {
            "astId": 8570,
            "contract": "src/RebornPortal.sol:RebornPortal",
            "label": "totalForwardTribute",
            "offset": 4,
            "slot": "5",
            "type": "t_uint112"
          },
          {
            "astId": 8572,
            "contract": "src/RebornPortal.sol:RebornPortal",
            "label": "totalReverseTribute",
            "offset": 18,
            "slot": "5",
            "type": "t_uint112"
          },
          {
            "astId": 8574,
            "contract": "src/RebornPortal.sol:RebornPortal",
            "label": "lastDropNativeTime",
            "offset": 0,
            "slot": "6",
            "type": "t_uint32"
          },
          {
            "astId": 8576,
            "contract": "src/RebornPortal.sol:RebornPortal",
            "label": "lastDropRebornTime",
            "offset": 4,
            "slot": "6",
            "type": "t_uint32"
          },
          {
            "astId": 8578,
            "contract": "src/RebornPortal.sol:RebornPortal",
            "label": "placeholder",
            "offset": 8,
            "slot": "6",
            "type": "t_uint192"
          }
        ],
        "numberOfBytes": "224"
      },
      "t_struct(Portfolio)8599_storage": {
        "encoding": "inplace",
        "label": "struct PortalLib.Portfolio",
        "members": [
          {
            "astId": 8581,
            "contract": "src/RebornPortal.sol:RebornPortal",
            "label": "accumulativeAmount",
            "offset": 0,
            "slot": "0",
            "type": "t_uint256"
          },
          {
            "astId": 8583,
            "contract": "src/RebornPortal.sol:RebornPortal",
            "label": "rebornRewardDebt",
            "offset": 0,
            "slot": "1",
            "type": "t_uint128"
          },
          {
            "astId": 8585,
            "contract": "src/RebornPortal.sol:RebornPortal",
            "label": "nativeRewardDebt",
            "offset": 16,
            "slot": "1",
            "type": "t_uint128"
          },
          {
            "astId": 8588,
            "contract": "src/RebornPortal.sol:RebornPortal",
            "label": "pendingOwnerRebornReward",
            "offset": 0,
            "slot": "2",
            "type": "t_uint128"
          },
          {
            "astId": 8590,
            "contract": "src/RebornPortal.sol:RebornPortal",
            "label": "pendingOwnerNativeReward",
            "offset": 16,
            "slot": "2",
            "type": "t_uint128"
          },
          {
            "astId": 8592,
            "contract": "src/RebornPortal.sol:RebornPortal",
            "label": "coindayCumulant",
            "offset": 0,
            "slot": "3",
            "type": "t_uint256"
          },
          {
            "astId": 8594,
            "contract": "src/RebornPortal.sol:RebornPortal",
            "label": "coindayUpdateLastTime",
            "offset": 0,
            "slot": "4",
            "type": "t_uint32"
          },
          {
            "astId": 8596,
            "contract": "src/RebornPortal.sol:RebornPortal",
            "label": "totalForwardTribute",
            "offset": 4,
            "slot": "4",
            "type": "t_uint112"
          },
          {
            "astId": 8598,
            "contract": "src/RebornPortal.sol:RebornPortal",
            "label": "totalReverseTribute",
            "offset": 18,
            "slot": "4",
            "type": "t_uint112"
          }
        ],
        "numberOfBytes": "160"
      },
      "t_struct(ReferrerRewardFees)8554_storage": {
        "encoding": "inplace",
        "label": "struct PortalLib.ReferrerRewardFees",
        "members": [
          {
            "astId": 8545,
            "contract": "src/RebornPortal.sol:RebornPortal",
            "label": "incarnateRef1Fee",
            "offset": 0,
            "slot": "0",
            "type": "t_uint16"
          },
          {
            "astId": 8547,
            "contract": "src/RebornPortal.sol:RebornPortal",
            "label": "incarnateRef2Fee",
            "offset": 2,
            "slot": "0",
            "type": "t_uint16"
          },
          {
            "astId": 8549,
            "contract": "src/RebornPortal.sol:RebornPortal",
            "label": "vaultRef1Fee",
            "offset": 4,
            "slot": "0",
            "type": "t_uint16"
          },
          {
            "astId": 8551,
            "contract": "src/RebornPortal.sol:RebornPortal",
            "label": "vaultRef2Fee",
            "offset": 6,
            "slot": "0",
            "type": "t_uint16"
          },
          {
            "astId": 8553,
            "contract": "src/RebornPortal.sol:RebornPortal",
            "label": "_slotPlaceholder",
            "offset": 8,
            "slot": "0",
            "type": "t_uint192"
          }
        ],
        "numberOfBytes": "32"
      },
      "t_struct(RequestStatus)15583_storage": {
        "encoding": "inplace",
        "label": "struct IRebornDefination.RequestStatus",
        "members": [
          {
            "astId": 15573,
            "contract": "src/RebornPortal.sol:RebornPortal",
            "label": "fulfilled",
            "offset": 0,
            "slot": "0",
            "type": "t_bool"
          },
          {
            "astId": 15575,
            "contract": "src/RebornPortal.sol:RebornPortal",
            "label": "exists",
            "offset": 1,
            "slot": "0",
            "type": "t_bool"
          },
          {
            "astId": 15577,
            "contract": "src/RebornPortal.sol:RebornPortal",
            "label": "executed",
            "offset": 2,
            "slot": "0",
            "type": "t_bool"
          },
          {
            "astId": 15580,
            "contract": "src/RebornPortal.sol:RebornPortal",
            "label": "t",
            "offset": 3,
            "slot": "0",
            "type": "t_enum(AirdropVrfType)15568"
          },
          {
            "astId": 15582,
            "contract": "src/RebornPortal.sol:RebornPortal",
            "label": "randomWords",
            "offset": 0,
            "slot": "1",
            "type": "t_uint256"
          }
        ],
        "numberOfBytes": "64"
      },
      "t_struct(SeasonData)15564_storage": {
        "encoding": "inplace",
        "label": "struct IRebornDefination.SeasonData",
        "members": [
          {
            "astId": 15537,
            "contract": "src/RebornPortal.sol:RebornPortal",
            "label": "pools",
            "offset": 0,
            "slot": "0",
            "type": "t_mapping(t_uint256,t_struct(Pool)8579_storage)"
          },
          {
            "astId": 15545,
            "contract": "src/RebornPortal.sol:RebornPortal",
            "label": "portfolios",
            "offset": 0,
            "slot": "1",
            "type": "t_mapping(t_address,t_mapping(t_uint256,t_struct(Portfolio)8599_storage))"
          },
          {
            "astId": 15548,
            "contract": "src/RebornPortal.sol:RebornPortal",
            "label": "_tributeRank",
            "offset": 0,
            "slot": "2",
            "type": "t_struct(Data)19764_storage"
          },
          {
            "astId": 15551,
            "contract": "src/RebornPortal.sol:RebornPortal",
            "label": "_scoreRank",
            "offset": 0,
            "slot": "7",
            "type": "t_struct(Data)19764_storage"
          },
          {
            "astId": 15555,
            "contract": "src/RebornPortal.sol:RebornPortal",
            "label": "_oldStakeAmounts",
            "offset": 0,
            "slot": "12",
            "type": "t_mapping(t_uint256,t_uint256)"
          },
          {
            "astId": 15559,
            "contract": "src/RebornPortal.sol:RebornPortal",
            "label": "_isTopHundredScore",
            "offset": 0,
            "slot": "13",
            "type": "t_struct(BitMap)29599_storage"
          },
          {
            "astId": 15561,
            "contract": "src/RebornPortal.sol:RebornPortal",
            "label": "_minScore",
            "offset": 0,
            "slot": "14",
            "type": "t_uint256"
          },
          {
            "astId": 15563,
            "contract": "src/RebornPortal.sol:RebornPortal",
            "label": "_jackpot",
            "offset": 0,
            "slot": "15",
            "type": "t_uint256"
          }
        ],
        "numberOfBytes": "512"
      },
      "t_struct(Tree)16597_storage": {
        "encoding": "inplace",
        "label": "struct RankingRedBlackTree.Tree",
        "members": [
          {
            "astId": 16589,
            "contract": "src/RebornPortal.sol:RebornPortal",
            "label": "root",
            "offset": 0,
            "slot": "0",
            "type": "t_uint256"
          },
          {
            "astId": 16594,
            "contract": "src/RebornPortal.sol:RebornPortal",
            "label": "nodes",
            "offset": 0,
            "slot": "1",
            "type": "t_mapping(t_uint256,t_struct(Node)16587_storage)"
          },
          {
            "astId": 16596,
            "contract": "src/RebornPortal.sol:RebornPortal",
            "label": "counter",
            "offset": 0,
            "slot": "2",
            "type": "t_uint256"
          }
        ],
        "numberOfBytes": "96"
      },
      "t_struct(VrfConf)8635_storage": {
        "encoding": "inplace",
        "label": "struct PortalLib.VrfConf",
        "members": [
          {
            "astId": 8626,
            "contract": "src/RebornPortal.sol:RebornPortal",
            "label": "keyHash",
            "offset": 0,
            "slot": "0",
            "type": "t_bytes32"
          },
          {
            "astId": 8628,
            "contract": "src/RebornPortal.sol:RebornPortal",
            "label": "s_subscriptionId",
            "offset": 0,
            "slot": "1",
            "type": "t_uint64"
          },
          {
            "astId": 8630,
            "contract": "src/RebornPortal.sol:RebornPortal",
            "label": "callbackGasLimit",
            "offset": 8,
            "slot": "1",
            "type": "t_uint32"
          },
          {
            "astId": 8632,
            "contract": "src/RebornPortal.sol:RebornPortal",
            "label": "numWords",
            "offset": 12,
            "slot": "1",
            "type": "t_uint32"
          },
          {
            "astId": 8634,
            "contract": "src/RebornPortal.sol:RebornPortal",
            "label": "requestConfirmations",
            "offset": 16,
            "slot": "1",
            "type": "t_uint16"
          }
        ],
        "numberOfBytes": "64"
      },
      "t_uint112": {
        "encoding": "inplace",
        "label": "uint112",
        "numberOfBytes": "14"
      },
      "t_uint128": {
        "encoding": "inplace",
        "label": "uint128",
        "numberOfBytes": "16"
      },
      "t_uint16": {
        "encoding": "inplace",
        "label": "uint16",
        "numberOfBytes": "2"
      },
      "t_uint192": {
        "encoding": "inplace",
        "label": "uint192",
        "numberOfBytes": "24"
      },
      "t_uint24": {
        "encoding": "inplace",
        "label": "uint24",
        "numberOfBytes": "3"
      },
      "t_uint256": {
        "encoding": "inplace",
        "label": "uint256",
        "numberOfBytes": "32"
      },
      "t_uint32": {
        "encoding": "inplace",
        "label": "uint32",
        "numberOfBytes": "4"
      },
      "t_uint40": {
        "encoding": "inplace",
        "label": "uint40",
        "numberOfBytes": "5"
      },
      "t_uint48": {
        "encoding": "inplace",
        "label": "uint48",
        "numberOfBytes": "6"
      },
      "t_uint64": {
        "encoding": "inplace",
        "label": "uint64",
        "numberOfBytes": "8"
      },
      "t_uint8": {
        "encoding": "inplace",
        "label": "uint8",
        "numberOfBytes": "1"
      },
      "t_uint96": {
        "encoding": "inplace",
        "label": "uint96",
        "numberOfBytes": "12"
      }
    }
  }
}