{
  "address": "0x20831a1b5Ad13A98deDA137D66Ffa9b4168B1C3C",
  "abi": [
    {
      "inputs": [],
      "name": "ValueOutOfRange",
      "type": "error"
    },
    {
      "inputs": [
        {
          "internalType": "uint256",
          "name": "value",
          "type": "uint256"
        }
      ],
      "name": "_tranformWeiToDecimal2",
      "outputs": [
        {
          "internalType": "string",
          "name": "str",
          "type": "string"
        }
      ],
      "stateMutability": "pure",
      "type": "function"
    },
    {
      "inputs": [
        {
          "internalType": "bytes32",
          "name": "b",
          "type": "bytes32"
        }
      ],
      "name": "_transformBytes32Seed",
      "outputs": [
        {
          "internalType": "string",
          "name": "",
          "type": "string"
        }
      ],
      "stateMutability": "pure",
      "type": "function"
    },
    {
      "inputs": [
        {
          "internalType": "uint256",
          "name": "value",
          "type": "uint256"
        }
      ],
      "name": "_transformUint256",
      "outputs": [
        {
          "internalType": "string",
          "name": "str",
          "type": "string"
        }
      ],
      "stateMutability": "pure",
      "type": "function"
    },
    {
      "inputs": [
        {
          "internalType": "bytes32",
          "name": "seed",
          "type": "bytes32"
        },
        {
          "internalType": "uint256",
          "name": "lifeScore",
          "type": "uint256"
        },
        {
          "internalType": "uint256",
          "name": "round",
          "type": "uint256"
        },
        {
          "internalType": "uint256",
          "name": "age",
          "type": "uint256"
        },
        {
          "internalType": "string",
          "name": "creator",
          "type": "string"
        },
        {
          "internalType": "uint256",
          "name": "cost",
          "type": "uint256"
        }
      ],
      "name": "renderSvg",
      "outputs": [
        {
          "internalType": "string",
          "name": "",
          "type": "string"
        }
      ],
      "stateMutability": "pure",
      "type": "function"
    },
    {
      "inputs": [
        {
          "internalType": "bytes32",
          "name": "seed",
          "type": "bytes32"
        },
        {
          "internalType": "uint256",
          "name": "lifeScore",
          "type": "uint256"
        },
        {
          "internalType": "uint256",
          "name": "round",
          "type": "uint256"
        },
        {
          "internalType": "uint256",
          "name": "age",
          "type": "uint256"
        },
        {
          "internalType": "address",
          "name": "creator",
          "type": "address"
        },
        {
          "internalType": "string",
          "name": "creatorName",
          "type": "string"
        },
        {
          "internalType": "uint256",
          "name": "reward",
          "type": "uint256"
        },
        {
          "internalType": "uint256",
          "name": "cost",
          "type": "uint256"
        }
      ],
      "name": "renderTrait",
      "outputs": [
        {
          "internalType": "string",
          "name": "",
          "type": "string"
        }
      ],
      "stateMutability": "pure",
      "type": "function"
    }
  ],
  "transactionHash": "0xa4cb51c9e5bbc4b92dcbbe9469ae4a3c3d150e7e75881044433deea67e616b0e",
  "args": [],
  "numDeployments": 4,
  "solcInputHash": "818ee8c4cdc293cfe73b4da023c4e77e",
  "bytecode": "0x6080806040523461001a576116959081610020823930815050f35b600080fdfe6040608081526004908136101561001557600080fd5b600091823560e01c80631846ec151461035957806323f790ed1461033d5780632b8ef8fb146102d85780634a2fc1ed146102bc578063580be978146102925763be0862f41461006357600080fd5b8160031936011261028e5790610280603d8361023761028a9661010260806101566102709935938960243595868352602098818a52828085205460038287200154936101076101026001858a2001546001868b2001549487878c2001916100e48c60026fffffffffffffffffffffffffffffffff9a8b9220015416936104b0565b9161ffff9a8b9863ffffffff9c8d9160a01c169360b01c1691610770565b6105f2565b9a87528c52939094208054600382015460018301546002840154978816978a1c9692956001600160a01b0382169560a083901c9094169460b09290921c169261015091016104b0565b94610b65565b8851693d913730b6b2911d101160b11b878201526e446567656e20546f6d6273746f6e6560881b602a820152701116113232b9b1b934b83a34b7b7111d1160791b60398201526a11161134b6b0b3b2911d1160a91b604a8201527f646174613a696d6167652f7376672b786d6c3b6261736536342c000000000000605582015284519094859291906101f0908290606f8601908b01610461565b82016f011161130ba3a3934b13aba32b9911d160851b606f82015261021e825180938a607f85019101610461565b01607d60f81b607f8201520360608101845201826103d7565b845195827f646174613a6170706c69636174696f6e2f6a736f6e3b6261736536342c000000889485015282519283918686019101610461565b810103601d8101855201836103d7565b5191829182610484565b0390f35b8280fd5b509160203660031901126102b957506102ae61028a9235611249565b905191829182610484565b80fd5b509160203660031901126102b957506102ae61028a9235611349565b5061010036600319011261028e57608435926001600160a01b03841684036102b95760a4359067ffffffffffffffff82116102b95750926102ae9161032361028a9536908301610415565b60e4359260c4359260643590604435906024359035610b65565b509160203660031901126102b957506102ae61028a92356114c4565b509160c03660031901126102b9576084359067ffffffffffffffff82116102b9575061028a9261038f6102ae9236908301610415565b60a4359160643590604435906024359035610770565b6040810190811067ffffffffffffffff8211176103c157604052565b634e487b7160e01b600052604160045260246000fd5b90601f8019910116810190811067ffffffffffffffff8211176103c157604052565b67ffffffffffffffff81116103c157601f01601f191660200190565b81601f8201121561045c5780359061042c826103f9565b9261043a60405194856103d7565b8284526020838301011161045c57816000926020809301838601378301015290565b600080fd5b60005b8381106104745750506000910152565b8181015183820152602001610464565b604091602082526104a48151809281602086015260208686019101610461565b601f01601f1916010190565b90604051906000835490600182811c90808416968715610577575b602094858410891461056357879884899798995290816000146105415750600114610502575b505050610500925003836103d7565b565b600090815285812095935091905b81831061052957505061050093508201013880806104f1565b85548884018501529485019487945091830191610510565b9250505061050094925060ff191682840152151560051b8201013880806104f1565b634e487b7160e01b85526022600452602485fd5b91607f16916104cb565b6060519060005b8281106105985750016000815290565b608081015182820152602001610588565b906105bc60209282815194859201610461565b0190565b906105ca826103f9565b6105d760405191826103d7565b82815280926105e8601f19916103f9565b0190602036910137565b80511561074b576040516060810181811067ffffffffffffffff8211176103c157604052604081527f4142434445464748494a4b4c4d4e4f505152535455565758595a61626364656660208201527f6768696a6b6c6d6e6f707172737475767778797a303132333435363738392b2f60408201528151600292838201809211610735576003918290046001600160fe1b038116810361073557610698908594951b6105c0565b936020850193829183518401925b8381106106e457505050505106806001146106d1576002146106c6575090565b603d90600019015390565b50603d9081600019820153600119015390565b85600491979293949701918251600190603f9082828260121c16880101518453828282600c1c16880101518385015382828260061c16880101518885015316850101518782015301959291906106a6565b634e487b7160e01b600052601160045260246000fd5b506040516020810181811067ffffffffffffffff8211176103c1576040526000815290565b60408051630ef10dbb60e11b8152929693957361A54A447d2071B93928174A23B2C8090462F369959192909160009182866004818b5af4958615610a94578396610b45575b506107bf906114c4565b90845199631819957560e11b8b52838b6004818c5af49a8b15610b3b57849b610b1b575b506107ed90611349565b9085519963a85e9c8360e01b8b52848b6004818d5af49a8b15610b1157859b610aee575b5061081d600491610fa4565b91858b89519384809263ccf8541960e01b82525af4918215610ae4578692610ac4575b5061084a90610fa4565b9187519b8c9460209e8f97888089018e819f51928391019161086b92610461565b8801815191828b80840192019161088192610461565b01815191828a80840192019161089692610461565b0181519182898084019201916108ab92610461565b0181519182888084019201916108c092610461565b0181519182878084019201916108d592610461565b0181519182868084019201916108ea92610461565b0181519182858084019201916108ff92610461565b01038089520161090f90886103d7565b8251636e2a56d560e01b815295818782815a91600492f4968715610aba578297610a9e575b5083516318382d3360e31b8152958287600481855af4968715610a94578397610a6f575b5082610965600492611249565b9286519283809262028a9960e31b82525af4928315610a645799610a309481999794610a3c9b999794610a11948e610a219f93610a3f575b50508551988993856109b88187019d8e815193849201610461565b85016109cc82518093898085019101610461565b016109df82518093888085019101610461565b016109f282518093878085019101610461565b01610a0582518093868085019101610461565b010380875201856103d7565b5197889551809288880190610461565b84019151809386840190610461565b010380845201826103d7565b90565b610a5c9293503d8091833e610a5481836103d7565b8101906111dd565b90388061099d565b8551903d90823e3d90fd5b6004919750610965610a8b85923d8085833e610a5481836103d7565b98925050610958565b85513d85823e3d90fd5b610ab39197503d8084833e610a5481836103d7565b9538610934565b84513d84823e3d90fd5b61084a919250610add903d8089833e610a5481836103d7565b9190610840565b88513d88823e3d90fd5b6004919b50610b0961081d913d8089833e610a5481836103d7565b9b9150610811565b87513d87823e3d90fd5b6107ed919b50610b34903d8087833e610a5481836103d7565b9a906107e3565b86513d86823e3d90fd5b6107bf919650610b5e903d8086833e610a5481836103d7565b95906107b5565b610b77909791979694959392966110f8565b96610b8190610fa4565b95610b8b90610fa4565b91610b9590610fa4565b9460409283519687916020998a84019b7f5b7b2274726169745f74797065223a202253656564222c202276616c7565223a8d5261101160f11b88860152805190818d60428801920191610be792610461565b7f227d2c7b2274726169745f74797065223a20224c6966652053636f7265222c20604291860191820152680113b30b63ab2911d160bd1b6062820152815191610c38908390606b8401908f01610461565b01606b81017f7d2c7b2274726169745f74797065223a2022526f756e64222c202276616c75659052620111d160ed1b608b820152815191828c608e8401920191610c8192610461565b01608e81017f7d2c7b2274726169745f74797065223a2022416765222c202276616c7565223a905260ae8101600160fd1b9052815191828b60af8401920191610cc992610461565b0103608f8101875260af01610cde90876103d7565b8251946001600160a01b039190911691906060860167ffffffffffffffff8111878210176103c1578452602a86528786019284368537865115610f8e57603084538651600190811015610f8e57607860218901536029905b808211610f20575050610ede57610d4c90610fa4565b90610d5690610fa4565b908351948593898501977f7d2c7b2274726169745f74797065223a202243726561746f72222c202276616c8952653ab2911d101160d11b8787015251908160468701610da192610461565b7f227d2c7b2274726169745f74797065223a202243726561746f724e616d65222c6046918601918201526a10113b30b63ab2911d101160a91b6066820152815191610df490839060718401908d01610461565b01607181017f227d2c7b2274726169745f74797065223a2022526577617264222c202276616c90526403ab2911d160dd1b6091820152815191828a60968401920191610e3f92610461565b01609681017f7d2c7b2274726169745f74797065223a2022436f7374222c202276616c756522905260b681016101d160f51b9052815191828960b88401920191610e8892610461565b0160b88101617d5d60f01b905203609a8101835260ba01610ea990836103d7565b51948593519081868601610ebc92610461565b830190519182858301610ece92610461565b010380835201610a3c90826103d7565b60648885519062461bcd60e51b825280600483015260248201527f537472696e67733a20686578206c656e67746820696e73756666696369656e746044820152fd5b9091600f81166010811015610f79576f181899199a1a9b1b9c1cb0b131b232b360811b901a610f4f848b6110e7565b5360041c918015610f64576000190190610d36565b60246000634e487b7160e01b81526011600452fd5b60246000634e487b7160e01b81526032600452fd5b634e487b7160e01b600052603260045260246000fd5b806000917a184f03e93ff9f4daa797ed6e38ed64bf6a1f010000000000000000808210156110d9575b506d04ee2d6d415b85acef8100000000808310156110ca575b50662386f26fc10000808310156110bb575b506305f5e100808310156110ac575b506127108083101561109d575b50606482101561108d575b600a80921015611083575b60019081602161103b8287016105c0565b95860101905b61104d575b5050505090565b600019019083906f181899199a1a9b1b9c1cb0b131b232b360811b8282061a83530491821561107e57919082611041565b611046565b916001019161102a565b919060646002910491019161101f565b60049193920491019138611014565b60089193920491019138611007565b60109193920491019138610ff8565b60209193920491019138610fe6565b604093508104915038610fcd565b908151811015610f8e570160200190565b604051906080820182811067ffffffffffffffff8211176103c15760405260428252602082016060368237825115610f8e57603090538151600190811015610f8e57607860218401536041905b8082116111995750506111555790565b606460405162461bcd60e51b815260206004820152602060248201527f537472696e67733a20686578206c656e67746820696e73756666696369656e746044820152fd5b9091600f81166010811015610f79576f181899199a1a9b1b9c1cb0b131b232b360811b901a6111c884866110e7565b5360041c918015610f64576000190190611145565b60208183031261045c5780519067ffffffffffffffff821161045c570181601f8201121561045c578051611210816103f9565b9261121e60405194856103d7565b8184526020828401011161045c57610a3c9160208085019101610461565b9190820391821161073557565b68056bc75e2d6310000081111561126d57670de0b6b3a7640000610a3c9104610fa4565b610a3c602167016345785d8a0000926112de662386f26fc100006112d7868406966112d0670de0b6b3a7640000806112a58b8961123c565b06968a888015801590611340575b15611339576112c5906112ca9361123c565b61123c565b04610fa4565b9404610fa4565b9504610fa4565b60405194826112f7879451809260208088019101610461565b8301601760f91b60208201526113168251809360208885019101610461565b0161132a8251809360208785019101610461565b010360018101845201826103d7565b50506112ca565b508115156112b3565b6298968081101561135d57610a3c90611416565b64174876e8008110156113af57620f42406113789104611416565b610a3c602160405183611395829551809260208086019101610461565b8101604d60f81b60208201520360018101845201826103d7565b66038d7ea4c6800081101561140457633b9aca006113cd9104611416565b610a3c6021604051836113ea829551809260208086019101610461565b8101602160f91b60208201520360018101845201826103d7565b604051634eb4f9fb60e01b8152600490fd5b60606103e88083048061145d575050610a3c9061144f61143861144994610fa4565b9160405194859360208501906105a9565b906105a9565b03601f1981018352826103d7565b611468919250611416565b61147a610a3c9261147f929406610fa4565b6115de565b9161144f6021604051948361149e879551809260208089019101610461565b8401600b60fa1b60208201526114bd8251809360208685019101610461565b0101610581565b6114cd906110f8565b604051906114da826103a5565b600e808352602090818401908236833760005b8181106115aa57505060405190611503826103a5565b601582528282019383368637602d5b604281106115685750509260239261155961153e9693610a3c9660405198899651809286890190610461565b6271405360e91b908601938401525192839086840190610461565b010360038101845201826103d7565b6001600160f81b031961157b82846110e7565b51602c1983019116828211610735576115989060001a91866110e7565b53600019811461073557600101611512565b6001600160f81b03196115bd82876110e7565b511660001a6115cc82886110e7565b536000198114610735576001016114ed565b8051600181036116215750610a3c6022604051809361030360f41b60208301526116118151809260208686019101610461565b81010360028101845201826103d7565b600203610a3c57610a3c60216040518093600360fc1b602083015261164f8151809260208686019101610461565b81010360018101845201826103d756fea26469706673582212206759aa45be66185a0d5e4ac781ec9aeccfcc77ebfcd8ae4cb83b7b71edfe261964736f6c63430008110033",
  "deployedBytecode": "0x6040608081526004908136101561001557600080fd5b600091823560e01c80631846ec151461035957806323f790ed1461033d5780632b8ef8fb146102d85780634a2fc1ed146102bc578063580be978146102925763be0862f41461006357600080fd5b8160031936011261028e5790610280603d8361023761028a9661010260806101566102709935938960243595868352602098818a52828085205460038287200154936101076101026001858a2001546001868b2001549487878c2001916100e48c60026fffffffffffffffffffffffffffffffff9a8b9220015416936104b0565b9161ffff9a8b9863ffffffff9c8d9160a01c169360b01c1691610770565b6105f2565b9a87528c52939094208054600382015460018301546002840154978816978a1c9692956001600160a01b0382169560a083901c9094169460b09290921c169261015091016104b0565b94610b65565b8851693d913730b6b2911d101160b11b878201526e446567656e20546f6d6273746f6e6560881b602a820152701116113232b9b1b934b83a34b7b7111d1160791b60398201526a11161134b6b0b3b2911d1160a91b604a8201527f646174613a696d6167652f7376672b786d6c3b6261736536342c000000000000605582015284519094859291906101f0908290606f8601908b01610461565b82016f011161130ba3a3934b13aba32b9911d160851b606f82015261021e825180938a607f85019101610461565b01607d60f81b607f8201520360608101845201826103d7565b845195827f646174613a6170706c69636174696f6e2f6a736f6e3b6261736536342c000000889485015282519283918686019101610461565b810103601d8101855201836103d7565b5191829182610484565b0390f35b8280fd5b509160203660031901126102b957506102ae61028a9235611249565b905191829182610484565b80fd5b509160203660031901126102b957506102ae61028a9235611349565b5061010036600319011261028e57608435926001600160a01b03841684036102b95760a4359067ffffffffffffffff82116102b95750926102ae9161032361028a9536908301610415565b60e4359260c4359260643590604435906024359035610b65565b509160203660031901126102b957506102ae61028a92356114c4565b509160c03660031901126102b9576084359067ffffffffffffffff82116102b9575061028a9261038f6102ae9236908301610415565b60a4359160643590604435906024359035610770565b6040810190811067ffffffffffffffff8211176103c157604052565b634e487b7160e01b600052604160045260246000fd5b90601f8019910116810190811067ffffffffffffffff8211176103c157604052565b67ffffffffffffffff81116103c157601f01601f191660200190565b81601f8201121561045c5780359061042c826103f9565b9261043a60405194856103d7565b8284526020838301011161045c57816000926020809301838601378301015290565b600080fd5b60005b8381106104745750506000910152565b8181015183820152602001610464565b604091602082526104a48151809281602086015260208686019101610461565b601f01601f1916010190565b90604051906000835490600182811c90808416968715610577575b602094858410891461056357879884899798995290816000146105415750600114610502575b505050610500925003836103d7565b565b600090815285812095935091905b81831061052957505061050093508201013880806104f1565b85548884018501529485019487945091830191610510565b9250505061050094925060ff191682840152151560051b8201013880806104f1565b634e487b7160e01b85526022600452602485fd5b91607f16916104cb565b6060519060005b8281106105985750016000815290565b608081015182820152602001610588565b906105bc60209282815194859201610461565b0190565b906105ca826103f9565b6105d760405191826103d7565b82815280926105e8601f19916103f9565b0190602036910137565b80511561074b576040516060810181811067ffffffffffffffff8211176103c157604052604081527f4142434445464748494a4b4c4d4e4f505152535455565758595a61626364656660208201527f6768696a6b6c6d6e6f707172737475767778797a303132333435363738392b2f60408201528151600292838201809211610735576003918290046001600160fe1b038116810361073557610698908594951b6105c0565b936020850193829183518401925b8381106106e457505050505106806001146106d1576002146106c6575090565b603d90600019015390565b50603d9081600019820153600119015390565b85600491979293949701918251600190603f9082828260121c16880101518453828282600c1c16880101518385015382828260061c16880101518885015316850101518782015301959291906106a6565b634e487b7160e01b600052601160045260246000fd5b506040516020810181811067ffffffffffffffff8211176103c1576040526000815290565b60408051630ef10dbb60e11b81529296939573__$6e06dd050095c7919be040ed2350b8ae73$__959192909160009182866004818b5af4958615610a94578396610b45575b506107bf906114c4565b90845199631819957560e11b8b52838b6004818c5af49a8b15610b3b57849b610b1b575b506107ed90611349565b9085519963a85e9c8360e01b8b52848b6004818d5af49a8b15610b1157859b610aee575b5061081d600491610fa4565b91858b89519384809263ccf8541960e01b82525af4918215610ae4578692610ac4575b5061084a90610fa4565b9187519b8c9460209e8f97888089018e819f51928391019161086b92610461565b8801815191828b80840192019161088192610461565b01815191828a80840192019161089692610461565b0181519182898084019201916108ab92610461565b0181519182888084019201916108c092610461565b0181519182878084019201916108d592610461565b0181519182868084019201916108ea92610461565b0181519182858084019201916108ff92610461565b01038089520161090f90886103d7565b8251636e2a56d560e01b815295818782815a91600492f4968715610aba578297610a9e575b5083516318382d3360e31b8152958287600481855af4968715610a94578397610a6f575b5082610965600492611249565b9286519283809262028a9960e31b82525af4928315610a645799610a309481999794610a3c9b999794610a11948e610a219f93610a3f575b50508551988993856109b88187019d8e815193849201610461565b85016109cc82518093898085019101610461565b016109df82518093888085019101610461565b016109f282518093878085019101610461565b01610a0582518093868085019101610461565b010380875201856103d7565b5197889551809288880190610461565b84019151809386840190610461565b010380845201826103d7565b90565b610a5c9293503d8091833e610a5481836103d7565b8101906111dd565b90388061099d565b8551903d90823e3d90fd5b6004919750610965610a8b85923d8085833e610a5481836103d7565b98925050610958565b85513d85823e3d90fd5b610ab39197503d8084833e610a5481836103d7565b9538610934565b84513d84823e3d90fd5b61084a919250610add903d8089833e610a5481836103d7565b9190610840565b88513d88823e3d90fd5b6004919b50610b0961081d913d8089833e610a5481836103d7565b9b9150610811565b87513d87823e3d90fd5b6107ed919b50610b34903d8087833e610a5481836103d7565b9a906107e3565b86513d86823e3d90fd5b6107bf919650610b5e903d8086833e610a5481836103d7565b95906107b5565b610b77909791979694959392966110f8565b96610b8190610fa4565b95610b8b90610fa4565b91610b9590610fa4565b9460409283519687916020998a84019b7f5b7b2274726169745f74797065223a202253656564222c202276616c7565223a8d5261101160f11b88860152805190818d60428801920191610be792610461565b7f227d2c7b2274726169745f74797065223a20224c6966652053636f7265222c20604291860191820152680113b30b63ab2911d160bd1b6062820152815191610c38908390606b8401908f01610461565b01606b81017f7d2c7b2274726169745f74797065223a2022526f756e64222c202276616c75659052620111d160ed1b608b820152815191828c608e8401920191610c8192610461565b01608e81017f7d2c7b2274726169745f74797065223a2022416765222c202276616c7565223a905260ae8101600160fd1b9052815191828b60af8401920191610cc992610461565b0103608f8101875260af01610cde90876103d7565b8251946001600160a01b039190911691906060860167ffffffffffffffff8111878210176103c1578452602a86528786019284368537865115610f8e57603084538651600190811015610f8e57607860218901536029905b808211610f20575050610ede57610d4c90610fa4565b90610d5690610fa4565b908351948593898501977f7d2c7b2274726169745f74797065223a202243726561746f72222c202276616c8952653ab2911d101160d11b8787015251908160468701610da192610461565b7f227d2c7b2274726169745f74797065223a202243726561746f724e616d65222c6046918601918201526a10113b30b63ab2911d101160a91b6066820152815191610df490839060718401908d01610461565b01607181017f227d2c7b2274726169745f74797065223a2022526577617264222c202276616c90526403ab2911d160dd1b6091820152815191828a60968401920191610e3f92610461565b01609681017f7d2c7b2274726169745f74797065223a2022436f7374222c202276616c756522905260b681016101d160f51b9052815191828960b88401920191610e8892610461565b0160b88101617d5d60f01b905203609a8101835260ba01610ea990836103d7565b51948593519081868601610ebc92610461565b830190519182858301610ece92610461565b010380835201610a3c90826103d7565b60648885519062461bcd60e51b825280600483015260248201527f537472696e67733a20686578206c656e67746820696e73756666696369656e746044820152fd5b9091600f81166010811015610f79576f181899199a1a9b1b9c1cb0b131b232b360811b901a610f4f848b6110e7565b5360041c918015610f64576000190190610d36565b60246000634e487b7160e01b81526011600452fd5b60246000634e487b7160e01b81526032600452fd5b634e487b7160e01b600052603260045260246000fd5b806000917a184f03e93ff9f4daa797ed6e38ed64bf6a1f010000000000000000808210156110d9575b506d04ee2d6d415b85acef8100000000808310156110ca575b50662386f26fc10000808310156110bb575b506305f5e100808310156110ac575b506127108083101561109d575b50606482101561108d575b600a80921015611083575b60019081602161103b8287016105c0565b95860101905b61104d575b5050505090565b600019019083906f181899199a1a9b1b9c1cb0b131b232b360811b8282061a83530491821561107e57919082611041565b611046565b916001019161102a565b919060646002910491019161101f565b60049193920491019138611014565b60089193920491019138611007565b60109193920491019138610ff8565b60209193920491019138610fe6565b604093508104915038610fcd565b908151811015610f8e570160200190565b604051906080820182811067ffffffffffffffff8211176103c15760405260428252602082016060368237825115610f8e57603090538151600190811015610f8e57607860218401536041905b8082116111995750506111555790565b606460405162461bcd60e51b815260206004820152602060248201527f537472696e67733a20686578206c656e67746820696e73756666696369656e746044820152fd5b9091600f81166010811015610f79576f181899199a1a9b1b9c1cb0b131b232b360811b901a6111c884866110e7565b5360041c918015610f64576000190190611145565b60208183031261045c5780519067ffffffffffffffff821161045c570181601f8201121561045c578051611210816103f9565b9261121e60405194856103d7565b8184526020828401011161045c57610a3c9160208085019101610461565b9190820391821161073557565b68056bc75e2d6310000081111561126d57670de0b6b3a7640000610a3c9104610fa4565b610a3c602167016345785d8a0000926112de662386f26fc100006112d7868406966112d0670de0b6b3a7640000806112a58b8961123c565b06968a888015801590611340575b15611339576112c5906112ca9361123c565b61123c565b04610fa4565b9404610fa4565b9504610fa4565b60405194826112f7879451809260208088019101610461565b8301601760f91b60208201526113168251809360208885019101610461565b0161132a8251809360208785019101610461565b010360018101845201826103d7565b50506112ca565b508115156112b3565b6298968081101561135d57610a3c90611416565b64174876e8008110156113af57620f42406113789104611416565b610a3c602160405183611395829551809260208086019101610461565b8101604d60f81b60208201520360018101845201826103d7565b66038d7ea4c6800081101561140457633b9aca006113cd9104611416565b610a3c6021604051836113ea829551809260208086019101610461565b8101602160f91b60208201520360018101845201826103d7565b604051634eb4f9fb60e01b8152600490fd5b60606103e88083048061145d575050610a3c9061144f61143861144994610fa4565b9160405194859360208501906105a9565b906105a9565b03601f1981018352826103d7565b611468919250611416565b61147a610a3c9261147f929406610fa4565b6115de565b9161144f6021604051948361149e879551809260208089019101610461565b8401600b60fa1b60208201526114bd8251809360208685019101610461565b0101610581565b6114cd906110f8565b604051906114da826103a5565b600e808352602090818401908236833760005b8181106115aa57505060405190611503826103a5565b601582528282019383368637602d5b604281106115685750509260239261155961153e9693610a3c9660405198899651809286890190610461565b6271405360e91b908601938401525192839086840190610461565b010360038101845201826103d7565b6001600160f81b031961157b82846110e7565b51602c1983019116828211610735576115989060001a91866110e7565b53600019811461073557600101611512565b6001600160f81b03196115bd82876110e7565b511660001a6115cc82886110e7565b536000198114610735576001016114ed565b8051600181036116215750610a3c6022604051809361030360f41b60208301526116118151809260208686019101610461565b81010360028101845201826103d7565b600203610a3c57610a3c60216040518093600360fc1b602083015261164f8151809260208686019101610461565b81010360018101845201826103d756fea26469706673582212206759aa45be66185a0d5e4ac781ec9aeccfcc77ebfcd8ae4cb83b7b71edfe261964736f6c63430008110033",
  "libraries": {
    "RenderConstant": "0x61A54A447d2071B93928174A23B2C8090462F369"
  },
  "devdoc": {
    "kind": "dev",
    "methods": {},
    "version": 1
  },
  "userdoc": {
    "kind": "user",
    "methods": {},
    "version": 1
  },
  "storageLayout": {
    "storage": [],
    "types": null
  }
}