{
  "address": "0xC39C91A972745FEE236BE72B557c523c206fe7DE",
  "abi": [
    {
      "inputs": [],
      "name": "P10",
      "outputs": [
        {
          "internalType": "string",
          "name": "",
          "type": "string"
        }
      ],
      "stateMutability": "pure",
      "type": "function"
    }
  ],
  "transactionHash": "0xc03eaef87c945056ffb036cfa5e2c13e0726093be46387133f1614686d40ed37",
  "args": [],
  "numDeployments": 3,
  "solcInputHash": "7ad24524cdac31f3e2a14cb9b972f6b8",
  "bytecode": "0x6080806040523461001a576141ec9081610020823930815050f35b600080fdfe6080600436101561000f57600080fd5b600090813560e01c63255106dd1461002657600080fd5b816003193601126141b2576135808101906001600160401b0382118183101761419e57604091825261355b81526020907f3c73766720786d6c6e733d22687474703a2f2f7777772e77332e6f72672f3230828201527f30302f7376672220783d2237322220793d22333830223e3c7376672077696474838201527f683d2231323022206865696768743d22313230223e3c636c697050617468206960608201527f643d227072656669785f5f636c6970436972636c65223e3c636972636c65206360808201527f783d223438222063793d2234382220723d223438222f3e3c2f636c697050617460a08201527f683e3c636972636c652063783d223438222063793d2234382220723d2234382260c08201527f2066696c6c3d2223433831343543222f3e3c6720636c69702d706174683d227560e08201527f726c28237072656669785f5f636c6970436972636c6529223e3c7061746820666101008201527f696c6c3d22234641363030302220643d224d32392e3633332034382e3631376c6101208201527f2d38362e36312d38332e3035372038332e3035362d38362e3631312038362e366101408201527f31312038332e3035377a222f3e3c706174682066696c6c3d22234635414630306101608201527f2220643d224d36332e34203134322e3034386c2d3131392e36373820382e37386101808201527f382d382e3738382d3131392e3637374c35342e36312032322e33377a222f3e3c6101a08201527f706174682066696c6c3d22233033353835452220643d224d32312e3930362d316101c08201527f2e3638326c392e383333203131392e3539372d3131392e35393620392e3833326101e08201527f4c2d39372e363920382e3135317a222f3e3c2f673e3c2f7376673e3c2f7376676102008201527f3e3c646566733e3c6c696e6561724772616469656e742069643d2270726566696102208201527f785f5f7030222078313d223632322e303434222079313d222d322e33343722206102408201527f78323d223632322e303434222079323d223637382e33333222206772616469656102608201527f6e74556e6974733d227573657253706163654f6e557365223e3c73746f7020736102808201527f746f702d636f6c6f723d2223343532463136222f3e3c73746f70206f666673656102a08201527f743d2231222073746f702d636f6c6f723d2223314232303233222f3e3c2f6c696102c08201527f6e6561724772616469656e743e3c6c696e6561724772616469656e742069643d6102e08201527f227072656669785f5f7031222078313d223632322e303434222079313d222d326103008201527f2e333437222078323d223632322e303434222079323d223636382e39343322206103208201527f6772616469656e74556e6974733d227573657253706163654f6e557365223e3c6103408201527f73746f702073746f702d636f6c6f723d2223464638413030222f3e3c73746f706103608201527f206f66667365743d2231222073746f702d636f6c6f723d2223353233393142226103808201527f2f3e3c2f6c696e6561724772616469656e743e3c6c696e6561724772616469656103a08201527f6e742069643d227072656669785f5f7032222078313d223632322e31373122206103c08201527f79313d222d312e3733222078323d223632322e313731222079323d223334372e6103e08201527f38323722206772616469656e74556e6974733d227573657253706163654f6e556104008201527f7365223e3c73746f702073746f702d636f6c6f723d22234637383630322220736104208201527f746f702d6f7061636974793d222e3335222f3e3c73746f70206f66667365743d6104408201527f2231222073746f702d636f6c6f723d2223463738363032222073746f702d6f706104608201527f61636974793d2230222f3e3c2f6c696e6561724772616469656e743e3c6c696e6104808201527f6561724772616469656e742069643d227072656669785f5f703735222078313d6104a08201527f22393139222079313d22313830222078323d22393139222079323d22323736226104c08201527f206772616469656e74556e6974733d227573657253706163654f6e557365223e6104e08201527f3c73746f702073746f702d636f6c6f723d2223464646464441222f3e3c73746f6105008201527f70206f66667365743d222e353033222073746f702d636f6c6f723d22234646456105208201527f374236222f3e3c73746f70206f66667365743d2231222073746f702d636f6c6f6105408201527f723d2223413837393435222f3e3c2f6c696e6561724772616469656e743e3c706105608201527f61747465726e2069643d227072656669785f5f7061747465726e3022207061746105808201527f7465726e436f6e74656e74556e6974733d226f626a656374426f756e64696e676105a08201527f426f78222077696474683d223122206865696768743d2231223e3c75736520786105c08201527f6c696e6b3a687265663d22237072656669785f5f696d616765305f3533395f326105e08201527f38303022207472616e73666f726d3d226d6174726978282e30303235352030206106008201527f30202e3030323535202d2e363339202d312e373729222f3e3c2f7061747465726106208201527f6e3e3c2f646566733e3c7374796c653e40666f6e742d666163657b666f6e742d6106408201527f66616d696c793a2661706f733b426c61636b204f7073204f6e652661706f733b6106608201527f3b666f6e742d7374796c653a6e6f726d616c3b666f6e742d7765696768743a346106808201527f30303b7372633a75726c28646174613a6170706c69636174696f6e2f666f6e746106a08201527f3b6261736536342c643039474d674142414141414141653041416f41414141416106c08201527f454277414141646e4141454141414141414141414141414141414141414141416106e08201527f4141414141414141426d414168416f4b6a32434b4c77733441414532416951446107008201527f624151674259637242316762675178526c473153692b7a6e6757314d506269686107208201527f44424f69686d43374c5a6f4c6d484c2b772b4c37616c633474623037536236546107408201527f4c43764172756456636f6b67534d59434f6579576e514a79556d4b37674f79556107608201527f32636e5431647075364179686273516c766b752f463547514d7a7866334f6a746107808201527f74723830774359494a496b674d456a6b55432f2f2b36762f6236335645322b496107a08201527f4e52323856432b426b496e72372f374e43574c4c594f615654715a4563366c456107c08201527f6f716449535a6e2f393338564f4c747570453764384d432f4e64594258474c516107e08201527f62447a67622b344b674b586e4e6648506f537032486762415746426c6879754c6108008201527f66416d456a6b504e4d306a543539382b455031363177486d41514475347573416108208201527f67496f414d6c59354341436741624c536c4f50394c51413070743549694a71616108408201527f6159386b4d62684373564c546a77355244565a4431464256722f366c716d70356108608201527f74614a6153613163496242433050386b67686835586538696e6350335a3346636108808201527f627963335858544253556674744d4e3278545a66326676622b3848373376764f6108a08201527f2b3872377a46766978534d3938543732506e727936636c4851447751494e53516108c08201527f414c41494167424d4f46375155435a4b7845344c736b366e684f446e2f34386c6108e08201527f49424343676b4d67464141674c42776741676a5759326c6a5357752f36436b416109008201527f336764794c673844416b796c524a6a4a4d532f62326e686169394e714b4e56776109208201527f45766369617a525549344349557a6c2f66334532676a386e63707767634a774d6109408201527f6f495665454b3961594c7a4553597a6a4b43654b484931324f764d4c724f5a596109608201527f697a58475a496b796d2b495452534c6a4f4958495444494c4a703146593557786109808201527f6c6c703545635571776a44696a79566956586a4a6a453036584943734d6d67686109a08201527f48796e677a327552664377384b6c6f7a516f4a336c6d64424d736859636371436109c08201527f6845556f6948467963524a4f35514f7848375a4444556f437a6f336c4d6b43456109e08201527f314859696b63686d79434f59646b72536833655332454373677a796e6e436462610a008201527f4e704578784576454568684b53456945694841306b55744e397965535a697454610a208201527f4d49327765464555544f6e72676f515649684d747774464567546b484f4f5638610a408201527f4a55716a68594c666a6b47694978494a7964692f514c5a627565537a2f414a6d610a608201527f783434774e6e316176445a68324a46522f496e4f517177535673774e64645169610a808201527f4a56715767434538456b6c6456566f796379625a777674453034487445624f51610aa08201527f644d346651754957572b5838595569424b4a59676f6378756275464d6c4c4135610ac08201527f42696c746f49473567675252546c5965357a475a2b6d7679697446437749612b610ae08201527f594270494f416e4b6979417941386b574d5a433452354b6a385a704e49505249610b008201527f4751757a59646f2f61397930655a506d4734756179395247367a63315a6b3474610b208201527f316863315854624d7051585532636a6461436546416179486352656c426b712f610b408201527f4d6949792b766675436d46417035496e72676d757748634c4f374573426f4d65610b608201527f527a437047774336366a6431523739757a435a47373334786e75417978337770610b808201527f2b514937367a5a38307a4273463650386374667969544c54744a6b5865597653610ba08201527f306f69754a3658415345717675443164395643477231506b57456757486d702f610bc08201527f2f5a4474563357485566347166534d776f4e2b54726378776531572f2f676b2b610be08201527f6962496d6c4e356c6449466e515730474f6257356a5669327962434a36536163610c008201527f53562f4c49696c4e72337a71444e76544a4d6d48795065576c414c706b4e5237610c208201527f764b73714b37744939795470627a336648423734504f6f59676c614f587a6d4f610c408201527f593351514f793465397833584832656432525839466438563851717a55597058610c608201527f754b374743714161554e684777305957322f796466666e43574531476f396d47610c808201527f6d6a334573692b4d7872766a4e7a44495a6c333158642b594d677778716e4f70610ca08201527f4f6a796a4350673662737734394159724c71326e70665149547a66536d543361610cc08201527f50476358544b6e58714d37647a463668337556744b39465a54435777642f6e65610ce08201527f2f36476267586f7536686b377763777256386f753350664d57445a442f564651610d008201527f394b3031597a5559585867764131676e5371574b6e734b4d4c3447765873396f610d208201527f537a7850616146375a646576594150653477626530396c3374764c5a69655047610d408201527f6632633069464777555270453653346a473758714e4d756d644e576f55623754610d608201527f686534736576794d4f7855646575642b78334970645977703876563354484442610d808201527f4c494f6432566549663736797472753542675a4d7978684d6437674b4d2f5246610da08201527f47516f6e556e4767492f54677455396e5478675077767a6943452b45666d2b78610dc08201527f30574f456d6f616a5766506d2f2f373875636b593431466a47574e585934374b610de08201527f446c396e3335444b51316a56673770674d37714e4f414966396e784d3764302f610e008201527f67514941414142414146414a4c53502f72564e584c58395269514941774e4d66610e208201527f75366343414f2f46397955672f36634c703349614149556a754a7669634d336a610e408201527f304544743332447458722f5667725664596c34654754537a7a4d784267334b50610e608201527f4c634e676d5963473272776c454271755048356b6a382f4f56614f5a30756974610e808201527f365761484f534d396e53424b4455684e41306864706a476d4a61543244506230610ea08201527f70424a72786e786b4b396c4e72774979414862707838395a514a4c6949596f51610ec08201527f57547a434e4379494d42694d4f4d476d496c3531713541673041585145656e6a610ee08201527f706d6759414f7a3242794d6b6f6f6f5170717454694768654e78436e656b7549610f008201527f4639574e6b4d44595534626f4e4f346464364b595a7876612f734f55536d7063610f208201527f7a47567848314b346f38372f4d34592b367a2b384847364e39364a363534366a610f408201527f336a6971542b484d2f555638656c39322b4546783473314b4370534a4b667976610f608201527f6b787a6a637178627432474c534a50344f5768474d394d42742f553241656566610f808201527f612b4b69307457734c726976576a714b697737574f55666571326e7468725762610fa08201527f3147706b656a6962624549312b58387553396f34753865394534555745614655610fc08201527f6d5456696f5567483146665855454a555252314966647a3333686a4d4d467a63610fe08201527f7132504f534b577a516d4f7853766a4d7274684f663259564b61484675476f2b6110008201527f3649426a74623771714d4d71647062744f5934794365515748416e4761526c676110208201527f5372486930374c745a5442586b6f4d2b3862303368777067463142415154636b6110408201527f314c742b74334652573131314e6452434a4250684638634b5876527a774a334e6110608201527f3368394959765062694f4e653651766c5962584e4a49423767355369647548756110808201527f444f65416f4b6d524e7654655243324e6d41596877365a2b3766646f623865496110a08201527f6b4e61785069527a4a424336507234506d6d67424141442b622b6251765470476110c08201527f316c454543684c734869696c4e4d4a707932374c7161794b4f757071704c464f6110e08201527f6143774f543654525751414141413d3d2920666f726d6174282661706f733b776111008201527f6f6666322661706f733b293b756e69636f64652d72616e67653a552b303030306111208201527f2d303046462c552b303133312c552b303135322d303135332c552b303242422d6111408201527f303242432c552b303243362c552b303244412c552b303244432c552b323030306111608201527f2d323036462c552b323037342c552b323041432c552b323132322c552b3231396111808201527f312c552b323139332c552b323231322c552b323231352c552b464546462c552b6111a08201527f464646447d40666f6e742d666163657b666f6e742d66616d696c793a2661706f6111c08201527f733b56543332332661706f733b3b666f6e742d7374796c653a6e6f726d616c3b6111e08201527f666f6e742d7765696768743a3430303b7372633a75726c28646174613a6170706112008201527f6c69636174696f6e2f666f6e743b6261736536342c643039474d6741424141416112208201527f41414270554141344141414141774a414141426e3741414541414141414141416112408201527f414141414141414141414141414141414141414141476967624868794557415a6112608201527f674149526b4551674b6774396f6770514543344e5541414532416951446878516112808201527f45494157444d4165464f52766b6c374f69657254516b594667343444384272346112a08201527f38696a4b785372502f5177493978444a507356316b47456577485a486461455a6112c08201527f445730766f766e54675465734a3679366854366279556e39724a762b31475a556112e08201527f622b34794d373479526543375066372f663639726e42736b436152514b4661486113008201527f514d53366c3864572b485a2b342f76725964332f2b6e66505054564a563841586113208201527f7a564841765973476b596b413743424e7a65576166627a7a382f3258657437316113408201527f7745317971746a71384a5479553473485775435047504f6444674c6f326333696113608201527f613661575970586b54523879586d57556977432b33636d63364868533449732b6113808201527f5262582b565466575843456355357a364641306b564f654843444f50765643736113a08201527f726e316657425347546d647037666e74586536673332546b62784f62454272466113c08201527f33596758664f59456d5466686930434b2b673370523753436d767a54685331536113e08201527f4b795a7131566c556e7533656b5061464f416a36784d5341385735314d6c764e6114008201527f2f6c496647754141492b4839727636387a6233434e74676b4e395a466f69517a6114208201527f6e4c752b2b5a564450497261446230533845526f68696b68792f52714b68766a6114408201527f50443748383548376630704c75397155457154506752757a657471542f46455a6114608201527f315565306f4f656b64326d644170377071356b62566f37685a636b77454757436114808201527f306137526964387757546a5036725641554376756752437a507146597a7537366114a08201527f734a50746249597a596a78492f31792f7a686d3339757841364a59544d6d687a6114c08201527f75666f326c2f374f4a62642b5274444d54356b2f5379795a65484b49694969496114e08201527f5149596e2f765955437a414651434954686b42464777597732426e4c634577676115008201527f435a766a7968625946686c7267496743396777417a3167554e6d474872302f4a6115208201527f4f70686645334e6972706e7753544a7673576849614e74564241384d7575346d6115408201527f4572477a696f632b3670547a635266574751304c5653577869536f6c465243456115608201527f52684f5153546b446d672b47546c6861454a347a5779436e712b304d594974686115808201527f58684b6e636275324548543475597a6473596d76594d7261417a6649374251696115a08201527f63595177786767466a4d5535744e70347a646954467654496f2b5a57354d484c6115c08201527f736e564e357442706a62507964697841735862563243313071584c44413734316115e08201527f5445754d6142644e734a45793145544156454b54692f5444524d4770384347456116008201527f6533486f5459635459356737346e49715058346e6363535949417639654c416a6116208201527f614378736f7766687769424953717a6851466b4a717158654d6b677a674333396116408201527f333034794933356d48426571754767426330667a5a6739596641497a587861456116608201527f6e2f5652656476586c634137736a48477958344f786e6a3949364232516c364b6116808201527f414c546851514150573442437768696a63417a684749736942655847536a66456116a08201527f6a6d745267702b704b76616858573072536d2f516e41386c514d6f584d5732616116c08201527f576477554542736f445654384f5942364a6b6d4a6461464c4e393147516e71526116e08201527f76534d6e76516449586341666f4f324149487461482b61454148783841482b656117008201527f6a496c334a4f2b6e62505736504f77634237414f58486f413851584a757674726117208201527f442f37686d6d5456574f4f6d366d3962615a7276357a6c70696c3558575732796117408201527f64797936365a4a556243454969456a4a71486a7835385463494b554367594e466117608201527f697861466f6143564b6b6978466d693057324f71524454354c6c3639416b52496117808201527f564b6c57703171684a73786174326c6e5a4f546a31364e57504d57434934545a6117a08201527f35594c4f726a6c6e75754e4e4f4f4f4f68327a36355937513972746e7472692f6117c08201527f7575324b476d64353734706146507068756a4c336d6d6d4f65316268593250676117e08201527f3465415445564f51556c507834382b464c4b6b6934454b456968546b765167496118008201527f6476586970596e544c6c69465472697735386851715638716754494e6164576a6118208201527f46326868313647545735514b54506935756777316c4d307755693531324f4f696118408201527f5141784355756b57414553422f494663414a2f2f6766417151484341394149436118608201527f4370323473695067675a5130524c41563271654d6f6157644945647061775a466118808201527f30714a3141304941333839594464774e512b3063785565693954592f415651746118a08201527f5376517354777741614c61487469517a67442b7a4d57515468436d4746767a4c6118c08201527f51576956543341687834416574354932436b7a695755383636744b4b484e6a596118e08201527f65426d33466c624d315a61336b38382f536630765632444c6b636a6f5a6e614d6119008201527f7a6c426c3866703662626e312b7a79763654643079536575677a4e477733564c6119208201527f745a6d694f5370666e4f476a64496d684f2f466b2b517a376c362f2f4d51336d6119408201527f597a38733835497356494c464e4d656b643466416733354e674f3133324c71366119608201527f774c476b42796b39644a765a55584e6c725371384a6d38574c4a6a6b623132336119808201527f48566337376b376155444a494162727639752f386f482b4652596e7866664c686119a08201527f41323041706b73336830586f6376566e494372477055563676323469725378566119c08201527f33472f74755177507343365673424d71754d6a5944457558523732532f5972646119e08201527f6272354e6d6b7758655a374f4e303776654e2b2b46324b2f4c63383235514543611a008201527f7871476e616979596d762b4c542b6465554a4a4f616e4b534d36326a4d707169611a208201527f75727362333079777253476d61794f4f30426d667278534e382f716b44324d45611a408201527f586e694a75593269765141796132303747416b49657265424a4b596674364e69611a608201527f694f4534586251506346774a47415a6c615a6c71476c4441312f2f5448326344611a808201527f524f6a516f675a2f4746797279536f64712b6d734b766d584b6c37304e586542611aa08201527f304d4551673747676e74635268526647434a5867466b763679376e3867586445611ac08201527f5768363337434a6d6779396b5850794e7345757a4c37484e416978715936476a611ae08201527f64626b364d6a73466b444a476b36636a6162734466673068466c6b6276376b39611b008201527f4651634453304f6f5a3251416b37624f646930474b673931527065634b744e30611b208201527f52735874337352694f41636d3341716c51425671517679523254423151566365611b408201527f645851796752587331705351736573757037625439677651514d44434a445772611b608201527f6e79664572734d3141664b397a3245544c55656279746578587831544235774c611b808201527f6464484476362b6c56374b757652775a514f68513056613848796d637065344d611ba08201527f7638554a61476151577856494e394a426d6a6e694e586b4859346d627663372f611bc08201527f77484756337330536c6e6f4e6237664b6263497336343547762b6f6f39647447611be08201527f4f6830366b546542436b2f6a506131464f622b657536707a75324e7838683454611c008201527f6944507374366a34524d3275777864494c30306e7a53536c7a757a7375594863611c208201527f67674d34787849477a303930437a676f62756c4f614f34736e4d4e627a575334611c408201527f35614761675274516941496a35692f51554d5858723570745242463732647031611c608201527f77766473724b3249335547796f6d4839726f335435334e6d7178786e614b7467611c808201527f30686d643335616a74676d5464374630414e51324c77316533716e67724e386d611ca08201527f5559616b795071316b6b5234536e6b684d7037525264432f566d736574334845611cc08201527f417136544f61356258704d61734b357172382b494b5a6e41746f483570413933611ce08201527f6c746e794a796a506b4871472f6c7641437836413536797375506d4b57424b34611d008201527f6e433047357165534a65517868516c6358496c7975744d6638504e38324f634c611d208201527f4446304e616e4932377a7371734454427659364b4a32484831436d5845466570611d408201527f6e4456347155785661676a6b363171304168436978646c4839696a314a6f4669611d608201527f385a357974413937725165644a4c69765061543477696c4e48763970486b3779611d808201527f306a6b363751686532664d726c4b72307a386e62593777366f5a75774b6a4e68611da08201527f466234424f7555486238686e7264766c4247447a697a6f595972486155325866611dc08201527f626f4d68345a7745706c3173557a4d417969672f58614471397546314c516949611de08201527f754f307a6c4d375564514f3061385275752b6831464b6f49415677466737306d611e008201527f77776c78476c6d706d6e616e373278506d364e6f79644f4a367243556c4b372f611e208201527f394170334b39676d6a4557454a4478787345524555336778316744582f6a4639611e408201527f5145633254376f716f77714859765231476d6d55703834584d73643671693465611e608201527f43302b692f312b6d4677453943574961486c626c5638575a4b4e6c7578342f4e611e808201527f424c333535426f574c445a616a5844786c5338386674436d796636466b7a5976611ea08201527f6f717141794635596c5668724a7a35522f72635778504469636d437071497934611ec08201527f35634562394f786868784a54497568314d4b4753753939324e38524d63327435611ee08201527f36643053413359764c66373273575950545846566d4a784a44794f74447a7363611f008201527f77494f375968506c4b494f773263486f38324363785539547747376b79447033611f208201527f4d695743764f6f6d79426b793632347933376b32334d4d6b566f4f374e315a4e611f408201527f6342725a585631507a614b5456697374796d34524d4c7854613033787a474a6f611f608201527f51433653494972547a346e674a5a4762527874726c76526e7445496e7675325a611f808201527f704c4554314a55334a445368716745362b7776326f6676643964435067643050611fa08201527f5331424c47797152496476363831706a4d6978314f4279657a432b7730316667611fc08201527f6a4c4d424a676f2f4f797332374b4d6f79706a6e504b54474b50427656496576611fe08201527f4f43735859363936386c576d31317a584f384a31376e2b584b353172653933706120008201527f76442f3462786b4354315734614869773853594e704e6755542b47786d6e71316120208201527f75392b4969783858707465456346582f36676644475950542f504f64534458616120408201527f58667931637556326c5a6474584a732f46325a74566365457271556f35505a536120608201527f51655855714e37427563324e79616e4852314c6961764f494341437471586f516120808201527f62776a68616430742b326b62767445376e6d57734e6435744839514a613855696120a08201527f63487a38744e3546706735474c454c537351326f5957676b2f7133463774382f6120c08201527f4c54697667376f517764734e57384b474159793166507231697a3957756969736120e08201527f6733477368384a6b35684f4d572b5061765347512b7049302f556272306d70576121008201527f64707248714b4d72705047646948784c666a493178496a4e7457482b435075666121208201527f696a3553475342333932644a714e4436744173577456427463615338542f6f6e6121408201527f4f574b494f496131726a59582b74702f486b6f574b5861536c552b6157564a6e6121608201527f565a6d677866424f756c524a696750497163386b7341766b6669756150646a4f6121808201527f636872584b6e634f77414c565567302b775343622b2f54792f7978685965515a6121a08201527f6d5772324a474c464779337850706733584855365475424f7a59417a324c6f646121c08201527f79534a7637445a55622b682f672f4a6c6751315459463641756f3378566f2b5a6121e08201527f4f31734a65546d6353316261546871547831676f4d6d6d6c52444749534c64376122008201527f554e515a2f724f664a4d313955656f4835734b46386774727251686c4f4461756122208201527f7348473342767630546a3153696b6d66764f4c7854705874396c4c37587530776122408201527f6f596e376d68664758716662486e7156476f32313437627732554778574f777a6122608201527f2f2b71414e677a6b6b6c4345775248494f48663246702f7230364179695478316122808201527f566f474d676f70766d6c384734787877333841734a587050714d4e51523047486122a08201527f77656b77365a75334344626f6b546c755376486b512b5356472f5057344d6f4f6122c08201527f7841786b71522b50593130516e42555777776861494b6c5a72626762624a7a6e6122e08201527f417148583447687946724b453445736b746261766b7a306f723659366850756f6123008201527f2b6f2b346a4747694c6b363961784444796c4f474c6e645172353836704954676123208201527f734456513771506556414c4255326a4548493559677163654157475868537a466123408201527f713130524d416a32784435345859516e746d745246465a7038676d47445552366123608201527f6677624d4156425a2b6863374e38556b746c7770594767544c4b4a2b5439626c6123808201527f5457312f4b345139646348347a645855747152464f49496d66485547796245676123a08201527f5371784c75484c4b445571464f73464d367872423970556a425334665649534b6123c08201527f5864775a495354476b546e4252553838447250416a694274614c4c58466e78456123e08201527f4d6c4e6c45663579443263746b6c6961364a396f4134736a683063435a3470306124008201527f5144315036673557447277473366424334625753583032365362584e316648756124208201527f70547375644c4d496a38594a646873716d44626a43354f374c6d524369346a636124408201527f30617767415035484f5a314f6259564457457a6d45752f4b69786f50624b736d6124608201527f4478704f37574b4478364c624b4168754d63626f354977436b5952385a32782f6124808201527f53393463336f366e2f5230327a776365546a666f63644e416a2f336c5373424b6124a08201527f387a366d43446e45424b37363475397a3750496f2f6a7038477037657534756a6124c08201527f54653642396977327a326c586f564b6449415575514e4c4b5a584550707048306124e08201527f544e6a2f4f4673637a4d5651524f4d2f7a554f4a7a422f4b58325830594341596125008201527f7555353533685733667866516a463578786e6e754c344c7175376676414a4e6f6125208201527f4d57582f4677416d434c386343514c4472636f6c6f6c4d4264756461747669366125408201527f734d617a62733636423576554367655a31697736415636496f5a5978455a31796125608201527f6a4d6b4d2b6d7773464a5762594969476b6b384930534256724d394869756d566125808201527f3762717a71784d4b4e6738535651544e694462615a49386b62493231547a43506125a08201527f6147396e34424b51593277594434657259464f6331492f4853647651577264366125c08201527f70766f486b75394d773759544955656633434f454154684b6266777a4e6a662f6125e08201527f73334d534a61386d4e3449314e6e37764636384a78342f4c79346341494d786c6126008201527f7a392f4378733048725635467a667534453543534a75624b527a693950364c536126208201527f4f684c4239337779546a4a757648383345304e4b3365444142654a5441772f686126408201527f585332716e69356f566a7a6a6b576c336b4f75674b3155353336365a30754e686126608201527f783067327638437234764845346b64694a4b692f52666364454e4c4f375539536126808201527f6b333170756e506d70655a4f444d624e4962325a37752f446375595a7137324d6126a08201527f4e34513273684d7a476d584263713035736f4d4f58374b644e387774426370456126c08201527f576e646a7048454b4f30546f4d454b5a364f724e4a7567726b4c6f3042306e346126e08201527f624c79764c4d4c4f336970713759415354564f3653517961482f7479574d47626127008201527f363577766779573551616e325a47774c52764c682b6657645151486b466731346127208201527f3250586e716e746b7948685254744e746530703833584635566f6369514a696c6127408201527f624444436336656e35386f59374f3551303967624f4c39673355464c4b53646c6127608201527f496f62465a583155736c76774e7a7948446b6d4932466d6d46525056713672696127808201527f7a7237426e6f395378344a6a343755776966386241495a314e7545526531764a6127a08201527f723661674e3858754643334f7063685961662b5a3867636135755677313848346127c08201527f676430384d5970674e74303545615343544242444839576d41714773465843736127e08201527f6870694c76446e572b764a344a754d6a54386b4d73627a464b30485042325a396128008201527f4b6556716c7370444e536b555438344c6b6a656631454f62464974636b6b6a746128208201527f6e696b5a7856416d734c346c3743645051757959472b7346757a5663554c50336128408201527f714874414a78787473627563386d446a52657646754d702f59636351584f65776128608201527f6a4b4a5453362f5777426e4c6b6c594b4345676e4d63512f6e4c32433952716d6128808201527f5836696a424561342b7539473869734b3476614b39613272794e48645a64344a6128a08201527f73376c3752536a39776a49344b39395158345a3275554e7558474d36704b63496128c08201527f333954426334356c61705547614647384b51317a494b62346c6a6751523453536128e08201527f4e7a4f4c64356f2b4b504a7035664673362b686f4c663348676554704575566d6129008201527f515059524c586a6f526232755371457a4837365870754e745933387a5571306a6129208201527f53564273733074583455756f65642f474649494a695a6430776c6978657962526129408201527f6463426f364e4b55716c2f6f494c69304e392b51622f646c664d67632b7a50756129608201527f485a37334b41787845325170336377784e674e386c62683034775845306f4d776129808201527f4d2f616f784843635a487736725435736261505579627259395033316f79304e6129a08201527f534c326f49555533786438647950416475545a63776b774269725948574f6d326129c08201527f35435961766f4b513645536933624a4e4a777076445a5a2b492f6e426b4e452b6129e08201527f6e6c6e6a6575396c5a3671673576414f37745257736b572f782f704d4a4e6b34612a008201527f735636325a70734950517562793730507267433772315975712b3750535a4a53612a208201527f5464535632385a78794573652b32344267686549796b6d4f4338536a32457651612a408201527f6344744b566a62446a567a68382f6542313657542b73346566574b68514c7630612a608201527f68496165616552396676594c55416951526b59326a4233494a666d4e346d3132612a808201527f484730782b617942454a6f676f736d5155437a43436b506d676d59584952474b612aa08201527f70303942637552744f47676179354d3267706367304f4f327264597a42704f76612ac08201527f6e6434712b70643847706a4e42734d4f6833766c4f6d5631766c696953617364612ae08201527f7669665535786b3568696879642b4237582b5165643866526e30587341585062612b008201527f553267327173415276456246776f5337514d5a35562b4f5175545767347a2b55612b208201527f4b6353307a522b4245656c67595154754c776843694d45484167447944754852612b408201527f56723574634439472b794470475170746c694d354456784149596c7941694b75612b608201527f65386b2f66457237394f6a674978364c434b732f455359746a57414d44666169612b808201527f473843515a58654c3443546352343732794e4f37706e3047493667362b626655612ba08201527f6f4b644f7275445669466e7068344c5442623169304f4b6b4f545a69737a6e4a612bc08201527f4e5738477374624239336b4872784d432f2f5355522b436253657158514b3847612be08201527f334230634d7a316e6e445078476e4e766c767369467a373538674e785a585276612c008201527f67454b4c62414d47583367514663446d6c734d6b554c515765565144534d3455612c208201527f4f354c6f714b76696d5543584c414a58612b45543474412b4e42484c48623541612c408201527f5a6370357278446858464f4d684a6d4e596a6d4979772b37334550624d33774d612c608201527f662b6e676a7975555973435357495039346979542b6577514f55774c2b455a4a612c808201527f4a54774b6339714b424a49586c3176456f68394e4d416463614f4f362f466131612ca08201527f346249393555593857494e367778755a7168796d786f766b354e497143473169612cc08201527f4f4f49724244763357634e434d38614d50785877514471357148374d6f724957612ce08201527f4839646f4d74502f2f41676466754470364e474e33444e45356f656e70623258612d008201527f674d4c467468364b47765843336252656a6a72316d454a593945726c76394465612d208201527f614f5356584e2b4c63456b394c4d667955654c777a74684b5362457147585362612d408201527f46573878626d384a5747727a3134614b3068466a4c613772553148796c694277612d608201527f357a786c4753794159316935454849694a4e594652412b774d6a5a576b374946612d808201527f656e4f595a68767849335669694549707230596d67727341566757754d2b626d612da08201527f6f476c664b54384143504d4156535343784a727368464c423479546741737532612dc08201527f4a4f2b4a494d396e71386d416a424437577773616567354559696c2b72623963612de08201527f657a684336713144585176426636423844683478543377784939713441337774612e008201527f306c4e55346644506f5242326343765848345051687170535231654838786965612e208201527f503374517846697547444a43526f574c6d794d694c793774567a617330787969612e408201527f564a4b564b4d3558366d54426e7273794b6933594e7674463072583258434e54612e608201527f5246532f705a364e707161636b334a5a472f50524777304f51664f445a30686e612e808201527f4474376f6e2f6f464e694e7779573259756954782f5a49497a75424243423444612ea08201527f5442493355704267793145546852503457526d772b43457572686b5930703264612ec08201527f4f7879525338674530314441377247775954596c486f4a2b4474656250766649612ee08201527f3770777854616b44304b6f446f68654a4d4e6c4563314c5753386a3745436451612f008201527f79572b6d6c63575163704b426e464e62536279773173787853377873635a2b52612f208201527f526e71354f314b6d5131654639764f43563945442b6a2b422f30655a6d686975612f408201527f676b424c2f5278685a2b52594b5a644f43783351385467446a6658417a596c6d612f608201527f764f70324e35724b6f5474566234637a6871496a6d76375851496479356b4f39612f808201527f617243346f6f374348676d2f4c727049666b67415a71517069486b3771382b43612fa08201527f7868726866566c50632b51493676316673672f576d6e4d53504e67774e5a7547612fc08201527f6d4c67763632676f4c642f397537495450724f6a5a6e6b45345358566d504e69612fe08201527f5969537746786b7958346f2f6a516538736b6f525439595163656774464570556130008201527f6f377063436a58676a374632755663466f5164704d39654e45795955682f43526130208201527f74424a524f6642632b6451514b64456c614d6f794d33596979335168674277466130408201527f4d65686e7a724a4d64364c3879665531466a733162436c715a6a64594c326b446130608201527f4542657552455070616d7334627a45482f6c656c726259474d6d42496274696d6130808201527f75786f464b6d54375474694b756e59574565764e65483142323656345966474b6130a08201527f51307a7974544a2b544e796762335631616e556d6c63704b4c6a715a596451486130c08201527f6a41497742654c3847396b42796e4b51653771464630703459785543337054546130e08201527f4967744d5a737358477864306a634a57473567466359685648365471457154766131008201527f386751365442617669585878526630485334514b76513570694e41426347426b6131208201527f4b37522f5a354842504d4e4444496144412f2f477067506235744b2b703176346131408201527f422f767a4f64674c2b7a6d652b2b662b7853374e745441704d77674143626d416131608201527f6d495338473867314969506e6e426e654549614e3472345066675145713630426131808201527f473636774f7532304a70737553354d5977644671432b567a4c426f65386c57436131a08201527f54306368793547524a614e6c6c7569724c365862485a497a61646577324f31566131c08201527f4d307536436a46485a416e52584b5a6a3470714a56552f424175394d79786d2f6131e08201527f43645269424d6c6432493863726f445a73496d6b585a56576b33637a797073516132008201527f71357046706972344677796e5135797254547a465873706846656c36584661396132208201527f56467141666b474641433461416b656659727544436c476732452f6873712b456132408201527f514d4d5543683072547744633364424c436430374369423251634a514a4573476132608201527f626a624a4d79796e6256502f3269756d424e77794757346f3463666f5a3962466132808201527f7a592f534c31632b7557797958506c5a784b6851776f4e585330644b4a5563336132a08201527f4d616b4333546e316f5a6e3057332b72536936515669304b68336b4d6731655a6132c08201527f504e5657645576584b70626f584232704f3556777562734f6c52316c584358776132e08201527f487032686f52434d6a707451736946417171624b4c67356d52327a6a624149616133008201527f4e617755616b384b356d5445726c42584c3572467874797775647337694234786133208201527f6c354e496a416761672f364946496e37754555674242686673757175363747616133408201527f30787a776851706d452b53366332545533334251685570526f743978327831306133608201527f7874314e3050785a613939786e39644238652b326a3879753965416b534a586e6133808201527f6b4d5a736e6b7156496c655a6e36664b6b4b743042375631706e5877465841726133a08201527f39704968374e542b65775971564b47587746474f496f594562554b5a636855706133c08201527f5668716b323345696a6a4c4465615076562b4532744f725470366a555959357a6133e08201527f78787437453063462b63554a72454d343562375531464a525574346f4574316e6134008201527f304b784f735447517955303735422f36462f30416b303056542b5a48596962416134208201527f526d30796744566a342f4d6e6c42452b6244686d7943416764644941302b4c626134408201527f623459797a4c6a766b73434f4f756851436b357a4769546d544c534832757a2f6134608201527f6747464b415152627174416c58454a357070706870686c6b6d6176644e646f696134808201527f796b4d557352525a354646464746585538346d6d324e35365a4939634c727a306134a08201527f766c64635a444478376250654c736275327568533374467334413731326973716134c08201527f4a564b5a656e613949537958713162667546574f385a6a503458335a756475316134e08201527f6655724c7a6c4f676d626973662b446c6154627939544b34364b716c334975386135008201527f70796d6a4e4c2f536c6b4e6470484743615348324d6c69624a6e6d4c7333615a6135208201527f66453332694e6848686e4d53634841413d2920666f726d6174282661706f733b6135408201527a3bb7b333191330b837b99d94be9e17b9ba3cb6329f1e17b9bb339f60291b61356082015282519382859384528251928382860152825b84811061418857505050828201840152601f01601f19168101030190f35b818101830151888201880152879550820161416a565b634e487b7160e01b83526041600452602483fd5b5080fdfea264697066735822122026f05bb2052c9f60bf3c22911a89125d029de273c2397fa81ab61f168a15bb6e64736f6c63430008110033",
  "devdoc": {
    "kind": "dev",
    "methods": {},
    "version": 1
  },
  "userdoc": {
    "kind": "user",
    "methods": {},
    "version": 1
  },
  "storageLayout": {
    "storage": [],
    "types": null
  }
}