{
  "address": "0xA8419025297971F6b4ECAB6FB82BF00de881a578",
  "abi": [
    {
      "inputs": [],
      "name": "ValueOutOfRange",
      "type": "error"
    },
    {
      "inputs": [
        {
          "internalType": "bytes32",
          "name": "b",
          "type": "bytes32"
        }
      ],
      "name": "_transformBytes32Seed",
      "outputs": [
        {
          "internalType": "string",
          "name": "",
          "type": "string"
        }
      ],
      "stateMutability": "pure",
      "type": "function"
    },
    {
      "inputs": [
        {
          "internalType": "uint256",
          "name": "value",
          "type": "uint256"
        }
      ],
      "name": "_transformUint256",
      "outputs": [
        {
          "internalType": "string",
          "name": "str",
          "type": "string"
        }
      ],
      "stateMutability": "pure",
      "type": "function"
    },
    {
      "inputs": [
        {
          "internalType": "bytes32",
          "name": "seed",
          "type": "bytes32"
        },
        {
          "internalType": "uint256",
          "name": "lifeScore",
          "type": "uint256"
        },
        {
          "internalType": "uint256",
          "name": "round",
          "type": "uint256"
        },
        {
          "internalType": "uint256",
          "name": "age",
          "type": "uint256"
        },
        {
          "internalType": "address",
          "name": "addr",
          "type": "address"
        },
        {
          "internalType": "uint256",
          "name": "reward",
          "type": "uint256"
        }
      ],
      "name": "renderSvg",
      "outputs": [
        {
          "internalType": "string",
          "name": "",
          "type": "string"
        }
      ],
      "stateMutability": "pure",
      "type": "function"
    },
    {
      "inputs": [
        {
          "internalType": "bytes32",
          "name": "seed",
          "type": "bytes32"
        },
        {
          "internalType": "uint256",
          "name": "lifeScore",
          "type": "uint256"
        },
        {
          "internalType": "uint256",
          "name": "round",
          "type": "uint256"
        },
        {
          "internalType": "uint256",
          "name": "age",
          "type": "uint256"
        },
        {
          "internalType": "address",
          "name": "creator",
          "type": "address"
        },
        {
          "internalType": "uint256",
          "name": "reward",
          "type": "uint256"
        },
        {
          "internalType": "uint256",
          "name": "cost",
          "type": "uint256"
        }
      ],
      "name": "renderTrait",
      "outputs": [
        {
          "internalType": "string",
          "name": "",
          "type": "string"
        }
      ],
      "stateMutability": "pure",
      "type": "function"
    }
  ],
  "transactionHash": "0x7c03e34904ab475044eaab383892479ba4fd613ed1679a762000cfbeff15fe64",
  "args": [],
  "numDeployments": 3,
  "solcInputHash": "9f43e61c4cd78caca04dca1819be1636",
  "bytecode": "0x6080806040523461001a576114c39081610020823930815050f35b600080fdfe6040608081526004908136101561001557600080fd5b600091823560e01c80631da2fb17146102f957806323f790ed146102dd5780634a2fc1ed146102c157806365a454a31461027a5763be0862f41461005857600080fd5b816003193601126102765790610268603d6102729461021f6102589535916100fb608061013e602435938481528980602098808a52818420546003838620015490836001936101006100fb86848b2001549487858c200154958b8960018060a01b039c8d9220015416908c60026fffffffffffffffffffffffffffffffff988992200154169261ffff998a9963ffffffff9a8b9160a01c169360b01c16916105f6565b610478565b9b88528d52939095208054600382015493820154600292909201549485169694891c9582169460a083901c9093169360b09290921c90921691610b15565b8851693d913730b6b2911d101160b11b878201526e446567656e20546f6d6273746f6e6560881b602a820152701116113232b9b1b934b83a34b7b7111d1160791b60398201526a11161134b6b0b3b2911d1160a91b604a8201527f646174613a696d6167652f7376672b786d6c3b6261736536342c000000000000605582015284519094859291906101d8908290606f8601908b01610348565b82016f011161130ba3a3934b13aba32b9911d160851b606f820152610206825180938a607f85019101610348565b01607d60f81b607f8201520360608101845201826103c9565b845195827f646174613a6170706c69636174696f6e2f6a736f6e3b6261736536342c000000889485015282519283918686019101610348565b810103601d8101855201836103c9565b519182918261036b565b0390f35b8280fd5b509160e03660031901126102be57506102b36102729261029861032d565b9060c4359160a4359160643590604435906024359035610b15565b90519182918261036b565b80fd5b509160203660031901126102be57506102b36102729235611177565b509160203660031901126102be57506102b361027292356112f2565b509160c03660031901126102be57506102b36102729261031761032d565b60a43591606435906044359060243590356105f6565b608435906001600160a01b038216820361034357565b600080fd5b60005b83811061035b5750506000910152565b818101518382015260200161034b565b6040916020825261038b8151809281602086015260208686019101610348565b601f01601f1916010190565b6040810190811067ffffffffffffffff8211176103b357604052565b634e487b7160e01b600052604160045260246000fd5b90601f8019910116810190811067ffffffffffffffff8211176103b357604052565b6060519060005b8281106104025750016000815290565b6080810151828201526020016103f2565b9061042660209282815194859201610348565b0190565b67ffffffffffffffff81116103b357601f01601f191660200190565b906104508261042a565b61045d60405191826103c9565b828152809261046e601f199161042a565b0190602036910137565b8051156105d1576040516060810181811067ffffffffffffffff8211176103b357604052604081527f4142434445464748494a4b4c4d4e4f505152535455565758595a61626364656660208201527f6768696a6b6c6d6e6f707172737475767778797a303132333435363738392b2f604082015281516002928382018092116105bb576003918290046001600160fe1b03811681036105bb5761051e908594951b610446565b936020850193829183518401925b83811061056a57505050505106806001146105575760021461054c575090565b603d90600019015390565b50603d9081600019820153600119015390565b85600491979293949701918251600190603f9082828260121c16880101518453828282600c1c16880101518385015382828260061c168801015188850153168501015187820153019592919061052c565b634e487b7160e01b600052601160045260246000fd5b506040516020810181811067ffffffffffffffff8211176103b3576040526000815290565b604051630ef10dbb60e11b815294969594919392919060008260048173690FD309DdB62e707CdBfa4D9F905C9425928E3c5af49182156109c357600092610af4575b50610642906112f2565b604051631819957560e11b8152909460008260048173690FD309DdB62e707CdBfa4D9F905C9425928E3c5af49182156109c357600092610ad3575b5061068790611177565b60405163a85e9c8360e01b81529360008560048173690FD309DdB62e707CdBfa4D9F905C9425928E3c5af49485156109c357600095610ab2575b506106cb90610dfe565b60405163ccf8541960e01b81529460008660048173690FD309DdB62e707CdBfa4D9F905C9425928E3c5af49283156109c3576107c197602097600095610a91575b5061071690610dfe565b94604051998761072f8c995180928c808d019101610348565b8801610743825180938c8085019101610348565b01610756825180938b8085019101610348565b01610769825180938a8085019101610348565b0161077c82518093898085019101610348565b0161078f82518093888085019101610348565b016107a282518093878085019101610348565b016107b582518093868085019101610348565b010380845201826103c9565b604051636e2a56d560e01b81529360008560048173690FD309DdB62e707CdBfa4D9F905C9425928E3c5af49485156109c357600095610a70575b5061080e906001600160a01b0316611077565b906040519461081c86610397565b6006928387526020870193602036863760005b818110610a3c57505060405161084481610397565b600481526020810191602036843760265b602a81106109fa57505061089f96976108ae92602392604051998a93610884602086019a8b9251928391610348565b8401916271405360e91b602084015251809386840190610348565b010360038101885201866103c9565b6040516318382d3360e31b81529360008560048173690FD309DdB62e707CdBfa4D9F905C9425928E3c5af49485156109c3576000956109cf575b50670de0b6b3a76400006108fc9104611177565b926040519462028a9960e31b865260008660048173690FD309DdB62e707CdBfa4D9F905C9425928E3c5af49586156109c3576107b59761099b9760209761097494899460009361099e575b5060405196879461077c876109658189019c8d815193849201610348565b87019151809389840190610348565b604051958361098c8895518092888089019101610348565b84019151809386840190610348565b90565b6109bc9193503d806000833e6109b481836103c9565b810190611118565b9138610947565b6040513d6000823e3d90fd5b6108fc9195506109f2670de0b6b3a7640000913d806000833e6109b481836103c9565b9591506108e8565b6001600160f81b0319610a0d8284610f41565b51602519830191168282116105bb57610a2a9060001a9185610f41565b5360001981146105bb57600101610855565b6001600160f81b0319610a4f8285610f41565b511660001a610a5e828b610f41565b5360001981146105bb5760010161082f565b61080e919550610a8a903d806000833e6109b481836103c9565b94906107fb565b610716919550610aab903d806000833e6109b481836103c9565b949061070c565b6106cb919550610acc903d806000833e6109b481836103c9565b94906106c1565b610687919250610aed903d806000833e6109b481836103c9565b919061067d565b610642919250610b0e903d806000833e6109b481836103c9565b9190610638565b610b259096929593949196610f68565b95610b2f90610dfe565b94610b3990610dfe565b93610b4390610dfe565b93604051948591602097888401997f5b7b2274726169745f74797065223a202253656564222c202276616c7565223a8b5261101160f11b6040860152805190818b60428801920191610b9492610348565b7f227d2c7b2274726169745f74797065223a20224c6966652053636f7265222c20604291860191820152680113b30b63ab2911d160bd1b6062820152815191610be5908390606b8401908d01610348565b01606b81017f7d2c7b2274726169745f74797065223a2022526f756e64222c202276616c75659052620111d160ed1b608b820152815191828a608e8401920191610c2e92610348565b01608e81017f7d2c7b2274726169745f74797065223a2022416765222c202276616c7565223a905260ae8101600160fd1b9052815191828960af8401920191610c7692610348565b0103608f8101855260af01610c8b90856103c9565b610c9d906001600160a01b0316611077565b91670de0b6b3a7640000809104610cb390610dfe565b9104610cbe90610dfe565b90604051918291868301947f7d2c7b2274726169745f74797065223a202243726561746f72222c202276616c8652653ab2911d101160d11b6040850152805190818960468701920191610d1092610348565b7f227d2c7b2274726169745f74797065223a2022526577617264222c202276616c6046918501918201526403ab2911d160dd1b6066820152815191610d5d908390606b8401908b01610348565b01606b81017f7d2c7b2274726169745f74797065223a2022436f7374222c202276616c7565229052608b81016101d160f51b90528151918288608d8401920191610da692610348565b01608d8101617d5d60f01b905203606f81018252608f01610dc790826103c9565b604051948593519081868601610ddc92610348565b830190519182858301610dee92610348565b01038083520161099b90826103c9565b806000917a184f03e93ff9f4daa797ed6e38ed64bf6a1f01000000000000000080821015610f33575b506d04ee2d6d415b85acef810000000080831015610f24575b50662386f26fc1000080831015610f15575b506305f5e10080831015610f06575b5061271080831015610ef7575b506064821015610ee7575b600a80921015610edd575b600190816021610e95828701610446565b95860101905b610ea7575b5050505090565b600019019083906f181899199a1a9b1b9c1cb0b131b232b360811b8282061a835304918215610ed857919082610e9b565b610ea0565b9160010191610e84565b9190606460029104910191610e79565b60049193920491019138610e6e565b60089193920491019138610e61565b60109193920491019138610e52565b60209193920491019138610e40565b604093508104915038610e27565b908151811015610f52570160200190565b634e487b7160e01b600052603260045260246000fd5b604051906080820182811067ffffffffffffffff8211176103b35760405260428252602082016060368237825115610f5257603090538151600190811015610f5257607860218401536041905b808211611009575050610fc55790565b606460405162461bcd60e51b815260206004820152602060248201527f537472696e67733a20686578206c656e67746820696e73756666696369656e746044820152fd5b9091600f81166010811015611062576f181899199a1a9b1b9c1cb0b131b232b360811b901a6110388486610f41565b5360041c91801561104d576000190190610fb5565b60246000634e487b7160e01b81526011600452fd5b60246000634e487b7160e01b81526032600452fd5b604051906060820182811067ffffffffffffffff8211176103b357604052602a8252602082016040368237825115610f5257603090538151600190811015610f5257607860218401536029905b8082116110d4575050610fc55790565b9091600f81166010811015611062576f181899199a1a9b1b9c1cb0b131b232b360811b901a6111038486610f41565b5360041c91801561104d5760001901906110c4565b6020818303126103435780519067ffffffffffffffff8211610343570181601f8201121561034357805161114b8161042a565b9261115960405194856103c9565b818452602082840101116103435761099b9160208085019101610348565b6298968081101561118b5761099b90611244565b64174876e8008110156111dd57620f42406111a69104611244565b61099b6021604051836111c3829551809260208086019101610348565b8101604d60f81b60208201520360018101845201826103c9565b66038d7ea4c6800081101561123257633b9aca006111fb9104611244565b61099b602160405183611218829551809260208086019101610348565b8101602160f91b60208201520360018101845201826103c9565b604051634eb4f9fb60e01b8152600490fd5b60606103e88083048061128b57505061099b9061127d61126661127794610dfe565b916040519485936020850190610413565b90610413565b03601f1981018352826103c9565b611296919250611244565b6112a861099b926112ad929406610dfe565b61140c565b9161127d602160405194836112cc879551809260208089019101610348565b8401600b60fa1b60208201526112eb8251809360208685019101610348565b01016103eb565b6112fb90610f68565b6040519061130882610397565b600e808352602090818401908236833760005b8181106113d85750506040519061133182610397565b601582528282019383368637602d5b604281106113965750509260239261138761136c969361099b9660405198899651809286890190610348565b6271405360e91b908601938401525192839086840190610348565b010360038101845201826103c9565b6001600160f81b03196113a98284610f41565b51602c19830191168282116105bb576113c69060001a9186610f41565b5360001981146105bb57600101611340565b6001600160f81b03196113eb8287610f41565b511660001a6113fa8288610f41565b5360001981146105bb5760010161131b565b80516001810361144f575061099b6022604051809361030360f41b602083015261143f8151809260208686019101610348565b81010360028101845201826103c9565b60020361099b5761099b60216040518093600360fc1b602083015261147d8151809260208686019101610348565b81010360018101845201826103c956fea2646970667358221220741c6b14b52515730a94b9079a46e32e77af8ac09dbf11621feeaf894cb721ad64736f6c63430008110033",
  "deployedBytecode": "0x6040608081526004908136101561001557600080fd5b600091823560e01c80631da2fb17146102f957806323f790ed146102dd5780634a2fc1ed146102c157806365a454a31461027a5763be0862f41461005857600080fd5b816003193601126102765790610268603d6102729461021f6102589535916100fb608061013e602435938481528980602098808a52818420546003838620015490836001936101006100fb86848b2001549487858c200154958b8960018060a01b039c8d9220015416908c60026fffffffffffffffffffffffffffffffff988992200154169261ffff998a9963ffffffff9a8b9160a01c169360b01c16916105f6565b610478565b9b88528d52939095208054600382015493820154600292909201549485169694891c9582169460a083901c9093169360b09290921c90921691610b15565b8851693d913730b6b2911d101160b11b878201526e446567656e20546f6d6273746f6e6560881b602a820152701116113232b9b1b934b83a34b7b7111d1160791b60398201526a11161134b6b0b3b2911d1160a91b604a8201527f646174613a696d6167652f7376672b786d6c3b6261736536342c000000000000605582015284519094859291906101d8908290606f8601908b01610348565b82016f011161130ba3a3934b13aba32b9911d160851b606f820152610206825180938a607f85019101610348565b01607d60f81b607f8201520360608101845201826103c9565b845195827f646174613a6170706c69636174696f6e2f6a736f6e3b6261736536342c000000889485015282519283918686019101610348565b810103601d8101855201836103c9565b519182918261036b565b0390f35b8280fd5b509160e03660031901126102be57506102b36102729261029861032d565b9060c4359160a4359160643590604435906024359035610b15565b90519182918261036b565b80fd5b509160203660031901126102be57506102b36102729235611177565b509160203660031901126102be57506102b361027292356112f2565b509160c03660031901126102be57506102b36102729261031761032d565b60a43591606435906044359060243590356105f6565b608435906001600160a01b038216820361034357565b600080fd5b60005b83811061035b5750506000910152565b818101518382015260200161034b565b6040916020825261038b8151809281602086015260208686019101610348565b601f01601f1916010190565b6040810190811067ffffffffffffffff8211176103b357604052565b634e487b7160e01b600052604160045260246000fd5b90601f8019910116810190811067ffffffffffffffff8211176103b357604052565b6060519060005b8281106104025750016000815290565b6080810151828201526020016103f2565b9061042660209282815194859201610348565b0190565b67ffffffffffffffff81116103b357601f01601f191660200190565b906104508261042a565b61045d60405191826103c9565b828152809261046e601f199161042a565b0190602036910137565b8051156105d1576040516060810181811067ffffffffffffffff8211176103b357604052604081527f4142434445464748494a4b4c4d4e4f505152535455565758595a61626364656660208201527f6768696a6b6c6d6e6f707172737475767778797a303132333435363738392b2f604082015281516002928382018092116105bb576003918290046001600160fe1b03811681036105bb5761051e908594951b610446565b936020850193829183518401925b83811061056a57505050505106806001146105575760021461054c575090565b603d90600019015390565b50603d9081600019820153600119015390565b85600491979293949701918251600190603f9082828260121c16880101518453828282600c1c16880101518385015382828260061c168801015188850153168501015187820153019592919061052c565b634e487b7160e01b600052601160045260246000fd5b506040516020810181811067ffffffffffffffff8211176103b3576040526000815290565b604051630ef10dbb60e11b815294969594919392919060008260048173__$6e06dd050095c7919be040ed2350b8ae73$__5af49182156109c357600092610af4575b50610642906112f2565b604051631819957560e11b8152909460008260048173__$6e06dd050095c7919be040ed2350b8ae73$__5af49182156109c357600092610ad3575b5061068790611177565b60405163a85e9c8360e01b81529360008560048173__$6e06dd050095c7919be040ed2350b8ae73$__5af49485156109c357600095610ab2575b506106cb90610dfe565b60405163ccf8541960e01b81529460008660048173__$6e06dd050095c7919be040ed2350b8ae73$__5af49283156109c3576107c197602097600095610a91575b5061071690610dfe565b94604051998761072f8c995180928c808d019101610348565b8801610743825180938c8085019101610348565b01610756825180938b8085019101610348565b01610769825180938a8085019101610348565b0161077c82518093898085019101610348565b0161078f82518093888085019101610348565b016107a282518093878085019101610348565b016107b582518093868085019101610348565b010380845201826103c9565b604051636e2a56d560e01b81529360008560048173__$6e06dd050095c7919be040ed2350b8ae73$__5af49485156109c357600095610a70575b5061080e906001600160a01b0316611077565b906040519461081c86610397565b6006928387526020870193602036863760005b818110610a3c57505060405161084481610397565b600481526020810191602036843760265b602a81106109fa57505061089f96976108ae92602392604051998a93610884602086019a8b9251928391610348565b8401916271405360e91b602084015251809386840190610348565b010360038101885201866103c9565b6040516318382d3360e31b81529360008560048173__$6e06dd050095c7919be040ed2350b8ae73$__5af49485156109c3576000956109cf575b50670de0b6b3a76400006108fc9104611177565b926040519462028a9960e31b865260008660048173__$6e06dd050095c7919be040ed2350b8ae73$__5af49586156109c3576107b59761099b9760209761097494899460009361099e575b5060405196879461077c876109658189019c8d815193849201610348565b87019151809389840190610348565b604051958361098c8895518092888089019101610348565b84019151809386840190610348565b90565b6109bc9193503d806000833e6109b481836103c9565b810190611118565b9138610947565b6040513d6000823e3d90fd5b6108fc9195506109f2670de0b6b3a7640000913d806000833e6109b481836103c9565b9591506108e8565b6001600160f81b0319610a0d8284610f41565b51602519830191168282116105bb57610a2a9060001a9185610f41565b5360001981146105bb57600101610855565b6001600160f81b0319610a4f8285610f41565b511660001a610a5e828b610f41565b5360001981146105bb5760010161082f565b61080e919550610a8a903d806000833e6109b481836103c9565b94906107fb565b610716919550610aab903d806000833e6109b481836103c9565b949061070c565b6106cb919550610acc903d806000833e6109b481836103c9565b94906106c1565b610687919250610aed903d806000833e6109b481836103c9565b919061067d565b610642919250610b0e903d806000833e6109b481836103c9565b9190610638565b610b259096929593949196610f68565b95610b2f90610dfe565b94610b3990610dfe565b93610b4390610dfe565b93604051948591602097888401997f5b7b2274726169745f74797065223a202253656564222c202276616c7565223a8b5261101160f11b6040860152805190818b60428801920191610b9492610348565b7f227d2c7b2274726169745f74797065223a20224c6966652053636f7265222c20604291860191820152680113b30b63ab2911d160bd1b6062820152815191610be5908390606b8401908d01610348565b01606b81017f7d2c7b2274726169745f74797065223a2022526f756e64222c202276616c75659052620111d160ed1b608b820152815191828a608e8401920191610c2e92610348565b01608e81017f7d2c7b2274726169745f74797065223a2022416765222c202276616c7565223a905260ae8101600160fd1b9052815191828960af8401920191610c7692610348565b0103608f8101855260af01610c8b90856103c9565b610c9d906001600160a01b0316611077565b91670de0b6b3a7640000809104610cb390610dfe565b9104610cbe90610dfe565b90604051918291868301947f7d2c7b2274726169745f74797065223a202243726561746f72222c202276616c8652653ab2911d101160d11b6040850152805190818960468701920191610d1092610348565b7f227d2c7b2274726169745f74797065223a2022526577617264222c202276616c6046918501918201526403ab2911d160dd1b6066820152815191610d5d908390606b8401908b01610348565b01606b81017f7d2c7b2274726169745f74797065223a2022436f7374222c202276616c7565229052608b81016101d160f51b90528151918288608d8401920191610da692610348565b01608d8101617d5d60f01b905203606f81018252608f01610dc790826103c9565b604051948593519081868601610ddc92610348565b830190519182858301610dee92610348565b01038083520161099b90826103c9565b806000917a184f03e93ff9f4daa797ed6e38ed64bf6a1f01000000000000000080821015610f33575b506d04ee2d6d415b85acef810000000080831015610f24575b50662386f26fc1000080831015610f15575b506305f5e10080831015610f06575b5061271080831015610ef7575b506064821015610ee7575b600a80921015610edd575b600190816021610e95828701610446565b95860101905b610ea7575b5050505090565b600019019083906f181899199a1a9b1b9c1cb0b131b232b360811b8282061a835304918215610ed857919082610e9b565b610ea0565b9160010191610e84565b9190606460029104910191610e79565b60049193920491019138610e6e565b60089193920491019138610e61565b60109193920491019138610e52565b60209193920491019138610e40565b604093508104915038610e27565b908151811015610f52570160200190565b634e487b7160e01b600052603260045260246000fd5b604051906080820182811067ffffffffffffffff8211176103b35760405260428252602082016060368237825115610f5257603090538151600190811015610f5257607860218401536041905b808211611009575050610fc55790565b606460405162461bcd60e51b815260206004820152602060248201527f537472696e67733a20686578206c656e67746820696e73756666696369656e746044820152fd5b9091600f81166010811015611062576f181899199a1a9b1b9c1cb0b131b232b360811b901a6110388486610f41565b5360041c91801561104d576000190190610fb5565b60246000634e487b7160e01b81526011600452fd5b60246000634e487b7160e01b81526032600452fd5b604051906060820182811067ffffffffffffffff8211176103b357604052602a8252602082016040368237825115610f5257603090538151600190811015610f5257607860218401536029905b8082116110d4575050610fc55790565b9091600f81166010811015611062576f181899199a1a9b1b9c1cb0b131b232b360811b901a6111038486610f41565b5360041c91801561104d5760001901906110c4565b6020818303126103435780519067ffffffffffffffff8211610343570181601f8201121561034357805161114b8161042a565b9261115960405194856103c9565b818452602082840101116103435761099b9160208085019101610348565b6298968081101561118b5761099b90611244565b64174876e8008110156111dd57620f42406111a69104611244565b61099b6021604051836111c3829551809260208086019101610348565b8101604d60f81b60208201520360018101845201826103c9565b66038d7ea4c6800081101561123257633b9aca006111fb9104611244565b61099b602160405183611218829551809260208086019101610348565b8101602160f91b60208201520360018101845201826103c9565b604051634eb4f9fb60e01b8152600490fd5b60606103e88083048061128b57505061099b9061127d61126661127794610dfe565b916040519485936020850190610413565b90610413565b03601f1981018352826103c9565b611296919250611244565b6112a861099b926112ad929406610dfe565b61140c565b9161127d602160405194836112cc879551809260208089019101610348565b8401600b60fa1b60208201526112eb8251809360208685019101610348565b01016103eb565b6112fb90610f68565b6040519061130882610397565b600e808352602090818401908236833760005b8181106113d85750506040519061133182610397565b601582528282019383368637602d5b604281106113965750509260239261138761136c969361099b9660405198899651809286890190610348565b6271405360e91b908601938401525192839086840190610348565b010360038101845201826103c9565b6001600160f81b03196113a98284610f41565b51602c19830191168282116105bb576113c69060001a9186610f41565b5360001981146105bb57600101611340565b6001600160f81b03196113eb8287610f41565b511660001a6113fa8288610f41565b5360001981146105bb5760010161131b565b80516001810361144f575061099b6022604051809361030360f41b602083015261143f8151809260208686019101610348565b81010360028101845201826103c9565b60020361099b5761099b60216040518093600360fc1b602083015261147d8151809260208686019101610348565b81010360018101845201826103c956fea2646970667358221220741c6b14b52515730a94b9079a46e32e77af8ac09dbf11621feeaf894cb721ad64736f6c63430008110033",
  "libraries": {
    "RenderConstant": "0x690FD309DdB62e707CdBfa4D9F905C9425928E3c"
  },
  "devdoc": {
    "kind": "dev",
    "methods": {},
    "version": 1
  },
  "userdoc": {
    "kind": "user",
    "methods": {},
    "version": 1
  },
  "storageLayout": {
    "storage": [],
    "types": null
  }
}