{
  "address": "0x1Cd4a056477222f0fB4D7727F059191613E44f7E",
  "abi": [
    {
      "inputs": [],
      "name": "P1",
      "outputs": [
        {
          "internalType": "string",
          "name": "",
          "type": "string"
        }
      ],
      "stateMutability": "pure",
      "type": "function"
    },
    {
      "inputs": [],
      "name": "P2",
      "outputs": [
        {
          "internalType": "string",
          "name": "",
          "type": "string"
        }
      ],
      "stateMutability": "pure",
      "type": "function"
    },
    {
      "inputs": [],
      "name": "P3",
      "outputs": [
        {
          "internalType": "string",
          "name": "",
          "type": "string"
        }
      ],
      "stateMutability": "pure",
      "type": "function"
    },
    {
      "inputs": [],
      "name": "P4",
      "outputs": [
        {
          "internalType": "string",
          "name": "",
          "type": "string"
        }
      ],
      "stateMutability": "pure",
      "type": "function"
    },
    {
      "inputs": [],
      "name": "P5",
      "outputs": [
        {
          "internalType": "string",
          "name": "",
          "type": "string"
        }
      ],
      "stateMutability": "pure",
      "type": "function"
    },
    {
      "inputs": [],
      "name": "P6",
      "outputs": [
        {
          "internalType": "string",
          "name": "",
          "type": "string"
        }
      ],
      "stateMutability": "pure",
      "type": "function"
    },
    {
      "inputs": [],
      "name": "P7",
      "outputs": [
        {
          "internalType": "string",
          "name": "",
          "type": "string"
        }
      ],
      "stateMutability": "pure",
      "type": "function"
    }
  ],
  "transactionHash": "0x03fbe37cdf4eb9b99d2c4ade624370ba1ac1ad9f9cb167ed584fa05a4bc8ac93",
  "args": [],
  "numDeployments": 3,
  "solcInputHash": "7855ed7b9de0a4dcd67692c6a4c4938e",
  "bytecode": "0x6080806040523461001b57615bbb908162000021823930815050f35b600080fdfe60806040908082526004918236101561001757600080fd5b600091823560e01c9081621454c81461147a575080631de21b761461067457806330332aea146104ec5780636e2a56d514610400578063a85e9c831461032c578063c1c169981461015f5763ccf854191461007157600080fd5b8160031936011261015b5780519160a083019083821067ffffffffffffffff831117610148575061014493508152608082527f3c2f746578743e3c746578742064783d22393535222064793d2234323522206460208301527f6f6d696e616e742d626173656c696e653d2263656e7472616c2220666f6e742d818301527f66616d696c793d2256543332332220666f6e742d7765696768743d223430302260608301527f20666f6e742d73697a653d223738222066696c6c3d2223464646223e4167653a60808301525191829182615b3c565b0390f35b634e487b7160e01b815260418552602490fd5b5080fd5b508160031936011261015b5780519161018083019083821067ffffffffffffffff8311176101485750815261014682527f3c2f746578743e3c746578742064783d22393735222064793d2231313622206460208301527f6f6d696e616e742d626173656c696e653d2263656e7472616c2220746578742d828201527f616e63686f723d226d6964646c6522207374796c653d226865696768743a313060608301527f3070782220666f6e742d66616d696c793d22426c61636b204f7073204f6e652260808301527f20666f6e742d73697a653d223536222066696c6c3d2223464638413031223e4460a08301527f6567656e5265626f726e3c2f746578743e3c746578742064783d22313037302260c08301527f2064793d223233302220646f6d696e616e742d626173656c696e653d2263656e60e08301527f7472616c2220746578742d616e63686f723d22656e642220666f6e742d66616d6101008301527f696c793d2256543332332220666f6e742d7765696768743d223430302220666f6101208301527f6e742d73697a653d223936222066696c6c3d2275726c28237072656669785f5f61014083015265381b9a94911f60d11b61016083015251915081906101449082615b3c565b508160031936011261015b5780519160a083019083821067ffffffffffffffff831117610148575061014493508152607f82527f3c2f746578743e3c746578742064783d22363937222064793d2234323522206460208301527f6f6d696e616e742d626173656c696e653d2263656e7472616c2220666f6e742d818301527f66616d696c793d2256543332332220666f6e742d7765696768743d223130302260608301527f20666f6e742d73697a653d223739222066696c6c3d2223464646223e52653a0060808301525191829182615b3c565b508160031936011261015b5780519160c083019083821067ffffffffffffffff83111761014857508152608f82527f3c2f746578743e3c746578742064783d22323030222064793d2234323522206460208301527f6f6d696e616e742d626173656c696e653d2263656e7472616c2220746578742d828201527f616e63686f723d226c6566742220666f6e742d66616d696c793d22565433323360608301527f2220666f6e742d7765696768743d223430302220666f6e742d73697a653d223660808301526e1811103334b6361e9111a32323111f60891b60a083015251915081906101449082615b3c565b508160031936011261015b5780519161016083019083821067ffffffffffffffff8311176101485750815261012782527f3c2f746578743e3c746578742064783d223736222064793d223131362220646f60208301527f6d696e616e742d626173656c696e653d2263656e7472616c2220666f6e742d668282018190527f616d696c793d22426c61636b204f7073204f6e652220746578744c656e67746860608401527f3d223330302220666f6e742d7765696768743d223430302220666f6e742d736960808401527f7a653d223630222066696c6c3d2223464638413031223e4c69666553636f726560a08401527f3c2f746578743e3c746578742064783d223736222064793d223233302220646f60c084015260e08301527f616d696c793d22426c61636b204f7073204f6e652220666f6e742d77656967686101008301527f743d223430302220666f6e742d73697a653d22313230222066696c6c3d22234661012083015266231c209818911f60c91b61014083015251915081906101449082615b3c565b508160031936011261015b57805191610b8083019083821067ffffffffffffffff83111761014857508152610b4f82527f3c7376672077696474683d223132343422206865696768743d2237303422206660208301527f696c6c3d226e6f6e652220786d6c6e733d22687474703a2f2f7777772e77332e828201527f6f72672f323030302f7376672220786d6c6e733a786c696e6b3d22687474703a60608301527f2f2f7777772e77332e6f72672f313939392f786c696e6b223e3c70617468206460808301527f3d224d322e35203730312e355639352e3035314c39372e303220322e3548313260a08301527f34312e357636393948322e357a222066696c6c3d2275726c282370726566697860c08301527f5f5f70302922207374726f6b653d2275726c28237072656669785f5f7031292260e08301527f207374726f6b652d77696474683d2235222f3e3c7061746820643d224d3132346101008301527f302031304838362e313176322e33343648313234305631307a4d37362e3732376101208301527f2031392e333834483132343076322e3334364837362e373237762d322e3334366101408301527f7a4d34203136392e353239683132333676322e3334364834762d322e3334367a6101608301527f4d313234302035362e39324833392e313976322e33343648313234305635362e6101808301527f39327a4d34203230372e303636683132333676322e3334364834762d322e33346101a08301527f367a4d313234302039342e343537483476322e3334366831323336762d322e336101c08301527f34367a4d34203332392e303539683132333676322e3334364834762d322e33346101e08301527f367a4d31323430203234342e363032483476322e3334366831323336762d322e6102008301527f3334367a4d34203133312e393933683132333676322e3334364834762d322e336102208301527f34367a4d31323430203238322e313338483476322e3334366831323336762d326102408301527f2e3334367a4d35372e3935392033382e313532483132343076322e33343648356102608301527f372e393539762d322e3334367a4d31323430203138382e323938483476322e336102808301527f34366831323336762d322e3334367a4d32302e3432322037352e3638394831326102a08301527f343076322e3334364832302e343232762d322e3334367a4d31323430203331306102c08301527f2e323931483476322e3334366831323336762d322e3334367a4d34203232352e6102e08301527f383334683132333676322e3334364834762d322e3334367a4d313234302031316103008301527f332e323235483476322e3334366831323336762d322e3334367a4d34203236336103208301527f2e3337683132333676322e3334364834762d322e3334367a4d313234302031356103408301527f302e373631483476322e3334366831323336762d322e3334367a4d34203330306103608301527f2e393037683132333676322e3334364834762d322e3334367a4d34203136302e6103808301527f313435683132333676322e3334364834762d322e3334367a4d313234302034376103a08301527f2e3533364834382e35373476322e3334364831323430762d322e3334367a4d346103c08301527f203139372e363832683132333676322e3334364834762d322e3334367a4d31326103e08301527f34302038352e3037334831312e30333876322e3334364831323430762d322e336104008301527f34367a4d34203331392e363735683132333676322e3334364834762d322e33346104208301527f367a4d31323430203233352e323138483476322e3334366831323336762d322e6104408301527f3334367a4d34203132322e363039683132333676322e3334364834762d322e336104608301527f34367a4d31323430203237322e373534483476322e3334366831323336762d326104808301527f2e3334367a4d36372e3334332032382e373638483132343076322e33343648366104a08301527f372e333433762d322e3334367a4d31323430203137382e393133483476322e336104c08301527f34376831323336762d322e3334377a4d32392e3830362036362e3330354831326104e08301527f343076322e3334354832392e383036762d322e3334367a4d31323430203231366105008301527f2e3435483476322e3334366831323336762d322e3334367a4d34203130332e386105208301527f3431683132333676322e3334364834762d322e3334367a4d31323430203333386105408301527f2e343433483476322e3334366831323336762d322e3334367a4d34203235332e6105608301527f393836683132333676322e3334364834762d322e3334367a4d313234302031346105808301527f312e333737483476322e3334366831323336762d322e3334367a4d34203239316105a08301527f2e353232683132333676322e3334364834762d322e3334367a4d34203334372e6105c08301527f383237683132333676322e3334364834762d322e3334367a4d313234302033356105e08301527f372e323131483476322e3334366831323336762d322e3334367a4d31323430206106008301527f3530372e333536483476322e3334366831323336762d322e3334367a4d3420336106208301527f39342e373437683132333676322e3334364834762d322e3334367a4d313234306106408301527f203534342e383933483476322e3334366831323336762d322e3334367a4d34206106608301527f3433322e323834683132333676322e3334364834762d322e3334367a4d3132346106808301527f30203636362e383836483476322e3334366831323336762d322e3334367a4d346106a08301527f203538322e343239683132333676322e3334364834762d322e3334367a4d31326106c08301527f3430203436392e3832483476322e3334366831323336762d322e3334367a4d346106e08301527f203631392e393635683132333676322e3334364834762d322e3334367a4d31326107008301527f3430203337352e393739483476322e3334366831323336762d322e3334367a4d6107208301527f34203532362e313235683132333676322e3334364834762d322e3334367a4d316107408301527f323430203431332e353136483476322e3334366831323336762d322e3334367a6107608301527f4d34203634382e313138683132333676322e3334364834762d322e3334367a4d6107808301527f31323430203536332e363631483476322e3334366831323336762d322e3334366107a08301527f7a4d34203435312e303532683132333676322e3334364834762d322e3334367a6107c08301527f4d31323430203630312e313937483476322e3334366831323336762d322e33346107e08301527f367a4d34203438382e353838683132333676322e3334364834762d322e3334366108008301527f7a4d31323430203633382e373334483476322e3334366831323336762d322e336108208301527f34367a4d31323430203439372e393732483476322e3334366831323336762d326108408301527f2e3334367a4d34203338352e333633683132333676322e3334364834762d322e6108608301527f3334367a4d31323430203533352e353039483476322e3334366831323336762d6108808301527f322e3334367a4d34203432322e39683132333676322e3334364834563432322e6108a08301527f397a4d31323430203635372e353032483476322e3334366831323336762d322e6108c08301527f3334367a4d34203537332e303435683132333676322e3334364834762d322e336108e08301527f34367a4d31323430203436302e343336483476322e3334366831323336762d326109008301527f2e3334367a4d34203631302e353831683132333676322e3334364834762d322e6109208301527f3334367a4d31323430203336362e353935483476322e3334366831323336762d6109408301527f322e3334367a4d34203531362e3734683132333676322e3334364834762d322e6109608301527f3334367a4d31323430203430342e313331483476322e3334376831323336762d6109808301527f322e3334377a4d34203535342e323737683132333676322e3334364834762d326109a08301527f2e3334367a4d31323430203434312e363638483476322e3334366831323336766109c08301527f2d322e3334367a4d34203637362e3237683132333676322e3334364834762d326109e08301527f2e3334367a4d31323430203638352e3635344834563638386831323336762d32610a008301527f2e3334367a4d34203539312e383133683132333676322e3334364834762d322e610a208301527f3334367a4d31323430203437392e323034483476322e3334366831323336762d610a408301527f322e3334367a4d34203632392e333439683132333676322e3334364834762d32610a608301527f2e3334367a222066696c6c3d2275726c28237072656669785f5f703229222f3e610a808301527f3c7061746820643d224d3132343420313256304839364c302039347631384c31610aa08301527f303220313268313134327a222066696c6c3d2223463938373031222f3e3c7465610ac08301527f78742064783d223736222064793d223630352220646f6d696e616e742d626173610ae08301527f656c696e653d2263656e7472616c22207374796c653d226865696768743a3130610b008301527f3070782220666f6e742d66616d696c793d2256543332332220746578744c656e610b208301527f6774683d22313037352220666f6e742d73697a653d223630222066696c6c3d22610b408301526e011a3231c209818911f29b2b2b21d1608d1b610b6083015251915081906101449082615b3c565b92809150600319360112615b3957613a0083019083821067ffffffffffffffff8311176101485750610144935081526139db82527f3c2f746578743e3c7376672076657273696f6e3d22312e31222069643d22707260208301527f656669785f5f4c617965725f312220786d6c6e733d22687474703a2f2f777777818301527f2e77332e6f72672f323030302f7376672220786d6c6e733a786c696e6b3d226860608301527f7474703a2f2f7777772e77332e6f72672f313939392f786c696e6b2220783d2260808301527f3832302220793d22313830222076696577426f783d223020302031383030302060a08301527f31383030302220786d6c3a73706163653d227072657365727665223e3c70617460c08301527f6820643d224d313234382030633638392e3320302031323438203535382e372060e08301527f313234382031323438732d3535382e3720313234382d313234382031323438536101008301527f3020313933372e3320302031323438203535382e372030203132343820307a226101208301527f2066696c6c2d72756c653d226576656e6f64642220636c69702d72756c653d226101408301527f6576656e6f6464222066696c6c3d2223663062393062222f3e3c7061746820646101608301527f3d224d3638352e3920313234386c2e3920333330203238302e342031363576316101808301527f39332e326c2d3434342e352d3236302e37762d3532346c3136332e322039362e6101a08301527f357a6d302d333330763139322e336c2d3136332e332d39362e36563832312e346101c08301527f6c3136332e332d39362e364c383530203832312e34203638352e39203931387a6101e08301527f6d3339382e342d39362e366c3136332e332d39362e36203136342e312039362e6102008301527f362d3136342e312039362e362d3136332e332d39362e367a222066696c6c3d226102208301527f23666666222f3e3c7061746820643d224d3830332e3920313530392e36762d316102408301527f39332e326c3136332e332039362e36763139322e336c2d3136332e332d39352e6102608301527f377a6d3238302e34203330322e366c3136332e332039362e36203136342e312d6102808301527f39362e36763139322e336c2d3136342e312039362e362d3136332e332d39362e6102a08301527f36762d3139322e337a6d3536312e362d3939302e386c3136332e332d39362e366102c08301527f203136342e312039362e36763139322e336c2d3136342e312039362e365639316102e08301527f386c2d3136332e332d39362e367a6d3136332e33203735362e366c2e392d33336103008301527f30203136332e332d39362e36763532346c2d3434342e35203236302e37762d316103208301527f39332e326c3238302e332d3136342e397a222066696c6c3d2223666666222f3e6103408301527f3c706174682066696c6c3d22236666662220643d224d313639322e31203135306103608301527f392e366c2d3136332e332039352e3756313431336c3136332e332d39362e36766103808301527f3139332e327a222f3e3c7061746820643d224d313639322e31203938362e346c6103a08301527f2e39203139332e322d3238312e3220313635763333302e386c2d3136332e33206103c08301527f39352e372d3136332e332d39352e37762d3333302e386c2d3238312e322d31366103e08301527f35563938362e346c3136342d39362e36203237392e35203136352e38203238316104008301527f2e322d3136352e38203136342e312039362e36682d2e377a4d3830332e3920366104208301527f35362e356c3434332e372d3236312e36203434342e35203236312e362d3136336104408301527f2e332039362e362d3238312e322d3136352e382d3238302e34203136352e382d6104608301527f3136332e332d39362e367a222066696c6c3d2223666666222f3e3c2f7376673e6104808301527f3c73766720786d6c6e733d22687474703a2f2f7777772e77332e6f72672f32306104a08301527f30302f7376672220783d2237322220793d22333830223e3c73766720776964746104c08301527f683d2231323022206865696768743d22313230223e3c636c69705061746820696104e08301527f643d227072656669785f5f636c6970436972636c65223e3c636972636c6520636105008301527f783d223438222063793d2234382220723d223438222f3e3c2f636c69705061746105208301527f683e3c636972636c652063783d223438222063793d2234382220723d223438226105408301527f2066696c6c3d2223433831343543222f3e3c6720636c69702d706174683d22756105608301527f726c28237072656669785f5f636c6970436972636c6529223e3c7061746820666105808301527f696c6c3d22234641363030302220643d224d32392e3633332034382e3631376c6105a08301527f2d38362e36312d38332e3035372038332e3035362d38362e3631312038362e366105c08301527f31312038332e3035377a222f3e3c706174682066696c6c3d22234635414630306105e08301527f2220643d224d36332e34203134322e3034386c2d3131392e36373820382e37386106008301527f382d382e3738382d3131392e3637374c35342e36312032322e33377a222f3e3c6106208301527f706174682066696c6c3d22233033353835452220643d224d32312e3930362d316106408301527f2e3638326c392e383333203131392e3539372d3131392e35393620392e3833326106608301527f4c2d39372e363920382e3135317a222f3e3c2f673e3c2f7376673e3c2f7376676106808301527f3e3c646566733e3c6c696e6561724772616469656e742069643d2270726566696106a08301527f785f5f7030222078313d223632322e303434222079313d222d322e33343722206106c08301527f78323d223632322e303434222079323d223637382e33333222206772616469656106e08301527f6e74556e6974733d227573657253706163654f6e557365223e3c73746f7020736107008301527f746f702d636f6c6f723d2223343532463136222f3e3c73746f70206f666673656107208301527f743d2231222073746f702d636f6c6f723d2223314232303233222f3e3c2f6c696107408301527f6e6561724772616469656e743e3c6c696e6561724772616469656e742069643d6107608301527f227072656669785f5f7031222078313d223632322e303434222079313d222d326107808301527f2e333437222078323d223632322e303434222079323d223636382e39343322206107a08301527f6772616469656e74556e6974733d227573657253706163654f6e557365223e3c6107c08301527f73746f702073746f702d636f6c6f723d2223464638413030222f3e3c73746f706107e08301527f206f66667365743d2231222073746f702d636f6c6f723d2223353233393142226108008301527f2f3e3c2f6c696e6561724772616469656e743e3c6c696e6561724772616469656108208301527f6e742069643d227072656669785f5f7032222078313d223632322e31373122206108408301527f79313d222d312e3733222078323d223632322e313731222079323d223334372e6108608301527f38323722206772616469656e74556e6974733d227573657253706163654f6e556108808301527f7365223e3c73746f702073746f702d636f6c6f723d22234637383630322220736108a08301527f746f702d6f7061636974793d222e3335222f3e3c73746f70206f66667365743d6108c08301527f2231222073746f702d636f6c6f723d2223463738363032222073746f702d6f706108e08301527f61636974793d2230222f3e3c2f6c696e6561724772616469656e743e3c6c696e6109008301527f6561724772616469656e742069643d227072656669785f5f703735222078313d6109208301527f22393139222079313d22313830222078323d22393139222079323d22323736226109408301527f206772616469656e74556e6974733d227573657253706163654f6e557365223e6109608301527f3c73746f702073746f702d636f6c6f723d2223464646464441222f3e3c73746f6109808301527f70206f66667365743d222e353033222073746f702d636f6c6f723d22234646456109a08301527f374236222f3e3c73746f70206f66667365743d2231222073746f702d636f6c6f6109c08301527f723d2223413837393435222f3e3c2f6c696e6561724772616469656e743e3c706109e08301527f61747465726e2069643d227072656669785f5f7061747465726e302220706174610a008301527f7465726e436f6e74656e74556e6974733d226f626a656374426f756e64696e67610a208301527f426f78222077696474683d223122206865696768743d2231223e3c7573652078610a408301527f6c696e6b3a687265663d22237072656669785f5f696d616765305f3533395f32610a608301527f38303022207472616e73666f726d3d226d6174726978282e3030323535203020610a808301527f30202e3030323535202d2e363339202d312e373729222f3e3c2f706174746572610aa08301527f6e3e3c2f646566733e3c7374796c653e40666f6e742d666163657b666f6e742d610ac08301527f66616d696c793a2661706f733b426c61636b204f7073204f6e652661706f733b610ae08301527f3b666f6e742d7374796c653a6e6f726d616c3b666f6e742d7765696768743a34610b008301527f30303b7372633a75726c28646174613a6170706c69636174696f6e2f666f6e74610b208301527f3b6261736536342c643039474d674142414141414141653041416f4141414141610b408301527f454277414141646e414145414141414141414141414141414141414141414141610b608301527f4141414141414141426d414168416f4b6a32434b4c7773344141453241695144610b808301527f624151674259637242316762675178526c473153692b7a6e6757314d50626968610ba08301527f44424f69686d43374c5a6f4c6d484c2b772b4c37616c63347462303753623654610bc08301527f4c43764172756456636f6b67534d59434f6579576e514a79556d4b37674f7955610be08301527f32636e5431647075364179686273516c766b752f463547514d7a7866334f6a74610c008301527f74723830774359494a496b674d456a6b55432f2f2b36762f6236335645322b49610c208301527f4e52323856432b426b496e72372f374e43574c4c594f615654715a4563366c45610c408301527f6f716449535a6e2f393338564f4c747570453764384d432f4e64594258474c51610c608301527f62447a67622b344b674b586e4e6648506f537032486762415746426c6879754c610c808301527f66416d456a6b504e4d306a543539382b455031363177486d4151447534757341610ca08301527f67496f414d6c59354341436741624c536c4f50394c51413070743549694a7161610cc08301527f6159386b4d62684373564c546a77355244565a4431464256722f366c716d7035610ce08301527f74614a6153613163496242433050386b67686835586538696e6350335a334663610d008301527f627963335858544253556674744d4e3278545a66326676622b3848373376764f610d208301527f2b3872377a46766978534d3938543732506e727936636c4851447751494e5351610d408301527f414c41494167424d4f46375155435a4b7845344c736b366e684f446e2f34386c610d608301527f49424343676b4d67464141674c42776741676a5759326c6a5357752f36436b41610d808301527f336764794c673844416b796c524a6a4a4d532f62326e686169394e714b4e5677610da08301527f45766369617a525549344349557a6c2f66334532676a386e63707767634a774d610dc08301527f6f495665454b3961594c7a4553597a6a4b43654b484931324f764d4c724f5a59610de08301527f697a58475a496b796d2b495452534c6a4f4958495444494c4a70314659355778610e008301527f6c6c703545635571776a44696a79566956586a4a6a453036584943734d6d6768610e208301527f48796e677a327552664377384b6c6f7a516f4a336c6d64424d73685963637143610e408301527f6845556f6948467963524a4f35514f7848375a4444556f437a6f336c4d6b4345610e608301527f314859696b63686d79434f59646b72536833655332454373677a796e6e436462610e808301527f4e704578784576454568684b53456945694841306b55744e397965535a697454610ea08301527f4d49327765464555544f6e72676f515649684d747774464567546b484f4f5638610ec08301527f4a55716a68594c666a6b47694978494a7964692f514c5a627565537a2f414a6d610ee08301527f783434774e6e316176445a68324a46522f496e4f517177535673774e64645169610f008301527f4a56715767434538456b6c6456566f796379625a777674453034487445624f51610f208301527f644d346651754957572b5838595569424b4a59676f6378756275464d6c4c4135610f408301527f42696c746f49473567675252546c5965357a475a2b6d7679697446437749612b610f608301527f594270494f416e4b6979417941386b574d5a433452354b6a385a704e49505249610f808301527f4751757a59646f2f61397930655a506d4734756179395247367a63315a6b3474610fa08301527f316863315854624d7051585532636a6461436546416179486352656c426b712f610fc08301527f4d6949792b766675436d46417035496e72676d757748634c4f374573426f4d65610fe08301527f527a437047774336366a6431523739757a435a47373334786e754179783377706110008301527f2b514937367a5a38307a4273463650386374667969544c54744a6b58655976536110208301527f306f69754a3658415345717675443164395643477231506b57456757486d702f6110408301527f2f5a4474563357485566347166534d776f4e2b54726378776531572f2f676b2b6110608301527f6962496d6c4e356c6449466e515730474f6257356a5669327962434a365361636110808301527f53562f4c49696c4e72337a71444e76544a4d6d48795065576c414c706b4e52376110a08301527f764b73714b37744939795470627a336648423734504f6f59676c614f587a6d4f6110c08301527f593351514f793465397833584832656432525839466438563851717a555970586110e08301527f754b374743714161554e684777305957322f796466666e43574531476f396d476111008301527f6d6a334573692b4d7872766a4e7a44495a6c333158642b594d677778716e4f706111208301527f4f6a796a4350673662737734394159724c71326e70665149547a66536d5433616111408301527f50476358544b6e58714d37647a463668337556744b39465a54435777642f6e656111608301527f2f36476267586f7536686b377763777256386f753350664d57445a442f5646516111808301527f394b3031597a5559585867764131676e5371574b6e734b4d4c3447765873396f6111a08301527f537a7850616146375a646576594150653477626530396c3374764c5a696550476111c08301527f6632633069464777555270453653346a473758714e4d756d644e576f556237546111e08301527f686534736576794d4f7855646575642b783349706459777038765633544844426112008301527f4c494f6432566549663736797472753542675a4d7978684d6437674b4d2f52466112208301527f47516f6e556e4767492f54677455396e5478675077767a6943452b45666d2b786112408301527f30574f456d6f616a5766506d2f2f373875636b593431466a47574e585934374b6112608301527f446c396e3335444b51316a56673770674d37714e4f414966396e784d3764302f6112808301527f67514941414142414146414a4c53502f72564e584c58395269514941774e4d666112a08301527f75366343414f2f46397955672f36634c703349614149556a754a7669634d336a6112c08301527f304544743332447458722f5667725664596c34654754537a7a4d784267334b506112e08301527f4c634e676d5963473272776c454271755048356b6a382f4f56614f5a307569746113008301527f365761484f534d396e53424b4455684e41306864706a476d4a615432445062306113208301527f70424a72786e786b4b396c4e72774979414862707838395a514a4c6949596f516113408301527f57547a434e4379494d42694d4f4d476d496c3531713541673041585145656e6a6113608301527f706d6759414f7a3242794d6b6f6f6f5170717454694768654e78436e656b75496113808301527f4639574e6b4d44595534626f4e4f346464364b595a7876612f734f55536d70636113a08301527f7a47567848314b346f38372f4d34592b367a2b384847364e39364a363534366a6113c08301527f336a6971542b484d2f555638656c39322b4546783473314b4370534a4b6679766113e08301527f6b787a6a637178627432474c534a50344f5768474d394d42742f5532416565666114008301527f612b4b69307457734c726976576a714b697737574f55666571326e74687257626114208301527f3147706b656a6962624549312b58387553396f347538653945345557456146556114408301527f6d5456696f5567483146665855454a555252314966647a3333686a4d4d467a636114608301527f7132504f534b577a516d4f7853766a4d7274684f663259564b61484675476f2b6114808301527f3649426a74623771714d4d71647062744f5934794365515748416e4761526c676114a08301527f5372486930374c745a5442586b6f4d2b3862303368777067463142415154636b6114c08301527f314c742b74334652573131314e6452434a4250684638634b5876527a774a334e6114e08301527f3368394959765062694f4e653651766c5962584e4a49423767355369647548756115008301527f444f65416f4b6d524e7654655243324e6d41596877365a2b3766646f623865496115208301527f6b4e61785069527a4a424336507234506d6d67424141442b622b6251765470476115408301527f316c454543684c734869696c4e4d4a707932374c7161794b4f757071704c464f6115608301527f6143774f543654525751414141413d3d2920666f726d6174282661706f733b776115808301527f6f6666322661706f733b293b756e69636f64652d72616e67653a552b303030306115a08301527f2d303046462c552b303133312c552b303135322d303135332c552b303242422d6115c08301527f303242432c552b303243362c552b303244412c552b303244432c552b323030306115e08301527f2d323036462c552b323037342c552b323041432c552b323132322c552b3231396116008301527f312c552b323139332c552b323231322c552b323231352c552b464546462c552b6116208301527f464646447d40666f6e742d666163657b666f6e742d66616d696c793a2661706f6116408301527f733b56543332332661706f733b3b666f6e742d7374796c653a6e6f726d616c3b6116608301527f666f6e742d7765696768743a3430303b7372633a75726c28646174613a6170706116808301527f6c69636174696f6e2f666f6e743b6261736536342c643039474d6741424141416116a08301527f41414270554141344141414141774a414141426e3741414541414141414141416116c08301527f414141414141414141414141414141414141414141476967624868794557415a6116e08301527f674149526b4551674b6774396f6770514543344e5541414532416951446878516117008301527f45494157444d4165464f52766b6c374f69657254516b594667343444384272346117208301527f38696a4b785372502f5177493978444a507356316b47456577485a486461455a6117408301527f445730766f766e54675465734a3679366854366279556e39724a762b31475a556117608301527f622b34794d373479526543375066372f663639726e42736b436152514b4661486117808301527f514d53366c3864572b485a2b342f76725964332f2b6e66505054564a563841586117a08301527f7a564841765973476b596b413743424e7a65576166627a7a382f3258657437316117c08301527f7745317971746a71384a5479553473485775435047504f6444674c6f326333696117e08301527f613661575970586b54523879586d57556977432b33636d63364868533449732b6118008301527f5262582b565466575843456355357a364641306b564f654843444f50765643736118208301527f726e316657425347546d647037666e74586536673332546b62784f62454272466118408301527f33596758664f59456d5466686930434b2b673370523753436d767a54685331536118608301527f4b795a7131566c556e7533656b5061464f416a36784d5341385735314d6c764e6118808301527f2f6c496647754141492b4839727636387a6233434e74676b4e395a466f69517a6118a08301527f6e4c752b2b5a564450497261446230533845526f68696b68792f52714b68766a6118c08301527f50443748383548376630704c75397155457154506752757a657471542f46455a6118e08301527f315565306f4f656b64326d644170377071356b62566f37685a636b77454757436119008301527f306137526964387757546a5036725641554376756752437a507146597a7537366119208301527f734a50746249597a596a78492f31792f7a686d3339757841364a59544d6d687a6119408301527f75666f326c2f374f4a62642b5274444d54356b2f5379795a65484b49694969496119608301527f5149596e2f765955437a414651434954686b42464777597732426e4c634577676119808301527f435a766a7968625946686c7267496743396777417a3167554e6d474872302f4a6119a08301527f4f70686645334e6972706e7753544a7673576849614e74564241384d7575346d6119c08301527f4572477a696f632b3670547a635266574751304c5653577869536f6c465243456119e08301527f52684f5153546b446d672b47546c6861454a347a5779436e712b304d59497468611a008301527f58684b6e636275324548543475597a6473596d76594d7261417a664937425169611a208301527f63595177786767466a4d5535744e70347a646954467654496f2b5a57354d484c611a408301527f736e564e357442706a62507964697841735862563243313071584c4441373431611a608301527f5445754d6142644e734a45793145544156454b54692f5444524d477038434745611a808301527f6533486f5459635459356737346e49715058346e6363535949417639654c416a611aa08301527f614378736f7766687769424953717a6851466b4a717158654d6b677a67433339611ac08301527f333034794933356d48426571754767426330667a5a6739596641497a58786145611ae08301527f6e2f5652656476586c634137736a48477958344f786e6a3949364232516c364b611b008301527f414c546851514150573442437768696a63417a684749736942655847536a6645611b208301527f6a6d745267702b704b76616858573072536d2f516e41386c514d6f584d573261611b408301527f576477554542736f445654384f5942364a6b6d4a6461464c4e393147516e7152611b608301527f76534d6e76516449586341666f4f324149487461482b61454148783841482b65611b808301527f6a496c334a4f2b6e62505736504f77634237414f58486f413851584a75767472611ba08301527f442f37686d6d5456574f4f6d366d3962615a7276357a6c70696c355857573279611bc08301527f64797936365a4a556243454969456a4a71486a7835385463494b554367594e46611be08301527f697861466f6143564b6b6978466d693057324f71524454354c6c3639416b5249611c008301527f564b6c57703171684a73786174326c6e5a4f546a31364e57504d57434934545a611c208301527f35594c4f726a6c6e75754e4e4f4f4f4f68327a36355937513972746e7472692f611c408301527f7575324b476d64353734706146507068756a4c336d6d6d4f6531626859325067611c608301527f3465415445564f51556c507834382b464c4b6b6934454b456968546b76516749611c808301527f6476586970596e544c6c69465472697735386851715638716754494e6164576a611ca08301527f46326868313647545735514b54506935756777316c4d307755693531324f4f69611cc08301527f5141784355756b57414553422f494663414a2f2f676641715148434139414943611ce08301527f4370323473695067675a5130524c41563271654d6f6157644945647061775a46611d008301527f30714a3141304941333839594464774e512b3063785565693954592f41565174611d208301527f5376517354777741614c61487469517a67442b7a4d57515468436d4746767a4c611d408301527f51576956543341687834416574354932436b7a695755383636744b4b484e6a59611d608301527f65426d33466c624d315a61336b38382f536630765632444c6b636a6f5a6e614d611d808301527f7a6c426c3866703662626e312b7a79763654643079536575677a4e477733564c611da08301527f745a6d694f5370666e4f476a64496d684f2f466b2b517a376c362f2f4d51336d611dc08301527f597a38733835497356494c464e4d656b643466416733354e674f3133324c7136611de08301527f774c476b42796b39644a765a55584e6c725371384a6d38574c4a6a6b62313233611e008301527f48566337376b376155444a494162727639752f386f482b4652596e7866664c68611e208301527f41323041706b73336830586f6376566e49437247705556367632346972537856611e408301527f33472f74755177507343365673424d71754d6a5944457558523732532f597264611e608301527f6272354e6d6b7758655a374f4e303776654e2b2b46324b2f4c63383235514543611e808301527f7871476e616979596d762b4c542b6465554a4a4f616e4b534d36326a4d707169611ea08301527f75727362333079777253476d61794f4f30426d667278534e382f716b44324d45611ec08301527f586e694a75593269765141796132303747416b49657265424a4b596674364e69611ee08301527f694f4534586251506346774a47415a6c615a6c71476c4441312f2f5448326344611f008301527f524f6a516f675a2f4746797279536f64712b6d734b766d584b6c37304e586542611f208301527f304d4551673747676e74635268526647434a5867466b763679376e3867586445611f408301527f5768363337434a6d6779396b5850794e7345757a4c37484e416978715936476a611f608301527f64626b364d6a73466b444a476b36636a6162734466673068466c6b6276376b39611f808301527f4651634453304f6f5a3251416b37624f646930474b673931527065634b744e30611fa08301527f52735874337352694f41636d3341716c51425671517679523254423151566365611fc08301527f645851796752587331705351736573757037625439677651514d44434a445772611fe08301527f6e79664572734d3141664b397a3245544c55656279746578587831544235774c6120008301527f6464484476362b6c56374b757652775a514f68513056613848796d637065344d6120208301527f7638554a61476151577856494e394a426d6a6e694e586b4859346d627663372f6120408301527f77484756337330536c6e6f4e6237664b6263497336343547762b6f6f396474476120608301527f4f6830366b546542436b2f6a506131464f622b657536707a75324e78386834546120808301527f6944507374366a34524d3275777864494c30306e7a53536c7a757a73755948636120a08301527f67674d34787849477a303930437a676f62756c4f614f34736e4d4e627a5753346120c08301527f35614761675274516941496a35692f51554d58587235707452424637326470316120e08301527f77766473724b3249335547796f6d4839726f335435334e6d7178786e614b74676121008301527f30686d643335616a74676d5464374630414e51324c77316533716e67724e386d6121208301527f5559616b795071316b6b5234536e6b684d7037525264432f566d7365743348456121408301527f417136544f61356258704d61734b357172382b494b5a6e41746f4835704139336121608301527f6c746e794a796a506b4871472f6c7641437836413536797375506d4b57424b346121808301527f6e433047357165534a65517868516c6358496c7975744d6638504e38324f634c6121a08301527f4446304e616e4932377a7371734454427659364b4a32484831436d58454665706121c08301527f6e4456347155785661676a6b363171304168436978646c4839696a314a6f46696121e08301527f385a357974413937725165644a4c69765061543477696c4e48763970486b37796122008301527f306a6b363751686532664d726c4b72307a386e62593777366f5a75774b6a4e686122208301527f466234424f7555486238686e7264766c4247447a697a6f5959724861553258666122408301527f626f4d68345a7745706c3173557a4d417969672f58614471397546314c5169496122608301527f754f307a6c4d375564514f3061385275752b6831464b6f49415677466737306d6122808301527f77776c78476c6d706d6e616e373278506d364e6f79644f4a367243556c4b372f6122a08301527f394170334b39676d6a4557454a4478787345524555336778316744582f6a46396122c08301527f5145633254376f716f77714859765231476d6d55703834584d736436716934656122e08301527f43302b692f312b6d4677453943574961486c626c5638575a4b4e6c7578342f4e6123008301527f424c333535426f574c445a616a5844786c5338386674436d796636466b7a59766123208301527f6f717141794635596c5668724a7a35522f72635778504469636d4370714979346123408301527f35634562394f786868784a54497568314d4b4753753939324e38524d633274356123608301527f36643053413359764c66373273575950545846566d4a784a44794f74447a73636123808301527f77494f375968506c4b494f773263486f38324363785539547747376b794470336123a08301527f4d695743764f6f6d79426b793632347933376b32334d4d6b566f4f374e315a4e6123c08301527f6342725a585631507a614b5456697374796d34524d4c7854613033787a474a6f6123e08301527f51433653494972547a346e674a5a4762527874726c76526e7445496e7675325a6124008301527f704c4554314a55334a445368716745362b7776326f66766439644350676430506124208301527f5331424c47797152496476363831706a4d6978314f4279657a432b77303166676124408301527f6a4c4d424a676f2f4f797332374b4d6f79706a6e504b54474b504276564965766124608301527f4f43735859363936386c576d31317a584f384a31376e2b584b353172653933706124808301527f76442f3462786b4354315734614869773853594e704e6755542b47786d6e71316124a08301527f75392b4969783858707465456346582f36676644475950542f504f64534458616124c08301527f58667931637556326c5a6474584a732f46325a74566365457271556f35505a536124e08301527f51655855714e37427563324e79616e4852314c6961764f494341437471586f516125008301527f62776a68616430742b326b62767445376e6d57734e6435744839514a613855696125208301527f63487a38744e3546706735474c454c537351326f5957676b2f7133463774382f6125408301527f4c54697667376f517764734e57384b474159793166507231697a3957756969736125608301527f6733477368384a6b35684f4d572b5061765347512b7049302f556272306d70576125808301527f64707248714b4d72705047646948784c666a493178496a4e7457482b435075666125a08301527f696a3553475342333932644a714e4436744173577456427463615338542f6f6e6125c08301527f4f574b494f496131726a59582b74702f486b6f574b5861536c552b6157564a6e6125e08301527f565a6d677866424f756c524a696750497163386b7341766b6669756150646a4f6126008301527f636872584b6e634f77414c565567302b775343622b2f54792f7978685965515a6126208301527f6d5772324a474c464779337850706733584855365475424f7a59417a324c6f646126408301527f79534a7637445a55622b682f672f4a6c6751315459463641756f3378566f2b5a6126608301527f4f31734a65546d6353316261546871547831676f4d6d6d6c52444749534c64376126808301527f554e515a2f724f664a4d313955656f4835734b46386774727251686c4f4461756126a08301527f7348473342767630546a3153696b6d66764f4c7854705874396c4c37587530776126c08301527f6f596e376d68664758716662486e7156476f32313437627732554778574f777a6126e08301527f2f2b71414e677a6b6b6c4345775248494f48663246702f7230364179695478316127008301527f566f474d676f70766d6c384734787877333841734a587050714d4e51523047486127208301527f77656b77365a75334344626f6b546c755376486b512b5356472f5057344d6f4f6127408301527f7841786b71522b50593130516e42555777776861494b6c5a72626762624a7a6e6127608301527f417148583447687946724b453445736b746261766b7a306f723659366850756f6127808301527f2b6f2b346a4747694c6b363961784444796c4f474c6e645172353836704954676127a08301527f734456513771506556414c4255326a4548493559677163654157475868537a466127c08301527f713130524d416a32784435345859516e746d745246465a7038676d47445552366127e08301527f6677624d4156425a2b6863374e38556b746c7770594767544c4b4a2b5439626c6128008301527f5457312f4b345139646348347a645855747152464f49496d66485547796245676128208301527f5371784c75484c4b445571464f73464d367872423970556a425334665649534b6128408301527f5864775a495354476b546e4252553838447250416a694274614c4c58466e78456128608301527f4d6c4e6c45663579443263746b6c6961364a396f4134736a683063435a3470306128808301527f5144315036673557447277473366424334625753583032365362584e316648756128a08301527f70547375644c4d496a38594a646873716d44626a43354f374c6d524369346a636128c08301527f30617767415035484f5a314f6259564457457a6d45752f4b69786f50624b736d6128e08301527f4478704f37574b4478364c624b4168754d63626f354977436b5952385a32782f6129008301527f53393463336f366e2f5230327a776365546a666f63644e416a2f336c5373424b6129208301527f387a366d43446e45424b37363475397a3750496f2f6a7038477037657534756a6129408301527f54653642396977327a326c586f564b6449415575514e4c4b5a584550707048306129608301527f544e6a2f4f4673637a4d5651524f4d2f7a554f4a7a422f4b58325830594341596129808301527f7555353533685733667866516a463578786e6e754c344c7175376676414a4e6f6129a08301527f4d57582f4677416d434c386343514c4472636f6c6f6c4d4264756461747669366129c08301527f734d617a62733636423576554367655a31697736415636496f5a5978455a31796129e08301527f6a4d6b4d2b6d7773464a5762594969476b6b384930534256724d394869756d56612a008301527f3762717a71784d4b4e6738535651544e694462615a49386b62493231547a4350612a208301527f6147396e34424b51593277594434657259464f6331492f485364765157726436612a408301527f70766f486b75394d773759544955656633434f454154684b6266777a4e6a662f612a608301527f73334d534a61386d4e3449314e6e37764636384a78342f4c79346341494d786c612a808301527f7a392f4378733048725635467a667534453543534a75624b527a693950364c53612aa08301527f4f684c4239337779546a4a757648383345304e4b3365444142654a5441772f68612ac08301527f585332716e69356f566a7a6a6b576c336b4f75674b3155353336365a30754e68612ae08301527f783067327638437234764845346b64694a4b692f52666364454e4c4f37553953612b008301527f6b333170756e506d70655a4f444d624e4962325a37752f446375595a7137324d612b208301527f4e34513273684d7a476d584263713035736f4d4f58374b644e38777442637045612b408301527f576e646a7048454b4f30546f4d454b5a364f724e4a7567726b4c6f3042306e34612b608301527f624c79764c4d4c4f336970713759415354564f3653517961482f7479574d4762612b808301527f363577766779573551616e325a47774c52764c682b6657645151486b46673134612ba08301527f3250586e716e746b7948685254744e746530703833584635566f6369514a696c612bc08301527f624444436336656e35386f59374f3551303967624f4c39673355464c4b53646c612be08301527f496f62465a583155736c76774e7a7948446b6d4932466d6d4652505671367269612c008301527f7a7237426e6f395378344a6a343755776966386241495a314e7545526531764a612c208301527f723661674e3858754643334f7063685961662b5a386763613575567731384834612c408301527f676430384d5970674e74303545615343544242444839576d4171477346584373612c608301527f6870694c76446e572b764a344a754d6a54386b4d73627a464b30485042325a39612c808301527f4b6556716c7370444e536b555438344c6b6a656631454f62464974636b6b6a74612ca08301527f6e696b5a7856416d734c346c3743645051757959472b7346757a5663554c5033612cc08301527f714874414a78787473627563386d446a52657646754d702f59636351584f6577612ce08301527f6a4b4a5453362f5777426e4c6b6c594b4345676e4d63512f6e4c32433952716d612d008301527f5836696a424561342b7539473869734b3476614b39613272794e48645a64344a612d208301527f73376c3752536a39776a49344b39395158345a3275554e7558474d36704b6349612d408301527f333954426334356c61705547614647384b51317a494b62346c6a675152345353612d608301527f4e7a4f4c64356f2b4b504a7035664673362b686f4c663348676554704575566d612d808301527f515059524c586a6f526232755371457a4837365870754e745933387a5571306a612da08301527f53564273733074583455756f65642f474649494a695a6430776c697865796252612dc08301527f6463426f364e4b55716c2f6f494c69304e392b51622f646c664d67632b7a5075612de08301527f485a37334b41787845325170336377784e674e386c62683034775845306f4d77612e008301527f4d2f616f784843635a487736725435736261505579627259395033316f79304e612e208301527f534c326f49555533786438647950416475545a63776b774269725948574f6d32612e408301527f35435961766f4b513645536933624a4e4a777076445a5a2b492f6e426b4e452b612e608301527f6e6c6e6a6575396c5a3671673576414f37745257736b572f782f704d4a4e6b34612e808301527f735636325a70734950517562793730507267433772315975712b3750535a4a53612ea08301527f5464535632385a78794573652b32344267686549796b6d4f4338536a32457651612ec08301527f6344744b566a62446a567a68382f6542313657542b73346566574b68514c7630612ee08301527f68496165616552396676594c55416951526b59326a4233494a666d4e346d3132612f008301527f484730782b617942454a6f676f736d5155437a43436b506d676d59584952474b612f208301527f70303942637552744f47676179354d3267706367304f4f327264597a42704f76612f408301527f6e6434712b70643847706a4e42734d4f6833766c4f6d5631766c696953617364612f608301527f7669665535786b3568696879642b4237582b5165643866526e30587341585062612f808301527f553267327173415276456246776f5337514d5a35562b4f5175545767347a2b55612fa08301527f4b6353307a522b4245656c67595154754c776843694d45484167447944754852612fc08301527f56723574634439472b794470475170746c694d354456784149596c7941694b75612fe08301527f65386b2f66457237394f6a674978364c434b732f455359746a57414d446661696130008301527f473843515a58654c3443546352343732794e4f37706e3047493667362b6266556130208301527f6f4b644f7275445669466e7068344c5442623169304f4b6b4f545a69737a6e4a6130408301527f4e5738477374624239336b4872784d432f2f5355522b436253657158514b38476130608301527f334230634d7a316e6e445078476e4e766c767369467a373538674e785a5852766130808301527f67454b4c62414d47583367514663446d6c734d6b554c515765565144534d34556130a08301527f4f354c6f714b76696d5543584c414a58612b45543474412b4e42484c486235416130c08301527f5a6370357278446858464f4d684a6d4e596a6d4979772b37334550624d33774d6130e08301527f662b6e676a7975555973435357495039346979542b6577514f55774c2b455a4a6131008301527f4a54774b6339714b424a49586c3176456f68394e4d416463614f4f362f4661316131208301527f346249393555593857494e367778755a7168796d786f766b354e4971434731696131408301527f4f4f49724244763357634e434d38614d50785877514471357148374d6f7249576131608301527f4839646f4d74502f2f41676466754470364e474e33444e45356f656e706232586131808301527f674d4c467468364b47765843336252656a6a72316d454a593945726c763944656131a08301527f614f5356584e2b4c63456b394c4d667955654c777a74684b53624571475853626131c08301527f46573878626d384a5747727a3134614b3068466a4c613772553148796c6942776131e08301527f357a786c4753794159316935454849694a4e594652412b774d6a5a576b3749466132008301527f656e4f595a68767849335669694549707230596d67727341566757754d2b626d6132208301527f6f476c664b54384143504d4156535343784a727368464c4234795467417375326132408301527f4a4f2b4a494d396e71386d416a424437577773616567354559696c2b726239636132608301527f657a6843367131445851764266364238446834785433777849397134413377746132808301527f306c4e55346644506f52423263437658483450516871705352316548387869656132a08301527f503374517846697547444a43526f574c6d794d694c793774567a6173307879696132c08301527f564a4b564b4d3558366d54426e7273794b6933594e7674463072583258434e546132e08301527f5246532f705a364e707161636b334a5a472f50524777304f51664f445a30686e6133008301527f4474376f6e2f6f464e694e7779573259756954782f5a49497a754242434234446133208301527f5442493355704267793145546852503457526d772b43457572686b59307032646133408301527f4f7879525338674530314441377247775954596c486f4a2b44746562507666496133608301527f3770777854616b44304b6f446f68654a4d4e6c4563314c5753386a37454364516133808301527f79572b6d6c63575163704b426e464e62536279773173787853377873635a2b526133a08301527f526e71354f314b6d5131654639764f43563945442b6a2b422f30655a6d6869756133c08301527f676b424c2f5278685a2b52594b5a644f43783351385467446a6658417a596c6d6133e08301527f764f70324e35724b6f5474566234637a6871496a6d76375851496479356b4f396134008301527f617243346f6f374348676d2f4c727049666b67415a71517069486b3771382b436134208301527f7868726866566c50632b51493676316673672f576d6e4d53504e67774e5a75476134408301527f6d4c67763632676f4c642f397537495450724f6a5a6e6b45345358566d504e696134608301527f5969537746786b7958346f2f6a516538736b6f525439595163656774464570556134808301527f6f377063436a58676a374632755663466f5164704d39654e45795955682f43526134a08301527f74424a524f6642632b6451514b64456c614d6f794d33596979335168674277466134c08301527f4d65686e7a724a4d64364c3879665531466a733162436c715a6a64594c326b446134e08301527f4542657552455070616d7334627a45482f6c656c726259474d6d42496274696d6135008301527f75786f464b6d54375474694b756e59574565764e65483142323656345966474b6135208301527f51307a7974544a2b544e796762335631616e556d6c63704b4c6a715a596451486135408301527f6a41497742654c3847396b42796e4b51653771464630703459785543337054546135608301527f4967744d5a737358477864306a634a57473567466359685648365471457154766135808301527f386751365442617669585878526630485334514b76513570694e41426347426b6135a08301527f4b37522f5a354842504d4e4444496144412f2f477067506235744b2b703176346135c08301527f422f767a4f64674c2b7a6d652b2b662b7853374e745441704d77674143626d416135e08301527f6d495338473867314969506e6e426e654549614e3472345066675145713630426136008301527f473636774f7532304a70737553354d5977644671432b567a4c426f65386c57436136208301527f54306368793547524a614e6c6c7569724c365862485a497a61646577324f31566136408301527f4d307536436a46485a416e52584b5a6a3470714a56552f424175394d79786d2f6136608301527f43645269424d6c6432493863726f445a73496d6b585a56576b33637a797073516136808301527f71357046706972344677796e5135797254547a465873706846656c36584661396136a08301527f56467141666b474641433461416b656659727544436c476732452f6873712b456136c08301527f514d4d5543683072547744633364424c436430374369423251634a514a4573476136e08301527f626a624a4d79796e6256502f3269756d424e77794757346f3463666f5a3962466137008301527f7a592f534c31632b7557797958506c5a784b6851776f4e585330644b4a5563336137208301527f4d616b4333546e316f5a6e3057332b72536936515669304b68336b4d6731655a6137408301527f504e5657645576584b70626f584232704f3556777562734f6c52316c584358776137608301527f487032686f52434d6a707451736946417171624b4c67356d52327a6a624149616137808301527f4e617755616b384b356d5445726c42584c3572467874797775647337694234786137a08301527f6c354e496a416761672f364946496e37754555674242686673757175363747616137c08301527f30787a776851706d452b53366332545533334251685570526f743978327831306137e08301527f7874314e3050785a613939786e39644238652b326a3879753965416b534a586e6138008301527f6b4d5a736e6b7156496c655a6e36664b6b4b743042375631706e5877465841726138208301527f39704968374e542b65775971564b47587746474f496f594562554b5a636855706138408301527f5668716b323345696a6a4c4465615076562b4532744f725470366a555959357a6138608301527f78787437453063462b63554a72454d343562375531464a525574346f4574316e6138808301527f304b784f735447517955303735422f36462f30416b303056542b5a48596962416138a08301527f526d30796744566a342f4d6e6c42452b6244686d7943416764644941302b4c626138c08301527f623459797a4c6a766b73434f4f756851436b357a4769546d544c534832757a2f6138e08301527f6747464b415152627174416c58454a357070706870686c6b6d6176644e646f696139008301527f796b4d557352525a354646464746585538346d6d324e35365a4939634c727a306139208301527f766c64635a444478376250654c736275327568533374467334413731326973716139408301527f4a564b5a656e613949537958713162667546574f385a6a503458335a756475316139608301527f6655724c7a6c4f676d626973662b446c6154627939544b34364b716c334975386139808301527f70796d6a4e4c2f536c6b4e6470484743615348324d6c69624a6e6d4c7333615a6139a08301527f66453332694e6848686e4d53634841413d2920666f726d6174282661706f733b6139c08301527f776f6666322661706f733b297d3c2f7374796c653e3c2f7376673e00000000006139e08301525191829182615b3c565b80fd5b6020808252825181830181905290939260005b828110615b7157505060409293506000838284010152601f8019910116010190565b818101860151848201604001528501615b4f56fea2646970667358221220b934cc15d02a668e9cc7ad16a1dd831f7149df706e6567511fab8336165c943264736f6c63430008110033",
  "devdoc": {
    "kind": "dev",
    "methods": {},
    "version": 1
  },
  "userdoc": {
    "kind": "user",
    "methods": {},
    "version": 1
  },
  "storageLayout": {
    "storage": [],
    "types": null
  }
}