{
  "address": "0x64AA040D9cDf0Eced7c34840355940016dcE4ca3",
  "abi": [
    {
      "inputs": [],
      "name": "ValueOutOfRange",
      "type": "error"
    },
    {
      "inputs": [
        {
          "internalType": "string",
          "name": "str",
          "type": "string"
        }
      ],
      "name": "_compressUtf8",
      "outputs": [
        {
          "internalType": "string",
          "name": "res",
          "type": "string"
        }
      ],
      "stateMutability": "pure",
      "type": "function"
    },
    {
      "inputs": [
        {
          "internalType": "uint256",
          "name": "value",
          "type": "uint256"
        }
      ],
      "name": "_tranformWeiToDecimal2",
      "outputs": [
        {
          "internalType": "string",
          "name": "str",
          "type": "string"
        }
      ],
      "stateMutability": "pure",
      "type": "function"
    },
    {
      "inputs": [
        {
          "internalType": "bytes32",
          "name": "b",
          "type": "bytes32"
        }
      ],
      "name": "_transformBytes32Seed",
      "outputs": [
        {
          "internalType": "string",
          "name": "",
          "type": "string"
        }
      ],
      "stateMutability": "pure",
      "type": "function"
    },
    {
      "inputs": [
        {
          "internalType": "uint256",
          "name": "value",
          "type": "uint256"
        }
      ],
      "name": "_transformUint256",
      "outputs": [
        {
          "internalType": "string",
          "name": "str",
          "type": "string"
        }
      ],
      "stateMutability": "pure",
      "type": "function"
    },
    {
      "inputs": [
        {
          "internalType": "bytes32",
          "name": "seed",
          "type": "bytes32"
        },
        {
          "internalType": "uint256",
          "name": "lifeScore",
          "type": "uint256"
        },
        {
          "internalType": "uint256",
          "name": "round",
          "type": "uint256"
        },
        {
          "internalType": "uint256",
          "name": "age",
          "type": "uint256"
        },
        {
          "internalType": "string",
          "name": "creatorName",
          "type": "string"
        },
        {
          "internalType": "uint256",
          "name": "nativeCost",
          "type": "uint256"
        },
        {
          "internalType": "uint256",
          "name": "rebornCost",
          "type": "uint256"
        }
      ],
      "name": "renderSvg",
      "outputs": [
        {
          "internalType": "string",
          "name": "",
          "type": "string"
        }
      ],
      "stateMutability": "pure",
      "type": "function"
    },
    {
      "inputs": [
        {
          "internalType": "bytes32",
          "name": "seed",
          "type": "bytes32"
        },
        {
          "internalType": "uint256",
          "name": "lifeScore",
          "type": "uint256"
        },
        {
          "internalType": "uint256",
          "name": "round",
          "type": "uint256"
        },
        {
          "internalType": "uint256",
          "name": "age",
          "type": "uint256"
        },
        {
          "internalType": "address",
          "name": "creator",
          "type": "address"
        },
        {
          "internalType": "string",
          "name": "creatorName",
          "type": "string"
        },
        {
          "internalType": "uint256",
          "name": "reward",
          "type": "uint256"
        },
        {
          "internalType": "uint256",
          "name": "cost",
          "type": "uint256"
        }
      ],
      "name": "renderTrait",
      "outputs": [
        {
          "internalType": "string",
          "name": "",
          "type": "string"
        }
      ],
      "stateMutability": "pure",
      "type": "function"
    }
  ],
  "transactionHash": "0x9b99d1482b88098e99a16ce35c74836a84c6c06765016fc7dd9f805aa71be0a7",
  "args": [],
  "numDeployments": 6,
  "solcInputHash": "2fd33cf46db0f57378070252f29dda1d",
  "bytecode": "0x6080806040523461001a57611dc29081610020823930815050f35b600080fdfe60806040526004361015610013575b600080fd5b60003560e01c806323f790ed1461009f5780632b8ef8fb146100965780634a2fc1ed1461008d578063580be97814610084578063be0862f41461007b578063d24057d7146100725763f05ac2fe1461006a57600080fd5b61000e610491565b5061000e61045a565b5061000e610282565b5061000e610267565b5061000e61024c565b5061000e6101eb565b602036600319011261000e576100c56100b96004356117d3565b604051918291826100ec565b0390f35b60005b8381106100dc5750506000910152565b81810151838201526020016100cc565b6040916020825261010c81518092816020860152602086860191016100c9565b601f01601f1916010190565b50634e487b7160e01b600052604160045260246000fd5b604081019081106001600160401b0382111761014a57604052565b610152610118565b604052565b601f909101601f19168101906001600160401b0382119082101761014a57604052565b6020906001600160401b038111610197575b601f01601f19160190565b61019f610118565b61018c565b81601f8201121561000e578035906101bb8261017a565b926101c96040519485610157565b8284526020838301011161000e57816000926020809301838601378301015290565b5061010036600319011261000e576084356001600160a01b038116810361000e5760a4356001600160401b03811161000e576100c5916102326100b99236906004016101a4565b9060e4359160c43591606435604435602435600435610c1f565b50602036600319011261000e576100c56100b96004356116a1565b50602036600319011261000e576100c56100b96004356115dd565b50604036600319011261000e5760243560043561029f82826104dc565b54916102ab81836104dc565b6002015460901c6001600160401b03166102c582846104dc565b6002015460701c63ffffffff16926102dd83826104dc565b6002015460601c61ffff16946102f384836104dc565b6003019561030185846104dc565b6002015460d01c9061031386856104dc565b600201546001600160601b03169761032a906104eb565b65ffffffffffff986001600160401b03986001600160601b039761036696928916958c169461ffff169263ffffffff90921691908b16906109da565b61036f906108fc565b9461037a84836104dc565b549461038685846104dc565b6002015460901c6001600160401b03166103a086856104dc565b6002015460701c63ffffffff16916103b887866104dc565b6002015460601c61ffff16956103ce88876104dc565b600101546001600160a01b0316946103e689886104dc565b600301966103f48a826104dc565b6001015460a01c99610405916104dc565b6002015460d01c96610416906104eb565b961697169561ffff169263ffffffff16911661043197610c1f565b61043a9161060f565b610443906108fc565b61044c906106f6565b6040516100c58192826100ec565b50602036600319011261000e576004356001600160401b03811161000e576100b961048c6100c59236906004016101a4565b611988565b5060e036600319011261000e576084356001600160401b03811161000e576100b96104c36100c59236906004016101a4565b60c4359060a435906064356044356024356004356109da565b90600052602052604060002090565b9060405190600092805493600185811c928187169182156105c6575b60209182861084146105b2578798610526878a98999a60209181520190565b949081156105915750600114610549575b5050505061054792500383610157565b565b61055d919450959195600052602060002090565b946000935b82851061057b5750505061054793500138808080610537565b8654858501529586019588955093810193610562565b93505050506105479491925060ff19168252151560051b0138808080610537565b634e487b7160e01b85526022600452602485fd5b93607f1693610507565b6060519060005b8281106105e75750016000815290565b6080810151828201526020016105d7565b9061060b602092828151948592016100c9565b0190565b608061054791939293604051948591693d913730b6b2911d101160b11b60208401526e446567656e20546f6d6273746f6e6560881b602a840152701116113232b9b1b934b83a34b7b7111d1160791b60398401526a11161134b6b0b3b2911d1160a91b604a8401527919185d184e9a5b5859d94bdcdd99cade1b5b0ed8985cd94d8d0b60321b60558401526106ae815180926020606f870191016100c9565b82016f011161130ba3a3934b13aba32b9911d160851b606f8201526106dd825180936020607f850191016100c9565b01607d60f81b607f820152036060810185520183610157565b90610547603d60405180947f646174613a6170706c69636174696f6e2f6a736f6e3b6261736536342c000000602083015261073a81518092602086860191016100c9565b810103601d810185520183610157565b60405190602082016001600160401b0381118382101761076e575b60405260008252565b610776610118565b610765565b60405190606082016001600160401b038111838210176107eb575b604052604082527f6768696a6b6c6d6e6f707172737475767778797a303132333435363738392b2f6040837f4142434445464748494a4b4c4d4e4f505152535455565758595a61626364656660208201520152565b6107f3610118565b610796565b50634e487b7160e01b600052601160045260246000fd5b906002820180921161081d57565b6105476107f8565b906001820180921161081d57565b906006820180921161081d57565b906005820180921161081d57565b906004820180921161081d57565b906003820180921161081d57565b9190820180921161081d57565b600281901b91906001600160fe1b0381160361081d57565b60405190606082016001600160401b038111838210176108bd575b604052602a8252604082602036910137565b6108c5610118565b6108ab565b906108d48261017a565b6108e16040519182610157565b82815280926108f2601f199161017a565b0190602036910137565b8051156109ce5761090b61077b565b61092f61092a61092561091e855161080f565b6003900490565b610878565b6108ca565b9160208301918182518301915b82821061097c575050506003905106806001146109695760021461095e575090565b603d90600019015390565b50603d9081600019820153600119015390565b9091936004906003809401938451600190603f9082828260121c16880101518553828282600c1c16880101518386015382828260061c168801015160028601531685010151908201530193919061093c565b506109d761074a565b90565b60408051630ef10dbb60e11b81529097949594939092916000918991734e8c1A8eC8b7f1039af9ceB3ebC7c8cA6Cb1cB23908487600481855af4968715610c12575b8597610bf2575b50610a2d906117d3565b98835195631819957560e11b87528587600481865af4968715610be5575b8697610bc3575b50610a5d86916116a1565b9285519463a85e9c8360e01b86528286600481855af4958615610bb6575b8396610b8f575b5090610a9060049392610d9d565b965163ccf8541960e01b815292839182905af4958615610b82575b8096610b58575b5050610abd90610d9d565b948b51998a9760208901610ad0916105f8565b610ad9916105f8565b610ae2916105f8565b610aeb916105f8565b610af4916105f8565b610afd916105f8565b610b06916105f8565b610b0f916105f8565b0393601f19948581018552610b249085610157565b610b2d92611292565b925192839160208301610b3f916105f8565b610b48916105f8565b0390810182526109d79082610157565b610abd92965090610b7a913d8091833e610b728183610157565b810190611227565b949038610ab2565b610b8a611285565b610aab565b60049392919650610bac610a90913d8086833e610b728183610157565b9691929350610a82565b610bbe611285565b610a7b565b86919750610bdd610a5d913d8085833e610b728183610157565b979150610a52565b610bed611285565b610a4b565b610a2d919750610c0b903d8088833e610b728183610157565b9690610a23565b610c1a611285565b610a1c565b610c30909794959693919297610f9d565b91610c3a90610d9d565b96610c4490610d9d565b90610c4e90610d9d565b90604051978893602085017f5b7b2274726169745f74797065223a202253656564222c202276616c7565223a905261101160f11b604086015280519081604287019160200191610c9d926100c9565b7f227d2c7b2274726169745f74797065223a20224c6966652053636f7265222c20604291860191820152680113b30b63ab2911d160bd1b6062820152815191610cef908390606b8401906020016100c9565b7f7d2c7b2274726169745f74797065223a2022526f756e64222c202276616c7565606b9290910191820152620111d160ed1b608b820152608e01610d32916105f8565b7f7d2c7b2274726169745f74797065223a2022416765222c202276616c7565223a8152600160fd1b6020820152602101610d6b916105f8565b0393601f19948581018752610d809087610157565b610d8993611052565b9160405192839160208301610b3f916105f8565b6000908072184f03e93ff9f4daa797ed6e38ed64bf6a1f0160401b80821015610ecc575b506904ee2d6d415b85acef8160201b80831015610ebd575b50662386f26fc1000080831015610eae575b506305f5e10080831015610e9f575b5061271080831015610e90575b506064821015610e80575b600a80921015610e76575b600190816021610e2e8287016108ca565b95860101905b610e40575b5050505090565b600019019083906f181899199a1a9b1b9c1cb0b131b232b360811b8282061a835304918215610e7157919082610e34565b610e39565b9160010191610e1d565b9190606460029104910191610e12565b60049193920491019138610e07565b60089193920491019138610dfa565b60109193920491019138610deb565b60209193920491019138610dd9565b604093508104915038610dc1565b50634e487b7160e01b600052603260045260246000fd5b602090805115610eff570190565b61060b610eda565b602190805160011015610eff570190565b906020918051821015610f2a57010190565b610f32610eda565b010190565b8015610f45575b6000190190565b610f4d6107f8565b610f3e565b15610f5957565b606460405162461bcd60e51b815260206004820152602060248201527f537472696e67733a20686578206c656e67746820696e73756666696369656e746044820152fd5b60405190608082016001600160401b03811183821017611045575b6040526042825260603660208401376030610fd283610ef1565b536078610fde83610f07565b536041905b60018211610ff6576109d7915015610f52565b80600f61103292166010811015611038575b6f181899199a1a9b1b9c1cb0b131b232b360811b901a6110288486610f18565b5360041c91610f37565b90610fe3565b611040610eda565b611008565b61104d610118565b610fb8565b6001600160a01b0316929091611066610890565b93603061107286610ef1565b53607861107e86610f07565b5360295b600181116111e257506109d79361118c611192611112979561118c6111556110c26110bc6111d4996110b76111c69a15610f52565b610d9d565b93610d9d565b95607160466040519d8e809d7f7d2c7b2274726169745f74797065223a202243726561746f72222c202276616c6020830152653ab2911d101160d11b6040830152602081519485930191016100c9565b8b017f227d2c7b2274726169745f74797065223a202243726561746f724e616d65222c60468201526a10113b30b63ab2911d101160a91b606682015201906105f8565b7f227d2c7b2274726169745f74797065223a2022526577617264222c202276616c81526403ab2911d160dd1b602082015260250190565b906105f8565b7f7d2c7b2274726169745f74797065223a2022436f7374222c202276616c75652281526101d160f51b602082015260220190565b617d5d60f01b815260020190565b03601f198101835282610157565b9080600f6112159216601081101561121a575b6f181899199a1a9b1b9c1cb0b131b232b360811b901a6110288489610f18565b611082565b611222610eda565b6111f5565b60208183031261000e578051906001600160401b03821161000e570181601f8201121561000e5780516112598161017a565b926112676040519485610157565b8184526020828401011161000e576109d791602080850191016100c9565b506040513d6000823e3d90fd5b60408051636e2a56d560e01b81529293600092600492734e8c1A8eC8b7f1039af9ceB3ebC7c8cA6Cb1cB2392909185878681875af4968715611532575b8697611512575b506112e090611988565b82516318382d3360e31b8152909786828781885af4918215611505575b87926114e5575b5061130e906115dd565b9083519262028a9960e31b845287848881895af49384156114d8575b88946114ae575b50670de0b6b3a764000061134591046116a1565b938688825197637a879de560e11b895281898481845af49889156114a1575b8299611485575b5083516321579a9d60e21b8152998a9182905af4978815611478575b899861145c575b50888251809263255106dd60e01b82528173a139D1E2f9338e244c117B133D3F451F6a41025C5af498891561144f575b8099611432575b50505198899860208a016113d8916105f8565b6113e1916105f8565b6113ea916105f8565b6113f3916105f8565b6113fc916105f8565b611405916105f8565b61140e916105f8565b611417916105f8565b611420916105f8565b03601f19810182526109d79082610157565b6114479299503d8091833e610b728183610157565b9638806113c5565b611457611285565b6113be565b6114719198503d808b833e610b728183610157565b963861138e565b611480611285565b611387565b61149a9199503d8084833e610b728183610157565b973861136b565b6114a9611285565b611364565b6113459194506114d0670de0b6b3a7640000913d808c833e610b728183610157565b949150611331565b6114e0611285565b61132a565b61130e9192506114fe903d808a833e610b728183610157565b9190611304565b61150d611285565b6112fd565b6112e091975061152b903d8089833e610b728183610157565b96906112d6565b61153a611285565b6112cf565b60061981019190821161081d57565b60001981019190821161081d57565b601e1981019190821161081d57565b9190820391821161081d57565b602190610547929493604051958261159b8894518092602080880191016100c9565b8301601760f91b60208201526115ba82518093602088850191016100c9565b016115ce82518093602087850191016100c9565b01036001810185520183610157565b68056bc75e2d6310000081111561160157670de0b6b3a76400006109d79104610d9d565b6109d79067016345785d8a0000611672662386f26fc1000061166b83850693611664858703878111611694575b670de0b6b3a76400008091069787891580159061168b575b1561168557818a61165e93039081116116785761156c565b04610d9d565b9504610d9d565b9204610d9d565b91611579565b6116806107f8565b61156c565b5061165e565b50801515611646565b61169c6107f8565b61162e565b629896808110156116b5576109d790611739565b64174876e8008110156116f6576109d76116d6620f42406116e99304611739565b6111d460405193849260208401906105f8565b604d60f81b815260010190565b66038d7ea4c68000811015611727576109d76116d6633b9aca0061171a9304611739565b602160f91b815260010190565b604051634eb4f9fb60e01b8152600490fd5b60606103e88083048061176c5750506109d7906111d461175b61118c94610d9d565b9160405194859360208501906105f8565b611777919250611739565b6117896109d79261178e929406610d9d565b61188e565b916111d4602160405194836117ad8795518092602080890191016100c9565b8401600b60fa1b60208201526117cc82518093602086850191016100c9565b01016105d0565b6117dc90610f9d565b604051906117e98261012f565b600e90818352602083019160203684376000805b82811061185e5750505061182e926109d79261181a6023936118fb565b9060405195869351809260208601906100c9565b82016271405360e91b602082015261184f82518093602087850191016100c9565b01036003810184520182610157565b611889906001600160f81b03196118758287610f18565b5116831a6118838289610f18565b536118e3565b6117fd565b8051600181036118bb575060405161030360f41b6020820152906109d79082906111d4906022830161118c565b6002036109d7576109d76111d491604051928391600360fc1b602084015260218301906105f8565b60019060001981146118f3570190565b61060b6107f8565b906040516119088161012f565b6015815260203681830137602d5b6042811061192357509150565b611957906001600160f81b031961193a8287610f18565b5116611883602c1983019183831161195c575b60001a9185610f18565b611916565b6119646107f8565b61194d565b604051906119768261012f565b600382526271405360e91b6020830152565b61199181611ab5565b611999611a90565b906119a381611bc8565b600c81116119b15750505090565b90925060009391935b60058110611a58575060055b6119cf8261153f565b8110156119f6576119f1906119eb6119e686611c70565b611adb565b506118e3565b6119c6565b509092611a0b611a1691611a10611a0b611969565b611ab5565b90611d2e565b90611a208161153f565b925b818410611a355750506109d79150611adb565b9091611a4a611a0b611a5092611a1085611c70565b936118e3565b929190611a22565b93611a6c611a0b611a7292611a1087611c70565b946118e3565b6119ba565b60405190611a848261012f565b60006020838281520152565b611a98611a77565b5060605160405190611aa98261012f565b81526080602082015290565b611abd611a77565b50602081519160405192611ad08461012f565b835201602082015290565b6109d7611ae882516108ca565b91602081015190519060208401611b17565b601f8111611b0a575b6101000a90565b611b126107f8565b611b03565b92905b602093848410611b795781518152848101809111611b6c575b938101809111611b5f575b91601f198101908111611b52575b91611b1a565b611b5a6107f8565b611b4c565b611b676107f8565b611b3e565b611b746107f8565b611b33565b929193506000199180611b95575b505182518216911916179052565b611bb4919250611baf9060200360208111611bbb57611afa565b61154e565b9038611b87565b611bc36107f8565b611afa565b90611be1611bd9602084015161155d565b92518361086b565b6000925b818110611bf0575050565b8051919391611c16919060ff166080811015611c1d5750611c1090610825565b916118e3565b9290611be5565b60e0811015611c305750611c109061080f565b60f0811015611c435750611c109061085d565b60f8811015611c565750611c109061084f565b60fc1115611c6757611c1090610841565b611c1090610833565b90611c83611c7c611a77565b8093611c86565b50565b611c8e611a77565b50602081019081516020840152805115611d25578151601e19015160ff166080811015611cfb57506001915b8151808411611ce35750611ccf83825161086b565b9052611cdc82825161156c565b9052815290565b600093508452611cf58251825161086b565b90525290565b60e0811015611d0d5750600291611cba565b60f01115611d1d57600391611cba565b600491611cba565b50506000815290565b6109d790611d47815184518101809111611d84576108ca565b92602080850192611d5e8282015182519086611b17565b51850101809211611d77575b6020810151905191611b17565b611d7f6107f8565b611d6a565b61092a6107f856fea2646970667358221220d8f0ba8bd65dec0d6800e5924a682c7ab7fb600089835a12704d962f8b964bdc64736f6c63430008110033",
  "deployedBytecode": "0x60806040526004361015610013575b600080fd5b60003560e01c806323f790ed1461009f5780632b8ef8fb146100965780634a2fc1ed1461008d578063580be97814610084578063be0862f41461007b578063d24057d7146100725763f05ac2fe1461006a57600080fd5b61000e610491565b5061000e61045a565b5061000e610282565b5061000e610267565b5061000e61024c565b5061000e6101eb565b602036600319011261000e576100c56100b96004356117d3565b604051918291826100ec565b0390f35b60005b8381106100dc5750506000910152565b81810151838201526020016100cc565b6040916020825261010c81518092816020860152602086860191016100c9565b601f01601f1916010190565b50634e487b7160e01b600052604160045260246000fd5b604081019081106001600160401b0382111761014a57604052565b610152610118565b604052565b601f909101601f19168101906001600160401b0382119082101761014a57604052565b6020906001600160401b038111610197575b601f01601f19160190565b61019f610118565b61018c565b81601f8201121561000e578035906101bb8261017a565b926101c96040519485610157565b8284526020838301011161000e57816000926020809301838601378301015290565b5061010036600319011261000e576084356001600160a01b038116810361000e5760a4356001600160401b03811161000e576100c5916102326100b99236906004016101a4565b9060e4359160c43591606435604435602435600435610c1f565b50602036600319011261000e576100c56100b96004356116a1565b50602036600319011261000e576100c56100b96004356115dd565b50604036600319011261000e5760243560043561029f82826104dc565b54916102ab81836104dc565b6002015460901c6001600160401b03166102c582846104dc565b6002015460701c63ffffffff16926102dd83826104dc565b6002015460601c61ffff16946102f384836104dc565b6003019561030185846104dc565b6002015460d01c9061031386856104dc565b600201546001600160601b03169761032a906104eb565b65ffffffffffff986001600160401b03986001600160601b039761036696928916958c169461ffff169263ffffffff90921691908b16906109da565b61036f906108fc565b9461037a84836104dc565b549461038685846104dc565b6002015460901c6001600160401b03166103a086856104dc565b6002015460701c63ffffffff16916103b887866104dc565b6002015460601c61ffff16956103ce88876104dc565b600101546001600160a01b0316946103e689886104dc565b600301966103f48a826104dc565b6001015460a01c99610405916104dc565b6002015460d01c96610416906104eb565b961697169561ffff169263ffffffff16911661043197610c1f565b61043a9161060f565b610443906108fc565b61044c906106f6565b6040516100c58192826100ec565b50602036600319011261000e576004356001600160401b03811161000e576100b961048c6100c59236906004016101a4565b611988565b5060e036600319011261000e576084356001600160401b03811161000e576100b96104c36100c59236906004016101a4565b60c4359060a435906064356044356024356004356109da565b90600052602052604060002090565b9060405190600092805493600185811c928187169182156105c6575b60209182861084146105b2578798610526878a98999a60209181520190565b949081156105915750600114610549575b5050505061054792500383610157565b565b61055d919450959195600052602060002090565b946000935b82851061057b5750505061054793500138808080610537565b8654858501529586019588955093810193610562565b93505050506105479491925060ff19168252151560051b0138808080610537565b634e487b7160e01b85526022600452602485fd5b93607f1693610507565b6060519060005b8281106105e75750016000815290565b6080810151828201526020016105d7565b9061060b602092828151948592016100c9565b0190565b608061054791939293604051948591693d913730b6b2911d101160b11b60208401526e446567656e20546f6d6273746f6e6560881b602a840152701116113232b9b1b934b83a34b7b7111d1160791b60398401526a11161134b6b0b3b2911d1160a91b604a8401527919185d184e9a5b5859d94bdcdd99cade1b5b0ed8985cd94d8d0b60321b60558401526106ae815180926020606f870191016100c9565b82016f011161130ba3a3934b13aba32b9911d160851b606f8201526106dd825180936020607f850191016100c9565b01607d60f81b607f820152036060810185520183610157565b90610547603d60405180947f646174613a6170706c69636174696f6e2f6a736f6e3b6261736536342c000000602083015261073a81518092602086860191016100c9565b810103601d810185520183610157565b60405190602082016001600160401b0381118382101761076e575b60405260008252565b610776610118565b610765565b60405190606082016001600160401b038111838210176107eb575b604052604082527f6768696a6b6c6d6e6f707172737475767778797a303132333435363738392b2f6040837f4142434445464748494a4b4c4d4e4f505152535455565758595a61626364656660208201520152565b6107f3610118565b610796565b50634e487b7160e01b600052601160045260246000fd5b906002820180921161081d57565b6105476107f8565b906001820180921161081d57565b906006820180921161081d57565b906005820180921161081d57565b906004820180921161081d57565b906003820180921161081d57565b9190820180921161081d57565b600281901b91906001600160fe1b0381160361081d57565b60405190606082016001600160401b038111838210176108bd575b604052602a8252604082602036910137565b6108c5610118565b6108ab565b906108d48261017a565b6108e16040519182610157565b82815280926108f2601f199161017a565b0190602036910137565b8051156109ce5761090b61077b565b61092f61092a61092561091e855161080f565b6003900490565b610878565b6108ca565b9160208301918182518301915b82821061097c575050506003905106806001146109695760021461095e575090565b603d90600019015390565b50603d9081600019820153600119015390565b9091936004906003809401938451600190603f9082828260121c16880101518553828282600c1c16880101518386015382828260061c168801015160028601531685010151908201530193919061093c565b506109d761074a565b90565b60408051630ef10dbb60e11b8152909794959493909291600091899173__$6e06dd050095c7919be040ed2350b8ae73$__908487600481855af4968715610c12575b8597610bf2575b50610a2d906117d3565b98835195631819957560e11b87528587600481865af4968715610be5575b8697610bc3575b50610a5d86916116a1565b9285519463a85e9c8360e01b86528286600481855af4958615610bb6575b8396610b8f575b5090610a9060049392610d9d565b965163ccf8541960e01b815292839182905af4958615610b82575b8096610b58575b5050610abd90610d9d565b948b51998a9760208901610ad0916105f8565b610ad9916105f8565b610ae2916105f8565b610aeb916105f8565b610af4916105f8565b610afd916105f8565b610b06916105f8565b610b0f916105f8565b0393601f19948581018552610b249085610157565b610b2d92611292565b925192839160208301610b3f916105f8565b610b48916105f8565b0390810182526109d79082610157565b610abd92965090610b7a913d8091833e610b728183610157565b810190611227565b949038610ab2565b610b8a611285565b610aab565b60049392919650610bac610a90913d8086833e610b728183610157565b9691929350610a82565b610bbe611285565b610a7b565b86919750610bdd610a5d913d8085833e610b728183610157565b979150610a52565b610bed611285565b610a4b565b610a2d919750610c0b903d8088833e610b728183610157565b9690610a23565b610c1a611285565b610a1c565b610c30909794959693919297610f9d565b91610c3a90610d9d565b96610c4490610d9d565b90610c4e90610d9d565b90604051978893602085017f5b7b2274726169745f74797065223a202253656564222c202276616c7565223a905261101160f11b604086015280519081604287019160200191610c9d926100c9565b7f227d2c7b2274726169745f74797065223a20224c6966652053636f7265222c20604291860191820152680113b30b63ab2911d160bd1b6062820152815191610cef908390606b8401906020016100c9565b7f7d2c7b2274726169745f74797065223a2022526f756e64222c202276616c7565606b9290910191820152620111d160ed1b608b820152608e01610d32916105f8565b7f7d2c7b2274726169745f74797065223a2022416765222c202276616c7565223a8152600160fd1b6020820152602101610d6b916105f8565b0393601f19948581018752610d809087610157565b610d8993611052565b9160405192839160208301610b3f916105f8565b6000908072184f03e93ff9f4daa797ed6e38ed64bf6a1f0160401b80821015610ecc575b506904ee2d6d415b85acef8160201b80831015610ebd575b50662386f26fc1000080831015610eae575b506305f5e10080831015610e9f575b5061271080831015610e90575b506064821015610e80575b600a80921015610e76575b600190816021610e2e8287016108ca565b95860101905b610e40575b5050505090565b600019019083906f181899199a1a9b1b9c1cb0b131b232b360811b8282061a835304918215610e7157919082610e34565b610e39565b9160010191610e1d565b9190606460029104910191610e12565b60049193920491019138610e07565b60089193920491019138610dfa565b60109193920491019138610deb565b60209193920491019138610dd9565b604093508104915038610dc1565b50634e487b7160e01b600052603260045260246000fd5b602090805115610eff570190565b61060b610eda565b602190805160011015610eff570190565b906020918051821015610f2a57010190565b610f32610eda565b010190565b8015610f45575b6000190190565b610f4d6107f8565b610f3e565b15610f5957565b606460405162461bcd60e51b815260206004820152602060248201527f537472696e67733a20686578206c656e67746820696e73756666696369656e746044820152fd5b60405190608082016001600160401b03811183821017611045575b6040526042825260603660208401376030610fd283610ef1565b536078610fde83610f07565b536041905b60018211610ff6576109d7915015610f52565b80600f61103292166010811015611038575b6f181899199a1a9b1b9c1cb0b131b232b360811b901a6110288486610f18565b5360041c91610f37565b90610fe3565b611040610eda565b611008565b61104d610118565b610fb8565b6001600160a01b0316929091611066610890565b93603061107286610ef1565b53607861107e86610f07565b5360295b600181116111e257506109d79361118c611192611112979561118c6111556110c26110bc6111d4996110b76111c69a15610f52565b610d9d565b93610d9d565b95607160466040519d8e809d7f7d2c7b2274726169745f74797065223a202243726561746f72222c202276616c6020830152653ab2911d101160d11b6040830152602081519485930191016100c9565b8b017f227d2c7b2274726169745f74797065223a202243726561746f724e616d65222c60468201526a10113b30b63ab2911d101160a91b606682015201906105f8565b7f227d2c7b2274726169745f74797065223a2022526577617264222c202276616c81526403ab2911d160dd1b602082015260250190565b906105f8565b7f7d2c7b2274726169745f74797065223a2022436f7374222c202276616c75652281526101d160f51b602082015260220190565b617d5d60f01b815260020190565b03601f198101835282610157565b9080600f6112159216601081101561121a575b6f181899199a1a9b1b9c1cb0b131b232b360811b901a6110288489610f18565b611082565b611222610eda565b6111f5565b60208183031261000e578051906001600160401b03821161000e570181601f8201121561000e5780516112598161017a565b926112676040519485610157565b8184526020828401011161000e576109d791602080850191016100c9565b506040513d6000823e3d90fd5b60408051636e2a56d560e01b8152929360009260049273__$6e06dd050095c7919be040ed2350b8ae73$__92909185878681875af4968715611532575b8697611512575b506112e090611988565b82516318382d3360e31b8152909786828781885af4918215611505575b87926114e5575b5061130e906115dd565b9083519262028a9960e31b845287848881895af49384156114d8575b88946114ae575b50670de0b6b3a764000061134591046116a1565b938688825197637a879de560e11b895281898481845af49889156114a1575b8299611485575b5083516321579a9d60e21b8152998a9182905af4978815611478575b899861145c575b50888251809263255106dd60e01b82528173__$80899a9967262f4ae221b5228fb0418954$__5af498891561144f575b8099611432575b50505198899860208a016113d8916105f8565b6113e1916105f8565b6113ea916105f8565b6113f3916105f8565b6113fc916105f8565b611405916105f8565b61140e916105f8565b611417916105f8565b611420916105f8565b03601f19810182526109d79082610157565b6114479299503d8091833e610b728183610157565b9638806113c5565b611457611285565b6113be565b6114719198503d808b833e610b728183610157565b963861138e565b611480611285565b611387565b61149a9199503d8084833e610b728183610157565b973861136b565b6114a9611285565b611364565b6113459194506114d0670de0b6b3a7640000913d808c833e610b728183610157565b949150611331565b6114e0611285565b61132a565b61130e9192506114fe903d808a833e610b728183610157565b9190611304565b61150d611285565b6112fd565b6112e091975061152b903d8089833e610b728183610157565b96906112d6565b61153a611285565b6112cf565b60061981019190821161081d57565b60001981019190821161081d57565b601e1981019190821161081d57565b9190820391821161081d57565b602190610547929493604051958261159b8894518092602080880191016100c9565b8301601760f91b60208201526115ba82518093602088850191016100c9565b016115ce82518093602087850191016100c9565b01036001810185520183610157565b68056bc75e2d6310000081111561160157670de0b6b3a76400006109d79104610d9d565b6109d79067016345785d8a0000611672662386f26fc1000061166b83850693611664858703878111611694575b670de0b6b3a76400008091069787891580159061168b575b1561168557818a61165e93039081116116785761156c565b04610d9d565b9504610d9d565b9204610d9d565b91611579565b6116806107f8565b61156c565b5061165e565b50801515611646565b61169c6107f8565b61162e565b629896808110156116b5576109d790611739565b64174876e8008110156116f6576109d76116d6620f42406116e99304611739565b6111d460405193849260208401906105f8565b604d60f81b815260010190565b66038d7ea4c68000811015611727576109d76116d6633b9aca0061171a9304611739565b602160f91b815260010190565b604051634eb4f9fb60e01b8152600490fd5b60606103e88083048061176c5750506109d7906111d461175b61118c94610d9d565b9160405194859360208501906105f8565b611777919250611739565b6117896109d79261178e929406610d9d565b61188e565b916111d4602160405194836117ad8795518092602080890191016100c9565b8401600b60fa1b60208201526117cc82518093602086850191016100c9565b01016105d0565b6117dc90610f9d565b604051906117e98261012f565b600e90818352602083019160203684376000805b82811061185e5750505061182e926109d79261181a6023936118fb565b9060405195869351809260208601906100c9565b82016271405360e91b602082015261184f82518093602087850191016100c9565b01036003810184520182610157565b611889906001600160f81b03196118758287610f18565b5116831a6118838289610f18565b536118e3565b6117fd565b8051600181036118bb575060405161030360f41b6020820152906109d79082906111d4906022830161118c565b6002036109d7576109d76111d491604051928391600360fc1b602084015260218301906105f8565b60019060001981146118f3570190565b61060b6107f8565b906040516119088161012f565b6015815260203681830137602d5b6042811061192357509150565b611957906001600160f81b031961193a8287610f18565b5116611883602c1983019183831161195c575b60001a9185610f18565b611916565b6119646107f8565b61194d565b604051906119768261012f565b600382526271405360e91b6020830152565b61199181611ab5565b611999611a90565b906119a381611bc8565b600c81116119b15750505090565b90925060009391935b60058110611a58575060055b6119cf8261153f565b8110156119f6576119f1906119eb6119e686611c70565b611adb565b506118e3565b6119c6565b509092611a0b611a1691611a10611a0b611969565b611ab5565b90611d2e565b90611a208161153f565b925b818410611a355750506109d79150611adb565b9091611a4a611a0b611a5092611a1085611c70565b936118e3565b929190611a22565b93611a6c611a0b611a7292611a1087611c70565b946118e3565b6119ba565b60405190611a848261012f565b60006020838281520152565b611a98611a77565b5060605160405190611aa98261012f565b81526080602082015290565b611abd611a77565b50602081519160405192611ad08461012f565b835201602082015290565b6109d7611ae882516108ca565b91602081015190519060208401611b17565b601f8111611b0a575b6101000a90565b611b126107f8565b611b03565b92905b602093848410611b795781518152848101809111611b6c575b938101809111611b5f575b91601f198101908111611b52575b91611b1a565b611b5a6107f8565b611b4c565b611b676107f8565b611b3e565b611b746107f8565b611b33565b929193506000199180611b95575b505182518216911916179052565b611bb4919250611baf9060200360208111611bbb57611afa565b61154e565b9038611b87565b611bc36107f8565b611afa565b90611be1611bd9602084015161155d565b92518361086b565b6000925b818110611bf0575050565b8051919391611c16919060ff166080811015611c1d5750611c1090610825565b916118e3565b9290611be5565b60e0811015611c305750611c109061080f565b60f0811015611c435750611c109061085d565b60f8811015611c565750611c109061084f565b60fc1115611c6757611c1090610841565b611c1090610833565b90611c83611c7c611a77565b8093611c86565b50565b611c8e611a77565b50602081019081516020840152805115611d25578151601e19015160ff166080811015611cfb57506001915b8151808411611ce35750611ccf83825161086b565b9052611cdc82825161156c565b9052815290565b600093508452611cf58251825161086b565b90525290565b60e0811015611d0d5750600291611cba565b60f01115611d1d57600391611cba565b600491611cba565b50506000815290565b6109d790611d47815184518101809111611d84576108ca565b92602080850192611d5e8282015182519086611b17565b51850101809211611d77575b6020810151905191611b17565b611d7f6107f8565b611d6a565b61092a6107f856fea2646970667358221220d8f0ba8bd65dec0d6800e5924a682c7ab7fb600089835a12704d962f8b964bdc64736f6c63430008110033",
  "libraries": {
    "RenderConstant": "0x4e8c1A8eC8b7f1039af9ceB3ebC7c8cA6Cb1cB23",
    "RenderConstant2": "0xa139D1E2f9338e244c117B133D3F451F6a41025C"
  },
  "devdoc": {
    "kind": "dev",
    "methods": {},
    "version": 1
  },
  "userdoc": {
    "kind": "user",
    "methods": {},
    "version": 1
  },
  "storageLayout": {
    "storage": [],
    "types": null
  }
}