{
  "address": "0x95DAF0cDC3149855eCe1856b370e2E4bB6E75390",
  "abi": [
    {
      "anonymous": false,
      "inputs": [
        {
          "indexed": true,
          "internalType": "uint256",
          "name": "tokenId",
          "type": "uint256"
        },
        {
          "indexed": false,
          "internalType": "uint256",
          "name": "nativeAmount",
          "type": "uint256"
        }
      ],
      "name": "ClaimNativeDrop",
      "type": "event"
    },
    {
      "anonymous": false,
      "inputs": [
        {
          "indexed": true,
          "internalType": "uint256",
          "name": "tokenId",
          "type": "uint256"
        },
        {
          "indexed": false,
          "internalType": "uint256",
          "name": "rebornAmount",
          "type": "uint256"
        }
      ],
      "name": "ClaimRebornDrop",
      "type": "event"
    },
    {
      "anonymous": false,
      "inputs": [
        {
          "indexed": true,
          "internalType": "uint256",
          "name": "tokenId",
          "type": "uint256"
        }
      ],
      "name": "DropNative",
      "type": "event"
    },
    {
      "anonymous": false,
      "inputs": [
        {
          "indexed": true,
          "internalType": "uint256",
          "name": "tokenId",
          "type": "uint256"
        }
      ],
      "name": "DropReborn",
      "type": "event"
    },
    {
      "anonymous": false,
      "inputs": [
        {
          "components": [
            {
              "internalType": "uint8",
              "name": "_dropOn",
              "type": "uint8"
            },
            {
              "internalType": "uint40",
              "name": "_rebornDropInterval",
              "type": "uint40"
            },
            {
              "internalType": "uint40",
              "name": "_nativeDropInterval",
              "type": "uint40"
            },
            {
              "internalType": "uint40",
              "name": "_rebornDropLastUpdate",
              "type": "uint40"
            },
            {
              "internalType": "uint40",
              "name": "_nativeDropLastUpdate",
              "type": "uint40"
            },
            {
              "internalType": "uint16",
              "name": "_nativeTopDropRatio",
              "type": "uint16"
            },
            {
              "internalType": "uint16",
              "name": "_nativeRaffleDropRatio",
              "type": "uint16"
            },
            {
              "internalType": "uint16",
              "name": "_rebornTopEthAmount",
              "type": "uint16"
            },
            {
              "internalType": "uint40",
              "name": "_rebornRaffleEthAmount",
              "type": "uint40"
            }
          ],
          "indexed": false,
          "internalType": "struct PortalLib.AirdropConf",
          "name": "conf",
          "type": "tuple"
        }
      ],
      "name": "NewDropConf",
      "type": "event"
    },
    {
      "anonymous": false,
      "inputs": [
        {
          "components": [
            {
              "internalType": "bytes32",
              "name": "keyHash",
              "type": "bytes32"
            },
            {
              "internalType": "uint64",
              "name": "s_subscriptionId",
              "type": "uint64"
            },
            {
              "internalType": "uint32",
              "name": "callbackGasLimit",
              "type": "uint32"
            },
            {
              "internalType": "uint32",
              "name": "numWords",
              "type": "uint32"
            },
            {
              "internalType": "uint16",
              "name": "requestConfirmations",
              "type": "uint16"
            }
          ],
          "indexed": false,
          "internalType": "struct PortalLib.VrfConf",
          "name": "conf",
          "type": "tuple"
        }
      ],
      "name": "NewVrfConf",
      "type": "event"
    },
    {
      "anonymous": false,
      "inputs": [
        {
          "indexed": true,
          "internalType": "address",
          "name": "user",
          "type": "address"
        },
        {
          "indexed": true,
          "internalType": "address",
          "name": "ref1",
          "type": "address"
        },
        {
          "indexed": false,
          "internalType": "uint256",
          "name": "amount1",
          "type": "uint256"
        },
        {
          "indexed": true,
          "internalType": "address",
          "name": "ref2",
          "type": "address"
        },
        {
          "indexed": false,
          "internalType": "uint256",
          "name": "amount2",
          "type": "uint256"
        },
        {
          "indexed": false,
          "internalType": "enum PortalLib.RewardType",
          "name": "rewardType",
          "type": "uint8"
        }
      ],
      "name": "ReferReward",
      "type": "event"
    },
    {
      "anonymous": false,
      "inputs": [
        {
          "indexed": false,
          "internalType": "address",
          "name": "signer",
          "type": "address"
        },
        {
          "indexed": false,
          "internalType": "bool",
          "name": "valid",
          "type": "bool"
        }
      ],
      "name": "SignerUpdate",
      "type": "event"
    },
    {
      "inputs": [],
      "name": "PERCENTAGE_BASE",
      "outputs": [
        {
          "internalType": "uint256",
          "name": "",
          "type": "uint256"
        }
      ],
      "stateMutability": "view",
      "type": "function"
    },
    {
      "inputs": [],
      "name": "PERSHARE_BASE",
      "outputs": [
        {
          "internalType": "uint256",
          "name": "",
          "type": "uint256"
        }
      ],
      "stateMutability": "view",
      "type": "function"
    }
  ],
  "transactionHash": "0xb5ba22c0ed1ed9768e6aee4fe59e7f0dcbf55a8a0279aae970fd340ddb8e4753",
  "args": [],
  "numDeployments": 2,
  "solcInputHash": "f6e6d452782abdad5dd9693be35085b8",
  "bytecode": "0x6080806040523461001c5761146090816100228239308160080152f35b600080fdfe604060808152307f0000000000000000000000000000000000000000000000000000000000000000146004918236101561003857600080fd5b600092833560e01c9182631747e0771461087f5782632c1affcc1461084a578263303906111461070757826336ff81e6146105df57826337bd7521146105c157826353955672146105a8578263649605331461055c57826371695c47146104d757826387c13943146104bb5782638ec42111146102d75782638ed8d427146102b9578263a79c9ca2146102a0578263b2bdfd6b14610287578263d27038601461026e578263dea23a781461011357505063df8fd621146100f757600080fd5b6101105761010d61010736610a0c565b916110fa565b80f35b80fd5b91509161026a57606036600319011261026a5767ffffffffffffffff8235602435828111610266576101489036908601610a42565b9290946044359182116102625761016191369101610a42565b949092865b8181106101f757505050845b84811061017d578580f35b6101f2907fc648f6265408cc54c0dc26d24ba51dfc9f35ce1a63baa2228f65d93aaf11cc67856001600160a01b03806101bf6101ba868c8b611406565b611416565b166000528960208781528360002060ff1981541690556101e36101ba878d8c611406565b845193168352820152a1610d7f565b610172565b61025d907fc648f6265408cc54c0dc26d24ba51dfc9f35ce1a63baa2228f65d93aaf11cc67876001600160a01b03806102346101ba86898b611406565b16600052602088815282600020906001918260ff198254161790556101e36101ba878a8c611406565b610166565b8680fd5b8580fd5b8280fd5b5050506101105761010d61028136610a0c565b91610dd7565b5050506101105761010d61029a36610a0c565b916112ab565b5050506101105761010d6102b336610a0c565b91610fab565b6102cb6102c536610943565b90610cdc565b82519182526020820152f35b91509161026a5760c036600319011261026a57602435906102f6610928565b6001600160a01b0392606435848116939192908490036102625786608435968582528035602052868483205416968783528085842054169888156000146104945783965b8a61047757505082935b866103fe575b8461038d575b50505050916001827fba677d62d32cf3ca7ea533245a2128ce25fdbee9811bd67751f522b18e98db4e94606094519384526020840152820152a480f35b16803b1561026a5784516310b3879160e11b81526001600160a01b038a1692810192835260208301859052918391839182908490829060400103925af180156103f4576103dc575b8080610350565b6103e890949294610959565b610262579186386103d5565b84513d84823e3d90fd5b908092935081168a813b156101105786516310b3879160e11b81526001600160a01b038b16868201908152602081018a90529092839182908490829060400103925af1801561046d57610456575b509089929161034a565b610464909a9193929a610959565b9890913861044c565b86513d8d823e3d90fd5b6127109161ffff61048d925460301c1690610a73565b0493610344565b6104b56127106104ac61ffff8a5460201c1684610a73565b0460a435610ac9565b9661033a565b8490816003193601126104d357602090516127108152f35b5080fd5b9084826003193601126101105781359160243567ffffffffffffffff811161026a57849391610508913691016109a5565b829190825b815184101561054d576105406105469161053a6105348661052e8988610d8e565b51610cdc565b92610ac9565b96610ac9565b93610d7f565b929361050d565b85908582519182526020820152f35b91509161026a573660031901126104d357356001602435916105a1835483678ac7230489e800009384610593600283015485610a73565b046002880155015490610a73565b0491015580f35b5050506101105761010d6105bb36610943565b90610bfc565b8490816003193601126104d35760209051678ac7230489e800008152f35b849160c036600319011261026a576024356105f8610928565b92606435608435926002841015610262576001600160a01b039586168752933560205281862054851680875282872054608097919691959116938592839180156106b5575b60011461065c575b505050815194855260208501528301526060820152f35b91955091508561069857815b948461067a5750505b92868080610645565b61271092509061ffff610692925460301c1690610a73565b04610671565b6106b06127106104ac61ffff885460201c1684610a73565b610668565b96509250866106ef57805b92856106d2576001825b97905061063d565b60016127106106e961ffff865460101c1684610a73565b046106ca565b61271061070161ffff84541685610a73565b046106c0565b91509161026a57608036600319011261026a5760243591610726610928565b6001600160a01b0390811680865291356020528285205481168086528386205490911691606435826108315786955b8461081457505085945b868184811580156107ef575b50505050851580156107bf575b506060816020986107aa897fba677d62d32cf3ca7ea533245a2128ce25fdbee9811bd67751f522b18e98db4e95610ac9565b9888519283528a83015287820152a451908152f35b8685899283906107e6575b839283928392f1156107dc5738610778565b84513d88823e3d90fd5b506108fc6107ca565b839061080b575b839283928392f1156107dc578681843861076b565b506108fc6107f6565b6127109161ffff61082a925460101c1690610a73565b049461075f565b61271061084361ffff88541683610a73565b0495610755565b8482856104d35760603660031901126104d357602435906001600160a01b038216820361026a5761010d916044359135610ad6565b8482856104d35760803660031901126104d3573561ffff6024358181169081810361092457604435928316830361092457606435600281101561026657806108de57505063ffff000083549260101b169163ffffffff19161717905580f35b600191939250146108f0575b50505080f35b65ffff0000000067ffff00000000000084549260301b169260201b169067ffffffff000000001916171790558180806108ea565b8480fd5b604435906001600160a01b038216820361093e57565b600080fd5b604090600319011261093e576004359060243590565b67ffffffffffffffff811161096d57604052565b634e487b7160e01b600052604160045260246000fd5b90601f8019910116810190811067ffffffffffffffff82111761096d57604052565b9080601f8301121561093e5781359067ffffffffffffffff821161096d578160051b604051936020936109da85840187610983565b8552838086019282010192831161093e578301905b8282106109fd575050505090565b813581529083019083016109ef565b606060031982011261093e576004359067ffffffffffffffff821161093e57610a37916004016109a5565b906024359060443590565b9181601f8401121561093e5782359167ffffffffffffffff831161093e576020808501948460051b01011161093e57565b81810292918115918404141715610a8657565b634e487b7160e01b600052601160045260246000fd5b8115610aa6570490565b634e487b7160e01b600052601260045260246000fd5b91908203918211610a8657565b91908201809211610a8657565b919060008381528260205260409160018383209433845201602052828220858352602052828220938454948515610bf357600184920154678ac7230489e80000610b4c81610b24848b610a73565b0492610b466003610b3b6001880196875490610abc565b960195865490610ac9565b99610a73565b0490555583610b5d575b5050505050565b6001600160a01b031690813b156101105782516310b3879160e11b8152336004820152602481018590529181908390604490829084905af1908115610be85750917f9bef5f4c3851b330ed02d5134476009fa312bd6b6d015b7351e0308c74481e229391602093610bd9575b5051908152a23880808080610b56565b610be290610959565b38610bc9565b8351903d90823e3d90fd5b50505050505050565b9060008281528160205260016040822092338352016020526040812083825260205260408120918254928315610b5657600283920154678ac7230489e80000610c6681610c498489610a73565b0492610c606004610b3b6002880196875490610abc565b97610a73565b0490555581158015610c79575b50505050565b8190838291610cd2575b8280929181923390f115610cc6575060207f977611d1e64f932f9f8044d7efd60da79eff6751ab692c5bdf02dc0c4520a0d691604051908152a238808080610c73565b604051903d90823e3d90fd5b6108fc9150610c83565b9190916000908082528360205260016040832094338452016020526040822090825260205260408120908154908115610d775750906003610d6b6002610d5f610d74956001610d56610d4b8b610d3f678ac7230489e80000978892015486610a73565b0460028a015490610abc565b600489015490610ac9565b99015490610a73565b04600184015490610abc565b91015490610ac9565b90565b935050508190565b6000198114610a865760010190565b8051821015610da25760209160051b010190565b634e487b7160e01b600052603260045260246000fd5b9081602091031261093e57516001600160a01b038116810361093e5790565b90610df261ffff612710925460a81c16600f85015490610a73565b046000908060021b91678ac7230489e800009260019485926005935b610e1d575b5050505050505050565b8151811015610fa657610e308183610d8e565b518015610f9b578060005288602052604060002080548015610f8e576001600160fe1b0388168803610a86578589810204891486151715610a86578087029087820403610a86576002610e88610e92928b8902610a9c565b9201918254610ac9565b90556040516331a9108f60e11b8152600480820183905290602081602481305afa908115610f8257600091610f53575b5060018060a01b0316600052888a0160205260406000208260005260205260406000208780048a1488151715610f3e57918995949391610f369301610f0a888a048254610ac9565b90557f6afe587305f85465821058331ef6a91df73bb1219f66861004e8dbfd91318d76600080a2610d7f565b909192610e0e565b601182634e487b7160e01b6000525260246000fd5b610f75915060203d602011610f7b575b610f6d8183610983565b810190610db8565b38610ec2565b503d610f63565b6040513d6000823e3d90fd5b5050505050505050505050565b505050505050505050565b610e13565b90610fc661ffff612710925460b81c16600f85015490610a73565b046000908060021b91678ac7230489e800009260019485926005935b610ff0575050505050505050565b8151811015610fa6576110038183610d8e565b518015610f9b578060005288602052604060002080548015610f8e576001600160fe1b0388168803610a86578589810204891486151715610a86578087029087820403610a86576002610e8861105b928b8902610a9c565b90556040516331a9108f60e11b8152600480820183905290602081602481305afa908115610f82576000916110db575b5060018060a01b0316600052888a0160205260406000208260005260205260406000208780048a1488151715610f3e579189959493916110d39301610f0a888a048254610ac9565b909192610fe2565b6110f4915060203d602011610f7b57610f6d8183610983565b3861108b565b929061ffff905460c81c16670de0b6b3a764000090818102918183041481151715610a865760009493673782dace9d90000082028315926005975b87518110156112a0576111488189610d8e565b5190811561129457816000528460205260406000208054801561128657888604600414881715610a8657856a3c2f7086aed236c807a1b560271b860204678ac7230489e800001486151715610a8657808c02908c820403610a86576001610e886111c2926a3c2f7086aed236c807a1b560271b8802610a9c565b90556040516331a9108f60e11b815260048101839052602081602481305afa908115610f8257600091611267575b5060018060a01b031660005260018501602052604060002082600052602052604060002091878004600114871715610a8657600361126293016112368c8a048254610ac9565b90557f9fd4c13f699772815e03d8da4431b66adadda41e17f3ff4faa8372cfe878810c600080a2610d7f565b611135565b611280915060203d602011610f7b57610f6d8183610983565b386111f0565b505050505050505050915050565b50505050505050915050565b505050505050915050565b92905460d81c670de0b6b3a764000090818102918183041481151715610a865760009493673782dace9d90000082028315926005975b87518110156112a0576112f48189610d8e565b5190811561129457816000528460205260406000208054801561128657888604600414881715610a8657856a3c2f7086aed236c807a1b560271b860204678ac7230489e800001486151715610a8657808c02908c820403610a86576001610e8861136e926a3c2f7086aed236c807a1b560271b8802610a9c565b90556040516331a9108f60e11b815260048101839052602081602481305afa908115610f82576000916113e7575b5060018060a01b031660005260018501602052604060002082600052602052604060002091878004600114871715610a865760036113e293016112368c8a048254610ac9565b6112e1565b611400915060203d602011610f7b57610f6d8183610983565b3861139c565b9190811015610da25760051b0190565b356001600160a01b038116810361093e579056fea26469706673582212200c4429d8495e4e83fb84bb3a480c95dbd87cd9d96d779c94dd2dcc78850b13b364736f6c63430008110033",
  "devdoc": {
    "kind": "dev",
    "methods": {
      "_calculatePoolDrop(uint256,IRebornDefination.SeasonData storage)": {
        "details": "calculate drop from a pool"
      },
      "_calculateReferReward(mapping(address => address) storage,PortalLib.ReferrerRewardFees storage,address,uint256,PortalLib.RewardType,uint256)": {
        "details": "returns referrer and referer reward",
        "returns": {
          "ref1": " level1 of referrer. direct referrer",
          "ref1Reward": " level 1 referrer reward",
          "ref2": " level2 of referrer. referrer's referrer",
          "ref2Reward": " level 2 referrer reward"
        }
      },
      "_pendingDrop(IRebornDefination.SeasonData storage,uint256[])": {
        "details": "read pending reward from specific pool",
        "params": {
          "tokenIds": "tokenId array of the pools"
        }
      },
      "_sendRewardToRefs(mapping(address => address) storage,PortalLib.ReferrerRewardFees storage,address,uint256)": {
        "details": "send NativeToken to referrers"
      },
      "_setReferrerRewardFee(PortalLib.ReferrerRewardFees storage,uint16,uint16,PortalLib.RewardType)": {
        "details": "set percentage of referrer reward",
        "params": {
          "rewardType": "0: incarnate reward 1: engrave reward"
        }
      },
      "_updateSigners(mapping(address => bool) storage,address[],address[])": {
        "details": "update signers",
        "params": {
          "toAdd": "list of to be added signer",
          "toRemove": "list of to be removed signer"
        }
      },
      "_vaultRewardToRefs(mapping(address => address) storage,PortalLib.ReferrerRewardFees storage,RewardVault,address,uint256,uint256)": {
        "details": "vault $REBORN token to referrers"
      }
    },
    "version": 1
  },
  "userdoc": {
    "kind": "user",
    "methods": {
      "_setReferrerRewardFee(PortalLib.ReferrerRewardFees storage,uint16,uint16,PortalLib.RewardType)": {
        "notice": "mul 10000 when set. eg: 8% -> 800 18%-> 1800"
      }
    },
    "version": 1
  },
  "storageLayout": {
    "storage": [],
    "types": null
  }
}