{
  "address": "0xe64CdA102D91e7CeFfaFfd2D5df4f18d01EFAD82",
  "abi": [
    {
      "inputs": [
        {
          "internalType": "address",
          "name": "owner_",
          "type": "address"
        }
      ],
      "stateMutability": "nonpayable",
      "type": "constructor"
    },
    {
      "inputs": [],
      "name": "AlreadyClaimed",
      "type": "error"
    },
    {
      "inputs": [],
      "name": "AmountExceedBalance",
      "type": "error"
    },
    {
      "inputs": [],
      "name": "ClaimPeriodNotStartOrEnd",
      "type": "error"
    },
    {
      "inputs": [],
      "name": "InvalidProof",
      "type": "error"
    },
    {
      "inputs": [],
      "name": "InvalidTimestap",
      "type": "error"
    },
    {
      "inputs": [],
      "name": "RootSetTwice",
      "type": "error"
    },
    {
      "inputs": [],
      "name": "ZeroRootSet",
      "type": "error"
    },
    {
      "anonymous": false,
      "inputs": [
        {
          "indexed": true,
          "internalType": "address",
          "name": "claimant",
          "type": "address"
        },
        {
          "indexed": false,
          "internalType": "uint256",
          "name": "amount",
          "type": "uint256"
        }
      ],
      "name": "Claim",
      "type": "event"
    },
    {
      "anonymous": false,
      "inputs": [
        {
          "indexed": false,
          "internalType": "uint256",
          "name": "claimPeriodEnds",
          "type": "uint256"
        }
      ],
      "name": "ClaimPeriodEndsChanged",
      "type": "event"
    },
    {
      "anonymous": false,
      "inputs": [
        {
          "indexed": false,
          "internalType": "bytes32",
          "name": "merkleRoot",
          "type": "bytes32"
        }
      ],
      "name": "MerkleRootChanged",
      "type": "event"
    },
    {
      "anonymous": false,
      "inputs": [
        {
          "indexed": true,
          "internalType": "address",
          "name": "previousOwner",
          "type": "address"
        },
        {
          "indexed": true,
          "internalType": "address",
          "name": "newOwner",
          "type": "address"
        }
      ],
      "name": "OwnershipTransferred",
      "type": "event"
    },
    {
      "anonymous": false,
      "inputs": [
        {
          "indexed": false,
          "internalType": "address",
          "name": "dest",
          "type": "address"
        },
        {
          "indexed": false,
          "internalType": "uint256",
          "name": "amount",
          "type": "uint256"
        }
      ],
      "name": "WithDrawn",
      "type": "event"
    },
    {
      "inputs": [],
      "name": "claimPeriodEnds",
      "outputs": [
        {
          "internalType": "uint256",
          "name": "",
          "type": "uint256"
        }
      ],
      "stateMutability": "view",
      "type": "function"
    },
    {
      "inputs": [
        {
          "internalType": "uint256",
          "name": "amount",
          "type": "uint256"
        },
        {
          "internalType": "bytes32[]",
          "name": "merkleProof",
          "type": "bytes32[]"
        }
      ],
      "name": "claimTokens",
      "outputs": [],
      "stateMutability": "nonpayable",
      "type": "function"
    },
    {
      "inputs": [
        {
          "internalType": "uint256",
          "name": "index",
          "type": "uint256"
        }
      ],
      "name": "isClaimed",
      "outputs": [
        {
          "internalType": "bool",
          "name": "",
          "type": "bool"
        }
      ],
      "stateMutability": "view",
      "type": "function"
    },
    {
      "inputs": [],
      "name": "merkleRoot",
      "outputs": [
        {
          "internalType": "bytes32",
          "name": "",
          "type": "bytes32"
        }
      ],
      "stateMutability": "view",
      "type": "function"
    },
    {
      "inputs": [],
      "name": "owner",
      "outputs": [
        {
          "internalType": "address",
          "name": "",
          "type": "address"
        }
      ],
      "stateMutability": "view",
      "type": "function"
    },
    {
      "inputs": [],
      "name": "renounceOwnership",
      "outputs": [],
      "stateMutability": "nonpayable",
      "type": "function"
    },
    {
      "inputs": [
        {
          "internalType": "uint256",
          "name": "claimPeriodEnds_",
          "type": "uint256"
        }
      ],
      "name": "setClaimPeriodEnds",
      "outputs": [],
      "stateMutability": "nonpayable",
      "type": "function"
    },
    {
      "inputs": [
        {
          "internalType": "bytes32",
          "name": "newMerkleRoot",
          "type": "bytes32"
        }
      ],
      "name": "setMerkleRoot",
      "outputs": [],
      "stateMutability": "nonpayable",
      "type": "function"
    },
    {
      "inputs": [
        {
          "internalType": "address",
          "name": "newOwner",
          "type": "address"
        }
      ],
      "name": "transferOwnership",
      "outputs": [],
      "stateMutability": "nonpayable",
      "type": "function"
    },
    {
      "inputs": [],
      "name": "withdraw",
      "outputs": [],
      "stateMutability": "nonpayable",
      "type": "function"
    },
    {
      "stateMutability": "payable",
      "type": "receive"
    }
  ],
  "transactionHash": "0x05fedd9e26f3218f260c7dcb75c80f07a863dc326bfe35671a3f5cd945c2d751",
  "args": [
    "0x93246E7F1618d7016A569a5F3E7B161DAb078d2d"
  ],
  "numDeployments": 3,
  "solcInputHash": "8b90955a2ea7f317ffedd7356b2453a0",
  "bytecode": "0x60803461007057601f6107d138819003918201601f19168301916001600160401b038311848410176100755780849260209460405283398101031261007057516001600160a01b0381168103610070576100619061005c3361008b565b61008b565b6040516106fe90816100d38239f35b600080fd5b634e487b7160e01b600052604160045260246000fd5b600080546001600160a01b039283166001600160a01b03198216811783559216907f8be0079c531659141344cd1fd0a4f28419497f9722a3daafe3b4186f6b6457e09080a356fe60406080815260048036101561001f575b5050361561001d57600080fd5b005b600091823560e01c80632503c057146105785780632eb4a7ab146105595780633ccfd60b146104da57806366deac47146104bb578063715018a6146104735780637cb64759146103fb5780638da5cb5b146103cf5780639a114cb2146101805780639e34070f146101545763f2fde38b1461009a5750610010565b34610150576020366003190112610150576001600160a01b0382358181169391929084900361014c576100cb6105dd565b83156100fa57505082546001600160a01b0319811683178455166000805160206106a98339815191528380a380f35b906020608492519162461bcd60e51b8352820152602660248201527f4f776e61626c653a206e6577206f776e657220697320746865207a65726f206160448201526564647265737360d01b6064820152fd5b8480fd5b8280fd5b50823461017d57602036600319011261017d575061017460209235610689565b90519015158152f35b80fd5b5090346101505781600319360112610150578035906024906001600160401b039082358281116103cb57366023820112156103cb5780820135928084116103c75760059484861b9281848201013681116103c3576002544210156103b3574789116103a3578951978960209961020c816101fe8d8201943386610635565b03601f198101835282610650565b519020918b51928a84019081528a84528c8401968488109088111761039157868d9a96959493929a52825190206001998a9661024c8d89549b018a610650565b885260609486018c8587015b83831061037e5750505050958d80965b610316575b50505050505050036103085761028233610689565b6102fa57503360081c8552600382528385209060ff33161b815417905583808380156102f0575b8280929181923390f1156102e4577f47cee97cb7acd717b3c0aa1435d004cd5b3c8c57d70dbceb4e4458bbd60e39d49192519283523392a280f35b505051903d90823e3d90fd5b6108fc91506102a9565b8451630c8d9eab60e31b8152fd5b84516309bde33960e01b8152fd5b9091929394959682518810156103765787841b8501860151918282101561036857528a528b8d205b95600019811461035657890194939291908d8a610268565b634e487b7160e01b8e5260118952858efd5b919091528a528b8d2061033e565b96508061026d565b823581528d9950918101918e9101610258565b634e487b7160e01b8e5260418952858efd5b8951635d124e8b60e11b81528690fd5b895163622e516760e01b81528690fd5b8a80fd5b8780fd5b8680fd5b8382346103f757816003193601126103f757905490516001600160a01b039091168152602090f35b5080fd5b5034610150576020366003190112610150578135916104186105dd565b6001546104655782156104575750816020917f1b930366dfeaa7eb3b325021e4ae81e36527063452ee55b86c95f85b36f4c31c9360015551908152a180f35b9051634f7e43e560e11b8152fd5b90516306238deb60e41b8152fd5b833461017d578060031936011261017d5761048c6105dd565b80546001600160a01b03198116825581906001600160a01b03166000805160206106a98339815191528280a380f35b8382346103f757816003193601126103f7576020906002549051908152f35b8382346103f757816003193601126103f7576104f46105dd565b47828082801561054f575b8280929181923390f1156105445761053e907fec02563a2a279255d98a8379169a934c5dd4fb9f242313e6dd68269cf2d7046892519182913383610635565b0390a180f35b5051903d90823e3d90fd5b6108fc91506104ff565b8382346103f757816003193601126103f7576020906001549051908152f35b5034610150576020366003190112610150578135916105956105dd565b428311156105cf5750816020917f15671967934582a50a78abf9731094ac6d395d1f9a63f2f4675748b1b121882b9360025551908152a180f35b9051634d543a8960e11b8152fd5b6000546001600160a01b031633036105f157565b606460405162461bcd60e51b815260206004820152602060248201527f4f776e61626c653a2063616c6c6572206973206e6f7420746865206f776e65726044820152fd5b6001600160a01b039091168152602081019190915260400190565b601f909101601f19168101906001600160401b0382119082101761067357604052565b634e487b7160e01b600052604160045260246000fd5b60ff6001918060081c6000526003602052161b6040600020541615159056fe8be0079c531659141344cd1fd0a4f28419497f9722a3daafe3b4186f6b6457e0a26469706673582212206f23ec06f19b99de9f38e54cfbc42ec69b84b6046d541e7afe7d704ae75ad62d64736f6c63430008110033",
  "devdoc": {
    "kind": "dev",
    "methods": {
      "claimTokens(uint256,bytes32[])": {
        "details": "Claims airdropped tokens.",
        "params": {
          "amount": "The amount of the claim being made.",
          "merkleProof": "A merkle proof proving the claim is valid."
        }
      },
      "isClaimed(uint256)": {
        "details": "Returns true if the claim at the given index in the merkle tree has already been made.",
        "params": {
          "index": "The index into the merkle tree."
        }
      },
      "owner()": {
        "details": "Returns the address of the current owner."
      },
      "renounceOwnership()": {
        "details": "Leaves the contract without owner. It will not be possible to call `onlyOwner` functions anymore. Can only be called by the current owner. NOTE: Renouncing ownership will leave the contract without an owner, thereby removing any functionality that is only available to the owner."
      },
      "setClaimPeriodEnds(uint256)": {
        "details": "Sets the claim period ends.",
        "params": {
          "claimPeriodEnds_": "The merkle root to set."
        }
      },
      "setMerkleRoot(bytes32)": {
        "details": "Sets the merkle root.",
        "params": {
          "newMerkleRoot": "The merkle root to set."
        }
      },
      "transferOwnership(address)": {
        "details": "Transfers ownership of the contract to a new account (`newOwner`). Can only be called by the current owner."
      },
      "withdraw()": {
        "details": "withdraw remaining native tokens."
      }
    },
    "version": 1
  },
  "userdoc": {
    "kind": "user",
    "methods": {},
    "version": 1
  },
  "storageLayout": {
    "storage": [
      {
        "astId": 5484,
        "contract": "src/RewardDistributor.sol:RewardDistributor",
        "label": "_owner",
        "offset": 0,
        "slot": "0",
        "type": "t_address"
      },
      {
        "astId": 12638,
        "contract": "src/RewardDistributor.sol:RewardDistributor",
        "label": "merkleRoot",
        "offset": 0,
        "slot": "1",
        "type": "t_bytes32"
      },
      {
        "astId": 12640,
        "contract": "src/RewardDistributor.sol:RewardDistributor",
        "label": "claimPeriodEnds",
        "offset": 0,
        "slot": "2",
        "type": "t_uint256"
      },
      {
        "astId": 12643,
        "contract": "src/RewardDistributor.sol:RewardDistributor",
        "label": "claimed",
        "offset": 0,
        "slot": "3",
        "type": "t_struct(BitMap)8061_storage"
      }
    ],
    "types": {
      "t_address": {
        "encoding": "inplace",
        "label": "address",
        "numberOfBytes": "20"
      },
      "t_bytes32": {
        "encoding": "inplace",
        "label": "bytes32",
        "numberOfBytes": "32"
      },
      "t_mapping(t_uint256,t_uint256)": {
        "encoding": "mapping",
        "key": "t_uint256",
        "label": "mapping(uint256 => uint256)",
        "numberOfBytes": "32",
        "value": "t_uint256"
      },
      "t_struct(BitMap)8061_storage": {
        "encoding": "inplace",
        "label": "struct BitMaps.BitMap",
        "members": [
          {
            "astId": 8060,
            "contract": "src/RewardDistributor.sol:RewardDistributor",
            "label": "_data",
            "offset": 0,
            "slot": "0",
            "type": "t_mapping(t_uint256,t_uint256)"
          }
        ],
        "numberOfBytes": "32"
      },
      "t_uint256": {
        "encoding": "inplace",
        "label": "uint256",
        "numberOfBytes": "32"
      }
    }
  }
}