{
  "address": "0x6a59D3D223E6b0A85B34f8CA2D5eE1aC90838497",
  "abi": [
    {
      "inputs": [
        {
          "internalType": "address",
          "name": "owner_",
          "type": "address"
        },
        {
          "internalType": "address",
          "name": "rebornToken_",
          "type": "address"
        }
      ],
      "stateMutability": "nonpayable",
      "type": "constructor"
    },
    {
      "inputs": [],
      "name": "ZeroAddressSet",
      "type": "error"
    },
    {
      "anonymous": false,
      "inputs": [
        {
          "indexed": true,
          "internalType": "address",
          "name": "previousOwner",
          "type": "address"
        },
        {
          "indexed": true,
          "internalType": "address",
          "name": "newOwner",
          "type": "address"
        }
      ],
      "name": "OwnershipTransferred",
      "type": "event"
    },
    {
      "anonymous": false,
      "inputs": [
        {
          "indexed": false,
          "internalType": "address",
          "name": "p12Token",
          "type": "address"
        },
        {
          "indexed": false,
          "internalType": "uint256",
          "name": "amount",
          "type": "uint256"
        }
      ],
      "name": "WithdrawEmergency",
      "type": "event"
    },
    {
      "inputs": [],
      "name": "owner",
      "outputs": [
        {
          "internalType": "address",
          "name": "",
          "type": "address"
        }
      ],
      "stateMutability": "view",
      "type": "function"
    },
    {
      "inputs": [],
      "name": "rebornToken",
      "outputs": [
        {
          "internalType": "address",
          "name": "",
          "type": "address"
        }
      ],
      "stateMutability": "view",
      "type": "function"
    },
    {
      "inputs": [],
      "name": "renounceOwnership",
      "outputs": [],
      "stateMutability": "nonpayable",
      "type": "function"
    },
    {
      "inputs": [
        {
          "internalType": "address",
          "name": "to",
          "type": "address"
        },
        {
          "internalType": "uint256",
          "name": "amount",
          "type": "uint256"
        }
      ],
      "name": "reward",
      "outputs": [],
      "stateMutability": "nonpayable",
      "type": "function"
    },
    {
      "inputs": [
        {
          "internalType": "address",
          "name": "newOwner",
          "type": "address"
        }
      ],
      "name": "transferOwnership",
      "outputs": [],
      "stateMutability": "nonpayable",
      "type": "function"
    },
    {
      "inputs": [
        {
          "internalType": "address",
          "name": "to",
          "type": "address"
        }
      ],
      "name": "withdrawEmergency",
      "outputs": [],
      "stateMutability": "nonpayable",
      "type": "function"
    }
  ],
  "transactionHash": "0x551531d84a044b0d14f4c8f4de174c0d4adb07a9c4b90406040996c41c0b20e6",
  "args": [
    "0xA751c9Ad92472D1E4eb6B6F9803311E22C5FbA9F",
    "0x5b2B3EE2E434fdBD370B3358b4F951e2b12b3aa7"
  ],
  "numDeployments": 1,
  "solcInputHash": "73294bc28cebe07814391fc273920fe9",
  "bytecode": "0x60a0346100af57601f61085038819003918201601f19168301916001600160401b038311848410176100b45780849260409485528339810103126100af57610052602061004b836100ca565b92016100ca565b9061005c336100de565b6001600160a01b0382161561009d57610074906100de565b60805260405161072a908161012682396080518181816101700152818161037f01526103c30152f35b604051630ae8f22360e21b8152600490fd5b600080fd5b634e487b7160e01b600052604160045260246000fd5b51906001600160a01b03821682036100af57565b600080546001600160a01b039283166001600160a01b03198216811783559216907f8be0079c531659141344cd1fd0a4f28419497f9722a3daafe3b4186f6b6457e09080a356fe60806040818152600436101561001457600080fd5b600091823560e01c90816316a065c6146103af5750806321670f2214610356578063715018a6146102f95780638da5cb5b146102d2578063a1c04f0e146101275763f2fde38b1461006457600080fd5b346101235760203660031901126101235761007d6103f2565b61008561040d565b6001600160a01b039081169182156100d1575082546001600160a01b0319811683178455167f8be0079c531659141344cd1fd0a4f28419497f9722a3daafe3b4186f6b6457e08380a380f35b5162461bcd60e51b815260206004820152602660248201527f4f776e61626c653a206e6577206f776e657220697320746865207a65726f206160448201526564647265737360d01b6064820152608490fd5b5080fd5b5034610123576020806003193601126102ce576101426103f2565b61014a61040d565b6001600160a01b0390808216156102bd5783516370a0823160e01b8082523060048301527f0000000000000000000000000000000000000000000000000000000000000000938416928583602481875afa9081156102b3578693899261027d575b50906101b7918561049d565b602486518094819382523060048301525afa92831561027357859361021b575b505091516001600160a01b03909216825260208201527ff58b081c2d077b17c9ef90e17090bd89e8b8b98933872e29c9352269eda3823f9080604081015b0390a180f35b9080949350813d831161026c575b6102338183610465565b81010312610268576102157ff58b081c2d077b17c9ef90e17090bd89e8b8b98933872e29c9352269eda3823f935192936101d7565b8380fd5b503d610229565b84513d87823e3d90fd5b8092508491943d83116102ac575b6102958183610465565b810103126102a8575185926101b76101ab565b8780fd5b503d61028b565b87513d8a823e3d90fd5b8351630ae8f22360e21b8152600490fd5b8280fd5b5034610123578160031936011261012357905490516001600160a01b039091168152602090f35b823461035357806003193601126103535761031261040d565b80546001600160a01b03198116825581906001600160a01b03167f8be0079c531659141344cd1fd0a4f28419497f9722a3daafe3b4186f6b6457e08280a380f35b80fd5b503461012357366003190112610353576103ac6103716103f2565b61037961040d565b602435907f00000000000000000000000000000000000000000000000000000000000000006001600160a01b031661049d565b80f35b8390346101235781600319360112610123577f00000000000000000000000000000000000000000000000000000000000000006001600160a01b03168152602090f35b600435906001600160a01b038216820361040857565b600080fd5b6000546001600160a01b0316330361042157565b606460405162461bcd60e51b815260206004820152602060248201527f4f776e61626c653a2063616c6c6572206973206e6f7420746865206f776e65726044820152fd5b90601f8019910116810190811067ffffffffffffffff82111761048757604052565b634e487b7160e01b600052604160045260246000fd5b6040805163a9059cbb60e01b60208083019182526001600160a01b03959095166024830152604480830196909652948152929390929091601f19906104e3606484610465565b84519267ffffffffffffffff916001600160a01b031690848701838111868210176104875787528785527f5361666545524332303a206c6f772d6c6576656c2063616c6c206661696c656488860152600080968192519082855af1913d15610614573d90811161060057906105759493929161056889895195601f8401160185610465565b83523d868985013e610620565b805180610584575b5050505050565b81859181010312610123578301519081159182150361035357506105aa5780808061057d565b60849250519062461bcd60e51b82526004820152602a60248201527f5361666545524332303a204552433230206f7065726174696f6e20646964206e6044820152691bdd081cdd58d8d9595960b21b6064820152fd5b634e487b7160e01b86526041600452602486fd5b50906105759392506060915b919290156106825750815115610634575090565b3b1561063d5790565b60405162461bcd60e51b815260206004820152601d60248201527f416464726573733a2063616c6c20746f206e6f6e2d636f6e74726163740000006044820152606490fd5b8251909150156106955750805190602001fd5b6040519062461bcd60e51b82528160208060048301528251908160248401526000935b8285106106db575050604492506000838284010152601f80199101168101030190fd5b84810182015186860160440152938101938593506106b856fea26469706673582212202fe6bff8b2f7463980ca4783f8a7c5e100f8a17825c2d303a18eca7d2aba56cb64736f6c63430008110033",
  "devdoc": {
    "kind": "dev",
    "methods": {
      "owner()": {
        "details": "Returns the address of the current owner."
      },
      "renounceOwnership()": {
        "details": "Leaves the contract without owner. It will not be possible to call `onlyOwner` functions anymore. Can only be called by the current owner. NOTE: Renouncing ownership will leave the contract without an owner, thereby removing any functionality that is only available to the owner."
      },
      "reward(address,uint256)": {
        "params": {
          "amount": "number of awards",
          "to": "The address of awards"
        }
      },
      "transferOwnership(address)": {
        "details": "Transfers ownership of the contract to a new account (`newOwner`). Can only be called by the current owner."
      }
    },
    "version": 1
  },
  "userdoc": {
    "kind": "user",
    "methods": {
      "reward(address,uint256)": {
        "notice": "Send reward to user"
      },
      "withdrawEmergency(address)": {
        "notice": "withdraw token Emergency"
      }
    },
    "version": 1
  },
  "storageLayout": {
    "storage": [
      {
        "astId": 5484,
        "contract": "src/RewardVault.sol:RewardVault",
        "label": "_owner",
        "offset": 0,
        "slot": "0",
        "type": "t_address"
      }
    ],
    "types": {
      "t_address": {
        "encoding": "inplace",
        "label": "address",
        "numberOfBytes": "20"
      }
    }
  }
}