{
  "address": "0x52c374f7DaeC8633Cf9FfD80814C06e787D6705e",
  "abi": [
    {
      "inputs": [],
      "name": "AlreadyMinted",
      "type": "error"
    },
    {
      "inputs": [],
      "name": "CallerNotOwner",
      "type": "error"
    },
    {
      "inputs": [],
      "name": "CallerNotPendingOwner",
      "type": "error"
    },
    {
      "inputs": [],
      "name": "CanNotOpenMysteryBoxTwice",
      "type": "error"
    },
    {
      "inputs": [],
      "name": "InvalidParams",
      "type": "error"
    },
    {
      "inputs": [],
      "name": "InvalidProof",
      "type": "error"
    },
    {
      "inputs": [],
      "name": "InvalidTime",
      "type": "error"
    },
    {
      "inputs": [],
      "name": "InvalidTokens",
      "type": "error"
    },
    {
      "inputs": [],
      "name": "LevelZeroCannotBurn",
      "type": "error"
    },
    {
      "inputs": [],
      "name": "MintFeeNotEnough",
      "type": "error"
    },
    {
      "inputs": [],
      "name": "NotSigner",
      "type": "error"
    },
    {
      "inputs": [],
      "name": "NotTokenOwner",
      "type": "error"
    },
    {
      "inputs": [],
      "name": "OnlyShardsCanMerge",
      "type": "error"
    },
    {
      "inputs": [],
      "name": "OutOfMaxMintCount",
      "type": "error"
    },
    {
      "inputs": [],
      "name": "TokenIdNotExsis",
      "type": "error"
    },
    {
      "inputs": [],
      "name": "ZeroAddressOwnerSet",
      "type": "error"
    },
    {
      "inputs": [],
      "name": "ZeroAddressSet",
      "type": "error"
    },
    {
      "inputs": [],
      "name": "ZeroOwnerSet",
      "type": "error"
    },
    {
      "inputs": [],
      "name": "ZeroRootSet",
      "type": "error"
    },
    {
      "anonymous": false,
      "inputs": [
        {
          "indexed": false,
          "internalType": "address",
          "name": "previousAdmin",
          "type": "address"
        },
        {
          "indexed": false,
          "internalType": "address",
          "name": "newAdmin",
          "type": "address"
        }
      ],
      "name": "AdminChanged",
      "type": "event"
    },
    {
      "anonymous": false,
      "inputs": [
        {
          "indexed": true,
          "internalType": "address",
          "name": "beacon",
          "type": "address"
        }
      ],
      "name": "BeaconUpgraded",
      "type": "event"
    },
    {
      "anonymous": false,
      "inputs": [
        {
          "indexed": false,
          "internalType": "address",
          "name": "account",
          "type": "address"
        },
        {
          "indexed": false,
          "internalType": "uint256",
          "name": "tokenId",
          "type": "uint256"
        },
        {
          "indexed": false,
          "internalType": "uint256",
          "name": "refundNativeToken",
          "type": "uint256"
        },
        {
          "indexed": false,
          "internalType": "uint256",
          "name": "refundDegenToken",
          "type": "uint256"
        }
      ],
      "name": "BurnToken",
      "type": "event"
    },
    {
      "anonymous": false,
      "inputs": [
        {
          "indexed": false,
          "internalType": "uint8",
          "name": "version",
          "type": "uint8"
        }
      ],
      "name": "Initialized",
      "type": "event"
    },
    {
      "anonymous": false,
      "inputs": [
        {
          "indexed": true,
          "internalType": "address",
          "name": "from",
          "type": "address"
        },
        {
          "indexed": false,
          "internalType": "uint256",
          "name": "tokenId1",
          "type": "uint256"
        },
        {
          "indexed": false,
          "internalType": "uint256",
          "name": "tokenId2",
          "type": "uint256"
        },
        {
          "indexed": false,
          "internalType": "uint256",
          "name": "newTokenId",
          "type": "uint256"
        }
      ],
      "name": "MergeTokens",
      "type": "event"
    },
    {
      "anonymous": false,
      "inputs": [
        {
          "indexed": false,
          "internalType": "bytes32",
          "name": "root",
          "type": "bytes32"
        }
      ],
      "name": "MerkleTreeRootSet",
      "type": "event"
    },
    {
      "anonymous": false,
      "inputs": [
        {
          "indexed": false,
          "internalType": "uint256",
          "name": "mintFee",
          "type": "uint256"
        }
      ],
      "name": "MintFeeSet",
      "type": "event"
    },
    {
      "anonymous": false,
      "inputs": [
        {
          "indexed": true,
          "internalType": "address",
          "name": "receiver",
          "type": "address"
        },
        {
          "indexed": false,
          "internalType": "uint256",
          "name": "quantity",
          "type": "uint256"
        },
        {
          "indexed": false,
          "internalType": "uint256",
          "name": "startTokenId",
          "type": "uint256"
        }
      ],
      "name": "Minted",
      "type": "event"
    },
    {
      "anonymous": false,
      "inputs": [
        {
          "indexed": true,
          "internalType": "address",
          "name": "previousOwner",
          "type": "address"
        },
        {
          "indexed": true,
          "internalType": "address",
          "name": "newOwner",
          "type": "address"
        }
      ],
      "name": "OwnershipTransferred",
      "type": "event"
    },
    {
      "anonymous": false,
      "inputs": [
        {
          "indexed": false,
          "internalType": "address",
          "name": "account",
          "type": "address"
        }
      ],
      "name": "Paused",
      "type": "event"
    },
    {
      "anonymous": false,
      "inputs": [
        {
          "indexed": false,
          "internalType": "uint256",
          "name": "bucket",
          "type": "uint256"
        },
        {
          "indexed": false,
          "internalType": "uint256",
          "name": "bucketValue",
          "type": "uint256"
        }
      ],
      "name": "SetBucket",
      "type": "event"
    },
    {
      "anonymous": false,
      "inputs": [
        {
          "indexed": false,
          "internalType": "uint256",
          "name": "level",
          "type": "uint256"
        },
        {
          "components": [
            {
              "internalType": "uint256",
              "name": "nativeToken",
              "type": "uint256"
            },
            {
              "internalType": "uint256",
              "name": "degenToken",
              "type": "uint256"
            }
          ],
          "indexed": false,
          "internalType": "struct INFTManagerDefination.BurnRefundConfig",
          "name": "burnRefundConfigs",
          "type": "tuple"
        }
      ],
      "name": "SetBurnRefundConfig",
      "type": "event"
    },
    {
      "anonymous": false,
      "inputs": [
        {
          "indexed": false,
          "internalType": "address",
          "name": "degenNFT",
          "type": "address"
        }
      ],
      "name": "SetDegenNFT",
      "type": "event"
    },
    {
      "anonymous": false,
      "inputs": [
        {
          "indexed": false,
          "internalType": "enum INFTManagerDefination.StageType",
          "name": "stageType",
          "type": "uint8"
        },
        {
          "components": [
            {
              "internalType": "uint256",
              "name": "startTime",
              "type": "uint256"
            },
            {
              "internalType": "uint256",
              "name": "endTime",
              "type": "uint256"
            }
          ],
          "indexed": false,
          "internalType": "struct INFTManagerDefination.StageTime",
          "name": "stageTime",
          "type": "tuple"
        }
      ],
      "name": "SetMintTime",
      "type": "event"
    },
    {
      "anonymous": false,
      "inputs": [
        {
          "indexed": true,
          "internalType": "address",
          "name": "signer",
          "type": "address"
        },
        {
          "indexed": false,
          "internalType": "bool",
          "name": "valid",
          "type": "bool"
        }
      ],
      "name": "SignerUpdate",
      "type": "event"
    },
    {
      "anonymous": false,
      "inputs": [
        {
          "indexed": false,
          "internalType": "address",
          "name": "account",
          "type": "address"
        }
      ],
      "name": "Unpaused",
      "type": "event"
    },
    {
      "anonymous": false,
      "inputs": [
        {
          "indexed": true,
          "internalType": "address",
          "name": "implementation",
          "type": "address"
        }
      ],
      "name": "Upgraded",
      "type": "event"
    },
    {
      "inputs": [],
      "name": "SUPPORT_MAX_MINT_COUNT",
      "outputs": [
        {
          "internalType": "uint256",
          "name": "",
          "type": "uint256"
        }
      ],
      "stateMutability": "view",
      "type": "function"
    },
    {
      "inputs": [
        {
          "internalType": "uint256",
          "name": "tokenId",
          "type": "uint256"
        }
      ],
      "name": "burn",
      "outputs": [],
      "stateMutability": "nonpayable",
      "type": "function"
    },
    {
      "inputs": [
        {
          "internalType": "uint256",
          "name": "tokenId1",
          "type": "uint256"
        },
        {
          "internalType": "uint256",
          "name": "tokenId2",
          "type": "uint256"
        }
      ],
      "name": "checkPropertiesEq",
      "outputs": [
        {
          "internalType": "bool",
          "name": "",
          "type": "bool"
        }
      ],
      "stateMutability": "view",
      "type": "function"
    },
    {
      "inputs": [
        {
          "internalType": "bytes32[]",
          "name": "merkleProof",
          "type": "bytes32[]"
        },
        {
          "internalType": "address",
          "name": "account",
          "type": "address"
        }
      ],
      "name": "checkWhiteList",
      "outputs": [
        {
          "internalType": "bool",
          "name": "valid",
          "type": "bool"
        }
      ],
      "stateMutability": "view",
      "type": "function"
    },
    {
      "inputs": [],
      "name": "claimOwnership",
      "outputs": [],
      "stateMutability": "nonpayable",
      "type": "function"
    },
    {
      "inputs": [],
      "name": "degenNFT",
      "outputs": [
        {
          "internalType": "contract DegenNFT",
          "name": "",
          "type": "address"
        }
      ],
      "stateMutability": "view",
      "type": "function"
    },
    {
      "inputs": [
        {
          "internalType": "uint256",
          "name": "level",
          "type": "uint256"
        }
      ],
      "name": "getBurnRefundConfigs",
      "outputs": [
        {
          "components": [
            {
              "internalType": "uint256",
              "name": "nativeToken",
              "type": "uint256"
            },
            {
              "internalType": "uint256",
              "name": "degenToken",
              "type": "uint256"
            }
          ],
          "internalType": "struct INFTManagerDefination.BurnRefundConfig",
          "name": "",
          "type": "tuple"
        }
      ],
      "stateMutability": "view",
      "type": "function"
    },
    {
      "inputs": [
        {
          "internalType": "address",
          "name": "owner_",
          "type": "address"
        }
      ],
      "name": "initialize",
      "outputs": [],
      "stateMutability": "nonpayable",
      "type": "function"
    },
    {
      "inputs": [
        {
          "internalType": "uint256",
          "name": "tokenId1",
          "type": "uint256"
        },
        {
          "internalType": "uint256",
          "name": "tokenId2",
          "type": "uint256"
        }
      ],
      "name": "merge",
      "outputs": [],
      "stateMutability": "nonpayable",
      "type": "function"
    },
    {
      "inputs": [],
      "name": "merkleRoot",
      "outputs": [
        {
          "internalType": "bytes32",
          "name": "",
          "type": "bytes32"
        }
      ],
      "stateMutability": "view",
      "type": "function"
    },
    {
      "inputs": [],
      "name": "mintFee",
      "outputs": [
        {
          "internalType": "uint256",
          "name": "",
          "type": "uint256"
        }
      ],
      "stateMutability": "view",
      "type": "function"
    },
    {
      "inputs": [
        {
          "internalType": "address",
          "name": "account",
          "type": "address"
        }
      ],
      "name": "minted",
      "outputs": [
        {
          "internalType": "bool",
          "name": "",
          "type": "bool"
        }
      ],
      "stateMutability": "view",
      "type": "function"
    },
    {
      "inputs": [
        {
          "internalType": "uint256[]",
          "name": "tokenIds",
          "type": "uint256[]"
        },
        {
          "components": [
            {
              "internalType": "uint16",
              "name": "nameId",
              "type": "uint16"
            },
            {
              "internalType": "uint16",
              "name": "rarity",
              "type": "uint16"
            },
            {
              "internalType": "uint16",
              "name": "tokenType",
              "type": "uint16"
            }
          ],
          "internalType": "struct IDegenNFTDefination.Property[]",
          "name": "metadataList",
          "type": "tuple[]"
        }
      ],
      "name": "openMysteryBox",
      "outputs": [],
      "stateMutability": "nonpayable",
      "type": "function"
    },
    {
      "inputs": [],
      "name": "owner",
      "outputs": [
        {
          "internalType": "address",
          "name": "",
          "type": "address"
        }
      ],
      "stateMutability": "view",
      "type": "function"
    },
    {
      "inputs": [],
      "name": "paused",
      "outputs": [
        {
          "internalType": "bool",
          "name": "",
          "type": "bool"
        }
      ],
      "stateMutability": "view",
      "type": "function"
    },
    {
      "inputs": [],
      "name": "pendingOwner",
      "outputs": [
        {
          "internalType": "address",
          "name": "",
          "type": "address"
        }
      ],
      "stateMutability": "view",
      "type": "function"
    },
    {
      "inputs": [],
      "name": "proxiableUUID",
      "outputs": [
        {
          "internalType": "bytes32",
          "name": "",
          "type": "bytes32"
        }
      ],
      "stateMutability": "view",
      "type": "function"
    },
    {
      "inputs": [
        {
          "internalType": "uint256",
          "name": "quantity",
          "type": "uint256"
        }
      ],
      "name": "publicMint",
      "outputs": [],
      "stateMutability": "payable",
      "type": "function"
    },
    {
      "inputs": [],
      "name": "renounceOwnership",
      "outputs": [],
      "stateMutability": "nonpayable",
      "type": "function"
    },
    {
      "inputs": [
        {
          "internalType": "uint256[]",
          "name": "levels",
          "type": "uint256[]"
        },
        {
          "components": [
            {
              "internalType": "uint256",
              "name": "nativeToken",
              "type": "uint256"
            },
            {
              "internalType": "uint256",
              "name": "degenToken",
              "type": "uint256"
            }
          ],
          "internalType": "struct INFTManagerDefination.BurnRefundConfig[]",
          "name": "configs",
          "type": "tuple[]"
        }
      ],
      "name": "setBurnRefundConfig",
      "outputs": [],
      "stateMutability": "nonpayable",
      "type": "function"
    },
    {
      "inputs": [
        {
          "internalType": "address",
          "name": "degenNFT_",
          "type": "address"
        }
      ],
      "name": "setDegenNFT",
      "outputs": [],
      "stateMutability": "nonpayable",
      "type": "function"
    },
    {
      "inputs": [
        {
          "internalType": "bytes32",
          "name": "root",
          "type": "bytes32"
        }
      ],
      "name": "setMerkleRoot",
      "outputs": [],
      "stateMutability": "nonpayable",
      "type": "function"
    },
    {
      "inputs": [
        {
          "internalType": "uint256",
          "name": "mintFee_",
          "type": "uint256"
        }
      ],
      "name": "setMintFee",
      "outputs": [],
      "stateMutability": "nonpayable",
      "type": "function"
    },
    {
      "inputs": [
        {
          "internalType": "enum INFTManagerDefination.StageType",
          "name": "mintType_",
          "type": "uint8"
        },
        {
          "components": [
            {
              "internalType": "uint256",
              "name": "startTime",
              "type": "uint256"
            },
            {
              "internalType": "uint256",
              "name": "endTime",
              "type": "uint256"
            }
          ],
          "internalType": "struct INFTManagerDefination.StageTime",
          "name": "mintTime_",
          "type": "tuple"
        }
      ],
      "name": "setMintTime",
      "outputs": [],
      "stateMutability": "nonpayable",
      "type": "function"
    },
    {
      "inputs": [
        {
          "internalType": "address",
          "name": "",
          "type": "address"
        }
      ],
      "name": "signers",
      "outputs": [
        {
          "internalType": "bool",
          "name": "",
          "type": "bool"
        }
      ],
      "stateMutability": "view",
      "type": "function"
    },
    {
      "inputs": [
        {
          "internalType": "address",
          "name": "newOwner",
          "type": "address"
        },
        {
          "internalType": "bool",
          "name": "direct",
          "type": "bool"
        }
      ],
      "name": "transferOwnership",
      "outputs": [],
      "stateMutability": "nonpayable",
      "type": "function"
    },
    {
      "inputs": [
        {
          "internalType": "address[]",
          "name": "toAdd",
          "type": "address[]"
        },
        {
          "internalType": "address[]",
          "name": "toRemove",
          "type": "address[]"
        }
      ],
      "name": "updateSigners",
      "outputs": [],
      "stateMutability": "nonpayable",
      "type": "function"
    },
    {
      "inputs": [
        {
          "internalType": "address",
          "name": "newImplementation",
          "type": "address"
        }
      ],
      "name": "upgradeTo",
      "outputs": [],
      "stateMutability": "nonpayable",
      "type": "function"
    },
    {
      "inputs": [
        {
          "internalType": "address",
          "name": "newImplementation",
          "type": "address"
        },
        {
          "internalType": "bytes",
          "name": "data",
          "type": "bytes"
        }
      ],
      "name": "upgradeToAndCall",
      "outputs": [],
      "stateMutability": "payable",
      "type": "function"
    },
    {
      "inputs": [
        {
          "internalType": "bytes32[]",
          "name": "merkleProof",
          "type": "bytes32[]"
        }
      ],
      "name": "whitelistMint",
      "outputs": [],
      "stateMutability": "payable",
      "type": "function"
    },
    {
      "inputs": [
        {
          "internalType": "address",
          "name": "to",
          "type": "address"
        },
        {
          "internalType": "uint256",
          "name": "amount",
          "type": "uint256"
        }
      ],
      "name": "withdraw",
      "outputs": [],
      "stateMutability": "nonpayable",
      "type": "function"
    }
  ],
  "transactionHash": "0x741895cf8599d595cdc001394b73a906979038a1f071b390d88e92547f4fd518",
  "args": [],
  "numDeployments": 3,
  "solcInputHash": "df22f34886781b86952902c8b201ff3a",
  "bytecode": "0x60a06040523060805234801561001457600080fd5b50608051612c4461004c600039600081816109210152818161096a01528181610e6a01528181610eaa0152610f390152612c446000f3fe6080604052600436106101d85760003560e01c80637cb6475911610102578063c4d66de811610095578063e30c397811610064578063e30c39781461055c578063eddd0d9c1461057a578063f3fef3a31461059a578063fa998f29146105ba57600080fd5b8063c4d66de8146104dc578063d1a1c45d146104fc578063d1c2babb1461051c578063dca25b131461053c57600080fd5b806397a0d22d116100d157806397a0d22d14610420578063a92ed6ac14610440578063b242e53414610456578063bcdc95981461047657600080fd5b80637cb647591461038e5780638da5cb5b146103ae5780638fe256dd146103e05780639408b63f1461040057600080fd5b806342966c681161017a578063565b47b511610149578063565b47b5146103115780635c975abb14610331578063715018a614610349578063736c0d5b1461035e57600080fd5b806342966c68146102b45780634e71e0c8146102d45780634f1ef286146102e957806352d1902d146102fc57600080fd5b80632eb4a7ab116101b65780632eb4a7ab1461024b578063350b2369146102615780633659cfe614610281578063372f657c146102a157600080fd5b806313966db5146101dd5780631e7269c5146102065780632db1154414610236575b600080fd5b3480156101e957600080fd5b506101f360cf5481565b6040519081526020015b60405180910390f35b34801561021257600080fd5b5061022661022136600461238b565b6105da565b60405190151581526020016101fd565b6102496102443660046123a8565b610614565b005b34801561025757600080fd5b506101f360ca5481565b34801561026d57600080fd5b5061024961027c36600461240d565b610728565b34801561028d57600080fd5b5061024961029c36600461238b565b610917565b6102496102af366004612479565b6109ff565b3480156102c057600080fd5b506102496102cf3660046123a8565b610b63565b3480156102e057600080fd5b50610249610e2b565b6102496102f7366004612502565b610e60565b34801561030857600080fd5b506101f3610f2c565b34801561031d57600080fd5b5061024961032c3660046125aa565b610fdf565b34801561033d57600080fd5b5060fb5460ff16610226565b34801561035557600080fd5b506102496110cc565b34801561036a57600080fd5b5061022661037936600461238b565b60cb6020526000908152604090205460ff1681565b34801561039a57600080fd5b506102496103a93660046123a8565b611101565b3480156103ba57600080fd5b506033546001600160a01b03165b6040516001600160a01b0390911681526020016101fd565b3480156103ec57600080fd5b506102266103fb366004612644565b611186565b34801561040c57600080fd5b5060c9546103c8906001600160a01b031681565b34801561042c57600080fd5b5061022661043b366004612666565b61129f565b34801561044c57600080fd5b506101f36107d981565b34801561046257600080fd5b506102496104713660046126cb565b61132e565b34801561048257600080fd5b506104cf6104913660046123a8565b604080518082019091526000808252602082015250600090815260ce6020908152604091829020825180840190935280548352600101549082015290565b6040516101fd9190612704565b3480156104e857600080fd5b506102496104f736600461238b565b6113ae565b34801561050857600080fd5b5061024961051736600461238b565b6114f0565b34801561052857600080fd5b50610249610537366004612644565b611590565b34801561054857600080fd5b5061024961055736600461271b565b611868565b34801561056857600080fd5b506034546001600160a01b03166103c8565b34801561058657600080fd5b506102496105953660046123a8565b611932565b3480156105a657600080fd5b506102496105b5366004612760565b611992565b3480156105c657600080fd5b506102496105d536600461278c565b6119f8565b72ffffffffffffffffffffffffffffffffffffff600882901c16600090815260cc6020526040812054600160ff84161b1615155b92915050565b61061c611af7565b600261062781611b3d565b6107d98260c960009054906101000a90046001600160a01b03166001600160a01b031663a2309ff86040518163ffffffff1660e01b8152600401602060405180830381865afa15801561067e573d6000803e3d6000fd5b505050506040513d601f19601f820116820180604052508101906106a29190612817565b6106ac9190612846565b11156106cb57604051634fcd692360e01b815260040160405180910390fd5b816000036106ec57604051635435b28960e11b815260040160405180910390fd5b8160cf546106fa9190612859565b34101561071a57604051630eea093360e41b815260040160405180910390fd5b6107243383611bd8565b5050565b6033546001600160a01b0316331461075357604051632e6c18c960e11b815260040160405180910390fd5b60005b8381101561083157600160cb600087878581811061077657610776612870565b905060200201602081019061078b919061238b565b6001600160a01b031681526020810191909152604001600020805460ff19169115159190911790558484828181106107c5576107c5612870565b90506020020160208101906107da919061238b565b6001600160a01b03167fc648f6265408cc54c0dc26d24ba51dfc9f35ce1a63baa2228f65d93aaf11cc676001604051610817911515815260200190565b60405180910390a28061082981612886565b915050610756565b5060005b8181101561091057600060cb600085858581811061085557610855612870565b905060200201602081019061086a919061238b565b6001600160a01b031681526020810191909152604001600020805460ff19169115159190911790558282828181106108a4576108a4612870565b90506020020160208101906108b9919061238b565b6001600160a01b03167fc648f6265408cc54c0dc26d24ba51dfc9f35ce1a63baa2228f65d93aaf11cc6760006040516108f6911515815260200190565b60405180910390a28061090881612886565b915050610835565b5050505050565b6001600160a01b037f00000000000000000000000000000000000000000000000000000000000000001630036109685760405162461bcd60e51b815260040161095f9061289f565b60405180910390fd5b7f00000000000000000000000000000000000000000000000000000000000000006001600160a01b03166109b1600080516020612bc8833981519152546001600160a01b031690565b6001600160a01b0316146109d75760405162461bcd60e51b815260040161095f906128eb565b6109e081611cee565b604080516000808252602082019092526109fc91839190611d19565b50565b610a07611af7565b6001610a1281611b3d565b33600881901c600090815260cc6020526040902054600160ff9092169190911b1615610a5157604051631bbdf5c560e31b815260040160405180910390fd5b60c9546040805163144613ff60e31b815290516107d9926001600160a01b03169163a2309ff89160048083019260209291908290030181865afa158015610a9c573d6000803e3d6000fd5b505050506040513d601f19601f82011682018060405250810190610ac09190612817565b10610ade57604051634fcd692360e01b815260040160405180910390fd5b60cf54341015610b0157604051630eea093360e41b815260040160405180910390fd5b6000610b0e84843361129f565b905080610b2e576040516309bde33960e01b815260040160405180910390fd5b33600881901c600090815260cc602052604090208054600160ff841681901b909117909155610b5d9190611bd8565b50505050565b6004610b6e81611b3d565b610b76611af7565b60c954604051634f558e7960e01b8152600481018490526001600160a01b0390911690634f558e7990602401602060405180830381865afa158015610bbf573d6000803e3d6000fd5b505050506040513d601f19601f82011682018060405250810190610be39190612937565b610c005760405163c72ea0df60e01b815260040160405180910390fd5b60c954604051630219207560e61b8152600481018490526000916001600160a01b0316906386481d4090602401602060405180830381865afa158015610c4a573d6000803e3d6000fd5b505050506040513d601f19601f82011682018060405250810190610c6e9190612817565b905080600003610d0e5760c9546040516332665ffb60e01b8152600160048201526000916001600160a01b0316906332665ffb90602401606060405180830381865afa158015610cc2573d6000803e3d6000fd5b505050506040513d601f19601f82011682018060405250810190610ce69190612964565b805190915061ffff16610d0c57604051639c21386760e01b815260040160405180910390fd5b505b610d183384611e84565b60c954604051630852cd8d60e31b8152600481018590526001600160a01b03909116906342966c6890602401600060405180830381600087803b158015610d5e57600080fd5b505af1158015610d72573d6000803e3d6000fd5b505050600082815260ce6020908152604091829020825180840190935280548084526001909101549183019190915290915015610dd8578051604051339180156108fc02916000818181858888f19350505050158015610dd6573d6000803e3d6000fd5b505b80516020808301516040805133815292830188905282810193909352606082015290517f7147ecaba15988b82ec4faa5350185f0d0113e8803ef3bf7b5b84ae242458e929181900360800190a150505050565b6034546001600160a01b03163314610e56576040516305e05b4b60e31b815260040160405180910390fd5b610e5e611f1a565b565b6001600160a01b037f0000000000000000000000000000000000000000000000000000000000000000163003610ea85760405162461bcd60e51b815260040161095f9061289f565b7f00000000000000000000000000000000000000000000000000000000000000006001600160a01b0316610ef1600080516020612bc8833981519152546001600160a01b031690565b6001600160a01b031614610f175760405162461bcd60e51b815260040161095f906128eb565b610f2082611cee565b61072482826001611d19565b6000306001600160a01b037f00000000000000000000000000000000000000000000000000000000000000001614610fcc5760405162461bcd60e51b815260206004820152603860248201527f555550535570677261646561626c653a206d757374206e6f742062652063616c60448201527f6c6564207468726f7567682064656c656761746563616c6c0000000000000000606482015260840161095f565b50600080516020612bc883398151915290565b6033546001600160a01b0316331461100a57604051632e6c18c960e11b815260040160405180910390fd5b60005b8181101561091057600085858381811061102957611029612870565b905060200201359050600084848481811061104657611046612870565b90506040020180360381019061105c91906129d6565b600083815260ce60209081526040918290208351815590830151600190910155519091507fad51317643737facdb3d3278264a77edbc87d0a4f7386d13989e49b4f7c41a4b906110af9084908490612a25565b60405180910390a1505080806110c490612886565b91505061100d565b6033546001600160a01b031633146110f757604051632e6c18c960e11b815260040160405180910390fd5b610e5e6000611f83565b6033546001600160a01b0316331461112c57604051632e6c18c960e11b815260040160405180910390fd5b8061114a57604051634f7e43e560e11b815260040160405180910390fd5b60ca8190556040518181527fee57e5823f2b1e5c86511f68be75ba1cda75fbacfbe570de45abd81e94e2cfd7906020015b60405180910390a150565b60c9546040516332665ffb60e01b81526004810184905260009182916001600160a01b03909116906332665ffb90602401606060405180830381865afa1580156111d4573d6000803e3d6000fd5b505050506040513d601f19601f820116820180604052508101906111f89190612964565b60c9546040516332665ffb60e01b8152600481018690529192506000916001600160a01b03909116906332665ffb90602401606060405180830381865afa158015611247573d6000803e3d6000fd5b505050506040513d601f19601f8201168201806040525081019061126b9190612964565b8051835191925061ffff91821691161480156112965750806040015161ffff16826040015161ffff16145b95945050505050565b604080516001600160a01b038316602082015260009182910160408051601f19818403018152828252805160209182012090830152016040516020818303038152906040528051906020012090506112968585808060200260200160405190810160405280939291908181526020018383602002808284376000920191909152505060ca549150849050611ff9565b6033546001600160a01b0316331461135957604051632e6c18c960e11b815260040160405180910390fd5b6001600160a01b03821661138057604051633aafecb360e21b815260040160405180910390fd5b801561138f5761072482611f83565b603480546001600160a01b0319166001600160a01b0384161790555050565b600054610100900460ff16158080156113ce5750600054600160ff909116105b806113e85750303b1580156113e8575060005460ff166001145b61144b5760405162461bcd60e51b815260206004820152602e60248201527f496e697469616c697a61626c653a20636f6e747261637420697320616c72656160448201526d191e481a5b9a5d1a585b1a5e995960921b606482015260840161095f565b6000805460ff19166001179055801561146e576000805461ff0019166101001790555b6001600160a01b03821661149557604051636500287b60e11b815260040160405180910390fd5b61149e82612011565b6114a6612041565b8015610724576000805461ff0019169055604051600181527f7f26b83ff96e1f2b6a682f133852f6798a09c465da95921460cefb3847402498906020015b60405180910390a15050565b6033546001600160a01b0316331461151b57604051632e6c18c960e11b815260040160405180910390fd5b6001600160a01b03811661154257604051630ae8f22360e21b815260040160405180910390fd5b60c980546001600160a01b0319166001600160a01b0383169081179091556040519081527f1f26a402d31b19e7f51c0d12f232a4d64db0619b5332f1a45abd25fbe05dc8e09060200161117b565b600361159b81611b3d565b6115a3611af7565b6115ad3384611e84565b6115b73383611e84565b60006115c38484611186565b9050806115e3576040516333910aef60e11b815260040160405180910390fd5b60c9546040516332665ffb60e01b8152600481018690526000916001600160a01b0316906332665ffb90602401606060405180830381865afa15801561162d573d6000803e3d6000fd5b505050506040513d601f19601f820116820180604052508101906116519190612964565b604081015190915061ffff1660011461167d576040516343d06f9160e11b815260040160405180910390fd5b60c954604051630852cd8d60e31b8152600481018790526001600160a01b03909116906342966c6890602401600060405180830381600087803b1580156116c357600080fd5b505af11580156116d7573d6000803e3d6000fd5b505060c954604051630852cd8d60e31b8152600481018890526001600160a01b0390911692506342966c689150602401600060405180830381600087803b15801561172157600080fd5b505af1158015611735573d6000803e3d6000fd5b50505050600060c960009054906101000a90046001600160a01b03166001600160a01b03166375794a3c6040518163ffffffff1660e01b8152600401602060405180830381865afa15801561178e573d6000803e3d6000fd5b505050506040513d601f19601f820116820180604052508101906117b29190612817565b90506117bf336001611bd8565b604080518781526020810187905290810182905233907f8f344e6736e186a058023676aee136a6cff473ba5fbb0bf99377d0696ea7e8e89060600160405180910390a260c9546040516318c85cf560e11b8152600481018390526001600160a01b0390911690633190b9ea90602401600060405180830381600087803b15801561184857600080fd5b505af115801561185c573d6000803e3d6000fd5b50505050505050505050565b6033546001600160a01b0316331461189357604051632e6c18c960e11b815260040160405180910390fd5b60208101358135106118b857604051635435b28960e11b815260040160405180910390fd5b8060cd60008460048111156118cf576118cf612a43565b60048111156118e0576118e0612a43565b8152602080820192909252604001600020823581559082013560018201559050507ff432642d4ff1b5258f469bdbc5c148c5d3001cd0f8f6ea006fe6be38e05fb05a82826040516114e4929190612a59565b6033546001600160a01b0316331461195d57604051632e6c18c960e11b815260040160405180910390fd5b60cf8190556040518181527f97aee230ba41961438e908e115df76fa8113f85a0586d85b19ba5be50e6a22749060200161117b565b6033546001600160a01b031633146119bd57604051632e6c18c960e11b815260040160405180910390fd5b6040516001600160a01b0383169082156108fc029083906000818181858888f193505050501580156119f3573d6000803e3d6000fd5b505050565b33600090815260cb602052604090205460ff16611a285760405163143606b960e31b815260040160405180910390fd5b828114611a4857604051635435b28960e11b815260040160405180910390fd5b60005b818110156109105760c9546001600160a01b031663b2203308868684818110611a7657611a76612870565b90506020020135858585818110611a8f57611a8f612870565b9050606002016040518363ffffffff1660e01b8152600401611ab2929190612a96565b600060405180830381600087803b158015611acc57600080fd5b505af1158015611ae0573d6000803e3d6000fd5b505050508080611aef90612886565b915050611a4b565b60fb5460ff1615610e5e5760405162461bcd60e51b815260206004820152601060248201526f14185d5cd8589b194e881c185d5cd95960821b604482015260640161095f565b60cd6000826004811115611b5357611b53612a43565b6004811115611b6457611b64612a43565b815260200190815260200160002060000154421080611bba575060cd6000826004811115611b9457611b94612a43565b6004811115611ba557611ba5612a43565b81526020019081526020016000206001015442115b156109fc576040516337bf561360e11b815260040160405180910390fd5b60c95460408051631d5e528f60e21b815290516000926001600160a01b0316916375794a3c9160048083019260209291908290030181865afa158015611c22573d6000803e3d6000fd5b505050506040513d601f19601f82011682018060405250810190611c469190612817565b60c9546040516340c10f1960e01b81526001600160a01b038681166004830152602482018690529293509116906340c10f1990604401600060405180830381600087803b158015611c9657600080fd5b505af1158015611caa573d6000803e3d6000fd5b505060408051858152602081018590523393507f25b428dfde728ccfaddad7e29e4ac23c24ed7fd1a6e3e3f91894a9a073f5dfff92500160405180910390a2505050565b6033546001600160a01b031633146109fc57604051632e6c18c960e11b815260040160405180910390fd5b7f4910fdfa16fed3260ed0e7147f7cc6da11a60208b5b9406d12a635614ffd91435460ff1615611d4c576119f383612070565b826001600160a01b03166352d1902d6040518163ffffffff1660e01b8152600401602060405180830381865afa925050508015611da6575060408051601f3d908101601f19168201909252611da391810190612817565b60015b611e095760405162461bcd60e51b815260206004820152602e60248201527f45524331393637557067726164653a206e657720696d706c656d656e7461746960448201526d6f6e206973206e6f74205555505360901b606482015260840161095f565b600080516020612bc88339815191528114611e785760405162461bcd60e51b815260206004820152602960248201527f45524331393637557067726164653a20756e737570706f727465642070726f786044820152681a58589b195555525160ba1b606482015260840161095f565b506119f383838361210c565b60c9546040516331a9108f60e11b8152600481018390526001600160a01b03848116921690636352211e90602401602060405180830381865afa158015611ecf573d6000803e3d6000fd5b505050506040513d601f19601f82011682018060405250810190611ef39190612aec565b6001600160a01b031614610724576040516359dc379f60e01b815260040160405180910390fd5b6033546034546040516001600160a01b03928316929091169082907f8be0079c531659141344cd1fd0a4f28419497f9722a3daafe3b4186f6b6457e090600090a35060348054603380546001600160a01b03199081166001600160a01b03841617909155169055565b7fb53127684a568b3173ae13b9f8a6016e243e63b6e8ee1178d6a717850b5d6103819055603380546001600160a01b038084166001600160a01b0319831681179093556040519116919082907f8be0079c531659141344cd1fd0a4f28419497f9722a3daafe3b4186f6b6457e090600090a35050565b6000826120068584612131565b1490505b9392505050565b600054610100900460ff166120385760405162461bcd60e51b815260040161095f90612b09565b6109fc8161217e565b600054610100900460ff166120685760405162461bcd60e51b815260040161095f90612b09565b610e5e6121ae565b6001600160a01b0381163b6120dd5760405162461bcd60e51b815260206004820152602d60248201527f455243313936373a206e657720696d706c656d656e746174696f6e206973206e60448201526c1bdd08184818dbdb9d1c9858dd609a1b606482015260840161095f565b600080516020612bc883398151915280546001600160a01b0319166001600160a01b0392909216919091179055565b612115836121e1565b6000825111806121225750805b156119f357610b5d8383612221565b600081815b8451811015612176576121628286838151811061215557612155612870565b602002602001015161230c565b91508061216e81612886565b915050612136565b509392505050565b600054610100900460ff166121a55760405162461bcd60e51b815260040161095f90612b09565b6109fc81611f83565b600054610100900460ff166121d55760405162461bcd60e51b815260040161095f90612b09565b60fb805460ff19169055565b6121ea81612070565b6040516001600160a01b038216907fbc7cd75a20ee27fd9adebab32041f755214dbc6bffa90cc0225b39da2e5c2d3b90600090a250565b60606001600160a01b0383163b6122895760405162461bcd60e51b815260206004820152602660248201527f416464726573733a2064656c65676174652063616c6c20746f206e6f6e2d636f6044820152651b9d1c9858dd60d21b606482015260840161095f565b600080846001600160a01b0316846040516122a49190612b78565b600060405180830381855af49150503d80600081146122df576040519150601f19603f3d011682016040523d82523d6000602084013e6122e4565b606091505b50915091506112968282604051806060016040528060278152602001612be860279139612338565b600081831061232857600082815260208490526040902061200a565b5060009182526020526040902090565b6060831561234757508161200a565b61200a838381511561235c5781518083602001fd5b8060405162461bcd60e51b815260040161095f9190612b94565b6001600160a01b03811681146109fc57600080fd5b60006020828403121561239d57600080fd5b813561200a81612376565b6000602082840312156123ba57600080fd5b5035919050565b60008083601f8401126123d357600080fd5b50813567ffffffffffffffff8111156123eb57600080fd5b6020830191508360208260051b850101111561240657600080fd5b9250929050565b6000806000806040858703121561242357600080fd5b843567ffffffffffffffff8082111561243b57600080fd5b612447888389016123c1565b9096509450602087013591508082111561246057600080fd5b5061246d878288016123c1565b95989497509550505050565b6000806020838503121561248c57600080fd5b823567ffffffffffffffff8111156124a357600080fd5b6124af858286016123c1565b90969095509350505050565b634e487b7160e01b600052604160045260246000fd5b604051601f8201601f1916810167ffffffffffffffff811182821017156124fa576124fa6124bb565b604052919050565b6000806040838503121561251557600080fd5b823561252081612376565b915060208381013567ffffffffffffffff8082111561253e57600080fd5b818601915086601f83011261255257600080fd5b813581811115612564576125646124bb565b612576601f8201601f191685016124d1565b9150808252878482850101111561258c57600080fd5b80848401858401376000848284010152508093505050509250929050565b600080600080604085870312156125c057600080fd5b843567ffffffffffffffff808211156125d857600080fd5b6125e4888389016123c1565b909650945060208701359150808211156125fd57600080fd5b818701915087601f83011261261157600080fd5b81358181111561262057600080fd5b8860208260061b850101111561263557600080fd5b95989497505060200194505050565b6000806040838503121561265757600080fd5b50508035926020909101359150565b60008060006040848603121561267b57600080fd5b833567ffffffffffffffff81111561269257600080fd5b61269e868287016123c1565b90945092505060208401356126b281612376565b809150509250925092565b80151581146109fc57600080fd5b600080604083850312156126de57600080fd5b82356126e981612376565b915060208301356126f9816126bd565b809150509250929050565b81518152602080830151908201526040810161060e565b600080828403606081121561272f57600080fd5b83356005811061273e57600080fd5b92506040601f198201121561275257600080fd5b506020830190509250929050565b6000806040838503121561277357600080fd5b823561277e81612376565b946020939093013593505050565b600080600080604085870312156127a257600080fd5b843567ffffffffffffffff808211156127ba57600080fd5b6127c6888389016123c1565b909650945060208701359150808211156127df57600080fd5b818701915087601f8301126127f357600080fd5b81358181111561280257600080fd5b88602060608302850101111561263557600080fd5b60006020828403121561282957600080fd5b5051919050565b634e487b7160e01b600052601160045260246000fd5b8082018082111561060e5761060e612830565b808202811582820484141761060e5761060e612830565b634e487b7160e01b600052603260045260246000fd5b60006001820161289857612898612830565b5060010190565b6020808252602c908201527f46756e6374696f6e206d7573742062652063616c6c6564207468726f7567682060408201526b19195b1959d85d1958d85b1b60a21b606082015260800190565b6020808252602c908201527f46756e6374696f6e206d7573742062652063616c6c6564207468726f7567682060408201526b6163746976652070726f787960a01b606082015260800190565b60006020828403121561294957600080fd5b815161200a816126bd565b61ffff811681146109fc57600080fd5b60006060828403121561297657600080fd5b6040516060810181811067ffffffffffffffff82111715612999576129996124bb565b60405282516129a781612954565b815260208301516129b781612954565b602082015260408301516129ca81612954565b60408201529392505050565b6000604082840312156129e857600080fd5b6040516040810181811067ffffffffffffffff82111715612a0b57612a0b6124bb565b604052823581526020928301359281019290925250919050565b8281526060810161200a602083018480518252602090810151910152565b634e487b7160e01b600052602160045260246000fd5b6060810160058410612a7b57634e487b7160e01b600052602160045260246000fd5b83825282356020830152602083013560408301529392505050565b828152608081018235612aa881612954565b61ffff808216602085015260208501359150612ac382612954565b808216604085015260408501359150612adb82612954565b808216606085015250509392505050565b600060208284031215612afe57600080fd5b815161200a81612376565b6020808252602b908201527f496e697469616c697a61626c653a20636f6e7472616374206973206e6f74206960408201526a6e697469616c697a696e6760a81b606082015260800190565b60005b83811015612b6f578181015183820152602001612b57565b50506000910152565b60008251612b8a818460208701612b54565b9190910192915050565b6020815260008251806020840152612bb3816040850160208701612b54565b601f01601f1916919091016040019291505056fe360894a13ba1a3210667c828492db98dca3e2076cc3735a920a3ca505d382bbc416464726573733a206c6f772d6c6576656c2064656c65676174652063616c6c206661696c6564a2646970667358221220451e49c6053ebe909a99cbd773bea3a497d98fe1550fd9111a5b2414c028534c64736f6c63430008110033",
  "devdoc": {
    "kind": "dev",
    "methods": {
      "claimOwnership()": {
        "details": "pending owner call this function to claim ownership"
      },
      "owner()": {
        "details": "Returns the address of the current owner."
      },
      "paused()": {
        "details": "Returns true if the contract is paused, and false otherwise."
      },
      "pendingOwner()": {
        "details": "Return the address of the pending owner"
      },
      "proxiableUUID()": {
        "details": "Implementation of the ERC1822 {proxiableUUID} function. This returns the storage slot used by the implementation. It is used to validate the implementation's compatibility when performing an upgrade. IMPORTANT: A proxy pointing at a proxiable contract should not be considered proxiable itself, because this risks bricking a proxy that upgrades to it, by delegating to itself until out of gas. Thus it is critical that this function revert if invoked through a proxy. This is guaranteed by the `notDelegated` modifier."
      },
      "publicMint(uint256)": {
        "params": {
          "quantity": "quantities want to mint"
        }
      },
      "renounceOwnership()": {
        "details": "Leaves the contract without owner. It will not be possible to call `onlyOwner` functions anymore. Can only be called by the current owner. NOTE: Renouncing ownership will leave the contract without an owner, thereby removing any functionality that is only available to the owner."
      },
      "transferOwnership(address,bool)": {
        "details": "Transfers ownership of the contract to a new account (`newOwner`). Can only be called by the current owner. Note If direct is false, it will set an pending owner and the OwnerShipTransferring only happens when the pending owner claim the ownership"
      },
      "upgradeTo(address)": {
        "details": "Upgrade the implementation of the proxy to `newImplementation`. Calls {_authorizeUpgrade}. Emits an {Upgraded} event."
      },
      "upgradeToAndCall(address,bytes)": {
        "details": "Upgrade the implementation of the proxy to `newImplementation`, and subsequently execute the function call encoded in `data`. Calls {_authorizeUpgrade}. Emits an {Upgraded} event."
      },
      "whitelistMint(bytes32[])": {
        "details": "users in whitelist can mint mystery box"
      }
    },
    "version": 1
  },
  "userdoc": {
    "kind": "user",
    "methods": {
      "publicMint(uint256)": {
        "notice": "public mint"
      }
    },
    "version": 1
  },
  "storageLayout": {
    "storage": [
      {
        "astId": 549,
        "contract": "src/nft/NFTManager.sol:NFTManager",
        "label": "_initialized",
        "offset": 0,
        "slot": "0",
        "type": "t_uint8"
      },
      {
        "astId": 552,
        "contract": "src/nft/NFTManager.sol:NFTManager",
        "label": "_initializing",
        "offset": 1,
        "slot": "0",
        "type": "t_bool"
      },
      {
        "astId": 3859,
        "contract": "src/nft/NFTManager.sol:NFTManager",
        "label": "__gap",
        "offset": 0,
        "slot": "1",
        "type": "t_array(t_uint256)50_storage"
      },
      {
        "astId": 8976,
        "contract": "src/nft/NFTManager.sol:NFTManager",
        "label": "_owner",
        "offset": 0,
        "slot": "51",
        "type": "t_address"
      },
      {
        "astId": 8978,
        "contract": "src/nft/NFTManager.sol:NFTManager",
        "label": "_pendingOwner",
        "offset": 0,
        "slot": "52",
        "type": "t_address"
      },
      {
        "astId": 9169,
        "contract": "src/nft/NFTManager.sol:NFTManager",
        "label": "__gap",
        "offset": 0,
        "slot": "53",
        "type": "t_array(t_uint256)48_storage"
      },
      {
        "astId": 531,
        "contract": "src/nft/NFTManager.sol:NFTManager",
        "label": "__gap",
        "offset": 0,
        "slot": "101",
        "type": "t_array(t_uint256)50_storage"
      },
      {
        "astId": 846,
        "contract": "src/nft/NFTManager.sol:NFTManager",
        "label": "__gap",
        "offset": 0,
        "slot": "151",
        "type": "t_array(t_uint256)50_storage"
      },
      {
        "astId": 24422,
        "contract": "src/nft/NFTManager.sol:NFTManager",
        "label": "degenNFT",
        "offset": 0,
        "slot": "201",
        "type": "t_contract(DegenNFT)23505"
      },
      {
        "astId": 24424,
        "contract": "src/nft/NFTManager.sol:NFTManager",
        "label": "merkleRoot",
        "offset": 0,
        "slot": "202",
        "type": "t_bytes32"
      },
      {
        "astId": 24428,
        "contract": "src/nft/NFTManager.sol:NFTManager",
        "label": "signers",
        "offset": 0,
        "slot": "203",
        "type": "t_mapping(t_address,t_bool)"
      },
      {
        "astId": 24431,
        "contract": "src/nft/NFTManager.sol:NFTManager",
        "label": "hasMinted",
        "offset": 0,
        "slot": "204",
        "type": "t_struct(BitMap)6111_storage"
      },
      {
        "astId": 24437,
        "contract": "src/nft/NFTManager.sol:NFTManager",
        "label": "stageTime",
        "offset": 0,
        "slot": "205",
        "type": "t_mapping(t_enum(StageType)16897,t_struct(StageTime)16902_storage)"
      },
      {
        "astId": 24442,
        "contract": "src/nft/NFTManager.sol:NFTManager",
        "label": "burnRefundConfigs",
        "offset": 0,
        "slot": "206",
        "type": "t_mapping(t_uint256,t_struct(BurnRefundConfig)16907_storage)"
      },
      {
        "astId": 24444,
        "contract": "src/nft/NFTManager.sol:NFTManager",
        "label": "mintFee",
        "offset": 0,
        "slot": "207",
        "type": "t_uint256"
      },
      {
        "astId": 24448,
        "contract": "src/nft/NFTManager.sol:NFTManager",
        "label": "_gap",
        "offset": 0,
        "slot": "208",
        "type": "t_array(t_uint256)43_storage"
      },
      {
        "astId": 868,
        "contract": "src/nft/NFTManager.sol:NFTManager",
        "label": "_paused",
        "offset": 0,
        "slot": "251",
        "type": "t_bool"
      },
      {
        "astId": 973,
        "contract": "src/nft/NFTManager.sol:NFTManager",
        "label": "__gap",
        "offset": 0,
        "slot": "252",
        "type": "t_array(t_uint256)49_storage"
      }
    ],
    "types": {
      "t_address": {
        "encoding": "inplace",
        "label": "address",
        "numberOfBytes": "20"
      },
      "t_array(t_uint256)43_storage": {
        "base": "t_uint256",
        "encoding": "inplace",
        "label": "uint256[43]",
        "numberOfBytes": "1376"
      },
      "t_array(t_uint256)48_storage": {
        "base": "t_uint256",
        "encoding": "inplace",
        "label": "uint256[48]",
        "numberOfBytes": "1536"
      },
      "t_array(t_uint256)49_storage": {
        "base": "t_uint256",
        "encoding": "inplace",
        "label": "uint256[49]",
        "numberOfBytes": "1568"
      },
      "t_array(t_uint256)50_storage": {
        "base": "t_uint256",
        "encoding": "inplace",
        "label": "uint256[50]",
        "numberOfBytes": "1600"
      },
      "t_bool": {
        "encoding": "inplace",
        "label": "bool",
        "numberOfBytes": "1"
      },
      "t_bytes32": {
        "encoding": "inplace",
        "label": "bytes32",
        "numberOfBytes": "32"
      },
      "t_contract(DegenNFT)23505": {
        "encoding": "inplace",
        "label": "contract DegenNFT",
        "numberOfBytes": "20"
      },
      "t_enum(StageType)16897": {
        "encoding": "inplace",
        "label": "enum INFTManagerDefination.StageType",
        "numberOfBytes": "1"
      },
      "t_mapping(t_address,t_bool)": {
        "encoding": "mapping",
        "key": "t_address",
        "label": "mapping(address => bool)",
        "numberOfBytes": "32",
        "value": "t_bool"
      },
      "t_mapping(t_enum(StageType)16897,t_struct(StageTime)16902_storage)": {
        "encoding": "mapping",
        "key": "t_enum(StageType)16897",
        "label": "mapping(enum INFTManagerDefination.StageType => struct INFTManagerDefination.StageTime)",
        "numberOfBytes": "32",
        "value": "t_struct(StageTime)16902_storage"
      },
      "t_mapping(t_uint256,t_struct(BurnRefundConfig)16907_storage)": {
        "encoding": "mapping",
        "key": "t_uint256",
        "label": "mapping(uint256 => struct INFTManagerDefination.BurnRefundConfig)",
        "numberOfBytes": "32",
        "value": "t_struct(BurnRefundConfig)16907_storage"
      },
      "t_mapping(t_uint256,t_uint256)": {
        "encoding": "mapping",
        "key": "t_uint256",
        "label": "mapping(uint256 => uint256)",
        "numberOfBytes": "32",
        "value": "t_uint256"
      },
      "t_struct(BitMap)6111_storage": {
        "encoding": "inplace",
        "label": "struct BitMapsUpgradeable.BitMap",
        "members": [
          {
            "astId": 6110,
            "contract": "src/nft/NFTManager.sol:NFTManager",
            "label": "_data",
            "offset": 0,
            "slot": "0",
            "type": "t_mapping(t_uint256,t_uint256)"
          }
        ],
        "numberOfBytes": "32"
      },
      "t_struct(BurnRefundConfig)16907_storage": {
        "encoding": "inplace",
        "label": "struct INFTManagerDefination.BurnRefundConfig",
        "members": [
          {
            "astId": 16904,
            "contract": "src/nft/NFTManager.sol:NFTManager",
            "label": "nativeToken",
            "offset": 0,
            "slot": "0",
            "type": "t_uint256"
          },
          {
            "astId": 16906,
            "contract": "src/nft/NFTManager.sol:NFTManager",
            "label": "degenToken",
            "offset": 0,
            "slot": "1",
            "type": "t_uint256"
          }
        ],
        "numberOfBytes": "64"
      },
      "t_struct(StageTime)16902_storage": {
        "encoding": "inplace",
        "label": "struct INFTManagerDefination.StageTime",
        "members": [
          {
            "astId": 16899,
            "contract": "src/nft/NFTManager.sol:NFTManager",
            "label": "startTime",
            "offset": 0,
            "slot": "0",
            "type": "t_uint256"
          },
          {
            "astId": 16901,
            "contract": "src/nft/NFTManager.sol:NFTManager",
            "label": "endTime",
            "offset": 0,
            "slot": "1",
            "type": "t_uint256"
          }
        ],
        "numberOfBytes": "64"
      },
      "t_uint256": {
        "encoding": "inplace",
        "label": "uint256",
        "numberOfBytes": "32"
      },
      "t_uint8": {
        "encoding": "inplace",
        "label": "uint8",
        "numberOfBytes": "1"
      }
    }
  }
}