{
  "address": "0x7Ad21E540630aC3A14EBEdCe2b0734Bb9e9Fa05B",
  "abi": [
    {
      "inputs": [],
      "name": "AlreadyClaimed",
      "type": "error"
    },
    {
      "inputs": [],
      "name": "ApproveFromNonZeroToNonZeroAllowance",
      "type": "error"
    },
    {
      "inputs": [],
      "name": "ApproveFromZeroAddress",
      "type": "error"
    },
    {
      "inputs": [],
      "name": "ApproveToCaller",
      "type": "error"
    },
    {
      "inputs": [],
      "name": "ApproveToCurrentOwner",
      "type": "error"
    },
    {
      "inputs": [],
      "name": "ApproveToZeroAddress",
      "type": "error"
    },
    {
      "inputs": [],
      "name": "BeaconImplementationIsNotContract",
      "type": "error"
    },
    {
      "inputs": [],
      "name": "BurnAmountExceedsBalance",
      "type": "error"
    },
    {
      "inputs": [],
      "name": "BurnFromZeroAddress",
      "type": "error"
    },
    {
      "inputs": [],
      "name": "CallerNotOwner",
      "type": "error"
    },
    {
      "inputs": [],
      "name": "CallerNotPendingOwner",
      "type": "error"
    },
    {
      "inputs": [],
      "name": "CallerNotPortal",
      "type": "error"
    },
    {
      "inputs": [],
      "name": "CallerNotTokenOwnerOrApproved",
      "type": "error"
    },
    {
      "inputs": [],
      "name": "ContractAlreadyInitialized",
      "type": "error"
    },
    {
      "inputs": [],
      "name": "ContractIsInitializing",
      "type": "error"
    },
    {
      "inputs": [],
      "name": "ContractIsNotInitializing",
      "type": "error"
    },
    {
      "inputs": [],
      "name": "CountDownTimeLongNotSet",
      "type": "error"
    },
    {
      "inputs": [],
      "name": "DecreasedAllowanceBelowZero",
      "type": "error"
    },
    {
      "inputs": [],
      "name": "DelegateCallToNonContract",
      "type": "error"
    },
    {
      "inputs": [],
      "name": "ERC20OperationDidNotSucceed",
      "type": "error"
    },
    {
      "inputs": [],
      "name": "InsufficientAllowance",
      "type": "error"
    },
    {
      "inputs": [],
      "name": "InvalidRoundInfo",
      "type": "error"
    },
    {
      "inputs": [],
      "name": "InvalidSeason",
      "type": "error"
    },
    {
      "inputs": [],
      "name": "InvalidSignature",
      "type": "error"
    },
    {
      "inputs": [],
      "name": "InvalidSignatureLength",
      "type": "error"
    },
    {
      "inputs": [],
      "name": "InvalidSignatureSValue",
      "type": "error"
    },
    {
      "inputs": [],
      "name": "InvalidTokenID",
      "type": "error"
    },
    {
      "inputs": [],
      "name": "MintToZeroAddress",
      "type": "error"
    },
    {
      "inputs": [],
      "name": "MustBeCalledThroughActiveProxy",
      "type": "error"
    },
    {
      "inputs": [],
      "name": "MustBeCalledThroughDelegatecall",
      "type": "error"
    },
    {
      "inputs": [],
      "name": "NewAdminIsZeroAddress",
      "type": "error"
    },
    {
      "inputs": [],
      "name": "NewBeaconIsNotContract",
      "type": "error"
    },
    {
      "inputs": [],
      "name": "NewImplementationIsNotContract",
      "type": "error"
    },
    {
      "inputs": [],
      "name": "NewImplementationIsNotUUPS",
      "type": "error"
    },
    {
      "inputs": [],
      "name": "PausableNotPaused",
      "type": "error"
    },
    {
      "inputs": [],
      "name": "PausablePaused",
      "type": "error"
    },
    {
      "inputs": [],
      "name": "PermitDidNotSucceed",
      "type": "error"
    },
    {
      "inputs": [],
      "name": "ReentrantCall",
      "type": "error"
    },
    {
      "inputs": [],
      "name": "SeasonNotOver",
      "type": "error"
    },
    {
      "inputs": [],
      "name": "SeasonOver",
      "type": "error"
    },
    {
      "inputs": [],
      "name": "TokenAlreadyMinted",
      "type": "error"
    },
    {
      "inputs": [],
      "name": "TransferAmountExceedsBalance",
      "type": "error"
    },
    {
      "inputs": [],
      "name": "TransferFromIncorrectOwner",
      "type": "error"
    },
    {
      "inputs": [],
      "name": "TransferFromZeroAddress",
      "type": "error"
    },
    {
      "inputs": [],
      "name": "TransferToNonERC721ReceiverImplementer",
      "type": "error"
    },
    {
      "inputs": [],
      "name": "TransferToZeroAddress",
      "type": "error"
    },
    {
      "inputs": [],
      "name": "UnsupportedProxiableUUID",
      "type": "error"
    },
    {
      "inputs": [],
      "name": "ZeroAddressOwnerSet",
      "type": "error"
    },
    {
      "inputs": [],
      "name": "ZeroAddressSet",
      "type": "error"
    },
    {
      "inputs": [],
      "name": "ZeroOwnerSet",
      "type": "error"
    },
    {
      "anonymous": false,
      "inputs": [
        {
          "indexed": false,
          "internalType": "address",
          "name": "previousAdmin",
          "type": "address"
        },
        {
          "indexed": false,
          "internalType": "address",
          "name": "newAdmin",
          "type": "address"
        }
      ],
      "name": "AdminChanged",
      "type": "event"
    },
    {
      "anonymous": false,
      "inputs": [
        {
          "indexed": true,
          "internalType": "address",
          "name": "beacon",
          "type": "address"
        }
      ],
      "name": "BeaconUpgraded",
      "type": "event"
    },
    {
      "anonymous": false,
      "inputs": [
        {
          "indexed": false,
          "internalType": "uint256",
          "name": "season",
          "type": "uint256"
        },
        {
          "indexed": false,
          "internalType": "address",
          "name": "account",
          "type": "address"
        },
        {
          "indexed": false,
          "internalType": "uint256",
          "name": "amount",
          "type": "uint256"
        }
      ],
      "name": "ClaimedReward",
      "type": "event"
    },
    {
      "anonymous": false,
      "inputs": [
        {
          "indexed": false,
          "internalType": "uint256",
          "name": "season",
          "type": "uint256"
        },
        {
          "indexed": false,
          "internalType": "address",
          "name": "account",
          "type": "address"
        },
        {
          "indexed": false,
          "internalType": "uint256",
          "name": "roundIndex",
          "type": "uint256"
        },
        {
          "indexed": false,
          "internalType": "uint256",
          "name": "amount",
          "type": "uint256"
        },
        {
          "indexed": false,
          "internalType": "uint256",
          "name": "roundTotalAmount",
          "type": "uint256"
        }
      ],
      "name": "Deposit",
      "type": "event"
    },
    {
      "anonymous": false,
      "inputs": [
        {
          "indexed": false,
          "internalType": "uint256",
          "name": "season",
          "type": "uint256"
        },
        {
          "indexed": false,
          "internalType": "uint32",
          "name": "seasonStartTime",
          "type": "uint32"
        },
        {
          "components": [
            {
              "internalType": "uint256",
              "name": "totalAmount",
              "type": "uint256"
            },
            {
              "internalType": "uint256",
              "name": "target",
              "type": "uint256"
            },
            {
              "internalType": "uint32",
              "name": "currentIndex",
              "type": "uint32"
            },
            {
              "internalType": "uint32",
              "name": "startTime",
              "type": "uint32"
            }
          ],
          "indexed": false,
          "internalType": "struct IPiggyBankDefination.RoundInfo",
          "name": "roundInfo",
          "type": "tuple"
        }
      ],
      "name": "InitializeSeason",
      "type": "event"
    },
    {
      "anonymous": false,
      "inputs": [
        {
          "indexed": false,
          "internalType": "uint8",
          "name": "version",
          "type": "uint8"
        }
      ],
      "name": "Initialized",
      "type": "event"
    },
    {
      "anonymous": false,
      "inputs": [
        {
          "indexed": false,
          "internalType": "uint256",
          "name": "season",
          "type": "uint256"
        },
        {
          "indexed": false,
          "internalType": "uint256",
          "name": "startTime",
          "type": "uint256"
        }
      ],
      "name": "NewSeason",
      "type": "event"
    },
    {
      "anonymous": false,
      "inputs": [
        {
          "indexed": true,
          "internalType": "address",
          "name": "previousOwner",
          "type": "address"
        },
        {
          "indexed": true,
          "internalType": "address",
          "name": "newOwner",
          "type": "address"
        }
      ],
      "name": "OwnershipTransferred",
      "type": "event"
    },
    {
      "anonymous": false,
      "inputs": [
        {
          "indexed": false,
          "internalType": "uint256",
          "name": "season",
          "type": "uint256"
        },
        {
          "indexed": false,
          "internalType": "uint256",
          "name": "stopTime",
          "type": "uint256"
        }
      ],
      "name": "SeasonStoped",
      "type": "event"
    },
    {
      "anonymous": false,
      "inputs": [
        {
          "indexed": false,
          "internalType": "uint64",
          "name": "minTimeLong",
          "type": "uint64"
        }
      ],
      "name": "SetMinTimeLong",
      "type": "event"
    },
    {
      "anonymous": false,
      "inputs": [
        {
          "indexed": false,
          "internalType": "uint32",
          "name": "countDownTimeLong",
          "type": "uint32"
        }
      ],
      "name": "SetNewCountDownTimeLong",
      "type": "event"
    },
    {
      "anonymous": false,
      "inputs": [
        {
          "indexed": false,
          "internalType": "uint8",
          "name": "multiple",
          "type": "uint8"
        }
      ],
      "name": "SetNewMultiple",
      "type": "event"
    },
    {
      "anonymous": false,
      "inputs": [
        {
          "indexed": false,
          "internalType": "uint256",
          "name": "season",
          "type": "uint256"
        },
        {
          "indexed": false,
          "internalType": "bytes32",
          "name": "stopedHash",
          "type": "bytes32"
        },
        {
          "indexed": false,
          "internalType": "address",
          "name": "verifySigner",
          "type": "address"
        }
      ],
      "name": "SetStopedHash",
      "type": "event"
    },
    {
      "anonymous": false,
      "inputs": [
        {
          "indexed": true,
          "internalType": "address",
          "name": "signer",
          "type": "address"
        },
        {
          "indexed": false,
          "internalType": "bool",
          "name": "valid",
          "type": "bool"
        }
      ],
      "name": "SignerUpdate",
      "type": "event"
    },
    {
      "anonymous": false,
      "inputs": [
        {
          "indexed": true,
          "internalType": "address",
          "name": "implementation",
          "type": "address"
        }
      ],
      "name": "Upgraded",
      "type": "event"
    },
    {
      "inputs": [],
      "name": "PERCENTAGE_BASE",
      "outputs": [
        {
          "internalType": "uint256",
          "name": "",
          "type": "uint256"
        }
      ],
      "stateMutability": "view",
      "type": "function"
    },
    {
      "inputs": [
        {
          "internalType": "uint256",
          "name": "season",
          "type": "uint256"
        }
      ],
      "name": "checkIsSeasonEnd",
      "outputs": [
        {
          "internalType": "bool",
          "name": "",
          "type": "bool"
        }
      ],
      "stateMutability": "view",
      "type": "function"
    },
    {
      "inputs": [],
      "name": "claimOwnership",
      "outputs": [],
      "stateMutability": "nonpayable",
      "type": "function"
    },
    {
      "inputs": [
        {
          "internalType": "uint256",
          "name": "season",
          "type": "uint256"
        }
      ],
      "name": "claimReward",
      "outputs": [],
      "stateMutability": "nonpayable",
      "type": "function"
    },
    {
      "inputs": [],
      "name": "countDownTimeLong",
      "outputs": [
        {
          "internalType": "uint32",
          "name": "",
          "type": "uint32"
        }
      ],
      "stateMutability": "view",
      "type": "function"
    },
    {
      "inputs": [
        {
          "internalType": "uint256",
          "name": "season",
          "type": "uint256"
        },
        {
          "internalType": "address",
          "name": "account",
          "type": "address"
        },
        {
          "internalType": "uint256",
          "name": "income",
          "type": "uint256"
        }
      ],
      "name": "deposit",
      "outputs": [],
      "stateMutability": "payable",
      "type": "function"
    },
    {
      "inputs": [
        {
          "internalType": "uint256",
          "name": "season",
          "type": "uint256"
        }
      ],
      "name": "getRoundInfo",
      "outputs": [
        {
          "components": [
            {
              "internalType": "uint256",
              "name": "totalAmount",
              "type": "uint256"
            },
            {
              "internalType": "uint256",
              "name": "target",
              "type": "uint256"
            },
            {
              "internalType": "uint32",
              "name": "currentIndex",
              "type": "uint32"
            },
            {
              "internalType": "uint32",
              "name": "startTime",
              "type": "uint32"
            }
          ],
          "internalType": "struct IPiggyBankDefination.RoundInfo",
          "name": "",
          "type": "tuple"
        }
      ],
      "stateMutability": "view",
      "type": "function"
    },
    {
      "inputs": [
        {
          "internalType": "uint256",
          "name": "season",
          "type": "uint256"
        }
      ],
      "name": "getSeasonInfo",
      "outputs": [
        {
          "components": [
            {
              "internalType": "uint256",
              "name": "totalAmount",
              "type": "uint256"
            },
            {
              "internalType": "bytes32",
              "name": "stopedHash",
              "type": "bytes32"
            },
            {
              "internalType": "address",
              "name": "verifySigner",
              "type": "address"
            },
            {
              "internalType": "uint32",
              "name": "startTime",
              "type": "uint32"
            },
            {
              "internalType": "bool",
              "name": "stoped",
              "type": "bool"
            }
          ],
          "internalType": "struct IPiggyBankDefination.SeasonInfo",
          "name": "seasonInfo",
          "type": "tuple"
        },
        {
          "internalType": "bool",
          "name": "isSeasonEnd",
          "type": "bool"
        }
      ],
      "stateMutability": "view",
      "type": "function"
    },
    {
      "inputs": [
        {
          "internalType": "address",
          "name": "account",
          "type": "address"
        },
        {
          "internalType": "uint256",
          "name": "season",
          "type": "uint256"
        },
        {
          "internalType": "uint256",
          "name": "roundIndex",
          "type": "uint256"
        }
      ],
      "name": "getUserInfo",
      "outputs": [
        {
          "components": [
            {
              "internalType": "uint256",
              "name": "amount",
              "type": "uint256"
            },
            {
              "internalType": "uint256",
              "name": "claimedAmount",
              "type": "uint256"
            }
          ],
          "internalType": "struct IPiggyBankDefination.UserInfo",
          "name": "",
          "type": "tuple"
        }
      ],
      "stateMutability": "view",
      "type": "function"
    },
    {
      "inputs": [
        {
          "internalType": "address",
          "name": "owner_",
          "type": "address"
        },
        {
          "internalType": "address",
          "name": "portal_",
          "type": "address"
        }
      ],
      "name": "initialize",
      "outputs": [],
      "stateMutability": "nonpayable",
      "type": "function"
    },
    {
      "inputs": [
        {
          "internalType": "uint256",
          "name": "season",
          "type": "uint256"
        },
        {
          "internalType": "uint32",
          "name": "seasonStartTime",
          "type": "uint32"
        },
        {
          "internalType": "uint256",
          "name": "initRoundTarget",
          "type": "uint256"
        }
      ],
      "name": "initializeSeason",
      "outputs": [],
      "stateMutability": "payable",
      "type": "function"
    },
    {
      "inputs": [],
      "name": "minTimeLong",
      "outputs": [
        {
          "internalType": "uint64",
          "name": "",
          "type": "uint64"
        }
      ],
      "stateMutability": "view",
      "type": "function"
    },
    {
      "inputs": [],
      "name": "multiple",
      "outputs": [
        {
          "internalType": "uint8",
          "name": "",
          "type": "uint8"
        }
      ],
      "stateMutability": "view",
      "type": "function"
    },
    {
      "inputs": [
        {
          "internalType": "uint256",
          "name": "season",
          "type": "uint256"
        },
        {
          "internalType": "uint256",
          "name": "startTime",
          "type": "uint256"
        }
      ],
      "name": "newSeason",
      "outputs": [],
      "stateMutability": "nonpayable",
      "type": "function"
    },
    {
      "inputs": [],
      "name": "owner",
      "outputs": [
        {
          "internalType": "address",
          "name": "",
          "type": "address"
        }
      ],
      "stateMutability": "view",
      "type": "function"
    },
    {
      "inputs": [],
      "name": "pendingOwner",
      "outputs": [
        {
          "internalType": "address",
          "name": "",
          "type": "address"
        }
      ],
      "stateMutability": "view",
      "type": "function"
    },
    {
      "inputs": [],
      "name": "portal",
      "outputs": [
        {
          "internalType": "address",
          "name": "",
          "type": "address"
        }
      ],
      "stateMutability": "view",
      "type": "function"
    },
    {
      "inputs": [],
      "name": "proxiableUUID",
      "outputs": [
        {
          "internalType": "bytes32",
          "name": "",
          "type": "bytes32"
        }
      ],
      "stateMutability": "view",
      "type": "function"
    },
    {
      "inputs": [],
      "name": "renounceOwnership",
      "outputs": [],
      "stateMutability": "nonpayable",
      "type": "function"
    },
    {
      "inputs": [
        {
          "internalType": "uint32",
          "name": "countDownTimeLong_",
          "type": "uint32"
        }
      ],
      "name": "setCoundDownTimeLong",
      "outputs": [],
      "stateMutability": "nonpayable",
      "type": "function"
    },
    {
      "inputs": [
        {
          "internalType": "uint64",
          "name": "minTimeLong_",
          "type": "uint64"
        }
      ],
      "name": "setMinTimeLong",
      "outputs": [],
      "stateMutability": "nonpayable",
      "type": "function"
    },
    {
      "inputs": [
        {
          "internalType": "uint8",
          "name": "multiple_",
          "type": "uint8"
        }
      ],
      "name": "setMultiple",
      "outputs": [],
      "stateMutability": "nonpayable",
      "type": "function"
    },
    {
      "inputs": [
        {
          "internalType": "uint256",
          "name": "season",
          "type": "uint256"
        },
        {
          "internalType": "bytes32",
          "name": "stopedHash",
          "type": "bytes32"
        },
        {
          "internalType": "address",
          "name": "verifySigner",
          "type": "address"
        }
      ],
      "name": "setSeasonStopedHash",
      "outputs": [],
      "stateMutability": "nonpayable",
      "type": "function"
    },
    {
      "inputs": [
        {
          "internalType": "uint256",
          "name": "season",
          "type": "uint256"
        }
      ],
      "name": "stop",
      "outputs": [],
      "stateMutability": "nonpayable",
      "type": "function"
    },
    {
      "inputs": [
        {
          "internalType": "address",
          "name": "newOwner",
          "type": "address"
        },
        {
          "internalType": "bool",
          "name": "direct",
          "type": "bool"
        }
      ],
      "name": "transferOwnership",
      "outputs": [],
      "stateMutability": "nonpayable",
      "type": "function"
    },
    {
      "inputs": [
        {
          "internalType": "address",
          "name": "newImplementation",
          "type": "address"
        }
      ],
      "name": "upgradeTo",
      "outputs": [],
      "stateMutability": "nonpayable",
      "type": "function"
    },
    {
      "inputs": [
        {
          "internalType": "address",
          "name": "newImplementation",
          "type": "address"
        },
        {
          "internalType": "bytes",
          "name": "data",
          "type": "bytes"
        }
      ],
      "name": "upgradeToAndCall",
      "outputs": [],
      "stateMutability": "payable",
      "type": "function"
    },
    {
      "inputs": [
        {
          "internalType": "uint256",
          "name": "season",
          "type": "uint256"
        },
        {
          "internalType": "bytes",
          "name": "signature",
          "type": "bytes"
        }
      ],
      "name": "verifyStopHash",
      "outputs": [
        {
          "internalType": "bool",
          "name": "",
          "type": "bool"
        }
      ],
      "stateMutability": "view",
      "type": "function"
    }
  ],
  "transactionHash": "0x65f982839bc3d59f5c3784041c4ce42440ff4ef20553c1ace87414fd567f33c6",
  "args": [],
  "numDeployments": 2,
  "solcInputHash": "30be6ac1ac29577dcf3ad6f2c80ed7cf",
  "bytecode": "0x60a080604052346100315730608052611c6190816100378239608051818181610bfc01528181610c9c01526111ca0152f35b600080fdfe6080604081815260048036101561001557600080fd5b600092833560e01c9081631bae2b6c146113be57508063305607a3146113955780633659cfe6146111a1578063437a8ae61461117c578063485cc95514610fef5780634b491d4914610f115780634e71e0c814610ea55780634f1ef28614610c4e57806352d1902d14610be75780636170690814610b655780636299f8cf14610abf5780636425666b14610a96578063715018a614610a3957806387c1394314610a1c57806388c3ffb01461099c5780638bdea051146109775780638da5cb5b1461094e57806398b46eaf146108de578063a6645a92146108b1578063a74b434b146107da578063a7e45114146106dc578063ae169a501461054b578063b242e534146104d1578063bc157ac114610317578063e30c3978146102ee578063e89a886614610245578063f4d508ec146101c05763ff16dcf71461015757600080fd5b346101bc5760203660031901126101bc57359063ffffffff82168092036101bc577faba92a609cdbe77fef99a809dfea9ec223f92370ccc2a5c1db15dc0973e99385916020916101a5611afc565b8163ffffffff1960cd54161760cd5551908152a180f35b8280fd5b82843461024257606036600319011261024257816101dc61148c565b918151926101e984611509565b81845260209384018290526001600160a01b0316815260cc8352818120602435825283528181206044358252835220825190919061022681611509565b8160018454948584520154910190815283519283525190820152f35b80fd5b509190346102ea57806003193601126102ea5760c954833590602435906001600160a01b031633036102da57839450817fb11bddedb817d627b042c6a3047fc8475045ad29f830bcb1102385e67ab5f607945260ca60205263ffffffff806002858820015460a01c16156102c3575b5082519182526020820152a180f35b6102d49082166002858820016115e0565b386102b4565b82516325ba3c7960e01b81528590fd5b5080fd5b5050346102ea57816003193601126102ea5760345490516001600160a01b039091168152602090f35b5060603660031901126101bc5780359161032f6114a7565b916044359160018060a01b03918260c9541633036104c35763ffffffff908160cd5416156104b55761036087611836565b61049f5750858752602060ca815282882061037c348254611626565b905586885260cb81528288209384546103958782611626565b9060018701918254106000146104355750936104329896936103d998969361042a936103e66103df600080516020611bcc83398151915299549888549d8e8b611699565b90611699565b9b88611699565b96865588168c5260cc8152828c20898d528152828c2060028601918d84845416905252828c20610417878254611626565b9055541692549051938493878986611663565b0390a16116ce565b80f35b610499969391509161045988600080516020611bcc8339815191529b999694611626565b845588168a5260cc8152848a20878b528152848a206002840191838354168c5252848a20610488858254611626565b905554169054925195869586611663565b0390a180f35b86885260ca6020528251639c0f823160e01b8152fd5b82516317806fc960e11b8152fd5b90516325ba3c7960e01b8152fd5b50346101bc57816003193601126101bc576104ea61148c565b9060243590811515820361054757610500611afc565b6001600160a01b03831693841561053a57505015610522576104329150611b22565b50603480546001600160a01b03191691909117905580f35b51633aafecb360e21b8152fd5b8480fd5b50346101bc57602090816003193601126106d85780359161056b83611836565b156106c95782855260ca8152838520916002855193610589856114bd565b80548552600181015484860152015460018060a01b0381168685015260ff63ffffffff91828160a01c16606087015260c01c161515608085015284875260cb83528587209060028751926105dc846114ee565b8054845260018101548685015201549080888401928181168452861c16606084015233895260cc8552878920878a52855287892091511688528352858720600181019485546106b957519054610631916116a6565b90519182156106a6575004809255848083801561069c575b8280929181923390f11561068f579083606093927fb3aa8b63132d4c8c050f3c58896489ee2a949eaf514406ec8e56b2da530551c095519384523390840152820152a180f35b50505051903d90823e3d90fd5b6108fc9150610649565b634e487b7160e01b885260129052602487fd5b8751630c8d9eab60e31b81528490fd5b508251632ef30f6760e01b8152fd5b8380fd5b509060603660031901126101bc5781359163ffffffff602435818116928382036107d65760c9546001600160a01b031633036107c85750928085936107b288857fe8e66eabd4aa2cabec66a281b78e951231358e5c4b4b79c9f2c79b673320afd0996107c497600260c09b8851998a96610755886114ee565b808852610789602089019360443585526060848b019a848c5201978c8952835260ca602052348484205585848420016115e0565b60cb60205220908a5182555160018201550193511663ffffffff19845416178355511690611603565b815194855260208501528301906115b4565ba180f35b84516325ba3c7960e01b8152fd5b8680fd5b50346101bc5760603660031901126101bc578035916044356001600160a01b03811692602435918490036108ad57610810611afc565b84865260ca60205263ffffffff6002848820015460a01c161561089f578315610891575083855260ca602090815282862060010182905582862060020180546001600160a01b0319168517905582519485528401528201527fe4eea18f24578792f606d968efb4f4ec1ea13d58d50c82006515adadb0a276f290606090a180f35b8251630ae8f22360e21b8152fd5b825163d40820c360e01b8152fd5b8580fd5b5050346102ea57816003193601126102ea5760c954905160a89190911c6001600160401b03168152602090f35b50346101bc5760203660031901126101bc573560ff81168082036106d8577fb173a1edd1427ad576f900f4964fa68e44b92cfa0e1800390756129ebd97dd4892602092610929611afc565b60c9805460ff60a01b191660a09290921b60ff60a01b1691909117905551908152a180f35b5050346102ea57816003193601126102ea5760335490516001600160a01b039091168152602090f35b5050346102ea57816003193601126102ea5760209063ffffffff60cd54169051908152f35b50346101bc5760203660031901126101bc578183610a1a92608095606084516109c4816114ee565b8281528260208201528286820152015235815260cb602052209160028151936109ec856114ee565b8054855260018101546020860152015463ffffffff908181168386015260201c1660608401525180926115b4565bf35b5050346102ea57816003193601126102ea57602090516127108152f35b8334610242578060031936011261024257610a52611afc565b600080516020611b8c833981519152819055603380546001600160a01b0319811690915581906001600160a01b0316600080516020611bec8339815191528280a380f35b5050346102ea57816003193601126102ea5760c95490516001600160a01b039091168152602090f35b50346101bc5760203660031901126101bc5760c954813591906001600160a01b03163303610b575781845260ca60205263ffffffff6002848620015460a01c161561089f575080835260ca6020908152828420600201805460ff60c01b1916600160c01b179055825191825242908201527fe2d7e99c747f0e0432e852688145c87e00818a413f45fad18191d3d04f4d63299190a180f35b82516325ba3c7960e01b8152fd5b50346101bc5760203660031901126101bc57356001600160401b0381168082036106d8577fa75f2406e0931fd8259df0d754624886d64079585e253256af11d7e2d34d163392602092610bb6611afc565b60c98054600160a81b600160e81b03191660a89290921b600160a81b600160e81b031691909117905551908152a180f35b509134610242578060031936011261024257507f00000000000000000000000000000000000000000000000000000000000000006001600160a01b03163003610c415760209051600080516020611bac8339815191528152f35b5163e437988b60e01b8152fd5b50816003193601126101bc57610c6261148c565b916024356001600160401b038111610547573660238201121561054757610c92903690602481860135910161157d565b6001600160a01b037f0000000000000000000000000000000000000000000000000000000000000000811690308214610e9557600080516020611bac833981519152918183541603610e8557610ce6611afc565b600080516020611b6c8339815191525460ff1615610d0c5750505050506104329061190d565b85919294969395168551926352d1902d60e01b845260209384818a81865afa869181610e56575b50610d4857875163fec758a960e01b81528990fd5b979293959796949603610e4757610d5e8361190d565b835190600080516020611c0c8339815191528780a2865115801590610e3f575b610d8d575b5050505050905080f35b823b15610e33575050928085610e1495858398519201905af43d15610e2057660819985a5b195960ca1b3d92610dc284611562565b93610dcf8251958661153f565b84523d878686013e5b7f416464726573733a206c6f772d6c6576656c2064656c65676174652063616c6c815195610e0587611524565b60278752860152840152611954565b50803880808080610d83565b660819985a5b195960ca1b606092610dd8565b63a6c49bc960e01b8152fd5b506001610d7e565b5082516322b9fa5360e21b8152fd5b9091508581813d8311610e7e575b610e6e818361153f565b810103126107d657519038610d33565b503d610e64565b50505051631008d79560e01b8152fd5b5050505163e437988b60e01b8152fd5b5090346101bc57826003193601126101bc576034546001600160a01b03929091838316919033839003610f0457505080603354938416600080516020611bec8339815191528680a36001600160a01b0319928316176033551660345580f35b516305e05b4b60e31b8152fd5b50346101bc57816003193601126101bc578035906001600160401b0390602435908282116108ad57366023830112156108ad57810135918211610547573660248383010111610547579382610fc68593610fc0602098610fce97865260ca8a526001878720015487518b8101917b0ca2ba3432b932bab69029b4b3b732b21026b2b9b9b0b3b29d05199960211b8352603c820152603c8152610fb281611524565b51902092602436920161157d565b90611a45565b9490946119cf565b815260ca8552206002015491516001600160a01b0392831691909216148152f35b50346101bc57816003193601126101bc5761100861148c565b6110106114a7565b9084549260ff8460081c16159384809561116f575b8015611158575b156110fe5760ff1981166001178755846110ed575b506001600160a01b039283169283159081156110e2575b506110d45760ff865460081c16156110c6575061107490611b22565b60c980546001600160a01b031916919091179055611090575080f35b60207f7f26b83ff96e1f2b6a682f133852f6798a09c465da95921460cefb38474024989161ff001984541684555160018152a180f35b84516369be8d9360e11b8152fd5b8451630ae8f22360e21b8152fd5b905082161538611058565b61ffff191661010117865538611041565b855162461bcd60e51b8152602081840152602e60248201527f496e697469616c697a61626c653a20636f6e747261637420697320616c72656160448201526d191e481a5b9a5d1a585b1a5e995960921b6064820152608490fd5b50303b15801561102c5750600160ff82161461102c565b50600160ff821610611025565b5050346102ea57816003193601126102ea5760209060ff60c95460a01c169051908152f35b509190346102ea57602090816003193601126101bc576111bf61148c565b916001600160a01b037f0000000000000000000000000000000000000000000000000000000000000000811630811461138557600080516020611bac83398151915290828254160361137557611213611afc565b8351838101929091906001600160401b0384118385101761136257838652878352600080516020611b6c8339815191525460ff161561125d5750505050505061043291925061190d565b86979597169087516352d1902d60e01b815285818b81865afa87918161132f575b5061129357885163fec758a960e01b81528a90fd5b98929394969897959703611320576112aa8861190d565b845190600080516020611c0c8339815191528880a2825115801590611319575b6112da575b505050505050905080f35b873b15610e33575050938095819261130c9651915af43d15610e2057660819985a5b195960ca1b3d92610dc284611562565b50803880808080806112cf565b50866112ca565b5083516322b9fa5360e21b8152fd5b9091508681813d831161135b575b611347818361153f565b810103126113575751903861127e565b8780fd5b503d61133d565b634e487b7160e01b885260418952602488fd5b8351631008d79560e01b81528790fd5b835163e437988b60e01b81528790fd5b50913461024257602036600319011261024257506113b560209235611836565b90519015158152f35b92919050346106d85760203660031901126106d8578360c0946080849335956113e6816114bd565b8281528260208201528285820152826060820152015283815260ca6020522090805192611412846114bd565b825484526002600184015493602086019485520154918085019060018060a01b038085168352606087019261146163ffffffff95868860a01c16865260ff60808b01988c1c1615158852611836565b96835198518952516020890152511690860152511660608401525115156080830152151560a0820152f35b600435906001600160a01b03821682036114a257565b600080fd5b602435906001600160a01b03821682036114a257565b60a081019081106001600160401b038211176114d857604052565b634e487b7160e01b600052604160045260246000fd5b608081019081106001600160401b038211176114d857604052565b604081019081106001600160401b038211176114d857604052565b606081019081106001600160401b038211176114d857604052565b601f909101601f19168101906001600160401b038211908210176114d857604052565b6001600160401b0381116114d857601f01601f191660200190565b92919261158982611562565b91611597604051938461153f565b8294818452818301116114a2578281602093846000960137010152565b60609080518352602081015160208401528163ffffffff91826040820151166040860152015116910152565b805463ffffffff60a01b191660a09290921b63ffffffff60a01b16919091179055565b805463ffffffff60201b191660209290921b63ffffffff60201b16919091179055565b9190820180921161163357565b634e487b7160e01b600052601160045260246000fd5b6001600160a01b0316600090815260cc6020526040902090565b9081526001600160a01b03909116602082015263ffffffff90911660408201526060810191909152608081019190915260a00190565b9190820391821161163357565b8181029291811591840414171561163357565b63ffffffff8091169081146116335760010190565b906116e38160005260cb602052604060002090565b9260028401906117186117026116fd845463ffffffff1690565b6116b9565b835463ffffffff191663ffffffff909116178355565b61172863ffffffff421683611603565b60018501611764815461175e61175661175061174a60c95460ff9060a01c1690565b60ff1690565b836116a6565b612710900490565b90611626565b8082558211156117f95790600080516020611bcc8339815191526117f7966117d76117f19594549485809355826117cc6117b08a6117a18d611649565b90600052602052604060002090565b835463ffffffff1663ffffffff16600052602052604060002090565b555463ffffffff1690565b6117e9826040519384938b8b86611663565b0390a1611699565b916116ce565b565b50806118256118319382600080516020611bcc8339815191529855826117cc6117b0886117a18b611649565b60405195869586611663565b0390a1565b60009080825260ca60205263ffffffff9081600260408520015460a01c1660018060401b03908160c95460a81c16018181116118f95716421191826118dd575b826118ae575b508115611892575b5061188c5790565b50600190565b82525060ca602052604081206002015460c01c60ff1638611884565b90809250835260cb6020526118cf81600260408620015460201c1642611699565b9060cd54161115903861187c565b81845260cb602052604084208054600190910154119250611876565b634e487b7160e01b85526011600452602485fd5b803b1561194257600080516020611bac83398151915280546001600160a01b0319166001600160a01b03909216919091179055565b60405163145708c760e31b8152600490fd5b90919015611960575090565b8151156119705750805190602001fd5b6040519062461bcd60e51b82528160208060048301528251908160248401526000935b8285106119b6575050604492506000838284010152601f80199101168101030190fd5b8481018201518686016044015293810193859350611993565b6005811015611a2f57806119e05750565b600181036119fa57604051638baa579f60e01b8152600490fd5b60028103611a1457604051634be6321b60e01b8152600490fd5b600314611a1d57565b60405163185f3d1d60e21b8152600490fd5b634e487b7160e01b600052602160045260246000fd5b906041815114600014611a7357611a6f916020820151906060604084015193015160001a90611a7d565b9091565b5050600090600290565b9291906fa2a8918ca85bafe22016d0b997e4df60600160ff1b038311611af05791608094939160ff602094604051948552168484015260408301526060820152600093849182805260015afa15611ae35781516001600160a01b0381161561188c579190565b50604051903d90823e3d90fd5b50505050600090600390565b6033546001600160a01b03163303611b1057565b604051632e6c18c960e11b8152600490fd5b600080516020611b8c833981519152819055603380546001600160a01b039283166001600160a01b031982168117909255909116600080516020611bec833981519152600080a356fe4910fdfa16fed3260ed0e7147f7cc6da11a60208b5b9406d12a635614ffd9143b53127684a568b3173ae13b9f8a6016e243e63b6e8ee1178d6a717850b5d6103360894a13ba1a3210667c828492db98dca3e2076cc3735a920a3ca505d382bbc996a417e6461fc8f287ec9a6c2e9afb764a1d6fbdaa6570826ae99855b453aff8be0079c531659141344cd1fd0a4f28419497f9722a3daafe3b4186f6b6457e0bc7cd75a20ee27fd9adebab32041f755214dbc6bffa90cc0225b39da2e5c2d3ba2646970667358221220944bbc5434cfb11a9ab3e88d1518f3997d50800c0d5b73fedf377f9a0be0c69364736f6c63430008110033",
  "devdoc": {
    "kind": "dev",
    "methods": {
      "claimOwnership()": {
        "details": "pending owner call this function to claim ownership"
      },
      "owner()": {
        "details": "Returns the address of the current owner."
      },
      "pendingOwner()": {
        "details": "Return the address of the pending owner"
      },
      "proxiableUUID()": {
        "details": "Implementation of the ERC1822 {proxiableUUID} function. This returns the storage slot used by the implementation. It is used to validate the implementation's compatibility when performing an upgrade. IMPORTANT: A proxy pointing at a proxiable contract should not be considered proxiable itself, because this risks bricking a proxy that upgrades to it, by delegating to itself until out of gas. Thus it is critical that this function revert if invoked through a proxy. This is guaranteed by the `notDelegated` modifier."
      },
      "renounceOwnership()": {
        "details": "Leaves the contract without owner. It will not be possible to call `onlyOwner` functions anymore. Can only be called by the current owner. NOTE: Renouncing ownership will leave the contract without an owner, thereby removing any functionality that is only available to the owner."
      },
      "transferOwnership(address,bool)": {
        "details": "Transfers ownership of the contract to a new account (`newOwner`). Can only be called by the current owner. Note If direct is false, it will set an pending owner and the OwnerShipTransferring only happens when the pending owner claim the ownership"
      },
      "upgradeTo(address)": {
        "details": "Upgrade the implementation of the proxy to `newImplementation`. Calls {_authorizeUpgrade}. Emits an {Upgraded} event."
      },
      "upgradeToAndCall(address,bytes)": {
        "details": "Upgrade the implementation of the proxy to `newImplementation`, and subsequently execute the function call encoded in `data`. Calls {_authorizeUpgrade}. Emits an {Upgraded} event."
      }
    },
    "version": 1
  },
  "userdoc": {
    "kind": "user",
    "methods": {},
    "version": 1
  },
  "storageLayout": {
    "storage": [
      {
        "astId": 24550,
        "contract": "src/PiggyBank.sol:PiggyBank",
        "label": "_initialized",
        "offset": 0,
        "slot": "0",
        "type": "t_uint8"
      },
      {
        "astId": 24553,
        "contract": "src/PiggyBank.sol:PiggyBank",
        "label": "_initializing",
        "offset": 1,
        "slot": "0",
        "type": "t_bool"
      },
      {
        "astId": 27910,
        "contract": "src/PiggyBank.sol:PiggyBank",
        "label": "__gap",
        "offset": 0,
        "slot": "1",
        "type": "t_array(t_uint256)50_storage"
      },
      {
        "astId": 29813,
        "contract": "src/PiggyBank.sol:PiggyBank",
        "label": "_owner",
        "offset": 0,
        "slot": "51",
        "type": "t_address"
      },
      {
        "astId": 29815,
        "contract": "src/PiggyBank.sol:PiggyBank",
        "label": "_pendingOwner",
        "offset": 0,
        "slot": "52",
        "type": "t_address"
      },
      {
        "astId": 30013,
        "contract": "src/PiggyBank.sol:PiggyBank",
        "label": "__gap",
        "offset": 0,
        "slot": "53",
        "type": "t_array(t_uint256)48_storage"
      },
      {
        "astId": 24529,
        "contract": "src/PiggyBank.sol:PiggyBank",
        "label": "__gap",
        "offset": 0,
        "slot": "101",
        "type": "t_array(t_uint256)50_storage"
      },
      {
        "astId": 24852,
        "contract": "src/PiggyBank.sol:PiggyBank",
        "label": "__gap",
        "offset": 0,
        "slot": "151",
        "type": "t_array(t_uint256)50_storage"
      },
      {
        "astId": 7704,
        "contract": "src/PiggyBank.sol:PiggyBank",
        "label": "portal",
        "offset": 0,
        "slot": "201",
        "type": "t_address"
      },
      {
        "astId": 7706,
        "contract": "src/PiggyBank.sol:PiggyBank",
        "label": "multiple",
        "offset": 20,
        "slot": "201",
        "type": "t_uint8"
      },
      {
        "astId": 7708,
        "contract": "src/PiggyBank.sol:PiggyBank",
        "label": "minTimeLong",
        "offset": 21,
        "slot": "201",
        "type": "t_uint64"
      },
      {
        "astId": 7713,
        "contract": "src/PiggyBank.sol:PiggyBank",
        "label": "seasons",
        "offset": 0,
        "slot": "202",
        "type": "t_mapping(t_uint256,t_struct(SeasonInfo)15376_storage)"
      },
      {
        "astId": 7718,
        "contract": "src/PiggyBank.sol:PiggyBank",
        "label": "rounds",
        "offset": 0,
        "slot": "203",
        "type": "t_mapping(t_uint256,t_struct(RoundInfo)15385_storage)"
      },
      {
        "astId": 7727,
        "contract": "src/PiggyBank.sol:PiggyBank",
        "label": "users",
        "offset": 0,
        "slot": "204",
        "type": "t_mapping(t_address,t_mapping(t_uint256,t_mapping(t_uint256,t_struct(UserInfo)15390_storage)))"
      },
      {
        "astId": 7729,
        "contract": "src/PiggyBank.sol:PiggyBank",
        "label": "countDownTimeLong",
        "offset": 0,
        "slot": "205",
        "type": "t_uint32"
      },
      {
        "astId": 7733,
        "contract": "src/PiggyBank.sol:PiggyBank",
        "label": "_gap",
        "offset": 0,
        "slot": "206",
        "type": "t_array(t_uint256)43_storage"
      }
    ],
    "types": {
      "t_address": {
        "encoding": "inplace",
        "label": "address",
        "numberOfBytes": "20"
      },
      "t_array(t_uint256)43_storage": {
        "base": "t_uint256",
        "encoding": "inplace",
        "label": "uint256[43]",
        "numberOfBytes": "1376"
      },
      "t_array(t_uint256)48_storage": {
        "base": "t_uint256",
        "encoding": "inplace",
        "label": "uint256[48]",
        "numberOfBytes": "1536"
      },
      "t_array(t_uint256)50_storage": {
        "base": "t_uint256",
        "encoding": "inplace",
        "label": "uint256[50]",
        "numberOfBytes": "1600"
      },
      "t_bool": {
        "encoding": "inplace",
        "label": "bool",
        "numberOfBytes": "1"
      },
      "t_bytes32": {
        "encoding": "inplace",
        "label": "bytes32",
        "numberOfBytes": "32"
      },
      "t_mapping(t_address,t_mapping(t_uint256,t_mapping(t_uint256,t_struct(UserInfo)15390_storage)))": {
        "encoding": "mapping",
        "key": "t_address",
        "label": "mapping(address => mapping(uint256 => mapping(uint256 => struct IPiggyBankDefination.UserInfo)))",
        "numberOfBytes": "32",
        "value": "t_mapping(t_uint256,t_mapping(t_uint256,t_struct(UserInfo)15390_storage))"
      },
      "t_mapping(t_uint256,t_mapping(t_uint256,t_struct(UserInfo)15390_storage))": {
        "encoding": "mapping",
        "key": "t_uint256",
        "label": "mapping(uint256 => mapping(uint256 => struct IPiggyBankDefination.UserInfo))",
        "numberOfBytes": "32",
        "value": "t_mapping(t_uint256,t_struct(UserInfo)15390_storage)"
      },
      "t_mapping(t_uint256,t_struct(RoundInfo)15385_storage)": {
        "encoding": "mapping",
        "key": "t_uint256",
        "label": "mapping(uint256 => struct IPiggyBankDefination.RoundInfo)",
        "numberOfBytes": "32",
        "value": "t_struct(RoundInfo)15385_storage"
      },
      "t_mapping(t_uint256,t_struct(SeasonInfo)15376_storage)": {
        "encoding": "mapping",
        "key": "t_uint256",
        "label": "mapping(uint256 => struct IPiggyBankDefination.SeasonInfo)",
        "numberOfBytes": "32",
        "value": "t_struct(SeasonInfo)15376_storage"
      },
      "t_mapping(t_uint256,t_struct(UserInfo)15390_storage)": {
        "encoding": "mapping",
        "key": "t_uint256",
        "label": "mapping(uint256 => struct IPiggyBankDefination.UserInfo)",
        "numberOfBytes": "32",
        "value": "t_struct(UserInfo)15390_storage"
      },
      "t_struct(RoundInfo)15385_storage": {
        "encoding": "inplace",
        "label": "struct IPiggyBankDefination.RoundInfo",
        "members": [
          {
            "astId": 15378,
            "contract": "src/PiggyBank.sol:PiggyBank",
            "label": "totalAmount",
            "offset": 0,
            "slot": "0",
            "type": "t_uint256"
          },
          {
            "astId": 15380,
            "contract": "src/PiggyBank.sol:PiggyBank",
            "label": "target",
            "offset": 0,
            "slot": "1",
            "type": "t_uint256"
          },
          {
            "astId": 15382,
            "contract": "src/PiggyBank.sol:PiggyBank",
            "label": "currentIndex",
            "offset": 0,
            "slot": "2",
            "type": "t_uint32"
          },
          {
            "astId": 15384,
            "contract": "src/PiggyBank.sol:PiggyBank",
            "label": "startTime",
            "offset": 4,
            "slot": "2",
            "type": "t_uint32"
          }
        ],
        "numberOfBytes": "96"
      },
      "t_struct(SeasonInfo)15376_storage": {
        "encoding": "inplace",
        "label": "struct IPiggyBankDefination.SeasonInfo",
        "members": [
          {
            "astId": 15367,
            "contract": "src/PiggyBank.sol:PiggyBank",
            "label": "totalAmount",
            "offset": 0,
            "slot": "0",
            "type": "t_uint256"
          },
          {
            "astId": 15369,
            "contract": "src/PiggyBank.sol:PiggyBank",
            "label": "stopedHash",
            "offset": 0,
            "slot": "1",
            "type": "t_bytes32"
          },
          {
            "astId": 15371,
            "contract": "src/PiggyBank.sol:PiggyBank",
            "label": "verifySigner",
            "offset": 0,
            "slot": "2",
            "type": "t_address"
          },
          {
            "astId": 15373,
            "contract": "src/PiggyBank.sol:PiggyBank",
            "label": "startTime",
            "offset": 20,
            "slot": "2",
            "type": "t_uint32"
          },
          {
            "astId": 15375,
            "contract": "src/PiggyBank.sol:PiggyBank",
            "label": "stoped",
            "offset": 24,
            "slot": "2",
            "type": "t_bool"
          }
        ],
        "numberOfBytes": "96"
      },
      "t_struct(UserInfo)15390_storage": {
        "encoding": "inplace",
        "label": "struct IPiggyBankDefination.UserInfo",
        "members": [
          {
            "astId": 15387,
            "contract": "src/PiggyBank.sol:PiggyBank",
            "label": "amount",
            "offset": 0,
            "slot": "0",
            "type": "t_uint256"
          },
          {
            "astId": 15389,
            "contract": "src/PiggyBank.sol:PiggyBank",
            "label": "claimedAmount",
            "offset": 0,
            "slot": "1",
            "type": "t_uint256"
          }
        ],
        "numberOfBytes": "64"
      },
      "t_uint256": {
        "encoding": "inplace",
        "label": "uint256",
        "numberOfBytes": "32"
      },
      "t_uint32": {
        "encoding": "inplace",
        "label": "uint32",
        "numberOfBytes": "4"
      },
      "t_uint64": {
        "encoding": "inplace",
        "label": "uint64",
        "numberOfBytes": "8"
      },
      "t_uint8": {
        "encoding": "inplace",
        "label": "uint8",
        "numberOfBytes": "1"
      }
    }
  }
}