{
  "address": "0x8E8Aa49eAd5E00bc54057eC38FE0B963EF86fF5c",
  "abi": [
    {
      "inputs": [],
      "name": "P1",
      "outputs": [
        {
          "internalType": "string",
          "name": "",
          "type": "string"
        }
      ],
      "stateMutability": "pure",
      "type": "function"
    },
    {
      "inputs": [],
      "name": "P2",
      "outputs": [
        {
          "internalType": "string",
          "name": "",
          "type": "string"
        }
      ],
      "stateMutability": "pure",
      "type": "function"
    },
    {
      "inputs": [],
      "name": "P3",
      "outputs": [
        {
          "internalType": "string",
          "name": "",
          "type": "string"
        }
      ],
      "stateMutability": "pure",
      "type": "function"
    },
    {
      "inputs": [],
      "name": "P4",
      "outputs": [
        {
          "internalType": "string",
          "name": "",
          "type": "string"
        }
      ],
      "stateMutability": "pure",
      "type": "function"
    },
    {
      "inputs": [],
      "name": "P5",
      "outputs": [
        {
          "internalType": "string",
          "name": "",
          "type": "string"
        }
      ],
      "stateMutability": "pure",
      "type": "function"
    },
    {
      "inputs": [],
      "name": "P6",
      "outputs": [
        {
          "internalType": "string",
          "name": "",
          "type": "string"
        }
      ],
      "stateMutability": "pure",
      "type": "function"
    },
    {
      "inputs": [],
      "name": "P7",
      "outputs": [
        {
          "internalType": "string",
          "name": "",
          "type": "string"
        }
      ],
      "stateMutability": "pure",
      "type": "function"
    },
    {
      "inputs": [],
      "name": "P8",
      "outputs": [
        {
          "internalType": "string",
          "name": "",
          "type": "string"
        }
      ],
      "stateMutability": "pure",
      "type": "function"
    },
    {
      "inputs": [],
      "name": "P9",
      "outputs": [
        {
          "internalType": "string",
          "name": "",
          "type": "string"
        }
      ],
      "stateMutability": "pure",
      "type": "function"
    }
  ],
  "transactionHash": "0x7956035502bf599d679cd20c98fd82116d5e8e260ea4d710b9df30c575d9fc47",
  "args": [],
  "numDeployments": 1,
  "solcInputHash": "692c4046effa55b26569080510ee00f4",
  "bytecode": "0x6080806040523461001a57613e119081610020823930815050f35b600080fdfe60806040908082526004918236101561001757600080fd5b60009160e0908335821c9081621454c814613c57575080631de21b7614612e5557806330332aea14612ccf5780636e2a56d514612bf5578063855e6a74146109a3578063a85e9c83146108e1578063c1c169981461072a578063ccf85419146106515763f50f3bca1461008957600080fd5b8260031936011261064d578151926104a08401906001600160401b0382118583101761063a578184526104808086527f3c2f746578743e3c7376672076657273696f6e3d22312e31222069643d22707260208701527f656669785f5f4c617965725f312220786d6c6e733d22687474703a2f2f777777858701527f2e77332e6f72672f323030302f7376672220786d6c6e733a786c696e6b3d226860608701527f7474703a2f2f7777772e77332e6f72672f313939392f786c696e6b2220783d2260808701527f3833302220793d22313530222076696577426f783d223020302032333030302060a08701527f32333030302220786d6c3a73706163653d227072657365727665223e3c70617460c08701527f6820643d224d313234382030633638392e3320302031323438203535382e3720848701527f313234382031323438732d3535382e3720313234382d313234382031323438536101008701527f3020313933372e3320302031323438203535382e372030203132343820307a226101208701527f2066696c6c2d72756c653d226576656e6f64642220636c69702d72756c653d226101408701527f6576656e6f6464222066696c6c3d2223663062393062222f3e3c7061746820646101608701527f3d224d3638352e3920313234386c2e3920333330203238302e342031363576316101808701527f39332e326c2d3434342e352d3236302e37762d3532346c3136332e322039362e6101a08701527f357a6d302d333330763139322e336c2d3136332e332d39362e36563832312e346101c08701527f6c3136332e332d39362e364c383530203832312e34203638352e39203931387a6101e08701527f6d3339382e342d39362e366c3136332e332d39362e36203136342e312039362e6102008701527f362d3136342e312039362e362d3136332e332d39362e367a222066696c6c3d226102208701527f23666666222f3e3c7061746820643d224d3830332e3920313530392e36762d316102408701527f39332e326c3136332e332039362e36763139322e336c2d3136332e332d39352e6102608701527f377a6d3238302e34203330322e366c3136332e332039362e36203136342e312d6102808701527f39362e36763139322e336c2d3136342e312039362e362d3136332e332d39362e6102a08701527f36762d3139322e337a6d3536312e362d3939302e386c3136332e332d39362e366102c08701527f203136342e312039362e36763139322e336c2d3136342e312039362e365639316102e08701527f386c2d3136332e332d39362e367a6d3136332e33203735362e366c2e392d33336103008701527f30203136332e332d39362e36763532346c2d3434342e35203236302e37762d316103208701527f39332e326c3238302e332d3136342e397a222066696c6c3d2223666666222f3e6103408701527f3c706174682066696c6c3d22236666662220643d224d313639322e31203135306103608701527f392e366c2d3136332e332039352e3756313431336c3136332e332d39362e36766103808701527f3139332e327a222f3e3c7061746820643d224d313639322e31203938362e346c6103a08701527f2e39203139332e322d3238312e3220313635763333302e386c2d3136332e33206103c08701527f39352e372d3136332e332d39352e37762d3333302e386c2d3238312e322d31366103e08701527f35563938362e346c3136342d39362e36203237392e35203136352e38203238316104008701527f2e322d3136352e38203136342e312039362e36682d2e377a4d3830332e3920366104208701527f35362e356c3434332e372d3236312e36203434342e35203236312e362d3136336104408701527f2e332039362e362d3238312e322d3136352e382d3238302e34203136352e382d6104608701527f3136332e332d39362e367a222066696c6c3d2223666666222f3e3c2f7376673e908601528351806106368782613d52565b0390f35b634e487b7160e01b815260418652602490fd5b8280fd5b5050816003193601126107265780519160a08301906001600160401b03821184831017610713575061063693508152608082527f3c2f746578743e3c746578742064783d22393535222064793d223432352220646020830152600080516020613dbc833981519152818301527f66616d696c793d2256543332332220666f6e742d7765696768743d223430302260608301527f20666f6e742d73697a653d223738222066696c6c3d2223464646223e4167653a60808301525191829182613d52565b634e487b7160e01b815260418552602490fd5b5080fd5b508260031936011261064d578151926101808401906001600160401b0382118583101761063a5781845261014685527f3c2f746578743e3c746578742064783d22393735222064793d223130302220646020860152600080516020613d9c833981519152848601527f616e63686f723d226d6964646c6522207374796c653d226865696768743a313060608601527f3070782220666f6e742d66616d696c793d22426c61636b204f7073204f6e652260808601527f20666f6e742d73697a653d223536222066696c6c3d2223464638413031223e4460a08601527f6567656e5265626f726e3c2f746578743e3c746578742064783d22313037302260c08601527f2064793d223139302220646f6d696e616e742d626173656c696e653d2263656e838601527f7472616c2220746578742d616e63686f723d22656e642220666f6e742d66616d6101008601527f696c793d2256543332332220666f6e742d7765696768743d223430302220666f6101208601527f6e742d73697a653d223830222066696c6c3d2275726c28237072656669785f5f61014086015265381b9a94911f60d11b6101608601528351806106368782613d52565b5050816003193601126107265780519160a08301906001600160401b03821184831017610713575061063693508152607f82527f3c2f746578743e3c746578742064783d22363937222064793d223432352220646020830152600080516020613dbc833981519152818301527f66616d696c793d2256543332332220666f6e742d7765696768743d223130302260608301527f20666f6e742d73697a653d223739222066696c6c3d2223464646223e52653a0060808301525191829182613d52565b508260031936011261064d57815192611d408401906001600160401b0382118583101761063a5761063685857f363630392220643d224d31313335203235367635682d35762d357a222f3e3c7086868352611d1584527f3c706174682066696c6c3d22234646443035382220643d224d3131323520323560208501527f367635682d35762d357a222f3e3c706174682066696c6c3d2223453836363039838501527f2220643d224d31313435203235367635682d35762d357a222f3e3c706174682060608501527f66696c6c3d22234638433135362220643d224d31313635203235367635682d3560808501527f762d357a222f3e3c706174682066696c6c3d22236666662220643d224d31313160a08501527f35203235367635682d35762d357a222f3e3c706174682066696c6c3d2223453860c08501528301527f6174682066696c6c3d22234638433135362220643d224d3131353520323536766101008301527f35682d35762d357a222f3e3c706174682066696c6c3d22233030302220643d22806101208401527f4d31313735203235367635682d35762d357a4d31313130203235367635682d356101408401527f762d357a222f3e3c706174682066696c6c3d22234646443035382220643d224d6101608401527f31313330203235367635682d35762d357a222f3e3c706174682066696c6c3d226101808401527f234330344130372220643d224d31313530203235367635682d35762d357a222f6101a08401527f3e3c706174682066696c6c3d22234632393931342220643d224d3131373020326101c08401527f35367635682d35762d357a222f3e3c706174682066696c6c3d222346464430356101e08401527f382220643d224d31313230203235367635682d35762d357a222f3e3c706174686102008401527f2066696c6c3d22234538363630392220643d224d31313430203235367635682d6102208401527f35762d357a222f3e3c706174682066696c6c3d22234638433135362220643d2290816102408501527f4d31313630203235367635682d35762d357a222f3e3c706174682066696c6c3d6102608501527f22236666662220643d224d31313235203234367635682d35762d357a222f3e3c6102808501527f706174682066696c6c3d22234638433135362220643d224d31313435203234366102a08501527f7635682d35762d357a222f3e3c706174682066696c6c3d22233030302220643d6102c08501527f224d31313635203234367635682d35762d357a222f3e3c706174682066696c6c6102e08501527f3d22234646443035382220643d224d31313335203234367635682d35762d357a6103008501527f222f3e3c706174682066696c6c3d22234632393931342220643d224d313135356103208501527f203234367635682d35762d357a222f3e3c706174682066696c6c3d22236666666103408501527f2220643d224d31313330203234367635682d35762d357a222f3e3c70617468206103608501527f66696c6c3d22234638433135362220643d224d31313530203234367635682d356103808501527f762d357a222f3e3c706174682066696c6c3d22233030302220643d224d3131326103a08501527f30203234367635682d35762d357a222f3e3c706174682066696c6c3d222346466103c08501527f443035382220643d224d31313430203234367635682d35762d357a222f3e3c706103e08501527f6174682066696c6c3d22234632393931342220643d224d3131363020323436766104008501526104208401527f4d313133302032333668357635682d357a4d31313035203236367635682d35766104408401527f2d357a222f3e3c706174682066696c6c3d22234646443035382220643d224d31806104608501527f313235203236367635682d35762d357a222f3e3c706174682066696c6c3d22236104808501527f4638433135362220643d224d31313435203236367635682d35762d357a4d31316104a08501527f3635203236367635682d35762d357a222f3e3c706174682066696c6c3d2223466104c08501527f46443035382220643d224d31313135203236367635682d35762d357a222f3e3c6104e08501527f706174682066696c6c3d22234330344130372220643d224d31313335203236366105008501527f7635682d35762d357a4d31313535203236367635682d35762d357a222f3e3c706105208501527f6174682066696c6c3d22234632393931342220643d224d3131373520323636766105408501527f35682d35762d357a222f3e3c706174682066696c6c3d22236666662220643d226105608501527f4d31313130203236367635682d35762d357a222f3e3c706174682066696c6c3d6105808501527f22234538363630392220643d224d31313330203236367635682d35762d357a4d6105a08501527f31313530203236367635682d35762d357a222f3e3c706174682066696c6c3d226105c08501527f234638433135362220643d224d31313730203236367635682d35762d357a222f6105e08501527f3e3c706174682066696c6c3d22234646443035382220643d224d31313230203290816106008601527f36367635682d35762d357a4d31313430203236367635682d35762d357a222f3e6106208601527f3c706174682066696c6c3d22234638433135362220643d224d313136302032366106408601527f367635682d35762d357a222f3e3c706174682066696c6c3d2223303030222064806106608701527f3d224d31313830203236367635682d35762d357a4d31313235203234317635686106808701527f2d35762d357a222f3e3c706174682066696c6c3d22234632393931342220643d92836106a08801527f224d31313435203234317635682d35762d357a222f3e3c706174682066696c6c6106c08801527f3d22236666662220643d224d31313335203234317635682d35762d357a222f3e6106e08801527f3c706174682066696c6c3d22233030302220643d224d313135352032343176356107008801527f682d35762d357a4d31313330203234317635682d35762d357a222f3e3c7061746107208801527f682066696c6c3d22234632393931342220643d224d31313530203234317635686107408801527f2d35762d357a222f3e3c706174682066696c6c3d22236666662220643d224d316107608801527f313430203234317635682d35762d357a222f3e3c706174682066696c6c3d22236107808801527f3030302220643d224d31313630203234317635682d35762d357a222f3e3c70616107a08801527f74682066696c6c3d22234646443035382220643d224d313132352032363176356107c08801527f682d35762d357a222f3e3c706174682066696c6c3d22234638433035362220646107e08801527f3d224d31313435203236317635682d35762d357a222f3e3c706174682066696c6108008801527f6c3d22234638433135362220643d224d31313635203236317635682d35762d356108208801527f7a222f3e3c706174682066696c6c3d22236666662220643d224d3131313520326108408801527f36317635682d35762d357a222f3e3c706174682066696c6c3d222343303441306108608801527f372220643d224d31313335203236317635682d35762d357a4d313135352032366108808801527f317635682d35762d357a222f3e3c706174682066696c6c3d22233030302220646108a08801527f3d224d31313735203236317635682d35762d357a4d31313130203236317635686108c08801527f2d35762d357a222f3e3c706174682066696c6c3d22234538363630392220643d6108e08801527f224d31313330203236317635682d35762d357a4d31313530203236317635682d6109008801527f35762d357a222f3e3c706174682066696c6c3d22234632393931342220643d226109208801527f4d31313730203236317635682d35762d357a222f3e3c706174682066696c6c3d6109408801527f22234646443035382220643d224d31313230203236317635682d35762d357a4d6109608801527f31313430203236317635682d35762d357a222f3e3c706174682066696c6c3d226109808801527f234638433135362220643d224d31313630203236317635682d35762d357a222f6109a08801527f3e3c706174682066696c6c3d22234646443035382220643d224d3131323520326109c08801527f35317635682d35762d357a222f3e3c706174682066696c6c3d222346384331356109e08801527f362220643d224d31313435203235317635682d35762d357a222f3e3c70617468610a008801527f2066696c6c3d22234632393931342220643d224d31313635203235317635682d610a208801527f35762d357a222f3e3c706174682066696c6c3d22233030302220643d224d3131610a408801527f3135203235317635682d35762d357a222f3e3c706174682066696c6c3d222346610a608801527f46443035382220643d224d31313335203235317635682d35762d357a222f3e3c610a808801527f706174682066696c6c3d22234638433135362220643d224d3131353520323531610aa08801527f7635682d35762d357a222f3e3c706174682066696c6c3d2223464644303538229485610ac08901527f20643d224d31313330203235317635682d35762d357a222f3e3c706174682066610ae08901527f696c6c3d22234638433135362220643d224d31313530203235317635682d3576610b008901527f2d357a222f3e3c706174682066696c6c3d22233030302220643d224d31313730610b208901527f203235317635682d35762d357a222f3e3c706174682066696c6c3d2223666666610b408901527f2220643d224d31313230203235317635682d35762d357a222f3e3c7061746820610b608901527f66696c6c3d22234646443035382220643d224d31313430203235317635682d35610b808901527f762d357a222f3e3c706174682066696c6c3d22234638433135362220643d224d610ba08901527f31313630203235317635682d35762d357a222f3e3c706174682066696c6c3d22610bc08901527f233030302220643d224d313133352032333668357635682d357a4d3131303520610be08901527f3237317635682d35762d357a222f3e3c706174682066696c6c3d222346464430610c008901527f35382220643d224d31313235203237317635682d35762d357a222f3e3c706174610c208901527f682066696c6c3d22234538363630392220643d224d3131343520323731763568610c408901527f2d35762d357a222f3e3c706174682066696c6c3d22234638433135362220643d9384610c608a01527f224d31313635203237317635682d35762d357a222f3e3c706174682066696c6c610c808a01527f3d22234646443035382220643d224d31313135203237317635682d35762d357a610ca08a01527f222f3e3c706174682066696c6c3d22234538363630392220643d224d31313335610cc08a01527f203237317635682d35762d357a222f3e3c706174682066696c6c3d2223463843610ce08a01527f3135362220643d224d31313535203237317635682d35762d357a222f3e3c7061610d008a01527f74682066696c6c3d22234632393931342220643d224d31313735203237317635610d208a01527f682d35762d357a222f3e3c706174682066696c6c3d22236666662220643d224d9182610d408b01527f31313130203237317635682d35762d357a222f3e3c706174682066696c6c3d22610d608b01527f234538363630392220643d224d31313330203237317635682d35762d357a222f610d808b01527f3e3c706174682066696c6c3d22234330344130372220643d224d313135302032610da08b01527f37317635682d35762d357a222f3e3c706174682066696c6c3d22234638433135610dc08b01527f362220643d224d31313730203237317635682d35762d357a222f3e3c70617468610de08b01527f2066696c6c3d22234646443035382220643d224d31313230203237317635682d610e008b01527f35762d357a222f3e3c706174682066696c6c3d22234538363630392220643d22610e208b01527f4d31313430203237317635682d35762d357a222f3e3c706174682066696c6c3d610e408b01527f22234638433135362220643d224d31313630203237317635682d35762d357a22610e608b01527f2f3e3c706174682066696c6c3d22233030302220643d224d3131383020323731610e808b01527f7635682d35762d357a4d313134302032333668357635682d357a4d3131303520610ea08b01527f3237367635682d35762d357a222f3e3c706174682066696c6c3d222346464430610ec08b01527f35382220643d224d31313235203237367635682d35762d357a222f3e3c706174610ee08b01527f682066696c6c3d22234638433035362220643d224d3131343520323736763568610f008b015285610f208b01527f224d31313635203237367635682d35762d357a222f3e3c706174682066696c6c610f408b01527f3d22234646443035382220643d224d31313135203237367635682d35762d357a610f608b01527f222f3e3c706174682066696c6c3d22234330344130372220643d224d31313335610f808b01527f203237367635682d35762d357a4d31313535203237367635682d35762d357a22610fa08b01527f2f3e3c706174682066696c6c3d22234632393931342220643d224d3131373520610fc08b01527f3237367635682d35762d357a222f3e3c706174682066696c6c3d222366666622610fe08b01527f20643d224d31313130203237367635682d35762d357a222f3e3c7061746820666110008b01527f696c6c3d22234538363630392220643d224d31313330203237367635682d35766110208b01527f2d357a4d31313530203237367635682d35762d357a222f3e3c706174682066696110408b01527f6c6c3d22234638433135362220643d224d31313730203237367635682d35762d6110608b01527f357a222f3e3c706174682066696c6c3d22234646443035382220643d224d31316110808b01527f3230203237367635682d35762d357a4d31313430203237367635682d35762d356110a08b01527f7a222f3e3c706174682066696c6c3d22234638433135362220643d224d3131366110c08b01527f30203237367635682d35762d357a222f3e3c706174682066696c6c3d222330306110e08b01527f302220643d224d31313830203237367635682d35762d357a222f3e3c706174686111008b01527f2066696c6c3d22234646443035382220643d224d31313235203239367635682d6111208b01526111408a01527f4d31313435203239367635682d35762d357a222f3e3c706174682066696c6c3d6111608a01527f22234632393931342220643d224d31313635203239367635682d35762d357a226111808a01527f2f3e3c706174682066696c6c3d22233030302220643d224d31313135203239366111a08a0152866111c08a01527f20643d224d31313335203239367635682d35762d357a222f3e3c7061746820666111e08a01527f696c6c3d22234638433135362220643d224d31313535203239367635682d35766112008a01526112208901527f313330203239367635682d35762d357a222f3e3c706174682066696c6c3d22236112408901527f4638433135362220643d224d31313530203239367635682d35762d357a222f3e6112608901527f3c706174682066696c6c3d22233030302220643d224d313137302032393676356112808901526112a08801527f31313230203239367635682d35762d357a222f3e3c706174682066696c6c3d226112c08801527f234646443035382220643d224d31313430203239367635682d35762d357a222f6112e08801527f3e3c706174682066696c6c3d22234638433135362220643d224d3131363020326113008801527f39367635682d35762d357a222f3e3c706174682066696c6c3d222346464430356113208801527f382220643d224d31313235203238367635682d35762d357a222f3e3c706174686113408801527f2066696c6c3d22234638433135362220643d224d31313435203238367635682d6113608801527f35762d357a4d31313635203238367635682d35762d357a222f3e3c70617468206113808801527f66696c6c3d22236666662220643d224d31313135203238367635682d35762d356113a08801527f7a222f3e3c706174682066696c6c3d22234330344130372220643d224d3131336113c08801527f35203238367635682d35762d357a222f3e3c706174682066696c6c3d222345386113e08801527f363630392220643d224d31313535203238367635682d35762d357a222f3e3c706114008801527f6174682066696c6c3d22233030302220643d224d31313735203238367635682d6114208801527f35762d357a4d31313130203238367635682d35762d357a222f3e3c70617468206114408801527f66696c6c3d22234538363630392220643d224d31313330203238367635682d356114608801527f762d357a222f3e3c706174682066696c6c3d22234638433035362220643d224d6114808801527f31313530203238367635682d35762d357a222f3e3c706174682066696c6c3d226114a08801527f234632393931342220643d224d31313730203238367635682d35762d357a222f6114c08801526114e08701527f38367635682d35762d357a4d31313430203238367635682d35762d357a222f3e6115008701527f3c706174682066696c6c3d22234330344130372220643d224d313136302032386115208701526115408601527f3d224d31313235203330367635682d35762d357a222f3e3c706174682066696c6115608601527f6c3d22234632393931342220643d224d31313435203330367635682d35762d356115808601527f7a222f3e3c706174682066696c6c3d22234646453641362220643d224d3131336115a08601527f35203330367635682d35762d357a222f3e3c706174682066696c6c3d222330306115c08601527f302220643d224d31313535203330367635682d35762d357a4d313133302033306115e08601527f367635682d35762d357a222f3e3c706174682066696c6c3d22234632393931346116008601527f2220643d224d31313530203330367635682d35762d357a222f3e3c70617468206116208601527f66696c6c3d22234646453641362220643d224d31313430203330367635682d356116408601527f762d357a222f3e3c706174682066696c6c3d22233030302220643d224d3131366116608601527f30203330367635682d35762d357a4d313134352032333668357635682d357a4d6116808601527f31313035203238317635682d35762d357a222f3e3c706174682066696c6c3d226116a08601527f234646443035382220643d224d31313235203238317635682d35762d357a222f6116c08601527f3e3c706174682066696c6c3d22234638433035362220643d224d3131343520326116e08601527f38317635682d35762d357a222f3e3c706174682066696c6c3d222346384331356117008601527f362220643d224d31313635203238317635682d35762d357a222f3e3c706174686117208601527f2066696c6c3d22234646443035382220643d224d31313135203238317635682d6117408601527f35762d357a222f3e3c706174682066696c6c3d22234330344130372220643d226117608601527f4d31313335203238317635682d35762d357a4d31313535203238317635682d356117808601527f762d357a222f3e3c706174682066696c6c3d22234632393931342220643d224d6117a08601527f31313735203238317635682d35762d357a222f3e3c706174682066696c6c3d226117c08601527f236666662220643d224d31313130203238317635682d35762d357a222f3e3c706117e08601527f6174682066696c6c3d22234538363630392220643d224d3131333020323831766118008601527f35682d35762d357a4d31313530203238317635682d35762d357a222f3e3c70616118208601527f74682066696c6c3d22234638433135362220643d224d313137302032383176356118408601527f682d35762d357a222f3e3c706174682066696c6c3d22234646443035382220646118608601527f3d224d31313230203238317635682d35762d357a4d31313430203238317635686118808601526118a08501527f224d31313630203238317635682d35762d357a222f3e3c706174682066696c6c6118c08501527f3d22233030302220643d224d31313830203238317635682d35762d357a222f3e6118e08501527f3c706174682066696c6c3d22236666662220643d224d313132352033303176356119008501527f682d35762d357a222f3e3c706174682066696c6c3d22234638433135362220646119208501527f3d224d31313435203330317635682d35762d357a222f3e3c706174682066696c6119408501527f6c3d22233030302220643d224d31313635203330317635682d35762d357a222f6119608501527f3e3c706174682066696c6c3d22234646443035382220643d224d3131333520336119808501527f30317635682d35762d357a222f3e3c706174682066696c6c3d222346323939316119a08501527f342220643d224d31313535203330317635682d35762d357a222f3e3c706174686119c08501527f2066696c6c3d22236666662220643d224d31313330203330317635682d35762d6119e08501527f357a222f3e3c706174682066696c6c3d22234638433135362220643d224d3131611a008501527f3530203330317635682d35762d357a222f3e3c706174682066696c6c3d222330611a208501527f30302220643d224d31313230203330317635682d35762d357a222f3e3c706174611a408501527f682066696c6c3d22234646443035382220643d224d3131343020333031763568611a60850152611a808401527f224d31313630203330317635682d35762d357a222f3e3c706174682066696c6c611aa08401527f3d22234646443035382220643d224d31313235203239317635682d35762d357a611ac08401527f222f3e3c706174682066696c6c3d22234638433135362220643d224d31313435611ae08401527f203239317635682d35762d357a4d31313635203239317635682d35762d357a22611b008401527f2f3e3c706174682066696c6c3d22236666662220643d224d3131313520323931611b20840152611b408301527f20643d224d31313335203239317635682d35762d357a222f3e3c706174682066611b608301527f696c6c3d22234638433035362220643d224d31313535203239317635682d3576611b808301527f2d357a222f3e3c706174682066696c6c3d22233030302220643d224d31313735611ba08301527f203239317635682d35762d357a4d31313130203239317635682d35762d357a22611bc08301527f2f3e3c706174682066696c6c3d22234646443035382220643d224d3131333020611be08301527f3239317635682d35762d357a222f3e3c706174682066696c6c3d222346384331611c008301527f35362220643d224d31313530203239317635682d35762d357a222f3e3c706174611c208301527f682066696c6c3d22234632393931342220643d224d3131373020323931763568611c408301527f2d35762d357a222f3e3c706174682066696c6c3d22234646443035382220643d611c608301527f224d31313230203239317635682d35762d357a4d31313430203239317635682d611c808301527f35762d357a222f3e3c706174682066696c6c3d22234638433035362220643d22611ca08301527f4d31313630203239317635682d35762d357a222f3e3c706174682066696c6c3d611cc08301527f22233030302220643d224d31313435203331317635682d35762d357a4d313133611ce08301527f35203331317635682d35762d357a4d31313530203331317635682d35762d357a611d00830152742698989a1810199898bb1ab4169abb169abd11179f60591b611d208301525191829182613d52565b5050816003193601126107265780519160c08301906001600160401b0382118483101761071357508152608f82527f3c2f746578743e3c746578742064783d22323030222064793d223432352220646020830152600080516020613d9c833981519152828201527f616e63686f723d226c6566742220666f6e742d66616d696c793d22565433323360608301527f2220666f6e742d7765696768743d223430302220666f6e742d73697a653d223660808301526e1811103334b6361e9111a32323111f60891b60a083015251915081906106369082613d52565b508260031936011261064d578151926101608401906001600160401b0382118583101761063a5750825261012783527f3c2f746578743e3c746578742064783d223736222064793d223130302220646f60208401527f6d696e616e742d626173656c696e653d2263656e7472616c2220666f6e742d668383018190527f616d696c793d22426c61636b204f7073204f6e652220746578744c656e67746860608501527f3d223330302220666f6e742d7765696768743d223430302220666f6e742d736960808501527f7a653d223630222066696c6c3d2223464638413031223e4c69666553636f726560a08501527f3c2f746578743e3c746578742064783d223736222064793d223233302220646f60c0850152908301527f616d696c793d22426c61636b204f7073204f6e652220666f6e742d77656967686101008301527f743d223430302220666f6e742d73697a653d22313230222066696c6c3d22234661012083015266231c209818911f60c91b61014083015251915081906106369082613d52565b508260031936011261064d57815192610b808401906001600160401b0382118583101761063a57818452610b4f85527f3c7376672077696474683d223132343422206865696768743d2237303422206660208601527f696c6c3d226e6f6e652220786d6c6e733d22687474703a2f2f7777772e77332e848601527f6f72672f323030302f7376672220786d6c6e733a786c696e6b3d22687474703a60608601527f2f2f7777772e77332e6f72672f313939392f786c696e6b223e3c70617468206460808601527f3d224d322e35203730312e355639352e3035314c39372e303220322e3548313260a08601527f34312e357636393948322e357a222066696c6c3d2275726c282370726566697860c08601527f5f5f70302922207374726f6b653d2275726c28237072656669785f5f70312922838601527f207374726f6b652d77696474683d2235222f3e3c7061746820643d224d3132346101008601527f302031304838362e313176322e33343648313234305631307a4d37362e3732376101208601527f2031392e333834483132343076322e3334364837362e373237762d322e3334366101408601527f7a4d34203136392e353239683132333676322e3334364834762d322e3334367a6101608601527f4d313234302035362e39324833392e313976322e33343648313234305635362e6101808601527f39327a4d34203230372e303636683132333676322e3334364834762d322e33346101a08601527f367a4d313234302039342e343537483476322e3334366831323336762d322e336101c08601527f34367a4d34203332392e303539683132333676322e3334364834762d322e33346101e08601527f367a4d31323430203234342e363032483476322e3334366831323336762d322e6102008601527f3334367a4d34203133312e393933683132333676322e3334364834762d322e336102208601527f34367a4d31323430203238322e313338483476322e3334366831323336762d326102408601527f2e3334367a4d35372e3935392033382e313532483132343076322e33343648356102608601527f372e393539762d322e3334367a4d31323430203138382e323938483476322e336102808601527f34366831323336762d322e3334367a4d32302e3432322037352e3638394831326102a08601527f343076322e3334364832302e343232762d322e3334367a4d31323430203331306102c08601527f2e323931483476322e3334366831323336762d322e3334367a4d34203232352e6102e08601527f383334683132333676322e3334364834762d322e3334367a4d313234302031316103008601527f332e323235483476322e3334366831323336762d322e3334367a4d34203236336103208601527f2e3337683132333676322e3334364834762d322e3334367a4d313234302031356103408601527f302e373631483476322e3334366831323336762d322e3334367a4d34203330306103608601527f2e393037683132333676322e3334364834762d322e3334367a4d34203136302e6103808601527f313435683132333676322e3334364834762d322e3334367a4d313234302034376103a08601527f2e3533364834382e35373476322e3334364831323430762d322e3334367a4d346103c08601527f203139372e363832683132333676322e3334364834762d322e3334367a4d31326103e08601527f34302038352e3037334831312e30333876322e3334364831323430762d322e336104008601527f34367a4d34203331392e363735683132333676322e3334364834762d322e33346104208601527f367a4d31323430203233352e323138483476322e3334366831323336762d322e6104408601527f3334367a4d34203132322e363039683132333676322e3334364834762d322e336104608601527f34367a4d31323430203237322e373534483476322e3334366831323336762d326104808601527f2e3334367a4d36372e3334332032382e373638483132343076322e33343648366104a08601527f372e333433762d322e3334367a4d31323430203137382e393133483476322e336104c08601527f34376831323336762d322e3334377a4d32392e3830362036362e3330354831326104e08601527f343076322e3334354832392e383036762d322e3334367a4d31323430203231366105008601527f2e3435483476322e3334366831323336762d322e3334367a4d34203130332e386105208601527f3431683132333676322e3334364834762d322e3334367a4d31323430203333386105408601527f2e343433483476322e3334366831323336762d322e3334367a4d34203235332e6105608601527f393836683132333676322e3334364834762d322e3334367a4d313234302031346105808601527f312e333737483476322e3334366831323336762d322e3334367a4d34203239316105a08601527f2e353232683132333676322e3334364834762d322e3334367a4d34203334372e6105c08601527f383237683132333676322e3334364834762d322e3334367a4d313234302033356105e08601527f372e323131483476322e3334366831323336762d322e3334367a4d31323430206106008601527f3530372e333536483476322e3334366831323336762d322e3334367a4d3420336106208601527f39342e373437683132333676322e3334364834762d322e3334367a4d313234306106408601527f203534342e383933483476322e3334366831323336762d322e3334367a4d34206106608601527f3433322e323834683132333676322e3334364834762d322e3334367a4d3132346106808601527f30203636362e383836483476322e3334366831323336762d322e3334367a4d346106a08601527f203538322e343239683132333676322e3334364834762d322e3334367a4d31326106c08601527f3430203436392e3832483476322e3334366831323336762d322e3334367a4d346106e08601527f203631392e393635683132333676322e3334364834762d322e3334367a4d31326107008601527f3430203337352e393739483476322e3334366831323336762d322e3334367a4d6107208601527f34203532362e313235683132333676322e3334364834762d322e3334367a4d316107408601527f323430203431332e353136483476322e3334366831323336762d322e3334367a6107608601527f4d34203634382e313138683132333676322e3334364834762d322e3334367a4d6107808601527f31323430203536332e363631483476322e3334366831323336762d322e3334366107a08601527f7a4d34203435312e303532683132333676322e3334364834762d322e3334367a6107c08601527f4d31323430203630312e313937483476322e3334366831323336762d322e33346107e08601527f367a4d34203438382e353838683132333676322e3334364834762d322e3334366108008601527f7a4d31323430203633382e373334483476322e3334366831323336762d322e336108208601527f34367a4d31323430203439372e393732483476322e3334366831323336762d326108408601527f2e3334367a4d34203338352e333633683132333676322e3334364834762d322e6108608601527f3334367a4d31323430203533352e353039483476322e3334366831323336762d6108808601527f322e3334367a4d34203432322e39683132333676322e3334364834563432322e6108a08601527f397a4d31323430203635372e353032483476322e3334366831323336762d322e6108c08601527f3334367a4d34203537332e303435683132333676322e3334364834762d322e336108e08601527f34367a4d31323430203436302e343336483476322e3334366831323336762d326109008601527f2e3334367a4d34203631302e353831683132333676322e3334364834762d322e6109208601527f3334367a4d31323430203336362e353935483476322e3334366831323336762d6109408601527f322e3334367a4d34203531362e3734683132333676322e3334364834762d322e6109608601527f3334367a4d31323430203430342e313331483476322e3334376831323336762d6109808601527f322e3334377a4d34203535342e323737683132333676322e3334364834762d326109a08601527f2e3334367a4d31323430203434312e363638483476322e3334366831323336766109c08601527f2d322e3334367a4d34203637362e3237683132333676322e3334364834762d326109e08601527f2e3334367a4d31323430203638352e3635344834563638386831323336762d32610a008601527f2e3334367a4d34203539312e383133683132333676322e3334364834762d322e610a208601527f3334367a4d31323430203437392e323034483476322e3334366831323336762d610a408601527f322e3334367a4d34203632392e333439683132333676322e3334364834762d32610a608601527f2e3334367a222066696c6c3d2275726c28237072656669785f5f703229222f3e610a808601527f3c7061746820643d224d3132343420313256304839364c302039347631384c31610aa08601527f303220313268313134327a222066696c6c3d2223463938373031222f3e3c7465610ac08601527f78742064783d223736222064793d223630352220646f6d696e616e742d626173610ae08601527f656c696e653d2263656e7472616c22207374796c653d226865696768743a3130610b008601527f3070782220666f6e742d66616d696c793d2256543332332220746578744c656e610b208601527f6774683d22313037352220666f6e742d73697a653d223630222066696c6c3d22610b408601526e011a3231c209818911f29b2b2b21d1608d1b610b608601528351806106368782613d52565b9391505080600319360112613d4f5760c08301906001600160401b0382118483101761071357508152609c82527f3c2f746578743e3c746578742064783d2231303730222064793d22323735222060208301527f646f6d696e616e742d626173656c696e653d2263656e7472616c222074657874828201527f2d616e63686f723d22656e642220666f6e742d66616d696c793d22565433323360608301527f2220666f6e742d7765696768743d223430302220666f6e742d73697a653d223860808301527b1811103334b6361e913ab9361411b83932b334bc2fafb81b9a94911f60211b60a083015251915081906106369082613d52565b80fd5b6020808252825181830181905290939260005b828110613d8757505060409293506000838284010152601f8019910116010190565b818101860151848201604001528501613d6556fe6f6d696e616e742d626173656c696e653d2263656e7472616c2220746578742d6f6d696e616e742d626173656c696e653d2263656e7472616c2220666f6e742da2646970667358221220bb941389bd29e31fae18f8334f8d38d749565181dcef1ef38c217790c4b9e23464736f6c63430008110033",
  "devdoc": {
    "kind": "dev",
    "methods": {},
    "version": 1
  },
  "userdoc": {
    "kind": "user",
    "methods": {},
    "version": 1
  },
  "storageLayout": {
    "storage": [],
    "types": null
  }
}