{
  "address": "0x0Fd4F534bfbff6AD20a512077987E0cd0F1F133c",
  "abi": [
    {
      "inputs": [
        {
          "internalType": "address",
          "name": "owner_",
          "type": "address"
        },
        {
          "internalType": "address",
          "name": "rebornToken_",
          "type": "address"
        }
      ],
      "stateMutability": "nonpayable",
      "type": "constructor"
    },
    {
      "inputs": [],
      "name": "ZeroAddressSet",
      "type": "error"
    },
    {
      "anonymous": false,
      "inputs": [
        {
          "indexed": true,
          "internalType": "address",
          "name": "previousOwner",
          "type": "address"
        },
        {
          "indexed": true,
          "internalType": "address",
          "name": "newOwner",
          "type": "address"
        }
      ],
      "name": "OwnershipTransferred",
      "type": "event"
    },
    {
      "anonymous": false,
      "inputs": [
        {
          "indexed": false,
          "internalType": "address",
          "name": "p12Token",
          "type": "address"
        },
        {
          "indexed": false,
          "internalType": "uint256",
          "name": "amount",
          "type": "uint256"
        }
      ],
      "name": "WithdrawEmergency",
      "type": "event"
    },
    {
      "inputs": [],
      "name": "owner",
      "outputs": [
        {
          "internalType": "address",
          "name": "",
          "type": "address"
        }
      ],
      "stateMutability": "view",
      "type": "function"
    },
    {
      "inputs": [],
      "name": "rebornToken",
      "outputs": [
        {
          "internalType": "address",
          "name": "",
          "type": "address"
        }
      ],
      "stateMutability": "view",
      "type": "function"
    },
    {
      "inputs": [],
      "name": "renounceOwnership",
      "outputs": [],
      "stateMutability": "nonpayable",
      "type": "function"
    },
    {
      "inputs": [
        {
          "internalType": "address",
          "name": "to",
          "type": "address"
        },
        {
          "internalType": "uint256",
          "name": "amount",
          "type": "uint256"
        }
      ],
      "name": "reward",
      "outputs": [],
      "stateMutability": "nonpayable",
      "type": "function"
    },
    {
      "inputs": [
        {
          "internalType": "address",
          "name": "newOwner",
          "type": "address"
        }
      ],
      "name": "transferOwnership",
      "outputs": [],
      "stateMutability": "nonpayable",
      "type": "function"
    },
    {
      "inputs": [
        {
          "internalType": "address",
          "name": "to",
          "type": "address"
        }
      ],
      "name": "withdrawEmergency",
      "outputs": [],
      "stateMutability": "nonpayable",
      "type": "function"
    }
  ],
  "transactionHash": "0x83ac9c2b067d115ea3a26e0d8c8c3f664ddfabcc3764e2f6100dca15fb27fd06",
  "args": [
    "0xdec218e6009716d9c5c4AAa3c3a46137605B8b39",
    "0x1a131F7B106D58f33eAf0fE5B47DB2f2045E5732"
  ],
  "numDeployments": 1,
  "solcInputHash": "692c4046effa55b26569080510ee00f4",
  "bytecode": "0x60a0346100af57601f61084938819003918201601f19168301916001600160401b038311848410176100b45780849260409485528339810103126100af57610052602061004b836100ca565b92016100ca565b9061005c336100de565b6001600160a01b0382161561009d57610074906100de565b6080526040516107239081610126823960805181818161015e0152818161032a015261036e0152f35b604051630ae8f22360e21b8152600490fd5b600080fd5b634e487b7160e01b600052604160045260246000fd5b51906001600160a01b03821682036100af57565b600080546001600160a01b039283166001600160a01b03198216811783559216907f8be0079c531659141344cd1fd0a4f28419497f9722a3daafe3b4186f6b6457e09080a356fe60806040818152600436101561001457600080fd5b600091823560e01c90816316a065c61461035a5750806321670f2214610301578063715018a6146102b65780638da5cb5b1461028f578063a1c04f0e146101155763f2fde38b1461006457600080fd5b346101115760203660031901126101115761007d61039d565b6100856103b8565b6001600160a01b039081169182156100bf575082546001600160a01b0319811683178455166000805160206106ae8339815191528380a380f35b5162461bcd60e51b815260206004820152602660248201527f4f776e61626c653a206e6577206f776e657220697320746865207a65726f206160448201526564647265737360d01b6064820152608490fd5b5080fd5b50346101115760208060031936011261028b5761013061039d565b6101386103b8565b6001600160a01b03908082161561027a5783516370a0823160e01b8082523060048301527f0000000000000000000000000000000000000000000000000000000000000000938416928583602481875afa908115610270578693899261023a575b50906101a59185610464565b602486518094819382523060048301525afa9283156102305785936101ea575b50506101e46000805160206106ce833981519152935192839283610410565b0390a180f35b9080949350813d8311610229575b610202818361042b565b81010312610225576101e46000805160206106ce833981519152935192936101c5565b8380fd5b503d6101f8565b84513d87823e3d90fd5b8092508491943d8311610269575b610252818361042b565b81010312610265575185926101a5610199565b8780fd5b503d610248565b87513d8a823e3d90fd5b8351630ae8f22360e21b8152600490fd5b8280fd5b5034610111578160031936011261011157905490516001600160a01b039091168152602090f35b82346102fe57806003193601126102fe576102cf6103b8565b80546001600160a01b03198116825581906001600160a01b03166000805160206106ae8339815191528280a380f35b80fd5b5034610111573660031901126102fe5761035761031c61039d565b6103246103b8565b602435907f00000000000000000000000000000000000000000000000000000000000000006001600160a01b0316610464565b80f35b8390346101115781600319360112610111577f00000000000000000000000000000000000000000000000000000000000000006001600160a01b03168152602090f35b600435906001600160a01b03821682036103b357565b600080fd5b6000546001600160a01b031633036103cc57565b606460405162461bcd60e51b815260206004820152602060248201527f4f776e61626c653a2063616c6c6572206973206e6f7420746865206f776e65726044820152fd5b6001600160a01b039091168152602081019190915260400190565b601f909101601f19168101906001600160401b0382119082101761044e57604052565b634e487b7160e01b600052604160045260246000fd5b90604091825190816104896020968783019563a9059cbb60e01b875260248401610410565b039061049d601f199283810185528461042b565b8451926001600160401b03916001600160a01b0316908487018381118682101761044e5787528785527f5361666545524332303a206c6f772d6c6576656c2063616c6c206661696c656488860152600080968192519082855af1913d156105cd573d9081116105b9579061052e9493929161052189895195601f840116018561042b565b83523d868985013e6105d9565b80518061053d575b5050505050565b8185918101031261011157830151908115918215036102fe575061056357808080610536565b60849250519062461bcd60e51b82526004820152602a60248201527f5361666545524332303a204552433230206f7065726174696f6e20646964206e6044820152691bdd081cdd58d8d9595960b21b6064820152fd5b634e487b7160e01b86526041600452602486fd5b509061052e9392506060915b9192901561063b57508151156105ed575090565b3b156105f65790565b60405162461bcd60e51b815260206004820152601d60248201527f416464726573733a2063616c6c20746f206e6f6e2d636f6e74726163740000006044820152606490fd5b82519091501561064e5750805190602001fd5b6040519062461bcd60e51b82528160208060048301528251908160248401526000935b828510610694575050604492506000838284010152601f80199101168101030190fd5b848101820151868601604401529381019385935061067156fe8be0079c531659141344cd1fd0a4f28419497f9722a3daafe3b4186f6b6457e0f58b081c2d077b17c9ef90e17090bd89e8b8b98933872e29c9352269eda3823fa264697066735822122051b3e022008af59ca92a796d4ea5ea1cc074717c34ffb6d6ab5f4ad0b0e2475764736f6c63430008110033",
  "devdoc": {
    "kind": "dev",
    "methods": {
      "owner()": {
        "details": "Returns the address of the current owner."
      },
      "renounceOwnership()": {
        "details": "Leaves the contract without owner. It will not be possible to call `onlyOwner` functions anymore. Can only be called by the current owner. NOTE: Renouncing ownership will leave the contract without an owner, thereby removing any functionality that is only available to the owner."
      },
      "reward(address,uint256)": {
        "params": {
          "amount": "number of awards",
          "to": "The address of awards"
        }
      },
      "transferOwnership(address)": {
        "details": "Transfers ownership of the contract to a new account (`newOwner`). Can only be called by the current owner."
      }
    },
    "version": 1
  },
  "userdoc": {
    "kind": "user",
    "methods": {
      "reward(address,uint256)": {
        "notice": "Send reward to user"
      },
      "withdrawEmergency(address)": {
        "notice": "withdraw token Emergency"
      }
    },
    "version": 1
  },
  "storageLayout": {
    "storage": [
      {
        "astId": 2008,
        "contract": "src/RewardVault.sol:RewardVault",
        "label": "_owner",
        "offset": 0,
        "slot": "0",
        "type": "t_address"
      }
    ],
    "types": {
      "t_address": {
        "encoding": "inplace",
        "label": "address",
        "numberOfBytes": "20"
      }
    }
  }
}