{
  "address": "0xA1DEd93f52E9edfffAebf42D44C9e0F3e4FC44E1",
  "abi": [
    {
      "inputs": [],
      "name": "ApprovalCallerNotOwnerNorApproved",
      "type": "error"
    },
    {
      "inputs": [],
      "name": "ApprovalQueryForNonexistentToken",
      "type": "error"
    },
    {
      "inputs": [],
      "name": "BalanceQueryForZeroAddress",
      "type": "error"
    },
    {
      "inputs": [],
      "name": "MintERC2309QuantityExceedsLimit",
      "type": "error"
    },
    {
      "inputs": [],
      "name": "MintToZeroAddress",
      "type": "error"
    },
    {
      "inputs": [],
      "name": "MintZeroQuantity",
      "type": "error"
    },
    {
      "inputs": [],
      "name": "OnlyManager",
      "type": "error"
    },
    {
      "inputs": [],
      "name": "OwnerQueryForNonexistentToken",
      "type": "error"
    },
    {
      "inputs": [],
      "name": "OwnershipNotInitializedForExtraData",
      "type": "error"
    },
    {
      "inputs": [],
      "name": "TransferCallerNotOwnerNorApproved",
      "type": "error"
    },
    {
      "inputs": [],
      "name": "TransferFromIncorrectOwner",
      "type": "error"
    },
    {
      "inputs": [],
      "name": "TransferToNonERC721ReceiverImplementer",
      "type": "error"
    },
    {
      "inputs": [],
      "name": "TransferToZeroAddress",
      "type": "error"
    },
    {
      "inputs": [],
      "name": "URIQueryForNonexistentToken",
      "type": "error"
    },
    {
      "inputs": [],
      "name": "ZeroAddressSet",
      "type": "error"
    },
    {
      "anonymous": false,
      "inputs": [
        {
          "indexed": false,
          "internalType": "address",
          "name": "previousAdmin",
          "type": "address"
        },
        {
          "indexed": false,
          "internalType": "address",
          "name": "newAdmin",
          "type": "address"
        }
      ],
      "name": "AdminChanged",
      "type": "event"
    },
    {
      "anonymous": false,
      "inputs": [
        {
          "indexed": true,
          "internalType": "address",
          "name": "owner",
          "type": "address"
        },
        {
          "indexed": true,
          "internalType": "address",
          "name": "approved",
          "type": "address"
        },
        {
          "indexed": true,
          "internalType": "uint256",
          "name": "tokenId",
          "type": "uint256"
        }
      ],
      "name": "Approval",
      "type": "event"
    },
    {
      "anonymous": false,
      "inputs": [
        {
          "indexed": true,
          "internalType": "address",
          "name": "owner",
          "type": "address"
        },
        {
          "indexed": true,
          "internalType": "address",
          "name": "operator",
          "type": "address"
        },
        {
          "indexed": false,
          "internalType": "bool",
          "name": "approved",
          "type": "bool"
        }
      ],
      "name": "ApprovalForAll",
      "type": "event"
    },
    {
      "anonymous": false,
      "inputs": [
        {
          "indexed": true,
          "internalType": "address",
          "name": "beacon",
          "type": "address"
        }
      ],
      "name": "BeaconUpgraded",
      "type": "event"
    },
    {
      "anonymous": false,
      "inputs": [
        {
          "indexed": true,
          "internalType": "uint256",
          "name": "fromTokenId",
          "type": "uint256"
        },
        {
          "indexed": false,
          "internalType": "uint256",
          "name": "toTokenId",
          "type": "uint256"
        },
        {
          "indexed": true,
          "internalType": "address",
          "name": "from",
          "type": "address"
        },
        {
          "indexed": true,
          "internalType": "address",
          "name": "to",
          "type": "address"
        }
      ],
      "name": "ConsecutiveTransfer",
      "type": "event"
    },
    {
      "anonymous": false,
      "inputs": [
        {
          "indexed": false,
          "internalType": "uint8",
          "name": "version",
          "type": "uint8"
        }
      ],
      "name": "Initialized",
      "type": "event"
    },
    {
      "anonymous": false,
      "inputs": [
        {
          "indexed": true,
          "internalType": "address",
          "name": "previousOwner",
          "type": "address"
        },
        {
          "indexed": true,
          "internalType": "address",
          "name": "newOwner",
          "type": "address"
        }
      ],
      "name": "OwnershipTransferred",
      "type": "event"
    },
    {
      "anonymous": false,
      "inputs": [
        {
          "indexed": false,
          "internalType": "string",
          "name": "baseURI",
          "type": "string"
        }
      ],
      "name": "SetBaseURI",
      "type": "event"
    },
    {
      "anonymous": false,
      "inputs": [
        {
          "indexed": false,
          "internalType": "address",
          "name": "manager",
          "type": "address"
        }
      ],
      "name": "SetManager",
      "type": "event"
    },
    {
      "anonymous": false,
      "inputs": [
        {
          "components": [
            {
              "internalType": "uint16",
              "name": "nameId",
              "type": "uint16"
            },
            {
              "internalType": "uint16",
              "name": "rarity",
              "type": "uint16"
            },
            {
              "internalType": "uint16",
              "name": "tokenType",
              "type": "uint16"
            }
          ],
          "indexed": false,
          "internalType": "struct IDegenNFTDefination.Property",
          "name": "properties",
          "type": "tuple"
        }
      ],
      "name": "SetProperties",
      "type": "event"
    },
    {
      "anonymous": false,
      "inputs": [
        {
          "indexed": true,
          "internalType": "address",
          "name": "from",
          "type": "address"
        },
        {
          "indexed": true,
          "internalType": "address",
          "name": "to",
          "type": "address"
        },
        {
          "indexed": true,
          "internalType": "uint256",
          "name": "tokenId",
          "type": "uint256"
        }
      ],
      "name": "Transfer",
      "type": "event"
    },
    {
      "anonymous": false,
      "inputs": [
        {
          "indexed": true,
          "internalType": "address",
          "name": "implementation",
          "type": "address"
        }
      ],
      "name": "Upgraded",
      "type": "event"
    },
    {
      "inputs": [
        {
          "internalType": "address",
          "name": "to",
          "type": "address"
        },
        {
          "internalType": "uint256",
          "name": "tokenId",
          "type": "uint256"
        }
      ],
      "name": "approve",
      "outputs": [],
      "stateMutability": "payable",
      "type": "function"
    },
    {
      "inputs": [
        {
          "internalType": "address",
          "name": "owner",
          "type": "address"
        }
      ],
      "name": "balanceOf",
      "outputs": [
        {
          "internalType": "uint256",
          "name": "",
          "type": "uint256"
        }
      ],
      "stateMutability": "view",
      "type": "function"
    },
    {
      "inputs": [],
      "name": "baseURI",
      "outputs": [
        {
          "internalType": "string",
          "name": "",
          "type": "string"
        }
      ],
      "stateMutability": "view",
      "type": "function"
    },
    {
      "inputs": [
        {
          "internalType": "uint256",
          "name": "tokenId",
          "type": "uint256"
        }
      ],
      "name": "burn",
      "outputs": [],
      "stateMutability": "nonpayable",
      "type": "function"
    },
    {
      "inputs": [
        {
          "internalType": "uint256",
          "name": "tokenId",
          "type": "uint256"
        }
      ],
      "name": "exists",
      "outputs": [
        {
          "internalType": "bool",
          "name": "",
          "type": "bool"
        }
      ],
      "stateMutability": "view",
      "type": "function"
    },
    {
      "inputs": [
        {
          "internalType": "uint256",
          "name": "tokenId",
          "type": "uint256"
        }
      ],
      "name": "getApproved",
      "outputs": [
        {
          "internalType": "address",
          "name": "",
          "type": "address"
        }
      ],
      "stateMutability": "view",
      "type": "function"
    },
    {
      "inputs": [
        {
          "internalType": "uint256",
          "name": "tokenId",
          "type": "uint256"
        }
      ],
      "name": "getLevel",
      "outputs": [
        {
          "internalType": "uint256",
          "name": "",
          "type": "uint256"
        }
      ],
      "stateMutability": "view",
      "type": "function"
    },
    {
      "inputs": [
        {
          "internalType": "uint256",
          "name": "tokenId",
          "type": "uint256"
        }
      ],
      "name": "getProperty",
      "outputs": [
        {
          "components": [
            {
              "internalType": "uint16",
              "name": "nameId",
              "type": "uint16"
            },
            {
              "internalType": "uint16",
              "name": "rarity",
              "type": "uint16"
            },
            {
              "internalType": "uint16",
              "name": "tokenType",
              "type": "uint16"
            }
          ],
          "internalType": "struct IDegenNFTDefination.Property",
          "name": "",
          "type": "tuple"
        }
      ],
      "stateMutability": "view",
      "type": "function"
    },
    {
      "inputs": [
        {
          "internalType": "string",
          "name": "name_",
          "type": "string"
        },
        {
          "internalType": "string",
          "name": "symbol_",
          "type": "string"
        },
        {
          "internalType": "address",
          "name": "owner",
          "type": "address"
        }
      ],
      "name": "initialize",
      "outputs": [],
      "stateMutability": "nonpayable",
      "type": "function"
    },
    {
      "inputs": [
        {
          "internalType": "address",
          "name": "owner",
          "type": "address"
        },
        {
          "internalType": "address",
          "name": "operator",
          "type": "address"
        }
      ],
      "name": "isApprovedForAll",
      "outputs": [
        {
          "internalType": "bool",
          "name": "",
          "type": "bool"
        }
      ],
      "stateMutability": "view",
      "type": "function"
    },
    {
      "inputs": [],
      "name": "manager",
      "outputs": [
        {
          "internalType": "address",
          "name": "",
          "type": "address"
        }
      ],
      "stateMutability": "view",
      "type": "function"
    },
    {
      "inputs": [
        {
          "internalType": "address",
          "name": "to",
          "type": "address"
        },
        {
          "internalType": "uint256",
          "name": "quantity",
          "type": "uint256"
        }
      ],
      "name": "mint",
      "outputs": [],
      "stateMutability": "nonpayable",
      "type": "function"
    },
    {
      "inputs": [],
      "name": "name",
      "outputs": [
        {
          "internalType": "string",
          "name": "",
          "type": "string"
        }
      ],
      "stateMutability": "view",
      "type": "function"
    },
    {
      "inputs": [],
      "name": "nextTokenId",
      "outputs": [
        {
          "internalType": "uint256",
          "name": "",
          "type": "uint256"
        }
      ],
      "stateMutability": "view",
      "type": "function"
    },
    {
      "inputs": [],
      "name": "owner",
      "outputs": [
        {
          "internalType": "address",
          "name": "",
          "type": "address"
        }
      ],
      "stateMutability": "view",
      "type": "function"
    },
    {
      "inputs": [
        {
          "internalType": "uint256",
          "name": "tokenId",
          "type": "uint256"
        }
      ],
      "name": "ownerOf",
      "outputs": [
        {
          "internalType": "address",
          "name": "",
          "type": "address"
        }
      ],
      "stateMutability": "view",
      "type": "function"
    },
    {
      "inputs": [],
      "name": "proxiableUUID",
      "outputs": [
        {
          "internalType": "bytes32",
          "name": "",
          "type": "bytes32"
        }
      ],
      "stateMutability": "view",
      "type": "function"
    },
    {
      "inputs": [],
      "name": "renounceOwnership",
      "outputs": [],
      "stateMutability": "nonpayable",
      "type": "function"
    },
    {
      "inputs": [
        {
          "internalType": "address",
          "name": "from",
          "type": "address"
        },
        {
          "internalType": "address",
          "name": "to",
          "type": "address"
        },
        {
          "internalType": "uint256",
          "name": "tokenId",
          "type": "uint256"
        }
      ],
      "name": "safeTransferFrom",
      "outputs": [],
      "stateMutability": "payable",
      "type": "function"
    },
    {
      "inputs": [
        {
          "internalType": "address",
          "name": "from",
          "type": "address"
        },
        {
          "internalType": "address",
          "name": "to",
          "type": "address"
        },
        {
          "internalType": "uint256",
          "name": "tokenId",
          "type": "uint256"
        },
        {
          "internalType": "bytes",
          "name": "_data",
          "type": "bytes"
        }
      ],
      "name": "safeTransferFrom",
      "outputs": [],
      "stateMutability": "payable",
      "type": "function"
    },
    {
      "inputs": [
        {
          "internalType": "address",
          "name": "operator",
          "type": "address"
        },
        {
          "internalType": "bool",
          "name": "approved",
          "type": "bool"
        }
      ],
      "name": "setApprovalForAll",
      "outputs": [],
      "stateMutability": "nonpayable",
      "type": "function"
    },
    {
      "inputs": [
        {
          "internalType": "string",
          "name": "baseURI_",
          "type": "string"
        }
      ],
      "name": "setBaseURI",
      "outputs": [],
      "stateMutability": "nonpayable",
      "type": "function"
    },
    {
      "inputs": [
        {
          "internalType": "uint256",
          "name": "tokenId",
          "type": "uint256"
        },
        {
          "internalType": "uint256",
          "name": "level",
          "type": "uint256"
        }
      ],
      "name": "setLevel",
      "outputs": [],
      "stateMutability": "nonpayable",
      "type": "function"
    },
    {
      "inputs": [
        {
          "internalType": "address",
          "name": "manager_",
          "type": "address"
        }
      ],
      "name": "setManager",
      "outputs": [],
      "stateMutability": "nonpayable",
      "type": "function"
    },
    {
      "inputs": [
        {
          "internalType": "uint256",
          "name": "tokenId",
          "type": "uint256"
        },
        {
          "components": [
            {
              "internalType": "uint16",
              "name": "nameId",
              "type": "uint16"
            },
            {
              "internalType": "uint16",
              "name": "rarity",
              "type": "uint16"
            },
            {
              "internalType": "uint16",
              "name": "tokenType",
              "type": "uint16"
            }
          ],
          "internalType": "struct IDegenNFTDefination.Property",
          "name": "_property",
          "type": "tuple"
        }
      ],
      "name": "setProperties",
      "outputs": [],
      "stateMutability": "nonpayable",
      "type": "function"
    },
    {
      "inputs": [
        {
          "internalType": "uint256",
          "name": "tokenId",
          "type": "uint256"
        },
        {
          "internalType": "string",
          "name": "tokenURI",
          "type": "string"
        }
      ],
      "name": "setTokenURI",
      "outputs": [],
      "stateMutability": "nonpayable",
      "type": "function"
    },
    {
      "inputs": [
        {
          "internalType": "bytes4",
          "name": "interfaceId",
          "type": "bytes4"
        }
      ],
      "name": "supportsInterface",
      "outputs": [
        {
          "internalType": "bool",
          "name": "",
          "type": "bool"
        }
      ],
      "stateMutability": "view",
      "type": "function"
    },
    {
      "inputs": [],
      "name": "symbol",
      "outputs": [
        {
          "internalType": "string",
          "name": "",
          "type": "string"
        }
      ],
      "stateMutability": "view",
      "type": "function"
    },
    {
      "inputs": [
        {
          "internalType": "uint256",
          "name": "tokenId",
          "type": "uint256"
        }
      ],
      "name": "tokenURI",
      "outputs": [
        {
          "internalType": "string",
          "name": "",
          "type": "string"
        }
      ],
      "stateMutability": "view",
      "type": "function"
    },
    {
      "inputs": [],
      "name": "totalMinted",
      "outputs": [
        {
          "internalType": "uint256",
          "name": "",
          "type": "uint256"
        }
      ],
      "stateMutability": "view",
      "type": "function"
    },
    {
      "inputs": [],
      "name": "totalSupply",
      "outputs": [
        {
          "internalType": "uint256",
          "name": "",
          "type": "uint256"
        }
      ],
      "stateMutability": "view",
      "type": "function"
    },
    {
      "inputs": [
        {
          "internalType": "address",
          "name": "from",
          "type": "address"
        },
        {
          "internalType": "address",
          "name": "to",
          "type": "address"
        },
        {
          "internalType": "uint256",
          "name": "tokenId",
          "type": "uint256"
        }
      ],
      "name": "transferFrom",
      "outputs": [],
      "stateMutability": "payable",
      "type": "function"
    },
    {
      "inputs": [
        {
          "internalType": "address",
          "name": "newOwner",
          "type": "address"
        }
      ],
      "name": "transferOwnership",
      "outputs": [],
      "stateMutability": "nonpayable",
      "type": "function"
    },
    {
      "inputs": [
        {
          "internalType": "address",
          "name": "newImplementation",
          "type": "address"
        }
      ],
      "name": "upgradeTo",
      "outputs": [],
      "stateMutability": "nonpayable",
      "type": "function"
    },
    {
      "inputs": [
        {
          "internalType": "address",
          "name": "newImplementation",
          "type": "address"
        },
        {
          "internalType": "bytes",
          "name": "data",
          "type": "bytes"
        }
      ],
      "name": "upgradeToAndCall",
      "outputs": [],
      "stateMutability": "payable",
      "type": "function"
    }
  ],
  "transactionHash": "0xa56688eaef5dc085f08598eea8c854a3ff39b0da1f5197b206b10f327f5fd677",
  "args": [],
  "numDeployments": 1,
  "solcInputHash": "c1635d1aafb87c0bb2c1dd6a060e5f5e",
  "bytecode": "0x60a06040523060805234801561001457600080fd5b50608051612d2461004c60003960008181610cee01528181610d2e01528181610e5601528181610e960152610f300152612d246000f3fe6080604052600436106102045760003560e01c806355f804b31161011857806395d89b41116100a0578063b88d4fde1161006f578063b88d4fde1461060d578063c87b56dd14610620578063d0ebdbe714610640578063e985e9c514610660578063f2fde38b1461068057600080fd5b806395d89b41146105a3578063a22cb465146105b8578063a2309ff8146105d8578063b2203308146105ed57600080fd5b806370a93b36116100e757806370a93b361461050e578063715018a61461052e57806375794a3c1461054357806386481d40146105585780638da5cb5b1461058557600080fd5b806355f804b3146104995780636352211e146104b95780636c0360eb146104d957806370a08231146104ee57600080fd5b806332665ffb1161019b57806342966c681161016a57806342966c6814610411578063481c6a75146104315780634f1ef286146104515780634f558e791461046457806352d1902d1461048457600080fd5b806332665ffb146103235780633659cfe6146103be57806340c10f19146103de57806342842e0e146103fe57600080fd5b8063095ea7b3116101d7578063095ea7b3146102ba578063162094c4146102cd57806318160ddd146102ed57806323b872dd1461031057600080fd5b806301ffc9a71461020957806306fdde031461023e578063077f224a14610260578063081812fc14610282575b600080fd5b34801561021557600080fd5b506102296102243660046122fa565b6106a0565b60405190151581526020015b60405180910390f35b34801561024a57600080fd5b506102536106f2565b6040516102359190612367565b34801561026c57600080fd5b5061028061027b3660046123da565b61078d565b005b34801561028e57600080fd5b506102a261029d36600461245b565b610a33565b6040516001600160a01b039091168152602001610235565b6102806102c8366004612474565b610a80565b3480156102d957600080fd5b506102806102e836600461252a565b610a90565b3480156102f957600080fd5b50610302610ac5565b604051908152602001610235565b61028061031e366004612585565b610ae5565b34801561032f57600080fd5b5061039161033e36600461245b565b60408051606080820183526000808352602080840182905292840181905293845260fb8252928290205482519384018352600481901c610fff168452600181811c60071692850192909252169082015290565b60408051825161ffff90811682526020808501518216908301529282015190921690820152606001610235565b3480156103ca57600080fd5b506102806103d93660046125c1565b610ce4565b3480156103ea57600080fd5b506102806103f9366004612474565b610dc3565b61028061040c366004612585565b610df8565b34801561041d57600080fd5b5061028061042c36600461245b565b610e18565b34801561043d57600080fd5b5060fc546102a2906001600160a01b031681565b61028061045f3660046125fc565b610e4c565b34801561047057600080fd5b5061022961047f36600461245b565b610f18565b34801561049057600080fd5b50610302610f23565b3480156104a557600080fd5b506102806104b4366004612640565b610fd6565b3480156104c557600080fd5b506102a26104d436600461245b565b611029565b3480156104e557600080fd5b50610253611034565b3480156104fa57600080fd5b506103026105093660046125c1565b6110c2565b34801561051a57600080fd5b50610280610529366004612682565b61112b565b34801561053a57600080fd5b50610280611168565b34801561054f57600080fd5b5061030261117c565b34801561056457600080fd5b5061030261057336600461245b565b600090815260fe602052604090205490565b34801561059157600080fd5b5060c9546001600160a01b03166102a2565b3480156105af57600080fd5b5061025361118b565b3480156105c457600080fd5b506102806105d33660046126a4565b6111a3565b3480156105e457600080fd5b50610302611220565b3480156105f957600080fd5b506102806106083660046126f2565b61122a565b61028061061b36600461277e565b6112e7565b34801561062c57600080fd5b5061025361063b36600461245b565b611331565b34801561064c57600080fd5b5061028061065b3660046125c1565b61143c565b34801561066c57600080fd5b5061022961067b3660046127e6565b6114bf565b34801561068c57600080fd5b5061028061069b3660046125c1565b6114fc565b60006301ffc9a760e01b6001600160e01b0319831614806106d157506380ac58cd60e01b6001600160e01b03198316145b806106ec5750635b5e139f60e01b6001600160e01b03198316145b92915050565b60606106fc611572565b600201805461070a90612819565b80601f016020809104026020016040519081016040528092919081815260200182805461073690612819565b80156107835780601f1061075857610100808354040283529160200191610783565b820191906000526020600020905b81548152906001019060200180831161076657829003601f168201915b5050505050905090565b600080516020612ccf83398151915254610100900460ff166107c257600080516020612ccf8339815191525460ff16156107c6565b303b155b61083d5760405162461bcd60e51b815260206004820152603760248201527f455243373231415f5f496e697469616c697a61626c653a20636f6e747261637460448201527f20697320616c726561647920696e697469616c697a656400000000000000000060648201526084015b60405180910390fd5b600080516020612ccf83398151915254610100900460ff1615801561087957600080516020612ccf833981519152805461ffff19166101011790555b600054610100900460ff16158080156108995750600054600160ff909116105b806108b35750303b1580156108b3575060005460ff166001145b6109165760405162461bcd60e51b815260206004820152602e60248201527f496e697469616c697a61626c653a20636f6e747261637420697320616c72656160448201526d191e481a5b9a5d1a585b1a5e995960921b6064820152608401610834565b6000805460ff191660011790558015610939576000805461ff0019166101001790555b6109ac87878080601f01602080910402602001604051908101604052809392919081815260200183838082843760009201919091525050604080516020601f8b01819004810282018101909252898152925089915088908190840183828082843760009201919091525061159692505050565b6109b46115d4565b6109bc6115fb565b6109c583611627565b8015610a0b576000805461ff0019169055604051600181527f7f26b83ff96e1f2b6a682f133852f6798a09c465da95921460cefb38474024989060200160405180910390a15b508015610a2b57600080516020612ccf833981519152805461ff00191690555b505050505050565b6000610a3e82611679565b610a5b576040516333d1c03960e21b815260040160405180910390fd5b610a63611572565b60009283526006016020525060409020546001600160a01b031690565b610a8c828260016116c2565b5050565b60fc546001600160a01b03163314610abb5760405163605919ad60e11b815260040160405180910390fd5b610a8c8282611777565b60006001610ad1611572565b60010154610add611572565b540303919050565b6000610af0826117fb565b9050836001600160a01b0316816001600160a01b031614610b235760405162a1148160e81b815260040160405180910390fd5b600080610b2f846118a8565b91509150610b548187610b3f3390565b6001600160a01b039081169116811491141790565b610b7f57610b6286336114bf565b610b7f57604051632ce44b5f60e11b815260040160405180910390fd5b6001600160a01b038516610ba657604051633a954ecd60e21b815260040160405180910390fd5b8015610bb157600082555b610bb9611572565b6001600160a01b0387166000908152600591909101602052604090208054600019019055610be5611572565b6001600160a01b03861660009081526005919091016020526040902080546001019055610c3285610c178882876118d0565b600160e11b174260a01b176001600160a01b03919091161790565b610c3a611572565b60008681526004919091016020526040812091909155600160e11b84169003610cb05760018401610c69611572565b600082815260049190910160205260408120549003610cae57610c8a611572565b548114610cae5783610c9a611572565b600083815260049190910160205260409020555b505b83856001600160a01b0316876001600160a01b0316600080516020612caf83398151915260405160405180910390a4610a2b565b6001600160a01b037f0000000000000000000000000000000000000000000000000000000000000000163003610d2c5760405162461bcd60e51b815260040161083490612853565b7f00000000000000000000000000000000000000000000000000000000000000006001600160a01b0316610d75600080516020612c68833981519152546001600160a01b031690565b6001600160a01b031614610d9b5760405162461bcd60e51b81526004016108349061289f565b610da4816118da565b60408051600080825260208201909252610dc0918391906118e2565b50565b60fc546001600160a01b03163314610dee5760405163605919ad60e11b815260040160405180910390fd5b610a8c8282611a4d565b610e13838383604051806020016040528060008152506112e7565b505050565b60fc546001600160a01b03163314610e435760405163605919ad60e11b815260040160405180910390fd5b610dc081611b83565b6001600160a01b037f0000000000000000000000000000000000000000000000000000000000000000163003610e945760405162461bcd60e51b815260040161083490612853565b7f00000000000000000000000000000000000000000000000000000000000000006001600160a01b0316610edd600080516020612c68833981519152546001600160a01b031690565b6001600160a01b031614610f035760405162461bcd60e51b81526004016108349061289f565b610f0c826118da565b610a8c828260016118e2565b60006106ec82611679565b6000306001600160a01b037f00000000000000000000000000000000000000000000000000000000000000001614610fc35760405162461bcd60e51b815260206004820152603860248201527f555550535570677261646561626c653a206d757374206e6f742062652063616c60448201527f6c6564207468726f7567682064656c656761746563616c6c00000000000000006064820152608401610834565b50600080516020612c6883398151915290565b610fde611bc3565b60fd610feb828483612931565b507f23c8c9488efebfd474e85a7956de6f39b17c7ab88502d42a623db2d8e382bbaa828260405161101d9291906129f2565b60405180910390a15050565b60006106ec826117fb565b60fd805461104190612819565b80601f016020809104026020016040519081016040528092919081815260200182805461106d90612819565b80156110ba5780601f1061108f576101008083540402835291602001916110ba565b820191906000526020600020905b81548152906001019060200180831161109d57829003601f168201915b505050505081565b60006001600160a01b0382166110eb576040516323d3ad8160e21b815260040160405180910390fd5b67ffffffffffffffff6110fc611572565b6005016000846001600160a01b03166001600160a01b0316815260200190815260200160002054169050919050565b60fc546001600160a01b031633146111565760405163605919ad60e11b815260040160405180910390fd5b600091825260fe602052604090912055565b611170611bc3565b61117a6000611627565b565b6000611186611c1d565b905090565b6060611195611572565b600301805461070a90612819565b806111ac611572565b336000818152600792909201602090815260408084206001600160a01b03881680865290835293819020805460ff19169515159590951790945592518415158152919290917f17307eab39ab6107e8899845ad3d59bd9653f200f220920489ca2b5937696c31910160405180910390a35050565b6000611186611c2d565b60fc546001600160a01b031633146112555760405163605919ad60e11b815260040160405180910390fd5b80516020808301805160408086018051600089815260fb8752839020805461ffff191660039890981b61fff81661ffff9586161760011b90911780851697909717905581518751841681529351831694840194909452925116918101919091527fe4c8f3984a08b7f1ac218c351a2441eb56866dbfadd1e7064a732d976aafe6c29060600160405180910390a1505050565b6112f2848484610ae5565b6001600160a01b0383163b1561132b5761130e84848484611c40565b61132b576040516368d2bf6b60e11b815260040160405180910390fd5b50505050565b606061133c82611d2b565b6000828152606560205260408120805461135590612819565b80601f016020809104026020016040519081016040528092919081815260200182805461138190612819565b80156113ce5780601f106113a3576101008083540402835291602001916113ce565b820191906000526020600020905b8154815290600101906020018083116113b157829003601f168201915b5050505050905060006113df611d80565b905080516000036113f1575092915050565b81511561142357808260405160200161140b929190612a21565b60405160208183030381529060405292505050919050565b61142c84611d8f565b60405160200161140b9190612a50565b611444611bc3565b6001600160a01b03811661146b57604051630ae8f22360e21b815260040160405180910390fd5b60fc80546001600160a01b0319166001600160a01b0383169081179091556040519081527f54a6385aa0292b04e1ef8513253c17d1863f7cdfc87029d77fd55cc4c2e717e29060200160405180910390a150565b60006114c9611572565b6001600160a01b039384166000908152600791909101602090815260408083209490951682529290925250205460ff1690565b611504611bc3565b6001600160a01b0381166115695760405162461bcd60e51b815260206004820152602660248201527f4f776e61626c653a206e6577206f776e657220697320746865207a65726f206160448201526564647265737360d01b6064820152608401610834565b610dc081611627565b7f2569078dfb4b0305704d3008e7403993ae9601b85f7ae5e742de3de8f8011c4090565b600080516020612ccf83398151915254610100900460ff166115ca5760405162461bcd60e51b815260040161083490612a79565b610a8c8282611e12565b600054610100900460ff1661117a5760405162461bcd60e51b815260040161083490612acd565b600054610100900460ff166116225760405162461bcd60e51b815260040161083490612acd565b61117a335b60c980546001600160a01b038381166001600160a01b0319831681179093556040519116919082907f8be0079c531659141344cd1fd0a4f28419497f9722a3daafe3b4186f6b6457e090600090a35050565b600081600111158015611693575061168f611572565b5482105b80156106ec5750600160e01b6116a7611572565b60008481526004919091016020526040902054161592915050565b60006116cd83611029565b9050811561170c57336001600160a01b0382161461170c576116ef81336114bf565b61170c576040516367d9dca160e11b815260040160405180910390fd5b83611715611572565b6000858152600691909101602052604080822080546001600160a01b0319166001600160a01b0394851617905551859287811692908516917f8c5be1e5ebec7d5bd14f71427d1e84f3dd0314c0f7b2291e5b200ac8c7c3b9259190a450505050565b61178082611679565b6117e35760405162461bcd60e51b815260206004820152602e60248201527f45524337323155524953746f726167653a2055524920736574206f66206e6f6e60448201526d32bc34b9ba32b73a103a37b5b2b760911b6064820152608401610834565b6000828152606560205260409020610e138282612b18565b60008160011161188f5761180d611572565b600083815260049190910160205260408120549150600160e01b8216900361188f578060000361188a5761183f611572565b54821061185f57604051636f96cda160e11b815260040160405180910390fd5b611867611572565b60001990920160008181526004939093016020526040909220549050801561185f575b919050565b604051636f96cda160e11b815260040160405180910390fd5b60008060006118b5611572565b60009485526006016020525050604090912080549092909150565b60005b9392505050565b610dc0611bc3565b7f4910fdfa16fed3260ed0e7147f7cc6da11a60208b5b9406d12a635614ffd91435460ff161561191557610e1383611e85565b826001600160a01b03166352d1902d6040518163ffffffff1660e01b8152600401602060405180830381865afa92505050801561196f575060408051601f3d908101601f1916820190925261196c91810190612bd8565b60015b6119d25760405162461bcd60e51b815260206004820152602e60248201527f45524331393637557067726164653a206e657720696d706c656d656e7461746960448201526d6f6e206973206e6f74205555505360901b6064820152608401610834565b600080516020612c688339815191528114611a415760405162461bcd60e51b815260206004820152602960248201527f45524331393637557067726164653a20756e737570706f727465642070726f786044820152681a58589b195555525160ba1b6064820152608401610834565b50610e13838383611f21565b6000611a57611572565b5490506000829003611a7c5760405163b562e8dd60e01b815260040160405180910390fd5b680100000000000000018202611a90611572565b6001600160a01b0385166000908152600591909101602052604081208054909201909155611ae2908490611ac59082816118d0565b6001851460e11b174260a01b176001600160a01b03919091161790565b611aea611572565b600083815260049190910160205260408120919091556001600160a01b038416908383019083908390600080516020612caf8339815191528180a4600183015b818114611b505780836000600080516020612caf833981519152600080a4600101611b2a565b5081600003611b7157604051622e076360e81b815260040160405180910390fd5b80611b7a611572565b5550610e139050565b611b8c81611f46565b60008181526065602052604090208054611ba590612819565b159050610dc0576000818152606560205260408120610dc091612296565b60c9546001600160a01b0316331461117a5760405162461bcd60e51b815260206004820181905260248201527f4f776e61626c653a2063616c6c6572206973206e6f7420746865206f776e65726044820152606401610834565b6000611c27611572565b54919050565b60006001611c39611572565b5403919050565b604051630a85bd0160e11b81526000906001600160a01b0385169063150b7a0290611c75903390899088908890600401612bf1565b6020604051808303816000875af1925050508015611cb0575060408051601f3d908101601f19168201909252611cad91810190612c2e565b60015b611d0e573d808015611cde576040519150601f19603f3d011682016040523d82523d6000602084013e611ce3565b606091505b508051600003611d06576040516368d2bf6b60e11b815260040160405180910390fd5b805181602001fd5b6001600160e01b031916630a85bd0160e11b149050949350505050565b611d3481611679565b610dc05760405162461bcd60e51b815260206004820152601860248201527f4552433732313a20696e76616c696420746f6b656e20494400000000000000006044820152606401610834565b606060fd805461070a90612819565b6060611d9a82611679565b611db757604051630a14c4b560e41b815260040160405180910390fd5b6000611dc1611d80565b90508051600003611de157604051806020016040528060008152506118d3565b80611deb84611f51565b604051602001611dfc929190612a21565b6040516020818303038152906040529392505050565b600080516020612ccf83398151915254610100900460ff16611e465760405162461bcd60e51b815260040161083490612a79565b81611e4f611572565b60020190611e5d9082612b18565b5080611e67611572565b60030190611e759082612b18565b506001611e80611572565b555050565b6001600160a01b0381163b611ef25760405162461bcd60e51b815260206004820152602d60248201527f455243313936373a206e657720696d706c656d656e746174696f6e206973206e60448201526c1bdd08184818dbdb9d1c9858dd609a1b6064820152608401610834565b600080516020612c6883398151915280546001600160a01b0319166001600160a01b0392909216919091179055565b611f2a83611f95565b600082511180611f375750805b15610e135761132b8383611fd5565b610dc08160006120c9565b606060a06040510180604052602081039150506000815280825b600183039250600a81066030018353600a900480611f6b5750819003601f19909101908152919050565b611f9e81611e85565b6040516001600160a01b038216907fbc7cd75a20ee27fd9adebab32041f755214dbc6bffa90cc0225b39da2e5c2d3b90600090a250565b60606001600160a01b0383163b61203d5760405162461bcd60e51b815260206004820152602660248201527f416464726573733a2064656c65676174652063616c6c20746f206e6f6e2d636f6044820152651b9d1c9858dd60d21b6064820152608401610834565b600080846001600160a01b0316846040516120589190612c4b565b600060405180830381855af49150503d8060008114612093576040519150601f19603f3d011682016040523d82523d6000602084013e612098565b606091505b50915091506120c08282604051806060016040528060278152602001612c8860279139612258565b95945050505050565b60006120d4836117fb565b9050806000806120e3866118a8565b915091508415612123576120f8818433610b3f565b6121235761210683336114bf565b61212357604051632ce44b5f60e11b815260040160405180910390fd5b801561212e57600082555b6fffffffffffffffffffffffffffffffff612147611572565b6001600160a01b038516600090815260059190910160205260408120805490920190915561219890849061217d908290886118d0565b600360e01b174260a01b176001600160a01b03919091161790565b6121a0611572565b60008881526004919091016020526040812091909155600160e11b8516900361221657600186016121cf611572565b600082815260049190910160205260408120549003612214576121f0611572565b5481146122145784612200611572565b600083815260049190910160205260409020555b505b60405186906000906001600160a01b03861690600080516020612caf833981519152908390a4612244611572565b600190810180549091019055505050505050565b606083156122675750816118d3565b6118d3838381511561227c5781518083602001fd5b8060405162461bcd60e51b81526004016108349190612367565b5080546122a290612819565b6000825580601f106122b2575050565b601f016020900490600052602060002090810190610dc091905b808211156122e057600081556001016122cc565b5090565b6001600160e01b031981168114610dc057600080fd5b60006020828403121561230c57600080fd5b81356118d3816122e4565b60005b8381101561233257818101518382015260200161231a565b50506000910152565b60008151808452612353816020860160208601612317565b601f01601f19169290920160200192915050565b6020815260006118d3602083018461233b565b60008083601f84011261238c57600080fd5b50813567ffffffffffffffff8111156123a457600080fd5b6020830191508360208285010111156123bc57600080fd5b9250929050565b80356001600160a01b038116811461188a57600080fd5b6000806000806000606086880312156123f257600080fd5b853567ffffffffffffffff8082111561240a57600080fd5b61241689838a0161237a565b9097509550602088013591508082111561242f57600080fd5b5061243c8882890161237a565b909450925061244f9050604087016123c3565b90509295509295909350565b60006020828403121561246d57600080fd5b5035919050565b6000806040838503121561248757600080fd5b612490836123c3565b946020939093013593505050565b634e487b7160e01b600052604160045260246000fd5b600067ffffffffffffffff808411156124cf576124cf61249e565b604051601f8501601f19908116603f011681019082821181831017156124f7576124f761249e565b8160405280935085815286868601111561251057600080fd5b858560208301376000602087830101525050509392505050565b6000806040838503121561253d57600080fd5b82359150602083013567ffffffffffffffff81111561255b57600080fd5b8301601f8101851361256c57600080fd5b61257b858235602084016124b4565b9150509250929050565b60008060006060848603121561259a57600080fd5b6125a3846123c3565b92506125b1602085016123c3565b9150604084013590509250925092565b6000602082840312156125d357600080fd5b6118d3826123c3565b600082601f8301126125ed57600080fd5b6118d3838335602085016124b4565b6000806040838503121561260f57600080fd5b612618836123c3565b9150602083013567ffffffffffffffff81111561263457600080fd5b61257b858286016125dc565b6000806020838503121561265357600080fd5b823567ffffffffffffffff81111561266a57600080fd5b6126768582860161237a565b90969095509350505050565b6000806040838503121561269557600080fd5b50508035926020909101359150565b600080604083850312156126b757600080fd5b6126c0836123c3565b9150602083013580151581146126d557600080fd5b809150509250929050565b803561ffff8116811461188a57600080fd5b600080828403608081121561270657600080fd5b833592506060601f198201121561271c57600080fd5b506040516060810181811067ffffffffffffffff821117156127405761274061249e565b60405261274f602085016126e0565b815261275d604085016126e0565b602082015261276e606085016126e0565b6040820152809150509250929050565b6000806000806080858703121561279457600080fd5b61279d856123c3565b93506127ab602086016123c3565b925060408501359150606085013567ffffffffffffffff8111156127ce57600080fd5b6127da878288016125dc565b91505092959194509250565b600080604083850312156127f957600080fd5b612802836123c3565b9150612810602084016123c3565b90509250929050565b600181811c9082168061282d57607f821691505b60208210810361284d57634e487b7160e01b600052602260045260246000fd5b50919050565b6020808252602c908201527f46756e6374696f6e206d7573742062652063616c6c6564207468726f7567682060408201526b19195b1959d85d1958d85b1b60a21b606082015260800190565b6020808252602c908201527f46756e6374696f6e206d7573742062652063616c6c6564207468726f7567682060408201526b6163746976652070726f787960a01b606082015260800190565b601f821115610e1357600081815260208120601f850160051c810160208610156129125750805b601f850160051c820191505b81811015610a2b5782815560010161291e565b67ffffffffffffffff8311156129495761294961249e565b61295d836129578354612819565b836128eb565b6000601f84116001811461299157600085156129795750838201355b600019600387901b1c1916600186901b1783556129eb565b600083815260209020601f19861690835b828110156129c257868501358255602094850194600190920191016129a2565b50868210156129df5760001960f88860031b161c19848701351681555b505060018560011b0183555b5050505050565b60208152816020820152818360408301376000818301604090810191909152601f909201601f19160101919050565b60008351612a33818460208801612317565b835190830190612a47818360208801612317565b01949350505050565b60008251612a62818460208701612317565b64173539b7b760d91b920191825250600501919050565b60208082526034908201527f455243373231415f5f496e697469616c697a61626c653a20636f6e7472616374604082015273206973206e6f7420696e697469616c697a696e6760601b606082015260800190565b6020808252602b908201527f496e697469616c697a61626c653a20636f6e7472616374206973206e6f74206960408201526a6e697469616c697a696e6760a81b606082015260800190565b815167ffffffffffffffff811115612b3257612b3261249e565b612b4681612b408454612819565b846128eb565b602080601f831160018114612b7b5760008415612b635750858301515b600019600386901b1c1916600185901b178555610a2b565b600085815260208120601f198616915b82811015612baa57888601518255948401946001909101908401612b8b565b5085821015612bc85787850151600019600388901b60f8161c191681555b5050505050600190811b01905550565b600060208284031215612bea57600080fd5b5051919050565b6001600160a01b0385811682528416602082015260408101839052608060608201819052600090612c249083018461233b565b9695505050505050565b600060208284031215612c4057600080fd5b81516118d3816122e4565b60008251612c5d818460208701612317565b919091019291505056fe360894a13ba1a3210667c828492db98dca3e2076cc3735a920a3ca505d382bbc416464726573733a206c6f772d6c6576656c2064656c65676174652063616c6c206661696c6564ddf252ad1be2c89b69c2b068fc378daa952ba7f163c4a11628f55a4df523b3efee151c8401928dc223602bb187aff91b9a56c7cae5476ef1b3287b085a16c85fa2646970667358221220cb0c5e6f0d16b341a2306fa9ff790afedc8e9b841b33e5d50f516d8ba44ce38864736f6c63430008110033",
  "devdoc": {
    "kind": "dev",
    "methods": {
      "approve(address,uint256)": {
        "details": "Gives permission to `to` to transfer `tokenId` token to another account. See {ERC721A-_approve}. Requirements: - The caller must own the token or be an approved operator."
      },
      "balanceOf(address)": {
        "details": "Returns the number of tokens in `owner`'s account."
      },
      "getApproved(uint256)": {
        "details": "Returns the account approved for `tokenId` token. Requirements: - `tokenId` must exist."
      },
      "isApprovedForAll(address,address)": {
        "details": "Returns if the `operator` is allowed to manage all of the assets of `owner`. See {setApprovalForAll}."
      },
      "name()": {
        "details": "Returns the token collection name."
      },
      "owner()": {
        "details": "Returns the address of the current owner."
      },
      "ownerOf(uint256)": {
        "details": "Returns the owner of the `tokenId` token. Requirements: - `tokenId` must exist."
      },
      "proxiableUUID()": {
        "details": "Implementation of the ERC1822 {proxiableUUID} function. This returns the storage slot used by the implementation. It is used to validate the implementation's compatibility when performing an upgrade. IMPORTANT: A proxy pointing at a proxiable contract should not be considered proxiable itself, because this risks bricking a proxy that upgrades to it, by delegating to itself until out of gas. Thus it is critical that this function revert if invoked through a proxy. This is guaranteed by the `notDelegated` modifier."
      },
      "renounceOwnership()": {
        "details": "Leaves the contract without owner. It will not be possible to call `onlyOwner` functions anymore. Can only be called by the current owner. NOTE: Renouncing ownership will leave the contract without an owner, thereby removing any functionality that is only available to the owner."
      },
      "safeTransferFrom(address,address,uint256)": {
        "details": "Equivalent to `safeTransferFrom(from, to, tokenId, '')`."
      },
      "safeTransferFrom(address,address,uint256,bytes)": {
        "details": "Safely transfers `tokenId` token from `from` to `to`. Requirements: - `from` cannot be the zero address. - `to` cannot be the zero address. - `tokenId` token must exist and be owned by `from`. - If the caller is not `from`, it must be approved to move this token by either {approve} or {setApprovalForAll}. - If `to` refers to a smart contract, it must implement {IERC721Receiver-onERC721Received}, which is called upon a safe transfer. Emits a {Transfer} event."
      },
      "setApprovalForAll(address,bool)": {
        "details": "Approve or remove `operator` as an operator for the caller. Operators can call {transferFrom} or {safeTransferFrom} for any token owned by the caller. Requirements: - The `operator` cannot be the caller. Emits an {ApprovalForAll} event."
      },
      "supportsInterface(bytes4)": {
        "details": "Returns true if this contract implements the interface defined by `interfaceId`. See the corresponding [EIP section](https://eips.ethereum.org/EIPS/eip-165#how-interfaces-are-identified) to learn more about how these ids are created. This function call must use less than 30000 gas."
      },
      "symbol()": {
        "details": "Returns the token collection symbol."
      },
      "tokenURI(uint256)": {
        "details": "See {IERC721Metadata-tokenURI}."
      },
      "totalSupply()": {
        "details": "Returns the total number of tokens in existence. Burned tokens will reduce the count. To get the total number of tokens minted, please see {_totalMinted}."
      },
      "transferFrom(address,address,uint256)": {
        "details": "Transfers `tokenId` from `from` to `to`. Requirements: - `from` cannot be the zero address. - `to` cannot be the zero address. - `tokenId` token must be owned by `from`. - If the caller is not `from`, it must be approved to move this token by either {approve} or {setApprovalForAll}. Emits a {Transfer} event."
      },
      "transferOwnership(address)": {
        "details": "Transfers ownership of the contract to a new account (`newOwner`). Can only be called by the current owner."
      },
      "upgradeTo(address)": {
        "details": "Upgrade the implementation of the proxy to `newImplementation`. Calls {_authorizeUpgrade}. Emits an {Upgraded} event."
      },
      "upgradeToAndCall(address,bytes)": {
        "details": "Upgrade the implementation of the proxy to `newImplementation`, and subsequently execute the function call encoded in `data`. Calls {_authorizeUpgrade}. Emits an {Upgraded} event."
      }
    },
    "version": 1
  },
  "userdoc": {
    "errors": {
      "ApprovalCallerNotOwnerNorApproved()": [
        {
          "notice": "The caller must own the token or be an approved operator."
        }
      ],
      "ApprovalQueryForNonexistentToken()": [
        {
          "notice": "The token does not exist."
        }
      ],
      "BalanceQueryForZeroAddress()": [
        {
          "notice": "Cannot query the balance for the zero address."
        }
      ],
      "MintERC2309QuantityExceedsLimit()": [
        {
          "notice": "The `quantity` minted with ERC2309 exceeds the safety limit."
        }
      ],
      "MintToZeroAddress()": [
        {
          "notice": "Cannot mint to the zero address."
        }
      ],
      "MintZeroQuantity()": [
        {
          "notice": "The quantity of tokens minted must be more than zero."
        }
      ],
      "OwnerQueryForNonexistentToken()": [
        {
          "notice": "The token does not exist."
        }
      ],
      "OwnershipNotInitializedForExtraData()": [
        {
          "notice": "The `extraData` cannot be set on an unintialized ownership slot."
        }
      ],
      "TransferCallerNotOwnerNorApproved()": [
        {
          "notice": "The caller must own the token or be an approved operator."
        }
      ],
      "TransferFromIncorrectOwner()": [
        {
          "notice": "The token must be owned by `from`."
        }
      ],
      "TransferToNonERC721ReceiverImplementer()": [
        {
          "notice": "Cannot safely transfer to a contract that does not implement the ERC721Receiver interface."
        }
      ],
      "TransferToZeroAddress()": [
        {
          "notice": "Cannot transfer to the zero address."
        }
      ],
      "URIQueryForNonexistentToken()": [
        {
          "notice": "The token does not exist."
        }
      ]
    },
    "kind": "user",
    "methods": {},
    "version": 1
  },
  "storageLayout": {
    "storage": [
      {
        "astId": 937,
        "contract": "src/nft/DegenNFT.sol:DegenNFT",
        "label": "_initialized",
        "offset": 0,
        "slot": "0",
        "type": "t_uint8"
      },
      {
        "astId": 940,
        "contract": "src/nft/DegenNFT.sol:DegenNFT",
        "label": "_initializing",
        "offset": 1,
        "slot": "0",
        "type": "t_bool"
      },
      {
        "astId": 919,
        "contract": "src/nft/DegenNFT.sol:DegenNFT",
        "label": "__gap",
        "offset": 0,
        "slot": "1",
        "type": "t_array(t_uint256)50_storage"
      },
      {
        "astId": 1234,
        "contract": "src/nft/DegenNFT.sol:DegenNFT",
        "label": "__gap",
        "offset": 0,
        "slot": "51",
        "type": "t_array(t_uint256)50_storage"
      },
      {
        "astId": 20368,
        "contract": "src/nft/DegenNFT.sol:DegenNFT",
        "label": "_tokenURIs",
        "offset": 0,
        "slot": "101",
        "type": "t_mapping(t_uint256,t_string_storage)"
      },
      {
        "astId": 20503,
        "contract": "src/nft/DegenNFT.sol:DegenNFT",
        "label": "__gap",
        "offset": 0,
        "slot": "102",
        "type": "t_array(t_uint256)49_storage"
      },
      {
        "astId": 3984,
        "contract": "src/nft/DegenNFT.sol:DegenNFT",
        "label": "__gap",
        "offset": 0,
        "slot": "151",
        "type": "t_array(t_uint256)50_storage"
      },
      {
        "astId": 420,
        "contract": "src/nft/DegenNFT.sol:DegenNFT",
        "label": "_owner",
        "offset": 0,
        "slot": "201",
        "type": "t_address"
      },
      {
        "astId": 540,
        "contract": "src/nft/DegenNFT.sol:DegenNFT",
        "label": "__gap",
        "offset": 0,
        "slot": "202",
        "type": "t_array(t_uint256)49_storage"
      },
      {
        "astId": 20522,
        "contract": "src/nft/DegenNFT.sol:DegenNFT",
        "label": "properties",
        "offset": 0,
        "slot": "251",
        "type": "t_mapping(t_uint256,t_uint16)"
      },
      {
        "astId": 20524,
        "contract": "src/nft/DegenNFT.sol:DegenNFT",
        "label": "manager",
        "offset": 0,
        "slot": "252",
        "type": "t_address"
      },
      {
        "astId": 20526,
        "contract": "src/nft/DegenNFT.sol:DegenNFT",
        "label": "baseURI",
        "offset": 0,
        "slot": "253",
        "type": "t_string_storage"
      },
      {
        "astId": 20530,
        "contract": "src/nft/DegenNFT.sol:DegenNFT",
        "label": "levels",
        "offset": 0,
        "slot": "254",
        "type": "t_mapping(t_uint256,t_uint256)"
      },
      {
        "astId": 20534,
        "contract": "src/nft/DegenNFT.sol:DegenNFT",
        "label": "_gap",
        "offset": 0,
        "slot": "255",
        "type": "t_array(t_uint256)48_storage"
      }
    ],
    "types": {
      "t_address": {
        "encoding": "inplace",
        "label": "address",
        "numberOfBytes": "20"
      },
      "t_array(t_uint256)48_storage": {
        "base": "t_uint256",
        "encoding": "inplace",
        "label": "uint256[48]",
        "numberOfBytes": "1536"
      },
      "t_array(t_uint256)49_storage": {
        "base": "t_uint256",
        "encoding": "inplace",
        "label": "uint256[49]",
        "numberOfBytes": "1568"
      },
      "t_array(t_uint256)50_storage": {
        "base": "t_uint256",
        "encoding": "inplace",
        "label": "uint256[50]",
        "numberOfBytes": "1600"
      },
      "t_bool": {
        "encoding": "inplace",
        "label": "bool",
        "numberOfBytes": "1"
      },
      "t_mapping(t_uint256,t_string_storage)": {
        "encoding": "mapping",
        "key": "t_uint256",
        "label": "mapping(uint256 => string)",
        "numberOfBytes": "32",
        "value": "t_string_storage"
      },
      "t_mapping(t_uint256,t_uint16)": {
        "encoding": "mapping",
        "key": "t_uint256",
        "label": "mapping(uint256 => uint16)",
        "numberOfBytes": "32",
        "value": "t_uint16"
      },
      "t_mapping(t_uint256,t_uint256)": {
        "encoding": "mapping",
        "key": "t_uint256",
        "label": "mapping(uint256 => uint256)",
        "numberOfBytes": "32",
        "value": "t_uint256"
      },
      "t_string_storage": {
        "encoding": "bytes",
        "label": "string",
        "numberOfBytes": "32"
      },
      "t_uint16": {
        "encoding": "inplace",
        "label": "uint16",
        "numberOfBytes": "2"
      },
      "t_uint256": {
        "encoding": "inplace",
        "label": "uint256",
        "numberOfBytes": "32"
      },
      "t_uint8": {
        "encoding": "inplace",
        "label": "uint8",
        "numberOfBytes": "1"
      }
    }
  }
}