{
  "address": "0xe97cEdB5c21Ba5A5717541C313F1207F2720362b",
  "abi": [
    {
      "inputs": [],
      "name": "AlreadyMinted",
      "type": "error"
    },
    {
      "inputs": [],
      "name": "CallerNotOwner",
      "type": "error"
    },
    {
      "inputs": [],
      "name": "CallerNotPendingOwner",
      "type": "error"
    },
    {
      "inputs": [],
      "name": "InvalidMintTime",
      "type": "error"
    },
    {
      "inputs": [],
      "name": "InvalidParams",
      "type": "error"
    },
    {
      "inputs": [],
      "name": "InvalidProof",
      "type": "error"
    },
    {
      "inputs": [],
      "name": "InvalidRequestId",
      "type": "error"
    },
    {
      "inputs": [],
      "name": "InvalidTokens",
      "type": "error"
    },
    {
      "inputs": [],
      "name": "LevelZeroCannotBurn",
      "type": "error"
    },
    {
      "inputs": [],
      "name": "MintFeeNotEnough",
      "type": "error"
    },
    {
      "inputs": [],
      "name": "NotSigner",
      "type": "error"
    },
    {
      "inputs": [],
      "name": "NotTokenOwner",
      "type": "error"
    },
    {
      "inputs": [],
      "name": "OnlyChainlinkVRFProxy",
      "type": "error"
    },
    {
      "inputs": [],
      "name": "OutOfMaxMintCount",
      "type": "error"
    },
    {
      "inputs": [],
      "name": "TokenIdNotExsis",
      "type": "error"
    },
    {
      "inputs": [],
      "name": "ZeroAddressOwnerSet",
      "type": "error"
    },
    {
      "inputs": [],
      "name": "ZeroAddressSet",
      "type": "error"
    },
    {
      "inputs": [],
      "name": "ZeroOwnerSet",
      "type": "error"
    },
    {
      "inputs": [],
      "name": "ZeroRootSet",
      "type": "error"
    },
    {
      "anonymous": false,
      "inputs": [
        {
          "indexed": false,
          "internalType": "address",
          "name": "previousAdmin",
          "type": "address"
        },
        {
          "indexed": false,
          "internalType": "address",
          "name": "newAdmin",
          "type": "address"
        }
      ],
      "name": "AdminChanged",
      "type": "event"
    },
    {
      "anonymous": false,
      "inputs": [
        {
          "indexed": true,
          "internalType": "address",
          "name": "beacon",
          "type": "address"
        }
      ],
      "name": "BeaconUpgraded",
      "type": "event"
    },
    {
      "anonymous": false,
      "inputs": [
        {
          "indexed": false,
          "internalType": "address",
          "name": "account",
          "type": "address"
        },
        {
          "indexed": false,
          "internalType": "uint256",
          "name": "tokenId",
          "type": "uint256"
        },
        {
          "indexed": false,
          "internalType": "uint256",
          "name": "refundNativeToken",
          "type": "uint256"
        },
        {
          "indexed": false,
          "internalType": "uint256",
          "name": "refundRebornToken",
          "type": "uint256"
        }
      ],
      "name": "BurnToken",
      "type": "event"
    },
    {
      "anonymous": false,
      "inputs": [
        {
          "indexed": false,
          "internalType": "address",
          "name": "chainlinkVRFProxy",
          "type": "address"
        }
      ],
      "name": "ChangedChainlinkVRFProxy",
      "type": "event"
    },
    {
      "anonymous": false,
      "inputs": [
        {
          "indexed": false,
          "internalType": "uint8",
          "name": "version",
          "type": "uint8"
        }
      ],
      "name": "Initialized",
      "type": "event"
    },
    {
      "anonymous": false,
      "inputs": [
        {
          "indexed": true,
          "internalType": "address",
          "name": "from",
          "type": "address"
        },
        {
          "indexed": false,
          "internalType": "uint256",
          "name": "tokenId1",
          "type": "uint256"
        },
        {
          "indexed": false,
          "internalType": "uint256",
          "name": "tokenId2",
          "type": "uint256"
        },
        {
          "indexed": false,
          "internalType": "uint256",
          "name": "newTokenId",
          "type": "uint256"
        }
      ],
      "name": "MergeTokens",
      "type": "event"
    },
    {
      "anonymous": false,
      "inputs": [
        {
          "indexed": false,
          "internalType": "bytes32",
          "name": "root",
          "type": "bytes32"
        }
      ],
      "name": "MerkleTreeRootSet",
      "type": "event"
    },
    {
      "anonymous": false,
      "inputs": [
        {
          "indexed": false,
          "internalType": "uint256",
          "name": "mintFee",
          "type": "uint256"
        }
      ],
      "name": "MintFeeSet",
      "type": "event"
    },
    {
      "anonymous": false,
      "inputs": [
        {
          "indexed": true,
          "internalType": "address",
          "name": "receiver",
          "type": "address"
        },
        {
          "indexed": false,
          "internalType": "uint256",
          "name": "quantity",
          "type": "uint256"
        },
        {
          "indexed": false,
          "internalType": "uint256",
          "name": "startTokenId",
          "type": "uint256"
        }
      ],
      "name": "Minted",
      "type": "event"
    },
    {
      "anonymous": false,
      "inputs": [
        {
          "indexed": false,
          "internalType": "uint256",
          "name": "tokenId",
          "type": "uint256"
        }
      ],
      "name": "OpenMysteryBoxFailed",
      "type": "event"
    },
    {
      "anonymous": false,
      "inputs": [
        {
          "indexed": false,
          "internalType": "uint256",
          "name": "tokenId",
          "type": "uint256"
        },
        {
          "indexed": false,
          "internalType": "uint256",
          "name": "metadataId",
          "type": "uint256"
        }
      ],
      "name": "OpenMysteryBoxSuccess",
      "type": "event"
    },
    {
      "anonymous": false,
      "inputs": [
        {
          "indexed": true,
          "internalType": "address",
          "name": "previousOwner",
          "type": "address"
        },
        {
          "indexed": true,
          "internalType": "address",
          "name": "newOwner",
          "type": "address"
        }
      ],
      "name": "OwnershipTransferred",
      "type": "event"
    },
    {
      "anonymous": false,
      "inputs": [
        {
          "components": [
            {
              "internalType": "uint256",
              "name": "nativeToken",
              "type": "uint256"
            },
            {
              "internalType": "uint256",
              "name": "rebornToken",
              "type": "uint256"
            }
          ],
          "indexed": false,
          "internalType": "struct INFTManagerDefination.BurnRefundConfig[]",
          "name": "burnRefundConfigs",
          "type": "tuple[]"
        }
      ],
      "name": "SetBurnRefundConfig",
      "type": "event"
    },
    {
      "anonymous": false,
      "inputs": [
        {
          "indexed": false,
          "internalType": "address",
          "name": "degenNFT",
          "type": "address"
        }
      ],
      "name": "SetDegenNFT",
      "type": "event"
    },
    {
      "anonymous": false,
      "inputs": [
        {
          "indexed": false,
          "internalType": "enum INFTManagerDefination.MintType",
          "name": "mintType",
          "type": "uint8"
        },
        {
          "components": [
            {
              "internalType": "uint256",
              "name": "startTime",
              "type": "uint256"
            },
            {
              "internalType": "uint256",
              "name": "endTime",
              "type": "uint256"
            }
          ],
          "indexed": false,
          "internalType": "struct INFTManagerDefination.MintTime",
          "name": "mintTime",
          "type": "tuple"
        }
      ],
      "name": "SetMintTime",
      "type": "event"
    },
    {
      "anonymous": false,
      "inputs": [
        {
          "indexed": true,
          "internalType": "address",
          "name": "signer",
          "type": "address"
        },
        {
          "indexed": false,
          "internalType": "bool",
          "name": "valid",
          "type": "bool"
        }
      ],
      "name": "SignerUpdate",
      "type": "event"
    },
    {
      "anonymous": false,
      "inputs": [
        {
          "indexed": true,
          "internalType": "address",
          "name": "implementation",
          "type": "address"
        }
      ],
      "name": "Upgraded",
      "type": "event"
    },
    {
      "inputs": [],
      "name": "SUPPORT_MAX_MINT_COUNT",
      "outputs": [
        {
          "internalType": "uint256",
          "name": "",
          "type": "uint256"
        }
      ],
      "stateMutability": "view",
      "type": "function"
    },
    {
      "inputs": [
        {
          "internalType": "address[]",
          "name": "receivers",
          "type": "address[]"
        },
        {
          "internalType": "uint256[]",
          "name": "quantities",
          "type": "uint256[]"
        }
      ],
      "name": "airdrop",
      "outputs": [],
      "stateMutability": "payable",
      "type": "function"
    },
    {
      "inputs": [
        {
          "internalType": "uint256",
          "name": "tokenId",
          "type": "uint256"
        }
      ],
      "name": "burn",
      "outputs": [],
      "stateMutability": "nonpayable",
      "type": "function"
    },
    {
      "inputs": [],
      "name": "chainlinkVRFProxy",
      "outputs": [
        {
          "internalType": "address",
          "name": "",
          "type": "address"
        }
      ],
      "stateMutability": "view",
      "type": "function"
    },
    {
      "inputs": [
        {
          "internalType": "bytes32[]",
          "name": "merkleProof",
          "type": "bytes32[]"
        },
        {
          "internalType": "address",
          "name": "account",
          "type": "address"
        }
      ],
      "name": "checkWhiteList",
      "outputs": [
        {
          "internalType": "bool",
          "name": "verified",
          "type": "bool"
        }
      ],
      "stateMutability": "view",
      "type": "function"
    },
    {
      "inputs": [],
      "name": "claimOwnership",
      "outputs": [],
      "stateMutability": "nonpayable",
      "type": "function"
    },
    {
      "inputs": [],
      "name": "degenNFT",
      "outputs": [
        {
          "internalType": "contract IDegenNFT",
          "name": "",
          "type": "address"
        }
      ],
      "stateMutability": "view",
      "type": "function"
    },
    {
      "inputs": [
        {
          "internalType": "uint256",
          "name": "tokenId",
          "type": "uint256"
        }
      ],
      "name": "exists",
      "outputs": [
        {
          "internalType": "bool",
          "name": "",
          "type": "bool"
        }
      ],
      "stateMutability": "view",
      "type": "function"
    },
    {
      "inputs": [
        {
          "internalType": "uint256",
          "name": "requestId",
          "type": "uint256"
        },
        {
          "internalType": "uint256[]",
          "name": "randomWords",
          "type": "uint256[]"
        }
      ],
      "name": "fulfillRandomWordsCallback",
      "outputs": [],
      "stateMutability": "nonpayable",
      "type": "function"
    },
    {
      "inputs": [],
      "name": "getBurnRefundConfigs",
      "outputs": [
        {
          "components": [
            {
              "internalType": "uint256",
              "name": "nativeToken",
              "type": "uint256"
            },
            {
              "internalType": "uint256",
              "name": "rebornToken",
              "type": "uint256"
            }
          ],
          "internalType": "struct INFTManagerDefination.BurnRefundConfig[]",
          "name": "",
          "type": "tuple[]"
        }
      ],
      "stateMutability": "view",
      "type": "function"
    },
    {
      "inputs": [
        {
          "internalType": "uint16",
          "name": "length",
          "type": "uint16"
        },
        {
          "internalType": "uint256",
          "name": "offset",
          "type": "uint256"
        }
      ],
      "name": "getMetadataList",
      "outputs": [
        {
          "components": [
            {
              "internalType": "uint16",
              "name": "nameId",
              "type": "uint16"
            },
            {
              "internalType": "uint16",
              "name": "rarity",
              "type": "uint16"
            },
            {
              "internalType": "uint16",
              "name": "tokenType",
              "type": "uint16"
            }
          ],
          "internalType": "struct IDegenNFTDefination.Property[]",
          "name": "",
          "type": "tuple[]"
        }
      ],
      "stateMutability": "view",
      "type": "function"
    },
    {
      "inputs": [
        {
          "internalType": "address",
          "name": "owner_",
          "type": "address"
        }
      ],
      "name": "initialize",
      "outputs": [],
      "stateMutability": "nonpayable",
      "type": "function"
    },
    {
      "inputs": [],
      "name": "latestMetadataIdx",
      "outputs": [
        {
          "internalType": "uint16",
          "name": "",
          "type": "uint16"
        }
      ],
      "stateMutability": "view",
      "type": "function"
    },
    {
      "inputs": [
        {
          "internalType": "uint256",
          "name": "tokenId1",
          "type": "uint256"
        },
        {
          "internalType": "uint256",
          "name": "tokenId2",
          "type": "uint256"
        }
      ],
      "name": "merge",
      "outputs": [],
      "stateMutability": "nonpayable",
      "type": "function"
    },
    {
      "inputs": [],
      "name": "merkleRoot",
      "outputs": [
        {
          "internalType": "bytes32",
          "name": "",
          "type": "bytes32"
        }
      ],
      "stateMutability": "view",
      "type": "function"
    },
    {
      "inputs": [],
      "name": "mintFee",
      "outputs": [
        {
          "internalType": "uint256",
          "name": "",
          "type": "uint256"
        }
      ],
      "stateMutability": "view",
      "type": "function"
    },
    {
      "inputs": [
        {
          "internalType": "address",
          "name": "account",
          "type": "address"
        }
      ],
      "name": "minted",
      "outputs": [
        {
          "internalType": "bool",
          "name": "",
          "type": "bool"
        }
      ],
      "stateMutability": "view",
      "type": "function"
    },
    {
      "inputs": [
        {
          "internalType": "uint256[]",
          "name": "tokenIds",
          "type": "uint256[]"
        }
      ],
      "name": "openMysteryBox",
      "outputs": [],
      "stateMutability": "nonpayable",
      "type": "function"
    },
    {
      "inputs": [],
      "name": "owner",
      "outputs": [
        {
          "internalType": "address",
          "name": "",
          "type": "address"
        }
      ],
      "stateMutability": "view",
      "type": "function"
    },
    {
      "inputs": [],
      "name": "pendingOwner",
      "outputs": [
        {
          "internalType": "address",
          "name": "",
          "type": "address"
        }
      ],
      "stateMutability": "view",
      "type": "function"
    },
    {
      "inputs": [
        {
          "internalType": "uint256",
          "name": "tokenId",
          "type": "uint256"
        }
      ],
      "name": "propertyOf",
      "outputs": [
        {
          "components": [
            {
              "internalType": "uint16",
              "name": "nameId",
              "type": "uint16"
            },
            {
              "internalType": "uint16",
              "name": "rarity",
              "type": "uint16"
            },
            {
              "internalType": "uint16",
              "name": "tokenType",
              "type": "uint16"
            }
          ],
          "internalType": "struct IDegenNFTDefination.Property",
          "name": "",
          "type": "tuple"
        }
      ],
      "stateMutability": "view",
      "type": "function"
    },
    {
      "inputs": [],
      "name": "proxiableUUID",
      "outputs": [
        {
          "internalType": "bytes32",
          "name": "",
          "type": "bytes32"
        }
      ],
      "stateMutability": "view",
      "type": "function"
    },
    {
      "inputs": [
        {
          "internalType": "uint256",
          "name": "quantity",
          "type": "uint256"
        }
      ],
      "name": "publicMint",
      "outputs": [],
      "stateMutability": "payable",
      "type": "function"
    },
    {
      "inputs": [],
      "name": "renounceOwnership",
      "outputs": [],
      "stateMutability": "nonpayable",
      "type": "function"
    },
    {
      "inputs": [
        {
          "components": [
            {
              "internalType": "uint256",
              "name": "nativeToken",
              "type": "uint256"
            },
            {
              "internalType": "uint256",
              "name": "rebornToken",
              "type": "uint256"
            }
          ],
          "internalType": "struct INFTManagerDefination.BurnRefundConfig[]",
          "name": "configs",
          "type": "tuple[]"
        }
      ],
      "name": "setBurnRefundConfig",
      "outputs": [],
      "stateMutability": "nonpayable",
      "type": "function"
    },
    {
      "inputs": [
        {
          "internalType": "address",
          "name": "chainlinkVRFProxy_",
          "type": "address"
        }
      ],
      "name": "setChainlinkVRFProxy",
      "outputs": [],
      "stateMutability": "nonpayable",
      "type": "function"
    },
    {
      "inputs": [
        {
          "internalType": "address",
          "name": "degenNFT_",
          "type": "address"
        }
      ],
      "name": "setDegenNFT",
      "outputs": [],
      "stateMutability": "nonpayable",
      "type": "function"
    },
    {
      "inputs": [
        {
          "internalType": "bytes32",
          "name": "root",
          "type": "bytes32"
        }
      ],
      "name": "setMerkleRoot",
      "outputs": [],
      "stateMutability": "nonpayable",
      "type": "function"
    },
    {
      "inputs": [
        {
          "components": [
            {
              "internalType": "uint16",
              "name": "nameId",
              "type": "uint16"
            },
            {
              "internalType": "uint16",
              "name": "rarity",
              "type": "uint16"
            },
            {
              "internalType": "uint16",
              "name": "tokenType",
              "type": "uint16"
            }
          ],
          "internalType": "struct IDegenNFTDefination.Property[]",
          "name": "metadataList",
          "type": "tuple[]"
        }
      ],
      "name": "setMetadatas",
      "outputs": [],
      "stateMutability": "nonpayable",
      "type": "function"
    },
    {
      "inputs": [
        {
          "internalType": "uint256",
          "name": "mintFee_",
          "type": "uint256"
        }
      ],
      "name": "setMintFee",
      "outputs": [],
      "stateMutability": "nonpayable",
      "type": "function"
    },
    {
      "inputs": [
        {
          "internalType": "enum INFTManagerDefination.MintType",
          "name": "mintType_",
          "type": "uint8"
        },
        {
          "components": [
            {
              "internalType": "uint256",
              "name": "startTime",
              "type": "uint256"
            },
            {
              "internalType": "uint256",
              "name": "endTime",
              "type": "uint256"
            }
          ],
          "internalType": "struct INFTManagerDefination.MintTime",
          "name": "mintTime_",
          "type": "tuple"
        }
      ],
      "name": "setMintTime",
      "outputs": [],
      "stateMutability": "nonpayable",
      "type": "function"
    },
    {
      "inputs": [
        {
          "internalType": "address",
          "name": "",
          "type": "address"
        }
      ],
      "name": "signers",
      "outputs": [
        {
          "internalType": "bool",
          "name": "",
          "type": "bool"
        }
      ],
      "stateMutability": "view",
      "type": "function"
    },
    {
      "inputs": [
        {
          "internalType": "address",
          "name": "newOwner",
          "type": "address"
        },
        {
          "internalType": "bool",
          "name": "direct",
          "type": "bool"
        }
      ],
      "name": "transferOwnership",
      "outputs": [],
      "stateMutability": "nonpayable",
      "type": "function"
    },
    {
      "inputs": [
        {
          "internalType": "address[]",
          "name": "toAdd",
          "type": "address[]"
        },
        {
          "internalType": "address[]",
          "name": "toRemove",
          "type": "address[]"
        }
      ],
      "name": "updateSigners",
      "outputs": [],
      "stateMutability": "nonpayable",
      "type": "function"
    },
    {
      "inputs": [
        {
          "internalType": "address",
          "name": "newImplementation",
          "type": "address"
        }
      ],
      "name": "upgradeTo",
      "outputs": [],
      "stateMutability": "nonpayable",
      "type": "function"
    },
    {
      "inputs": [
        {
          "internalType": "address",
          "name": "newImplementation",
          "type": "address"
        },
        {
          "internalType": "bytes",
          "name": "data",
          "type": "bytes"
        }
      ],
      "name": "upgradeToAndCall",
      "outputs": [],
      "stateMutability": "payable",
      "type": "function"
    },
    {
      "inputs": [
        {
          "internalType": "bytes32[]",
          "name": "merkleProof",
          "type": "bytes32[]"
        }
      ],
      "name": "whitelistMint",
      "outputs": [],
      "stateMutability": "payable",
      "type": "function"
    },
    {
      "inputs": [
        {
          "internalType": "address",
          "name": "to",
          "type": "address"
        },
        {
          "internalType": "uint256",
          "name": "amount",
          "type": "uint256"
        }
      ],
      "name": "withdraw",
      "outputs": [],
      "stateMutability": "nonpayable",
      "type": "function"
    },
    {
      "stateMutability": "payable",
      "type": "receive"
    }
  ],
  "transactionHash": "0x4f66d654fb37fbaac36c7201176968d1553e9097cdcfdc5c210174064838b163",
  "args": [],
  "numDeployments": 1,
  "solcInputHash": "c1635d1aafb87c0bb2c1dd6a060e5f5e",
  "bytecode": "0x60a06040523060805234801561001457600080fd5b5060805161381e61004c60003960008181610b6801528181610bb101528181611282015281816112c20152611445015261381e6000f3fe6080604052600436106102285760003560e01c80636814490b11610123578063a92ed6ac116100ab578063d1c2babb1161006f578063d1c2babb14610659578063dca25b1314610679578063e30c397814610699578063eddd0d9c146106b7578063f3fef3a3146106d757600080fd5b8063a92ed6ac146105c3578063b242e534146105d9578063c4d66de8146105f9578063d0b4912514610619578063d1a1c45d1461063957600080fd5b80637cb64759116100f25780637cb64759146105115780638da5cb5b146105315780639408b63f1461056357806397a0d22d14610583578063a35c5ad9146105a357600080fd5b80636814490b1461047d578063705547381461049f578063715018a6146104cc578063736c0d5b146104e157600080fd5b8063372f657c116101b15780634f1ef286116101755780634f1ef286146103f55780634f558e791461040857806351885d9b1461042857806352d1902d14610455578063672434821461046a57600080fd5b8063372f657c1461036d57806342966c681461038057806343664bbc146103a05780634c7ccacf146103c05780634e71e0c8146103e057600080fd5b80631e7269c5116101f85780631e7269c5146102d45780632db11544146103045780632eb4a7ab14610317578063350b23691461032d5780633659cfe61461034d57600080fd5b80624b0ec514610234578063061c117b1461026e57806306c1cb911461029057806313966db5146102b057600080fd5b3661022f57005b600080fd5b34801561024057600080fd5b5060ca5461025690600160a01b900461ffff1681565b60405161ffff90911681526020015b60405180910390f35b34801561027a57600080fd5b5061028e610289366004612d2e565b6106f7565b005b34801561029c57600080fd5b5061028e6102ab366004612d92565b61079e565b3480156102bc57600080fd5b506102c660d45481565b604051908152602001610265565b3480156102e057600080fd5b506102f46102ef366004612d2e565b610829565b6040519015158152602001610265565b61028e610312366004612e44565b610863565b34801561032357600080fd5b506102c660cb5481565b34801561033957600080fd5b5061028e610348366004612ea9565b61096f565b34801561035957600080fd5b5061028e610368366004612d2e565b610b5e565b61028e61037b366004612f15565b610c46565b34801561038c57600080fd5b5061028e61039b366004612e44565b610da5565b3480156103ac57600080fd5b5061028e6103bb366004612f15565b611064565b3480156103cc57600080fd5b5061028e6103db366004612f57565b61117d565b3480156103ec57600080fd5b5061028e611243565b61028e610403366004612fcc565b611278565b34801561041457600080fd5b506102f4610423366004612e44565b611344565b34801561043457600080fd5b50610448610443366004612e44565b6113b2565b6040516102659190613074565b34801561046157600080fd5b506102c6611438565b61028e610478366004612ea9565b6114eb565b34801561048957600080fd5b506104926116f2565b604051610265919061309f565b3480156104ab57600080fd5b506104bf6104ba3660046130fe565b611765565b604051610265919061312a565b3480156104d857600080fd5b5061028e611861565b3480156104ed57600080fd5b506102f46104fc366004612d2e565b60cc6020526000908152604090205460ff1681565b34801561051d57600080fd5b5061028e61052c366004612e44565b611896565b34801561053d57600080fd5b506097546001600160a01b03165b6040516001600160a01b039091168152602001610265565b34801561056f57600080fd5b5060c95461054b906001600160a01b031681565b34801561058f57600080fd5b506102f461059e366004613195565b611914565b3480156105af57600080fd5b5060ca5461054b906001600160a01b031681565b3480156105cf57600080fd5b506102c66107d981565b3480156105e557600080fd5b5061028e6105f43660046131fa565b6119ac565b34801561060557600080fd5b5061028e610614366004612d2e565b611a2c565b34801561062557600080fd5b5061028e610634366004613233565b611b66565b34801561064557600080fd5b5061028e610654366004612d2e565b611c36565b34801561066557600080fd5b5061028e610674366004613296565b611cd6565b34801561068557600080fd5b5061028e6106943660046132b8565b611eab565b3480156106a557600080fd5b506098546001600160a01b031661054b565b3480156106c357600080fd5b5061028e6106d2366004612e44565b611f75565b3480156106e357600080fd5b5061028e6106f23660046132fd565b611fd5565b6097546001600160a01b0316331461072257604051632e6c18c960e11b815260040160405180910390fd5b6001600160a01b03811661074957604051630ae8f22360e21b815260040160405180910390fd5b60ca80546001600160a01b0319166001600160a01b0383169081179091556040519081527f60749175aed7fe9643f249a737660ca032c41b2bd442a7644e077ad6b6ee3c93906020015b60405180910390a150565b60ca546001600160a01b031633146107c9576040516386b73b2d60e01b815260040160405180910390fd5b600082815260cf6020526040812054908190036107f9576040516302e8145360e61b815260040160405180910390fd5b8151156108245761082481836000815181106108175761081761331b565b6020026020010151612036565b505050565b72ffffffffffffffffffffffffffffffffffffff600882901c16600090815260cd6020526040812054600160ff84161b1615155b92915050565b600161086e816120c1565b6107d98260c960009054906101000a90046001600160a01b03166001600160a01b031663a2309ff86040518163ffffffff1660e01b8152600401602060405180830381865afa1580156108c5573d6000803e3d6000fd5b505050506040513d601f19601f820116820180604052508101906108e99190613331565b6108f39190613360565b111561091257604051634fcd692360e01b815260040160405180910390fd5b8160000361093357604051635435b28960e11b815260040160405180910390fd5b8160d4546109419190613373565b34101561096157604051630eea093360e41b815260040160405180910390fd5b61096b338361215c565b5050565b6097546001600160a01b0316331461099a57604051632e6c18c960e11b815260040160405180910390fd5b60005b83811015610a7857600160cc60008787858181106109bd576109bd61331b565b90506020020160208101906109d29190612d2e565b6001600160a01b031681526020810191909152604001600020805460ff1916911515919091179055848482818110610a0c57610a0c61331b565b9050602002016020810190610a219190612d2e565b6001600160a01b03167fc648f6265408cc54c0dc26d24ba51dfc9f35ce1a63baa2228f65d93aaf11cc676001604051610a5e911515815260200190565b60405180910390a280610a708161338a565b91505061099d565b5060005b81811015610b5757600060cc6000858585818110610a9c57610a9c61331b565b9050602002016020810190610ab19190612d2e565b6001600160a01b031681526020810191909152604001600020805460ff1916911515919091179055828282818110610aeb57610aeb61331b565b9050602002016020810190610b009190612d2e565b6001600160a01b03167fc648f6265408cc54c0dc26d24ba51dfc9f35ce1a63baa2228f65d93aaf11cc676000604051610b3d911515815260200190565b60405180910390a280610b4f8161338a565b915050610a7c565b5050505050565b6001600160a01b037f0000000000000000000000000000000000000000000000000000000000000000163003610baf5760405162461bcd60e51b8152600401610ba6906133a3565b60405180910390fd5b7f00000000000000000000000000000000000000000000000000000000000000006001600160a01b0316610bf86000805160206137a2833981519152546001600160a01b031690565b6001600160a01b031614610c1e5760405162461bcd60e51b8152600401610ba6906133ef565b610c2781612272565b60408051600080825260208201909252610c439183919061229d565b50565b6000610c51816120c1565b33600881901c600090815260cd6020526040902054600160ff9092169190911b1615610c9057604051631bbdf5c560e31b815260040160405180910390fd5b60c9546040805163144613ff60e31b815290516107d9926001600160a01b03169163a2309ff89160048083019260209291908290030181865afa158015610cdb573d6000803e3d6000fd5b505050506040513d601f19601f82011682018060405250810190610cff9190613331565b10610d1d57604051634fcd692360e01b815260040160405180910390fd5b60d454341015610d4057604051630eea093360e41b815260040160405180910390fd5b6000610d4d848433611914565b905080610d6d576040516309bde33960e01b815260040160405180910390fd5b610d7833600161215c565b33600881901c600090815260cd602052604090208054600160ff9093169290921b90911790555b50505050565b60c954604051634f558e7960e01b8152600481018390526001600160a01b0390911690634f558e7990602401602060405180830381865afa158015610dee573d6000803e3d6000fd5b505050506040513d601f19601f82011682018060405250810190610e12919061343b565b610e2f5760405163c72ea0df60e01b815260040160405180910390fd5b60c954604051630219207560e61b8152600481018390526000916001600160a01b0316906386481d4090602401602060405180830381865afa158015610e79573d6000803e3d6000fd5b505050506040513d601f19601f82011682018060405250810190610e9d9190613331565b905080600003610ec057604051639c21386760e01b815260040160405180910390fd5b610eca3383612408565b60c954604051630852cd8d60e31b8152600481018490526001600160a01b03909116906342966c6890602401600060405180830381600087803b158015610f1057600080fd5b505af1158015610f24573d6000803e3d6000fd5b505060c954604051630219207560e61b8152600481018690526000935060d392506001600160a01b03909116906386481d4090602401602060405180830381865afa158015610f77573d6000803e3d6000fd5b505050506040513d601f19601f82011682018060405250810190610f9b9190613331565b81548110610fab57610fab61331b565b60009182526020918290206040805180820190915260029092020180548083526001909101549282019290925291501561100e578051604051339180156108fc02916000818181858888f1935050505015801561100c573d6000803e3d6000fd5b505b80516020808301516040805133815292830187905282019290925260608101919091527f7147ecaba15988b82ec4faa5350185f0d0113e8803ef3bf7b5b84ae242458e92906080015b60405180910390a1505050565b33600090815260cc602052604090205460ff166110945760405163143606b960e31b815260040160405180910390fd5b60005b818110156108245760008383838181106110b3576110b361331b565b60209081029290920135600081815260d19093526040909220549192505060ff16156110df575061116b565b60ca5460405163967b201760e01b81526001600482015261753060248201526000916001600160a01b03169063967b2017906044016020604051808303816000875af1158015611133573d6000803e3d6000fd5b505050506040513d601f19601f820116820180604052508101906111579190613331565b600090815260cf6020526040902091909155505b806111758161338a565b915050611097565b6097546001600160a01b031633146111a857604051632e6c18c960e11b815260040160405180910390fd5b60005b81811015610824578282828181106111c5576111c561331b565b60ca5461ffff600160a01b90910416600090815260ce602052604090206060909102929092019190506111f88282613458565b505060ca8054600160a01b900461ffff16906014611215836134d1565b91906101000a81548161ffff021916908361ffff16021790555050808061123b9061338a565b9150506111ab565b6098546001600160a01b0316331461126e576040516305e05b4b60e31b815260040160405180910390fd5b61127661249e565b565b6001600160a01b037f00000000000000000000000000000000000000000000000000000000000000001630036112c05760405162461bcd60e51b8152600401610ba6906133a3565b7f00000000000000000000000000000000000000000000000000000000000000006001600160a01b03166113096000805160206137a2833981519152546001600160a01b031690565b6001600160a01b03161461132f5760405162461bcd60e51b8152600401610ba6906133ef565b61133882612272565b61096b8282600161229d565b60c954604051634f558e7960e01b8152600481018390526000916001600160a01b031690634f558e7990602401602060405180830381865afa15801561138e573d6000803e3d6000fd5b505050506040513d601f19601f8201168201806040525081019061085d919061343b565b604080516060810182526000808252602082018190528183015260c95491516332665ffb60e01b81526004810184905290916001600160a01b0316906332665ffb90602401606060405180830381865afa158015611414573d6000803e3d6000fd5b505050506040513d601f19601f8201168201806040525081019061085d91906134f2565b6000306001600160a01b037f000000000000000000000000000000000000000000000000000000000000000016146114d85760405162461bcd60e51b815260206004820152603860248201527f555550535570677261646561626c653a206d757374206e6f742062652063616c60448201527f6c6564207468726f7567682064656c656761746563616c6c00000000000000006064820152608401610ba6565b506000805160206137a283398151915290565b6097546001600160a01b0316331461151657604051632e6c18c960e11b815260040160405180910390fd5b82811461153657604051635435b28960e11b815260040160405180910390fd5b6000805b828110156115b3578383828181106115545761155461331b565b90506020020135826115669190613360565b915083838281811061157a5761157a61331b565b905060200201356000036115a157604051635435b28960e11b815260040160405180910390fd5b806115ab8161338a565b91505061153a565b5060d4546115c19082613373565b3410156115e157604051630eea093360e41b815260040160405180910390fd5b6107d98160c960009054906101000a90046001600160a01b03166001600160a01b031663a2309ff86040518163ffffffff1660e01b8152600401602060405180830381865afa158015611638573d6000803e3d6000fd5b505050506040513d601f19601f8201168201806040525081019061165c9190613331565b6116669190613360565b111561168557604051634fcd692360e01b815260040160405180910390fd5b60005b848110156116ea576116d88686838181106116a5576116a561331b565b90506020020160208101906116ba9190612d2e565b8585848181106116cc576116cc61331b565b9050602002013561215c565b806116e28161338a565b915050611688565b505050505050565b606060d3805480602002602001604051908101604052809291908181526020016000905b8282101561175c57838290600052602060002090600202016040518060400160405290816000820154815260200160018201548152505081526020019060010190611716565b50505050905090565b606060008361ffff1667ffffffffffffffff81111561178657611786612d4b565b6040519080825280602002602001820160405280156117d157816020015b60408051606081018252600080825260208083018290529282015282526000199092019101816117a45790505b509050825b8461ffff1681101561185957600081815260ce60209081526040918290208251606081018452905461ffff8082168352620100008204811693830193909352640100000000900490911691810191909152825183908390811061183b5761183b61331b565b602002602001018190525080806118519061338a565b9150506117d6565b509392505050565b6097546001600160a01b0316331461188c57604051632e6c18c960e11b815260040160405180910390fd5b6112766000612507565b6097546001600160a01b031633146118c157604051632e6c18c960e11b815260040160405180910390fd5b806118df57604051634f7e43e560e11b815260040160405180910390fd5b60cb8190556040518181527fee57e5823f2b1e5c86511f68be75ba1cda75fbacfbe570de45abd81e94e2cfd790602001610793565b604080516001600160a01b038316602082015260009182910160408051601f19818403018152828252805160209182012090830152016040516020818303038152906040528051906020012090506119a38585808060200260200160405190810160405280939291908181526020018383602002808284376000920191909152505060cb54915084905061257d565b95945050505050565b6097546001600160a01b031633146119d757604051632e6c18c960e11b815260040160405180910390fd5b6001600160a01b0382166119fe57604051633aafecb360e21b815260040160405180910390fd5b8015611a0d5761096b82612507565b609880546001600160a01b0319166001600160a01b0384161790555050565b600054610100900460ff1615808015611a4c5750600054600160ff909116105b80611a665750303b158015611a66575060005460ff166001145b611ac95760405162461bcd60e51b815260206004820152602e60248201527f496e697469616c697a61626c653a20636f6e747261637420697320616c72656160448201526d191e481a5b9a5d1a585b1a5e995960921b6064820152608401610ba6565b6000805460ff191660011790558015611aec576000805461ff0019166101001790555b6001600160a01b038216611b1357604051636500287b60e11b815260040160405180910390fd5b611b1c82612595565b801561096b576000805461ff0019169055604051600181527f7f26b83ff96e1f2b6a682f133852f6798a09c465da95921460cefb3847402498906020015b60405180910390a15050565b6097546001600160a01b03163314611b9157604051632e6c18c960e11b815260040160405180910390fd5b611b9d60d36000612cde565b60005b81811015611c0557828282818110611bba57611bba61331b565b90506040020160d38281548110611bd357611bd361331b565b600091825260209182902083356002929092020190815591013560019091015580611bfd8161338a565b915050611ba0565b507f7e34f171313498c5ca313160f77e792e08bdb04b3beecfc12461579eb1fab3a960d3604051611b5a9190613564565b6097546001600160a01b03163314611c6157604051632e6c18c960e11b815260040160405180910390fd5b6001600160a01b038116611c8857604051630ae8f22360e21b815260040160405180910390fd5b60c980546001600160a01b0319166001600160a01b0383169081179091556040519081527f1f26a402d31b19e7f51c0d12f232a4d64db0619b5332f1a45abd25fbe05dc8e090602001610793565b611ce03383612408565b611cea3382612408565b6000611cf683836125c5565b905080611d16576040516333910aef60e11b815260040160405180910390fd5b60c954604051630852cd8d60e31b8152600481018590526001600160a01b03909116906342966c6890602401600060405180830381600087803b158015611d5c57600080fd5b505af1158015611d70573d6000803e3d6000fd5b505060c954604051630852cd8d60e31b8152600481018690526001600160a01b0390911692506342966c689150602401600060405180830381600087803b158015611dba57600080fd5b505af1158015611dce573d6000803e3d6000fd5b50505050600060c960009054906101000a90046001600160a01b03166001600160a01b03166375794a3c6040518163ffffffff1660e01b8152600401602060405180830381865afa158015611e27573d6000803e3d6000fd5b505050506040513d601f19601f82011682018060405250810190611e4b9190613331565b9050611e5833600161215c565b611e6281826126dd565b604080518581526020810185905290810182905233907f8f344e6736e186a058023676aee136a6cff473ba5fbb0bf99377d0696ea7e8e89060600160405180910390a250505050565b6097546001600160a01b03163314611ed657604051632e6c18c960e11b815260040160405180910390fd5b6020810135813510611efb57604051635435b28960e11b815260040160405180910390fd5b8060d26000846001811115611f1257611f126135ae565b6001811115611f2357611f236135ae565b8152602080820192909252604001600020823581559082013560018201559050507ff432642d4ff1b5258f469bdbc5c148c5d3001cd0f8f6ea006fe6be38e05fb05a8282604051611b5a9291906135c4565b6097546001600160a01b03163314611fa057604051632e6c18c960e11b815260040160405180910390fd5b60d48190556040518181527f97aee230ba41961438e908e115df76fa8113f85a0586d85b19ba5be50e6a227490602001610793565b6097546001600160a01b0316331461200057604051632e6c18c960e11b815260040160405180910390fd5b6040516001600160a01b0383169082156108fc029083906000818181858888f19350505050158015610824573d6000803e3d6000fd5b8060006120456107d983613617565b600081815260d0602052604090205490915060ff165b8080156120685750600083115b156120a3576120796103e88461362b565b92506120876107d984613617565b600081815260d0602052604090205490925060ff16905061205b565b80156120b7576120b285612762565b610b57565b610b578583612792565b60d260008260018111156120d7576120d76135ae565b60018111156120e8576120e86135ae565b81526020019081526020016000206000015442108061213e575060d26000826001811115612118576121186135ae565b6001811115612129576121296135ae565b81526020019081526020016000206001015442115b15610c435760405163917ad38160e01b815260040160405180910390fd5b60c95460408051631d5e528f60e21b815290516000926001600160a01b0316916375794a3c9160048083019260209291908290030181865afa1580156121a6573d6000803e3d6000fd5b505050506040513d601f19601f820116820180604052508101906121ca9190613331565b60c9546040516340c10f1960e01b81526001600160a01b038681166004830152602482018690529293509116906340c10f1990604401600060405180830381600087803b15801561221a57600080fd5b505af115801561222e573d6000803e3d6000fd5b505060408051858152602081018590523393507f25b428dfde728ccfaddad7e29e4ac23c24ed7fd1a6e3e3f91894a9a073f5dfff92500160405180910390a2505050565b6097546001600160a01b03163314610c4357604051632e6c18c960e11b815260040160405180910390fd5b7f4910fdfa16fed3260ed0e7147f7cc6da11a60208b5b9406d12a635614ffd91435460ff16156122d057610824836128a8565b826001600160a01b03166352d1902d6040518163ffffffff1660e01b8152600401602060405180830381865afa92505050801561232a575060408051601f3d908101601f1916820190925261232791810190613331565b60015b61238d5760405162461bcd60e51b815260206004820152602e60248201527f45524331393637557067726164653a206e657720696d706c656d656e7461746960448201526d6f6e206973206e6f74205555505360901b6064820152608401610ba6565b6000805160206137a283398151915281146123fc5760405162461bcd60e51b815260206004820152602960248201527f45524331393637557067726164653a20756e737570706f727465642070726f786044820152681a58589b195555525160ba1b6064820152608401610ba6565b50610824838383612944565b60c9546040516331a9108f60e11b8152600481018390526001600160a01b03848116921690636352211e90602401602060405180830381865afa158015612453573d6000803e3d6000fd5b505050506040513d601f19601f82011682018060405250810190612477919061363f565b6001600160a01b03161461096b576040516359dc379f60e01b815260040160405180910390fd5b6097546098546040516001600160a01b03928316929091169082907f8be0079c531659141344cd1fd0a4f28419497f9722a3daafe3b4186f6b6457e090600090a35060988054609780546001600160a01b03199081166001600160a01b03841617909155169055565b7fb53127684a568b3173ae13b9f8a6016e243e63b6e8ee1178d6a717850b5d6103819055609780546001600160a01b038084166001600160a01b0319831681179093556040519116919082907f8be0079c531659141344cd1fd0a4f28419497f9722a3daafe3b4186f6b6457e090600090a35050565b60008261258a8584612969565b1490505b9392505050565b600054610100900460ff166125bc5760405162461bcd60e51b8152600401610ba69061365c565b610c43816129ae565b60c9546040516332665ffb60e01b81526004810184905260009182916001600160a01b03909116906332665ffb90602401606060405180830381865afa158015612613573d6000803e3d6000fd5b505050506040513d601f19601f8201168201806040525081019061263791906134f2565b60c9546040516332665ffb60e01b8152600481018690529192506000916001600160a01b03909116906332665ffb90602401606060405180830381865afa158015612686573d6000803e3d6000fd5b505050506040513d601f19601f820116820180604052508101906126aa91906134f2565b8051835191925061ffff91821691161480156119a35750806040015161ffff16826040015161ffff161495945050505050565b60c9546001600160a01b031663162094c4836126f8846129de565b60405160200161270891906136cb565b6040516020818303038152906040526040518363ffffffff1660e01b8152600401612734929190613720565b600060405180830381600087803b15801561274e57600080fd5b505af11580156116ea573d6000803e3d6000fd5b6040518181527fc7daf6256dbe9cb6d154799db0d394c74128c2d4a91dbd7d45354036ae95629690602001610793565b600081815260ce60209081526040918290208251606081018452905461ffff808216835262010000820481169383019390935264010000000090049091168183015260c9549151631644066160e31b815290916001600160a01b03169063b2203308906128059086908590600401613741565b600060405180830381600087803b15801561281f57600080fd5b505af1158015612833573d6000803e3d6000fd5b5050505061284183836126dd565b600083815260d1602090815260408083208054600160ff19918216811790925586855260d084529382902080549094161790925581518581529081018490527feb63d1e1aa21e40b86d68d61802506501ad3e37ee74db75be45ddd033f033c659101611057565b6001600160a01b0381163b6129155760405162461bcd60e51b815260206004820152602d60248201527f455243313936373a206e657720696d706c656d656e746174696f6e206973206e60448201526c1bdd08184818dbdb9d1c9858dd609a1b6064820152608401610ba6565b6000805160206137a283398151915280546001600160a01b0319166001600160a01b0392909216919091179055565b61294d83612a71565b60008251118061295a5750805b1561082457610d9f8383612ab1565b600081815b84518110156118595761299a8286838151811061298d5761298d61331b565b6020026020010151612b9c565b9150806129a68161338a565b91505061296e565b600054610100900460ff166129d55760405162461bcd60e51b8152600401610ba69061365c565b610c4381612507565b606060006129eb83612bc8565b600101905060008167ffffffffffffffff811115612a0b57612a0b612d4b565b6040519080825280601f01601f191660200182016040528015612a35576020820181803683370190505b5090508181016020015b600019016f181899199a1a9b1b9c1cb0b131b232b360811b600a86061a8153600a8504945084612a3f57509392505050565b612a7a816128a8565b6040516001600160a01b038216907fbc7cd75a20ee27fd9adebab32041f755214dbc6bffa90cc0225b39da2e5c2d3b90600090a250565b60606001600160a01b0383163b612b195760405162461bcd60e51b815260206004820152602660248201527f416464726573733a2064656c65676174652063616c6c20746f206e6f6e2d636f6044820152651b9d1c9858dd60d21b6064820152608401610ba6565b600080846001600160a01b031684604051612b349190613772565b600060405180830381855af49150503d8060008114612b6f576040519150601f19603f3d011682016040523d82523d6000602084013e612b74565b606091505b50915091506119a382826040518060600160405280602781526020016137c260279139612ca0565b6000818310612bb857600082815260208490526040902061258e565b5060009182526020526040902090565b60008072184f03e93ff9f4daa797ed6e38ed64bf6a1f0160401b8310612c075772184f03e93ff9f4daa797ed6e38ed64bf6a1f0160401b830492506040015b6d04ee2d6d415b85acef81000000008310612c33576d04ee2d6d415b85acef8100000000830492506020015b662386f26fc100008310612c5157662386f26fc10000830492506010015b6305f5e1008310612c69576305f5e100830492506008015b6127108310612c7d57612710830492506004015b60648310612c8f576064830492506002015b600a831061085d5760010192915050565b60608315612caf57508161258e565b61258e8383815115612cc45781518083602001fd5b8060405162461bcd60e51b8152600401610ba6919061378e565b5080546000825560020290600052602060002090810190610c4391905b80821115612d155760008082556001820155600201612cfb565b5090565b6001600160a01b0381168114610c4357600080fd5b600060208284031215612d4057600080fd5b813561258e81612d19565b634e487b7160e01b600052604160045260246000fd5b604051601f8201601f1916810167ffffffffffffffff81118282101715612d8a57612d8a612d4b565b604052919050565b60008060408385031215612da557600080fd5b8235915060208084013567ffffffffffffffff80821115612dc557600080fd5b818601915086601f830112612dd957600080fd5b813581811115612deb57612deb612d4b565b8060051b9150612dfc848301612d61565b8181529183018401918481019089841115612e1657600080fd5b938501935b83851015612e3457843582529385019390850190612e1b565b8096505050505050509250929050565b600060208284031215612e5657600080fd5b5035919050565b60008083601f840112612e6f57600080fd5b50813567ffffffffffffffff811115612e8757600080fd5b6020830191508360208260051b8501011115612ea257600080fd5b9250929050565b60008060008060408587031215612ebf57600080fd5b843567ffffffffffffffff80821115612ed757600080fd5b612ee388838901612e5d565b90965094506020870135915080821115612efc57600080fd5b50612f0987828801612e5d565b95989497509550505050565b60008060208385031215612f2857600080fd5b823567ffffffffffffffff811115612f3f57600080fd5b612f4b85828601612e5d565b90969095509350505050565b60008060208385031215612f6a57600080fd5b823567ffffffffffffffff80821115612f8257600080fd5b818501915085601f830112612f9657600080fd5b813581811115612fa557600080fd5b866020606083028501011115612fba57600080fd5b60209290920196919550909350505050565b60008060408385031215612fdf57600080fd5b8235612fea81612d19565b915060208381013567ffffffffffffffff8082111561300857600080fd5b818601915086601f83011261301c57600080fd5b81358181111561302e5761302e612d4b565b613040601f8201601f19168501612d61565b9150808252878482850101111561305657600080fd5b80848401858401376000848284010152508093505050509250929050565b6060810161085d8284805161ffff908116835260208083015182169084015260409182015116910152565b602080825282518282018190526000919060409081850190868401855b828110156130e1578151805185528601518685015292840192908501906001016130bc565b5091979650505050505050565b61ffff81168114610c4357600080fd5b6000806040838503121561311157600080fd5b823561311c816130ee565b946020939093013593505050565b6020808252825182820181905260009190848201906040850190845b8181101561318957613176838551805161ffff908116835260208083015182169084015260409182015116910152565b9284019260609290920191600101613146565b50909695505050505050565b6000806000604084860312156131aa57600080fd5b833567ffffffffffffffff8111156131c157600080fd5b6131cd86828701612e5d565b90945092505060208401356131e181612d19565b809150509250925092565b8015158114610c4357600080fd5b6000806040838503121561320d57600080fd5b823561321881612d19565b91506020830135613228816131ec565b809150509250929050565b6000806020838503121561324657600080fd5b823567ffffffffffffffff8082111561325e57600080fd5b818501915085601f83011261327257600080fd5b81358181111561328157600080fd5b8660208260061b8501011115612fba57600080fd5b600080604083850312156132a957600080fd5b50508035926020909101359150565b60008082840360608112156132cc57600080fd5b8335600281106132db57600080fd5b92506040601f19820112156132ef57600080fd5b506020830190509250929050565b6000806040838503121561331057600080fd5b823561311c81612d19565b634e487b7160e01b600052603260045260246000fd5b60006020828403121561334357600080fd5b5051919050565b634e487b7160e01b600052601160045260246000fd5b8082018082111561085d5761085d61334a565b808202811582820484141761085d5761085d61334a565b60006001820161339c5761339c61334a565b5060010190565b6020808252602c908201527f46756e6374696f6e206d7573742062652063616c6c6564207468726f7567682060408201526b19195b1959d85d1958d85b1b60a21b606082015260800190565b6020808252602c908201527f46756e6374696f6e206d7573742062652063616c6c6564207468726f7567682060408201526b6163746976652070726f787960a01b606082015260800190565b60006020828403121561344d57600080fd5b815161258e816131ec565b8135613463816130ee565b61ffff8116905081548161ffff1982161783556020840135613484816130ee565b63ffff00008160101b169050808363ffffffff1984161717845560408501356134ac816130ee565b65ffff000000008160201b168465ffffffffffff198516178317178555505050505050565b600061ffff8083168181036134e8576134e861334a565b6001019392505050565b60006060828403121561350457600080fd5b6040516060810181811067ffffffffffffffff8211171561352757613527612d4b565b6040528251613535816130ee565b81526020830151613545816130ee565b60208201526040830151613558816130ee565b60408201529392505050565b60006020808301818452808554808352604092508286019150866000528360002060005b828110156130e15781548452600180830154878601529385019360029092019101613588565b634e487b7160e01b600052602160045260246000fd5b60608101600284106135e657634e487b7160e01b600052602160045260246000fd5b83825282356020830152602083013560408301529392505050565b634e487b7160e01b600052601260045260246000fd5b60008261362657613626613601565b500690565b60008261363a5761363a613601565b500490565b60006020828403121561365157600080fd5b815161258e81612d19565b6020808252602b908201527f496e697469616c697a61626c653a20636f6e7472616374206973206e6f74206960408201526a6e697469616c697a696e6760a81b606082015260800190565b60005b838110156136c25781810151838201526020016136aa565b50506000910152565b600082516136dd8184602087016136a7565b64173539b7b760d91b920191825250600501919050565b6000815180845261370c8160208601602086016136a7565b601f01601f19169290920160200192915050565b82815260406020820152600061373960408301846136f4565b949350505050565b8281526080810161258e6020830184805161ffff908116835260208083015182169084015260409182015116910152565b600082516137848184602087016136a7565b9190910192915050565b60208152600061258e60208301846136f456fe360894a13ba1a3210667c828492db98dca3e2076cc3735a920a3ca505d382bbc416464726573733a206c6f772d6c6576656c2064656c65676174652063616c6c206661696c6564a2646970667358221220739b5bb741d99ae75064dfd4caf151025c446dd424ebc483b7b898de28b30e4c64736f6c63430008110033",
  "devdoc": {
    "kind": "dev",
    "methods": {
      "airdrop(address[],uint256[])": {
        "details": "signer mint and airdrop NFT to receivers"
      },
      "claimOwnership()": {
        "details": "pending owner call this function to claim ownership"
      },
      "fulfillRandomWordsCallback(uint256,uint256[])": {
        "details": "chainlink vrf proxy callback request randomWords",
        "params": {
          "randomWords": "return randomWords of requestId",
          "requestId": "requestId generage when request randomWords"
        }
      },
      "openMysteryBox(uint256[])": {
        "details": "bind tokenId and metadata"
      },
      "owner()": {
        "details": "Returns the address of the current owner."
      },
      "pendingOwner()": {
        "details": "Return the address of the pending owner"
      },
      "proxiableUUID()": {
        "details": "Implementation of the ERC1822 {proxiableUUID} function. This returns the storage slot used by the implementation. It is used to validate the implementation's compatibility when performing an upgrade. IMPORTANT: A proxy pointing at a proxiable contract should not be considered proxiable itself, because this risks bricking a proxy that upgrades to it, by delegating to itself until out of gas. Thus it is critical that this function revert if invoked through a proxy. This is guaranteed by the `notDelegated` modifier."
      },
      "publicMint(uint256)": {
        "params": {
          "quantity": "quantities want to mint"
        }
      },
      "renounceOwnership()": {
        "details": "Leaves the contract without owner. It will not be possible to call `onlyOwner` functions anymore. Can only be called by the current owner. NOTE: Renouncing ownership will leave the contract without an owner, thereby removing any functionality that is only available to the owner."
      },
      "setMetadatas((uint16,uint16,uint16)[])": {
        "details": "set id=>metadata map latestMetadata is useed for compatible sence with multiple times to setting"
      },
      "transferOwnership(address,bool)": {
        "details": "Transfers ownership of the contract to a new account (`newOwner`). Can only be called by the current owner. Note If direct is false, it will set an pending owner and the OwnerShipTransferring only happens when the pending owner claim the ownership"
      },
      "upgradeTo(address)": {
        "details": "Upgrade the implementation of the proxy to `newImplementation`. Calls {_authorizeUpgrade}. Emits an {Upgraded} event."
      },
      "upgradeToAndCall(address,bytes)": {
        "details": "Upgrade the implementation of the proxy to `newImplementation`, and subsequently execute the function call encoded in `data`. Calls {_authorizeUpgrade}. Emits an {Upgraded} event."
      },
      "whitelistMint(bytes32[])": {
        "details": "users in whitelist can mint mystery box"
      }
    },
    "version": 1
  },
  "userdoc": {
    "kind": "user",
    "methods": {
      "publicMint(uint256)": {
        "notice": "public mint"
      }
    },
    "version": 1
  },
  "storageLayout": {
    "storage": [
      {
        "astId": 937,
        "contract": "src/nft/NFTManager.sol:NFTManager",
        "label": "_initialized",
        "offset": 0,
        "slot": "0",
        "type": "t_uint8"
      },
      {
        "astId": 940,
        "contract": "src/nft/NFTManager.sol:NFTManager",
        "label": "_initializing",
        "offset": 1,
        "slot": "0",
        "type": "t_bool"
      },
      {
        "astId": 919,
        "contract": "src/nft/NFTManager.sol:NFTManager",
        "label": "__gap",
        "offset": 0,
        "slot": "1",
        "type": "t_array(t_uint256)50_storage"
      },
      {
        "astId": 1234,
        "contract": "src/nft/NFTManager.sol:NFTManager",
        "label": "__gap",
        "offset": 0,
        "slot": "51",
        "type": "t_array(t_uint256)50_storage"
      },
      {
        "astId": 3984,
        "contract": "src/nft/NFTManager.sol:NFTManager",
        "label": "__gap",
        "offset": 0,
        "slot": "101",
        "type": "t_array(t_uint256)50_storage"
      },
      {
        "astId": 9101,
        "contract": "src/nft/NFTManager.sol:NFTManager",
        "label": "_owner",
        "offset": 0,
        "slot": "151",
        "type": "t_address"
      },
      {
        "astId": 9103,
        "contract": "src/nft/NFTManager.sol:NFTManager",
        "label": "_pendingOwner",
        "offset": 0,
        "slot": "152",
        "type": "t_address"
      },
      {
        "astId": 9294,
        "contract": "src/nft/NFTManager.sol:NFTManager",
        "label": "__gap",
        "offset": 0,
        "slot": "153",
        "type": "t_array(t_uint256)48_storage"
      },
      {
        "astId": 22109,
        "contract": "src/nft/NFTManager.sol:NFTManager",
        "label": "degenNFT",
        "offset": 0,
        "slot": "201",
        "type": "t_contract(IDegenNFT)16238"
      },
      {
        "astId": 22111,
        "contract": "src/nft/NFTManager.sol:NFTManager",
        "label": "chainlinkVRFProxy",
        "offset": 0,
        "slot": "202",
        "type": "t_address"
      },
      {
        "astId": 22113,
        "contract": "src/nft/NFTManager.sol:NFTManager",
        "label": "latestMetadataIdx",
        "offset": 20,
        "slot": "202",
        "type": "t_uint16"
      },
      {
        "astId": 22115,
        "contract": "src/nft/NFTManager.sol:NFTManager",
        "label": "merkleRoot",
        "offset": 0,
        "slot": "203",
        "type": "t_bytes32"
      },
      {
        "astId": 22119,
        "contract": "src/nft/NFTManager.sol:NFTManager",
        "label": "signers",
        "offset": 0,
        "slot": "204",
        "type": "t_mapping(t_address,t_bool)"
      },
      {
        "astId": 22122,
        "contract": "src/nft/NFTManager.sol:NFTManager",
        "label": "hasMinted",
        "offset": 0,
        "slot": "205",
        "type": "t_struct(BitMap)6236_storage"
      },
      {
        "astId": 22127,
        "contract": "src/nft/NFTManager.sol:NFTManager",
        "label": "metadatas",
        "offset": 0,
        "slot": "206",
        "type": "t_mapping(t_uint256,t_struct(Property)16146_storage)"
      },
      {
        "astId": 22131,
        "contract": "src/nft/NFTManager.sol:NFTManager",
        "label": "requestIdToTokenId",
        "offset": 0,
        "slot": "207",
        "type": "t_mapping(t_uint256,t_uint256)"
      },
      {
        "astId": 22135,
        "contract": "src/nft/NFTManager.sol:NFTManager",
        "label": "metadataUsed",
        "offset": 0,
        "slot": "208",
        "type": "t_mapping(t_uint256,t_bool)"
      },
      {
        "astId": 22139,
        "contract": "src/nft/NFTManager.sol:NFTManager",
        "label": "opened",
        "offset": 0,
        "slot": "209",
        "type": "t_mapping(t_uint256,t_bool)"
      },
      {
        "astId": 22145,
        "contract": "src/nft/NFTManager.sol:NFTManager",
        "label": "mintTime",
        "offset": 0,
        "slot": "210",
        "type": "t_mapping(t_enum(MintType)16243,t_struct(MintTime)16248_storage)"
      },
      {
        "astId": 22149,
        "contract": "src/nft/NFTManager.sol:NFTManager",
        "label": "burnRefundConfigs",
        "offset": 0,
        "slot": "211",
        "type": "t_array(t_struct(BurnRefundConfig)16253_storage)dyn_storage"
      },
      {
        "astId": 22151,
        "contract": "src/nft/NFTManager.sol:NFTManager",
        "label": "mintFee",
        "offset": 0,
        "slot": "212",
        "type": "t_uint256"
      },
      {
        "astId": 22154,
        "contract": "src/nft/NFTManager.sol:NFTManager",
        "label": "openFailedBoxs",
        "offset": 0,
        "slot": "213",
        "type": "t_array(t_uint256)dyn_storage"
      },
      {
        "astId": 22158,
        "contract": "src/nft/NFTManager.sol:NFTManager",
        "label": "_gap",
        "offset": 0,
        "slot": "214",
        "type": "t_array(t_uint256)48_storage"
      }
    ],
    "types": {
      "t_address": {
        "encoding": "inplace",
        "label": "address",
        "numberOfBytes": "20"
      },
      "t_array(t_struct(BurnRefundConfig)16253_storage)dyn_storage": {
        "base": "t_struct(BurnRefundConfig)16253_storage",
        "encoding": "dynamic_array",
        "label": "struct INFTManagerDefination.BurnRefundConfig[]",
        "numberOfBytes": "32"
      },
      "t_array(t_uint256)48_storage": {
        "base": "t_uint256",
        "encoding": "inplace",
        "label": "uint256[48]",
        "numberOfBytes": "1536"
      },
      "t_array(t_uint256)50_storage": {
        "base": "t_uint256",
        "encoding": "inplace",
        "label": "uint256[50]",
        "numberOfBytes": "1600"
      },
      "t_array(t_uint256)dyn_storage": {
        "base": "t_uint256",
        "encoding": "dynamic_array",
        "label": "uint256[]",
        "numberOfBytes": "32"
      },
      "t_bool": {
        "encoding": "inplace",
        "label": "bool",
        "numberOfBytes": "1"
      },
      "t_bytes32": {
        "encoding": "inplace",
        "label": "bytes32",
        "numberOfBytes": "32"
      },
      "t_contract(IDegenNFT)16238": {
        "encoding": "inplace",
        "label": "contract IDegenNFT",
        "numberOfBytes": "20"
      },
      "t_enum(MintType)16243": {
        "encoding": "inplace",
        "label": "enum INFTManagerDefination.MintType",
        "numberOfBytes": "1"
      },
      "t_mapping(t_address,t_bool)": {
        "encoding": "mapping",
        "key": "t_address",
        "label": "mapping(address => bool)",
        "numberOfBytes": "32",
        "value": "t_bool"
      },
      "t_mapping(t_enum(MintType)16243,t_struct(MintTime)16248_storage)": {
        "encoding": "mapping",
        "key": "t_enum(MintType)16243",
        "label": "mapping(enum INFTManagerDefination.MintType => struct INFTManagerDefination.MintTime)",
        "numberOfBytes": "32",
        "value": "t_struct(MintTime)16248_storage"
      },
      "t_mapping(t_uint256,t_bool)": {
        "encoding": "mapping",
        "key": "t_uint256",
        "label": "mapping(uint256 => bool)",
        "numberOfBytes": "32",
        "value": "t_bool"
      },
      "t_mapping(t_uint256,t_struct(Property)16146_storage)": {
        "encoding": "mapping",
        "key": "t_uint256",
        "label": "mapping(uint256 => struct IDegenNFTDefination.Property)",
        "numberOfBytes": "32",
        "value": "t_struct(Property)16146_storage"
      },
      "t_mapping(t_uint256,t_uint256)": {
        "encoding": "mapping",
        "key": "t_uint256",
        "label": "mapping(uint256 => uint256)",
        "numberOfBytes": "32",
        "value": "t_uint256"
      },
      "t_struct(BitMap)6236_storage": {
        "encoding": "inplace",
        "label": "struct BitMapsUpgradeable.BitMap",
        "members": [
          {
            "astId": 6235,
            "contract": "src/nft/NFTManager.sol:NFTManager",
            "label": "_data",
            "offset": 0,
            "slot": "0",
            "type": "t_mapping(t_uint256,t_uint256)"
          }
        ],
        "numberOfBytes": "32"
      },
      "t_struct(BurnRefundConfig)16253_storage": {
        "encoding": "inplace",
        "label": "struct INFTManagerDefination.BurnRefundConfig",
        "members": [
          {
            "astId": 16250,
            "contract": "src/nft/NFTManager.sol:NFTManager",
            "label": "nativeToken",
            "offset": 0,
            "slot": "0",
            "type": "t_uint256"
          },
          {
            "astId": 16252,
            "contract": "src/nft/NFTManager.sol:NFTManager",
            "label": "rebornToken",
            "offset": 0,
            "slot": "1",
            "type": "t_uint256"
          }
        ],
        "numberOfBytes": "64"
      },
      "t_struct(MintTime)16248_storage": {
        "encoding": "inplace",
        "label": "struct INFTManagerDefination.MintTime",
        "members": [
          {
            "astId": 16245,
            "contract": "src/nft/NFTManager.sol:NFTManager",
            "label": "startTime",
            "offset": 0,
            "slot": "0",
            "type": "t_uint256"
          },
          {
            "astId": 16247,
            "contract": "src/nft/NFTManager.sol:NFTManager",
            "label": "endTime",
            "offset": 0,
            "slot": "1",
            "type": "t_uint256"
          }
        ],
        "numberOfBytes": "64"
      },
      "t_struct(Property)16146_storage": {
        "encoding": "inplace",
        "label": "struct IDegenNFTDefination.Property",
        "members": [
          {
            "astId": 16141,
            "contract": "src/nft/NFTManager.sol:NFTManager",
            "label": "nameId",
            "offset": 0,
            "slot": "0",
            "type": "t_uint16"
          },
          {
            "astId": 16143,
            "contract": "src/nft/NFTManager.sol:NFTManager",
            "label": "rarity",
            "offset": 2,
            "slot": "0",
            "type": "t_uint16"
          },
          {
            "astId": 16145,
            "contract": "src/nft/NFTManager.sol:NFTManager",
            "label": "tokenType",
            "offset": 4,
            "slot": "0",
            "type": "t_uint16"
          }
        ],
        "numberOfBytes": "32"
      },
      "t_uint16": {
        "encoding": "inplace",
        "label": "uint16",
        "numberOfBytes": "2"
      },
      "t_uint256": {
        "encoding": "inplace",
        "label": "uint256",
        "numberOfBytes": "32"
      },
      "t_uint8": {
        "encoding": "inplace",
        "label": "uint8",
        "numberOfBytes": "1"
      }
    }
  }
}